:1000000000000320D1010000A93C0000613C000079
:10001000613C0000613C0000613C0000613C00006C
:10002000613C0000613C0000613C0000A93C000014
:10003000A93C0000613C00005D52000061520000DC
:10004000A93C0000A93C0000A93C0000A93C00001C
:10005000A93C0000A93C0000A93C0000A93C00000C
:10006000A93C0000A93C0000A93C0000A93C0000FC
:10007000A93C0000A93C0000A93C0000A93C0000EC
:10008000A93C0000A93C0000A93C0000A93C0000DC
:10009000A93C0000A93C0000A93C0000A93C0000CC
:1000A000A93C0000A93C0000A93C0000A93C0000BC
:1000B000A93C0000A93C0000A93C0000A93C0000AC
:1000C000A93C0000915F0000A93C00002D650000E4
:1000D000A93C0000A93C0000A93C0000A93C00008C
:1000E000A93C0000A93C0000A93C0000A93C00007C
:1000F000A93C0000A93C0000A93C0000A93C00006C
:100100000D560000215600003556000049560000EB
:10011000A93C00009D420000A93C0000A93C000051
:10012000A93C0000A93C0000A93C0000A93C00003B
:10013000A93C0000A93C0000A93C0000A93C00002B
:10014000A93C0000A93C0000A93C0000A93C00001B
:10015000A93C0000A93C0000A93C0000A93C00000B
:10016000A93C0000A93C0000A93C0000A93C0000FB
:10017000A93C0000A93C0000A93C0000A93C0000EB
:10018000A93C0000A1340000A93C0000A93C0000EB
:10019000A93C0000A93C0000A93C0000A93C0000CB
:1001A000A93C0000A93C0000A93C0000A93C0000BB
:1001B000A93C0000A93C0000A93C0000A93C0000AB
:1001C000A93C0000A93C0000A93C0000A93C00009B
:1001D0005C4B4CF2205210B51A804DF628121A8052
:1001E00000BF00BF03F064FD574B4FF030621A6050
:1001F000564A9A60564ADA60564B4FF470021A60BB
:10020000554B564A1A60564B1A78110703D51A787F
:1002100042F008021A70534B5349AA221A70534AEB
:10022000534B8B4204D252F8040F43F8040BF8E707
:10023000504B514900228B4202D243F8042BFAE77B
:100240004E494F4A002352F8230041F8230001335E
:10025000742BF8D14B4B4C4A802103F8011B93427D
:10026000FBD14A4B454A1A60494B8A221A70A3F5C2
:10027000805324225A70A0221A709A799207FCD5D2
:100280009A79D406FCD4434A937903F00C03082BE3
:10029000FAD1414B60221A7002331A78802AFCD1BD
:1002A0003C4B01221A715D225A719A799006FCD555
:1002B0009979384A4906FBD5384B394919600021EC
:1002C000596020231370937903F00C030C2BFAD19F
:1002D000344B354A1A60354A354C136813F4807331
:1002E00003D123604FF4A8531360324B324A1A6093
:1002F00000225A60072243F8042C304AC3F80C2D20
:1003000062B603F03BFE2368DA0705D52C4803F0FC
:10031000A1FD2C4B2C4A1A602C4B1B785B0609D58F
:10032000284C294B22689A4204D1254803F092FDBB
:100330000023236006F028FF03F0C0FC05F0C8F995
:10034000FEE700BF0E20054030800440823F0400DD
:100350000100002B88ED00E0002008E0030000858C
:1003600002D0074000E00740EC10FF1FDC810000D6
:100370003007FF1FF010FF1F20A001200002FF1F09
:100380000000000000E400E064E400E008ED00E0AC
:10039000005006400040064001E007404480044011
:1003A0000000060204800440C010070010D0034083
:1003B00014D0034014E000E01FBF02000000202022
:1003C0003ACA54601CE00340A5C3945A00F00740A9
:1003D000FFFFFFFFFFFFFFFFFFFFFFFFFFFFFFFF2D
:1003E000FFFFFFFFFFFFFFFFFFFFFFFFFFFFFFFF1D
:1003F000FFFFFFFFFFFFFFFFFFFFFFFFFFFFFFFF0D
:10040000FFFFFFFFFFFFFFFFFFFFFFFFDEF9FFFF23
:1004100010B5054C237833B9044B13B10448AFF33E
:1004200000800123237010BDF010FF1F00000000AA
:10043000D8810000084B10B51BB108490848AFF33C
:1004400000800848036803B910BD074B002BFBD0A0
:10045000BDE81040184700BF00000000F410FF1F67
:10046000D8810000EC10FF1F000000004F4B5049E6
:100470002DE9F04100221E684E4D02E0172C08D0F5
:10048000224631F8023F95FBF3F39E4202F101044C
:10049000F4D3494B494F53F82230FA7A43F0705164
:1004A00002B372B6FC7AE507224606D5444DFA68D7
:1004B0002E683240FA612A602246A40706D5414DD3
:1004C0003C692E68FA7A34403C622C60560706D5A7
:1004D0003D4D7C692E68FA7A34407C622C601507A9
:1004E0005AD462B63A68D4688C4207D043F0F843D5
:1004F000364D374C1560D16013611460037C73B3C3
:10050000344C00F11406002501214FF0004C4FF04F
:10051000805E437C54F8333083F8001116F8018F65
:10052000C2F82CC0C2F834E0D36A002BFCDA936B1B
:1005300020F818303223427C54F83220013B82F8F4
:100540008010F8D1327830F81230C3F30C0320F861
:100550001230037C0135AB4201DD3A68D9E7FB7A02
:1005600016491A46FBB1DC0703D51B4AC96911605D
:100570001A46980703D5194B396AFA7A1960510758
:1005800003D5174B796AFA7A1960130702D5154B10
:10059000BA6A1A60BDE8F081134CBA6925682A402E
:1005A000BA6222609DE7BDE8F08100BF3407FF1FFB
:1005B0003A7D000000879303007E00006C07FF1F58
:1005C00080E100E084E100E088E100E001403F00DC
:1005D00000003F80787E000000E100E004E100E0E0
:1005E00008E100E00CE100E08CE100E0704700BFB2
:1005F000404BF0B40022404C1E68404D02E01729E9
:1006000008D00A4634F8023F95FBF3F39E4202F10C
:100610000101F4D33A4B3B4953F82230CC7A43F0F2
:1006200070550CB372B6CA7AD607144606D5364E44
:10063000CC6837683C40CC6134601446920706D5DC
:10064000324E0A693768CC7A3A400A6232606707EC
:1006500006D52F4E4A693768CC7A3A404A623260F2
:1006600026073FD462B6CC7A0A68D668AE4207D075
:1006700043F0F843274F284E1760D560136116608A
:10068000437C264D55F83330012683F80061438AB8
:100690004FF0004643F08053D6625363D36A002B79
:1006A000FCDA437C926B55F83330012283F88020CA
:1006B000B4B1E50703D51A4BCA69CC7A1A60A00712
:1006C00003D5184B0A6ACC7A1A60620703D5164B19
:1006D0004A6ACC7A1A60230702D5144B8A6A1A60D8
:1006E000F0BC7047124C8A69266832408A622260E8
:1006F000B8E700BF3407FF1F3A7D0000008793036F
:10070000007E00006C07FF1F80E100E084E100E054
:1007100088E100E001403F0000003F80787E00005B
:1007200000E100E004E100E008E100E00CE100E0AD
:100730008CE100E0027C013A4FF400435107438210
:1007400044BF4FF410434382910744BF43F4006316
:100750004382D20748BF43F4806343F038034382A7
:10076000FFF746BF154AF8B51346044653F8086F1D
:10077000106857685D68C4F81500002308222274C9
:1007800022756382C4F82530C4F8293061740846A4
:10079000C4F81970C4F81D60C4F82150012103F099
:1007A00071FB0121607C03F067FB054801F0DAF979
:1007B0002046FFF7BFFF2046F8BD00BFF47C0000D5
:1007C0006C07FF1FF8B5014448F230054B7F034426
:1007D000044683F825204582FFF70AFF4FF42043A3
:1007E000638204F124000B210C22012610F8013F42
:1007F000022B48D0032B3DD0012B03D1658A8B40BF
:100800002B436382023A042AA1F10201EED1204671
:10081000FFF7EEFE4FF44043638204F128000B2102
:100820000C22012610F8013F022B1DD0032B12D001
:10083000012B03D1658A8B402B436382023A042A41
:10084000A1F10201EED12046FFF7D2FE2046BDE81D
:10085000F840FFF76FBF678A06FA02F306FA01F560
:100860002B433B436382E9E7638A06FA02F52B4395
:100870006382E3E7678A06FA02F306FA01F52B437F
:100880003B436382BEE7638A06FA02F52B43638229
:10089000B8E700BF00207047027C02F0080202F0B7
:1008A000FF0332B1C36A406A181A48BF6FF00040B4
:1008B00070471846704700BF00B583B001220DF1A4
:1008C0000701103001F0B2FA01280CBF9DF80700B3
:1008D0004FF0FF3003B05DF804FB00BF103001F0B3
:1008E0006DBB00BF103001F06DBC00BF103001F0D7
:1008F0006FBC00BF00B583B002AB012203F8011D3D
:100900001030194601F064FC03B05DF804FB00BF31
:1009100010B5044604F058FE204610BDF8B51C4C36
:10092000237873B11B4B1D783DB31B4D1B492A68BF
:100930001B48002652001E7001F04AFC2E60002366
:100940002370184C2378BBB1174A18491378C3F1A8
:100950000103DBB2002021F81300012B13700BBF41
:100960000A884A88124913491348520001F046F890
:1009700004F0C2FB00232370F8BD104E104932680A
:100980000748520001271F7001F022FC3560D6E7AE
:100990006411FF1F6C11FF1F48120020B411FF1FCC
:1009A000C41100201411FF1F2011FF1F5C8F0020B5
:1009B00050120020D05000202411FF1FD89B01208E
:1009C000D893002070B4214B1B7833B3204B1C7894
:1009D0009CB1204D204B214A2E6804F10040013883
:1009E00003EB400002EB4602023B33F8021F22F801
:1009F000021B8342F9D134442C60194A1949136807
:100A000009681948013301248B421360047002D134
:100A1000164B00221A7070BC70470D4B1C78002CCE
:100A2000EBD0134D0C4B134A2E6804F100400138F3
:100A300003EB400002EB4602023B33F8021F22F8B0
:100A4000021B8342F9D134442C60D6E76C11FF1F9E
:100A50006907FF1F48120020F0110020B411FF1F8A
:100A6000608F00204811FF1F6411FF1F1E1200201D
:100A7000D89B0120D8930020012809D005D3022853
:100A800002D1054800F06ABF7047044800F066BF15
:100A9000034800F063BF00BF0C11FF1F2411FF1FAC
:100AA0005011FF1F10B50C4C4121204600F020FFD3
:100AB0000A4B2046196800F027FF2046082100F065
:100AC00017FF20460649082200F09AFF2046002121
:100AD000BDE8104000F00CBF5011FF1F4407FF1F7E
:100AE0003807FF1FFFFFFFFF2DE9F04FB34893B01A
:100AF00000F0F6FE40B3B14800F030FFB04AB14B11
:100B0000107001221A70B04B00244F281C7000F0A6
:100B1000038240F28380542800F0518440F2A48084
:100B20005A2800F0798340F25D83FE2800F050835C
:100B3000FF2823D1A34B1B78012B1FD1FFF7B2FF56
:100B4000A24BA34C01931CE0A24800F0C9FE04464E
:100B500048B1A04800F002FF994A9A4B1070022257
:100B60001A70994BD0E79C4800F0BAFE002840F07C
:100B70009480954B1A78002A40F00185944C934B51
:100B800001939248FFF772FC2378002B00F09D80C0
:100B9000924E934FDFF88C92DFF88C82DFF88CA2B4
:100BA000DFF88CB28F4B904A002529E038784FF05F
:100BB000000E88F800E000287BD099F8000000289B
:100BC00040F0E280894830F81500884224D801219D
:100BD00088F8001086490978002940F047810135DE
:100BE00084490978002940F0388100213970217842
:100BF000A94207F1010709F1010908F1010864DDC3
:100C00001BF8050036F8021F3AF810E0585D7144F1
:100C100089B231800028C9D10135E8E7452800F0C4
:100C2000D88100F23481432800F0B18300F2F181D1
:100C30004128A3D1634B1D78002D9FD16E4B664890
:100C40001B78634C002B40F06B84604B019300F0E9
:100C500085FE034601465D482370FFF7C7FC01216E
:100C60005D4800F045FE8CE7522800F0D38300F287
:100C70003D82502882D1534B1B78002B7FF47EAFEE
:100C8000524B5548019300F069FE5C4B504C187074
:100C90000121514800F02CFE73E74F4800F05EFE42
:100CA000574B1B78834200F02B84454A464B107803
:100CB0002AE799F8000000286DD132F81500884223
:100CC000AAD301210D44397091E74B4B1B78002BBF
:100CD00040F0C0804B4B1F78002F4FD04A4BDFF8BD
:100CE000309193F800E0BEF1000F40F0C980474A10
:100CF000B9F80030522122F813102078444A013309
:100D000029F81E30002836D0424B55881688DFF867
:100D100024B12E4ADFF8F4A0214601384FF0000C30
:100D200018447446013BE0468E4609E0B2F800C024
:100D30002AF816C0BC468EB2984202F1020211D0C7
:100D400013F8011F0029F7D0711C002CEED0118878
:100D50002BF81510984205F10105ADB2B84602F125
:100D60000202EDD17446B8F1000F40F00C84BCF1E2
:100D7000000F40F00C84284B01221A70274B1B787F
:100D80007BB913B0BDE8F08F184830F815008842E1
:100D9000FFF442AF1BE732F81500884291D90135C4
:100DA00025E7164B0B48197800F0A2FD2378002B9D
:100DB000E7D01B4E019F002542E000BF5011FF1FEE
:100DC0002C11FF1F4C11FF1F45120020F0110020B5
:100DD0006907FF1F0C11FF1F2411FF1FEE110020D8
:100DE0004807FF1FE8110020301200205807FF1F9E
:100DF000508F0020A411FF1F1E1200204107FF1F6B
:100E00005407FF1F441200202011FF1F5012002022
:100E10005C8F00203411FF1F1411FF1FD49300209A
:100E20001F12002028120020A811FF1F5C11FF1FB5
:100E3000548F0020D050002023780135AB42A0DD34
:100E400016F8013F002BF7D037F81510B64800F020
:100E500051FDF1E7FFF7B6FD3CE7E9B2B348039275
:100E6000029300F045FD039A029BBEE60135E9B20C
:100E7000AF480392029300F03BFD039A029BAFE65A
:100E8000AC4A39F81E30522122F8131035E74B28AE
:100E900000F06A824C2800F07F8146287FF46EAE15
:100EA000A54B1B78002B7FF469AEA44B1B78002B5D
:100EB00040F0C2829E48A24C00F06CFD2060A14828
:100EC00004F082FB206805F0D3FD02460B460020AB
:100ED0009D4905F06DFF92A3D3E9002305F03EFE86
:100EE0009A4BC3E9000106F0F3F807EE100AB5EEDD
:100EF000C07AF1EE10FA07D9DFED957AB4EEE77A11
:100F0000F1EE10FA40F329830121924B8848924C6C
:100F1000019300F0EDFC34E6874B1D78002D7FF443
:100F20002DAEA1218248864E8B4C8C4F00F0E0FC08
:100F30008B4B7F48196800F0E7FC8A4B8A4A7F494F
:100F40008A481D70082315700D704FF47A72194687
:100F500005708048326023703D70FFF747FB794889
:100F600004F032FB306805F083FD02460B4600209A
:100F7000754905F01DFF6AA3D3E9002305F0EEFDD6
:100F8000724BC3E9000106F0A3F807EE100AB5EEB4
:100F9000C07AF1EE10FA7FF6F2ADDFED6D7AB4EEC5
:100FA000E77AF1EE10FA3FF7EAADDFED716AFEEE97
:100FB000007AE7EE267AFCEEE77A17EE902A232AEB
:100FC0007FF6DDAD634B6B495E48019304F0B2FAE6
:100FD000D7E5594D2878FFF74FFD674B187000286B
:100FE00000F08582012807D12878FFF745FD5F4B87
:100FF000003018BF01201870604B012103F1080276
:1010000003F8011F9342FBD12B78002B7FF4B6AD80
:101010007AE7494B1B78002B7FF4B0AD5849474A1B
:101020000D781370002DFDD1DFF8688155484A4CCA
:10103000294601F00BF8D8F8007026787B0006FBF3
:1010400003F3B3F5006F40F27582384605F010FDEA
:10105000824630468B4605F00BFD02460B46504655
:10106000594605F07BFD02460B4605F0C5FB002204
:101070004FF07D5305F072FD41EC100B05F020FBA5
:1010800051EC100B06F004F83F4E3060394628480A
:1010900000F03AFC33688BB100254FF400623B4905
:1010A000384800F0C3FE4FF400623849204800F091
:1010B000A5FC336801359D42EFD39B02D8F8002090
:1010C0002178334D02FB01F2D31A5A002A60002A1C
:1010D0003FF455AD1F4B2D492A48019300F0A6FE61
:1010E0002A682A49124800F089FC4AE5124C207807
:1010F000FFF7C2FC204B1870002800F0EB8101289C
:101100007FF43CAD2078FFF7B7FC144A2378003019
:1011100018BF01201070002B7FF430ADF4E600BF43
:101120000000000080842E410C11FF1F5011FF1F92
:101130002411FF1FD05000204C11FF1F1E12002051
:101140005007FF1F1811FF1F0000F03F4011FF1F45
:101150008988884CF01100206907FF1FD493002074
:101160004407FF1F44120020508F0020A411FF1FCE
:1011700000007042E90A00006D11FF1F4707FF1FC2
:101180006411FF1FC41100205811FF1FD8930120C4
:101190004C120020608F0020AF4D2878FFF76CFCC8
:1011A000AE4B06461870002800F0528101287FF4EB
:1011B0002BAF2146AA48AB4F00F048FFAA48AB49E5
:1011C000AB4AAC4B3E7004600C6014601C701BE7B3
:1011D000A14C2378002B00F09D81022B7FF4CEAC34
:1011E000FE2192E657287FF4C9AC9B4B1B78002B5D
:1011F0007FF4C4AC9B4B1B78002B40F01D819E4BB1
:101200009E48019300F0C6FB9D4B9E4C1860012147
:101210009A4800F06DFBB4E48F4B1B78002B7FF4F1
:10122000ADAC904B1D78002D7FF4A8AC924BDFF84D
:101230009492DFF89482DFF858A2934F01932E46E0
:101240009B46EAB200218C48FFF7BCFA6424C9F837
:1012500000608948FFF70AF9D9F80030BBF8002090
:10126000013C1344C9F80030F3D1A7FB03235B0909
:10127000C3F57F630F331BB22AF815300135032DF8
:10128000A8F80030DDD1DFF844B27B489BF800209D
:101290007E4F7F4E2146FFF795FA714800F056FDCC
:1012A0004FF47A757B497C4800F0BCFE44F202237F
:1012B000784A7949079509A809AD8DF824408DF839
:1012C00025408DF818408DF82040059700F04CFD22
:1012D0000FCDDFF8FCE10EF110040FC40FCD0FC4E9
:1012E0002A689DF81800079B9DF820106B4D22601E
:1012F0008EF80400CEF808308EF80C10B41D36F9C4
:10130000023B664966482B80022200F061FFA6423C
:10131000F5D1002562485B4C00F018FD4FF47A7659
:1013200044F202235F4A5C498DF824508DF8255021
:101330008DF818508DF8205009A809AD059707962B
:1013400000F012FD0FCD584F07F110060FC60FCD5C
:101350000FC628689DF81810079A9DF82030306055
:101360003971BA603B730CE43B4B1B78002B7FF464
:1013700005AC414B4D4941480193082200F048FB20
:1013800001213E483F4C00F0B3FAFFF7FABB324B65
:101390001B78002B7FF4F2AB374B4549374801935C
:1013A000082200F035FB082242493448354C00F051
:1013B0002FFB0121314800F09BFAFFF7E2BB264BDF
:1013C0001B78002B7FF4DAAB3B4E06F11005344658
:1013D0002A4800F0C5FA24F8020FAC42F8D1374C85
:1013E00004F110072546254800F0BAFA25F8020F47
:1013F000BD42F8D1324B0125002034F8021F36F8E7
:10140000022F914234BF18701D70BC4203F10103DA
:10141000F3D179E5104B1B78002B7FF4AFAB114B68
:101420001C78002C00F089800824144800F096FAFB
:10143000013CFAD1214668E50F4B1048019300F0BA
:10144000A9FA00210D480F4C00F052FAFFF799BBA2
:10145000044B1870D8E500BF4C11FF1F6D11FF1F22
:10146000C41100201E120020608F0020D89B012094
:10147000481200206C11FF1FF01100202411FF1FE3
:101480004811FF1F6907FF1F1F85EB510C7D0000EE
:101490005C11FF1F287D0000A09300203011FF1F6A
:1014A0008011FF1F307D0000B4110020E8110020E2
:1014B0003411FF1F201200205607FF1F2E1200209C
:1014C000281200206811FF1FB011FF1F548F002049
:1014D0007011FF1F304B20780193FFF7CDFA2F4B8F
:1014E0002F4C003018BF01201870FFF74ABB287836
:1014F000FFF7C2FA2B4B003018BF012018707BE5B4
:10150000294800F02BFA294B294A1C701070294BEE
:10151000FFF7FABA0146284800F0EAF923785CE6BA
:101520001D4B019300F01AFA29461F4800F0E0F91C
:10153000FFF727BB214E3560A8E521491A4808224C
:101540004D1E00F065FAE1B215F8012F1248013482
:10155000FFF738F9082CF6D1D6E4DFED1A6AFEEE73
:10156000007AE7EE267AFCEEE77A17EE902A232A35
:101570007FF6CAAC1449154803F0DCFFC4E40C4AFA
:101580001078FFF7C1BAA9F80250FFF7F0BBA9F82D
:101590000060FFF7F0BB00BFF011002044120020F4
:1015A0006907FF1F508F00202411FF1F4C11FF1FE0
:1015B0002C11FF1F451200200C11FF1F5811FF1F97
:1015C000548F002000007042E90A00001811FF1F2C
:1015D000F8B51C4B1C4AC3F860240024DC7183F866
:1015E0003C4483F83D4427211848194D194EFFF714
:1015F000B9F81949194800F071F91949194800F06A
:101600006DF91949194800F069F9194B194A1A4935
:101610001C60184680271F712E6005F0E1F8174AFC
:10162000174B184914744FF47A705474147114736E
:101630001C745C741C711C7390601160986019605C
:10164000F8BD00BF648F0020647E0000F011002010
:10165000401200200000013CF407FF1F2411FF1F6F
:10166000CC07FF1F5011FF1FB807FF1F0C11FF1FF2
:101670001811FF1F3007FF1F11090000B4110020CF
:101680007011FF1F0C7D00002DE9F0417C4D7D4C59
:1016900028788EB0012102F0F5FB2878012102F0B4
:1016A000EBFB7949794803F0E3FD7749784803F08B
:1016B0008FFE784800F056FA04F58C650023284622
:1016C00084F86C3401F004FF002872D100252B4609
:1016D000714A72498DF8045001A88DF8055000F048
:1016E00043FB002840F08380DFF8E88105AC6C49BB
:1016F0006A486C4F00F096FC00254FF47A7644F26D
:101700000223674A65498DF8145020468DF815501C
:101710008DF808508DF810500396CDF8048000F035
:1017200023FB0FCC604E06F110050FC50FCC0FC583
:101730002468039A9DF810309DF80810B260337346
:1017400038682C60317105F093F902460B46002091
:10175000564905F02DFB48A3D3E9002305F0FEF917
:10176000534BC3E9000105F0B3FC07EE900AF5EE18
:10177000C07AF1EE10FA06D99FED4E7AF4EEC77AF0
:10178000F1EE10FA02DD0EB0BDE8F081DFED4A6A3D
:10179000BEEE007AA7EEA67AFCEEC77A17EE902A84
:1017A000232AF0D94549464803F0C4FE0EB0BDE8EF
:1017B000F08104F23C40256000F0C8FA0121204687
:1017C00001F04AFB00284FD02E4C04F23C4528463D
:1017D000214600F025FB00283FF478AF94F83C3414
:1017E00013F0700F3FF472AF364B1D606EE705AC1F
:1017F0004FF47A762B46284A284903962046DFF88C
:10180000D4808DF8145026468DF815508DF8085068
:101810008DF81050CDF8048000F0A6FA0FCEDFF856
:10182000B8E0294F0EF110050FC50FCE0FC5316876
:101830009DF80800039A9DF81030244E29608EF818
:101840000400CEF808208EF80C30BD1D02221F497E
:101850001F4800F0EBFA338827F8023BBD42F5D170
:101860001B4800F073FA42E70146204601F0F4FA03
:101870000028A9D12AE700BF0000000080842E4183
:101880006807FF1F648F0020F4061400B807FF1FCD
:10189000CC07FF1F6C07FF1F287D0000A0930020CE
:1018A000307D00005007FF1FB41100200000F03F02
:1018B0004011FF1F8988884C00007042E90A00002F
:1018C0001811FF1FDC9B01205C11FF1F3011FF1F4F
:1018D0008011FF1F0C7D00007011FF1F0160704719
:1018E000006803681B691847006803681B6818478D
:1018F000FFF7FABF0346818053F8040B02681946CC
:1019000053680222184700BF70B505460068036897
:101910000C461B68C9B2984728680368C4F30721BE
:101920001B68984728680368C4F307411B689847F9
:1019300028680368210E1B68BDE87040184700BF87
:1019400010B50446206803681B6998470028F9D041
:10195000206803685B699847C0B210BDFFF7F0BF0D
:1019600010B50446206803681B6998470028F9D021
:10197000206803685B6998472071206803681B69C9
:1019800098470028F9D0206803685B699847607120
:10199000A08810BD10B50446206803681B699847ED
:1019A0000028F9D0206803685B6998472071206897
:1019B00003681B6998470028F9D0206803685B69B1
:1019C00098476071206803681B6998470028F9D020
:1019D000206803685B699847A071206803681B69E9
:1019E00098470028F9D0206803685B699847E07140
:1019F000606810BD006803685B681847FFF7FABFAE
:101A0000006803685B681847006803F047BE00BFC2
:101A1000FFF7FABF10B4047F4160022CC26003D00C
:101A20005DF8044B03F0B8BB83685DF8044B1847BE
:101A3000F0B4464B464A986B5C6B0179117045498E
:101A400022790A701A6B00790870002A46D059680A
:101A5000C9688A423ED82168CC8B240402F1FF3049
:101A600065D4C0F30E00C883C88B80B2C882996B5E
:101A70000968C88B000452D4C2F30E00C883C88B17
:101A8000002480B212F1FF32C88218BF01221C6309
:101A9000596B2E4809680D6800F12C04A54236D018
:101AA0000068C46814F0804F0C680D6815BF248866
:101AB00024780235013544F000440D604463996B8D
:101AC000254B09791970214912B14A6B12791A70A4
:101AD000F0BC7047521A1A630122D9E7D86B196813
:101AE00005681E4C0A63CC62CC682D681C4E24F03D
:101AF00080440327B542CC6083F82D701FD1037F4B
:101B00004260022BC2601ED0F0BC03F045BB0168EE
:101B100090F82C00CC6840F000404863CFE7CC8BB5
:101B2000C2F3080004F47E442043C883A7E7CC8BAB
:101B3000C0F3080004F47E442043C88394E72B4696
:101B40001146F0BC18478368F0BC18476C07FF1FAC
:101B50001F8000401C8000401B80004000000FFFE1
:101B6000151A000090E80C00F0B41C68596825684C
:101B7000164F174E29432160164D17491760D6603E
:101B800015611160417A154A5C180C3194F82C40AB
:101B900053F8215002EBC40149680D60017A5C18CA
:101BA00003EB8101247ECD6902EBC40149680D601D
:101BB000817A581803EB810390F84000596C02EBCE
:101BC000C002F0BC53681960704700BF01401F009D
:101BD000011000380110007800001F80787E00009E
:101BE00038B504460D462422002105F0E7FDA56026
:101BF000EB79102B08D0202B04D140230120237037
:101C0000A07038BD002038BD202301202370A070B3
:101C100038BD00BF2DE9F041037803F020032BB954
:101C200003F0FF044269214B9A4204D94FF00008A7
:101C30004046BDE8F08183780169054643F004031E
:101C40008068AB7005F1100201F0A2F88046002810
:101C5000ECD02969A86801F027F80646A868314643
:101C60002430052200F0E8FF07460028DED04FF4BC
:101C70000072214605F0A2FDAB681A79012A10D93D
:101C8000012403E0AB681A79A2420AD918680368F4
:101C9000A1199B683A4698470134E4B20028F1D173
:101CA000C4E76B6903EB42226A61C1E7FFFD1F00D5
:101CB00010B5044680680A462430A16900F0BCFFD4
:101CC00020B1A38803F00F0300EB431010BD00BF49
:101CD00038B583785A0704461DD50121FFF7E8FF80
:101CE0000546F0B10378E52B1BD02378164A1B0775
:101CF00044BFE369C361236A126843831B0C838278
:101D00002AB100F11601183090472B8B6B82A37813
:101D100023F00403A370A56805F1240000F0BCFFC4
:101D200028B9637843F001036370002038BD05F5DE
:101D30000C7000F0B1FF0028F3D0286803685B68DE
:101D400098470028EDD0F1E7E09B012010B503781B
:101D500004461BB900232370012010BDFFF7B8FF14
:101D60000023237010BD00BF2DE9F041064692B05C
:101D70003578019200208DF824008DF82500002D83
:101D800039D10C46002936D098460B7813F0700FE5
:101D900031D013782F2B104622D0002702E0019873
:101DA000377009AC01AA03A900F020FB03AA214661
:101DB000002300B3019D2D78304605B300F032FDBD
:101DC000354609ACB8B10FCD0FC40FCD0FC4337871
:101DD0002A682260002BE2D03046FFF779FFDEE769
:101DE0000130019003782F2BFAD0A3B1A16809A884
:101DF000FFF7F6FE60B9002012B0BDE8F08143465F
:101E000003AA2146304600F00DFD12B0BDE8F08176
:101E1000019809ACC1E7A1683046FFF7E1FEEBE7A6
:101E200003780BB100207047FFF7DABE2DE9F04FC1
:101E30000F46017883B0054611B18378DC0708D4DA
:101E40006B784FF0FF3043F002036B7003B0BDE8D6
:101E5000F08F0B07914600F18780880608D5AA68A5
:101E60006B691289C3EB42139BB2994528BF99460F
:101E7000B9F1000F00F097806B698A064E464FF06B
:101E8000000805F1100AC3F3080B3FD5AA68116AD0
:101E900001EB5321BBF1000F52D1B6F5007F4FD3B8
:101EA000D36A99424CD0B6F5806F66D32878800605
:101EB0004FEA562B06D41079C8EB0000C0B2834518
:101EC00028BF834699424FEA4B240BD35B44994287
:101ED00008D202F12400019100F0DEFE0028AFD00C
:101EE000AA680199106802685B46D2F80CB03A46BD
:101EF000D8470028A4D06B69361B234427446B6164
:101F000051D029788A06C3F3080BBFD4A86890F88B
:101F1000058008EA5328BBF1000F2CD1B8F1000F5F
:101F200029D1002B34D14C064CBF016A296A2961A2
:101F300000F0BAFEAA6808EB0001BBF1000FACD0BC
:101F400002F12400002200F077FE00283FF478AF71
:101F5000CBF50074B44228BF344600EB0B01224697
:101F6000384601F0E3FDC6E7EB696A699B1A9945BB
:101F700028BF99467CE72969DAE7106803683A4682
:101F80001B68984700283FF45BAF4FF40074B2E73A
:101F90005246296900F08EFE0028FFF651AF08D0A6
:101FA000A8682969C4E70026C6EB090003B0BDE8AC
:101FB000F08F2B7813F0700FF6D141E770B582B037
:101FC00001220DF10701044646690569FFF72EFF5E
:101FD000012805BF9DF8070066614FF0FF302561BD
:101FE00002B070BD30B54369C3F3431583B00446F6
:101FF00005B189B901220DF107012046FFF716FF4F
:1020000040B201280BD163691F336361A06830308F
:1020100000EB451003B030BD20334361F6E70020EC
:1020200003B030BD10B58AB000240A460123014632
:1020300001A88DF804408DF80540FFF795FE10B11A
:1020400001A800F0F9FA0AB010BD00BF2DE9F04177
:1020500003780769044693B142698A420E4636D036
:1020600021B9216166610120BDE8F08118070AD419
:1020700099060BD5A3681B89B6EB431FF2D92761DC
:102080000020BDE8F081E1698E42F8D8D4F808E07C
:102090009EF80650511E05F10900751EC140C5404D
:1020A000A94200D8B2B95B064CBFDEF82030236AE3
:1020B000236104F110084246002DD3D02169A068A5
:1020C00000F0F8FD002805F1FF35F4DCD7E701202A
:1020D000BDE8F0816D1AECE72DE9F0410E4615469A
:1020E00000212422044698469DF8187005F066FBEE
:1020F000B068336AE36005F00F02520100F130016D
:102100001144A060A580CB7A1B0714D4831893F8E0
:102110003B3003F017032370C97AE77011F0180FF2
:1021200004BF43F00803237008F00303012B06D01B
:10213000022B33D06BB300202070BDE8F081022366
:10214000A370217811F0110FF5D15DB208F480660B
:1021500018F4005F08F0080345EA03030CBF0027EA
:102160006FF07F073B43DBB2A3700244C16AA161F9
:10217000B2F84450B2F84A1041EA05418EB1D9B9DB
:1021800043F00403A37018F4804F0ED10120BDE882
:10219000F08118F48066CED10125D9E70323A3701E
:1021A000CFE72162D36CE361EDE7E1692046FFF7F9
:1021B0004DFF0028EAD1BEE700F02CFE0028BAD07F
:1021C000A378DDE703780BB1FFF782BD01207047EC
:1021D0002DE9F84F03781E0704466FD583789D07D5
:1021E0006CD51B070F46904600F1CB806369DA433C
:1021F000904563D8B8F1000F00F0B68046464FF026
:10220000000933E0002940F08380216A002900F0B2
:102210008A80216100F048FD0146B6F5007F55D364
:10222000B6F5806F66D3A2681379D06A5B1BDBB208
:10223000750AAB4228BF2B4681424FEA432508D39B
:102240001844814205D282F824904FF0FF30D062CA
:10225000A26810680268D2F810A03A46D04768B366
:102260006369761B2B442F4463617DD0A06821698C
:10227000457915EA5325C3F3080A34D1BAF1000FA2
:10228000C0D000F011FD0146CAF50075B54228BF67
:1022900035460122A068243000F0CEFC70B15044D5
:1022A0002A463946AA4401F041FCBAF5007FD7D14D
:1022B000A068243000F0F0FC0028D1D1637843F00E
:1022C000010363704FF0FF30BDE8F88F6369E26986
:1022D000B6F5007F354628BF4FF40075934234BFF2
:1022E00001220522D6E700F0DFFC2918BAF1000F21
:1022F00093D0C9E7A368DA6A914222D018680368CC
:102300003A469B6898470028D8D04FF40075A7E755
:1023100004F1100B5A4600F0CDFC0028CEDB17D09C
:102320002169A06876E7A37843F00403A37004F161
:10233000100200F02DFD0028C0D021692162A068A4
:1023400068E783F824904FF0FF32DA62A368D5E79C
:10235000A3782169A06843F004035A46A37000F0F3
:1023600017FD0028DCD1A9E7E2699A4210D2A278D1
:10237000E36142F00403A3701A0612D44046BDE89C
:10238000F88FE169FFF762FE00287FF42FAF95E731
:10239000094B1B6873B1A37843F004031A06A370BA
:1023A000ECD52378002BE9D02046FFF791FC0028DC
:1023B000E4D183E7A378DFE7E09B012038B5CB6861
:1023C00073B105460C462422002105F0F7F91023CD
:1023D00001202B70A870A268E3682B62AA6038BD48
:1023E0008968BDE83840FFF71BBD00BF2DE9F04FFD
:1023F0000378202B03D110F8013F202BFBD08860FD
:102400000378002B00F007812F2B2FD05C2B22D0DC
:10241000A3F12204E4B21D2C20D9DFF818E2461CF7
:1024200000247C2BA3F12005374614D05E2D12D852
:1024300016F8013BA3F12205EDB20134002B00F0A8
:10244000D3802F2B13D05C2B2EFA05F703D01D2D34
:10245000E7D8FF07E5D50020BDE8F08F754D25FAD8
:1024600004F4E407D9D50020BDE8F08F0024071953
:102470003E4625462F2302E016F8013F0135202B6A
:10248000FAD02F2BF8D0054415604CB13A4612F81B
:10249000013D2E2B02D0202B40F0A980013CF6D12B
:1024A0004FF0FF3523464B6001F1170601F10C0395
:1024B000202203F8012FB342FBD1461E002200E088
:1024C000013216F8013F2E2BFAD0202BF8D0B2FAA9
:1024D00082FC6E1C4FEA5C1C0CD0475D2E2F00EB7B
:1024E000050604D106E016F8017D2E2F02D015F165
:1024F000FF35F8D2A2424FF0000980F291804E469B
:10250000CA4607274FF0080825E02E2B47D0222B7C
:102510000BD07C2B09D0A3F12A0EBEF1050F48D9B0
:10252000A3F13A0EBEF1050F58D8954239D0B74203
:1025300029D34FF0000C5F2306F1010E01EB060BCF
:102540005FFA8EF6062E8BF80D3000D80E7301322E
:10255000A24207DA835C202BD7D10132A2424FF08E
:10256000000CF7DB4B7B202B3FF475AFBCF1000F69
:1025700047D01AEA090F18BF4FF0020981F80090FE
:102580000120BDE8F08F0A2F37D0954235DB2A466F
:102590000A2708264FF010084FF0000CD7E79542A5
:1025A000DBD10A2F29D02A460A2708264FF0100827
:1025B000CDE72D2BB9D1A3F1210EBEF15D0FB4D81B
:1025C0009542EED0B742DED3A3F1610EBEF1190FF2
:1025D00028D8203BDBB248EA0909ADE7A3F15B0E3E
:1025E000BEF1020FA1D9E6E7176007194EE7FF2CED
:1025F0003FF731AF651E234655E74B7B202B3FF459
:102600002AAF0B7B0B4401207E24312208705C73BF
:102610009A73BDE8F08F10601C464FF0FF3542E71B
:10262000CA469FE7A3F1410EBEF1190F98BF48EAD1
:102630000A0A81E7010100352DE9F04102788AB0EC
:10264000002311078DF804308DF8053002D583780A
:102650009A0704D4002630460AB0BDE8F081016A2A
:102660000546002965D101212846FFF721FB0028F6
:10267000F0D0411E00F10A070024620811F8016F32
:1026800042EAC41356FA83F38F42DCB2F5D14FF01D
:10269000E50880F80080AE68002306F124002B7066
:1026A00000F0FAFA0028D5D006F50C7000F0F4FA24
:1026B0000028CFD0306803685B689847064600283A
:1026C000C8D0EB78002BC6D001A82946FFF776FECC
:1026D0000028BFD0EB78002BBCD001271FE001A859
:1026E000FFF780FC7B1C0028B4D0C27A0F2AB1D13E
:1026F000027802F01F018F42DFB2ABD1437BA342CD
:10270000A8D180F80080A96891F8243043F0010333
:1027100081F82430530612D4EB78BB429AD3A988AF
:10272000C91B490101A8FFF791FC00210028D6D15F
:1027300090E7A86800F06EFB00288BD093E7AC68A8
:1027400004F1240000F0A8FA002883D004F50C70EE
:1027500000F0A2FA00283FF47DAF206803685B68B0
:10276000984700283FF476AF75E700BF2DE9F8439E
:102770000F7B0E46044601F10D054FF002084FF0A5
:102780007E097068B16808EB00039BB240B1084451
:1027900011F8012B03EB4313534088429BB2F7D14E
:1027A000032F28BF03273A1DD2B203F00F01B01840
:1027B000013A0929D2B294BF3031373197424FEAFA
:1027C00013134173F1D3F319002183F80D902046C0
:1027D000FFF73CFC01212046FFF704FC0B220346D7
:1027E0000146A8B193F800E02846BEF1000F15D0CD
:1027F000DB7A1B07EED404F0AFFF0028EAD108F122
:1028000001081FFA88F8B8F1640FBAD1BDE8F8835F
:102810006078B0FA80F04009BDE8F8830120BDE897
:10282000F88300BF002900F0B7812DE9F04F0C7844
:1028300014F0700F8BB052D00478002C4FD1147864
:102840005768A40740F0D8804FF0010A0C46904624
:102850000990002120468B460793FFF7F7FB08F10C
:102860000D03CDF818B0CDF80CB05D465E46CDF83E
:1028700014B00493636901212046C3F34F19FFF795
:10288000B1FB10B30378E52B39D0002B37D0554579
:1028900038BF00252E2B30D0C27A0F2A3CD002F050
:1028A000080202F0FF0342BB002E40F077810B22AA
:1028B000049904F051FF0028DCD198F80030DB07C0
:1028C00040F1808101230593D4E763783BB9079AEF
:1028D000960504D502F00303013B012B6BD90020C0
:1028E0000BB0BDE8F08F039A013AD2B29342039243
:1028F00003D1437B069A9A4217D00026BAE7002DEF
:1029000008BFCB4655453CBF0135EDB2002BDED0AC
:10291000E52BBFD10026ADE7002EE4D15A06A9D59C
:1029200003F01F06437B03960693039B013B03EBD7
:10293000430E03EB8E0E7745DFD9CEEB070900235C
:10294000089617E0D8F80860D2B2A2F1410C715C89
:10295000BCF1190F98BF2032A1F1410C98BFD2B23F
:10296000BCF1190F9CBF2031C9B29142C5D10133CE
:102970000D2B4DD0DAB2042A0EEB03010BD90A2A33
:1029800014D95A1C00EB42029288994509D0FF2ABB
:10299000D8D900266EE700EB43029945B2F8012032
:1029A000F5D1002A089E18BF002663E75A1E00EBE7
:1029B0004202D288E9E7002D18BFD946554503D316
:1029C00028E0DDB2AA4525D900212046FFF70AFB01
:1029D0006B1C0028F5D1637823B180E7A3681B79CD
:1029E000012B17D8AA4515D92046FFF713F9103542
:1029F000EDB20028F2D172E77A4D07F10C04A5FB85
:102A0000044A4FEA9A0A0AF1010A5FFA8AFA1DE7B4
:102A1000089E2FE7059B33B141462046FFF7A6FEEF
:102A200000283FF45CAF4FEA49112046FFF70EFB48
:102A300000283FF454AF0AF1FF3616F0FF066BD0C2
:102A400046F04003DBB20393B1464FF0000A002189
:102A50002046FFF7C7FA00283FF441AFA268039968
:102A600092F824304E4543F0010308BF8E464FF0E4
:102A70000F0518BFCE4682F8243008F10C01C5724C
:102A800080F80CA080F800E008F11705002311F889
:102A900001CF5A0842EAC3135CFA83F38D42DBB2DA
:102AA000F5D10EF01F0E0EF1FF3E4373D8F808303B
:102AB00080F81AA00EEB4E020EEB820203EB020B23
:102AC00080F81BA000230FE0042B1BF8031000EB81
:102AD000430EDDB214D90A2D59D8AEF804100133D3
:102AE0000D2B02F1010212D09742EDD814BF4FF026
:102AF000FF310021042B89B200EB430EDDB2EAD88E
:102B000001330D2BAEF8011002F10102ECD109F1F5
:102B1000FF3919F0FF099AD1636900212046C3F3F8
:102B20004F19FFF75FFA054600283FF4D8AE202280
:102B3000002104F043FE43462B4953F80D2F5868FB
:102B400068602A601A899B7AAB722A8198F8002003
:102B50000B6802F018022A73002B37D005F10E0122
:102B600005F1100098472B8AE989A2686B822B83B4
:102B7000E98292F8243043F0010382F82430009671
:102B8000079B09984A462146FFF7A6FAA8E60133B3
:102B900000EB4305A980A3E700207047039A012AB0
:102BA0007FF49DAE451E0A3015F8011F5A0842EA0F
:102BB000C31351FA83F3A842DBB2F5D1069A9A42C5
:102BC0007FF48DAE079B1F05D9D588E621212822E9
:102BD000AB7308232974EB736A744FF4006142F6F7
:102BE0002103C2E74FECC44EE09B0120F8B54368D7
:102BF000816800F10C0604461868036832469B6839
:102C0000984740B123789A07054607D423F001037B
:102C100023702846F8BD00252846F8BD6368A168E2
:102C200018681F690368324639449B689847002832
:102C3000F1D02378EAE700BFF8B583688B420646F7
:102C400014460FD00378DA070F4612D4630716D55F
:102C500006F10C05002304F003041C4334702846DD
:102C6000B760F8BD10F90C3B04F003041C4334704A
:102C7000F8BDFFF7BBFF0028E8D10020F8BD73685E
:102C80001868036806F10C051B682A463946984700
:102C90000028DFD1F1E700BF0378DB0701D4012072
:102CA0007047FFF7A3BF00BF83794069023999409D
:102CB00008447047012933D9C369994230D870B5A7
:102CC000C379202B164605460C4618D0102B13D17D
:102CD0008369C1F307211944022200F50C70FFF744
:102CE000ABFF48B1E1B230F81130EA6993429ABFC4
:102CF00001203360002070BD4FF0FF3070BD81694E
:102D0000022201EBD41100F50C70FFF795FF0028AB
:102D1000F2D004F07F0150F8213023F07043E4E753
:102D20004FF0FF30704700BF01291DD938B5C36986
:102D3000994206D8C379202B15460C4616D0102B85
:102D400001D0002038BD8369C1F30721194400F583
:102D50000C700322FFF770FF03460028F1D0E1B2A8
:102D6000012023F8115038BD0020704781690322EB
:102D700000F50C7001EBD411FFF75EFF034600284D
:102D8000DFD004F07F01012043F8215038BD00BF9F
:102D90002DE9F041C4688C4282B005460F4690464A
:102DA0003ABF0C4600260126EB6901349C4201AA79
:102DB0002846214609D93EBBEC6801349C424FF0BD
:102DC000010601AA28462146F5D8A7421CD0FFF7E4
:102DD00071FF002818DBE7D0019B002BE4D106B17E
:102DE000EC606FF0704221462846FFF79DFF0646D3
:102DF00050B117B9C8F8004007E0394628462246C6
:102E0000FFF792FF0028F5D10026304602B0BDE85A
:102E1000F08100BFF0B583B002AF002347F8043D56
:102E200005460C460AE0FFF77FFF90B1EB689C4235
:102E30009CBF04F1FF34EC60019C5EB13A46214630
:102E40002846FFF737FF061E21464FF000022846AE
:102E5000E9DA002003B0F0BDF8B5044600224FF0D7
:102E6000FF330120A462C4F83442E060E27184F8C8
:102E7000242084F83022E362C4F838320D46C1B110
:102E8000042901D90020F8BD04F12406304611467A
:102E9000FFF7D2FE0028F5D000EB051393F8AE3112
:102EA0005B06EFD11B3500EB0515D5F8065015B9BB
:102EB000E8E704F12406304600222946FFF7BCFE6D
:102EC0000028DFD0B0F80B30B3F5007FDAD1037CF7
:102ED000022BD7D1C389002BD4D0467B2671731E19
:102EE0000021012E6371A1710ED001210A4600E07C
:102EF00019465200D2B24B1C9642DBB203D0092BCA
:102F0000F6D1A171BEE7A171C38A4BB31F462761F9
:102F1000C6892E44A661B0F8113023815A0102F20D
:102F2000FF1206EB470303EB622262612362B0F8F3
:102F3000133003B9036AAD1A1D4425FA01F140F6B6
:102F4000F4734A1C9942E2610CD94FF6F47399422A
:102F500085BFC36A236210232023E3710120F8BDDB
:102F6000476AD4E70C23E3718CE700BFABB1F8B537
:102F70000C46064615465F1801E0BC420BD033688C
:102F80002A4621461B6830469847013405F50075EE
:102F90000028F2D1F8BD0120F8BD0120704700BF24
:102FA000ABB1F8B50C46064615465F1801E0BC42C9
:102FB0000BD033682A4621469B6830469847013437
:102FC00005F500750028F2D1F8BD0120F8BD0120FB
:102FD000704700BF70B5037B012B04460D461646B3
:102FE00006D0236820465B68984798B9002070BDDA
:102FF00043688B42F5D13146204600F021FC002881
:10300000F4D06368A26801339342636024BF002355
:10301000237370BD05F57F42FF3222F47F7222F0E8
:103020000302A2602946521B204600F07DFC0028C6
:10303000DCD0012365602373DDE700BF037B012B38
:1030400007D0022B01D0012070470023037300F04A
:103050006BBD0023037300F0AFBC00BF70B5037BF2
:10306000022B04460D46164606D0236820465B68B0
:10307000984798B9002070BD43688B42F5D131461E
:10308000204600F09BFC0028F4D06368A26801335E
:103090009342636024BF0023237370BD05F57F4214
:1030A000FF3222F47F7222F00302A2602946521BF3
:1030B000204600F0F1FC0028DCD002236560237379
:1030C000DDE700BF034B04481B681840B0FA80F0EE
:1030D0004009704730100B4001000F00024B186888
:1030E00000F00100704700BF24100B40014B18781E
:1030F000704700BF249C0120034B186880F40060D7
:10310000C0F3C020704700BF24100B40034B186869
:1031100080F48060C0F38020704700BF24100B4013
:10312000034B04481B681840B0FA80F04009704710
:1031300030100B4002007F114FF47A722C4B02FBCF
:1031400000F09842F0B44BD82A4D082201214900E2
:103150000B01B5FBF3F39842264C3DD2013AF6D170
:10316000B4FBF1F44B081F02A0423DD2214E4B00AC
:10317000012200E02346B6FBF3F4A04202F1010570
:1031800003EB010426D2102D2A46F3D1F0221A4E69
:103190001A4C18481A494FF47A7505FB03F3B0FB33
:1031A000F3F33360236823F008032360206820F4DE
:1031B0007F2323F47F6343F460233B431A4322605D
:1031C0000B681B07FCD50D4A136843F00803136016
:1031D000F0BC70471201DAE7B4FBF1F4CF01C3E7AA
:1031E000044C00270121BFE70B460022CFE700BFB8
:1031F0004FA9AB000095BA0A289C01202C100B4067
:1032000024100B40F8B5054600F042FE064F064676
:1032100004E000F03DFE801BB84203D8A8470446F6
:103220000028F6D12046F8BD20A107002DE9F04185
:10323000DFF840800E4FC8F80000054600F028FE79
:10324000064606E000F024FE801BB8420AD802F0D1
:103250005FFAA84704460028F4D1C8F800002046C9
:10326000BDE8F0810023C8F800302046BDE8F081B9
:1032700020A10700EC9B012038B504460F480D46FD
:10328000FFF7C0FF08B1002038BD0D4A0D4B156097
:103290000D481C60FFF7B6FF0028F4D10B4A0C4B19
:1032A00011681960196811601A68D207EBD51B689C
:1032B00013F4702FE7D1012038BD00BFDD300000CE
:1032C00008100B400C100B40C530000030100B40B4
:1032D0000C9C012030B5154B85B00D461968FFF7E1
:1032E000CBFF00B3124A134B126800921968019188
:1032F00059680291083305F10F041B6803930023FA
:1033000001E051F8102C03F00301C9000133CA4059
:103310000DF1100E23F003010F2B714404F8012D61
:10332000EFD10023EB7305B030BD00BFF89B012047
:1033300010100B4014100B4008B5074B07481968D4
:10334000FFF79AFF30B1064B186880F48070C0F325
:10335000002008BD012008BDF89B012000001A0DC7
:1033600010100B40054B186810F0020005D01B68C8
:1033700003481840B0FA80F0400970470C9C0120C7
:1033800000007F1170B500211548FFF775FF044656
:1033900040B91449144B28204FF4C97208701A60C0
:1033A000204670BD1148FFF741FF70B91048114920
:1033B000114D06680B682A6823F4803342F080625E
:1033C0002A6006600B60204670BD0649064B292026
:1033D00040F29512087000241A60204670BD00BFAC
:1033E0000000DB0CAC07FF1FE89B01203933000015
:1033F00034100B4028100B402C100B40F8B504463D
:1034000019480D46FFF7FEFE38B11849184B292020
:10341000EC2208701A600020F8BD164F164B174AB0
:10342000DFF878E0164E17494FF0010C87F800C01E
:103430001860154B1560154F154D164ACEF8004013
:10344000154837600D601A60FFF7F0FE18B9FFF7F6
:1034500089FF00B1F8BD0549054B2320F62208700D
:103460001A600020F8BD00BF39330000AC07FF1F11
:10347000E89B0120249C01200C9C012000100B40A3
:1034800004100B4038100B400C100B4040000100A2
:1034900002007F1111003A06ED30000008100B40C9
:1034A00010B4074C074A08490848002323601468F1
:1034B0000C60096811605DF8044B0370704700BF31
:1034C00038100B4030100B400C9C0120249C012034
:1034D0002DE9F04FAE4DAF48DFF83483AE4FAF4E1D
:1034E000AF49DFF830E3AF4C00232B70026888F857
:1034F000003042F040623B70337002600A6842F470
:1035000000320A6000F57E3001F59F4104305C31E5
:10351000CEF80030036023600B6001F5C821A24A99
:10352000C36020314FF08070136091B00A4608608C
:1035300013689E4CD901FBD44FF4C870FFF7FCFD13
:10354000DFF8D4E2DFF8CCC29648994A994940F2B4
:103550004343CCF80030CEF800304FF4886EC0F80A
:1035600000E0136002F5C82228320B60C360924964
:10357000924B9348106060204FF4003208701A603C
:10358000236843F000632360216811F00061FBD1E0
:103590000846FFF771FE044600284ED00A244FF477
:1035A000D5718848FFF768FE00285DD1013CF6D14F
:1035B0003378854E002B08BF4FF4401600F068FCAE
:1035C000824C814600218248FFF756FE50B9814A5D
:1035D00040F2E311432311602B700024204611B008
:1035E000BDE8F08F31467C48FFF746FE0028EED05C
:1035F00000F04EFC794B754AC9EB00009842E6D8C2
:103600002368002BDEDA764B116819601368754861
:103610005A0048BF01234FF0000148BF3B70FFF73D
:103620002BFE044698B96B4A40F2ED112123204647
:1036300011602B7011B0BDE8F08F664A4FF4E9714C
:103640002023204611602B7011B0BDE8F08F0021BF
:103650006548FFF711FE0446D0B95E4A4FF4F87191
:10366000222311602B70B9E7584B1B68B3F5D57F47
:103670000AD0584A00244FF4EC71252320461160EB
:103680002B7011B0BDE8F08F012333704E4E95E7DB
:103690004E4B564E1B68564956481B0C1B04336054
:1036A000FFF718FE044630B94A4A40F2F5112623C6
:1036B00011602B7092E750495048FFF70BFE04460B
:1036C00030B9444A4FF4FC71272311602B7085E711
:1036D00031684B48FFF7D0FD044630B93D4A40F20F
:1036E000FB11242311602B7078E731683848FFF70D
:1036F000C3FD38B9374A40F2FF11402311602B70E7
:1037000000246BE702213F48FFF7B6FD044600287E
:10371000F0D03D4B3D481A6822F006021A601A6844
:103720004FF0101542F002021A60694605606FF012
:103730007F40FFF763FE18B19DF80D309B076DD4F5
:1037400046F2A810DFF8CCB0DFF8CCA0DFF8549038
:10375000174F184E144D0023CBF80030CAF8003034
:10376000C9F800303B6033602B60FFF7E5FC40F2A6
:1037700043434FF488610122CBF80030CAF800308F
:10378000C9F800103B6033602B6088F8002025E703
:10379000AC07FF1F00D80040F09B0120E49B0120F4
:1037A0003080044008D0044014D004402C100B405A
:1037B0000CD0044010D0044051E400E008E100E0E7
:1037C0000B007F1100001A080000304010100B4061
:1037D00000001A37E89B01200000022920A1070001
:1037E000F49B01200000090200001A03F89B01204D
:1037F000149C012000000909FC9B01200000090A1B
:1038000000001B0700001A0628100B4044100B4054
:10381000109C012000D0044004D0044069460748B1
:10382000FFF7ECFD00288BD09DF8103003F00F035C
:10383000012B85D14CF2503084E700BFF1FFFF80AF
:1038400038B52E4B1B6898050D4615D42C4B2D49C9
:103850001A6822F480321A600A68120C1204B2F557
:10386000803F46D072B61A6842F400321A601A6875
:1038700042F480321A6062B62348FFF7C3FC002886
:103880002ED11E4C21482B1F05F5FE75226811050F
:10389000FCD503F14001026843F8042F9942FAD1A4
:1038A000A9420B46F2D11A48FFF7ACFC78B9194A85
:1038B000194B11681960196811601A68920705D5CB
:1038C0001B6816481840B0FA80F0400938BD14490A
:1038D000144B552040F2932208701A60002038BD26
:1038E0000F49104B52204FF4227208701A600020CA
:1038F00038BD1A6842F400321A60BDE724100B404C
:1039000028100B4004100B40F930000020100B4031
:103910002131000030100B400C9C012000007F1171
:10392000AC07FF1FE89B0120B2F5803F38B508D3F4
:103930001A491B4B54204FF42A7208701A60002059
:1039400038BD18480D461446FFF770FCE8B9012C45
:1039500004D9154A136843F480331360134B144998
:103960001B78220442F400720A6063B969021148AC
:10397000FFF782FC30B90949094B312440F2B222E9
:103980000C701A6038BD2946F1E70449044B292020
:1039900040F2AB2208701A60002038BDAC07FF1F50
:1039A000E89B01203933000028100B40F09B0120D8
:1039B00004100B4036003A12FFF7E4BC38B52B4B2D
:1039C0001B68D8050D4613D4294B2A491A6822F4DE
:1039D00080321A600A68120C1204B2F5803F1A682D
:1039E00042F400321A6003D01A6842F480321A603E
:1039F0002148FFF707FC00282ED11C4C1F482B1F25
:103A000005F5FE7522685105FCD503F1400153F818
:103A1000042F02609942FAD1A9420B46F2D118480C
:103A2000FFF7F0FB78B9174A174B1168196019684E
:103A300011601A68920705D51B6814481840B0FA3F
:103A400080F0400938BD1249124B5B2040F2FD2244
:103A500008701A60002038BD0D490E4B582040F206
:103A6000F22208701A60002038BD00BF24100B40FD
:103A700028100B4004100B400D31000020100B40AB
:103A80002131000030100B400C9C012000007F1100
:103A9000AC07FF1FE89B0120B2F5803F38B508D383
:103AA0001A491B4B59204FF4437208701A600020CA
:103AB00038BD18480D461446FFF7B8FBE8B9012C8D
:103AC00004D9154A136843F480331360134B144927
:103AD0001B78220442F400720A6063B9690211483B
:103AE000FFF7CAFB30B90949094B33244FF446723A
:103AF0000C701A6038BD2946F1E70449044B2920AF
:103B00004FF4447208701A60002038BDAC07FF1FE4
:103B1000E89B01203933000028100B40F09B012066
:103B200004100B4026003A19FFF72CBC844641EAEA
:103B3000000313F003036DD1403A41D351F8043B25
:103B400040F8043B51F8043B40F8043B51F8043B77
:103B500040F8043B51F8043B40F8043B51F8043B67
:103B600040F8043B51F8043B40F8043B51F8043B57
:103B700040F8043B51F8043B40F8043B51F8043B47
:103B800040F8043B51F8043B40F8043B51F8043B37
:103B900040F8043B51F8043B40F8043B51F8043B27
:103BA00040F8043B51F8043B40F8043B51F8043B17
:103BB00040F8043B51F8043B40F8043B403ABDD286
:103BC000303211D351F8043B40F8043B51F8043B28
:103BD00040F8043B51F8043B40F8043B51F8043BE7
:103BE00040F8043B103AEDD20C3205D351F8043BB7
:103BF00040F8043B043AF9D2043208D0D2071CBF83
:103C000011F8013B00F8013B01D30B8803806046AB
:103C1000704700BF082A13D38B078DD010F0030321
:103C20008AD0C3F10403D21ADB071CBF11F8013B91
:103C300000F8013B80D331F8023B20F8023B7BE7E0
:103C4000043AD9D3013A11F8013B00F8013BF9D20B
:103C50000B7803704B7843708B78837060467047A5
:103C600008B5104C08E0236859050DD423681A05DF
:103C70000FD42368DB0411D423685803F3D500F074
:103C80000DFB23685905F1D500F00EF823681A05DD
:103C9000EFD502F07DF92368DB04EDD502F046FC98
:103CA000EAE700BF3480044008B5FFF7D9FF00BF42
:103CB000014B10221A80704700200540704700BF5A
:103CC000094908B50B6830B16A461844A2F500529C
:103CD000904202D20860184608BD03F04FFA0C2348
:103CE00003604FF0FF3008BDB007FF1FEFF31380F4
:103CF00070B9EFF310836BB9EFF305825AB94FF443
:103D00008070EFF311832BB1984228BF184670479B
:103D10004FF0FF3070470F2A01D81846F1E7014BEA
:103D2000D05CEEE7F0E300E0084A1378802B01D086
:103D3000002070470649074B0748086000211970AA
:103D40001378802BFCD00120704700BF03E00740B0
:103D50004480044001E0074000002822094A13780B
:103D6000012B01D00020704703F1804303F5FC23B1
:103D7000602119701378802BFCD1034B034A1A6021
:103D80000120704703E00740448004400000060221
:103D900010B4114B53F8302092F8804234B1012313
:103DA00079B182F880305DF8044B704703EBC003B3
:103DB0005B681A6851B922F002021A605DF8044B80
:103DC000704782F800315DF8044B704742F00302FF
:103DD0001A605DF8044B7047787E00001C4A02EBC5
:103DE000C00301295B6811D004291BD052F83000B0
:103DF000002280F8802229B1022920D0032922D074
:103E00001A6070474FF480721A60704752F83000A1
:103E10004FF4A27280F880121A601A6822F0200211
:103E20001A60704752F830104FF4A272012081F8E6
:103E300080021A601A6842F020021A60704740F24D
:103E400003121A6070474FF481721A60704700BF06
:103E5000787E000030B4054B054D064C0022102141
:103E60001A602A602060196030BC704714D003408B
:103E700004D0034000D003403F2801D8FFF788BF9B
:103E8000704700BF3F2801D8FFF7A8BF704700BFA9
:103E900072B60D490D4B0E4A1B680868126862B66F
:103EA000520102D5322B88BF0130C3F52F330949A7
:103EB00003F21F334FF47A729B08A1FB031302FB3A
:103EC00000F000EB930070472C9C012018E000E00C
:103ED00004ED00E0176CC1162DE9F843054672B6F3
:103EE000224F234B234A1B683C68126862B652017A
:103EF00002D5322B88BF0134B5B3C3F52F3303F29B
:103F00001F331D4EDFF86890DFF868809B084FF480
:103F10007A72A6FB031302FB04F404EB930472B65B
:103F2000D9F800103A68D8F800E062B6C1F52F332E
:103F300003F21F339B08A6FB03031EF0806FC4EB44
:103F400093034FF47A7002D0322988BF013200FB0C
:103F50000233B3F57A7F04D3013D05D004F57A74BA
:103F6000DDE701F0D5FBDAE7BDE8F8832C9C012002
:103F700018E000E004ED00E0176CC116F8B54E4BF8
:103F80004E48DFF85CC14E4C4E49DFF858E14E4ECA
:103F90004E4D4F4F4FF000621A604FF080521A6042
:103FA0004FF000521A604FF080421A604FF000420A
:103FB0001A600022026028234EF6FF70CCF8000041
:103FC000CEF8003023600EF5012E0B6033602B60BD
:103FD00006F500263B6005F50025A36207F50027DE
:103FE0008B6204F5012401F5012106F6E87605F659
:103FF000E87507F57F6710310EF1100E203433603D
:104000002B60CEF800303B600B602360314CBB610D
:104010008B6109212160A7F5002704F58054203F1A
:1040200008343A602060BB60E36047F8041C04F584
:10403000FD2407F5FE27043704F2FC742260386083
:10404000A360FB6044F8041C083404F6FC74C7F851
:10405000FC2F2060A4F5E124A4F2DC7433602B6013
:10406000C7F8F81F21681C4841F4007121600168FD
:104070001A4C0EF57F4E0EF1E80E07F5883706F55F
:10408000803605F5803541F000710160CEF80020E2
:1040900047F6FF710822396033602B60226001F01F
:1040A000ADFB1920FFF718FF00F05EFE40F2131081
:1040B000BDE8F840FFF710BF04E100E004800340D2
:1040C000148003401C800340248003402C80034064
:1040D00034800340008003400480044000900C4082
:1040E000088003400C800340431E032B14D872B693
:1040F0000A4951F8230068B170B4094C058834F8B6
:104100001320466841F82360521B24F8132062B63E
:1041100070BC704762B6704700207047889C0120D1
:1041200008A00120013803280BD872B6074B53F8BA
:10413000203043B100205B680130002BFBD162B618
:104140007047002070471846F9E700BFDC9C01204B
:1041500030B472B62B4A13781D0706D52A4B196A5C
:10416000002936D0996A002941D053781C0706D51A
:10417000254B196C00293ED0996C002939D09378D1
:10418000190705D5204B196E002936D0996E89B1D3
:10419000D3781B0707D51C4BD3F880207AB3D3F80C
:1041A000882011213AB162B6184B00221A7030BC37
:1041B00000F062BE0D21154C154D227843F83150A8
:1041C00003EBC1030830013A5860227062B630BC7C
:1041D000704704220D4C0F4D217843F8325003EB09
:1041E000C20308304A1E5860227062B6EFE705210C
:1041F000E1E70921DFE70822ECE70C22EAE71022D9
:10420000E8E700BF608100000000FF1F059D01205E
:10421000C800400088004000431E032B1DD81B4AE5
:10422000400140F0100030B4104472B6184CE25C0B
:10423000032A1BD8DFE802F00212151703220D88AB
:10424000E25410F0080F14BFC823882343EA054343
:1042500008310360416062B630BC7047083002220A
:10426000EDE70522EBE708300422E8E7094A52F8B7
:10427000230038B1084A52F82300416042F8231065
:1042800062B6E9E742F82310034AF7E70000FF1F90
:10429000149D0120DC9C0120EC9C01202DE9F04FB5
:1042A000DFF818B3DFF818A387B044E0AE4F4FEA49
:1042B000930807EBC809013ED9F8042003F008036E
:1042C000F6B2A2F1080003F0FF04002B40F00481D5
:1042D00057F838301B0C99B222F8081C002B00F05C
:1042E000F280A24B22F8064C42F8044C53F82620E8
:1042F000002A00F06E819E4D55F8263058609D4C86
:1043000045F8260034F81630194424F8161000F049
:1043100093FD002800F05681974A984B19F0080F3A
:1043200000F1080018BF1346C9F8040047F83830F8
:1043300008238BF800309BF80040E4B261071BD5DE
:104340008F4B1B78ABB18F490A7802F0FF032AB17B
:10435000013BDBB20B70002B00F0EF848A490A7836
:1043600002F0FF032AB1013BDBB20B70002B00F01F
:10437000F78004238BF8003004F0080303F0FF02F9
:10438000002B00F0D6809AF80030DBB21E098DD1E8
:104390009C08DFF8D49159F8342009EBC401C2F32A
:1043A0008302013A49680C2A7ED8DFE802F0818155
:1043B0007D7D7D7D7D7D477D7D7D07000868734D1A
:1043C0004A68734F734E286081B240F281606A4B35
:1043D0006A604FF0010E0022814249F834303A60A1
:1043E000C9F81020C9F8182086F800E05E4C00F2E9
:1043F000F480B1F5D06F80F07883B1F5817F00F063
:10440000628300F28782802900F0EC82822940F0EA
:104410001E83A98801F07F01042900F218835E48F9
:104420005E4C89000844227062700278930740F164
:10443000798384F800E04FF0020ED8E2544F3A68D6
:1044400042B3574B534E5749188834780D7840285B
:10445000864645F0020828BF4FF0400E002C84F03D
:1044600001043470CEEB00000CBF8824C82409EB93
:10447000C80680B285F0010544EA0E4472601880D7
:1044800049F8384072440D7018B9BEF1400F18BF9A
:1044900000223A603D4B1A88B2F5A06F04D100218A
:1044A0009A785970404B1A70404A012313703FE7C5
:1044B000364A158842F22100854200F0FF812E4ADB
:1044C00049F83420F0E72C4A2C4B19F0080F18BF9C
:1044D000134647F838302BE700F0CEFC344A354914
:1044E00052F82630002B00F0B68158688C5D42F8F7
:1044F000260003F10802C9F80420032C05D8DFE8E0
:1045000004F0120F150204228A551A8819F0080FB8
:104510000CBF8823C82343EA024347F8383007E733
:1045200002228A55F1E703228A55EEE705228A55D1
:10453000EBE7E00700F11A82210600F14982A207A9
:1045400006D51D4A1D4913780220DBB2137008708E
:10455000E30602D5194B10221A7007B0BDE8F08FA0
:1045600000F0F6FD05E700BF0000FF1F889C01205A
:10457000349C012008A00120C800400088004000B1
:10458000109D0120999C0120189D0120FC9C012078
:10459000309C0120989C0120C0200740089D0120EC
:1045A000449C0120049D012098200740942007404E
:1045B000DC9C0120149D01208820074080200740BA
:1045C00090200740AB4A47F8380013780133137046
:1045D000AEE643F82600A84D91E642F22100814262
:1045E00000F0358100F2AF81B1F5086F00F01B8259
:1045F000B1F5106F40F02B82226AA049A8780870AC
:10460000120600F14583D9F828209D49130600F1D0
:104610003A83D9F830209A49150600F12F83D9F84A
:1046200038209749140600F12483D9F84020944992
:10463000100600F11983D9F848209149120600F1BB
:104640000E83D9F850208E49130600F10383D9F860
:1046500058208B49150600F1F882D9F86020884966
:10466000140600F12983D9F868208549100600F165
:104670001E83D9F870208249120600F11383D9F8FD
:1046800078207F49130600F10883D9F880207C49FF
:10469000150600F11C83D9F888207949140600F129
:1046A0001083D9F890207649100600F1C882D9F815
:1046B00098207349120600F1BC827248724A73490D
:1046C000019073486C4D734C049700230596029536
:1046D000804617460E461D460394386828B1446844
:1046E00000F0CAFB2046002CF9D100233B60029B5E
:1046F00030681A46002342F8253028B1446800F09B
:10470000BBFB2046002CF9D100223260019A98F8B8
:1047100000301146002241F8042B039A0191023B1C
:104720004FF0000122F81510032B09D8DFE813F031
:104730004B0104004B0104004FF0010388F80030E6
:104740000135042D07F1040706F1040608F10108FC
:10475000C3D1514C514B2278464D049F059E0021F8
:1047600029701A70130700F14F8262784C49DFF804
:1047700010810A7010074FF00001C9F83010C9F815
:10478000381000F12B824749A2780A700021C9F83D
:104790005010C9F858101107DFF8E48000F1DC81EF
:1047A000E2784149364C0A7000211207C9F87010AE
:1047B000C9F8781000F1B98133780193002183F0B2
:1047C0000102C9F89010C9F89810002002908046A4
:1047D0008446044635490D7845F0020E09EBCE03B8
:1047E0000393019B002B039B5C600CBF8824C824AF
:1047F00044EA080385F0010449F83E3032700C7039
:10480000DFF87CE02A4BDFF8A480002840F0268106
:10481000BCF1400F1BD144F0020C09EBCC03029C0D
:10482000DFF85CE05C60002A40F02E81020442F078
:1048300088029DF804304EF83C20044433700D701B
:104840002346402803D100201A4A3B6010801A4AB0
:104850000123137028E68B5D032B00F22D8101A24A
:1048600052F823F03143000031430000BB490000FF
:10487000C1490000059D0120349C0120109D0120AC
:104880000000FF1FEC9C0120889C0120DC9C012083
:10489000149D012008A0012060810000C420074071
:1048A000C8200740CC200740D0200740049D0120AD
:1048B000989C0120449C012094200740928892B942
:1048C000B14A0D784878157050708D78C878957019
:1048D000D07010680D79157186284D7989795571D8
:1048E000917100F0A580A949A94E0A78307882F02C
:1048F0000105002842F002020D700CBF8821C8217A
:1049000049F8321009EBC20280F00100002130703A
:104910005160D4E540F20232914240F08D80A98886
:1049200001F07F01042900F292806A88002A40F099
:104930008E809848CDF804E089000844017841F061
:104940000201017041E742F2212081427BD1A98816
:10495000002940F0E480904B904A9148AC781D6863
:104960001560CDF804E00A4604702EE78D4B8E48A2
:1049700086491A614FF0020E80F800E0854F0A70F8
:104980008A49196099608A4E8A4D8B4C9A610D2133
:104990003970FF213170DFF840E229702270874DB5
:1049A000874A8EF800109F27012406F8047C5D607A
:1049B0000470DA6007B0BDE8F08F00238B55B7E4D0
:1049C00001238B55B4E44FF0000388F80030B7E6BC
:1049D0007049784B80220D2008701A70A2077FF56D
:1049E000B7ADAEE5774C4FF0020E22706270EA88E8
:1049F000724580F0A38165490D78402A944645F0C0
:104A0000020E28BF4FF0400C04EB0C0309EBCE0064
:104A10000293012344604FEA0C48CCEB020001935F
:104A20000022C824E4E6684A664C12782270DEE769
:104A3000664A0F21117056E7B1F5A06F07D1012327
:104A400000220193C1E642F221329142F7D0514A4D
:104A50000F231370544A0123137025E540287FF675
:104A6000DAAE44F002040EEBC401029E4E60BAB10D
:104A70009DF80410564A19703346403888F80050A3
:104A800040334EF83420DFE69DF8043033700204E2
:104A9000029B0D7042F0C80203444EF83C20D0E661
:104AA0009DF804101970029B404A88F80050403865
:104AB00040334EF83420C7E619F0080F0CBF02232C
:104AC00003238B5534E4A98801F07F010429BED863
:104AD0006A88002ABBD12F48CDF804E08900084439
:104AE000017821F0020101706FE63A4A5468002C07
:104AF000ADD06888B5F804E003E00C325468002CAF
:104B0000A5D013888342F8D153887345F5D1000AA4
:104B100003280CBF94F800E0B2F808E067E7CDF88E
:104B200004E052E64FF0020E61E700F085F900283C
:104B300000F0F18008301D4AC4F88400C4F88020D9
:104B400000F07AF9002800F0E0800830204AC9F827
:104B50008C00C9F888202FE600F06EF9002800F0DC
:104B6000E6800830114AC8F86400C8F8602000F0F8
:104B700063F9002800F0D5800830154AC9F86C00A8
:104B8000C9F868200CE600BF10A00120049D012098
:104B9000989C0120C02007402C9C012018A00120D7
:104BA000289D01200000FF1F94200740880040003E
:104BB000882007408020074098200740489C01201B
:104BC0009C9C0120089D0120109D0120999C0120A2
:104BD000C8004000648100008C20074000F02CF9E0
:104BE000002800F08C8008305D4AC8F84400C8F8FE
:104BF000402000F021F900287BD00830594AC9F83C
:104C00004C00C9F84820BEE500F016F900286AD02B
:104C10000830534AC9F82400C9F8202000F00CF9E4
:104C200000285AD008304F4AC9F82C00C9F828206B
:104C30009BE5D1F89C00083800F01EF93DE5D1F85D
:104C40009400083800F018F931E5C86D083800F014
:104C500013F902E5486D083800F00EF9F7E4C86C66
:104C6000083800F009F9ECE4486C083800F004F961
:104C7000E1E4C86B083800F0FFF8D6E4486B083868
:104C800000F0FAF8CBE4C86A083800F0F5F8C0E4A0
:104C9000606A083800F0F0F8B5E4C86F083800F032
:104CA000EBF8F2E4486F083800F0E6F8E7E4C86E85
:104CB000083800F0E1F8DCE4486E083800F0DCF871
:104CC000D1E4D1F88C00083800F0D6F8E9E4D1F846
:104CD0008400083800F0D0F8DDE42A78C9F828000C
:104CE00001322A7041E52A78C9F8200001322A7081
:104CF00094E72A78C9F8480001322A7043E52A78F7
:104D0000C8F8400001322A7073E72A78C9F8880091
:104D100001322A7050E52A78C4F8800001322A70E6
:104D20000EE72A78C9F8680001322A7038E52A7837
:104D3000C8F8600001322A7019E700BEBEF1400FCA
:104D4000F44628BF4FF0400C04EB0C030293012300
:104D5000CCEB0E004FEA0C48002201933AE500BF6D
:104D600088004000C80040002DE9F041274C01F0C8
:104D70004BFC002204F1A00023461A605A6008335D
:104D800083424FF00001F8D12148224A0368DFF83E
:104D90009CE0214E214D224FDFF894C0DFF8948033
:104DA00043F480230360136843F0407313600323CC
:104DB0008EF80030A023337002F5C922C4F3072314
:104DC00000F528302B708030C4F3074310323B705D
:104DD000240EFF230470134D8CF80030124888F81D
:104DE00000301370012306F8AC3C4FF400140EF8A9
:104DF000441C7026102107F82C3C2E70046082F8A9
:104E0000F810AEF1440EBDE8F08100BF0000FF1FB6
:104E10003480044000D80040402107409C200740D7
:104E2000B020074035E400E004E100E04421074001
:104E3000802007408820074072B60D480268B2FA09
:104E400082F30B2B10DC4FF00041D94022EA010223
:104E5000026062B6074803EBC303DB00C2180021FF
:104E6000C15010465160704762B60020704700BFC5
:104E7000B407FF1FD003FF1F0D4B0E4AC31AA2FB3E
:104E800003231B090B2B0CD80B4A127852B972B6AC
:104E90000A484FF00041026821FA03F31A43026006
:104EA00062B67047064A1278002AF0D0FFF750B970
:104EB000D003FF1F398EE338059D0120B407FF1F83
:104EC000109D012038B50F4D286878B143880288BD
:104ED000C118013393420C7A02D24380204638BD78
:104EE000FFF7CAFF002320462B6038BD064B1B7816
:104EF0002BB10320FFF7F8F828600028E6D14FF027
:104F0000FF3038BD249D0120109D012010B5094CB3
:104F1000206818B143881844007A10BD064B1B78EE
:104F20002BB10320FFF7E0F820600028F2D14FF00A
:104F3000FF3010BD249D0120109D0120044B054A27
:104F40001B6890881BB11A885B88D31A1844704775
:104F5000249D012008A001200B4B1B789BB110B5AC
:104F60000A4C206848B1FFF787FF00230320236025
:104F7000FFF7BAF830B1FFF77FFF0320FFF7B4F86F
:104F80000028F8D110BD7047109D0120249D0120FC
:104F90002DE9F04FDFF8F89083B0012289F8002066
:104FA000019169B3DFF8EC80354F019E8346D8F854
:104FB0000000B0B3334D4488C4F14001B14228BF72
:104FC000314604EB010E00221FFA8EFE2A70761A7B
:104FD000A0F802E000F1080251B1013C224459441A
:104FE0001BF8014B02F8014F8B45F9D1B0F802E0F4
:104FF000BEF13F0F0BD8244A05211170002ED6D1E7
:105000000198002389F8003003B0BDE8F08F4022FA
:10501000028001460420FFF7FFF80022C8F80020B4
:10502000E9E73A7822B3194C164D4FF0010A07E030
:10503000013C16D02A78A2B900F06AFB3A78BAB1DE
:105040000420FFF76FF80728F2D889F800A0FFF7CF
:10505000F3FEC8F800000028ADD10D4B013C1870DC
:10506000E8D101234FF0FF302B7003B0BDE8F08F83
:1050700000234FF0FF3089F8003003B0BDE8F08F17
:10508000109D0120209D0120189D01202148010034
:10509000199D01201C9D012000B583B002AB0121A8
:1050A00003F8010D1846FFF773FF03B05DF804FB2A
:1050B00038B50E4D0E4C28680123237028B1408866
:1050C00000232370C0F1400038BD0A4B1B7813B990
:1050D0000020207038BD0420FFF724F80728F7D8F7
:1050E000FFF7AAFE28600028E9D1F1E71C9D012006
:1050F000199D0120109D0120F8B5114B1B788BB133
:10510000104E114D346801272F7064B10F4A638827
:1051100000271770214623800420FFF77DF83760B1
:1051200000232B70F8BDFFF787FE084B28B101461E
:1051300004201C70FFF770F8F2E71F70F0E700BF63
:10514000109D01201C9D0120199D0120189D01200A
:1051500038B50E4B1B7873B90D4C216861B103F063
:10516000FF054B880B800420FFF756F8256038BDFB
:10517000084B01221A7038BDFFF75EFE0028F7D0F9
:105180000146BDE838400420FFF746B8199D0120CC
:105190001C9D0120189D012010B4EFF3108272B6FF
:1051A000437F33B9017F012908D0032910D001239F
:1051B000437702B962B65DF8044B7047114C216821
:1051C000A1B1114943610B68836108605861EEE742
:1051D0000E4C216881B10E4943610B688361086000
:1051E00058610C4B4FF080511960E0E7064B41616C
:1051F000816120601860DAE7054B416181612060C0
:105200001860EEE7389D0120349D01202C9D01207F
:10521000309D012004ED00E070B5EFF3108272B60E
:105220000C4C206880B10C4E00254369236073B19B
:105230009D6102B962B6457783689847EFF31082A3
:1052400072B620680028F0D102B962B670BD336032
:10525000EFE700BF2C9D0120309D0120FFF7DCBF50
:10526000024A136801331360704700BF2C9C012071
:10527000084B4A08134410B50446B3FBF1F000F0A4
:1052800053FB054B1B7803B110BD2046BDE8104011
:1052900001F0FCB9002A7515F007FF1F08B5084694
:1052A00000F018FD012008BD08B5084600F012FD09
:1052B000012008BD38B508460D4602F001FB044642
:1052C0000146284600F05EFD204638BD10B5084670
:1052D0001446114600F056FD204610BD00F032BEC7
:1052E00008B5084600F0CEFC003018BF012008BD0C
:1052F00008B5084600F0A4FC003018BF012008BD26
:105300000846114600F034BC084600F06BBC00BFF4
:10531000084600F011BC00BF00F0B0BB10B5064B52
:10532000144603EB5100B0FBF1F000F0FDFA20460B
:10533000BDE8104000F06CBB002A751500F0E8BD18
:1053400000F0B2BD00F0A0BD00F080BD00F08ABD4D
:105350000368064A1B68934205D110B5C8B200F035
:10536000B9FC012010BDC9B2184700BFA952000006
:105370000368064A1B68934205D110B5C8B200F015
:10538000A9FC012010BDC9B2184700BFA9520000F6
:105390000368064A1B68934205D110B5C8B200F0F5
:1053A00099FC012010BDC9B2184700BFA9520000E6
:1053B0000368064A1B68934205D110B5C8B200F0D5
:1053C00089FC012010BDC9B2184700BFA9520000D6
:1053D000084B4A08134410B50446B3FBF1F000F043
:1053E000B1FE054B1B7803B110BD2046BDE810404F
:1053F00001F04CB9000E2707F107FF1F08B508465A
:1054000000F0E6FF012008BD08B5084600F0E0FF07
:10541000012008BD38B508460D4602F051FA044691
:105420000146284600F0DEFF204638BD10B508468C
:105430001446114600F0D6FF204610BD01F064B8B6
:1054400008B5084600F0A4FF003018BF012008BDD1
:1054500008B5084600F07AFF003018BF012008BDEB
:105460000846114600F046BF084600F06DBF00BF79
:10547000084600F023BF00BF00F0E8BE10B5064BA1
:10548000144603EB5100B0FBF1F000F05BFE204648
:10549000BDE8104000F0A4BE000E270701F01AB8C6
:1054A00000F0E4BF00F0D2BF00F0B2BF00F0BCBF1C
:1054B0000368064A1B68934205D110B5C8B200F0D4
:1054C00087FF012010BDC9B2184700BF0954000072
:1054D0000368064A1B68934205D110B5C8B200F0B4
:1054E00077FF012010BDC9B2184700BF0954000062
:1054F0000368064A1B68934205D110B5C8B200F094
:1055000067FF012010BDC9B2184700BF0954000051
:105510000368064A1B68934205D110B5C8B200F073
:1055200057FF012010BDC9B2184700BF0954000041
:10553000704700BF0368F0B4FBB1002501249D60F3
:10554000DC601B4C1A601C44241104F130056A1104
:10555000032692009E60174F0679174B47F82410D8
:1055600002F1604202F5614205F01F05012000FAD8
:1055700005F5E6541560F0BC7047104C236843F401
:105580000003236000BF0E4B0E4DA4F58734A4F535
:105590009E7401261E60234604609C68002CD0D0B7
:1055A0001033AB420360F8D1002303601846E2E7F2
:1055B000008FFCBFE007FF1F30E400E03C800440A8
:1055C00000700340407103400168A9B10B4BF0B477
:1055D0000B441B110A4E0B4F0B4D46F8237003F181
:1055E000300202F01F0401235211A340002445F8A9
:1055F00022308C600460F0BC704700BF008FFCBF9D
:10560000E007FF1F3155000080E100E0024A034B34
:10561000012111601B6818470C710340E007FF1F50
:10562000024A034B012111605B6818471C7103405B
:10563000E007FF1F024A034B012111609B681847D6
:105640002C710340E007FF1F024A034B0121116048
:10565000DB6818473C710340E007FF1F70B50E4D33
:1056600082B02B680093009E044608E000F050F8DA
:105670002B680193019BA2689B1B934207D223686E
:1056800020465B6998470028F0DB02B070BD4FF000
:10569000FF3002B070BD00BF2C9C0120F8B50D4654
:1056A000A1B1164682B10746002404E00134A642A7
:1056B00005F8010B08D03846FFF7D0FF0028F5DACF
:1056C00001233B732046F8BD3046F8BD0846F8BDBF
:1056D00008B5FBF7D9FFFBF721F900F019F8FAE755
:1056E000704700BF704700BFFFF736BCFFF70EBC26
:1056F000FFF7E8BBFFF722BCFFF7FEBCFFF7D8BC03
:1057000008461146FFF744BC0846FFF7C5BC00BF7A
:105710002DE9F843314E337893B1314F3A787AB965
:105720000122D9073A7036D49A0719D400225B07B0
:105730003A7005D52B4B1A6812B1EFF305820AB106
:10574000BDE8F883EFF3108172B6186818B1264CE3
:105750002278002A2ED00029F2D162B6BDE8F88363
:10576000DFF8908098F80020002ADFD0DFF88890DA
:10577000002405E0013498F80030E4B2A34212D9C5
:1057800059F824502B6828461B6998470028F1D007
:105790002B699847EEE7FFF7D1FBC8B9134B1B788D
:1057A0001BB93378C0E73378C0E7337803F0FE03E2
:1057B0003370B9E745691D60012323705DB1AA61AB
:1057C00001B962B600254577836898472570B7E729
:1057D00000F072FFE2E7064B1D60F1E70408FF1FCF
:1057E0003D9D0120389D01203C9D0120AE08FF1FFA
:1057F000349D0120D09F0120B89F012030B429485A
:10580000294A2A4B2A4D6024E121047011701B782B
:10581000284C082B30D00A2B2748284937D00C2B8E
:105820000CBF35225D2212232A60236002600B60C8
:10583000234B24491B78244ABBB101230B6013601E
:10584000224B23491B78234A012B26D9042B0FD93D
:10585000082B1ED9102B94BF862387230B6013605F
:105860001D4B01221A7030BC70470B601360E7E7D4
:1058700084230B601360F3E700F58E200F49083096
:10588000212213232A60236002600B60D0E73922B3
:10589000F7E785230B601360E2E780230B6013605A
:1058A000DEE700BF00400740014007400508FF1F3A
:1058B00008B003400CB0034008B00B400CB00B40E4
:1058C0003F9D012020B0034020B00B400608FF1F81
:1058D00024B0034024B00B403E9D0120F0B44D1E87
:1058E0002E46002400E00134B0FBF2F302FB13006B
:1058F000092800F130078ABF3730F8B2C0B206F885
:10590000010F1846002BEED10A1953704CB11078D4
:1059100015F8016F28700133E01A834202F801691B
:10592000F5DB0846F0BC70472A4A2B491368F0B4EF
:1059300043F4006313600A78284F294E294D2A4CFE
:105940002A490023092A3B8033802B7023700B7077
:105950003AD03B2A1ED0264B1B780A2B22D03A2B5A
:105960002DD01F2824D8002002460126214B224D8D
:105970001A70224C5E7004219872022288273C26FD
:1059800040209970DA7459751F74DE702870226097
:10599000F0BC70471A4B40F213321A60144B1B785C
:1059A0000A2BDCD1174B4FF451721F281A60DAD939
:1059B000C0F34432C0F3471600F01F00D6E7124B85
:1059C0004FF451721A60CCE7104B40F213321A6058
:1059D000C1E700BF348004400708FF1F709E01200C
:1059E000469D0120789E0120729E0120449D012049
:1059F0000808FF1F00B0064021E400E004E100E0D9
:105A000004D0044010B0044000D004400CB0044066
:105A1000194B19499B7803F0EC0200F00303134380
:105A2000420700F00F0248BF43F01003042A8B70B6
:105A30001CD0114B104A5B79C10603F0EF0348BF3D
:105A400043F0100353719379820603F0EF030A4A7F
:105A500048BF43F010039371C30506D553781178FE
:105A6000DBB241F020011170537070478B7943F025
:105A700040038B71DDE700BF00B00640214B1B687F
:105A80001B053ED510B5204C237823B1FFF740FE0F
:105A90002378002BFAD11D481D491E4B02240022F9
:105AA0000460CA701B78092B1CD03B2B01D11A4B08
:105AB0001A601A4B1B7803F07F030A2B1CD03A2B79
:105AC00002D1174B00221A60164A114B164817498B
:105AD00012681C79DB79002303800B800AB1012353
