:1000000000000320D1010000657D0000217D00007B
:10001000217D0000217D0000217D0000217D000068
:10002000217D0000217D0000217D0000657D000014
:10003000657D0000217D0000B9760000BD760000DE
:10004000657D0000657D0000657D0000657D000028
:10005000657D0000657D0000657D0000657D000018
:10006000657D0000657D0000657D0000657D000008
:10007000657D0000657D0000657D0000657D0000F8
:10008000657D0000657D0000657D0000657D0000E8
:10009000657D0000657D0000657D0000657D0000D8
:1000A000657D0000657D0000657D0000657D0000C8
:1000B000657D0000657D0000657D0000657D0000B8
:1000C000657D000091880000657D0000CD8F0000F7
:1000D000657D0000657D0000657D0000657D000098
:1000E000657D0000657D0000657D0000657D000088
:1000F000657D0000657D0000657D0000657D000078
:10010000917A0000A97A0000C17A0000D97A000033
:10011000657D0000CD920000657D0000657D0000DA
:10012000657D0000657D0000657D0000657D000047
:10013000657D0000657D0000657D0000657D000037
:10014000657D0000657D0000657D0000657D000027
:10015000657D0000657D0000657D0000657D000017
:10016000657D0000657D0000657D0000657D000007
:10017000657D0000657D0000657D0000657D0000F7
:10018000657D0000657D0000657D0000657D0000E7
:10019000657D0000657D0000657D0000657D0000D7
:1001A000657D0000657D0000657D0000657D0000C7
:1001B000657D0000657D0000657D0000657D0000B7
:1001C000657D0000657D0000657D0000657D0000A7
:1001D0005F4B4CF2205210B5DA814DF62812DA81CD
:1001E00000BF00BF07F0C2FD5A4B4FF030621A63E8
:1001F000594A9A63594ADA634FF0E0234FF4700288
:10020000C3F8882D03F5E823554A1A60554B9A78B0
:10021000110703D59A7842F008029A70524B53485E
:10022000AA221A70524BDA1C121AC11E22F00302C3
:10023000994288BF00224F4907F09EFC4E4B4F4821
:10024000DA1C121AC11E22F00302994288BF002252
:1002500000210BF011FD4A494A484FF4E87207F0BB
:100260008BFC494B494A802103F8011B9342FBD187
:100270004FF0E023434AC3F8082D454B8A221A70F9
:10028000A3F5805324225A70A0221A709A799207FB
:10029000FCD59A79D406FCD43E4A937903F00C033A
:1002A000082BFAD1304B60225A70DA78802AFCD1C0
:1002B000384B01221A715D225A719A799006FCD549
:1002C0009A795106FCD5234A33495164002191643F
:1002D000202119702F498B7903F00C030C2BFAD1D4
:1002E0002E4B53602E4A136913F4807303D153616C
:1002F0004FF4A85313614FF0E0232A4A5A610022B9
:100300009A6107221A61284AC3F8202D62B607F0C5
:10031000E1FD234B5B69DA0705D5244807F0CEFDE4
:10032000234B244ADA61244B1B785B0609D5204C09
:10033000204BE2699A4204D11C4807F0BFFD00231C
:10034000E36107F019FD0BF047FD07F00DFCFEE738
:100350000020054000800440823F04000100002B83
:100360000300008500D0074000E007403007FF1F72
:10037000D80DFF1FB4CB0000D8A80120D80DFF1F57
:10038000000000000002FF1F00E400E064E400E061
:10039000005006400040064000000602C010070062
:1003A00000D003401FBF02000000202044808C6466
:1003B00000E00340A5C3945A00F00740FFFFFFFF91
:1003C000FFFFFFFFFFFFFFFFFFFFFFFFFFFFFFFF3D
:1003D000FFFFFFFFFFFFFFFFFFFFFFFFFFFFFFFF2D
:1003E000FFFFFFFFFFFFFFFFFFFFFFFFFFFFFFFF1D
:1003F000FFFFFFFFFFFFFFFFFFFFFFFFFFFFFFFF0D
:10040000FFFFFFFFFFFFFFFFFFFFFFFFDEF9FFFF23
:100410000548064B1B1AD90F01EBA301491002D066
:10042000034B03B118477047D80DFF1FD80DFF1FAE
:100430000000000008B5054B1BB105490548AFF3A6
:100440000080BDE80840FFF7E3BF00BF00000000E8
:10045000D80DFF1FACCB00002DE9F041DFF83C8048
:100460000825002704460574478205750E462A466E
:100470004146153007F080FB2A4608EB050104F1E0
:100480001D0007F079FB2A46394604F125000BF0E0
:10049000F3FB66742046BDE8F08100BF98C20000FF
:1004A000564B57492DE9F04100221D68554C03E099
:1004B0000132172A00F09F8031F8023BB4FBF3F3BE
:1004C0009D42F5D3504B514C53F82230E27A43F021
:1004D000705132B372B6E27AD50700F18280970785
:1004E00008D54FF0E0262769D6F884513D40C6F87C
:1004F00084512562560708D54FF0E0266769D6F883
:1005000088513D40C6F888516562150708D54FF0FF
:10051000E025A669D5F88C213240C5F88C21A2626D
:1005200062B62268D5688D4207D0394D156043F018
:10053000F843D160374913611160037C8BB36FF0CE
:100540001305DFF8D4C000F1140E2D1A01214FF06D
:1005500000474FF08056437C5CF8333083F800113D
:100560001EF8018FD7625663D36A002BFCDA936BB7
:1005700020F818303223427C5CF83220013B82F8AC
:100580008010F8D19EF8008030F81820C2F30C02D9
:1005900020F81820027C05EB0E039A4201DD226848
:1005A000D9E7E37ADBB1D80704D54FF0E022E1695F
:1005B000C2F80011990704D54FF0E022216AC2F871
:1005C00004115A0704D54FF0E022616AC2F80811FD
:1005D0001B0704D54FF0E023A26AC3F80C21BDE845
:1005E000F0814FF0E026E768D6F880513D40C6F82C
:1005F0008051E56173E7162264E700BF3407FF1FEF
:1006000004C300000087930334C3000064A20120E8
:1006100001403F0000003F8008C90000704700BF54
:10062000474B4849F0B41D68474C002303E00133B1
:10063000172B00F0828031F8022BB4FBF2F29542C6
:10064000F5D3424A424952F82330CC7A43F07055F0
:1006500034B372B6CA7AD60708D54FF0E026CF6811
:10066000D6F880413C40C6F88041CC61940708D55B
:100670004FF0E0260F69D6F884413C40C6F884412B
:100680000C62570708D54FF0E0264F69D6F888412D
:100690003C40C6F888414C62160744D462B6CC7A16
:1006A0000A68D668AE4207D043F0F843294E166078
:1006B000D5601361284B1360437C284D55F83330C7
:1006C000012683F80061438A4FF0004643F08053CF
:1006D000D6625363D36A002BFCDA437C926B55F8E5
:1006E0003330012283F88020DCB1E50704D54FF0D8
:1006F000E023CA69C3F80021A00704D54FF0E02326
:100700000A6AC3F80421620704D54FF0E0234A6A5D
:10071000C3F80821230704D54FF0E0238A6AC3F801
:100720000C21F0BC70474FF0E0248E69D4F88C2186
:100730003240C4F88C218A62B0E7162381E700BFFB
:100740003407FF1F04C300000087930334C3000075
:1007500064A2012001403F0000003F8008C9000062
:10076000027C013A12F0040F0CBF4FF400434FF427
:100770001043910748BF43F40063D20748BF43F4D6
:10078000806343F038034382FFF74ABF10B5044645
:100790000121407C07F052FC607C012107F016FC2F
:1007A000034801F083FD2046BDE81040FFF7D8BFA5
:1007B00064A2012010B5014404464B7F034448F273
:1007C000300183F825204182FFF72AFF4FF42043B0
:1007D000638204F124010C22012011F8013F022B55
:1007E0005BD0032B4BD0012B3FD0023A042AF4D12B
:1007F0002046FFF715FF4FF44043638204F12801C0
:100800000C22012011F8013F022B26D0032B16D019
:10081000012B0AD0023A042AF4D12046FFF700FF48
:100820002046BDE81040FFF79BBF02F1FF3C03FAF2
:100830000CF3B4F812C043EA0C036382EAE7B4F89D
:1008400012C000FA02F343EA0C0302F1FF3C00FA83
:100850000CFC43EA0C036382DCE7B4F812C000FA34
:1008600002F343EA0C036382D4E702F1FF3C03FA8C
:100870000CF3B4F812C043EA0C036382B5E7B4F892
:1008800012C000FA02F343EA0C0302F1FF3C00FA43
:100890000CFC43EA0C036382A7E7B4F812C000FA29
:1008A00002F343EA0C0363829FE700BF014B024A55
:1008B0001A607047F00DFF1F000001BC0020704758
:1008C000704700BF10B5044B044640F8103B04F0DD
:1008D000C3FB204610BD00BFC4C2000010B50446D3
:1008E00007F0B0F8204610BD836C13B1184603F032
:1008F000F3BBC06C08B102F087BB7047836C13B1C7
:10090000184603F0E9BAC06C08B101F07DBF4FF0A2
:10091000FF307047836C53B1187810F008000DD089
:10092000D8695B69C01A48BF6FF000407047C36C5C
:10093000A3B193F8310010F0080000D17047186996
:1009400019685A695B68401A62EB0303B0F1004F03
:1009500073F10003F2D36FF0004070471846EDE7E3
:1009600000B5836C83B063B101220DF10701184615
:1009700003F0DCF901280CD19DF8070003B05DF805
:1009800004FBC06C28B101220DF1070101F068FEE3
:10099000F0E74FF0FF30F1E7836C13B1184603F036
:1009A000A1BBC06C08B102F029BC704700B5836CD4
:1009B00083B08DF8071043B101220DF107011846ED
:1009C00003F090FB03B05DF804FBC06C0028F9D085
:1009D00001220DF1070102F011FC03B05DF804FBE8
:1009E0002DE9F84F6C4C2378CBB16C4B1A78002A68
:1009F00040F0908001226A4DDFF8D4811A702A6895
:100A0000D8F848005200002800F0A480654903F09F
:100A100069FB00232B602378013BDBB22370624C1F
:100A20002378C3B16149624A0B78C3F10103DBB299
:100A3000002022F81300012B0CBF128852880B7083
:100A40005C480CBF5C495D49520001F00BFB09F0AA
:100A5000CFF900232370DFF884B19BF80030002B1E
:100A600056D0DFF87C91D9F80030002B2DD0DFF87C
:100A70006081534CDFF86CA1524F534E0025237810
:100A800033B1D7F88C040368DB6898470028F6D1A7
:100A9000D8F84800002853D04FF48052314603F074
:100AA00045F92378002B43D14FF48051304609F0AB
:100AB000E7F89AF800301BB147F23053013BFDD103
:100AC000D9F800300135AB42D9D8404D2B68E3B19D
:100AD0003B4C3C4E237833B1D6F88C040368DB687A
:100AE00098470028F6D13A4B2A68986C00283AD0EB
:100AF000354903F01BF9334E2378002B43D1296885
:100B0000314809F0BDF809F073F900238BF8003083
:100B1000BDE8F88F00222F4DDFF8B4801A702A68E4
:100B2000D8F84800520028B32B4903F0DBFA70E7ED
:100B3000D7F88C040368DB6898470028B1D1B3E785
:100B4000D8F84C000028ACD04FF48052314601F068
:100B500087FDA6E7D8F84C0000283FF45AAF1149AA
:100B600002F04CFB55E7D86C0028C4D0164901F0C0
:100B700077FDC0E7D8F84C0000283FF44AAF16498B
:100B800002F03CFB45E7D6F88C040368DB68984725
:100B90000028B1D1B3E700BF48A201207114FF1FA4
:100BA00044A20120C024FF1F2CA201207214FF1FA9
:100BB00030A201206814FF1F2C250120AC63012006
:100BC0009B14FF1FD00EFF1FC014FF1F9014FF1FA8
:100BD000740EFF1F40A20120C0240020BC14FF1F80
:100BE0008C14FF1F1825012010B41F4B1B782BB34A
:100BF0001E4B1B787BB11E4A1E491F4C02EB430C57
:100C00000B6832F8020B24F813000B68624503F1FD
:100C100001030B60F4D1194819491A4C03780A688A
:100C2000246801320133DBB2A24203700A6002D1B0
:100C3000154B00221A705DF8044B70470B4B1B7864
:100C4000002BE8D00A4A1149114C02EB430C0B6807
:100C500032F8020B24F813000B68624503F101031C
:100C60000B60F4D1D7E700BF7114FF1F5D07FF1FB2
:100C7000F40DFF1F40A20120C024002048A2012043
:100C80009414FF1F8814FF1FC40EFF1F44A20120ED
:100C9000C024FF1F10B541F27073013BFDD13548F0
:100CA00001F056F9012822D03248412101F054F9CF
:100CB0003048062101F064F92E48082101F04CF972
:100CC00008222D492B4801F0D1F92A48012101F0D1
:100CD00043F92848232101F03FF92648102101F06B
:100CE0003BF9BDE810402348002101F035B9044626
:100CF000204801F05FF9FF28D6D11E48412101F0BC
:100D00002BF91C48062101F03BF91A48082101F093
:100D100023F908221748184901F0A8F92146154877
:100D200001F01AF91348232101F016F91148102196
:100D300001F012F921460F4801F00EF90D48562135
:100D400001F00AF921460B4801F006F9214609484D
:100D500001F002F90748762101F0FEF8074B05483B
:100D6000197801F0F9F8BDE810400248002101F0BF
:100D7000F3B800BF9C13FF1F5407FF1F7014FF1F21
:100D80002DE9F04F944C237897B0002B40F0CE81A2
:100D9000924801F0DDF8002867D09048904D01F0AE
:100DA00009F9904B287001221A708F4B01460022DE
:100DB00074291A7000F2BF80222968D92339512979
:100DC00065D8DFE811F06B0464006400640064001F
:100DD00064006400640064006400640064006400F3
:100DE00064006400640064006400640064006400E3
:100DF00064006400640064006400640064006400D3
:100E000064000E046400F603BF0215032E0564009F
:100E10002702640064002305E104640064007D048B
:100E20000E05640072024902FC0164006400300295
:100E3000EF03640051036400640064006400640014
:100E40006400640064006400640064006400640082
:100E50006400640064006400640064006400640072
:100E600064006400640064004403604801F070F8AA
:100E70000546002840F039815D4801F069F80028F6
:100E800040F08081584B1A78002A40F02486DFF821
:100E9000A4A19AF80030002B5ED0564EDFF898914E
:100EA000DFF89881DFF898B1002404E09AF8003068
:100EB0000134A34250DD19F8013F36F8022F3BF808
:100EC000131018F8013F114489B23180002BEDD086
:100ED000494B4A4A1F19504604F110032546A246C1
:100EE00086461C46464B38784FF0000C03F805C088
:100EF000002800F0DA80505D002840F0E980414889
:100F000030F8150088420ED83F4B19783C4B012031
:100F10005855002940F0FF803C4B1978002940F0DB
:100F2000EF80002139700835AC4207F1080700F066
:100F3000CC803188D6E7FE2900F03081FF29A6D188
:100F4000284B1B78012BA2D1DFF8E8A0FFF7A2FE07
:100F50009AF80030002BA0D12D4B1B78002B40F0CD
:100F600006812C4B1E78002E00F098802A4B1A78B0
:100F7000002A00F00381294923220A7000211970F8
:100F8000274BDFF8C0E093F800C0BCF1000F40F041
:100F9000F1802449BEF8003001F81320224A01EB09
:100FA0004301107848709AF80000013300272EF8AA
:100FB0001C30177000286ED01C4BBEF80240BEF8E3
:100FC00000501B4ADFF880B0DFF858906146B84601
:100FD000BC4618440F4643E0220EFF1F9C13FF1F20
:100FE0009914FF1F9A14FF1F9814FF1FC80EFF1FAC
:100FF0006814FF1FF20DFF1F4407FF1FD8240120B4
:10100000E8240120F82401209913FF1F9813FF1FE3
:10101000C40EFF1F6514FF1F35A201206507FF1FC7
:101020007214FF1F2C25012034A20120C7240120A7
:10103000F40DFF1F5D07FF1F37A201207314FF1F70
:101040004CA2012030A20120AC630120B2F8008044
:1010500029F815808DB2B046984202F1020211D0F3
:1010600013F8011F0029F7D0691C002FEED011885A
:101070002BF81410984204F10104A4B2B44602F112
:101080000202EDD167460FB1AEF80240B8F1000F91
:1010900001D0AEF80050934B01221A70924B1B788E
:1010A000002B47D117B0BDE8F08F505D8F4BB0B922
:1010B00033F815008842FFF436AF08350121AC4201
:1010C000397007F108077FF434AF5446F246EDE675
:1010D000874830F815008842BFF416AF23E733F88D
:1010E000150088423FF61FAFE7E78248824D00F0C7
:1010F00061FF824B287002221A700146804B56E62F
:10110000691C8048CDF804E0C9B200F025FFDDF885
:1011100004E07D4A05E7691C7C48CDF804E0C9B2CB
:1011200000F01AFFDDF804E0774AF5E67848FFF7AB
:10113000B7F92DE6774B6F48197800F00DFF9AF854
:101140000030002BAED0744D714F6A4E002404E085
:101150009AF800300134A342A4DD15F8013F002BBA
:10116000F6D037F81410304600F0FAFEF0E7FFF73B
:101170003BFDF6E669493EF81C300DE7684B52220C
:101180001A70FDE6614800F015FF664B1B7883423C
:1011900000F09083584A5A4B117808E6574C237850
:1011A000002B00F0B183022BDFF894A17FF471AE25
:1011B0005648FE2100F0D0FE9AF800306BE64F4B07
:1011C0001B78002B7FF463AE574E504F06F120057D
:1011D0003446384600F0FCFE24F8020FA542F8D150
:1011E000524CDFF8288104F120072546404600F0E4
:1011F000EFFE25F8020FBD42F8D14D4A34F8023F08
:1012000036F8021F8B4234BF00230123A74202F8A5
:10121000013FF3D1DFF828A13C48012100F09CFEFA
:101220009AF8003037E6354B1B78002B7FF42FAE51
:10123000404B1B78002B40F048833448DFF800A176
:1012400000F0E0FE3C4B0246012130481A6000F0FD
:1012500083FE9AF800301EE6284C2378012B00F01C
:10126000CB83022B00F08483284800F0A3FE334B8D
:101270001870002800F0708301287FF408AE2378EE
:10128000012B00F0FD83022B00F0E5831F4800F0E6
:1012900091FE0038144A2378DFF8A4A018BF01207B
:1012A0001070002B7FF4F5ADB6E7144B1B78002BC4
:1012B0007FF4EDAD1F4B1B7803F0FF04002B00F013
:1012C000AF83124D0824284600F074FE013CFAD189
:1012D000DFF86CA00D48214600F03EFE9AF8003081
:1012E000D9E500BF2CA201206414FF1F9C14FF1F2E
:1012F000F8240120C80EFF1F9914FF1F9A14FF1F26
:101300009814FF1F9C13FF1FD82401206814FF1F8F
:10131000F40DFF1F6407FF1FBF240120AC630120F1
:101320006507FF1F3907FF1FF62401209A14FF1FCE
:10133000D7240120C40EFF1F8814FF1F8414FF1F31
:101340005D07FF1FB54B1B78002B7FF4A0ADB44C9D
:10135000B44D2378002B40F0C582B34B986C002825
:1013600000F07083002102F0EFFDDFF818A3AF4E0C
:101370009AF80040356805FB04F35B00B3F5805F25
:1013800040F23E8328460AF093F88046204689467C
:101390000AF08EF802460B46404649460AF002F92A
:1013A00002460B4609F048FFA14BA24C00220AF06E
:1013B000F9F841EC100B08F033FF51EC100B0AF078
:1013C000A1FB20609C48294600F0DAFD9AF8003025
:1013D00032682068994903FB02F2A2EBC022520056
:1013E0000A609749974A002008700121117052E560
:1013F0008A4C2378012B00F09082022B00F0898226
:101400008D4800F0D7FD904B1870002800F09482B2
:1014100001280ED12378012B00F02583022B00F048
:101420001E83854800F0C6FD0038884B18BF012098
:101430001870874B2178DFF84CA24FF001321A6008
:101440005A609A60DA6000297FF423ADE4E67A48B6
:1014500000F0B0FD7F4ADFF82CA2003818BF012051
:101460009AF80030107016E56C4B1B78002B7FF457
:101470000EAD734B1B7803F0FF05002B7FF407AD17
:10148000754EDFF804B2DFF8D881DFF800A2DFF88C
:1014900000923746EAB200214046FFF78BF900235D
:1014A000CBF800304FF47A744046FEF7F9FFDBF8D2
:1014B0000020B8F80030013C1344CBF80030F3D1E1
:1014C000A9FB032340F6FF720135A2EB93131BB275
:1014D000042D27F8023BAAF80030DBD15F4B6048AF
:1014E0001A782146FFF766F95E4803F0B5FD4D4BCB
:1014F000D3F88014002900F0C78202AD5A4A029442
:101500000123284602F0BEFB002840F0E082574C41
:10151000554A4449DFF87C81DFF87C91544F40F212
:101520000223284603F076FE039B6360049BA360BE
:101530009DF81430237306A904F1100003F048FD50
:1015400006A8CDF8088003F087FDA06C36F9023BB1
:101550003B800222002800F0CE81394602F0C2FD15
:101560004E45F2D14348DFF81CA103F075FD424A15
:101570002C4940F20223284603F04CFE2A48049BE3
:10158000039A83609DF814300373426006A91030FB
:1015900003F01EFD06A8CDF8088003F05DFD9AF863
:1015A000003078E4DFF8DCA000229AF800302270E6
:1015B00071E41A4B1B78002B7FF469AC2F491E484D
:1015C000DFF8C0A0082200F055FD2D491A48082276
:1015D00000F050FD1848012100F0BEFC9AF80030E0
:1015E00059E40E4B1C78002C7FF451AC144B12487C
:1015F0001B78002B40F0088200F0DCFCDFF884A0B0
:10160000014617488AF80010FFF708F80A48012138
:1016100000F0A2FC9AF800303DE400BF9A14FF1FCE
:101620009B14FF1FD00EFF1F740EFF1F9414FF1F8B
:101630000000303F8C14FF1F6814FF1F9014FF1F21
:10164000C40EFF1FBC14FF1F8414FF1F9813FF1F3D
:101650004407FF1F182501204CA2012038A20120B9
:10166000F40DFF1F840EFF1FA8C20000240EFF1FF1
:1016700028250120340EFF1FB0C20000C82401201D
:10168000C02401205D07FF1FD0240120D4240120A5
:10169000D34D6210C4C2000054A20120B84B1C7884
:1016A000012C7FF4F4ABB748DFF848A300F082FCCC
:1016B000B54BB64A1C7010709AF80030FFF7EBBBC0
:1016C000AF4B1D78002D7FF4E2ABB148B14EDFF88F
:1016D00024A3A12100F040FCAD48062100F050FCFD
:1016E00001232370AC4BAD4A1D70A74B1570AC4A5B
:1016F0001D70AC4B1570AC4A1D7008214FF47A7305
:10170000AA48157033608AF80010FEF787FFA848D2
:1017100006F098F9306809F0CBFE02460B4600202F
:10172000A4490AF069F894A3D3E9002309F03AFF29
:10173000A14B04460D46C3E900450AF003FA07EE43
:10174000100AB5EEC07AF1EE10FA7FF6A2ABDFED2B
:101750009B7AB4EEE77AF1EE10FA3FF79AABDFED41
:10176000986AFEEE007AE7EE267AFCEEE77A17EE4C
:10177000902A232A7FF68DAB92498D4806F018F9FE
:101780009AF80030FFF787BB7D4C2378012B00F0DF
:10179000CF80022B00F0C8807D4800F00BFC8A4B04
:1017A0001870002800F0BD80012813D1874B986C79
:1017B000002800F05C81002102F0C6FB844D854AC0
:1017C0007748854900232B60012505701360834A03
:1017D0000B6013702378DFF81CA2002B7FF459AB49
:1017E0001AE5674B1B78002B7FF451AB6848DFF894
:1017F00004A200F0DFFB7A4B0246012164481A7014
:1018000000F0AAFB9AF80030FFF745BB5C4B1B7851
:10181000002B7FF43CAB73495D48DFF8D8A1082268
:10182000D6E6574B1B78002B7FF431AB5C4B1B7813
:10183000002B4AD15648574C00F0E4FB03465C4865
:10184000236006F0FFF8206809F032FE02460B46DE
:101850000020584909F0D0FF47A3D3E9002309F03D
:10186000A1FE554B04460D46C3E900450AF06AF94E
:1018700007EE100AB5EEC07AF1EE10FA7FF6CAACA8
:10188000DFED4E7AB4EEE77AF1EE10FA3FF7C2AC34
:10189000DFED4B6AFEEE007AE7EE267AFCEEE77AA1
:1018A00017EE902A232A7FF6B5AC4649404806F049
:1018B0007FF8AFE4364800F07DFB314B4A4A1D709B
:1018C00001464A4B1070FFF772BA3148DFF824A185
:1018D00000F098FB2E48002100F03EFB9AF8003003
:1018E000FFF7D9BAD5F88C040368DB68984700285D
:1018F0007FF42FAD31E5E06C022200283FF430AEDA
:10190000394601F07BFC2BE6394800F025FB2378B3
:1019100049E4374800F04EFB75E51A4800F04AFBF1
:1019200071E51F4B187055E7314800F043FB36E76F
:10193000144800F03FFB32E72378012B00F0BB8016
:10194000022B00F0B480124800F034FB0038124B38
:1019500018BF012018706CE52378012B00F0B380CC
:10196000022B00F0AC800A4800F024FB0B4A72E521
:101970001F4800F01FFB7AE40000000080842E4125
:101980009A14FF1F9C13FF1F35A2012034A20120CF
:101990006814FF1F6007FF1F9913FF1F6514FF1FC7
:1019A000C40EFF1F6414FF1F9813FF1FF40DFF1FC9
:1019B0007C14FF1F0000F03F202501208988884CFF
:1019C00000007042810D00008414FF1F740EFF1F81
:1019D0009414FF1F44A2012040A201207114FF1F94
:1019E0006407FF1F7414FF1F9914FF1F9814FF1F33
:1019F000C80EFF1F5D07FF1F394800F0DBFA36E411
:101A0000384C00232360DDE4DFF8F8A000F0D2FAC0
:101A10003548214600F0A0FA9AF80030FFF73BBAAB
:101A200032493148324D334E082200F023FBE1B2F7
:101A300015F8012F01343046FEF7BCFE082CF6D114
:101A4000FFF7E8BBD86C00283FF48FAC00220023DE
:101A500000F0F2FE89E4284800F0ACFA19E42648C8
:101A600000F0A8FAE0E41E4800F0A4FADCE4D86C28
:101A700000283FF4A3AE0022002300F0DDFE9DE627
:101A8000174800F097FA04E4D3F8841402AD002953
:101A90003FF43DAD194A0E940123284601F06EF93A
:101AA00000283FF434AD284601F0BAF92FE512487A
:101AB00000F080FA4AE70A4800F07CFA46E70E4850
:101AC00000F078FA52E7064800F074FA4EE728462C
:101AD00002F08AFF1BE50A4A1178FFF768B900BFD8
:101AE0009C13FF1F8C14FF1F6814FF1F38A20120D6
:101AF00037A20120F40DFF1FC80EFF1FA8C200006F
:101B00009914FF1F5D07FF1F29482A4B2A4A2B49BA
:101B100070B5C0F890342A4BC0F8A434294BC0F8F3
:101B20009C340024292380F8A934C0F88044C0F8EC
:101B30008444C0F88C44A0F8984480F8AD4480F800
:101B4000B44480F8C44409F06BFB27211E481F4DA4
:101B5000FEF782FC1E491F4800F0F8F91E491F4895
:101B600000F0F4F91E491F4800F0F0F91E481F4923
:101B7000114A04608023037109F052FB1C481D497F
:101B80000D4A44604FF47A76866004738464C464BA
:101B9000056009F045FB1848074A047386604460F5
:101BA0008464C46405601349BDE8704009F038BB23
:101BB000D00EFF1FCCC500003007FF1FC10800007A
:101BC000032000385CC50000F40DFF1FE8C20000D0
:101BD000D007FF1F6814FF1F7C07FF1F9C13FF1F08
:101BE0006807FF1FC80EFF1F7C14FF1FDD080000E1
:101BF000740EFF1FC5080000240EFF1FFFFFFFFF2C
:101C00002DE9F04F2DED028BB74CB848DFF830A32B
:101C1000B74D95B0FEF7BAFD2078012106F00EFA17
:101C20002078002106F0D2F92078012106F006FA8A
:101C30002078012106F0CAF9AE48C02107F05AFA0F
:101C40009FEDA58BAC49AD4805F0F8FD0024AA49ED
:101C5000AB4805F03BFD8AF800402878022106F0E9
:101C6000EDF9204609F034FCB0EE480AF0EE680ABF
:101C700041EC110B08F050FA15F8010B59EC108BE0
:101C800006F0CEF907469AF8000009F021FC02465A
:101C9000384616460F4609F01BFC42464B4609F0F3
:101CA00081FC02460B463046394609F0C5FA09F078
:101CB00029FF01340346002115F8010C8AF8003091
:101CC00006F0BCF9052CC8D18E4C9AF8003004F50A
:101CD00092650021FF22C3F11F0384F8B82484F821
:101CE000C41428468AF8003004F080FE2846C4F860
:101CF0008C5404F07DF930B90123D4F88C141A46C1
:101D0000204603F017FAD4F88024002A77D06E46D4
:101D10000023114630467C4A009301F0B3FF0028AF
:101D20007AD1D4F88034DFF81C920DF11008002B22
:101D300000F0A8800022194600920123734A304621
:101D400001F0A0FF002840F0C180704A6D4940F2C8
:101D50000223304603F05EFA6D48029B019A8360CD
:101D60009DF80C30426003734146103003F030F9A7
:101D70004046CDF8009003F06FF9664B41F6FF71D5
:101D800003F1200223F8021F9342FBD1624B186833
:101D900009F08EFB02460B460020604909F02CFD3D
:101DA0004FA3D3E9002309F0FDFB5D4B04460D462C
:101DB000C3E9004509F0C6FE07EE900AF5EEC07AC9
:101DC000F1EE10FA70D99FED577AF4EEC77AF1EE82
:101DD00010FA69DCDFED546ABEEE007AA7EEA67A4F
:101DE000FCEEC77A17EE902A232A5DD94F49504856
:101DF00015B0BDEC028BBDE8F04F05F0D9BDD4F8AD
:101E0000841400295CD06E4613460C9230463E4A3C
:101E100000F0B4FF002884D0464F3B4A3949DFF830
:101E20002491454DDFF820B140F20223304603F003
:101E3000F1F9019B7B60029BBB600DF110089DF8DE
:101E40000C303B73414607F1100003F0C1F84046E7
:101E5000CDF8009003F000F905F1080AB86C0222F1
:101E6000594630B301F062FFBBF8003025F8023B61
:101E7000AA45F3D1314803F0EFF8D4F88034002BB1
:101E80007FF458AFD4F8841400293FF45EAF0C936C
:101E90001E4A0123304600F071FF00283FF455AF81
:101EA000304600F0BDFF50E715B0BDEC028BBDE839
:101EB000F08FF86C02220028D6D000F0D1FBD3E7D7
:101EC000DFF880906E460DF110083EE7304602F0D4
:101ED0008BFD3AE7AFF300800000000000000040F7
:101EE0000000000080842E413807FF1FF40DFF1F03
:101EF0003C07FF1FA413FF1FF40614007C07FF1FFD
:101F00006807FF1FD00EFF1FA8C20000B0C200006C
:101F1000740EFF1FF62401206007FF1F0000F03F32
:101F2000202501208988884C00007042810D000026
:101F30007C14FF1F240EFF1F4CA20120340EFF1F34
:101F40007014FF1FC4C200002825012001607047E3
:101F5000006803681B691847006803681B68184716
:101F600010B504460068A1800368C9B21B68984791
:101F7000206861790368BDE810401B68184700BFFE
:101F800010B50446006861600368C9B21B689847D1
:101F90002068617903681B6898472068A179036805
:101FA0001B6898472068E1790368BDE810401B680A
:101FB000184700BF10B50446206803681B6998479E
:101FC0000028F9D0206803685B699847C0B210BD4B
:101FD00010B50446206803681B6998470028F9D0AB
:101FE000206803685B6998472071206803681B6953
:101FF00098470028F9D0206803685B6998476071AA
:10200000A08810BD10B50446206803681B69984776
:102010000028F9D0206803685B6998472071206820
:1020200003681B6998470028F9D0206803685B693A
:1020300098476071206803681B6998470028F9D0A9
:10204000206803685B699847A071206803681B6972
:1020500098470028F9D0206803685B699847E071C9
:10206000606810BD006803685B6818470068036813
:102070005B681847006805F05BBD00BF90F81CC0A6
:102080004160BCF1020FC26001D18368184705F0BE
:10209000AFBA00BF2DE9F0410468E56815F0807F14
:1020A000764D256048D1DD0700F1C98090F82C609D
:1020B0001F4646EA0626002F00F0B08031B10E78A8
:1020C0004D7846EA052676BA0231B6B2456895F8EB
:1020D00008C0022F0CF1FF3C4FEA0C3C0CBF46F04D
:1020E000805546F010451FFA8CFC6563023F09E0FD
:1020F00012B10EF8014B7246013B05F4704565457F
:1021000016D90468E56A15F0F00FF6D013F0010F48
:10211000A46B9646ECD1C4F307281AB10EF8028BD3
:102120005470724605F470456545A3F10203E8D882
:10213000002F73D00468C1E7DD075BD490F82C70E2
:102140001E46BFB2002E42D021B14D7811F8027B5D
:1021500047EA0527456895F808C0022E0CF1FF3CB8
:102160004FEA0C3C0CBF47F0805547F010451FFA72
:102170008CFC6563023E09E012B10EF8014B724619
:10218000013B05F47045654516D90468E56A15F00C
:10219000F00FF6D013F0010FA46B9646ECD12AB1E4
:1021A0000EF8024BC4F307245470724605F47045D0
:1021B0006545A3F10203E8D84EB10468C4E72AB12B
:1021C00004F8021BC1F3072151702246023B7BB188
:1021D0000168CC6A14F0F00FF9D0DD07896B144662
:1021E000EDD512B104F8011B2246013B002BEFD1C3
:1021F000BDE8F08179B311F8015B012B18BF45F000
:102200000045656390F82C705E1E9AE7C1F30725C0
:102210001AB104F8025B51702246023B002BE7D052
:102220000168CC6A14F0F00FF8D0DE07896B144611
:10223000ECD512B104F8011B2246013BEEE799B13F
:1022400011F8015B012B18BF45F00045656390F85C
:102250002C605F1E2DE790F82C70012B1ABF47F001
:10226000004565636763CFE790F82C60012B1ABFC8
:1022700046F0004565636663EBE700BF00041F801E
:1022800010B400248460C460046144618461C4614A
:102290000462446284628485046344638463C46327
:1022A000C0E900125DF8044B704700BF436810B4EA
:1022B0001C685A682168114302682160164C17494E
:1022C0001460D160164C174914611160417A164AA6
:1022D0005C180C3194F82CC053F8214002EBCC016F
:1022E00049680C60017A5C1803EB810194F818C00E
:1022F000CC6902EBCC0149680C60817A5DF8044B33
:10230000581803EB810390F84000596C02EBC002AF
:1023100053681960704700BF01401F00011000386A
:102320000110007800001F8008C9000010B4426846
:1023300090F809C0104B944400219CF82CC003EB8A
:10234000CC0CDCF80440216090F808C094449CF860
:1023500018C003EBCC0CDCF804402160847A0068E0
:102360002244064C92F8402003EBC2035B681960DC
:1023700004605DF8044B704708C9000001401F006D
:102380000BB1FFF787BE704770B4826B4B4B12796D
:10239000DA77426B12791A77826B12791A77026BAD
:1023A0002AB34368DB689A4244D9446B816BD21AE2
:1023B000236802631D6800F12C04A5424FF001025E
:1023C0005AD00468E56815F0804F1D682AD12D7831
:1023D0001E6845F0004501361E606563374B09797C
:1023E000D97612B1426B1279DA7670BC7047016807
:1023F000334CC36B0A63CC62CC6824F08044CC605D
:102400001C68304924684FF0030C8C4280F82DC0C2
:102410003AD1197F5A600229DA603AD170BC9A68C1
:10242000184610472D881E6845F0004502361E608C
:102430006563D3E7436B1B68DC8B260402F1FF3135
:1024400033D4C1F30E01D983DC8B816BA4B2DC825F
:102450000C68E58B2D0420D4C2F30E05E583E58BD3
:10246000ADB2E5821D680024013A046300F12C043A
:1024700018BF0122A542A4D10368DC6890F82C4063
:1024800044F000445C63A9E718461146234670BC3B
:10249000184770BC184605F0ABB8E58BC2F30806C8
:1024A00005F47E453543E583D9E7DC8BC1F30801AC
:1024B00004F47E442143D983C6E700BF0080004076
:1024C00000000FFF7D20000008B50248FFF75CFF09
:1024D00008BD00BF64A2012008B50248FFF754FF01
:1024E00008BD00BFA4A2012008B50248FFF74CFFB9
:1024F00008BD00BFE4A2012008B5084A0849094800
:10250000FFF7BEFE084A09490948FFF7B9FE094A24
:1025100009490A48FFF7B4FE08BD00BF90C3000098
:1025200000C0024064A2012024C4000000D0024088
:10253000A4A20120B8C4000000C00A40E4A2012007
:1025400070B500F124038C460546164693E8070053
:1025500084B001AC84E80700286A4FEA4C12214697
:1025600001F0E2F8012806D1286A3246214601F03E
:10257000BFF804B070BD002004B070BD10B50446B3
:1025800000F042FD002384F8313084F8333010BD70
:1025900038B590F831300BB1002038BD04460D46F7
:1025A0003822194609F068FB0120402384F83130B5
:1025B00084F83300256238BD30B40C78202C03D168
:1025C00011F8014F202CFBD0116091600C783CB3C6
:1025D000224D0CE0A4F1220C5FFA8CFC25FA0CFCD5
:1025E0001CF0010F10D12E2C16D10C78C4B12F2C59
:1025F00025D03C2C01F1010109D8212CEAD804F1A5
:10260000FF3CBCF11E0F16D8002030BC70475C2C7C
:10261000FAD00AD97C2CF7D091600C78002CE6D146
:10262000196030BC114600F04DBF3E3C012CF3D880
:10263000002030BC7047202CD7D09160EDE70C46CD
:10264000214614F801CBBCF1200FF9D0BCF12F0FBB
:10265000F6D0196030BC114600F034BF01210005EE
:102660002DE9F04F90F83330DC0783B005466CD588
:1026700058068B46904640F1B480D5E90023D5E951
:10268000041018EB020443F10003A14270EB0303B2
:10269000C0F0AD80B8F1000F53D0D5E90032464606
:1026A000D5F82090D9F838441C40C4F3080A002C0F
:1026B00056D1134376D195F831305A064CBFD9F82C
:1026C0003414E969A96199F84534D9F82C24023900
:1026D00099401144B6F5007F4FD3D9F81C228A42A5
:1026E0004BD0B6F5806F64D34FF0010A0AFA03FAB3
:1026F000AAEB040A730A9A4528BF9A468A424FEA0F
:102700004A240AD30AEB01039A4206D209F504705F
:10271000019104F04DFE0199B8B1D9F8140207688F
:102720005346D7F814905A46C84770B12346D5E9A6
:1027300000125B1842F10002361BC5E90032A344C7
:10274000AED1404603B0BDE8F08F95F832304FF07F
:10275000FF3043F0020385F8323003B0BDE8F08F5C
:10276000AA6999F84534D9F82C04911E9940640A55
:1027700001442144BAF1000FACD0CAF50074B44250
:102780004FF0000209F5047028BF344604F03CFE07
:102790000028DAD000EB0A012246584605F0ECF991
:1027A0002346C4E795F83330A9695B060DD501319E
:1027B00088E7D9F8140203685A461B69984700282D
:1027C000C3D04FF400731C46B1E705F11802484628
:1027D00000F0ECFF0028B8DB0CD0A969D5F82090F8
:1027E00071E795F8313019077FF554AF45E7A1EB54
:1027F00002084FE795F8313013F0500FA5D0A8EB41
:10280000060840469EE700BFF0B583B001220DF1F7
:1028100007010446D0E900678569FFF721FF012819
:1028200008BF9DF80700A56118BF4FF0FF30C4E94D
:10283000006703B0F0BD00BF2DE9F84F90F83110EC
:10284000D0F818800446002950D01646D0E9002C54
:102850009C4508BFB2421F4658D056EA07034AD0EB
:10286000080704D5D4E90403B042BB413ED3D4F8F1
:10287000209099F845340933751EDBB247F1FF3AD1
:10288000C3F120000AFA00FBDD40A3F1200E2AFA72
:102890000EFA45EA0B0545EA0A0594F833A01AF04A
:1028A000400F2FD112F1FF3A2AFA03F34CF1FF3A0D
:1028B0000AFA00F003432AFA0EFA43EA0A039D4299
:1028C00002D352EA0C0C24D14B064CBFD9F8343455
:1028D000E369A36104F118094A4675B1A169206A48
:1028E00000F064FF002805F1FF35F5DCC4F818801E
:1028F0000020BDE8F88F00238361C4E90067012050
:10290000BDE8F88FE3692B44A361F6E70120BDE839
:10291000F88FED1ADEE700BF2DE9F04F064690F87C
:1029200031008FB0002840F0D880174691F8312050
:1029300012F0500F8B4600F0D08003F00302032A00
:102940009A4600F0CA80013203F0080142EA01030E
:102950000293002F00F0CA803A6902F10E08B54ACE
:10296000A2FB0828DBE900214FEAD80808F1020899
:102970000A435FFA88F805D0CBF818000021002040
:10298000CBE90001029B002443F04003254603935A
:10299000202206A95846FFF763FE00B3202840F026
:1029A0009C809DF918209DF81830002AC0F2A18063
:1029B00034B9DBF80020A2F12009DBF818200192DD
:1029C00044453CBF0134E4B2002B00F012812022C8
:1029D00006A958460025FFF743FE0028DED11AF469
:1029E000007F7AD0029B9B0777D5002F75D0444596
:1029F00017D2DDF804A0202206A95846FFF730FEC2
:102A0000631C002861D0202867D12CB9DBF8002096
:102A1000DBF818A0A2F12009DCB2A045EBD8CDF874
:102A200004A03822002130469BF8334009F024F9F5
:102A3000DBF820303362019B7362082386F8313063
:102A40003B68C6F82890C4F38014002586F82C4013
:102A50007B60BD81B8F1000F32D008F1FF39DFF89B
:102A6000D8A15FFA89F9AB46012259463046FFF7F3
:102A700067FD044688B390F90020002A2DDB202250
:102A8000002109F0F9F8002D00F0BA80BBF1010F28
:102A900000F0D480C1232370A3461E34BB8938467E
:102AA0001BB97A68BB689A4205D004F0D5FC2BF8B4
:102AB000020FA345F2D101355FFA85FBD845D3D883
:102AC000304600F0A1FA05460CE05846DBF81850F5
:102AD00000F0CAFA002840F09080002586F83150B6
:102AE00086F8335028460FB0BDE8F08F4FF003084A
:102AF00048E755BB444538BF0024852B7FF448AFD9
:102B000029463822304609F0B7F89DF81C209DF878
:102B1000193086F8303002F03703D20658BF43F040
:102B2000080386F83130DBF80030DBF82020326211
:102B3000203BDBF818207262B3629BF83330C3F39A
:102B4000801386F82C30012522E7C02B28D0C12B1A
:102B50007FF43DAF3A4606A9304600F08DFCE8B15F
:102B6000BB89DBB9BA687B689A4217D11AF4006F47
:102B7000B3D11AF4884F6FD196F833309C076BD4D9
:102B80001AF4806FA9D11AF4804FABD0D6E9042390
:102B90003046FFF751FE0028A4D19EE70546F7E630
:102BA000029B86F833309DF819309B0744BF039B86
:102BB00086F833300B9BF361DDE90823C6E9042373
:102BC000DDE90C23C6E90223002FCFD04FF000032C
:102BD0003A69BB819DF81B30396879609A427FF46D
:102BE000F6AEBD8ABDF81C30ED1AB5FA85F56D0953
:102BF000CEE6002F7FF4F3AE6FE7CBF818500CE76A
:102C00008523237086F8309084F80190DAF800303C
:102C1000002B45D00DF113020DF1160105A89847C0
:102C2000BDF814306381BDF8163023819DF8133050
:102C3000237540E78988888878A30120C023237002
:102C4000029B84F801B063F07F0386F833303B6960
:102C5000E370BB8AA3802EE796F83130D8063FF5A3
:102C60003CAF13F001027FF438AF1AF4806F8AD0C2
:102C700096F8331089077FF530AF002B3FF42DAF66
:102C8000D6E900310B4304D000200021C6E9000141
:102C9000B261304600F040FA00283FF41EAF21E751
:102CA00045F221636381E381638204E72DE9F04308
:102CB000044697B0994694F8313001920020149060
:102CC000ADF814006BBB91F8313013F0500F0E4685
:102CD00027D013782F2B154627D04FF0000813E08C
:102CE000019D2F78A7B3FFF717FE06463422214631
:102CF00008A8B6B104F040FF204600F085F908AE00
:102D000084F8318084F83380294601AB02AA20463A
:102D1000FFF752FC0546002302AA31462046002D4B
:102D2000DED1002017B0BDE8F08315F8011F2F2970
:102D3000FBD0019599B938222046356A08F09CFFEE
:102D40000120402384F83130256284F83300E9E71C
:102D50004B4602AAFFF7E0FD17B0BDE8F08338222A
:102D6000002108A8366A08F087FF01238DF8533048
:102D7000402310968DF8513008AEAEE719B101F539
:102D80008961FFF793BF0846704700BF8169F8B5B6
:102D90000446006A01B10131012200F0C9FB01289B
:102DA000054632D9012301461A46206A00F020FC6C
:102DB000064650B3A3695BB394F83320510612D58D
:102DC000591CA94218D022F04002E16984F833204E
:102DD00005E0206A00F00AFDB8B1A36939464F1C2E
:102DE00099423A46F5D3206A4FF0FF32294600F067
:102DF000FDFC50B1A16911B9A5613046F8BD206A4A
:102E00002A4600F0F3FC0028F6D100263046F8BD33
:102E100094F8333043F0400384F83330ECE700BFDC
:102E200090F833309A0736D5C16970B50546A1B917
:102E30000024214607E0037803F07F03037095F830
:102E400030308B4229D301222846FFF779FB013429
:102E5000E1B20028EFD1002070BD5B06006A34D5D6
:102E6000D5E9022490F845340933013ADBB244F144
:102E7000FF34C3F1200CDA4004FA0CFC203B24FAA6
:102E800003F342EA0C021A430132002300F0B0FBC4
:102E90000028CDD1DFE7002070472C6A002385F899
:102EA000313085F83330204604F082FA0028D2D041
:102EB00004F5047004F07CFA0028CCD0D4F8400467
:102EC0000368BDE870401B6A184700F0AFFC00289B
:102ED000AED1C0E72DE9F0414FF00008494F82B074
:102EE00006464446414600223046FFF729FB054688
:102EF00030B10078C02867D0C1282BD0852809D0F0
:102F000096F8323043F00103002086F8323002B0E8
:102F1000BDE8F08196F8313003F03703AB803B68B1
:102F200083B10DF103020DF1060101A89847BDF828
:102F30000630AB812B82BDF80430EB816B829DF8AB
:102F400003306B75326A92F8103243F0010382F855
:102F5000103228780146002202E01F2A0FD8A95C0F
:102F6000E30343EA540311FA83F3012A9CB202F10A
:102F70000102F2D1852814BF02220422EFE796F85D
:102F8000303008F101085FFA88F18B42ABD2306A29
:102F9000012206F1240100F0ABFB0028B0D0356A15
:102FA0004480284604F004FA0028A9D005F50470EE
:102FB00004F0FEF90028A3D0D5F8400403681B6A8A
:102FC00098470028A3D19BE796F8333013F0400FC1
:102FD0006B7814BF43F0020303F0FD036B70D6E976
:102FE0000401F369326A6B61C5E90201D6E90201A5
:102FF000C5E9060192F8103243F0010382F810325D
:103000002878A7E778A3012038B590F8313043B38A
:1030100090F9332090F83330002A04460CDB056A1F
:10302000284604F0C5F978B994F8323043F001032A
:1030300084F83230002038BD03F07F0380F833304D
:10304000BDE83840FFF746BF05F5047004F0B0F95D
:103050000028E9D0D5F8400403681B6A9847002887
:10306000E2D0012038BD00BF70B590F831305A066B
:1030700005464CD480682B6AD3F83C341844B0F130
:10308000806F01D3002070BD2846FFF77FFE002827
:10309000F8D0286AAE6990F84524D0F82C34023E66
:1030A00096401E4400243119052200F5047004F0F6
:1030B000ABF901344FF4007200210028E2D008F08F
:1030C000DBFD286A90F84524012393409C42EAD313
:1030D00095F831305B0615D495F83330AA6863F063
:1030E0007F0385F83330D0F83C142B69E868521818
:1030F000AA606A6940F100005B1842F10002C5E96C
:103100000432E8602846BDE87040FFF77DBF006AE2
:1031100000F05AFCAFE700BF90F833309A0762D551
:1031200070B5C56982B00446A5B313F0400634D02B
:10313000006AA26890F845C4E1680CF1090C5FFAD6
:103140008CFC013A41F1FF31CCF1200E22FA0CF255
:1031500001FA0EFEACF1200C21FA0CFC42EA0E0240
:10316000A16942EA0C02013219B3013D6D1A013125
:103170002A44019172BBD4E9000163F07F03C4E9E2
:103180000201C4E9040184F833302046FFF73CFF14
:1031900002B070BD012002B070BD816961B90195B6
:1031A000C161206A294600F041FBC8B194F8333070
:1031B000E1E70195E161DDE7006A019601AA00F00F
:1031C000F5FA00280CDB10D1019D002DE9D194F80F
:1031D0003330D0E70199002300F00AFA0028E5D146
:1031E000002002B070BD00207047A169206A4FF036
:1031F000FF3200F0FBFA0028E6D1F1E72DE9F047B5
:1032000090F833309D07044640F1A38092461A0798
:103210000E4600F19780BAF1000F00F02781236875
:103220005546206AA169D0F8382402EA0309C9F397
:103230000808B9F1000F40F09580002900F0D48013
:1032400094F833305B0640F1EC80D4E9023290F818
:1032500045C40CF1090C013B5FFA8CFC42F1FF32D2
:10326000CCF1200E23FA0CF302FA0EFEACF1200C86
:1032700022FA0CFC43EA0E03E26943EA0C0313440E
:10328000994280F0D5800131A16190F84524D0F8B1
:103290002C34023991401944B5F5007FC0F08D807F
:1032A000B5F5806FC0F0A68001239340A3EB09031E
:1032B0006A0A934228BF1346D0F81C228A424FEA7A
:1032C00043290AD303EB010C624506D2002280F8A1
:1032D00010224FF0FF32C0F81C22D0F8140202680E
:1032E000D2F828803246C04798B34B46D4E9001242
:1032F0005B182169606942F1000299429041C4E97A
:1033000000324E44A5EB090507D294F8331023612F
:1033100061F07F0184F833106261002D81D1D4E91E
:10332000020198429141C0F09480524B1B68002BDF
:1033300000F09A8094F8333063F07F03504684F8AD
:1033400033300DE0D0E90423FFF776FA00287FF44C
:1033500062AF94F8323043F00103002084F8323039
:10336000BDE8F08790F84524D0F82C3402394FEAB4
:103370005929914049441944B8F1000F8CD0C8F53F
:103380000079A9454FF0010200F5047028BFA94655
:1033900004F03AF80028DCD040444A463146C8449C
:1033A00004F0EAFBB8F5007F206A9ED100F50470B6
:1033B00003F0FEFF002898D1CBE7226827696369F4
:1033C000BA42626872EB030312D2012200F5047064
:1033D00004F01AF80028BCD02A463146404404F0D4
:1033E000CBFBA9462B4681E7E16949B3A1614CE7D4
:1033F0000522EBE7D0F81C328B4206D1002380F87F
:1034000010324FF0FF33C0F81C32D0F814020368BA
:1034100032465B6A984700289BD04FF40073994668
:1034200064E704F1180200F0C1F9002891DB04D12F
:103430002046FFF7ABFC00288BD0A169206A24E767
:103440002046FFF7A3FC002883D0A169206AE16130
:103450001BE794F83310A36061F07F0384F83330E6
:10346000E2605046BDE8F087504679E7D4E9003283
:1034700055E700BF78A301202DE9F0410C46154621
:1034800001F11E08AB8934F8027F28461BB96A682F
:10349000AB689A420ED003F0DFFF04F04DF8064609
:1034A000384604F049F8864209D14445EAD1012062
:1034B000BDE8F081B7FA87F04009BDE8F08100204F
:1034C000BDE8F08170B50C460A68626000231946B9
:1034D000A38123611E464FF6FF7517E003F0BCFF82
:1034E000A84222D004F028F8F30343EA560353FA23
:1034F00080F399B22269C3F34E0343EAC133000A51
:1035000010FA83F30132A18922619EB2204600297C
:10351000E4D16268A3689A42E0D12069A6820138AA
:10352000FE288CBF0020012070BD002070BD00BFB0
:103530002DE9F84F074691468A46002942D0D7F830
:103540003034A1F10208434542D908F007030125B0
:103550009D40C8F3C80BEDB246464446D7F82C143C
:10356000002201EB1431384603F04EFFE8B10BF1B5
:10357000FF3B834400F2FF101BF8011F0AE04A459D
:103580002BD0A04510D0D7F83054A54214D913F051
:10359000FF050CD0013429424FEA4503A4EB060293
:1035A000EDD0A0452646EED10120BDE8F88F584564
:1035B0004FF00105E0D101E00026344601254FF02F
:1035C000000BCBE7D0F82084D7F830344345BCD883
:1035D0004FF000080125C346BEE7BAF1000F04D141
:1035E000B9F1010F08BFC7F82064B01CBDE8F88F1F
:1035F0002DE9F843154698468A1ED0F83034511903
:1036000099423AD80646B8F1000F39D1D0F82034A3
:10361000934288BFC0F82024D6F82C7402F0070328
:1036200001249C4007EB1231C2F3C809E4B2012225
:1036300030468F1803F0E8FEF8B109F1FF3E8644EA
:1036400000F2FF101EF801CF1CEA040F14BF012284
:10365000002242458CEA040C4FEA44040DD0013D9F
:103660008EF800C018D014F0FF04EDD17045A146CB
:103670004FF00104E6D13946D9E70020BDE8F883D0
:10368000D0F820049042C7D38142C5D9994228BFBF
:103690000021C6F82014BFE70120BDE8F88300BF71
:1036A000F8B5D0F8303401338B4201D20020F8BD98
:1036B00007460C4600F50476002506E0D7F83034BE
:1036C0000133A34205F10105F0D3D7F824140022F9
:1036D00001EBD411304603F097FEA400C4F30804B4
:1036E0000028E3D00459631CE8D1681CF8BD00BF72
:1036F00038B50C460B6890F845C4D0F838146568A6
:10370000023B294003FA0CF303EB5123D0F82C14AD
:1037100000F50470194403F077FE18B16368C3F331
:103720000803184438BD00BF2DE9F843D0F83834F9
:103730000C4649680B401144616090F845141344ED
:1037400001F10902D2B2D3402BB380465D1E00F5D1
:10375000047905E02368013D03F1010323601AD3D6
:10376000267A002EF6D1D8F83034276801339F42EC
:103770003246484612D8D8F8241401EBD71103F08A
:1037800043FEBF00C7F3080740B1C3595A1C09D014
:10379000013D2360E4D20120BDE8F8834FF0FF3003
:1037A000BDE8F8833046BDE8F88300BF38B5D0F8EF
:1037B000303401338B4202D24FF0FF3038BD0C461B
:1037C000D0F82414154601EBD411002200F5047042
:1037D00003F01AFE0028EFD0A400C4F30804035934
:1037E0005A1C1ABF2B600120002038BD01291BD9AB
:1037F00038B5D0F8303401338B420C4601D200206A
:1038000038BDD0F82414154601EBD411012200F57F
:10381000047003F0F9FD03460028F0D0A400C4F3BF
:10382000080401201D5138BD00207047D0F8303405
:103830000133994201D9002070472DE9F04F054628
:1038400081B00C4600F504790F464FF00008D5F81A
:103850002414002201EBD411484603F0D5FDE309FE
:1038600098B14FEA840BCBF3080B50F80B20511C96
:1038700016BF16464FF0000A4FF0010A012C04D97A
:10388000D5F830240132944203D9002001B0BDE8BC
:10389000F08FD5F8241401221944484603F0B4FDF2
:1038A0000028F2D040F80B80BAF1000F12D001349A
:1038B000B44208D00023E21B39462846FFF798FEA1
:1038C0000028E2D03746D5F830340133B342DCD398
:1038D0003446BCE7621C5346D21B3946284601B029
:1038E000BDE8F04FFFF784BEF8B5044600234FF063
:1038F000FF3004F50477C4F840146160E060C4F858
:103900001412C4F81C02154684F84434237084F859
:1039100010321A461946384603F076FD042D0CD8AD
:10392000064650B15DB927490522F01C08F0F6F9AA
:1039300018B996F86C30092B19D00020F8BD6B1E11
:1039400000EB031393F8BE2112F07F02F5D193F838
:10395000C231002BF1D000EB05163846D6F8B6512F
:10396000294603F051FD06460028DCD1E5E7336D1A
:103970002B44C4F82434736DC4F82834B36D2B443D
:10398000C4F82C34F36DC4F83034336EC4F83434D6
:1039900096F86D2084F84524012502F1090305FA03
:1039A00003F3C4F83C34013BC4F83834C4F82004B1
:1039B00001462A462046FFF7BBFD402384F84434E5
:1039C0002846F8BD4CC5000010B50446D0F83414A4
:1039D000FFF766FE94F845340933DBB2984010BD1A
:1039E00070B590F90230002B82B004460DDBA5685B
:1039F00005F1280003F0DCFC00283BD1637843F09C
:103A000001030020637002B070BD8068A1690122CB
:103A1000283003F0F9FC0028F0D0A58805F00F0548
:103A20006B0100EB4515C35CE52BE7D02378184A02
:103A30001B0744BFE369EB61236A16686B831A0CAA
:103A4000AA8266B10DF103020DF1060101A8B0478B
:103A5000BDF80430BDF806202B836B82EA82A37880
:103A6000A56803F07F03A37005F1280003F0A0FC14
:103A70000028C3D005F50E7003F09AFC0028BDD0D5
:103A8000286803681B6A98470028B7D0BBE700BFC7
:103A900078A30120024638B552F8105F0446294643
:103AA000806801F07BF950B155B123690135AB4213
:103AB000A37818BF03F0BF0363F07F03A37038BD82
:103AC000A37843F04003F7E7F8B5047814F0200436
:103AD00004D11A4B42699A42054602D30027384660
:103AE000F8BDFFF7D7FF07460028F7D0A8682E6972
:103AF00082794169023E96400E440179A9B121467E
:103B000006E008F0B9F8A8680279E1B28A420BD958
:103B100031440522283003F077FC01344FF4007261
:103B200000210028EDD1D9E7827969694FF400734B
:103B3000934011FA83F36B613846F8BD00FE1F0015
:103B400010B5044680680A462830A16903F05CFC81
:103B500020B1A38803F00F0300EB431010BD00BF9A
:103B600010B5037804462BB1FFF73AFF002323700A
:103B7000A37010BD00232370A370012010BD00BFEF
:103B80002DE9F041044694B0984623780192002034
:103B90000290ADF83800002B36D10B7813F0700F7F
:103BA0000E4631D013782F2B154631D000271EE05A
:103BB000019D2D78002D40D000F068FDA6460DF146
:103BC000080C08B3BEE80F006646ACE80F00BEE87C
:103BD0000F00ACE80F002578DEF80030CCF800309C
:103BE00020460DB1FFF7FCFE019D2770A770294606
:103BF00001AB0BAA204600F091FE05460BAA314608
:103C000000232046002DD3D1002014B0BDE8F08160
:103C10000135019529782F29FAD0A9B9B568242250
:103C2000204608F029F8A560EB79102B03D0202B53
:103C300022D00C2BE8D120231FE043460BAA00F032
:103C400025FD14B0BDE8F081B6682422002102A849
:103C500008F012F80496F379102B03D0202B03D030
:103C60000C2BD1D1202300E040238DF80830012314
:103C70008DF80A3002AE99E7402301202370A0702E
:103C8000C3E700BF19B101F58961FFF779BF0846A5
:103C9000704700BFCB6870B50D46044693B90678EF
:103CA0000EB1184670BD8D682422314607F0E4FF3E
:103CB000A560EB79102B19D0202B11D00C2B15D02F
:103CC000304670BD2422002107F0D6FF01231022C8
:103CD0002270A370A968EA682262A160184670BDCC
:103CE000402201232270A370184670BD2022F8E7FD
:103CF00070B504780CB1002070BD05460E46242234
:103D0000214607F0B9FFAE60F379102B0BD0202BC2
:103D100003D00C2B07D0204670BD402301242B700C
:103D2000AC70204670BD2023F8E700BF2DE9F04FAE
:103D30002DED028B8378DF0783B0054640F18D803F
:103D4000884601780E07924600F192808C0608D5CD
:103D500083685A894369C3EB42139BB29A4528BFD3
:103D60009A46BAF1000F00F0B0806A69AF6805F1B9
:103D70001003880608EE103A56464FF00009C2F3C9
:103D8000080B3DD5396A01EB5221BBF1000F51D12F
:103D9000B6F5007F4ED37A6B91424BD0B6F5806F6B
:103DA0006FD3287880064FEA562305D43879A0EBE4
:103DB0000900834228BF034691424FEA43240CD8AE
:103DC000C818824209D207F12800CDE9001303F098
:103DD000EFFADDE9001300283FD0F86A026857695E
:103DE0004246B847002838D06A69361B2244A044AE
:103DF0006A616AD02978AF688806C2F3080BC1D41B
:103E000097F8059009EA5229BBF1000F37D1B9F1B3
:103E1000000F34D1002A3ED14A064CBF3A6A2A6AC2
:103E20002A61B9797869023A8A4048441118BBF18D
:103E3000000FADD0CBF50074B4424FF0000207F193
:103E4000280028BF344603F0DFFA30B100EB0B0145
:103E50002246404603F090FEC6E76B784FF0FF30F5
:103E600043F002036B7003B0BDEC028BBDE8F08F32
:103E7000C36942699B1A9A4528BF9A4671E72A6925
:103E8000CFE7F86A036842461B6998470028E4D0E8
:103E90004FF40074A8E70B0705D5AA78540602D59D
:103EA0002A690132BCE7296918EE102A384600F069
:103EB000C1FF0028D1DB02D0AF682A69B1E72B78B7
:103EC00013F0700FC9D0AAEB060A504603B0BDEC40
:103ED000028BBDE8F08F00BF70B582B001220DF1FA
:103EE0000701044646690569FFF720FF012808BF5E
:103EF0009DF80700666118BF4FF0FF30256102B0E2
:103F000070BD00BF30B5436913F4F07F83B0044641
:103F1000C3F3431500D089B901220DF107012046F2
:103F2000FFF704FF40B201280BD163691F336361BF
:103F3000A068383000EB451003B030BD203343613A
:103F4000F6E7002003B030BD2DE9F04103780769A2
:103F50000446002B3AD00D464169A94243D0002DBA
:103F600038D018072BD5E269AA422FD3D4F808C05D
:103F7000A2789CF806000930C0B26E1E12F0400F05
:103F800026FA00F632D14A1EC240964201D30029D9
:103F900030D15B064CBFDCF82030236A236104F18A
:103FA000100807E02169A06800F044FF002806F12E
:103FB000FF360BDD4246002EF4D1A2780CE09A06C3
:103FC000D4D5A3685B89B5EB431FF6D927610020E0
:103FD000BDE8F0818278056122F02002A27065615F
:103FE0000120BDE8F0810120BDE8F081236A33445F
:103FF0002361F1E7B61AD2E72DE9F041884615466C
:104000000021242204461F469DF8186007F034FE64
:10401000D8F80800D8F82030A58000F1380205F063
:104020000F0502EB4512E360A060D17A0D0712D4B0
:1040300001F017012170D37AE67013F0180F08BF52
:1040400041F0080107F0030308BF2170012B33D0B2
:10405000022B05D0DBB100202070A070BDE8F081FC
:1040600003232178CD06F6D4CE07F4D407F0080157
:104070000B43A370958A518B41EA0541456BA561BD
:104080007D0511D509BB63F07F03A3700FE07B05AD
:10409000E1D407F0080343F00103A370416B938A56
:1040A000A161518B41EA03412162D369E3617E043E
:1040B00004D40120BDE8F0810223D2E7E169204663
:1040C000FFF742FF0028F4D1C5E700F0C5FE002845
:1040D000C1D0A378D7E700BF03780BB1FFF780BC4E
:1040E000012070472DE9F04783789C0705467BD572
:1040F00088461907914600F1BD806B6913EB0902F0
:1041000072D2B9F1000F44D04F464FF4007AA8683C
:104110002969447914EA5324C3F3080643D1002ED5
:1041200073D100297ED0AA78520603D5EA699A4253
:1041300000F28F8005F1100200F07CFE002853DBB6
:1041400000F09180A8682969837902399940436910
:104150001944B7F5007F4ED3B7F5806F66D3037966
:104160007A0A1B1B934228BF1346426B8A424FEACE
:10417000432402D35E18B2426ED3C06A0268966AC4
:104180004246B04780B36B693F1B2344A0446B6138
:10419000BDD1EA699A427DD2AA78EB6162F07F03D1
:1041A000AB70484625E08279436902399140194451
:1041B0002144002ECDD0C6F50074BC4228BF3C4639
:1041C0000122283003F020F970B1304422464146E4
:1041D000264403F0D1FCB6F5007FA868D3D128307F
:1041E00003F0E6F80028CED16B7843F001030020FD
:1041F0006B70BDE8F0876A69EB69BA45544628BF21
:104200003C469A4207D30522DBE7827943690239AB
:1042100091401944CFE7AB7813F0200F14BF05226B
:104220000122CEE7296A61B329618DE7436B8B4296
:1042300005D1002380F828304FF0FF334363C06A74
:10424000036842465B6A98470028CDD04FF400745B
:1042500099E70131296177E7002280F828204FF0A3
:10426000FF32426389E72846FFF714FC00287FF4F9
:1042700069AFB9E7C169FFF767FE00287FF43DAF7A
:10428000B2E72846FFF706FC0028ADD02969A868E8
:10429000296259E7054B1B682BB1AB7863F07F03AC
:1042A0004846AB70A5E74846A3E700BF78A30120C6
:1042B0002DE9F04F8DB08446156801931446984659
:1042C00006468946BCE80F0003AF0FC7BCE80F00E5
:1042D0000FC7DCF800303B604FF0000E43466560CE
:1042E000A4F80CE0002B3FD04FF0010AA9EB0A0123
:1042F00089B2490103A8FFF727FE50B3002103A8A4
:10430000FFF700FE074620B300250DE003F0A4F8F8
:104310008046584603F010F98346404603F00CF9F6
:10432000834516D10D2D18D0EAB23946304600F03B
:1043300001FCA389834601352046002BE6D1636842
:10434000A2689342E2D1BBFA8BF040090DB0BDE800
:10435000F08F00200DB0BDE8F08F019B0AF1010A3B
:104360005FFA8AFA5345C1D20120EFE72DE9F04FF9
:104370008DB00746164601919A4602F1150402F1E6
:1043800020050FCF0DF10C0CACE80F000FCFACE8FF
:104390000F003B68CCF800304FF0000914F8012FF3
:1043A0004FEAC91343EA590352FA83F3A5425FFA6D
:1043B00083F9F3D1336873604FF00008A6F80C80DE
:1043C000BAF1000F4BD00127019BD91B89B24901DB
:1043D00003A8FFF7B9FD002852D0002103A8FFF77A
:1043E00091FD00284CD0059A92F8283043F0010343
:1043F00082F828300F235745C3724FF000030CBFDB
:1044000047F040023A4603734FF00003027080F811
:104410000D90438300F1010B0124002506E0ABF869
:10442000000001340135E4B20BF1020BB08918B978
:104430007268B3689A4216D0304603F00DF8042D26
:10444000EBB2ECD90A2B02D8ABF80300E9E70D2C4C
:10445000ABF80500E5D10137FFB2BA45B4D201206F
:104460000DB0BDE8F08FB8F1000F06D008F10108DB
:104470005FFA88F84FF6FF70E1E74FF00108DEE7DA
:1044800000200DB0BDE8F08F2DE9F843054650F847
:10449000164BAE680B22202107F0EEFB23782E2B63
:1044A00014BF0120002003D114F8013F2E2BFBD0B4
:1044B000721EA24209D9134602E09C421A4604D059
:1044C0001A46013B11782E29F7D1A6424FF0000E73
:1044D0007CD907277146F1464FF0080823782E2B28
:1044E00025D0222B25D07C2B23D0A3F15B0CBCF153
:1044F000020F1ED9A3F12A0CBCF1050F51D9A3F16B
:104500003A0CBCF1050F5AD9A3F1210CBCF15D0F97
:1045100055D8B9422BD8A3F1610CBCF1190F46D87C
:10452000203B4EEA080EDBB25FFA8EFE05E0A242A7
:1045300031D0B9421BD800205F2301F1010C29447E
:1045400001348B755FFA8CF3062B98BF2B751946D7
:10455000B442C3D3AB7D202B10D090B11EEA090F1B
:1045600018BF4FF0020E85F815E0BDE8F8830A2F5A
:1045700001D0A24218D2AB7D202B02D10020BDE891
:10458000F8832B7D2B4401207E213122687599759B
:10459000DA75BDE8F883541C0A2708214FF010088B
:1045A000D6E72D2BB5D0C4E714460020D0E7A3F101
:1045B000410CBCF1190F98BF49EA0809BDE703F0A7
:1045C000C003802BB5D101340020C1E7F146C1E71B
:1045D0002DE9F04FDFF8B0B091F8148083B00F46AA
:1045E00004464FF0620900254FF07E0A01F11606DD
:1045F000DBF800300193019BB8F1030F2B4428BF77
:104600004FF003089DB208F10403DBB205F00F027E
:10461000F918013B092ADBB294BF30323732984592
:104620008A754FEA1515F1D107EB0803002183F8CD
:1046300016A02046FFF788FC01212046FFF762FC08
:1046400003460B223046194693B193F800C0BCF1E3
:10465000000F14D0DB7A1B07EED407F0DDFA002838
:10466000EAD109F1FF3919F0FF09C1D1484603E049
:104670006078B0FA80F0400903B0BDE8F08F012007
:1046800003B0BDE8F08F00BF90A301202DE9F04FEB
:104690002DED028B0E468BB089680393337805911C
:1046A00013F0700F029052D0029B1B78002B4ED15A
:1046B00013699246974A0C33A2FB0323C3F3870284
:1046C0009AF81530069298074FF0000318BF571C50
:1046D000194630461C46079314BFFFB20127FFF767
:1046E00033FC0AF1160308EE103AA346A146A04691
:1046F0000494756900213046C5F34F15FFF702FC9D
:1047000010B30378E52B28D03BB3BC4238BF00245C
:104710002E2B2CD0C27A0F2A2CD012F0080226D1D0
:10472000B9F1000F40F0D38018EE101A0B2207F0F9
:1047300073FA0028DDD19AF8153013F0010300F068
:10474000DD8001230493D4E77378002B3CD0002054
:104750000BB0BDEC028BBDE8F08F002C08BFA84663
:10476000BC423CBF0134E4B273B3E52BD0D14FF06F
:104770000009BEE7B9F1000F19D1069A03F01F0B2B
:104780005A45B6D113F04009B3D0437B0793914605
:10479000BBF1010FADD1691C4B4689B25246304680
:1047A000FFF786FD002808BF4FF00009A1E70BF1D5
:1047B000FF3B5FFA8BFB5B45D9D1437B079A934262
:1047C000E6D04FF0000994E7039B9A05BFD503F0AC
:1047D0000303013B012BBAD8002C08BFA846BC42FA
:1047E00003D31CE0DCB2A74219D000213046FFF70A
:1047F00089FB631C0028F5D17378002BA7D1BC423C
:104800000DD2059D05E02B7904EB0314E4B2A74219
:1048100005D93046FFF758F90028F4D197E7049BF3
:10482000002B4DD17B1EDBB208EB0305ADB2524627
:10483000294630460493FFF799FD002887D0690187
:104840003046FFF781FB002881D000213046FFF77A
:1048500059FB044600283FF47AAF2022002107F0DC
:104860000BFA0B220AF11601204603F085F99AF89B
:104870001520049B02F018022273274A1768002FA4
:1048800041D00DF123020DF1260109A8B847BDF86A
:1048900024202282BDF82620E281049B9DF823205B
:1048A0006273059991F8282042F0010281F82820CE
:1048B00000930298039B2A463146FFF79DFB47E78A
:1048C00051463046FFF784FE0028ABD13FE7BBF1ED
:1048D000010F7FF43CAF00F10A04194601E010F823
:1048E000011FD30143EA520351FA83F3A042DAB223
:1048F000F5D1079B93427FF42AAF4B46039A1105EB
:104900003FF525AFD4E745F22162228222836282FD
:10491000C7E700BF4FECC44E78A30120F0B50846AE
:104920000978202983B014461E4603D110F8013FB0
:10493000202BFBD02060037833B32A4D002712E0F0
:104940007F2B07F101073DD83C2BD9B22CD8212968
:1049500025D92239C9B225FA01F1CA0721D42E2B53
:104960000DD1037883B12F2B2FD0011D01AA02F0A6
:1049700099FDB0B1019BB3F5803FE1D302372761C8
:10498000A0600378002BEED12369013BFE2B08D8F1
:104990003060204603B0BDE8F040FFF775BD1F2929
:1049A0000ED8002003B0F0BD5C29FAD004D97C29D0
:1049B000E5D1002003B0F0BD3E390129F1D9DEE791
:1049C0002E2BCED0202BCCD0D9E72369013BFE2B58
:1049D000E7D80346184613F8012B202AFAD02F2ACD
:1049E000F8D0D5E701210005F0B583788BB000221F
:1049F00001929A0724D5016A054619B1806800F032
:104A00002BFAE8B101212846FFF79AF8C0B1421EFF
:104A100000F10A0C002412F8011FE30143EA5403D9
:104A200051FA83F39445DCB2F5D1E5270770AE68FF
:104A300000232B70AB7006F1280002F0B9FC10B90E
:104A400000200BB0F0BD06F50E7002F0B1FC00289E
:104A5000F6D0306803681B6A98470028F0D0EB78DE
:104A6000002BEED0294601A8FFF714F90028E7D063
:104A7000EB78002BE4D0012621E001A8FFF742FAF1
:104A8000731CF1B25FFA83FC9EB20028D8D0C37ABF
:104A90000F2BD5D1027802F01F038B42D0D1437B7C
:104AA000A342CDD10770A96891F8283043F00103E3
:104AB00081F8283053060DD4EB786345C0D3A9881C
:104AC000891B89B2490101A8FFF73EFA002100289D
:104AD000D3D1B5E7AC6804F1280002F069FC0028E6
:104AE000AED004F50E7002F063FC0028A8D0206858
:104AF00003681B6A9847A4E72DE9F843DDF8209086
:104B0000A2B105460C469846571801E0BC420DD0AC
:104B10002B68204649465E6AC04721460246284621
:104B20000134B0470028F1D1BDE8F8830120BDE889
:104B3000F88300BF042A04D801EB4202B2F8010056
:104B400070470A2A03D801EB4202908870470C2A6A
:104B50009ABF01EB4201C888002070472DE9F84355
:104B6000DDE90898BBB105460C4616465F1802E021
:104B7000C847BC420FD02B6821461B6932462846E5
:104B8000984703464246204631460134002BEFD178
:104B90001846BDE8F88301231846BDE8F88300BF36
:104BA0002DE9F843C379202B04460D46174653D010
:104BB000102B2AD00C2B4BD1027A8369C1F34E0102
:104BC00011FA85F1A2F102028EB2B2FA82F2C1F3B9
:104BD000462101EB0308520900F50E7952004146C7
:104BE000484602F011FC98B3C6F30806731CB3F5EF
:104BF000007F865D1ED018440378EA0746EA032347
:104C00004CBF1B09C3F30B033AE0027A8369A2F19C
:104C10000202B2FA82F2C1F307215209520019448A
:104C200000F50E7002F0F0FB90B16D0005F4FF7519
:104C3000435B25E0227AA2F10202B2FA82F2520923
:104C400008F101014846520002F0DEFB0028D3D1F2
:104C50004FF0FF30BDE8F883027A8169A2F10202C9
:104C6000B2FA82F25209520001EBD51100F50E7032
:104C700002F0CAFB0028EBD0AD0005F4FE754359E5
:104C8000E2699A4226BF3B6001200020BDE8F8831C
:104C90002DE9F843C379202B05460C46164648D02B
:104CA000102B2DD00C2B41D1C1F34E01836911FA89
:104CB00084F11FFA81F8C1F34621CF18037A00F579
:104CC0000E79022B14BF012203223946484602F016
:104CD0009BFB58B314F00104C8F308033FD0C25C37
:104CE00002F00F0242EA0612C2540133B3F5007F0C
:104CF0003AD0C6F30712184402700120BDE8F883C9
:104D0000027A8369022AC1F30721194400F50E7063
:104D100014BF0122032202F077FB034630B1640086
:104D200004F4FF7401201E53BDE8F8830020BDE8A1
:104D3000F883037A8169022B14BF0122032201EB5D
:104D4000D41100F50E7002F05FFB03460028EDD091
:104D5000A40004F4FE7401201E51BDE8F883C6547B
:104D60000133B3F5007F14D12B7A022B14BF01223B
:104D70000322791C484602F047FB0028D6D0C6F330
:104D80000712002CB8D1037823F00F0343EA121264
:104D9000B2E7C6F307121844F5E700BF2DE9F0416A
:104DA000C4688C4282B005460E4690462EBF01274D
:104DB0000C460027EB690134A34201AA284605D21C
:104DC0009FBBEC6801273C44A3422ED3A642214658
:104DD0002BD0012C29D9FFF7E3FE002825DBE9D0F1
:104DE000019B002BE6D107B1EC60EB69A3421CD319
:104DF0006FF0704221462846FFF74AFF0746A0B1F0
:104E00003EB96B6A002B01DB013B6B62C8F80040C6
:104E10000CE0012E09D0EB699E4206D831462246AD
:104E20002846FFF735FF0028EBD10027384602B0AF
:104E3000BDE8F08101290CD910B4C4698C4203D3B8
:104E40005DF8044BFFF7ACBE4FF0FF305DF8044B4C
:104E500070474FF0FF30704770B5054682B00C4682
:104E60001DE0EB699C421FD8FFF79AFE0646002E14
:104E700021464FF00002284616DBEB699C4213D80E
:104E8000FFF706FF80B16B6A002BA4BF01336B6292
:104E9000EB68621EA34288BFEA60019C2EB1012C20
:104EA000214601AA2846DCD8002002B070BD00BF10
:104EB00070B504460023012015464FF0FF322160F3
:104EC000E371E06004F12806E162C4F83C1284F862
:104ED000283084F838326263C4F84422CDB1042DFE
:104EE00001D9002070BD19461A46304602F08CFAEE
:104EF00005F18055013D00F5DF73290103EB051530
:104F00000028EED02A79002AEBD05B5C5B06E8D162
:104F1000AD6800222946304602F076FA0028E0D03B
:104F2000B0F80B30B3F5007FDBD1037C2372013B7B
:104F3000012BD6D8467B2671731E0022012E637189
:104F4000A2710ED0012213465B00DBB29E4202F139
:104F5000010105D0CAB2092AF6D10823A371C0E71E
:104F6000A271C68A26610EB9466A2661C189B0F867
:104F7000113063812944A16190F810C05B0106FBE8
:104F80000C1103F2FF1301EB53232162B0F813104D
:104F9000636101B9016AED1A6B18D3405A1CE261D2
:104FA0004FF0FF32626240F6F47293420CD94FF632
:104FB000F47293420AD9C36A23622023E371266301
:104FC000C4F84062012070BD0C23F7E71023F5E719
:104FD000884270B504461FD0806B0D4610B1FEF7B5
:104FE000BFFD60BBE06B10B1FDF7C8FA68BBAE6BEC
:104FF000A6B12146242000F09BF800230380837093
:10500000A063AD6B84460FCDACE80F000FCDACE8CC
:105010000F002B68CCF80030204670BDEB6B002BE6
:10502000FAD02146382000F083F880F831604686B7
:10503000E063E96B342202F09FFD204670BD00233F
:10504000A363AE6B002ED4D1E8E7AE6B0023E3631D
:10505000002ECED1E2E700BF10B50446806B10B140
:10506000FEF77EFD30B9E06B10B1FDF787FA20B98D
:10507000002010BD0023A36310BD0023E36310BD17
:10508000002952D02DE9F0410446806B17461E4698
:105090000D4610B1FEF764FDA0BBE06B10B1FDF74B
:1050A0006DFAB8BBD5F88084B8F1000F11D0214655
:1050B000242000F03DF83346002606808670D5F89F
:1050C0008014A0633A46FEF7DDFD58BBA063BDE83F
:1050D000F081D5F8843493B12146382000F028F8C7
:1050E00080F83180A0F83280D5F88414E06333462C
:1050F0003A46FDF743FEA8B9E063BDE8F081002021
:10510000BDE8F081D5F880840023A363B8F1000FD7
:10511000CDD1DEE7D5F880840023E363B8F1000F3A
:10512000C5D1D6E70120BDE8F0810020704700BF5F
:10513000084670472DE9F04100260446C0F888145F
:10514000C0F8806401464FF4906098461746FFF718
:10515000EFFF80F8446480F87964A0F87A64D4F8AA
:105160008814C4F8840442460546FEF7BDFB98BB8C
:1051700000262146C4F8846440F26C40FFF7D8FF53
:105180000223C671A0F8486480F84A640372D4F818
:105190008814C4F8800442460546FFF789FE30B9FA
:1051A000194B00201860C4F88004BDE8F08105F5B3
:1051B00089663046FEF7D4FC29463046FEF798FD56
:1051C0000028EDD0114B1A68AAB91D600E4BAFB183
:1051D0001C600120BDE8F08105F589663046FDF7C9
:1051E000CDF929463046FDF7D3F90028C0D0084B49
:1051F0001A68002AE9D0044B002FE9D11A68002A66
:10520000E6D00120BDE8F0812CA3012028A30120D5
:1052100024A3012070B50446002060602073A064C0
:10522000E0642046044D4FF47A76A66040F8105BA7
:10523000FFF726FF204670BDE8C200004FF0FF30A8
:10524000704700BF407B7047007C7047407C7047D0
:1052500001207047007E7047704700BF043002F0A5
:105260004DB800BF10B51C21044602F0EFFD2046EA
:1052700010BD00BF2DE9F041C37B012B35D0867BEB
:1052800004464EB1043002F03DF8B0F1FF0518BFFE
:1052900001252846BDE8F081071D384601F0C6FF0C
:1052A000207B314601F0C0FF4FF00108FF21384656
:1052B00002F048F884F80E80384602F023F8A37B09
:1052C000B0F1FF0518BF0125002BE2D0207B41463D
:1052D00001F0AAFFFF21384602F034F8384601F009
:1052E000EDFFA6732846BDE8F08100252846BDE8FD
:1052F000F08100BF2DE9F041264F82B03B68019359
:10530000019D05F516758046ADB2061D05E03B68AA
:105310000093009BEB1A1B0413D4304601F0F2FFFC
:10532000FF280446F3D1FD21304602F00BF898F82F
:105330000E30FBB9002388F80F30012002B0BDE821
:10534000F08198F80E001E2388F80D300028F5D063
:1053500098F80C00012101F067FFFF21304601F0B1
:10536000F1FF304601F0AAFF002088F80E0002B0DD
:10537000BDE8F08198F80C00012101F055FF2146AD
:10538000304601F0DFFF304601F098FF002388F837
:105390000E30CFE790A301202DE9F043234F83B0D7
:1053A0003B680093009D05F5967504468846914636
:1053B000ADB2061D05E03B680193019BEB1A1B048F
:1053C0000ED4304601F09EFFFF282074F3D0FE2853
:1053D0001BD01823A07B637338B903B0BDE8F083FA
:1053E000A07B1D2363730028F7D0207B012101F0EF
:1053F0001BFFFF21304601F0A5FF304601F05EFFA4
:105400000020A07303B0BDE8F0834A464146304611
:1054100001F086FF207438B9304601F073FF304642
:1054200001F070FF0120D8E72523D3E790A30120E6
:10543000F0B5002783B0C7733A460C21044600F04C
:1054400059F8A67BA8B91EB90126304603B0F0BDB5
:1054500005460121207B01F0E7FE201DFF21019080
:1054600001F070FF019801F029FF3046A57303B0E9
:10547000F0BD09236373002EE7D0207B251D012199
:1054800001F0D2FEFF21284601F05CFF284601F022
:1054900015FF3E463046A77303B0F0BDC27B022A1B
:1054A00003D0012A04D00120704703685B6E1847BF
:1054B000FFF7BEBF38B503680D461A6A0C498A4229
:1054C00004460CD1C27B022A04D0012A0BD02576D7
:1054D000012038BD5B6E98470028F8D138BD904751
:1054E0000028FBD0F3E7FFF7A3FF0028F6D0EEE794
:1054F0009D5400002DE9F041036884B00F460192ED
:1055000036491A6A8A42064662D1C27B022A45D0CF
:10551000012A5FD0B47B002C4BD0351D0C2F15D049
:10552000DFF8BC80D8F800300393039C04F5967430
:10553000A4B206E0D8F800300293029BE31A1B04E1
:1055400034D4284601F0DEFEFF28F3D147F04001B5
:10555000284601F0F7FE0DF1040802AC14F8011D15
:10556000284601F0EFFEA045F8D1002F0CBF952191
:105570008721284601F0E6FE284601F0C3FE0A24F2
:10558000284601F0BFFE013C10F0800F3074A4B239
:1055900001D0002CF4D104B0BDE8F0815B6E9847D7
:1055A0000028B7D1FF2004B0BDE8F081002FCDD096
:1055B000F8E7351D284601F039FE307B214601F021
:1055C00033FEFF21284601F0BDFE0123B373A5E79A
:1055D0009047E5E7FFF72CFFE2E700BF9D5400008E
:1055E00090A30120F8B500220D463A210646FFF7A8
:1055F00081FFE0B9371D2C1D384601F083FE04F809
:10560000010DA542F8D1B47B14B901242046F8BDA0
:10561000307B012101F008FEFF21384601F092FEA7
:10562000384601F04BFE0023B3732046F8BDB47B2F
:1056300012237373002CE9D0341D307B012101F05B
:10564000F3FDFF21204601F07DFE2046002401F0FD
:1056500035FEB4732046F8BD70B5164682B0002200
:105660000446FFF747FFA8B11B236373A07B08B96B
:1056700002B070BD207B251D012101F0D5FDFF2169
:10568000284601F05FFE284601F018FE0020A073B6
:1056900002B070BD0546102231462046FFF77CFE61
:1056A0000028E3D0A67B002EE2D0207B012101F070
:1056B000BBFD201DFF21019001F044FE019801F087
:1056C000FDFD3046A57302B070BD00BF00B5036894
:1056D000244ADB6C934285B00FD16A460921FFF75B
:1056E000BBFF38B19DF8003013F0C00308D0402B49
:1056F00027D0002005B05DF804FB69469847F0E725
:105700009DF809309DF80A209DF806109DF80700C5
:105710009DF808C003F003035B0043EAD2139DF831
:10572000052001F00301800040EA812002F00F0211
:1057300040EA9C101344073B0130984005B05DF8E7
:1057400004FB9DF809009DF807309DF8082003F040
:105750003F03013000EB034000EB0220800205B064
:105760005DF804FBFD5A000030B50368164D9B6DD3
:10577000AB4283B004460A4621D1407C032818BFBF
:10578000520212212046FFF7B5FE18B90120E0733E
:1057900003B030BDA07B0C2363730028F8D0207BBE
:1057A000251D012101F040FDFF21284601F0CAFD21
:1057B000284601F083FD0020A07303B030BD0191A5
:1057C0009847019ADAE700BF4D520000F8B5064647
:1057D000C07B01280D4614461F4602D173698B42D7
:1057E00005D029463046FFF7BFFF80B1756100251F
:1057F00017B90EE0AF420CD021464FF4007230468C
:10580000FFF7CAFD013504F500740028F2D100202D
:10581000F8BD7369307E3B4473610028F8D130468F
:10582000BDE8F840FFF704BE2DE9F84F9B46C37B67
:10583000DDF82890DDF82C80012B06460C46154635
:1058400002D143698B4205D021463046FFF78CFFD9
:10585000B0B1746104EB0B0ABBF1000F03D112E08D
:10586000C847A2450FD04FF4007229463046FFF7D3
:1058700093FD07464246204629460134002FEFD1CA
:105880000020BDE8F88F7369307E5B4473610028A7
:10589000F7D13046BDE8F84FFFF7CABD03682DE9E0
:1058A000F0415F69164B9F421FD1C37B012B044619
:1058B0000D46164602D14369994205D02946204635
:1058C000FFF752FF70B165614FF400723146204618
:1058D000FFF762FD30B16369207E0133636148B137
:1058E000BDE8F0810020BDE8F081BC460123BDE8A1
:1058F000F04160472046BDE8F041FFF799BD00BF89
:10590000CD57000030B50368164D9B6DAB4283B098
:1059100004460A4622D1407C032818BF52021921AE
:105920002046FFF7E7FD20B90223E373012003B00F
:1059300030BDA07B0E2363730028F8D0207B251D8B
:10594000012101F071FCFF21284601F0FBFC2846F3
:1059500001F0B4FC0020A07303B030BD0191984762
:10596000019AD9E74D5200002DE9F043036817462C
:10597000DB6C434A934287B005460E4646D102AAE5
:105980000921FFF769FE0446C4B19DF812305A069A
:105990001AD56B7C032B18BF760232464FF02001DC
:1059A000284618BF7F02FFF7A5FD28B93A462121F6
:1059B0002846FFF79FFD68B326236B73AC7B9CB929
:1059C000204607B0BDE8F0839DF8132003F03F03A5
:1059D0005B0043EAD2137A1C32431342D9D0AC7B2A
:1059E00027236B73002CEBD02C1D287B012101F0A9
:1059F0001BFCFF21204601F0A5FC204601F05EFCC7
:105A000000242046AC7307B0BDE8F08302A9984794
:105A10000446B9E7024626212846FFF76BFD002819
:105A2000CAD1DFF86080D8F800300193019F07F5F4
:105A30001C57103705F10409BFB206E0D8F8003052
:105A40000093009BFB1A1B0417D4484601F05AFC34
:105A5000FF280646F2D1AB7B002BB1D0287B012179
:105A60001C4601F0E1FB3146484601F06BFC48461C
:105A700001F024FC0023AB73A2E728236B739DE79E
:105A8000FD5A000090A3012070B5002282B00E469E
:105A90000A210446FFF72EFDA8B11B236373A07BE8
:105AA00008B902B070BD207B251D012101F0BCFBAF
:105AB000FF21284601F046FC284601F0FFFB0020AC
:105AC000A07302B070BD0546102231462046FFF794
:105AD00063FC0028E3D0A67B002EE2D0207B0121CE
