:1000000000000320D1010000F1660000A966000095
:10001000A9660000A9660000A9660000A9660000A4
:10002000A9660000A9660000A9660000F16600004C
:10003000F1660000A9660000DD800000E18000009C
:10004000F1660000F1660000F1660000F166000054
:10005000F1660000F1660000F1660000F166000044
:10006000F1660000F1660000F1660000F166000034
:10007000F1660000F1660000F1660000F166000024
:10008000F1660000F1660000F1660000F166000014
:10009000F1660000F1660000F1660000F166000004
:1000A000F1660000F1660000F1660000F1660000F4
:1000B000F1660000F1660000F1660000F1660000E4
:1000C000F1660000518F0000F166000091700000A1
:1000D000F1660000F1660000F1660000F1660000C4
:1000E000F1660000F1660000F1660000F1660000B4
:1000F000F1660000F1660000F1660000F1660000A4
:10010000AD840000C1840000D5840000E9840000B3
:10011000F166000081730000F1660000F1660000E6
:10012000F1660000F1660000F1660000F166000073
:10013000F1660000F1660000F1660000F166000063
:10014000F1660000F1660000F1660000F166000053
:10015000F1660000F1660000F1660000F166000043
:10016000F1660000F1660000F1660000F166000033
:10017000F1660000F1660000F1660000F166000023
:10018000F1660000F1660000F1660000F166000013
:10019000F1660000F1660000F1660000F166000003
:1001A000F1660000F1660000F1660000F1660000F3
:1001B000F1660000F1660000F1660000F1660000E3
:1001C000F1660000F1660000F1660000F1660000D3
:1001D0005C4B4CF2205210B51A804DF628121A8052
:1001E00000BF00BF06F088FA574B4FF030621A602C
:1001F000564A9A60564ADA60564B4FF470021A60BB
:10020000554B564A1A60564B1A78110703D51A787F
:1002100042F008021A70534B5349AA221A70534AEB
:10022000534B8B4204D252F8040F43F8040BF8E707
:10023000504B514900228B4202D243F8042BFAE77B
:100240004E494F4A002352F8230041F8230001335E
:10025000742BF8D14B4B4C4A802103F8011B93427D
:10026000FBD14A4B454A1A60494B8A221A70A3F5C2
:10027000805324225A70A0221A709A799207FCD5D2
:100280009A79D406FCD4434A937903F00C03082BE3
:10029000FAD1414B60221A7002331A78802AFCD1BD
:1002A0003C4B01221A715D225A719A799006FCD555
:1002B0009979384A4906FBD5384B394919600021EC
:1002C000596020231370937903F00C030C2BFAD19F
:1002D000344B354A1A60354A354C136813F4807331
:1002E00003D123604FF4A8531360324B324A1A6093
:1002F00000225A60072243F8042C304AC3F80C2D20
:1003000062B606F067FB2368DA0705D52C4806F0CD
:10031000CDFA2C4B2C4A1A602C4B1B785B0609D566
:10032000284C294B22689A4204D1254806F0BEFA8F
:100330000023236009F0C8FC06F0E4F908F018F97E
:10034000FEE700BF0E20054030800440823F0400DD
:100350000100002B88ED00E0002008E0030000858C
:1003600002D0074000E007401411FF1F8CAE0000D0
:100370003007FF1F1811FF1F20A001200002FF1FE0
:100380000000000000E400E064E400E008ED00E0AC
:10039000005006400040064001E007404480044011
:1003A0000000060204800440C010070010D0034083
:1003B00014D0034014E000E01FBF02000000202022
:1003C00083C207611CE00340A5C3945A00F00740B4
:1003D000FFFFFFFFFFFFFFFFFFFFFFFFFFFFFFFF2D
:1003E000FFFFFFFFFFFFFFFFFFFFFFFFFFFFFFFF1D
:1003F000FFFFFFFFFFFFFFFFFFFFFFFFFFFFFFFF0D
:10040000FFFFFFFFFFFFFFFFFFFFFFFFDEF9FFFF23
:1004100010B5054C237833B9044B13B10448AFF33E
:1004200000800123237010BD1811FF1F0000000081
:1004300088AE0000084B10B51BB108490848AFF35F
:1004400000800848036803B910BD074B002BFBD0A0
:10045000BDE81040184700BF000000001C11FF1F3E
:1004600088AE00001411FF1F000000004F4B5049E0
:100470002DE9F04100221E684E4D02E0172C08D0F5
:10048000224631F8023F95FBF3F39E4202F101044C
:10049000F4D3494B494F53F82230FA7A43F0705164
:1004A00002B372B6FC7AE507224606D5444DFA68D7
:1004B0002E683240FA612A602246A40706D5414DD3
:1004C0003C692E68FA7A34403C622C60560706D5A7
:1004D0003D4D7C692E68FA7A34407C622C601507A9
:1004E0005AD462B63A68D4688C4207D043F0F843D5
:1004F000364D374C1560D16013611460037C73B3C3
:10050000344C00F11406002501214FF0004C4FF04F
:10051000805E437C54F8333083F8001116F8018F65
:10052000C2F82CC0C2F834E0D36A002BFCDA936B1B
:1005300020F818303223427C54F83220013B82F8F4
:100540008010F8D1327830F81230C3F30C0320F861
:100550001230037C0135AB4201DD3A68D9E7FB7A02
:1005600016491A46FBB1DC0703D51B4AC96911605D
:100570001A46980703D5194B396AFA7A1960510758
:1005800003D5174B796AFA7A1960130702D5154B10
:10059000BA6A1A60BDE8F081134CBA6925682A402E
:1005A000BA6222609DE7BDE8F08100BF3407FF1FFB
:1005B0003EA900000087930304AA00006C07FF1FF8
:1005C00080E100E084E100E088E100E001403F00DC
:1005D00000003F8018AB000000E100E004E100E013
:1005E00008E100E00CE100E08CE100E0704700BFB2
:1005F000404BF0B40022404C1E68404D02E01729E9
:1006000008D00A4634F8023F95FBF3F39E4202F10C
:100610000101F4D33A4B3B4953F82230CC7A43F0F2
:1006200070550CB372B6CA7AD607144606D5364E44
:10063000CC6837683C40CC6134601446920706D5DC
:10064000324E0A693768CC7A3A400A6232606707EC
:1006500006D52F4E4A693768CC7A3A404A623260F2
:1006600026073FD462B6CC7A0A68D668AE4207D075
:1006700043F0F843274F284E1760D560136116608A
:10068000437C264D55F83330012683F80061438AB8
:100690004FF0004643F08053D6625363D36A002B79
:1006A000FCDA437C926B55F83330012283F88020CA
:1006B000B4B1E50703D51A4BCA69CC7A1A60A00712
:1006C00003D5184B0A6ACC7A1A60620703D5164B19
:1006D0004A6ACC7A1A60230702D5144B8A6A1A60D8
:1006E000F0BC7047124C8A69266832408A622260E8
:1006F000B8E700BF3407FF1F3EA90000008793033F
:1007000004AA00006C07FF1F80E100E084E100E024
:1007100088E100E001403F0000003F8018AB00008E
:1007200000E100E004E100E008E100E00CE100E0AD
:100730008CE100E0027C013A4FF400435107438210
:1007400044BF4FF410434382910744BF43F4006316
:100750004382D20748BF43F4806343F038034382A7
:10076000FFF746BF2DE9F041DFF85C800825002740
:1007700004460E460574057547822A4641461530E3
:1007800005F0BEFE2A4608EB050104F11D0005F048
:10079000B7FE2A46394604F1250009F0B7FD304678
:1007A0006674012106F09AF80121607C06F090F849
:1007B000044801F045FC2046FFF7BCFF2046BDE899
:1007C000F08100BF6C07FF1FD4A80000F8B50144FA
:1007D00048F230054B7F0344044683F825204582C8
:1007E000FFF706FF4FF42043638204F124000B213E
:1007F0000C22012610F8013F022B48D0032B3DD0DC
:10080000012B03D1658A8B402B436382023A042A71
:10081000A1F10201EED12046FFF7EAFE4FF440437A
:10082000638204F128000B210C22012610F8013FFD
:10083000022B1DD0032B12D0012B03D1658A8B40D4
:100840002B436382023A042AA1F10201EED1204631
:10085000FFF7CEFE2046BDE8F840FFF76BBF678A82
:1008600006FA02F306FA01F52B433B436382E9E7FC
:10087000638A06FA02F52B436382E3E7678A06FA86
:1008800002F306FA01F52B433B436382BEE7638A1A
:1008900006FA02F52B436382B8E700BF00207047D9
:1008A0004FF0FF30704700BF704700BF10B5044BDA
:1008B000044640F8103B03F0EFFF204610BD00BF98
:1008C000ECA8000010B5044607F0CEFD204610BD90
:1008D000836C13B1184603F073B8C06C08B101F013
:1008E00045BD4FF0FF307047826C62B1137803F062
:1008F000080303F0FF0003B3D3695069181A48BF17
:100900006FF000407047C16CC1B191F8313003F015
:10091000080303F0FF0083B1D1E90423D1E900010A
:10092000101A30B463EB010100256FF000448D42D2
:1009300008BF844200D2204630BC7047084670474A
:10094000836C13B1184603F035B9C06C08B102F0DE
:1009500063B9704700B5836C83B063B11846012258
:100960000DF1070102F05CFF01280CD19DF8070092
:1009700003B05DF804FBC06C28B101220DF1070142
:1009800001F020FCF0E74FF0FF30F1E7836C13B18A
:10099000184603F015B9C06C08B102F053BA70479D
:1009A00000B5836C83B08DF8071043B1184601225F
:1009B0000DF1070103F004F903B05DF804FBC06C0E
:1009C0000028F9D001220DF1070102F03BFA03B033
:1009D0005DF804FB70B5264C23789BB1254B1A7843
:1009E000002A2BD1244D25492A68886C0126B24063
:1009F0001E70002835D0224903F0E2F800232B6056
:100A0000002323701F4C2378BBB11F4A1F49137862
:100A1000C3F10103DBB2002021F81300012B137096
:100A20000BBF0A884A881A491A491B48520001F02C
:100A300057F907F0A1FA0023237070BD174D0F4935
:100A40002A68886C002652001E7018B1144903F001
:100A5000B7F8D3E7C86C0028D0D0114902F0F2F9FA
:100A6000CCE7C86C0028C9D0054902F0EBF9C5E70E
:100A70004C12FF1F5412FF1F3C9D0120B812002092
:100A80003C9500203C11FF1F4811FF1F7C90002067
:100A900070130020F05100200C12FF1F681300207B
:100AA000B812FF1F70B4214B1B7833B3204B1C7856
:100AB0009CB1204D204B214A2E6804F100400138A2
:100AC00003EB400002EB4602023B33F8021F22F820
:100AD000021B8342F9D134442C60194A1949136826
:100AE00009681948013301248B421360047002D154
:100AF000164B00221A7070BC70470D4B1C78002CEE
:100B0000EBD0134D0C4B134A2E6804F10040013812
:100B100003EB400002EB4602023B33F8021F22F8CF
:100B2000021B8342F9D134442C60D6E75412FF1FD4
:100B30006907FF1F6813002010130020B812FF1F61
:100B4000809000203012FF1F4C12FF1F3E13002028
:100B50003C9D01203C950020012809D005D30228A6
:100B600002D1054801F06CB87047044801F068B83C
:100B7000034801F065B800BF3411FF1F0C12FF1FBE
:100B80003812FF1F10B50C4C4121204601F022F80D
:100B90000A4B2046196801F029F82046082101F087
:100BA00019F820460649082201F09CF82046002149
:100BB000BDE8104001F00EB83812FF1F4407FF1FB8
:100BC0003807FF1FFFFFFFFF2DE9F04FAE4899B038
:100BD00000F0F8FF002847D0AB4801F031F8AB4AED
:100BE000AB4B107001221A70AA4B00224F281A70CA
:100BF00000F0298200F2A380442800F0668340F2CE
:100C0000CE80462800F01A83C0F0E4844B2800F020
:100C100092824C2842D19E4C2078FFF79DFF9E4B3C
:100C20001870002800F02685012813D19B4B986C82
:100C3000002800F09285002102F0F8FE984E994DB0
:100C400099489A499A4A0023012737702B6003601C
:100C50000B60137023780BBB0121964B9648974C81
:100C6000019300F0B7FF1CE0954800F0ABFF04468D
:100C700048B1934800F0E4FF844A854B107002228B
:100C80001A70844BB1E78C4800F09CFF002840F0BC
:100C90009F80804B1A78002A40F06985874C854BED
:100CA00001938448FFF7E2FB2378002B00F0A98032
:100CB000844E854FDFF85092DFF85082DFF850A263
:100CC000DFF850B2814B824A00252AE038784FF095
:100CD000000E88F800E0002800F0868099F80000F7
:100CE000002840F049817B4830F81500884224D81C
:100CF000012188F8001078490978002940F06D81B9
:100D0000013576490978002940F05E81002139706B
:100D10002178A94207F1010709F1010908F1010849
:100D20006FDD1BF8050036F8021F3AF810E0585D39
:100D3000714489B231800028C8D10135E8E75428D0
:100D400000F02E8313D95A2800F09E8340F20582CA
:100D5000FE2800F05781FF28A0D14D4B1B78012BB6
:100D60009CD1FFF70FFF534B544C019399E7522846
:100D700000F00D8200F2C68150288FD1444B1B78C1
:100D8000002B8BD14B4B4C48019300F059FF544B37
:100D90004A4C18700121484800F01CFF81E74128A7
:100DA00000F02983432800F0378123287FF476AFB1
:100DB000374B1D78012D7FF471AF3E4B32480193C4
:100DC00000F03EFF474A484B3C4C10701D7068E7EE
:100DD000394800F035FF454B1B78834200F04084D2
:100DE0002A4A2C4B107800E799F80000002840F0C0
:100DF000CA8032F8150088429FD301210D44397012
:100E000086E7274B1B78002B40F0F180384B1F788A
:100E1000002F00F0AB80344B1A78002A00F0EE80EF
:100E200034482322002102701970334BDFF8D09030
:100E300093F800E0BEF1000F40F0DC802F48B9F8D5
:100E4000003000F81320274900EB43000A78427075
:100E500020782B4A01334FF0000C29F81E3081F81E
:100E600000C000287FD0274B55881688DFF8A8B02F
:100E7000104ADFF888A02146013818447446013B27
:100E8000E0468E4654E000BF3812FF1F1412FF1FC9
:100E90003412FF1F651300205512FF1FB8120020E7
:100EA0003E130020809000203C9D0120681300200C
:100EB0005412FF1F101300200C12FF1F6907FF1FA1
:100EC0003411FF1F0E1300204807FF1F08130020D6
:100ED000501300205807FF1F70900020A812FF1F1A
:100EE0004107FF1F1A12FF1FB612FF1F5407FF1FF3
:100EF000641300205507FF1F4811FF1F70130020C7
:100F00007C9000201C12FF1F48130020AC12FF1F12
:100F10004412FF1F74900020F0510020B2F800C06E
:100F20002AF816C0BC468EB2834202F1020211D0EA
:100F300013F8011F0029F7D0711C002CEED0118886
:100F40002BF81510834205F10105ADB2B84602F148
:100F50000202EDD17446B8F1000F40F04D84BCF1AF
:100F6000000F40F04584964B01221A70954B1B7878
:100F700083B919B0BDE8F08F934830F81500884266
:100F8000FFF4DBAEB4E632F8150088427FF635AFE9
:100F90000135BDE68D4B8E48197800F01BFE237895
:100FA000002BE6D08B4E019F002503E0237801350E
:100FB000AB42DEDD16F8013F002BF7D037F81510F5
:100FC000834800F009FEF1E7E9B2834803920293F7
:100FD00000F000FE039A029B98E60135E9B27F48D3
:100FE0000392029300F0F6FD039A029B89E6FFF755
:100FF00059FD0BE77A4839F81E3022E7794B522227
:101000001A7012E7784C2378002B00F04D83022BE6
:101010007FF444AEFE2120E6734B1B78002B7FF457
:101020003DAE724B72496D480193082200F062FE9A
:10103000082270496948704C00F05CFE0121674845
:1010400000F0C8FD2DE6684B1D78002D7FF426AE1C
:10105000A1216248694F6A4E674C00F0BBFD694BA5
:101060005E48196800F0C2FD674B684A68496948E4
:101070003D701D70534F157008234FF47A720D7038
:10108000057019465948326023703D70FFF7AEFA7B
:10109000614807F0E9F9306808F08AFA02460B4621
:1010A00000205E4908F024FC43A3D3E9002308F0A4
:1010B000F5FA5B4BC3E9000108F0AAFD07EE100A40
:1010C000B5EEC07AF1EE10FA7FF6E9ADDFED557AB4
:1010D000B4EEE77AF1EE10FA3FF7E1ADDFED526AD8
:1010E000FEEE007AE7EE267AFCEEE77A17EE902A1B
:1010F000232A7FF6D4AD3D4B4C494748019307F076
:1011000069F9CEE5384C2078FFF726FD484B18707A
:10111000002800F0BC8201287FF4C0AD2078FFF7E2
:101120001BFD284A2378003018BF01201070002BC7
:101130007FF4B4AD90E52C4B1B78002B7FF4AEAD63
:101140002A4B3C4925480193082200F0D3FD012198
:101150002248294C00F03EFDA3E557287FF49EADC0
:10116000214B1B78002B7FF499AD284B1B78002B6B
:1011700040F04C821D4B1948019300F07DFD2E4B31
:101180001D4C18600121154800F024FD89E5164B1F
:101190001B78002B7FF482AD1C4B1C78002C00F0D8
:1011A000A28208240D4800F04BFD013CFAD12146F3
:1011B00053E500BFAFF300800000000080842E41A3
:1011C0003C11FF1F849000205807FF1F4107FF1F9D
:1011D0003411FF1F3F1300203812FF1F0C12FF1F96
:1011E000F05100205507FF1F3412FF1F101300207D
:1011F0001C12FF1F401300206907FF1F641300200B
:101200005007FF1F4407FF1F709000203E1300206F
:10121000B612FF1FA812FF1F4011FF1F0000F03F72
:101220002812FF1F8988884C00007042C90B0000FB
:101230005512FF1F081300203012FF1F7E4B1B7832
:10124000002B7FF42BAD7D4B1B78002B40F0DE8113
:101250007B487C4C00F010FD20607B4807F004F9CF
:10126000206808F0A5F902460B460020774908F0EF
:101270003FFB6FA3D3E9002308F010FA744BC3E9D6
:10128000000108F0C5FC07EE100AB5EEC07AF1EED9
:1012900010FA7FF6E1ACDFED6F7AB4EEE77AF1EEAB
:1012A00010FA3FF7D9ACDFED6C6AFEEE007AE7EE9C
:1012B000267AFCEEE77A17EE902A232A7FF6CCAC4A
:1012C0006649614807F086F8C6E45B4B1B78002B43
:1012D0007FF4E4AC6249594A097813700029FDD1C2
:1012E000604FB86C002800F0278202F09FFBDFF807
:1012F00094815D4CD8F8005026786B0006FB03F310
:10130000B3F5006F40F2EB81284608F051F98246B0
:1013100030468B4608F04CF902460B46504659467B
:1013200008F0BCF902460B4608F006F800224FF020
:101330007D5308F0B3F941EC100B07F061FF51EC5D
:10134000100B08F045FC494E306029463C4800F03F
:101350004DFC3368002B00F06681DFF80891002512
:101360000CE002F05DFA4FF400624149344800F0AD
:10137000B7FC336801359D4280F05481BB6C3C4919
:101380004FF400621846002BEBD1D9F84C303849A5
:101390004FF400621846002BE5D000F013FFE2E79F
:1013A000254B1B78002B7FF479AC324E06F11005EB
:1013B0003446234800F046FC24F8020FAC42F8D132
:1013C0002D4C04F1100725461D4800F03BFC25F884
:1013D000020FBD42F8D1294B0125002034F8021F2D
:1013E00036F8022F914234BF18701D70BC4203F1D1
:1013F0000103F3D130E4104B1D78002D7FF44EAC87
:101400000E4B0F481B78184C002B40F05E811C4B94
:10141000019300F015FC0346014619482370FFF7BD
:10142000E5F80121064800F0D5FB3AE4AFF300806F
:101430000000000080842E413412FF1F3E13002064
:101440000C12FF1F5007FF1F4011FF1F0000F03F4D
:101450002812FF1F8988884C00007042C90B0000C9
:101460004C12FF1FB81200206907FF1F4012FF1F18
:101470003C9501205607FF1F4E1300204813002003
:101480001013002080900020BB4B1B78002B7FF4B2
:1014900005ACBA4B1D78002D7FF400ACB84BDFF8DB
:1014A0004893DFF84883DFF8F4A2B64F01932E4645
:1014B0009B46EAB20021B248FFF788F96424C9F8D4
:1014C0000060AF48FEF7D2FFD9F80030BBF800202B
:1014D000013C1344C9F80030F3D1A7FB03235B0997
:1014E000C3F57F630F331BB22AF815300135032D86
:1014F000A8F80030DDD1DFF8ECB2A1489BF800205D
:101500002146FFF763F9A04803F0C6F99F4BD3F8D3
:101510008014002900F0F88004AD284601239C4A7D
:101520008DF810408DF811408DF8124002F06AF9E4
:1015300010B1284602F0A2FD964E954A9349964F67
:10154000964CDFF85C9240F20223284603F08EFAB4
:101550009DF81410069A9DF81C303171B26008A9EC
:10156000337306F1100003F0ABF908A8049703F0F9
:1015700093F9B24604F10608B36C34F9022BA9F8CA
:101580000020874902221846002B00F0938002F0C9
:1015900017FB4445F0D18348834C03F07DF928467E
:1015A00040F20223814A794903F060FA804B9DF8AA
:1015B000140006999DF81C201871996003F1100021
:1015C00008A91A7303F07CF908A8049703F064F9DA
:1015D000FFF767BB684C2078FFF7BEFA754B1870B1
:1015E00000284BD0012807D12078FFF7B5FA724BBD
:1015F000003018BF01201870704B012103F1080260
:1016000003F8011F9342FBD1FFF724BB5C4B6C48EE
:10161000019300F031FB00216948634C00F0DAFAD5
:10162000FFF73FBB9B02D8F800202178654D02FBF5
:1016300001F2D31A5A002A60002A3FF430ABB86C8A
:101640005B4B002800F081805F4902F0E9F84C4BC9
:101650002A685D495A48019300F042FBFFF721BB1D
:10166000574800F0EDFA444B584A1C701070584B24
:10167000FFF7BBBA414B1870FFF7ECBA2078FFF7C1
:101680006BFA544B003018BF01201870B4E73C4B84
:1016900020780193FFF760FA4F4B434C003018BF9E
:1016A00001201870FFF7FDBA01464C4800F092FA8D
:1016B0002378ACE4DAF84C30394902221846002B82
:1016C0003FF467AF01F0BEFB63E72D4B019300F0E1
:1016D000B7FA29463A4800F07DFAFFF7E2BA404EE1
:1016E0000023336031E63F49354808224D1E00F0A3
:1016F00001FBE1B215F8012F21480134FFF766F82C
:10170000082CF6D1FFF7A8BAD3F8841404AD002949
:101710003FF412AF284601231D4A8DF841408DF851
:1017200042408DF8434001F01BF900283FF404AF1C
:10173000284601F063F9FFE6F86C00283FF4D7ADC6
:101740000022002300F02AFED1E5D86C00283FF4E7
:101750007EAF1D4900F036FD79E7D86C00283FF4D4
:101760006DAA0022002300F019FEFFF767BA174A9E
:101770001078FFF73ABA00BF3412FF1F3E13002063
:10178000101300201F85EB51C81200208890002004
:101790002CA900005812FF1FECA800004412FF1FE4
:1017A0001812FF1F6812FF1F6907FF1F34A90000EE
:1017B000B81200205512FF1FA812FF1F4707FF1F76
:1017C0000C12FF1F6C1300203C9501201412FF1F08
:1017D0006513002070900020641300203411FF1F57
:1017E0004012FF1F749000205012FF1FB412FF1F01
:1017F000A9F80060FFF7B7BBA9F80250FFF7AFBB2D
:101800002DE9F0412D4B2E4DDFF8FCE02D482E4AFE
:10181000C3F8A4E4002401272926C3F89004C3F8E0
:101820009C2483F8AD742A4683F8AF64C3F88044DF
:10183000C3F8844483F8984483F8994483F8B24405
:1018400018462249224FDFF8C480224E07F068FD77
:1018500027212148FEF786FF2049214800F0B0F9F2
:101860002049214800F0ACF92049214800F0A8F9AE
:101870002048214B046080212A4601711F491F60C6
:1018800007F04EFD1E4B4FF47A772A4641461C71F5
:101890001C739C64DC649F6018461E6007F040FD6A
:1018A000184B1C711C732A4641469F609C64DC6483
:1018B0001E601846BDE8F04107F032BD8890002058
:1018C0003007FF1FC8AA000070AA0000A908000086
:1018D0000000013C10A90000101300200808FF1FA1
:1018E0000C12FF1FE007FF1F3812FF1FCC07FF1F5E
:1018F0003411FF1F4011FF1F60130020C5080000B6
:10190000B81200205812FF1F03200038AD08000055
:101910002DE9F04F944D954C287895B0012104F0B5
:10192000DDFF2878012104F0D3FFC021904805F0A5
:1019300047FC9049904806F0DBFB8E498F4806F043
:101940008FFC04F592658E4800F07AFB28464FF034
:10195000000104F04BF92846C4F88C5403F0EEFC67
:1019600020B9D4F88C14204603F01CF8D4F8806415
:101970007E4B002E7ED0002731463B466846814A8A
:101980008DF800706D468DF801708DF8027001F0D1
:1019900039FF002840F08180D4F88044DFF81C92A1
:1019A000724B04AE002C00F0B580214601230024C8
:1019B000754A8DF8004028468DF801408DF80240A8
:1019C00001F020FF002851D1284640F202236E4A40
:1019D000664903F04BF86D4B9DF80C209DF8041000
:1019E000029C1A73197103F1100031469C6002F0D9
:1019F00067FF3046CDF8009002F04EFF644B186848
:101A000007F0D6FD02460B460020624907F070FF42
:101A100053A3D3E9002307F041FE5F4BC3E9000164
:101A200008F0F6F807EE900AF5EEC07AF1EE10FA3B
:101A300006D99FED5A7AF4EEC77AF1EE10FA02DD7C
:101A400015B0BDE8F08FDFED566ABEEE007AA7EE66
:101A5000A67AFCEEC77A17EE902A232AF0D95149CC
:101A6000514806F0B7FC15B0BDE8F08F284602F0EB
:101A700005FBA9E7D3F884146D4600296BD03346E3
:101A80006846404A8DF831608DF832608DF83360D9
:101A900000F066FF00283FF47FAFDFF81C81394A71
:101AA0003249DFF81891414FDFF804B140F20223C8
:101AB000284602F0DBFF04AE9DF80410029A9DF860
:101AC0000C3088F8041008F110003146C8F80820DE
:101AD00088F80C3002F0F4FE3046CDF8009002F0A9
:101AE000DBFE07F1060AD8F84830314902221846D1
:101AF0003BB301F095FEBBF8003027F8023BBA4536
:101B0000F1D12C4802F0C8FED4F88044174B002CC9
:101B10007FF44BAFD3F8841400293FF455AF012371
:101B2000194A8DF8314028468DF832408DF83340FF
:101B300000F016FF00283FF447AF284600F05EFF94
:101B400042E71D4B1A49DB6C02221846002BD2D00B
:101B500000F038FBCFE704AEDFF8609034E700BF59
:101B60000000000080842E416807FF1F889000203D
:101B70004C11FF1FF4061400CC07FF1FE007FF1FE6
:101B80006C07FF1F2CA9000034A90000B812002028
:101B90005007FF1F0000F03F2812FF1F8988884C64
:101BA00000007042C90B00004011FF1F4412FF1FCC
:101BB0001812FF1F6812FF1F5812FF1FECA8000029
:101BC00001607047006803681B6918470068036874
:101BD0001B681847FFF7FABF0346818053F8040BD0
:101BE0000268194653680222184700BF70B50546BF
:101BF000006803680C461B68C9B2984728680368E8
:101C0000C4F307211B68984728680368C4F3074199
:101C10001B68984728680368210E1B68BDE8704060
:101C2000184700BF10B50446206803681B69984731
:101C30000028F9D0206803685B699847C0B210BDDE
:101C4000FFF7F0BF10B50446206803681B6998478A
:101C50000028F9D0206803685B69984720712068E4
:101C600003681B6998470028F9D0206803685B69FE
:101C700098476071A08810BD10B5044620680368BD
:101C80001B6998470028F9D0206803685B6998476A
:101C90002071206803681B6998470028F9D02068E4
:101CA00003685B6998476071206803681B699847FF
:101CB0000028F9D0206803685B699847A071206804
:101CC00003681B6998470028F9D0206803685B699E
:101CD0009847E071606810BD006803685B6818474A
:101CE000FFF7FABF006803685B681847006806F0F2
:101CF00025BC00BFFFF7FABF10B4047F4160022C7F
:101D0000C26003D05DF8044B06F086B983685DF8C5
:101D1000044B18472DE9F0410468E56815F0807F11
:101D2000794D256052D1DF0740F1B380002900F0E2
:101D3000E3800D78012B18BF45F000456563013144
:101D400090F82C8003F1FF3C48EA0828BCF1000F12
:101D500000F0A88021B14D7811F8028B45EA0828DF
:101D600045682E7ABCF1020F06F1FF364FEA0636BF
:101D70000CBF48F0805548F01045B6B26563ACF131
:101D8000020C08E00AB114700132013B05F4704501
:101D9000B54216D90468E56A15F0F00FF6D0A46BC9
:101DA00013F0010F17464FEA242EEBD11AB107F8B2
:101DB00002EB54703A4605F47045B542A3F10203B4
:101DC000E8D8BCF1000F6DD00468C3E7DD074CD53F
:101DD000002900F089800D78012B18BF45F00045DF
:101DE0006563013103F1FF3E90F82CC0BEF1000F96
:101DF00041D029B191F801C00D78023145EA0C2C8F
:101E000045682E7ABEF1020F06F1FF364FEA06361C
:101E10000CBF4CF080554CF01045B6B26563AEF186
:101E2000020E08E00AB114700132013B05F470455E
:101E3000B54215D90468E56A15F0F00FF6D013F035
:101E4000010F1746A46BEDD122B107F8024B241203
:101E500054703A4605F47045B542A3F10203E9D83F
:101E6000BEF1000F07D00468C3E79E4690F82CC06F
:101E7000BEF1000FBDD11BB30468E16A11F0F00F91
:101E8000FBD0A16BDC071DD50AB111700132013BFB
:101E9000F1E790F82C809C4648EA0828BCF1000F36
:101EA0007FF458AF63B10468E16A11F0F00FFBD022
:101EB000DE07A16B0FD50AB111700132013BF1E7CA
:101EC000BDE8F0812AB114460D1204F8021B5570CA
:101ED0002246023BCFE72AB114460D1204F8025BFA
:101EE00051702246023BDDE790F82C50012B18BFC1
:101EF00045F00045656375E790F82C50012B18BF3D
:101F000045F0004565631BE700041F80F0B4464BB5
:101F1000464A986B5C6B01791170454922790A70C9
:101F20001A6B00790870002A46D05968C9688A423D
:101F30003ED82168CC8B240402F1FF3065D4C0F375
:101F40000E00C883C88B80B2C882996B0968C88BA1
:101F5000000452D4C2F30E00C883C88B002480B2A0
:101F600012F1FF32C88218BF01221C63596B2E4840
:101F700009680D6800F12C04A54236D00068C468D9
:101F800014F0804F0C680D6815BF24882478023542
:101F9000013544F000440D604463996B254B097989
:101FA0001970214912B14A6B12791A70F0BC70474E
:101FB000521A1A630122D9E7D86B196805681E4CBA
:101FC0000A63CC62CC682D681C4E24F08044032741
:101FD000B542CC6083F82D701FD1037F4260022B85
:101FE000C2601ED0F0BC06F017B8016890F82C0053
:101FF000CC6840F000404863CFE7CC8BC2F30800C8
:1020000004F47E442043C883A7E7CC8BC0F30800C8
:1020100004F47E442043C88394E72B461146F0BC69
:1020200018478368F0BC18476C07FF1F1F800040EB
:102030001C8000401B80004000000FFFF91C0000C6
:1020400090E80C00F0B41C6859682568164F174ECC
:1020500029432160164D17491760D660156111603C
:10206000417A154A5C180C3194F82C4053F82150F1
:1020700002EBC40149680D60017A5C1803EB810131
:10208000247ECD6902EBC40149680D60817A58183D
:1020900003EB810390F84000596C02EBC002F0BCE6
:1020A00053681960704700BF01401F0001100038DD
:1020B0000110007800001F8018AB00000BB1FFF783
:1020C00029BE704710B5044600F0A6FD002384F831
:1020D000313084F8333010BD90F831200AB100203F
:1020E000704738B504460D461146382208F00EF9FF
:1020F0004023012084F8313084F83300256238BD54
:10210000F0B50878202803D111F8010F2028FBD062
:1021100051600878002851D02F282BD05C2820D07F
:10212000A0F12204E4B21D2C1DD9DFF894E04E1C6E
:1021300000247C28A0F12005374612D05E2D10D84F
:1021400016F8010BA0F12205EDB2013478B32F2867
:1021500011D05C282EFA05F703D01D2DE9D8FD0714
:10216000E7D50020F0BD164D25FA04F4E607DCD5CE
:102170000020F0BD00240F193E4625462F2002E026
:1021800016F8010F01352028FAD02F28F8D029445D
:10219000196044B1394611F8013D2E2B01D0202B96
:1021A00008D1013CF7D1204610600120F0BD1F602E
:1021B0000F19EFE7FF2CF6DD0020F0BD1960F3E703
:1021C000010100352DE9F04F90F83330DE0783B080
:1021D00004465AD55D060E46934640F1B880D4E9D0
:1021E0000001D4E9042310EB0B0841F100094B4531
:1021F00008BF4245C0F0B180BBF1000F6ED0A146D0
:10220000F9E806015D46276AD7F838340340C3F37E
:10221000080A002B68D150EA010275D194F83120E8
:1022200051064CBFD7F83424E269A261D7F82C04D8
:1022300097F845E45B0A023A191802FA0EF21144C3
:10224000BAF1000F2CD1B5F5007F29D3D7F81C22A5
:10225000914225D0B5F5806F5DD34FF0010808FAA3
:102260000EF8C3EB08034FEA5528984528BF984657
:1022700091423BD808EB01039A4237D207F504702C
:10228000019104F035F9019980BB94F832304FF098
:10229000FF3043F0020384F8323003B0BDE8F08F22
:1022A00007F50470002204F0F3F80028EDD0CAF519
:1022B0000078A84528BFA84600EB0A0142463046F0
:1022C00004F01EF942460023D4E900018018594168
:1022D000B5EB08054644C4E9000194D10025C5EBDF
:1022E0000B0003B0BDE8F08FA2699FE7D7F8140296
:1022F000036832461F694346B8470028C5D04FEAF5
:10230000482842460023DFE794F83320520610D5D0
:10231000A269013289E7D7F8140203683246DB6804
:1023200098470028B1D04FF4007200234FF4007892
:10233000CAE738464A46A169019300F0F7FF40B268
:102340000028A2DB0CD0276AA269019B6EE790F8F7
:10235000313018073FF543AF4EE7C0EB020B4BE7B8
:1023600094F8313013F0500FB9D18EE7F0B583B047
:1023700001220DF107010446D0E900678569FFF7E6
:1023800021FF012808BF9DF80700A56118BF4FF085
:10239000FF30C4E9006703B0F0BD00BF2DE9F04F86
:1023A00090F831E0856983B00446BEF1000F1BD080
:1023B000D0E90001994208BF904216461F463BD023
:1023C00056EA070307D10023A3610120C4E900678F
:1023D00003B0BDE8F08F1EF0080F0AD0D4E9042343
:1023E000BB4208BFB24204D2A561002003B0BDE8E1
:1023F000F08F236A019393F845C494F833A00CF14D
:10240000090C5FFA8CFC16F1FF3247F1FF33CCF177
:10241000200803FA08FB22FA0CF242EA0B02ACF1A4
:10242000200B23FA0BF31AF0400F42EA030205D007
:10243000E3691A44A261C8E70120D7E710F1FF3928
:1024400041F1FF3A29FA0CFC0AFA08F84CEA080CA8
:102450002AFA0BFB4CEA0B0C6245534617D21EF0CE
:10246000400F16BF019BE369D3F83434A361904653
:1024700004F118094A46B8F1000FA6D0A169206AF4
:1024800000F054FF08F1FF380028F3D1ACE750EA20
:102490000103E4D0CCEB0202E9E700BF2DE9F04FE5
:1024A0000E4693B090F831100092054629B99A462D
:1024B00096F8313013F0500F07D1002085F8310025
:1024C00085F8330013B0BDE8F08F1C9B03F00303C5
:1024D000012B06D0022B00F00981002BEDD1012346
:1024E00000E002231C9A02F0080213430193009BB0
:1024F000002B00F0FD8018460022514601F01AF82A
:1025000096F8313002904BB1D6E90023134305D041
:1025100000220023C6E900230021B161B84A0AF174
:102520000E0382FB03121A44DB17C3EBE203DBB298
:102530004FF00009039302335FFA83FB4C464F468A
:1025400020220AA93046FFF73DFE00283DD0202872
:10255000B3D19DF828301A0666D4002C61D13268B8
:10256000B1690791203A08920134E4B26BB3C02BF1
:1025700000F09380C12B62D0852BE1D1382200215D
:10258000284607F0C3FE9DF82C309DF8292085F8D9
:102590003020D80603F0370258BF42F0080285F811
:1025A00031203368316AB2696A62203B2962AB62CA
:1025B00096F83330C3F3801385F82C3020220AA913
:1025C0003046FFF7FFFD0028C1D11C9B99057FF520
:1025D00074AF019B9A077FF570AF009B002B3FF40F
:1025E0006CAF5C450CD386E020287FF466AF24B93D
:1025F0003268B1690791203A0892DCB2A3457AD9D2
:1026000020220AA93046FFF7DDFD631C0028EBD12C
:102610003046B76900F030FB00283FF44EAFB76199
:10262000ECE75C45A2D29FE7B9F1000F9FD15C4572
:1026300038BF0024852B83D14FF001099EE7C7EBFB
:102640000A085FFA88F8B8F10F0F28BF4FF00F089B
:1026500043463A4600990AA800F040FF00283CD0C3
:102660004744FFB2BA457FF46BAF1C9B1B053FF597
:1026700024AF1C9B13F4884F40F0A08095F83330B2
:102680009F0700F19B801C9B5B053FF516AF1C9BD1
:10269000580400F1B780012014E79DF82930019A11
:1026A00085F83320990703D542F0400385F833308D
:1026B000DDE90C23DDE91001C5E904230F9BEB6183
:1026C000009BC5E90201002BCFD09DF82B3053456C
:1026D00005D04FF000094F4632E7814630E7BDF89C
:1026E0002C30029A9342F4D1002729E70323F9E61C
:1026F000009B029312E796F833303822C3F380131D
:10270000002128460DF11C088DF8243007F0FEFD4D
:10271000039C336ACDF80CA098E8070004F1010986
:10272000082485F831400AF11E0705F12404DDF87C
:1027300000A02B625FFA89F984E80700FFB2002647
:1027400018460122414600F0ABFD044600283FF444
:10275000B4AE90F90030002BFFF6AFAE202200217E
:1027600007F0D4FD002E66D0012E54D0C6EB061320
:102770000F2FA3F11E034FF0C102394628BF0F21CE
:10278000DBB2227051B1023409B204EB410153446F
:1027900013F8012B24F8022BA142F9D10136F6B22D
:1027A000B34529D920224146286A00F093FD01282B
:1027B0007FF483AE0F3FFFB2286AC2E795F831304D
:1027C00013F0110F7FF479AE1C9B5E057FF55FAFB0
:1027D00095F833309C077FF570AE00220023284621
:1027E000FFF7DCFD00283FF468AE284600F0B8FA99
:1027F00000283FF462AE4EE7284600F00DFA61E68D
:1028000089888888D5E904232846FFF7C7FD002872
:102810007FF441AF51E6C0232370019B032263F094
:102820003F03627085F833309DF80C30E370BDF8DB
:102830000830A380B2E7852323700E4B85F83090D3
:1028400084F801901B687BB10DF117020DF11A019C
:1028500006A89847BDF81810BDF81A209DF8173043
:1028600061812281237599E745F221236381E38108
:10287000638293E7989D01202DE9F041044694B0CE
:1028800094F83150039200208DF849008DF84A00E9
:102890008DF84B0035B9984691F8313013F0500F50
:1028A0000F4603D1002014B0BDE8F08113782F2B20
:1028B000154626D000261AE0039B1B782046002BE5
:1028C00034D0059A9DF810300096FFF7E7FD3422CA
:1028D00021460028E6D006A803F012FE204600F0AC
:1028E0009BF9039D84F8316084F8336006AF294674
:1028F00003AB04AA2046FFF703FC39460028DBD1CE
:10290000D0E70135039529782F29FAD0D1B13822A3
:1029100006A800213E6A07F0F9FC4022012306AF19
:102920000E968DF849208DF84B30C3E79DF8103096
:10293000059ACDF8008039462046FFF7AFFD14B068
:10294000BDE8F081382220463D6A07F0DFFC4023D5
:102950000120256284F8313084F83300A3E700BFFA
:1029600019B101F58961FFF787BF0846704700BFBD
:102970008169F8B50446006A01B10131012200F015
:10298000C3FB012806462FD9012301461A46206AB7
:1029900000F014FC074638B3A06994F8333030B324
:1029A0005A0613D5421C964225D023F0400284F8E3
:1029B0003320E36905E0206A00F0C2FCA0B1A06901
:1029C0002B465D1C834219462A46F4D34FF0FF3252
:1029D0003146206A00F0B4FC30B1A16959B13246E9
:1029E000206A00F0ADFC30B900273846F8BD43F04E
:1029F000400384F83330A6613846F8BD2DE9F04332
:102A000000F12403054693E8070085B095F83330BC
:102A100001AE86E807009A071BD5E969E9B90024E9
:102A200001223146286A00F03BFC0134E4B280B157
:102A3000037803F07F03037095F83030A34231D35D
:102A4000002CEDD020223146286A00F043FC0128FA
:102A5000E6D0002005B0BDE8F0835B06286A1CD5EF
:102A6000D5E9022390F845440934E4B212F1FF3865
:102A700043F1FF39C4F1200709FA07F728FA04F2F5
:102A8000A4F1200329FA03F33A431A430132002345
:102A900000F094FB0028C2D1DBE700F063FC0028C3
:102AA000BDD1D6E72C6A0023204685F8313085F861
:102AB000333003F01DFD0028CBD004F5047003F083
:102AC00017FD0028C5D0D4F8400403689B699847D7
:102AD000C0E700BF2DE9F04F00F1240B06469BE84C
:102AE000070087B00DF10C0888E807000027BA46F8
:102AF0003C4600224146306A00F0D2FB5FFA87F97B
:102B0000054630B10378C02B51D0C12B4DD0852B59
:102B100009D096F8323043F0010386F832300020B5
:102B200007B0BDE8F08F3B4B96F831201B6890F85A
:102B300001A002F03702828083B10DF107020DF18E
:102B40000A0102A89847BDF80A20BDF808309DF890
:102B500007106975AA812A82EB816B82326A92F82A
:102B6000103243F0010382F81032287800216A5CA9
:102B7000E30343EA540412FA84F40129A4B201F1F4
:102B800001010DD01F29F2D9CA4526D02022414685
:102B9000306A00F09FFB012807F10107A9D0B8E7D0
:102BA00085280CBF04210221E1E71846DEE796F8EC
:102BB000333013F0400F437814BF43F0020323F087
:102BC00002034370D6E90423C0E90223D6E90223B5
:102BD000F1694161C0E90623C0E759460122306A24
:102BE00000F05EFB002894D0356A4480284603F04C
:102BF0007FFC00288DD005F5047003F079FC0028D7
:102C000087D0D5F8400403689B699847002880D096
:102C100086E700BF989D012090F8312092B138B529
:102C200090F8332011060FD4056A0446284603F0B5
:102C30005FFC88B994F8323043F0010384F83230F5
:102C4000002038BD0120704702F07F0280F8332059
:102C5000BDE83840FFF73EBF05F5047003F048FCBF
:102C60000028E7D0D5F8400403689B6998470028FE
:102C7000E0D0012038BD00BF2DE9F04190F831309F
:102C80005906044660D48068236AD3F83C3418445B
:102C9000B0F1806F02D30020BDE8F0812046FFF73D
:102CA00067FE0028F7D0266A96F81032DA074FD46C
:102CB0004FF0FF33002506F50878C6F81C3286F879
:102CC000105229464FF40072404607F01FFB226A5B
:102CD000A36992F84504D2F82C14023B83400126E4
:102CE0005F1816FA00F310D0D2F84004036879197F
:102CF000DB694246984701350028CCD0226A92F819
:102D0000453406FA03F3AB42EED894F831305B0653
:102D100015D494F8333063F07F0384F83330D2F85D
:102D20003C64D4E90223D4E9040192194FF000076E
:102D30007B4180197941C4E90223C4E9040120469A
:102D4000BDE8F041FFF768BF006A00F0BBFB9BE7FE
:102D500006F5047003F0CCFB0028A9D19BE700BF67
:102D600090F833309A0718D5F0B5C56983B08DB1A6
:102D700003F04003044603F0FF0083B9A169002972
:102D800041D10195E1612946206A00F0EBFA30BBA0
:102D9000002000E0012003B0F0BD00207047206A51
:102DA000A16990F84534D4E902670933DBB216F122
:102DB000FF36C3F1200E47F1FF3726FA03F207FA78
:102DC0000EFE203B42EA0E0227FA03F31A430132B9
:102DD000B1B1013D6D1A01312A4401910ABBD4E918
:102DE000000194F8333063F07F03C4E90201C4E9C1
:102DF000040184F833302046FFF70EFF03B0F0BD26
:102E00000195E161EAE702AA42F8040D206A00F0A8
:102E10008DFA40B20028BBDB0AD1019D002DDED027
:102E2000B1E70023019900F0C9F90028D7D1AFE735
:102E30004FF0FF32A169206A00F082FA0028ECD13D
:102E4000A6E700BF2DE9F04F90F8333083B09D071F
:102E5000044600920AD494F8323043F0010384F817
:102E600032304FF0FF3003B0BDE8F08F1A078946CB
:102E700000F10181009B002B00F011812146F1E857
:102E80000623DDF8008001914FF0010BCA46206A4D
:102E9000D0F838541540C5F3080945BBA16900298D
:102EA00000F0AE8094F833305B0640F1CD80D4E979
:102EB000026790F84524E3690932D2B216F1FF3671
:102EC00047F1FF37C2F1200ED64007FA0EFE203A36
:102ED00046EA0E0627FA02F2164333449942C0F03E
:102EE000A6802046FFF744FD0028B4D0206AA669DA
:102EF000D0F82C7490F845E46D0A023EE91906FA00
:102F00000EF63144B9F1000F73D1B8F5007F4DD200
:102F1000D4E90423D4E90067B8F5007F454628BF0B
:102F20004FF400759F4208BF964234BF012205222C
:102F300000F5047003F0ACFA00288CD048442A460F
:102F40005146A94403F0DCFAB9F5007F00F08A800D
:102F500028460021D4E90023D4E9046712184B4124
:102F60009F4208BF9642AA44C5EB0808C4E9002363
:102F700007D294F83310C4E9042361F07F0184F888
:102F80003310B8F1000F82D1D4E90201994208BF91
:102F9000904278D3434B1B68002B7ED094F833309B
:102FA000009863F07F0384F833305CE7B8F5806FF6
:102FB0002AD30BFA0EF35D1BD0F81C224FEA5823DC
:102FC000AB4228BF2B4691424FEA432508D8CE1882
:102FD000B24205D24FF0FF3280F81092C0F81C22A6
:102FE000D0F8140206685246366AB0470028AFD1BE
:102FF00031E7C9F50075454528BF4546012297E7E9
:10300000E669BEB1A66173E7D0F81C32994222D0BE
:10301000D0F8140203685246DB69984700283FF451
:103020001AAF4FF4007000214FF4007592E74E1C68
:10303000A6615DE72046FFF79BFC00283FF40BAF3D
:10304000A669E661206A53E7019A00F06FF900284B
:103050007FF44CAF45E74FF0FF3380F81092C0F893
:103060001C32D5E7206A00F5047003F041FA00280D
:103070007FF46EAFEFE6D0E90423FFF78FF9002865
:103080003FF4E9AEF6E694F83310009861F07F0162
:10309000C4E9022384F83310E5E60098E3E6D4E9B6
:1030A000002371E7989D012038B50C46D0F8241410
:1030B000154601EBD41100F50470002203F0E8F985
:1030C00040B1A400C4F3080403595A1C04D02B6077
:1030D000012038BDFF2038BD002038BD38B50C4672
:1030E000D0F82414154601EBD41100F50470012228
:1030F00003F0CEF9034628B1A400C4F3080401206C
:103100001D5138BD38BD00BF2DE9F84F80469146AE
:103110008B46002944D08F1ED8F830349F423BD2D2
:1031200007F00705012303FA05F5EDB2C7F3C80A56
:103130003E463C46D8F82C14002201EB14314046A0
:1031400003F0A6F9C0B110F80A100AE04A452AD0E7
:10315000A74210D0D8F83024944217D213F0FF05BC
:103160000CD001340D424FEA4503A4EB0602EDD02A
:10317000A7422646EED10120BDE8F88F0AF1010AE8
:10318000BAF5007F4FF00105DDD101E0002634469D
:103190004FF0000A0125CDE70027BA460125C7E711
:1031A000D0F82074B8E7BBF1000F04D1B9F1010FDA
:1031B00008BFC8F82064B01CBDE8F88F2DE9F047BF
:1031C00002398046D0F8300415468A18824238D831
:1031D0009A46D8F82034BAF1000F35D1994238BF59
:1031E000C8F8201401F007040122D8F82C3402FAA0
:1031F00004F4E4B203EB1139C1F3C80601224946D5
:103200004046914403F044F9D8B1871900F50070A5
:1032100017F8012B224214BF01260026564582EAE8
:1032200004024FEA44040CD0013D07F8012C15D0EC
:1032300014F0FF04EED1B84226464FF00104E7D166
:10324000DCE70020BDE8F0879942CBD89A42C9D983
:10325000824228BF0022C8F82024C3E70120BDE82D
:10326000F08700BF70B582B002AE054646F8041D77
:103270000024D5F8303401990133994202D9002055
:1032800002B070BD32462846FFF70EFF40B200285C
:10329000F5DB04F10104ECD1204602B070BD00BFA3
:1032A000F8B50E4696E82800D0F83814D0F82C442B
:1032B00090F845742940023B04EB5121BB4019446E
:1032C00000F5047003F0E4F818B17368C3F3080361
:1032D0001844F8BD70B54C680D46A318D0F83814E2
:1032E0006B6090F845340C4009332244DBB222FA7B
:1032F00003F406463CB12B7A3BB12B6801332B60BB
:10330000013C002CF7D1012070BDD6F8303429687B
:103310000133994202D94FF0FF3070BD2A46304642
:10332000FFF7C2FE40B20128EAD070BDD0F83034B9
:1033300001338B4201D2FF207047FFF7B5BE00BFBB
:1033400001290DD9D0F830340133994210B403D992
:1033500000205DF8044B70475DF8044BFFF7BEBEDC
:1033600000207047F0B50C4683B005460E46D5F8F0
:10337000303401339C4202D9002003B0F0BD01AAD1
:1033800021462846FFF790FE47B2002FF4DB012CC0
:10339000F2D9D5F8303401339C42EDD800222146D1
:1033A0002846FFF79BFE0028E6D0019B01349C4293
:1033B0000BD1002FDBD13B46A21B31462846FFF73D
:1033C000FDFE0028D8D003B0F0BDA21B314600237B
:1033D0002846FFF7F3FE0028CED0019C002FCCD06A
:1033E0002646C4E7F8B5044600234FF0FF3600F543
:1033F0000477C0F840144160C0F8141215463846EE
:1034000084F84434237084F81032E660C4F81C62F7
:103410001A46194603F03CF8042D0CD8064650B164
:103420005DB905222649F01C07F058F818B996F83E
:103430006C30092B19D00020F8BD6B1E00EB031374
:1034400093F8BE2112F07F02F5D193F8C231002B20
:10345000F1D000EB05153846D5F8B651294603F0F2
:1034600017F806460028DCD1E5E7336D2B44C4F895
:103470002434736DC4F82834B36D1D44C4F82C543F
:10348000F36DC4F83034336EC4F8343496F86D30CC
:1034900084F845340125093305FA03F35A1EC4F8AC
:1034A00020040146C4F83C34C4F8382420462A4697
:1034B000FFF72AFE402384F844342846F8BD00BFB5
:1034C00060AA000010B50446D0F83414FFF7CAFE15
:1034D00094F845340933DBB2984010BD43B370B45F
:1034E00044887E2C1ED81344CD180A44023012F8AA
:1034F000013BE4B2A3F161011929A4F1610194BF78
:1035000020260026192994BF202100219B1B641A24
:10351000DBB2E4B29C4205D1AA4206D030F8024F99
:103520007E2CE4D9002070BC7047012070BC70472D
:1035300001207047C9B110B40144D30343EA5203D8
:1035400010F8012BA2F16104192C9CBF203AD2B2D1
:1035500012FA83F292B2D30343EA5202814292B248
:10356000EBD110465DF8044B70471046704700BF22
:1035700038B504460D462422002106F0C7FEA5609A
:10358000EB79102B08D0202B04D14023012023708D
:10359000A07038BD002038BD202301202370A0700A
:1035A00038BD00BF024638B552F8105F04462946C0
:1035B000806801F083F850B155B123690135AB4201
:1035C000A37818BF03F0BF0363F07F03A37038BD77
:1035D000A37843F04003F7E72DE9F041037803F0C7
:1035E00020032BB903F0FF044169204B994203D912
:1035F00000263046BDE8F0810546FFF7D3FF0646BA
:103600000028F5D0A8682B6987794269023BBB4046
:103610009F1824303946052202F03AFF80460028E0
:10362000E6D04FF40072214606F070FEAB681A79BE
:10363000012A10D9012403E0AB681A79A2420AD901
:1036400018680368E119DB69424698470134E4B21F
:103650000028F1D1CCE79B7969694FF4007202FA36
:1036600003F311FA83F36B61C3E700BFFFFD1F0093
:1036700010B5044680680A462430A16902F008FFAC
:1036800020B1A38803F00F0300EB431010BD00BF6F
:1036900070B590F90230002B82B0044619DBA568A2
:1036A00005F1240002F024FF30B9637843F00103F0
:1036B0006370002002B070BD05F50D7002F018FFB8
:1036C0000028F2D0286803689B6998470028ECD04E
:1036D000F0E70121FFF7CCFF05460028E5D003788D
:1036E000E52BE2D023780E4A1B0744BFE369C36190
:1036F000236A166843831B0C838266B10DF10302B3
:103700000DF1060101A8B047BDF80430BDF8062050
:103710002B836B82EA82A37803F07F03A370BEE75A
:10372000989D012010B50378044623B90023237027
:10373000A370012010BDFFF7ABFF00232370A3701F
:1037400010BD00BF2DE9F041064692B035780192D8
:1037500000208DF824008DF825008DF826002DB965
:1037600098460B7813F0700F0C4603D1002012B06E
:10377000BDE8F08113782F2B104625D0002703E0F9
:1037800001983770B77009AC01AA03A900F050FB8B
:1037900003AA214600230028E8D0019D2D78304659
:1037A0000DB300F05BFD354609AC0028DED00FCD2F
:1037B0000FC40FCD0FC433782A682260002BDFD0EE
:1037C0003046FFF765FFDBE70130019003782F2BD0
:1037D000FAD08BB1A16809A8FFF7CAFE0028C5D0AE
:1037E000019809ACCAE7434603AA2146304600F0D7
:1037F00035FD12B0BDE8F081A1683046FFF7B8FE94
:10380000B5E700BF19B101F24441FFF79BBF08467D
:10381000704700BF03780BB100207047FFF7A8BEC8
:103820002DE9F04F8378DF0783B0054640F19280A1
:103830000F4601780E07914600F195808C0608D559
:10384000826843691289C3EB42139BB2994528BF32
:103850009946B9F1000F00F0AC806B69AA68880640
:103860004E464FF0000805F1100AC3F3080B40D58F
:10387000116A01EB5321BBF1000F55D1B6F5007F62
:1038800052D3136B99424FD0B6F5806F74D328781A
:1038900080064FEA562B05D41079C8EB000083450B
:1038A00028BF834699424FEA4B240DD801EB0B0009
:1038B000834209D202F124000191009202F018FE25
:1038C000009A0199002845D0906A02685B46D2F8B8
:1038D00010B03A46D84700283CD06B69361B2344C9
:1038E00027446B6165D02978AA688806C3F3080B62
:1038F000BED492F8058008EA5328BBF1000F39D1F5
:10390000B8F1000F36D1002B40D149064CBF146AE4
:103910002C6A2C6191795069023C8C4008EB0001C3
:103920002144BBF1000FA9D002F12400002202F0D3
:10393000AFFD78B1CBF50074B44228BF344600EB3C
:103940000B012246384602F0DBFDC6E72B7813F068
:10395000700F2FD16B784FF0FF3043F002036B7084
:1039600003B0BDE8F08FC36942699B1A994528BF2F
:1039700099466EE72C69CDE7906A03683A46DB68A2
:1039800098470028E6D04FF40074A6E70B0705D54A
:10399000AB785C0602D52C690134BAE71046296978
:1039A000524600F01FFE0028D4DBCFD0AA682C6955
:1039B000B0E70026C6EB090003B0BDE8F08F00BFFA
:1039C00070B582B001220DF1070104464669056910
:1039D000FFF726FF012808BF9DF80700666118BFA2
:1039E0004FF0FF30256102B070BD00BF30B54369B4
:1039F000C3F3431583B0044605B189B901220DF123
:103A000007012046FFF70CFF40B201280BD1636984
:103A10001F336361A068343000EB451003B030BD44
:103A200020334361F6E7002003B030BD2DE9F041BB
:103A3000037807690446B3B10D464169A9422BD00A
:103A400045B98378056123F02003A37065610120E7
:103A5000BDE8F08118070AD49A060BD5A3681B8924
:103A6000B5EB431F34D927610020BDE8F081E2693E
:103A70009542F8D8D4F808E0A2789EF806000930FC
:103A8000C0B26E1E12F0400F26FA00F607D0236A6D
:103A90001E4426611346D6E70120BDE8F0814A1E88
:103AA00022FA00F0864215D25B064CBFDEF82030C9
:103AB000236A236104F1100807E02169A06800F07F
:103AC00091FD002806F1FF36CDDD4246002EF4D1EF
:103AD000A378B8E70029E7D0361AEBE72DE9F041E3
:103AE0000D4690460021242204461F469DF818608A
:103AF00006F00CFCA8682B6AE36000F1340208F0C1
:103B00000F0302EB4312A060A4F80480D17A0D07E2
:103B100012D401F017012170D37AE67013F0180F58
:103B200008BF41F0080107F0030308BF2170012B13
:103B300007D0022B29D01BB300202070A070BDE855
:103B4000F0810223A370217811F0110FF4D159B242
:103B500007F4806507F008030B43DBB2A370B2F8EB
:103B600014E0518B066BA66141EA0E4185B1D1B9D3
:103B700063F07F03A3707B040ED40120BDE8F081C5
:103B800017F48065D8D10121E4E70323A370DAE7B5
:103B90002162D369E361EEE7E1692046FFF746FF62
:103BA0000028EAD1C8E700F0CBFD0028C4D0A378F4
:103BB000DEE700BF03780BB1FFF76ABD0120704755
:103BC0002DE9F84383789D07044607D4637843F0D2
:103BD000010363704FF0FF30BDE8F88390461A0789
:103BE0000F4600F1CE806269D3439845EED8B8F114
:103BF000000F00F0D78046463AE0B9F1000F58D1E7
:103C00002169002900F09380A3785B0640F1998038
:103C1000E369934240F295804B1C236182794369AA
:103C200001399140B6F5007F194450D2B6F5007FB6
:103C3000354628BF4FF40075A37813F0200F0CBF52
:103C400001220522243002F023FC0028BED0484483
:103C50002A463946A94402F053FCB9F5007F00F02A
:103C600088806269761B2A442F44626100F09A8042
:103C7000A068437913EA5225C2F30809BDD023692D
:103C800081794269023B03FA01F111442944B9F1F7
:103C9000000F15D1B6F5007F19D26269E369B6F558
:103CA000007F354628BF4FF400759A42C4D30522E1
:103CB000C8E7236981794269023B03FA01F11144A3
:103CC000C9F50075B54228BF35460122BAE7B6F5F9
:103CD000806F1ED30379D0F830E05B1B720A9342E9
:103CE00028BF13468E454FEA432509D35A189645F7
:103CF00006D24FF0000E4FF0FF3280F824E002634E
:103D0000806A0268D2F820903A46C8470028A8D1B5
:103D10005CE7036B8B4225D0806A03683A46DB6917
:103D2000984700283FF452AF4FF4007599E7236A93
:103D300073B3236181794269023B03FA01F11144B3
:103D4000A8E704F1100200F04DFC0028FFF63EAF9A
:103D500005D12046FFF726FC00283FF437AF236942
:103D6000A068E7E700224FF0FF3380F824200363C8
:103D7000D2E7A068243002F0BBFB00287FF471AFCB
:103D800024E7C169FFF752FE00283FF41FAF2AE77E
:103D90002046FFF707FC00283FF418AF2369236291
:103DA000A068C7E7E369934209D30A4B1B6873B164
:103DB000A37863F07F03A3704046BDE8F883A3783F
:103DC000E26163F07F03A3704046BDE8F88340469C
:103DD000BDE8F883989D012004290CD90A2906D949
:103DE0000C299ABF00EB4101C8880020704700EB06
:103DF00041018888704700EB4101B1F8010070472C
:103E000038B5CB6873B105460C462422002106F074
:103E10007DFA102301202B70A870A268E3682B6242
:103E2000AA6038BD8968BDE83840FFF7F3BC00BF21
:103E30002DE9F04F0378202B03D110F8013F202B00
:103E4000FBD088600378002B00F007812F2B2FD048
:103E50005C2B22D0A3F12204E4B21D2C20D9DFF880
:103E600018E2461C00247C2BA3F12005374614D011
:103E70005E2D12D816F8013BA3F12205EDB20134F4
:103E8000002B00F0D3802F2B13D05C2B2EFA05F7DC
:103E900003D01D2DE7D8FF07E5D50020BDE8F08F42
:103EA000754D25FA04F4E407D9D50020BDE8F08F5C
:103EB000002407193E4625462F2302E016F8013F4D
:103EC0000135202BFAD02F2BF8D0054415604CB1CA
:103ED0003A4612F8013D2E2B02D0202B40F0A9804B
:103EE000013CF6D14FF0FF3523464B6001F1170638
:103EF00001F10C03202203F8012FB342FBD1461E2F
:103F0000002200E0013216F8013F2E2BFAD0202BC0
:103F1000F8D0B2FA82FC6E1C4FEA5C1C0CD0475DF4
:103F20002E2F00EB050604D106E016F8017D2E2F9A
:103F300002D015F1FF35F8D2A2424FF0000980F20D
:103F400091804E46CA4607274FF0080825E02E2BE1
:103F500047D0222B0BD07C2B09D0A3F12A0EBEF127
:103F6000050F48D9A3F13A0EBEF1050F58D8954276
:103F700039D0B74229D34FF0000C5F2306F1010E70
:103F800001EB060B5FFA8EF6062E8BF80D3000D88B
:103F90000E730132A24207DA835C202BD7D10132A3
:103FA000A2424FF0000CF7DB4B7B202B3FF475AFA8
:103FB000BCF1000F47D01AEA090F18BF4FF00209F1
:103FC00081F800900120BDE8F08F0A2F37D095428C
:103FD00035DB2A460A2708264FF010084FF0000C60
:103FE000D7E79542DBD10A2F29D02A460A2708268F
:103FF0004FF01008CDE72D2BB9D1A3F1210EBEF162
:104000005D0FB4D89542EED0B742DED3A3F1610E76
:10401000BEF1190F28D8203BDBB248EA0909ADE709
:10402000A3F15B0EBEF1020FA1D9E6E717600719F5
:104030004EE7FF2C3FF731AF651E234655E74B7B1C
:10404000202B3FF42AAF0B7B0B4401207E2431222E
:1040500008705C739A73BDE8F08F10601C464FF0D7
:10406000FF3542E7CA469FE7A3F1410EBEF1190FA3
:1040700098BF48EA0A0A81E7010100352DE9F041BD
:1040800082788AB0002392078DF804308DF80530CD
:104090008DF8063022D5016A054621BB012128464C
:1040A000FFF7E6FAD0B1411E00F10A0700246208CA
:1040B00011F8016F42EAC41356FA83F38F42DCB25F
:1040C000F5D14FF0E50880F80080AE68002306F1D6
:1040D00024002B70AB7002F00BFA50B9002630466A
:1040E0000AB0BDE8F081806800F02AFB0028D5D135
:1040F000F4E706F50D7002F0FBF90028EED0306809
:1041000003689B69984706460028E7D0EB78002BA8
:10411000E5D001A82946FFF773FE0028DED0EB7832
:10412000002BDBD001271FE001A8FFF75FFC7B1C01
:104130000028D3D0C27A0F2AD0D1027802F01F0112
:104140008F42DFB2CAD1437BA342C7D180F800803F
:10415000A96891F8243043F0010381F82430530614
:104160000CD4EB78BB42B9D3A988C91B490101A87B
:10417000FFF75CFC00210028D6D1AFE7AC6804F162
:10418000240002F0B5F90028A8D004F50D7002F063
:10419000AFF90028A2D0206803689B6998470028DF
:1041A0009CD09CE72DE9F8430F7B0E46044601F1B5
:1041B0000D054FF002084FF07E097068B16808EBFA
:1041C00000039BB240B1084411F8012B03EB4313E9
:1041D000534088429BB2F7D1032F28BF03273A1DD3
:1041E000D2B203F00F01B018013A0929D2B294BF3C
:1041F0003031373197424FEA13134173F1D3F3193A
:10420000002183F80D902046FFF710FC0121204685
:10421000FFF7ECFB0B2203460146A8B193F800E040
:104220002846BEF1000F15D0DB7A1B07EED406F04E
:104230003BF80028EAD108F101081FFA88F8B8F124
:10424000640FBAD1BDE8F8836078B0FA80F0400915
:10425000BDE8F8830120BDE8F88300BF2DE9F04FE9
:104260000C7814F0700F8DB001D004781CB10020D0
:104270000DB0BDE8F08F1478D2F804A0A40742D1A5
:104280004FF001080E4693460990002130460F4634
:104290000793FFF7CBFB0BF10D03069703973C4603
:1042A000B94605970493012130467569FFF79EFBD7
:1042B000C5F34F150346002800F08C800278E52AEC
:1042C0003AD0002A38D0444538BF00242E2A30D0B6
:1042D000D97A0F293ED001F0080101F0FF0241BB5D
:1042E000B9F1000F40F05C8118460B22049905F0EB
:1042F000DBFF0028D7D19BF80030D80740F164815C
:1043000001230593CFE7B54D0AF10C04A5FB044842
:104310004FEA980808F101085FFA88F8B2E70399B4
:104320000139C9B28A42039103D15A7B069991425D
:104330001BD04FF00009B6E7002C08BF2F464445BC
:104340003CBF0134E4B2002A48D0E52ABED14FF088
:104350000009A8E7B9F1000FE1D15506A3D502F095
:104360001F095A7BCDF80C900692039A013A02EB92
:10437000420502EB8505AA452A46DAD905F10D0169
:10438000CDF82090894613E0DBF80800825CBCF190
:10439000190F98BF2031A2F1410098BFC9B2192866
:1043A0009CBF2032D2B29142C3D1CE4542D0724698
:1043B000511BC9B21846FFF70FFDC1B29245A1F1DA
:1043C000410C02F1010E00F0E480FF28DCD94FF02F
:1043D000000968E77378002B7FF449AF079A13460A
:1043E0009A057FF544AF03F00303013B012B3FF631
:1043F0003EAF002C08BF2F46444503D31DE0DCB27E
:10440000A0451AD900213046FFF7F0FA631C0028B6
:10441000F5D1737823B12AE7B3681B79012B0CD847
:10442000A0450AD93046FFF7D7F81034E4B2002887
:10443000F2D11CE7DDF8209035E7059B33B15946F2
:104440003046FFF7AFFE00283FF411AF7901304648
:10445000FFF7ECFA00283FF40AAF08F1FF3818F034
:10446000FF0959D049F04004E4B24D46002700212D
:104470003046FFF7BBFA00283FF4F9AEB26892F875
:104480002430A94543F001034FF00F0C14BF294617
:10449000214682F824300BF10C0E80F80BC0077314
:1044A00001700BF1170C00231EF8018F5A0842EA25
:1044B000C31358FA83F3E645DBB2F5D101F01F01CF
:1044C0000139437301EB4102DBF808E0478301EB5C
:1044D0008202043000230FE0042B1EF8021014D9CE
:1044E0000A2B94BF018041800133DBB20D2B02F116
:1044F000010200F102000BD09245EDD814BF4FF03D
:10450000FF310021042B89B2EAD820F8031CEBE725
:10451000013D15F0FF05AAD1002130467569FFF76E
:1045200065FAC5F34F15044600283FF4A0AE2022DB
:10453000002105F0EBFE0B220BF10D01204601F0EE
:10454000DFFF274A9BF80030176803F01803237336
:10455000002F3DD00DF12B020DF12E010BA8B84715
:10456000BDF82C10BDF82E209DF82B302182E28161
:104570006373B26892F8243043F0010382F8243068
:10458000CDF80090079B09982A463146FFF7A6FA16
:104590006EE60028DDF8209018BF4FF0000982E693
:1045A000039901297FF463AE5C1E0A3314F8010FEE
:1045B000510841EAC21250FA82F29C42D2B2F5D1BD
:1045C000069B93427FF453AE079B1905D8D54EE660
:1045D00045F22123238223836382CAE74FECC44E32
:1045E000989D0120012931D9C36999422ED870B50F
:1045F000C379202B164605460C4618D0102B13D134
:104600008369C1F307211944022200F50D7001F0FE
:104610003FFF48B1E1B230F81130EA6993429ABFE6
:1046200001203360002070BD4FF0FF3070BD816904
:10463000022201EBD41100F50D7001F029FF0028D2
:10464000F2D004F07F0150F82130E6E74FF0FF3060
:10465000704700BF01291DD938B5C369994206D8F2
:10466000C379202B15460C4616D0102B01D0002004
:1046700038BD8369C1F30721194400F50D70032289
:1046800001F006FF03460028F1D0E1B2012023F833
:10469000115038BD002070478169032200F50D706C
:1046A00001EBD41101F0F4FE03460028DFD004F042
:1046B0007F01012043F8215038BD00BF2DE9F041B2
:1046C000C4688C4282B005460F4690463ABF0C46FD
:1046D00000260126EB6901349C4201AA28462146A6
:1046E00009D93EBBEC6801349C424FF0010601AA97
:1046F00028462146F5D8A7421CD0FFF773FF0028B3
:1047000018DBE7D0019B002BE4D106B1EC606FF021
:10471000704221462846FFF79DFF064650B117B963
:10472000C8F8004007E0394628462246FFF792FFC6
:104730000028F5D10026304602B0BDE8F08100BF68
:1047400070B5054682B00C460AE0FFF783FF90B1D2
:10475000EB689C423CBF04F1FF34EC60019C5EB10D
:1047600001AA21462846FFF73DFF061E21464FF0CD
:1047700000022846E9DA002002B070BDF8B5044610
:10478000002301254FF0FF30E5602160A162C4F8ED
:104790003812E37184F8243084F834322063C4F88A
:1047A00040021546DAB1042A01D90020F8BD04F10F
:1047B00024061A461946304601F06AFE05F1805576
:1047C000013D2D0100F5DF735A190028EDD0117954
:1047D0000029EAD05B5D5B06E7D1956801E004F152
:1047E000240630460022294601F052FE0028DCD083
:1047F000037C022BD9D1B0F80B30B3F5007FD4D1B4
:10480000467B2671731E0022012E6371A2710FD0A8
:104810000122114600E01A464900C9B2531C8E42DB
:10482000DBB204D0092BF6D1A2710020F8BDA27131
:10483000C68A26610EB9466A2661C189B0F8113070
:10484000238129445B0101EB460703F2FF13A161B9
:10485000B0F81310276207EB6323636101B9016AA3
:10486000ED1A0D4425FA02F240F6F473511C9A42F7
:10487000E1610DD94FF6F4739A4285BFC36A236292
:1048800010232023E371E662C4F83C620120F8BDE6
:104890000C23E37189E700BF10B50446806B28B193
:1048A000FEF740FF10B10023A36310BDE06B28B1F9
:1048B000FDF708FC10B10023E36310BD002010BD1C
:1048C000884270B5064615D00D46FFF7E5FFAC6B84
:1048D00094B13146242000F063F800230370437044
:1048E0008370B063AD6B04460FCD0FC40FCD0FC402
:1048F0002B682360304670BDEB6B002BFAD031463D
:10490000382000F04DF880F8314080F8324080F8CF
:104910003340F0633422E96B01F0F2FD304670BDA4
:10492000C9B32DE9F0410C46054698461746FFF7F6
:10493000B3FFD4F88064AEB12946242000F030F8EB
:104940000021017041708170D4F88014A86343463F
:104950003A46FEF757FF10B10120BDE8F081A86389
:10496000BDE8F081D4F88434BBB12946382000F08A
:1049700017F880F8316080F8326080F83360D4F83E
:104980008414E86343463A46FDF7EAFF0028E3D182
:10499000E863BDE8F081002070470020BDE8F081A9
:1049A0000846704770B500260446C0F88814C0F861
:1049B000806401464FF49060FFF7F2FF80F8446492
:1049C00080F8796480F87A6480F87B640122D4F8F6
:1049D0008814C4F884040546FEF704FDE8B90026EF
:1049E0002146C4F884644FF48D60FFF7D9FFC67187
:1049F00080F8446480F8456480F846640122D4F865
:104A00008814C4F880040546FFF7B8FEB8B9144B03
:104A100000201860C4F8800470BD05F58966304632
:104A2000FDF750FB29463046FDF756FB0028D6D04F
:104A30000C4B1A6892B10A4B01201C6070BD05F244
:104A400044463046FEF76EFE29463046FEF7E2FE4B
:104A50000028DCD0044B1A68002AECD11D60EAE77C
:104A6000489D0120409D0120449D0120F8B500256E
:104A70004FF47A77064E87600446057105738564A6
:104A8000C56440F8106BFFF74BFF2046F8BD00BF30
:104A900010A90000C07C7047407D704710B40468C6
:104AA00024690123A4465DF8044B6047807D70476C
:104AB000704700BF10B51821044603F061FD204681
:104AC00010BD00BF10B50446043001F0FDFBA07C12
:104AD000002101F0F7FB0123237510BD38B5044612
:104AE0000121807C251D01F0EDFB2846FF2101F00E
:104AF00075FC284601F030FC0023237538BD00BF4B
:104B00002DE9F0410E46017C0229054614461F4658
:104B100021D02B6831469B6C2846984788B10223E8
:104B2000EE602B74002617B919E0B74217D02B6836
:104B300021465B6C28469847013604F5007400282E
:104B4000F3D1287D08B9BDE8F0812846FFF7C6FFFC
:104B50000020BDE8F081C368B342DAD1E2E7EB6838
:104B60006A7C1F44EF6012B90120BDE8F0812B6818
:104B700028469B69BDE8F041184700BFF8B5037CA3
:104B8000012B20D0077D0546AFB12E1D08243046ED
:104B900001F006FCFF2804F1FF3308D013F0FF04F6
:104BA000F5D101240FB92B7D43B92046F8BD00246F
:104BB000002FF8D0F9E7FFF785FFE6E72846FFF773
:104BC0008DFF2046F8BD0020F8BD00BF2DE9F04361
:104BD0001D4E83B033680093009D0446884691467D
:104BE000ADB2071D07E033680193019B9BB25B1BCD
:104BF000B3F5967F12DC384601F0D2FBFF286075D2
:104C0000F1D0FE280DD01823E374207D18B1204682
:104C1000FFF764FF002003B0BDE8F0831D23E374B9
:104C2000F3E74A464146384601F0C8FB607510B1CB
:104C30002523E374E9E7384601F0B2FB384601F07A
:104C4000AFFB0120E7E700BF9C9D0120F0B50D4DB3
:104C500083B02B680093009C0F46061DA4B206E0AB
:104C60002B680193019B9BB21B1BBB4207DC3046A8
:104C700001F096FBFF28F3D1012003B0F0BD002026
:104C800003B0F0BD9C9D01202DE9F04182B0037C72
:104C9000019204460F467BBB237D002B3BD0002FA7
:104CA00033D1251D284647F0400101F097FB0DF157
:104CB000040802AE16F8011D284601F08FFBB0452E
:104CC000F8D1002F0CBF95218721284601F086FBE3
:104CD000284601F065FB0B26284601F061FB030620
:104CE000607502D402B0BDE8F081731E13F0FF06B8
:104CF000F2D102B0BDE8F08103689B6998470028B3
:104D0000CAD1FF2002B0BDE8F0814FF49671204671
:104D1000FFF79CFFC5E72046FFF7D4FEBFE700BFC3
:104D2000F8B500220D463A210646FFF7ADFF68B9F7
:104D3000371D2C1D384601F033FB04F8010DA54248
:104D4000F8D1347D6CB901242046F8BD347D12239E
:104D5000F374002CF8D030460024FFF7BFFE204645
:104D6000F8BD3046FFF7BAFE2046F8BD38B5154607
:104D700000220446FFF788FF40B11B23E374207D27
:104D800018B12046FFF7AAFE002038BD29461022A0
:104D90002046FFF71BFF0028F1D0257D002DF4D021
:104DA0002046FFF79BFE284638BD00BF0A46092172
:104DB000FFF7DCBF0A460A21FFF7D8BF30B503680A
:104DC000234A5B6B934285B02FD16A460921FFF7D6
:104DD000CDFF38B19DF8003013F0C00304D0402B54
:104DE00026D0002005B030BD9DF809409DF8063062
:104DF0009DF807209DF80A009DF805109DF80850C1
:104E000004F003046400920003F0030344EAD010AA
:104E100001F00F0142EA8323084443EA951301336A
:104E2000073803FA00F005B030BD69469847D0E76F
:104E30009DF809309DF807109DF808005A1C01F0F4
:104E40003F0302EB034303EB0020800205B030BDBB
:104E5000AD4D000030B50368114D1B6CAB4283B003
:104E600004460A4617D1807D032818BF520212213A
:104E70002046FFF709FF58B1207D0C23E37408B9E1
:104E800003B030BD2046FFF729FE002003B030BD3F
:104E9000012003B030BD01919847019AE4E700BFBB
:104EA000AD4A00002DE9F0410D46017C012906467E
:104EB00014461F461AD029463046FFF7CBFF90B163
:104EC0000123F5603374002517B913E0AF4211D008
:104ED00021464FF400723046FFF778FE013504F5A5
:104EE00000740028F2D10020BDE8F081C368AB4215
:104EF000E1D1E8E7F368727C1F44F76012B9012042
:104F0000BDE8F081336830469B69BDE8F041184741
:104F100038B500220C210546FFF7B6FE2C7D20B1E6
:104F20000923EB7454B9204638BD14B90124204636
:104F300038BD2846FFF7D2FD204638BD284600245C
:104F4000FFF7CCFD204638BD027C0021022A017407
:104F500005D0012A01D001207047FFF7D9BF0368AF
:104F6000DB6C184730B50368114D1B6CAB4283B046
:104F700004460A4617D1807D032818BF5202192122
:104F80002046FFF781FE58B1207D0E23E37408B957
:104F900003B030BD2046FFF7A1FD002003B030BDB7
:104FA000012003B030BD01919847019AE4E700BFAA
:104FB000AD4A0000F0B503682B4F5B6BBB4285B078
:104FC00004460D4616462DD16A460921FFF7CEFE4E
:104FD00090B19DF80A305A0616D5A37D032B18BF51
:104FE0006D022A464FF02001204618BF7602FFF7D7
:104FF0004BFED0B12623E374207D18B12046FFF785
:105000006DFD002005B0F0BD03F03F039DF80B10CF
:105010005B00721C43EAD1132A431342DDD02723DD
:10502000E374E9E769469847D2E7324621212046F2
:10503000FFF72AFE0028DDD1024626212046FFF791
:1050400023FE0028D6D142F210712046FFF7FEFD64
:1050500010B92823E374CFE7257D002DD2D0204658
:10506000FFF73CFD2846CDE7AD4D000070B54FF48D
:1050700016710546FFF7EAFD064658B92C7D1E233A
:10508000EB740CB9204670BD28463446FFF726FD68
:10509000204670BDFD21281D01F0A0F92C7D14B91A
:1050A0003446204670BD2846FFF718FDEAE700BFEA
:1050B00070B5041D16460546204601F08FF94FF4E1
:1050C00000723146204601F095F92046FF2101F09B
:1050D00085F92046FF2101F081F9204601F060F9B1
:1050E00000F01F03052B687509D0287D2023EB7481
:1050F00000B970BD2846FFF7F1FC002070BD01200B
:1051000070BD00BF38B50D464FF416710446FFF769
:105110009DFD40B92423E374207D18B12046FFF79C
:10512000DDFC002038BD2A46FC212046FFF7C0FFE9
:105130000028F1D038BD00BF70B50368164D1B6C58
:10514000AB4282B00446164622D1807D032818BFA8
:1051500049020A4620461821FFF796FD48B10D2363
:10516000E374207D18B12046FFF7B8FC002002B0A0
:1051700070BD3246FE212046FFF79AFF0028F0D08E
:10518000257D002DF3D02046FFF7A8FC2846EEE74A
:10519000019198470199D9E7AD4A000010B4447CC9
:1051A00034B90468246A0123A4465DF8044B6047BF
:1051B0005DF8044BFFF7C0BF10B4074C074A08491D
:1051C00008480023236014680C60096811605DF8CA
:1051D000044B0370704700BF38100B4030100B4079
:1051E000749D01208C9D0120034B04481B681840CE
:1051F000B0FA80F04009704730100B4001000F00FA
:10520000024B186800F00100704700BF24100B40EB
:10521000034B186880F08070C0F30060704700BFD7
:1052200024100B40014B1878704700BF8C9D012063
:10523000034B186880F40060C0F3C020704700BFC3
:1052400024100B40034B186880F48060C0F380206A
:10525000704700BF24100B40034B04481B681840E4
:10526000B0FA80F04009704730100B4002007F1107
:105270004FF47A722C4B02FB00F09842F0B44BD8FA
:105280002A4D0822012149000B01B5FBF3F3984296
:10529000264C3DD2013AF6D1B4FBF1F44B081F0283
:1052A000A0423DD2214E4B00012200E02346B6FB36
:1052B000F3F4A04202F1010503EB010426D2102D04
:1052C0002A46F3D1F0221A4E1A4C18481A494FF4C4
:1052D0007A7505FB03F3B0FBF3F33360236823F027
:1052E00008032360206820F47F2323F47F6343F4C2
:1052F00060233B431A4322600B681B07FCD50D4A11
:10530000136843F008031360F0BC70471201DAE73A
:10531000B4FBF1F4CF01C3E7044C00270121BFE740
:105320000B460022CFE700BF4FA9AB000095BA0A99
:10533000909D01202C100B4024100B40014B18783D
:10534000704700BFAC07FF1F014B1868704700BFD4
:10535000749D012008B508461022024901F0D0F8DA
:10536000012008BD509D012008B5084610220249C1
:1053700001F0C6F8012008BD7C9D0120024B1B688E
:105380000B600120704700BF689D0120704700BF7F
:10539000F8B5054601F0A8FA064F064604E001F00C
:1053A000A3FA801BB84203D8A84704460028F6D1C8
:1053B0002046F8BD40420F002DE9F041DFF8408063
:1053C0000E4FC8F80000054601F08EFA064606E0CA
:1053D00001F08AFA801BB8420AD803F0EBF8A8471C
:1053E00004460028F4D1C8F800002046BDE8F0814A
:1053F0000023C8F800302046BDE8F08140420F008D
:10540000609D012010B50C21044603F0B9F8204638
:1054100010BD00BF054B1B7833B1054B1B78002B2B
:1054200014BF032002207047012070474C9D0120CB
:10543000649D012038B504460F480D46FFF7A8FFCC
:1054400008B1002038BD0D4A0D4B15600D481C6099
:10545000FFF79EFF0028F4D10B4A0C4B116819602E
:10546000196811601A68D207EBD51B6813F4702F06
:10547000E7D1012038BD00BF0152000008100B40E9
:105480000C100B40E951000030100B40749D0120BE
:1054900008B5074B07481968FFF7CCFF30B1064B3A
:1054A000186880F48070C0F3002008BD012008BD9A
:1054B0006C9D012000001A0D10100B4008B5044B24
:1054C00004481968FFF7B6FF08B1034B186808BD18
:1054D0006C9D012000001A0D10100B4030B5154BCB
:1054E00085B00D461968FFF7A5FF00B3124A134BAC
:1054F000126800921968019159680291083305F108
:105500000F041B680393002301E051F8102C03F0F3
:105510000301C9000133CA400DF1100E23F003014D
:105520000F2B714404F8012DEFD10023EB7305B06C
:1055300030BD00BF6C9D012010100B4014100B40BB
:10554000054B186810F0020005D01B68034818408E
:10555000B0FA80F040097047749D012000007F116F
:10556000F8B5940700D143B91F49204B252040F2DC
:10557000F71208701A600020F8BD06461C481C4649
:105580000F461546FFF718FF18BB1A491A4ADFF8ED
:1055900080E04FF0010C8EF800C023040860174C27
:1055A0001560174A1749184843F4007323601378AD
:1055B0000860B3B979023046FFF73CFF0028DAD023
:1055C0001248FFF7F9FE0028D5D1BDE8F840FFF7F3
:1055D000B7BF0549054B0A204FF4FD7208701A60E9
:1055E000C9E73946E7E700BFAC07FF1F949D0120DC
:1055F00091540000749D012000100B4004100B40DA
:10560000649D012038100B4002007F1125520000DC
:105610008C9D012070B419490B7813F0C00311D090
:10562000402B02D0002070BC70474B7ACC79087AAE
:105630005A1C04F03F0302EB034303EB00208002FB
:1056400070BC70474D7A8B79CA794C790E7A887A1A
:1056500005F00301490003F00303920041EAD01072
:1056600042EA832304F00F0143EA96130844073803
:10567000013303FA00F070BC704700BF7C9D01202D
:1056800070B50D46417A164669BB304A937A03F0ED
:10569000400000F0FF0498B12D4B1B780BB96D0250
:1056A000760229462B48FFF7C5FE044618BB2A4957
:1056B0002A4B0F204FF43C7208701A60204670BDD0
:1056C000D17A03F03F035B00721C43EAD1132A43F3
:1056D0001342E1D02049214B27204FF43A72087041
:1056E0001A60204670BD03689B69984704460028ED
:1056F000CBD1204670BD31461948FFF79BFE0446CA
:1057000038B91549154B102040F2F32208701A6081
:10571000D4E700211348FFF78DFE044638B90E493F
:105720000E4B112040F2F62208701A60C6E70E48B0
:10573000FFF72EFE0028C1D00749084B282040F271
:10574000F92208701A600024B8E700BF7C9D012090
:10575000649D012000001A20AC07FF1F949D0120CA
:1057600000001A2100001B269154000010B50E48BD
:10577000FFF70EFE0D490E4A0E4B00240C70116807
:1057800019601968116018B91A680B4B134043B1BE
:105790000A490B4B1F2040F27E2208701A6000203D
:1057A00010BD012010BD00BF59520000709D0120A6
:1057B00030100B40749D012000007F11AC07FF1FCB
:1057C000949D012070B51A4C1A48236823F4803345
:1057D00023600021FFF72EFE054640B91649174BFE
:1057E000092040F23F2208701A60284670BD144814
:1057F000FFF7E2FD88B9134B1B689B07F5D51249EB
:1058000012480E682368026823F4803342F08062F5
:1058100002600E602846236070BD0749074B0A20CE
:1058200040F24322087000251A60284670BD00BF70
:1058300028100B400000DB0CAC07FF1F949D0120DB
:105840001152000024100B4034100B402C100B4060
:1058500070B51F4E33780D46002B33D11D4B1B689E
:10586000D90508D41C4B1A6822F480321A601A68D1
:1058700042F400321A60184A1848136843F480331F
:105880001360FFF785FDA0B9124C15482B1F05F5D5
:10589000FE7522685205FCD503F1400153F8042F30
:1058A00002609942FAD18D420B46F2D1012030704C
:1058B00070BD0C490C4B21204FF47D7208701A60AA
:1058C000002070BDFFF752FF0028C7D170BD00BF98
:1058D000709D012024100B4028100B404552000001
:1058E00020100B40AC07FF1F949D012038B51448D1
:1058F0000C46FFF761FDC8B9124A134913681348F3
:10590000134D23F4803313600B78056063B9610293
:105910001048FFF78FFD30B90F49104B0E244FF49C
:105920008D620C701A6038BD2146F1E70A490B4BB5
:105930000A2040F25C4208701A60002038BD00BFA7
:105940009154000028100B40649D012004100B406E
:105950000002FFFF22003A19AC07FF1F949D0120AF
:10596000F8B50646007AC0070C4615461F4613D404
:1059700083B10F4401E0BC420CD033682A46214673
:10598000DB6930469847013405F500750028F2D1EF
:105990000020F8BD0120F8BD900712D0002BF9D0EF
:1059A0000F4401E0A742F5D033682A462146DB695F
:1059B00030469847013405F500750028F2D10020E3
:1059C000F8BD0648FFF7CCFD0028E3D10449054B9C
:1059D0000E2440F24E420C701A60F8BD27003A19AE
:1059E000AC07FF1F949D012070B5037A1546DA07B6
:1059F000ADF5007D0E4619D5AB0706D029466846A1
:105A00004FF4007200F07CFD6D462A4631460123BA
:105A10002448FFF7A5FD30B92349244B0D2440F25B
:105A200016420C701A600DF5007D70BD204B1B787E
:105A3000044683B91F4B1B681B0C1B0453B3637ACA
:105A4000022B0ED0236820469B69984768B9002036
:105A50000DF5007D70BDFFF789FE0028EAD100201A
:105A6000F6E763689E42EDD109E0236831469B6CFE
:105A7000204698470028EAD00223666063722368B4
:105A800029465B6C204698470028E0D063680133C4
:105A90006360C8E7236820469B6998470028CED1F9
:105AA000D5E700BF01003A18AC07FF1F949D012005
:105AB000709D012004100B40F8B50646007AC0071F
:105AC0000C4615461F4613D483B10F4401E0BC4277
:105AD0000CD033682A462146DB68304698470134AB
