:1000000000000320D1010000353C0000ED3B000062
:10001000ED3B0000ED3B0000ED3B0000ED3B000040
:10002000ED3B0000ED3B0000ED3B0000353C0000E7
:10003000353C0000ED3B0000E95B0000ED5C00009A
:10004000353C0000353C0000353C0000353C0000EC
:10005000353C0000353C0000353C0000353C0000DC
:10006000353C0000353C0000353C0000353C0000CC
:10007000353C0000353C0000353C0000353C0000BC
:10008000353C0000353C0000353C0000353C0000AC
:10009000353C0000353C0000353C0000353C00009C
:1000A000353C0000353C0000353C0000353C00008C
:1000B000353C0000353C0000353C00007963000011
:1000C000353C0000C9460000353C0000514C0000A2
:1000D000353C0000A9640000353C0000353C0000C0
:1000E000353C0000353C0000353C0000353C00004C
:1000F000353C0000353C0000353C0000353C00003C
:10010000716000008560000099600000AD60000033
:10011000353C00009D4E0000353C0000353C0000A1
:10012000353C0000353C0000353C0000353C00000B
:10013000353C0000353C0000353C0000353C0000FB
:10014000353C0000353C0000A5650000353C000052
:10015000353C0000353C0000353C0000353C0000DB
:10016000353C0000353C0000353C0000353C0000CB
:10017000353C0000353C0000353C0000353C0000BB
:10018000353C00002D340000353C0000353C0000BB
:10019000353C0000353C0000A1660000353C000005
:1001A000353C0000353C0000353C0000353C00008B
:1001B000353C0000353C0000353C0000353C00007B
:1001C000353C0000353C0000353C0000353C00006B
:1001D0005C4B4CF2205210B51A804DF628121A8052
:1001E00000BF00BF03F02AFD574B4FF030621A608A
:1001F000564A9A60564ADA60564B4FF470021A60BB
:10020000554B564A1A60564A136813F4807304D14A
:1002100054490B604FF4A8531360534B1A781107DD
:1002200003D51A7842F008021A70504B5049AA229E
:100230001A70504A504B8B4204D252F8040F43F8C4
:10024000040BF8E74D4B4E4900228B4202D243F893
:10025000042BFAE74B494C4A002352F8230041F89B
:1002600023000133742BF8D1484B494A802103F80D
:10027000011B9342FBD1474B424A1A60464B8A22EC
:100280001A70A3F5805324225A70A0221A709A790A
:100290009207FCD59A79D406FCD4404A937903F0AE
:1002A0000C03082BFAD13E4B60221A7002331A78E5
:1002B000802AFCD1394B01221A715D225A719A7938
:1002C0009006FCD59979354A4906FBD5354B364918
:1002D00019600021596020231370937903F00C03F7
:1002E0000C2BFAD1314B324A1A60324B324A1A6027
:1002F00000225A60072243F8042C304AC3F80C2D20
:1003000062B603F001FE174B1B68DA0705D52C48CF
:1003100003F066FD2B4B2C4A1A602C4B1B785B06B6
:1003200009D5284C284B22689A4204D1244803F06E
:1003300057FD0023236006F0D3FF03F085FC05F092
:10034000F5FEFEE70E20054030800440823F0400A9
:100350000100002B88ED00E0002008E0030000858C
:1003600010D0034014D0034002D0074000E0074003
:10037000E410FF1F148300003007FF1FE810FF1F69
:1003800048A401200002FF1F0000000000E400E07C
:1003900064E400E008ED00E0005006400040064044
:1003A00001E007404480044000000602048004404D
:1003B000C010070014E000E01FBF02000000202072
:1003C000B5AE2E5B1CE00340A5C3945A00F0074075
:1003D000FFFFFFFFFFFFFFFFFFFFFFFFFFFFFFFF2D
:1003E000FFFFFFFFFFFFFFFFFFFFFFFFFFFFFFFF1D
:1003F000FFFFFFFFFFFFFFFFFFFFFFFFFFFFFFFF0D
:10040000FFFFFFFFFFFFFFFFFFFFFFFFDEF9FFFF23
:1004100010B5054C237833B9044B13B10448AFF33E
:1004200000800123237010BDE810FF1F00000000B2
:1004300018830000084B10B51BB108490848AFF3FA
:1004400000800848036803B910BD074B002BFBD0A0
:10045000BDE81040184700BF00000000EC10FF1F6F
:1004600018830000E410FF1F000000004F4B2DE92F
:10047000F04100224E4C1E684E4D02E0172908D074
:100480000A4634F8023F95FBF3F39E4202F1010164
:10049000F4D3494B494F53F82230FA7A43F0705164
:1004A00002B372B6FA7AD507144606D5444DFC68F5
:1004B0002E683440FC612C601446920706D5414DED
:1004C0003A692E68FC7A32403A622A60660706D59D
:1004D0003D4D7A692E68FC7A32407A622A6025079F
:1004E0005AD462B63A68D4688C4207D043F0F843D5
:1004F000364D374C1560D16013611460037C73B3C3
:10050000344C00F11406002501214FF0004C4FF04F
:10051000805E437C54F8333083F8001116F8018F65
:10052000C2F82CC0C2F834E0D36A002BFCDA936B1B
:1005300020F818300A23427C54F83220013B82F81C
:100540008010F8D1327830F81230C3F30C0320F861
:100550001230037C0135AB4201DD3A68D9E7FB7A02
:1005600016491A46FBB1DC0703D51B4AC96911605D
:100570001A46980703D5194B396AFA7A1960510758
:1005800003D5174B796AFA7A1960130702D5154B10
:10059000BA6A1A60BDE8F081134CBA6925682A402E
:1005A000BA6222609DE7BDE8F08100BF3407FF1FFB
:1005B0000E7F000000879303407F00006C07FF1F41
:1005C00080E100E084E100E088E100E001401F00FC
:1005D00000001F80B87F000000E100E004E100E0BF
:1005E00008E100E00CE100E08CE100E0404BF0B4F9
:1005F0000022404C1E68404D02E0172908D00A46F0
:1006000034F8023F95FBF3F39E4202F10101F4D36B
:100610003A4B3B4953F82230CC7A43F070550CB337
:1006200072B6CA7AD607144606D5364ECC683768F5
:100630003C40CC6134601446920706D5324E0A69BC
:100640003768CC7A3A400A623260670706D52F4E87
:100650004A693768CC7A3A404A62326026073FD40A
:1006600062B6CC7A0A68D668AE4207D043F0F84347
:10067000274F284E1760D56013611660437C264DC6
:1006800055F83330012683F80061438A4FF0004665
:1006900043F08053D6625363D36A002BFCDA437C69
:1006A000926B55F83330012283F88020B4B1E5070E
:1006B00003D51A4BCA69CC7A1A60A00703D5184B28
:1006C0000A6ACC7A1A60620703D5164B4A6ACC7A5A
:1006D0001A60230702D5144B8A6A1A60F0BC70476F
:1006E000124C8A69266832408A622260B8E700BFED
:1006F0003407FF1F0E7F000000879303407F000038
:100700006C07FF1F80E100E084E100E088E100E089
:1007100001401F0000001F80B87F000000E100E0E2
:1007200004E100E008E100E00CE100E08CE100E021
:10073000027C013A4FF400435107438244BF4FF417
:1007400010434382910744BF43F400634382D207BE
:1007500048BF43F4806343F038034382FFF746BF4A
:10076000154AF8B51346044653F8086F10685768E1
:100770005D68C4F815000023082222742275638284
:10078000C4F82530C4F8293061740846C4F81970DB
:10079000C4F81D60C4F82150012103F039FB012188
:1007A000607C03F02FFB054801F0C8F92046FFF7F5
:1007B000BFFF2046F8BD00BF347E00006C07FF1F5E
:1007C0000174FFF7B5BF00BFF8B5014448F230052A
:1007D0004B7F0344044683F825204582FFF706FF3C
:1007E0004FF42043638204F124000B210C220126E4
:1007F00010F8013F022B48D0032B3DD0012B03D131
:10080000658A8B402B436382023A042AA1F10201DC
:10081000EED12046FFF7EAFE4FF44043638204F135
:1008200028000B210C22012610F8013F022B1DD0BD
:10083000032B12D0012B03D1658A8B402B4363829B
:10084000023A042AA1F10201EED12046FFF7CEFEC2
:100850002046BDE8F840FFF76BBF678A06FA02F34F
:1008600006FA01F52B433B436382E9E7638A06FA04
:1008700002F52B436382E3E7678A06FA02F306FA7E
:1008800001F52B433B436382BEE7638A06FA02F518
:100890002B436382B8E700BF00207047027C02F060
:1008A000080202F0FF0332B1C36A406A181A48BF57
:1008B0006FF0004070471846704700BF00B583B026
:1008C00001220DF10701103001F09EFA01280CBF42
:1008D0009DF807004FF0FF3003B05DF804FB00BF48
:1008E000103001F059BB00BF103001F041BC00BF17
:1008F000103001F043BC00BF00B583B002AB012251
:1009000003F8011D1030194601F038FC03B05DF802
:1009100004FB00BF10B5044605F088FB204610BD5F
:100920002DE9F0417A4D7B4C28788EB0012103F0FF
:100930006FFA0121287803F065FA4FF4897003F00B
:1009400099FB5B2003F09AFF734801F0F7F804F578
:100950008C650023284684F86C3402F07FFD002863
:1009600071D1002501236D4A6D498DF8045001A80D
:100970008DF8055001F0E8F9002840F08180DFF89B
:10098000D88105AC67496648674F01F039FB0025FF
:100990004FF47A766323634A61498DF814502046F8
:1009A0008DF815508DF808508DF810500396CDF83D
:1009B000048001F0C9F90FCC5C4E06F110050FC59B
:1009C0000FCC0FC52468039A9DF810309DF80810CD
:1009D000B260337338682C60317106F0EFF802466C
:1009E0000B460020524906F089FA47A3D3E90023B9
:1009F00006F05AF94F4BC3E9000106F00FFC07EE71
:100A0000900AF5EEC07AF1EE10FA06D99FED4A7A17
:100A1000F4EEC77AF1EE10FA02DD0EB0BDE8F08117
:100A2000DFED466ABEEE007AA7EEA67AFCEEC77A44
:100A300017EE902A232AF0D94149424805F0ACFA32
:100A40000EB0BDE8F08104F23C40256001F06EF983
:100A50000121204602F0C6F900284ED02D4C04F2A8
:100A60003C452846214601F0C9F900283FF479AFFA
:100A700094F83C3413F0700F1CBF334B1D6070E7CB
:100A800005AC4FF47A76254A254903960123204682
:100A9000DFF8C4808DF8145026468DF815508DF877
:100AA00008508DF81050CDF8048001F04DF90FCEAC
:100AB000DFF8A8E0254F0EF110050FC50FCE0FC5CA
:100AC00031689DF80800039A9DF81030204E296087
:100AD0008EF80400CEF808208EF80C30BD1D0222DE
:100AE0001B491C4801F090F9338827F8023BAF42BC
:100AF000F5D1184801F01AF944E70146204602F002
:100B000071F90028AAD12CE70000000080842E4152
:100B10004807FF1F0C11FF1F6C07FF1F687E0000B6
:100B20004815FF1F707E00005407FF1F5C16002051
:100B30000000F03FA815FF1F8988884C0000704214
:100B4000290D00007C15FF1FCC9B0120C415FF1F41
:100B50009415FF1FE815FF1F4C7E0000D815FF1FDE
:100B6000F8B51C4C237873B11B4B1D783DB31B4D5E
:100B70001B492A681B48002652001E7001F0FEFA2D
:100B80002E6000232370184C2378BBB1174A1849F4
:100B90001378C3F10103DBB2002021F81300012B0D
:100BA00013700BBF0A884A88124913491348520030
:100BB00000F010FF04F066FF00232370F8BD104E14
:100BC000104932680748520001271F7001F0D6FA19
:100BD0003560D6E7CC15FF1FD415FF1FA8160020DF
:100BE0001C16FF1F6C160020521600208415FF1FD4
:100BF000BC930020B0160020305500208815FF1F40
:100C0000C89B0120C893002070B4214B1B7833B3DC
:100C1000204B1C789CB1204D204B214A2E6804F1BA
:100C20000040013803EB400002EB4602023B33F880
:100C3000021F22F8021B8342F9D134442C60194A66
:100C40001949136809681948013301248B4213605C
:100C5000047002D1164B00221A7070BC70470D4B05
:100C60001C78002CEBD0134D0C4B134A2E6804F16A
:100C70000040013803EB400002EB4602023B33F830
:100C8000021F22F8021B8342F9D134442C60D6E7BC
:100C9000D415FF1F4107FF1FA816002024160020AF
:100CA0001C16FF1FC0930020B015FF1FCC15FF1F9F
:100CB00053160020C89B0120C8930020012809D0AA
:100CC00005D3022802D1054800F034BE704704481D
:100CD00000F030BE034800F02DBE00BF0411FF1F1E
:100CE0008815FF1FB815FF1F10B50C4C4121204679
:100CF00000F0EAFD0A4B2046196800F0F1FD20469D
:100D0000082100F0E1FD20460649082200F064FEBB
:100D100020460021BDE8104000F0D6BDB815FF1FE9
:100D20004407FF1F3807FF1F2DE9F04FA24893B07B
:100D300000F0C2FD002857D09F4800F0FBFD9F4AFD
:100D40009F4B107001221A709E4B00244F281C707C
:100D500000F0778200F2B480452800F03D8440F234
:100D6000D1804B2800F069834C2800F01C83462872
:100D700054D1934B1B78002B50D1934B1B78002BF5
:100D800040F0AE849148924C00F0F0FD2060914814
:100D900005F04CF9206805F011FF02460B460020D3
:100DA0008D4906F0ABF882A3D3E9002305F07CFF60
:100DB0008A4BC3E9000106F031FA07EE100AB5EEDE
:100DC000C07AF1EE10FA07D9DFED857AB4EEE77A52
:100DD000F1EE10FA40F3D2840121824B7B48824C21
:100DE000019300F071FD1CE0804800F065FD0446B1
:100DF00048B17E4800F09EFD704A714B107002228F
:100E00001A70704BA1E7714800F056FD002840F0C1
:100E1000B4806C4B1A78002A40F0C384724C714B3A
:100E200001937048FFF722FB2378002B00F0FC8031
:100E30006F4E704FDFF8E091DFF8E081DFF8E0A15E
:100E4000DFF8E0B16C4B6D4A00252BE038784FF0AD
:100E5000000E88F800E0002800F09B8099F8000060
:100E6000002840F04081664830F81500884225D8B7
:100E7000012188F8001063490978002940F0678152
:100E8000013561490978002940F058810021397005
:100E90002178A94207F1010709F1010908F10108C8
:100EA00040F3C2801BF8050036F8021F3AF810E044
:100EB000585D714489B231800028C7D10135E7E718
:100EC000542800F0E1833ED95A2800F0C882FF2858
:100ED00000F05E825728A1D1394B1B78002B9DD1A1
:100EE000394B1B78002B40F0FB833E4B3748019376
:100EF00000F03CFD454B3C4C18600121334800F0AC
:100F0000E3FC8EE7432800F0508300F23181412852
:100F100084D12B4B1D78002D80D12B4B2B481B7877
:100F2000314C002B40F00B842E4B019300F002FD5E
:100F3000034601462B482370FFF742FC012123485A
:100F400000F0C2FC6DE7522800F0658200F24A8290
:100F500050287FF463AF1A4B1B78002B7FF45EAFF1
:100F6000204B1A48019300F0E5FC294B1E4C1870E9
:100F70000121164800F0A8FC53E7144800F0DAFC01
:100F8000244B1B78834200F0D0830C4A0D4B107821
:100F9000DBE699F80000002840F0AC8032F815003C
:100FA00088428BD301210D44397071E7AFF3008083
:100FB0000000000080842E41B815FF1F9015FF1F10
:100FC000B415FF1FA5160020531600208815FF1F1B
:100FD0005407FF1F7C15FF1F0000F03FA815FF1FDF
:100FE0008988884C241600204107FF1F0411FF1F29
:100FF000221600204C07FF1F1C1600209016002010
:101000005C07FF1FB09300200C16FF1FB015FF1FD9
:101010004907FF1F5807FF1F9815FF1F1016FF1FD6
:10102000C415FF1FB4930020B74B1B78002B40F072
:101030008280B64B1F78002F4FD0B54BDFF8D89287
:1010400093F800E0BEF1000F40F08B80B14AB9F890
:101050000030522122F813102078AF4A013329F8CA
:101060001E30002836D0AD4B55881688DFF8D4B234
:10107000AB4ADFF8A0A2214601384FF0000C18441B
:101080007446013BE0468E4609E0B2F800C02AF8FB
:1010900016C0BC468EB2984202F1020211D013F87B
:1010A000011F0029F7D0711C002CEED011882BF8FD
:1010B0001510984205F10105ADB2B84602F10202E1
:1010C000EDD17446B8F1000F40F07283BCF1000F0F
:1010D00040F06B83934B01221A70934B1B7883B9BA
:1010E00013B0BDE8F08F914830F815008842FFF446
:1010F000E5AEBDE632F8150088427FF653AF013504
:10110000C6E68B4B8B48197800F0DEFB2378002B6A
:10111000E6D0894E019F002503E023780135AB42DC
:10112000DEDD16F8013F002BF7D037F815108148A7
:1011300000F0CCFBF1E7FFF767FD7AE7E9B27F4803
:101140000392029300F0C0FB039A029B9EE60135D6
:10115000E9B27B480392029300F0B6FB039A029B2C
:101160008FE6784A39F81E30522122F8131073E7BF
:10117000754B1B78002B7FF451AE7449624A0D7891
:101180001370002DFDD1724F7248294600F04CFFBC
:10119000D7F800A04FEA4A03B3F5006F40F2D982B6
:1011A0006D4C6E4E207805F009FD8046504689460C
:1011B00005F004FD02460B464046494605F074FD25
:1011C00002460B4605F0BEFB00224FF07D5305F0B2
:1011D0006BFD41EC100B05F01FFB51EC100B05F003
:1011E000FDFF30605146564800F07AFB33688BB102
:1011F00000254FF400625A49564800F005FE4FF4AE
:10120000006257494E4800F0E5FB336801359D42C6
:10121000EFD39B023A682178524D02FB01F2D31AB8
:101220005A002A60002A3FF4FAAD3D4B4C49494828
:10123000019300F0E9FD2A684949414800F0CAFBE2
:10124000EFE5414B1D78002D7FF4E8ADA1213C482E
:10125000454E414C344F00F037FB444B3848196839
:1012600000F03EFB294B424A274942481D700823A3
:1012700015700D704FF47A72194605702848326067
:1012800023703D70FFF79CFA3B4804F0CFFE3068B6
:1012900005F094FC02460B460020384905F02EFE6E
:1012A00017A3D3E9002305F0FFFC354BC3E9000188
:1012B00005F0B4FF07EE100AB5EEC07AF1EE10FAB1
:1012C0007FF6ADADDFED2F7AB4EEE77AF1EE10FAEE
:1012D0003FF7A5ADDFED2C6AFEEE007AE7EE267A49
:1012E000FCEEE77A17EE902A232A7FF698AD0C4B96
:1012F00026492148019304F04FFE92E5AFF30080A8
:101300000000000080842E4153160020A416002007
:101310008415FF1FB0160020BC930020A015FF1FEE
:101320002416002052160020C49300205C07FF1FE3
:101330004907FF1F0411FF1F53160020B815FF1F98
:101340008815FF1F30550020B415FF1FCC15FF1F57
:10135000C09300206C1600204107FF1FC015FF1F1F
:10136000C8930120AC1600205407FF1F4407FF1F3D
:10137000B09300200C16FF1F7C15FF1F0000F03FEC
:10138000A815FF1F8988884C00007042290D0000B5
:101390009F4B1B78012B7FF441ADFFF7A5FC9D4BC4
:1013A0009D4C01933DE59A4D2878FFF787FC9B4BB8
:1013B00006461870002800F0A88101280DD12146AA
:1013C0009748984F00F030FE97489849984A994BB3
:1013D0003E7004600C6014601C702B78002B7FF44E
:1013E0001DADF9E48A4C2078FFF768FC8B4B187030
:1013F000002800F08D8101287FF410AD2078FFF7E0
:101400005DFC8D4A2378003018BF01201070002B3E
:101410007FF404ADE0E47E4B1B78002B7FF4FEAC40
:10142000804B1C78002C00F098810824834800F041
:1014300081FA013CFAD12146CFE4754B1B78002B91
:101440007FF4ECAC734B7E497C480193082200F09A
:10145000CBFA01217948704C00F036FAE1E46C4B8C
:101460001B78002B7FF4DAAC6E4B1D78002D7FF4D7
:10147000D5AC684BDFF80092DFF80082DFF8CCA132
:10148000704F01932E469B46EAB200216148FFF758
:101490009BF96424C9F800605E48FEF7E7FFD9F8BD
:1014A0000030BBF80020013C1344C9F80030F3D1F0
:1014B000A7FB03235B09C3F57F630F331BB22AF835
:1014C00015300135032DA8F80030DDD1DFF8B0B1BB
:1014D00050489BF800205C4F5C4E2146FFF774F9A2
:1014E0004F4800F023FC4FF47A755949594800F0F1
:1014F00087FD6323564A5749079509A809AD8DF81A
:1015000024408DF825408DF818408DF8204005972F
:1015100000F01AFC0FCDDFF86CE10EF110040FC4DF
:101520000FCD0FC42A689DF81800079B9DF8201066
:10153000494D22608EF80400CEF808308EF80C1069
:10154000B41D36F9023B444944482B80022200F086
:1015500015FEA642F5D1002540482F4C00F0E6FBD1
:101560004FF47A7663233E4A3A498DF824508DF839
:1015700025508DF818508DF8205009A809AD059711
:10158000079600F0E1FB0FCD364F07F110060FC6AE
:101590000FCD0FC628689DF81810079A9DF82030C7
:1015A00030603971BA603B733BE4194B1B78002BF8
:1015B0007FF434AC174B2C4920480193082200F0EB
:1015C00013FA082229491D48134C00F00DFA012195
:1015D0001A4800F079F924E40D4D2878FFF76EFBE6
:1015E0000E4B1870002800F08780012807D128785A
:1015F000FFF764FB1E4B003018BF012018701D4B15
:10160000012103F1080203F8011F9342FBD1E4E634
:10161000B415FF1F241600204107FF1FD515FF1F1B
:101620006C16002053160020C0930020C89B012098
:10163000A8160020D415FF1FC49300208815FF1F93
:101640001C1600201F85EB514C7E0000C415FF1FA7
:10165000687E00004815FF1F9415FF1FE815FF1F47
:10166000707E00005C160020A015FF1F541600209D
:101670000C16FF1F4B07FF1FD015FF1F1816FF1F6B
:10168000B4930020D815FF1F4B4B1B78002B7FF421
:10169000C5AB4A4E06F110053446494800F04CF9F6
:1016A00024F8020FAC42F8D1464C04F1100725464D
:1016B000434800F041F925F8020FBD42F8D1424BF2
:1016C0000125002034F8021F36F8022F914234BF62
:1016D00018701D70BC4203F10103F3D1FFF77CBB0E
:1016E0003A4B3748019300F041F900213448384C17
:1016F00000F0EAF8FFF795BB2878FFF7DFFA354BE3
:10170000003018BF0120187079E7334B187064E679
:101710002E4B20780193FFF7D1FA304B2C4C003040
:1017200018BF01201870FFF77CBB254800F002F9B4
:10173000214B2B4A1C7010702A4BFFF706BB234B22
:10174000019300F0F7F829461D4800F0BDF8FFF7B7
:1017500068BB254E1E4C356044E5244918480822D4
:101760004D1E00F041F9E1B215F8012F1748013480
:10177000FFF72AF8082CF6D1FFF72EBBDFED1C6A25
:10178000FEEE007AE7EE267AFCEEE77A17EE902A74
:10179000232A7FF621AB1749174804F0FDFBFFF71A
:1017A0001BBB0F4A1078FFF7D0BAA9F8006091E48C
:1017B000A9F802508AE400BFB415FF1F5A07FF1FA3
:1017C0008815FF1F8E1600209815FF1F2416002075
:1017D0004107FF1FB093002053160020A4160020DD
:1017E0009015FF1FA5160020C015FF1FB493002001
:1017F00000007042290D00007C15FF1FF8B51C4B3E
:101800001C4AC3F860240024DC7183F83C4483F84C
:101810003D4427211848194D194EFEF7A1FF1949DB
:10182000194800F047F81949194800F043F81949D8
:10183000194800F03FF8194B194A1A491C6018461C
:1018400080271F712E6005F039FD174A174B184984
:1018500014744FF47A705474147114731C745C749F
:101860001C711C739060116098601960F8BD00BF16
:101870000C11FF1FA47F000024160020A0160020DA
:101880000000013CEC07FF1F8815FF1FCC07FF1F5E
:10189000B815FF1FBC07FF1F0411FF1F7C15FF1F9A
:1018A0003007FF1F150900005C160020D815FF1F28
:1018B0004C7E000001607047006803681B69184790
:1018C000006803681B681847FFF7FABF034681806A
:1018D00053F8040B0268194653680222184700BFE8
:1018E00070B50546006803680C461B68C9B2984786
:1018F00028680368C4F307211B68984728680368B1
:10190000C4F307411B68984728680368210E1B68C9
:10191000BDE87040184700BF10B504462068036852
:101920001B6998470028F9D0206803685B699847CD
:10193000C0B210BDFFF7F0BF10B5044620680368C1
:101940001B6998470028F9D0206803685B699847AD
:101950002071206803681B6998470028F9D0206827
:1019600003685B6998476071A08810BD10B5044694
:10197000206803681B6998470028F9D0206803682D
:101980005B6998472071206803681B6998470028A5
:10199000F9D0206803685B69984760712068036824
:1019A0001B6998470028F9D0206803685B6998474D
:1019B000A071206803681B6998470028F9D0206847
:1019C00003685B699847E071606810BD0068036850
:1019D0005B681847FFF7FABF006803685B68184741
:1019E000006804F08DBB00BFFFF7FABF10B4047F9E
:1019F0004160022CC26003D05DF8044B04F092B841
:101A000083685DF8044B1847F0B4464B464A986B20
:101A10005C6B01791170454922790A701A6B007963
:101A20000870002A46D05968C9688A423ED82168A1
:101A3000CC8B240402F1FF3065D4C0F30E00C883C0
:101A4000C88B80B2C882996B0968C88B000452D4D5
:101A5000C2F30E00C883C88B002480B212F1FF329B
:101A6000C88218BF01221C63596B2E4809680D6893
:101A700000F12C04A54236D00068C46814F0804FF1
:101A80000C680D6815BF248824780235013544F0B0
:101A900000440D604463996B254B09791970214905
:101AA00012B14A6B12791A70F0BC7047521A1A635D
:101AB0000122D9E7D86B196805681E4C0A63CC620D
:101AC000CC682D681C4E24F080440327B542CC60BE
:101AD00083F82D701FD1037F4260022BC2601ED09D
:101AE000F0BC04F01FB8016890F82C00CC6840F0FE
:101AF00000404863CFE7CC8BC2F3080004F47E4477
:101B00002043C883A7E7CC8BC0F3080004F47E44CD
:101B10002043C88394E72B461146F0BC18478368DE
:101B2000F0BC18476C07FF1F1F8000401C8000405E
:101B30001B80004000000FFFED19000090E80C0032
:101B4000F0B41C6859682568164F174E2943216068
:101B5000164D17491760D66015611160417A154A14
:101B60005C180C3194F82C4053F8215002EBC4015E
:101B700049680D60017A5C1803EB8101247ECD6910
:101B800002EBC40149680D60817A581803EB8103A8
:101B900090F84000596C02EBC002F0BC5368196029
:101BA000704700BF01401F0001100038011000788D
:101BB00000001F80B87F000038B504460D4624227F
:101BC000002105F0A7FEA560EB79102B08D0202B93
:101BD00004D1402301202370A07038BD002038BDFF
:101BE000202301202370A07038BD00BF2DE9F041F3
:101BF000037803F020032BB903F0FF044269214B63
:101C00009A4204D94FF000084046BDE8F08183783D
:101C10000169054663F07F038068AB7005F110022F
:101C200001F088F880460028ECD02969A86801F006
:101C30000DF80646A86831462430052200F0CEFF94
:101C400007460028DED04FF40072214605F062FE00
:101C5000AB681A79012A10D9012403E0AB681A791C
:101C6000A2420AD918680368A1199B683A469847A6
:101C70000134E4B20028F1D1C4E76B6903EB4222DE
:101C80006A61C1E7FFFD1F0010B5044680680A467F
:101C90002430A16900F0A2FF20B1A38803F00F0354
:101CA00000EB431010BD00BF38B590F90230002B97
:101CB000044618DBA56805F1240000F0BFFF28B931
:101CC000637843F001036370002038BD05F50C70A4
:101CD00000F0B4FF0028F3D0286803685B689847D9
:101CE0000028EDD0F1E70121FFF7CEFF05460028DF
:101CF000E6D00378E52BE3D023780B4A1B0744BFDB
:101D0000E369C361236A126843831B0C83822AB18F
:101D100000F11601183090472B8B6B82A37803F0EB
:101D20007F03A370C6E700BFD09B012010B50378E6
:101D300004461BB900232370012010BDFFF7B4FF38
:101D40000023237010BD00BFF0B5064693B0357870
:101D5000019200208DF824008DF825002DB91F4632
:101D60000B7813F0700F0C4602D1002013B0F0BDB9
:101D700013782F2B104616D10130019003782F2BAA
:101D8000FAD0002B34D0A16809A8FFF715FF00286E
:101D9000EBD0019809AC06E03046FFF785FF002341
:101DA0000198337009AC01AA03A900F0F3FA03AA61
:101DB000214601230028D8D0019D2D7830467DB1E1
:101DC00000F004FD354609AC0028CED00FCD0FC47D
:101DD0000FCD0FC433782A682260002BDFD0DBE7F9
:101DE0003B4603AA2146304600F0F0FC13B0F0BD9C
:101DF000A1683046FFF7E0FEB8E700BF03780BB1FB
:101E000000207047FFF7D8BE2DE9F04F0F4601784C
:101E100083B0054611B18378DC0708D46B784FF0A6
:101E2000FF3043F002036B7003B0BDE8F08F0B0787
:101E3000914600F18780880608D5AA686B691289E7
:101E4000C3EB42139BB2994528BF9946B9F1000FE5
:101E500000F097806B698A064E464FF0000805F146
:101E6000100AC3F3080B3FD5AA68116A01EB53218E
:101E7000BBF1000F52D1B6F5007F4FD3D36A994220
:101E80004CD0B6F5806F66D3287880064FEA562B83
:101E900006D41079C8EB0000C0B2834528BF834642
:101EA00099424FEA4B240BD85B44994208D202F185
:101EB0002400019100F0C2FE0028AFD0AA68019969
:101EC000106802685B46D2F80CB03A46D847002842
:101ED000A4D06B69361B234427446B6151D0297809
:101EE0008A06C3F3080BBFD4A86890F8058008EAF7
:101EF0005328BBF1000F2CD1B8F1000F29D1002BD2
:101F000034D14C064CBF016A296A296100F09EFE5B
:101F1000AA6808EB0001BBF1000FACD002F124006D
:101F2000002200F05BFE00283FF478AFCBF5007490
:101F3000B44228BF344600EB0B012246384601F07C
:101F4000BBFDC6E7EB696A699B1A994528BF9946AC
:101F50007CE72969DAE7106803683A461B68984706
:101F600000283FF45BAF4FF40074B2E75246296992
:101F700000F072FE0028FFF651AF08D0A86829696A
:101F8000C4E70026C6EB090003B0BDE8F08F2B784C
:101F900013F0700FF6D141E770B582B001220DF158
:101FA0000701044646690569FFF72EFF012805BFB2
:101FB0009DF8070066614FF0FF30256102B070BDEB
:101FC00030B54369C3F3431583B0044605B189B9FD
:101FD00001220DF107012046FFF716FF40B201284C
:101FE0000BD163691F336361A068303000EB45108B
:101FF00003B030BD20334361F6E7002003B030BDAD
:1020000010B58AB000240A460223014601A88DF8C3
:1020100004408DF80540FFF797FE10B101A800F0CD
:10202000DFFA0AB010BD00BF2DE9F041037807695F
:10203000044693B142698A420E4636D021B92161E5
:1020400066610120BDE8F08118070AD499060BD516
:10205000A3681B89B6EB431FF2D927610020BDE8B6
:10206000F081E1698E42F8D8D4F808E09EF8065075
:10207000511E05F10900751EC140C540A94200D896
:10208000B2B95B064CBFDEF82030236A236104F14D
:1020900010084246002DD3D02169A06800F0DCFD75
:1020A000002805F1FF35F4DCD7E70120BDE8F08119
:1020B0006D1AECE72DE9F0418846154600212422EF
:1020C00004461E469DF8187005F024FCD8F8080058
:1020D000D8F82030E36005F00F02520100F1300122
:1020E0001144A060A580CB7A1B0714D4831893F801
:1020F0003B3003F017032370C97AE77011F0180F13
:1021000004BF43F00803237016F0320F07D0237882
:1021100013F0110F03D000202070BDE8F08106F00D
:102120000F05A5700244C36AA361B2F84410B2F867
:102130004A30F70643EA014107D42162D36CE361D8
:10214000B30607D40120BDE8F08151B965F07F05E1
:10215000A570F5E7E1692046FFF766FF0028F1D199
:10216000D9E700F023FE0028D5D0A578EEE700BF20
:1021700003780BB1FFF798BD012070472DE9F84FA8
:1021800003781E0704466FD583789D076CD55B07DF
:102190000F46904600F1CD806369DA43904563D8DD
:1021A000B8F1000F00F0B68046464FF0000933E06A
:1021B000002940F08380216A002900F08A80216193
:1021C00000F044FD0146B6F5007F55D3B6F5806FAB
:1021D00066D3A2681379D06A5B1BDBB2750AAB4287
:1021E00028BF2B4681424FEA432508D81844814234
:1021F00005D282F824904FF0FF30D062A2681068B8
:102200000268D2F810A03A46D04768B36369761BDB
:102210002B442F4463617DD0A0682169457915EA7C
:102220005325C3F3080A34D1BAF1000FC0D000F02F
:102230000DFD0146CAF50075B54228BF354601229D
:10224000A068243000F0CAFC70B150442A463946D8
:10225000AA4401F031FCBAF5007FD7D1A068243040
:1022600000F0ECFC0028D1D1637843F001036370E7
:102270004FF0FF30BDE8F88F6369E269B6F5007F83
:10228000354628BF4FF40075934234BF0122052222
:10229000D6E700F0DBFC2918BAF1000F93D0C9E7AC
:1022A000A368DA6A914222D0186803683A469B68AC
:1022B00098470028D8D04FF40075A7E704F1100B19
:1022C0005A4600F0C9FC0028CEDB17D02169A0686F
:1022D00076E7A37863F07F03A37004F1100200F0A7
:1022E00029FD0028C0D021692162A06868E783F831
:1022F00024904FF0FF32DA62A368D5E7A378216912
:10230000A06863F07F035A46A37000F013FD002815
:10231000DCD1A9E7E2699A4212D2A278E36142F0E5
:102320008003A3701A0701D523788BB94046BDE816
:10233000F88FE169FFF778FE00287FF42DAF93E76F
:10234000074B1B6853B1A37843F08003A370E9E700
:102350002046FFF7A9FC0028E8D185E7A378E1E74C
:10236000D09B012038B5CB6873B105460C462422BA
:10237000002105F0CFFA102301202B70A870A2686D
:10238000E3682B62AA6038BD8968BDE83840FFF772
:1023900035BD00BF2DE9F04F0378202B03D110F895
:1023A000013F202BFBD088600378002B00F00781D1
:1023B0002F2B2FD05C2B22D0A3F12204E4B21D2CB2
:1023C00020D9DFF818E2461C00247C2BA3F120055D
:1023D000374614D05E2D12D816F8013BA3F1220522
:1023E000EDB20134002B00F0D3802F2B13D05C2BE7
:1023F0002EFA05F703D01D2DE7D8FF07E5D50020FD
:10240000BDE8F08F754D25FA04F4E407D9D5002016
:10241000BDE8F08F002407193E4625462F2302E031
:1024200016F8013F0135202BFAD02F2BF8D00544A8
:1024300015604CB13A4612F8013D2E2B02D0202BEC
:1024400040F0A980013CF6D14FF0FF3523464B60A8
:1024500001F1170601F10C03202203F8012FB3420A
:10246000FBD1461E002200E0013216F8013F2E2B60
:10247000FAD0202BF8D0B2FA82FC6E1C4FEA5C1C1A
:102480000CD0475D2E2F00EB050604D106E016F8B0
:10249000017D2E2F02D015F1FF35F8D2A2424FF068
:1024A000000980F291804E46CA4607274FF008087F
:1024B00025E02E2B47D0222B0BD07C2B09D0A3F16B
:1024C0002A0EBEF1050F48D9A3F13A0EBEF1050F51
:1024D00058D8954239D0B74229D34FF0000C5F232A
:1024E00006F1010E01EB060B5FFA8EF6062E8BF855
:1024F0000D3000D80E730132A24207DA835C202B24
:10250000D7D10132A2424FF0000CF7DB4B7B202BDE
:102510003FF475AFBCF1000F47D01AEA090F18BF9E
:102520004FF0020981F800900120BDE8F08F0A2FDA
:1025300037D0954235DB2A460A2708264FF0100887
:102540004FF0000CD7E79542DBD10A2F29D02A465D
:102550000A2708264FF01008CDE72D2BB9D1A3F19B
:10256000210EBEF15D0FB4D89542EED0B742DED356
:10257000A3F1610EBEF1190F28D8203BDBB248EA67
:102580000909ADE7A3F15B0EBEF1020FA1D9E6E7A1
:10259000176007194EE7FF2C3FF731AF651E234642
:1025A00055E74B7B202B3FF42AAF0B7B0B440120DC
:1025B0007E24312208705C739A73BDE8F08F10603E
:1025C0001C464FF0FF3542E7CA469FE7A3F1410E94
:1025D000BEF1190F98BF48EA0A0A81E701010035E8
:1025E0002DE9F04102788AB0002311078DF80430FC
:1025F0008DF8053002D583789A0704D4002630463A
:102600000AB0BDE8F081016A0546002965D10121C3
:102610002846FFF739FB0028F0D0411E00F10A07D9
:102620000024620811F8016F42EAC41356FA83F3DA
:102630008F42DCB2F5D14FF0E50880F80080AE683B
:10264000002306F124002B7000F0F8FA0028D5D002
:1026500006F50C7000F0F2FA0028CFD0306803685D
:102660005B68984706460028C8D0EB78002BC6D098
:1026700001A82946FFF776FE0028BFD0EB78002B93
:10268000BCD001271FE001A8FFF79AFC7B1C0028A3
:10269000B4D0C27A0F2AB1D1027802F01F018F4262
:1026A000DFB2ABD1437BA342A8D180F80080A968F8
:1026B00091F8243043F0010381F82430530612D4FA
:1026C000EB78BB429AD3A988C91B490101A8FFF73F
:1026D000ABFC00210028D6D190E7A86800F066FB8B
:1026E00000288BD093E7AC6804F1240000F0A6FA30
:1026F000002883D004F50C7000F0A0FA00283FF405
:102700007DAF206803685B68984700283FF476AF88
:1027100075E700BF2DE9F8430F7B0E46044601F133
:102720000D054FF002084FF07E097068B16808EBA4
:1027300000039BB240B1084411F8012B03EB431393
:10274000534088429BB2F7D1032F28BF03273A1D7D
:10275000D2B203F00F01B018013A0929D2B294BFE6
:102760003031373197424FEA13134173F1D3F319E4
:10277000002183F80D902046FFF756FC01212046EA
:10278000FFF71EFC0B2203460146A8B193F800E0B8
:102790002846BEF1000F15D0DB7A1B07EED405F0FA
:1027A00087F80028EAD108F101081FFA88F8B8F183
:1027B000640FBAD1BDE8F8836078B0FA80F04009C0
:1027C000BDE8F8830120BDE8F88300BF2DE9F04F94
:1027D0000C7814F0700F8BB001D004781CB100207D
:1027E0000BB0BDE8F08F1478D2F804B0A40740D144
:1027F0004FF001090E4692460990002130460F46DF
:102800000893FFF711FC0AF10D03079703973C4665
:10281000B84606970593756901213046C5F34F15F3
:10282000FFF7CEFB002800F0A1800378E52B39D01C
:10283000002B37D04C4538BF00242E2B2FD0C27A26
:102840000F2A3DD002F0080202F0FF033ABBB8F1B4
:10285000000F40F066810B22059905F029F8002849
:10286000D9D19AF80030DB0740F16F81012306933C
:10287000D1E7BF4D0BF10C04A5FB04494FEA9909C0
:1028800009F101095FFA89F9B4E7039A013AD2B272
:102890009342039203D1437B079A9A421BD04FF095
:1028A0000008B8E7002C08BF2F464C453CBF013458
:1028B000E4B2002B5ED0E52BBFD14FF00008AAE7B1
:1028C000B8F1000FE1D15A06A5D503F01F08437BEC
:1028D000CDF80C800793039B013B03EB430503EB0F
:1028E0008505AB45DBD9C5EB0B0C0023049018E044
:1028F000DAF80800D2B2A2F1410E415CBEF1190F24
:1029000098BF2032A1F1410E98BFD2B2BEF1190F8B
:102910009CBF2031C9B29142C1D101330D2B3FF48C
:102920007AAFDAB2042A05EB03010DD90A2A17D9C6
:1029300004985A1C00EB420292889C450BD0FF2A57
:10294000D6D94FF0000866E7049A02EB43029C4593
:10295000B2F80120F3D1002A18BF4FF000085AE75F
:1029600004985A1E00EB4202D288E6E77378002BE7
:102970007FF435AF089B03F04203422B7FF42FAF67
:10298000002C18BF3D464C4503D31AE0DCB2A145EC
:1029900017D900213046FFF713FB631C0028F5D13F
:1029A000737823B11BE7B3681B79012B09D8A145C4
:1029B00007D93046FFF71AF91034E4B20028F2D1F3
:1029C0000DE7069B33B151463046FFF7A3FE0028C2
:1029D0003FF405AF69013046FFF726FB00283FF4BE
:1029E000FEAE09F1FF3818F0FF0866D048F040034A
:1029F000DBB203934446002500213046FFF7E0FA9E
:102A000000283FF4ECAEB268039992F82430A04558
:102A100043F0010308BF8E464FF00F0718BFA646CC
:102A200082F824300AF10C01C772057380F800E0C7
:102A30000AF11707002311F801CF5A0842EAC3131D
:102A40005CFA83F38F42DBB2F5D10EF01F0E0EF16C
:102A5000FF3E4373DAF8083085760EEB4E020EEB3C
:102A6000820203EB0209C57600230FE0042B19F85C
:102A7000031000EB430EDFB214D90A2F72D8AEF860
:102A8000041001330D2B02F1010212D09345EDD851
:102A900014BF4FF0FF310021042B89B200EB430E2D
:102AA000DFB2EAD801330D2BAEF8011002F10102BA
:102AB000ECD1013C14F0FF049ED100213046756931
:102AC000FFF77EFAC5F34F15044600283FF487AEA2
:102AD0002022002104F01EFF5346264953F80D2FF3
:102AE0005868606022601A899B7AA37222819AF8E2
:102AF00000200B6802F018022273002B3CD004F176
:102B00000E0104F110009847238AE189B2686382BC
:102B10002383E18292F8243043F0010382F82430C9
:102B200017E0039A012A7FF45AAE441E0A3014F8C3
:102B3000011F5A0842EAC31351FA83F3A042DBB2E1
:102B4000F5D1079A9A427FF44AAE089B1F063FF5DB
:102B500046AECDF80080089B09982A463146FFF71B
:102B6000A9FA3DE6013300EB4307B9808AE700BFCD
:102B70004FECC44ED09B012021212822A3730823AF
:102B80002174E37362744FF4006142F62103BDE7E0
:102B9000F8B54368816800F10C06044618680368BC
:102BA00032469B68984740B123789A07054607D478
:102BB00023F0010323702846F8BD00252846F8BD00
:102BC0006368A16818681F690368324639449B68C6
:102BD00098470028F1D02378EAE700BFF8B583686A
:102BE0008B42064614460FD00378DA070F4612D4FC
:102BF000630716D506F10C05002304F003041C43FB
:102C000034702846B760F8BD10F90C3B04F003049B
:102C10001C433470F8BDFFF7BBFF0028E8D100204B
:102C2000F8BD73681868036806F10C051B682A462E
:102C3000394698470028DFD1F1E700BF0378DB076A
:102C400001D401207047FFF7A3BF00BF837940691B
:102C50000239994008447047012933D9C369994220
:102C600030D870B5C379202B164605460C4618D0CF
:102C7000102B13D18369C1F307211944022200F5F7
:102C80000C70FFF7ABFF48B1E1B230F81130EA69E0
:102C900093429ABF01203360002070BD4FF0FF3097
:102CA00070BD8169022201EBD41100F50C70FFF7B1
:102CB00095FF0028F2D004F07F0150F8213023F076
:102CC0007043E4E74FF0FF30704700BF01291DD982
:102CD00038B5C369994206D8C379202B15460C46EE
:102CE00016D0102B01D0002038BD8369C1F3072115
:102CF000194400F50C700322FFF770FF034600280B
:102D0000F1D0E1B2012023F8115038BD0020704706
:102D10008169032200F50C7001EBD411FFF75EFF0F
:102D200003460028DFD004F07F01012043F8215042
:102D300038BD00BF2DE9F041054682B090460F46F0
:102D4000C1B9C668344604E001D0019BA3B1B442C6
:102D50000BD0EB6901349C4288BF0224214601AAB2
:102D60002846FFF779FF0028EEDA0026304602B049
:102D7000BDE8F0810E46E5E76FF070422146284637
:102D8000FFF7A4FF06460028EFD037B9EC603046C5
:102D9000C8F8004002B0BDE8F08139462846224616
:102DA000FFF794FF0028F2D1DFE700BF70B50546BA
:102DB00082B00C4608E0FFF789FF80B1EB689C42C7
:102DC00038BFEC60019C5EB101AA21462846FFF79E
:102DD00043FF061E21464FF000022846EBDA002092
:102DE00002B070BDF8B5044600224FF0FF33012059
:102DF000A462C4F83442E060E27184F8242084F8CC
:102E00003022E362C4F838320D46C1B1042901D939
:102E10000020F8BD04F1240630461146FFF7DEFE1F
:102E20000028F5D000EB051393F8AE315B06EFD127
:102E30001B3500EB0515D5F8065015B9E8E704F188
:102E40002406304600222946FFF7C8FE0028DFD0BE
:102E5000B0F80B30B3F5007FDAD1037C022BD7D169
:102E6000C389002BD4D0467B2671731E0021012E0E
:102E70006371A1710ED001210A4600E0194652008B
:102E8000D2B24B1C9642DBB203D0092BF6D1A17112
:102E9000BEE7A171C38A4BB31F462761C6892E4482
:102EA000A661B0F8113023815A0102F2FF1206EB3D
:102EB000470303EB622262612362B0F8133003B967
:102EC000036AAD1A1D4425FA01F140F6F4734A1C59
:102ED0009942E2610CD94FF6F473994285BFC36AF7
:102EE000236210232023E3710120F8BD476AD4E751
:102EF0000C23E3718CE700BFABB1F8B50C46064676
:102F000015465F1801E0BC420BD033682A462146C3
:102F10001B6830469847013405F500750028F2D14A
:102F2000F8BD0120F8BD0120704700BFABB1F8B576
:102F30000C46064615465F1801E0BC420BD03368CC
:102F40002A4621469B6830469847013405F50075AE
:102F50000028F2D1F8BD0120F8BD0120704700BF64
:102F600070B5037B012B04460D46164606D0236838
:102F700020465B68984798B9002070BD43688B4233
:102F8000F5D13146204600F021FC0028F4D06368DA
:102F9000A26801339342636024BF0023237370BD92
:102FA00005F57F42FF3222F47F7222F00302A26015
:102FB0002946521B204600F07DFC0028DCD001236E
:102FC00065602373DDE700BF037B012B07D0022B75
:102FD00001D0012070470023037300F06BBD002374
:102FE000037300F0AFBC00BF70B5037B022B044637
:102FF0000D46164606D0236820465B68984798B968
:10300000002070BD43688B42F5D13146204600F068
:103010009BFC0028F4D06368A2680133934263608C
:1030200024BF0023237370BD05F57F42FF3222F4D5
:103030007F7222F00302A2602946521B204600F054
:10304000F1FC0028DCD0022365602373DDE700BFBC
:10305000034B04481B681840B0FA80F040097047E1
:1030600030100B4001000F00024B186800F0010007
:10307000704700BF24100B40014B1878704700BF09
:10308000149C0120034B186880F40060C0F3C0203A
:10309000704700BF24100B40034B186880F4806019
:1030A000C0F38020704700BF24100B40034B04483E
:1030B0001B681840B0FA80F04009704730100B4090
:1030C00002007F114FF47A722C4B02FB00F0984201
:1030D000F0B44BD82A4D0822012149000B01B5FB61
:1030E000F3F39842264C3DD2013AF6D1B4FBF1F409
:1030F0004B081F02A0423DD2214E4B00012200E0AE
:103100002346B6FBF3F4A04202F1010503EB0104F0
:1031100026D2102D2A46F3D1F0221A4E1A4C184806
:103120001A494FF47A7505FB03F3B0FBF3F33360F0
:10313000236823F008032360206820F47F2323F40E
:103140007F6343F460233B431A4322600B681B07F1
:10315000FCD50D4A136843F008031360F0BC7047B8
:103160001201DAE7B4FBF1F4CF01C3E7044C002706
:103170000121BFE70B460022CFE700BF4FA9AB00FC
:103180000095BA0A189C01202C100B4024100B400B
:10319000F8B5054600F042FE064F064604E000F092
:1031A0003DFE801BB84203D8A84704460028F6D14C
:1031B0002046F8BD20A107002DE9F041DFF840804E
:1031C0000E4FC8F80000054600F028FE064606E04F
:1031D00000F024FE801BB8420AD802F0C5FFA847C1
:1031E00004460028F4D1C8F800002046BDE8F0816C
:1031F0000023C8F800302046BDE8F08120A1070078
:10320000DC9B012038B504460F480D46FFF7C0FF90
:1032100008B1002038BD0D4A0D4B15600D481C60EB
:10322000FFF7B6FF0028F4D10B4A0C4B1168196068
:10323000196811601A68D207EBD51B6813F4702F58
:10324000E7D1012038BD00BF6930000008100B40F5
:103250000C100B405130000030100B40FC9B012043
:1032600030B5154B85B00D461968FFF7CBFF00B39D
:10327000124A134B12680092196801915968029121
:10328000083305F10F041B680393002301E051F894
:10329000102C03F00301C9000133CA400DF1100ED8
:1032A00023F003010F2B714404F8012DEFD100230B
:1032B000EB7305B030BD00BFE89B012010100B4040
:1032C00014100B4008B5074B07481968FFF79AFF21
:1032D00030B1064B186880F48070C0F3002008BD40
:1032E000012008BDE89B012000001A0D10100B40C2
:1032F000054B186810F0020005D01B680348184001
:10330000B0FA80F040097047FC9B012000007F115B
:1033100070B500211548FFF775FF044640B9144900
:10332000144B28204FF4C97208701A60204670BDF3
:103330001148FFF741FF70B910481149114D066857
:103340000B682A6823F4803342F080622A600660AA
:103350000B60204670BD0649064B292040F29512AD
:10336000087000241A60204670BD00BF0000DB0C0E
:10337000AC07FF1FD89B0120C532000034100B4062
:1033800028100B402C100B40F8B5044619480D4688
:10339000FFF7FEFE38B11849184B2920EC220870BF
:1033A0001A600020F8BD164F164B174ADFF878E078
:1033B000164E17494FF0010C87F800C01860154BE6
:1033C0001560154F154D164ACEF800401548376068
:1033D0000D601A60FFF7F0FE18B9FFF789FF00B122
:1033E000F8BD0549054B2320F62208701A6000201D
:1033F000F8BD00BFC5320000AC07FF1FD89B0120FD
:10340000149C0120FC9B012000100B4004100B4079
:1034100038100B400C100B404000010002007F11DF
:1034200011003A067930000008100B4010B4074C28
:10343000074A084908480023236014680C6009689B
:1034400011605DF8044B0370704700BF38100B40EB
:1034500030100B40FC9B0120149C01202DE9F04F03
:10346000AE4DAF48DFF83483AE4FAF4EAF49DFF813
:1034700030E3AF4C00232B70026888F8003042F034
:1034800040623B70337002600A6842F400320A60A6
:1034900000F57E3001F59F4104305C31CEF80030FC
:1034A000036023600B6001F5C821A24AC36020318C
:1034B0004FF08070136091B00A46086013689E4C0C
:1034C000D901FBD44FF4C870FFF7FCFDDFF8D4E25C
:1034D000DFF8CCC29648994A994940F24343CCF868
:1034E0000030CEF800304FF4886EC0F800E0136072
:1034F00002F5C82228320B60C3609249924B934870
:10350000106060204FF4003208701A60236843F0A6
:1035100000632360216811F00061FBD10846FFF7CA
:1035200071FE044600284ED00A244FF4D571884815
:10353000FFF768FE00285DD1013CF6D13378854E57
:10354000002B08BF4FF4401600F068FC824C814607
:1035500000218248FFF756FE50B9814A40F2E3113C
:10356000432311602B700024204611B0BDE8F08F7A
:1035700031467C48FFF746FE0028EED000F04EFCB6
:10358000794B754AC9EB00009842E6D82368002BB6
:10359000DEDA764B11681960136875485A0048BF27
:1035A00001234FF0000148BF3B70FFF72BFE04469C
:1035B00098B96B4A40F2ED112123204611602B701F
:1035C00011B0BDE8F08F664A4FF4E9712023204620
:1035D00011602B7011B0BDE8F08F00216548FFF736
:1035E00011FE0446D0B95E4A4FF4F87122231160EF
:1035F0002B70B9E7584B1B68B3F5D57F0AD0584AF2
:1036000000244FF4EC712523204611602B7011B07B
:10361000BDE8F08F012333704E4E95E74E4B564E6A
:103620001B68564956481B0C1B043360FFF718FEF5
:10363000044630B94A4A40F2F511262311602B7036
:1036400092E750495048FFF70BFE044630B9444A10
:103650004FF4FC71272311602B7085E731684B48CC
:10366000FFF7D0FD044630B93D4A40F2FB11242358
:1036700011602B7078E731683848FFF7C3FD38B91F
:10368000374A40F2FF11402311602B7000246BE792
:1036900002213F48FFF7B6FD04460028F0D03D4B1D
:1036A0003D481A6822F006021A601A684FF0101599
:1036B00042F002021A60694605606FF07F40FFF732
:1036C00063FE18B19DF80D309B076DD446F2A8102B
:1036D000DFF8CCB0DFF8CCA0DFF85490174F184ECD
:1036E000144D0023CBF80030CAF80030C9F8003080
:1036F0003B6033602B60FFF7E5FC40F243434FF43F
:1037000088610122CBF80030CAF80030C9F80010F7
:103710003B6033602B6088F8002025E7AC07FF1F73
:1037200000D80040E09B0120D49B01203080044061
:1037300008D0044014D004402C100B400CD004409E
:1037400010D0044051E400E008E100E00B007F11DC
:1037500000001A080000304010100B4000001A371B
:10376000D89B01200000022920A10700E49B012032
:103770000000090200001A03E89B0120049C0120BC
:1037800000000909EC9B01200000090A00001B074A
:1037900000001A0628100B4044100B40009C01202A
:1037A00000D0044004D0044069460748FFF7ECFD10
:1037B00000288BD09DF8103003F00F03012B85D12A
:1037C0004CF2503084E700BFF1FFFF8038B52E4B3C
:1037D0001B6898050D4615D42C4B2D491A6822F408
:1037E00080321A600A68120C1204B2F5803F46D08B
:1037F00072B61A6842F400321A601A6842F48032D3
:103800001A6062B62348FFF7C3FC00282ED11E4C75
:1038100021482B1F05F5FE7522681105FCD503F123
:103820004001026843F8042F9942FAD1A9420B469D
:10383000F2D11A48FFF7ACFC78B9194A194B116854
:103840001960196811601A68920705D51B68164837
:103850001840B0FA80F0400938BD1449144B552087
:1038600040F2932208701A60002038BD0F49104BB7
:1038700052204FF4227208701A60002038BD1A6876
:1038800042F400321A60BDE724100B4028100B40B0
:1038900004100B408530000020100B40AD300000BC
:1038A00030100B40FC9B012000007F11AC07FF1F74
:1038B000D89B0120B2F5803F38B508D31A491B4B7D
:1038C00054204FF42A7208701A60002038BD18483E
:1038D0000D461446FFF770FCE8B9012C04D9154ACF
:1038E000136843F480331360134B14491B7822048C
:1038F00042F400720A6063B969021148FFF782FC62
:1039000030B90949094B312440F2B2220C701A60D7
:1039100038BD2946F1E70449044B292040F2AB2287
:1039200008701A60002038BDAC07FF1FD89B01202B
:10393000C532000028100B40E09B012004100B4012
:1039400036003A12FFF7E4BC38B52B4B1B68D8059C
:103950000D4613D4294B2A491A6822F480321A6082
:103960000A68120C1204B2F5803F1A6842F4003261
:103970001A6003D01A6842F480321A602148FFF7B7
:1039800007FC00282ED11C4C1F482B1F05F5FE7587
:1039900022685105FCD503F1400153F8042F026061
:1039A0009942FAD1A9420B46F2D11848FFF7F0FB31
:1039B00078B9174A174B11681960196811601A68AD
:1039C000920705D51B6814481840B0FA80F04009EA
:1039D00038BD1249124B5A2040F2FD2208701A607D
:1039E000002038BD0D490E4B582040F2F2220870DD
:1039F0001A60002038BD00BF24100B4028100B4077
:103A000004100B409930000020100B40AD30000036
:103A100030100B40FC9B012000007F11AC07FF1F02
:103A2000D89B0120B2F5803F38B508D31A491B4B0B
:103A300059204FF4437208701A60002038BD1848AE
:103A40000D461446FFF7B8FBE8B9012C04D9154A16
:103A5000136843F480331360134B14491B7822041A
:103A600042F400720A6063B969021148FFF7CAFBA9
:103A700030B90949094B33244FF446720C701A606F
:103A800038BD2946F1E70449044B29204FF444721C
:103A900008701A60002038BDAC07FF1FD89B0120BA
:103AA000C532000028100B40E09B012004100B40A1
:103AB00026003A19FFF72CBC844641EA000313F0B4
:103AC00003036DD1403A41D351F8043B40F8043B25
:103AD00051F8043B40F8043B51F8043B40F8043BE8
:103AE00051F8043B40F8043B51F8043B40F8043BD8
:103AF00051F8043B40F8043B51F8043B40F8043BC8
:103B000051F8043B40F8043B51F8043B40F8043BB7
:103B100051F8043B40F8043B51F8043B40F8043BA7
:103B200051F8043B40F8043B51F8043B40F8043B97
:103B300051F8043B40F8043B51F8043B40F8043B87
:103B400051F8043B40F8043B403ABDD2303211D327
:103B500051F8043B40F8043B51F8043B40F8043B67
:103B600051F8043B40F8043B51F8043B40F8043B57
:103B7000103AEDD20C3205D351F8043B40F8043B27
:103B8000043AF9D2043208D0D2071CBF11F8013B25
:103B900000F8013B01D30B8803806046704700BFEB
:103BA000082A13D38B078DD010F003038AD0C3F1FA
:103BB0000403D21ADB071CBF11F8013B00F8013BDC
:103BC00080D331F8023B20F8023B7BE7043AD9D39B
:103BD000013A11F8013B00F8013BF9D20B78037070
:103BE0004B7843708B7883706046704708B5104CF3
:103BF00008E0236859050DD423681A050FD42368FB
:103C0000DB0411D423685803F3D501F047F9236886
:103C10005905F1D502F0B0FB23681A05EFD500F085
:103C200053FD2368DB04EDD501F012F8EAE700BF8D
:103C30003480044008B5FFF7D9FF00BF014B1022C4
:103C40001A80704700200540704700BF094908B539
:103C50000B6830B16A461844A2F50052904202D275
:103C60000860184608BD03F035FB0C2303604FF0D5
:103C7000FF3008BDB007FF1FEFF3138070B9EFF3FB
:103C800010836BB9EFF305825AB94FF48070EFF3EC
:103C900011832BB1984228BF184670474FF0FF3070
:103CA00070470F2A01D81846F1E7014BD05CEEE7C8
:103CB000F0E300E0084A1378802B01D00020704721
:103CC0000649074B07480860002119701378802BBC
:103CD000FCD00120704700BF03E00740448004404F
:103CE00001E0074000002822094A1378012B01D087
:103CF0000020704703F1804303F5FC236021197015
:103D00001378802BFCD1034B034A1A6001207047C3
:103D100003E00740448004400000060210B4114B49
:103D200053F8302092F8804234B1012379B182F8FF
:103D300080305DF8044B704703EBC0035B681A6882
:103D400051B922F002021A605DF8044B704782F804
:103D500000315DF8044B704742F003021A605DF8D1
:103D6000044B7047B87F00001C4A02EBC0030129D6
:103D70005B6811D004291BD052F83000002280F873
:103D8000802229B1022920D0032922D01A6070474D
:103D90004FF480721A60704752F830004FF4A272EC
:103DA00080F880121A601A6822F020021A607047A8
:103DB00052F830104FF4A272012081F880021A608C
:103DC0001A6842F020021A60704740F203121A602B
:103DD00070474FF481721A60704700BFB87F0000CF
:103DE00030B4054B054D064C002210211A602A60A4
:103DF0002060196030BC704714D0034004D00340E9
:103E000000D003403F2801D8FFF788BF704700BFAC
:103E10003F2801D8FFF7A8BF704700BF72B60D4911
:103E20000D4B0E4A1B680868126862B6520102D533
:103E3000322B88BF0130C3F52F33094903F21F33FA
:103E40004FF47A729B08A1FB031302FB00F000EB16
:103E5000930070471C9C012018E000E004ED00E096
:103E6000176CC1162DE9F843054672B6224F234B55
:103E7000234A1B683C68126862B6520102D5322B95
:103E800088BF0134B5B3C3F52F3303F21F331D4E82
:103E9000DFF86890DFF868809B084FF47A72A6FB21
:103EA000031302FB04F404EB930472B6D9F8001078
:103EB0003A68D8F800E062B6C1F52F3303F21F3339
:103EC0009B08A6FB03031EF0806FC4EB93034FF423
:103ED0007A7002D0322988BF013200FB0233B3F579
:103EE0007A7F04D3013D05D004F57A74DDE702F052
:103EF0003BF9DAE7BDE8F8831C9C012018E000E0FC
:103F000004ED00E0176CC116F8B54E4B4E48DFF8D3
:103F10005CC14E4C4E49DFF858E14E4E4E4D4F4F6E
:103F20004FF000621A604FF080521A604FF000525A
:103F30001A604FF080421A604FF000421A6000226F
:103F4000026028234EF6FF70CCF80000CEF8003057
:103F500023600EF5012E0B6033602B6006F5002602
:103F60003B6005F50025A36207F500278B6204F589
:103F7000012401F5012106F6E87605F6E87507F556
:103F80007F6710310EF1100E203433602B60CEF8B5
:103F900000303B600B602360314CBB618B610921B9
:103FA0002160A7F5002704F58054203F08343A60CB
:103FB0002060BB60E36047F8041C04F5FD2407F5AE
:103FC000FE27043704F2FC7422603860A360FB60B3
:103FD00044F8041C083404F6FC74C7F8FC2F206075
:103FE000A4F5E124A4F2DC7433602B60C7F8F81F59
:103FF00021681C4841F40071216001681A4C0EF5DB
:104000007F4E0EF1E80E07F5883706F5803605F588
:10401000803541F000710160CEF8002047F6FF7155
:104020000822396033602B60226002F0FFF83220F2
:10403000FFF718FF01F05EFB4FF4AF70BDE8F840EA
:10404000FFF710BF04E100E0048003401480034048
:104050001C800340248003402C80034034800340B4
:10406000008003400480044000900C40088003401E
:104070000C800340264A27491368F0B443F40063D8
:1040800013600A78244F254E254D264C26490023DF
:10409000092A3B8033802B7023700B7032D03B2A6F
:1040A00023D0224B1B780A2B27D03A2B03D1204B4D
:1040B0004FF451721A601F4B1F4D204CC0F3443710
:1040C000C0F3471600F01F001F7004215E7002222B
:1040D000987288273C2640209970DA7459751F74AD
:1040E000DE7028702260F0BC7047154B40F213322E
:1040F0001A600E4B1B780A2BD7D1124B4FF451721A
:104100001A60D8E7104B40F213321A60C9E700BFBB
:1041100034800440B407FF1F509D0120269C0120DD
:10412000589D0120529D0120249C0120B507FF1FAE
:1041300000D0044000B0064021E400E004E100E0CB
:1041400004D0044010B004400CB00440194B19498D
:104150009B7803F0EC0200F003031343420700F0E6
:104160000F0248BF43F01003042A8B701CD0114B80
:10417000104A5B79C10603F0EF0348BF43F0100318
:1041800053719379820603F0EF030A4A48BF43F064
:1041900010039371C30506D553781178DBB241F053
:1041A00020011170537070478B7943F040038B717D
:1041B000DDE700BF00B00640204B1B681B053BD568
:1041C00010B51F4C237823B101F0CEFF2378002BCC
:1041D000FAD11C481C491D4B022400220460CA70FD
:1041E0001B78092B19D03B2B01D1194B1A60194BA5
:1041F0001B7803F07F030A2B19D03A2B02D1164B00
:1042000000221A60154B164816491A6800230380CD
:104210000B800AB10123137010BD134B40F203123F
:104220001A600C4B1B7803F07F030A2BE5D10F4B70
:1042300040F203121A60E5E7704700BF3480044083
:10424000249C012084E100E000B00640B407FF1F79
:1042500004D00440B507FF1F00D00440209C01207B
:10426000509D0120269C01200CB0044010B0044059
:104270000A4A38B50546137803F0FF04002BFAD13B
:1042800001212846FFF7C4FD21462846FFF7BAFD65
:10429000034A044B52F835201A6038BD249C012093
:1042A000B87F0000549D012009B140F08000174AFA
:1042B0001378984217D010B4154C246824050FD5F4
:1042C00003F07F030A2B1DD03A2B12D0002900F0F7
:1042D0007F0114BF602344230A290ED03A2903D05A
:1042E00010705DF8044B70470A4943F440730B604B
:1042F000F6E7084B00241C60E8E7074943F44073E5
:104300000B60EDE7044B00241C60DFE7B507FF1FDF
:104310003480044000D0044010B00440124B1A789E
:1043200082420CD011490968090507D5092A16D01F
:104330003B2A0AD009280DD03B2801D018707047BD
:104340000B4A40F213311160F8E7094A00210928AD
:104350001160F1D1074A40F213311160EEE7054ACE
:1043600000211160E6E700BFB407FF1F348004405E
:1043700004D004400CB004400D4B1B6813F40063E0
:1043800005D03F2805D90B4B002018607047184610
:104390007047094B10B5074C53F8303023600121AA
:1043A000FFF736FD236800221A70012010BD00BF00
:1043B00034800440209C0120B87F00000F4B1B6814
:1043C00013F4006308D0172808D03C2811D00C4AF9
:1043D000537B03F0FE03537300207047094B40F2F8
:1043E00002321A60064A537B43F0010353730120E3
:1043F0007047054B40F202321A60F3E73480044004
:1044000000B0064008B0044008D004402DE9F84F41
:10441000234B1B681A053BD5224B1B680BB10122AD
:104420001A70DFF89090204D99F80040DFF88880EE
:104430001E4E0134272C8ABF4FF0000A5FFA84FA1F
:1044400054460746AB462B789C4216D1FFF714FC26
:1044500040281FDC33791B06F5D59BF8003001336B
:10446000272B86BF00221346DAB218F80330DBB2DE
:10447000F3712A702B789C42E8D00D490B4BFFB2A8
:104480000120BC2208F80470087089F800A0DA70D6
:10449000BDE8F88FFF28D6DD01F066FED3E700BF48
:1044A00034800440549D0120529D012000B00640FC
:1044B000249C0120589D0120289C01202DE9F84FC3
:1044C000294B1B681A0548D5284B1B6805460BB1BC
:1044D00001221A7005EB010A554540D2DFF89C8095
:1044E000234CDFF89C90234F0AE015F8012B09F8C4
:1044F0000B20214A0123AA45137088F800602ED0B2
:1045000098F80030227803F1010BBBF1270F86BF2A
:104510000026B3465FFA8BF69345E6D1BC22FA70CB
:1045200005E03A7913060BD422789345DDD1FFF7E5
:10453000A3FB4028F5DDFF28F6DD01F015FEF3E7CB
:1045400022780132272A86BF00210A46D1B219F803
:104550000220D2B2FA712170E6E7BDE8F88F054B70
:10456000BC22DA70BDE8F88F34800440549D0120ED
:10457000529D012000B00640249C0120589D01203E
:10458000289C012010B5044C237823B101F0ECFDE8
:104590002378002BFAD110BD249C0120064A074B3A
:1045A0001B781078DBB2C0B283422CBF273000F1F9
:1045B000FF30C01A704700BF529D0120589D012056
:1045C000054A064B10881B8880B29BB2984238BFC0
:1045D00000F58070C01A7047509D0120269C012074
:1045E000154B30B4154C1A88238892B29BB29A426C
:1045F0001FD00133FF2B0ED91149124B08781968CF
:104600000023C0B2238021B1D31ADA2B01DC0023AE
:104610000B7030BC70470A480A49C05C09689DB2FB
:10462000C0B225800029F4D09A4238BF02F58072CA
:10463000EAE74FF0FF30ECE7509D0120269C012077
:10464000509C0120209C0120094A0A4B12881B889B
:1046500092B29BB29A4208D00133B3F5807F28BF53
:104660000023054AD05CC0B270474FF0FF3070475E
:10467000509D0120269C0120509C01200D4B1B6861
:104680001B0516D530B40C4B0C4CDA780C480D4990
:1046900002F0CB024025DA705D74DA7842F0340221
:1046A000DA70238802689BB20B800AB10023137072
:1046B00030BC70473480044000B00640269C012086
:1046C000209C0120509D0120F0B4394B1A7912F042
:1046D000300F2DD072B6997D01F0FF0200293ED037
:1046E00062B6344F344938880D88344E1C4680B247
:1046F000ADB2431CB3F5807FE17928BF0023AB4204
:1047000002F1FF32C9B21CBFF154184612F0FF0289
:10471000EFD12B4B1B6882B23A804BB1A84236BF17
:10472000C5F58075401B4019E728C4BF01221A70E7
:104730001F49CA78D2B2150616D452060DD51C4BA5
:104740001B795B0609D51F4B1F491B6800220A70A5
:1047500003B11A70164B3C22DA70F0BC704740224D
:10476000D9795A7462B6E3E70B791C06E5D5174B85
:10477000174E1C783378E4B2DBB29C420ED0154D54
:1047800001E0A3420AD00133282B28BF0023087977
:10479000E85CC0B2C871087D0728F2D9DBB20449D1
:1047A00033700B79180644BF7C23CB70C5E700BF7C
:1047B00000B00640509D0120269C0120509C012005
:1047C000209C0120549D0120249C0120589D012003
:1047D000529D0120289C01202DE9F84F214B1B6898
:1047E00007460BB101221A70DFF888901E4D99F828
:1047F0000040DFF884801D4E0134272C8ABF4FF023
:10480000000A5FFA84FA5446AB462B78A34216D1CD
:10481000FFF732FA40281FDC33791B06F5D59BF8E9
:1048200000300133272B86BF00221346DAB218F876
:104830000330DBB2F3712A702B78A342E8D00C4925
:104840000A4BFFB208F804700120AC22087089F806
:1048500000A0DA70BDE8F88FFF28D6DD01F084FCF7
:10486000D3E700BF909E01208D9E012000C006402E
:104870008C9E0120949E0120649D0120174A1849B6
:104880001368F0B543F48053164C174D174FDFF8FB
:1048900074E01360164E174A00232380AEF80030F0
:1048A000154C2B700B703B7040F213373760134D73
:1048B0001349C0F344364FF4517727601670C0F3A4
:1048C00047142C2700F01F004026547090720824D3
:1048D00093701374D7702E700C60F0BD3480044058
:1048E0008D9E0120609D0120949E01208C9E0120C0
:1048F00008C0044000C006400CC0044023E400E0AF
:1049000004E100E0629D0120194B19499B7803F0F6
:10491000EC0200F003031343420700F00F0248BF0C
:1049200043F01003042A8B701CD0114B104A5B79A2
:10493000C10603F0EF0348BF43F0100353719379AE
:10494000820603F0EF030A4A48BF43F01003937155
:10495000C30506D553781178DBB241F02001117000
:10496000537070478B7943F040038B71DDE700BFD4
:1049700000C00640F8B5114B1B68DB041CD5104C79
:10498000237823B101F0F0FB2378002BFAD10D4BF3
:104990000D4F0E4E0E4D0F4C0F48104908221A6055
:1049A0000023FB7040F2031232602A602268038009
:1049B0000B8012B101231370F8BDF8BD34800440A0
:1049C0008C9E012084E100E000C0064008C0044045
:1049D0000CC004405C9D0120609D0120629D01206F
:1049E0000A4A38B50546137803F0FF04002BFAD1C4
:1049F00001212846FFF70CFA21462846FFF702FA64
:104A0000034A044B52F835201A6038BD8C9E0120B1
:104A1000B87F0000909E012009B140F08000104A4C
:104A2000137898421AD010B40E4C2468E40412D5BE
:104A300003F07F03082B02D10B4B00241C600029DC
:104A400000F07F0314BF60214421082B03D1064BE3
:104A500041F44071196010705DF8044B704700BF5D
:104A6000B607FF1F348004400CC00440704700BFED
:104A70000D4B1B6813F4805305D03F2805D90B4B11
:104A800000201860704718467047094B10B5074C56
:104A900053F8303023600121FFF7BAF92368002270
:104AA0001A70012010BD00BF348004405C9D0120BD
:104AB000B87F00000C4B1B6813F4805306D00E28FF
:104AC00006D00A4A537B03F0FE035373002070475D
:104AD000074B064A40F202311960537B43F0010351
:104AE00053730120704700BF3480044000C006406B
:104AF00004C00440034B1B68DB0401D5FFF76CBE08
:104B0000704700BF3480044070B5094E0446451814
:104B1000AC4204F101040AD03368DB04F8D514F880
:104B2000010CFFF759FEAC4204F10104F4D170BD51
:104B30003480044010B5044C237823B101F014FBF9
:104B40002378002BFAD110BD8C9E0120064A074B1A
:104B50001B781078DBB2C0B283422CBF273000F143
:104B6000FF30C01A704700BF8D9E0120949E012027
:104B7000054A064B10881B8880B29BB2984238BF0A
:104B800000F58070C01A7047609D0120629D012071
:104B9000154B30B4154C1A88238892B29BB29A42B6
:104BA0001FD00133FF2B0ED91149124B0878196819
:104BB0000023C0B2238021B1D31ADA2B01DC0023F9
:104BC0000B7030BC70470A480A49C05C09689DB246
:104BD000C0B225800029F4D09A4238BF02F5807215
:104BE000EAE74FF0FF30ECE7609D0120629D012075
:104BF0008C9D01205C9D0120094A0A4B12881B886C
:104C000092B29BB29A4208D00133B3F5807F28BF9D
:104C10000023054AD05CC0B270474FF0FF307047A8
:104C2000609D0120629D01208C9D0120054B064A5C
:104C30001B88064912689BB20B800AB100231370CF
:104C4000704700BF629D01205C9D0120609D012096
:104C500030B42C4B1A79940621D52B48D979038886
:104C60002A4A9BB201331288FF2BC8BF002392B29D
:104C70009342C9B203D0264C9AB2E1540280254A2D
:104C8000116861B1244A1278D2B2934236BFC2F59C
:104C900080729B1A9B18E72BC4BF01230B70194A23
:104CA000D378DBB2180611D45A060DD5154B1B79F3
:104CB0005B0609D5194B1A491B6800220A7003B11B
:104CC0001A70104B2C22DA7030BC7047117909062B
:104CD000EAD5144910480C780178C9B28C420DD03D
:104CE0004A1C272A84BF00210A460F4D054C98BF55
:104CF000D1B2AA5CD2B2E2710170D5E76C21D17059
:104D0000D2E700BF00C00640609D0120629D0120E7
:104D10008C9D01205C9D01208D9E0120909E012094
:104D20008C9E0120949E0120649D0120431E032B34
:104D300014D872B60A4951F8230068B170B4094C0E
:104D4000058834F81320466841F82360521B24F884
:104D5000132062B670BC704762B67047002070477F
:104D6000F09E012030A40120013803280BD872B630
:104D7000074B53F8203043B100205B680130002B13
:104D8000FBD162B67047002070471846F9E700BFB4
:104D9000449F0120F0B472B61A491B4E012311F84A
:104DA000014B194F9A00240742F0010505D556F82A
:104DB000324064B156F83520BAB10133052BEED13B
:104DC00062B6124B00221A70F0BC00F01BBD0F4CF3
:104DD0000F4D217847F8325007EB431308304A1E35
:104DE0005860227062B6F0BC70470849094B0A78D7
:104DF00047F8353007EBC5030830013A58600A70B0
:104E000062B6F0E7A08200000000FF1F6D9F012046
:104E100088004000C8004000431E032B1DD81B4AD9
:104E2000400140F0100030B4104472B6184CE25CFF
:104E3000032A1BD8DFE802F00212151703220D889F
:104E4000E25410F0080F14BFC823882343EA054337
:104E500008310360416062B630BC704708300222FE
:104E6000EDE70522EBE708300422E8E7094A52F8AB
:104E7000230038B1084A52F82300416042F8231059
:104E800062B6E9E742F82310034AF7E70000FF1F84
:104E90007C9F0120449F0120549F01202DE9F04F69
:104EA000DFF804A3DFF804B387B044E0A94F4FEA6A
:104EB000930807EBC809013ED9F8042003F0080362
:104EC000F6B2A2F1080003F0FF04002B40F0FE80D0
:104ED00057F838301B0C99B222F8081C002B00F050
:104EE000EC809D4B22F8064C42F8044C53F82620E7
:104EF000002A00F02B82994D55F826305860984CC6
:104F000045F8260034F81630194424F8161000F03D
:104F100059FC002800F01382924A934B19F0080FB5
:104F200000F1080018BF1346C9F8040047F83830EC
:104F300008238AF800309AF80040E4B260071AD5D6
:104F40008A4B1B78A3B18A490A7802F0FF0322B189
:104F5000013BDBB20B7003B900BE86490A7802F050
:104F6000FF032AB1013BDBB20B70002B00F0BD81C7
:104F700004238AF8003004F0080303F0FF02002B3A
:104F800000F0C8809BF80030DBB21E098ED19C086F
:104F9000704F57F8342007EBC401C2F38302013A83
:104FA00049680C2A00F28580DFE802F07979838372
:104FB0008383838342838383070008686E4B6F4D2E
:104FC0000193684B4A686E4E47F8343081B240F224
:104FD0008164694B6A60286000220120A1421A6046
:104FE0003A61BA61307000F2E380B1F5D06F80F0C1
:104FF0002782B1F5817F00F0E08100F2C381802932
:1050000000F03682822940F0DE81A9885D4B01F0F4
:105010007F01042900F2D8815B4C89000B44227087
:1050200062701A78930740F122832070022023E2F5
:10503000514B01931A683AB3544B514E5449188856
:1050400034780D784028864645F0020828BF4FF096
:10505000400E002C84F001043470CEEB00000CBF35
:105060008824C82407EBC80680B285F0010544EA0D
:105070000E447260188047F8384072440D70002862
:1050800000F0B780019B1A603C4B1A88B2F5A06F04
:105090000FD100219A7859703E4B1A7009E0374AB7
:1050A000108842F22102904200F0A8802D4A47F871
:1050B0003420394A012313703AE72A4A2A4B19F05F
:1050C000080F18BF134647F8383031E700F09AFB55
:1050D000324A334952F82630002B00F03B815868A1
:1050E0008C5D42F8260003F10802C9F80420032C65
:1050F00005D8DFE804F02C02292602228A551A88F6
:1051000019F0080F0CBF8823C82343EA024347F86D
:1051100038300DE7E00700F1EB80210600F128812F
:10512000A20706D51F4A204913780220DBB213706C
:105130000870E30602D51C4B10221A7007B0BDE8B8
:10514000F08F04228A55DAE705228A55D7E7032231
:105150008A55D4E70000FF1FF09E01209C9E01208D
:1051600030A40120C800400088004000789F012042
:10517000019F0120809F0120989E0120649F0120B3
:10518000009F0120C0200740709F0120AC9E01209D
:105190006C9F01209820074094200740449F0120E5
:1051A0007C9F0120882007408020074090200740F6
:1051B00042F22104A14200F0948043D8B1F5086F77
:1051C00000F0A881B1F5106F40F0FD80B84AB94CED
:1051D000A978117004F1800503E00834AC4200F0B6
:1051E0009E81236A1906F8D5606A083800F00AFB28
:1051F000F3E7BEF1400F18BF002243E7AE4ACD1DD2
:1052000011F8013B02F8013FA942F9D1AB4A1268FB
:10521000862A00F01181AA49AA4E0A78307882F0D5
:105220000105002842F002020D700CBF8821C82140
:1052300047F8321007EBC20280F001000021307005
:10524000516033E742F22124A14240F0FE81DFF8B1
:10525000BCC29D4B9D49AC78DCF800501D60814676
:105260000C700020029080468446044694490D78D4
:1052700045F0020E07EBCE03B9F1000F5C600CBFE6
:105280008824C82444EA080385F0010447F83E3026
:1052900032700C70DFF81CE28A4BDFF824820028A1
:1052A00040F09880BCF1400F1BD144F0020407EBA2
:1052B000C403029FDFF8FCE15F60002A40F09F809A
:1052C000020442F0880207444EF8342086F8009029
:1052D0000D703B46402804D100207D4A0199108082
:1052E0000B607C4A01231370E3E600F0F7FB3FE616
:1052F000704B784872491A614FF0020E80F800E056
:10530000754F0A70754919609960754E754D764CE8
:105310009A610D213970FF213170DFF8F4E12970B5
:105320002270724D724A8EF800109F27012406F8F1
:10533000047C5D600470DA6007B0BDE8F08F6D4AF0
:1053400047F83800137801331370F1E543F826006D
:10535000694DD4E58B5D032B67D801A252F823F089
:10536000314F0000314F0000B5530000AF53000033
:1053700059495C4B80220D2008701A70A2077FF5F6
:10538000D8AECFE640F20232914240F05681A98871
:1053900001F07F01042916D86A88A2B94E4C890011
:1053A0000C448146217841F00201217059E7012324
:1053B0008B55BDE500238B55BAE5A98801F07F0127
:1053C000042940F24781444B0F221A70414A0123BD
:1053D00013706EE640287FF668AF44F002040EEBCF
:1053E000C401029E4E60AAB1444A83F8009033463D
:1053F000403888F8005040334EF834206DE70204FE
:10540000029B86F8009042F0C8020D7003444EF8EB
:1054100034205FE783F80090029B304A88F8005000
:10542000403840334EF8342057E719F0080F0CBFCE
:10543000022303238B557BE5314A0F211170EAE6E5
:10544000304A5468002CBED06888B5F804E003E008
:105450000C325468002CB6D013888342F8D153889C
:105460007345F5D1000A03280CBF2078108903E0AA
:10547000254C022022706270EA88824280F00C8102
:105480000F490D78402A45F0020E944607EBCE00F6
:1054900028BF4FF0400C04EB0C0344600293CCEBAC
:1054A00002004FEA0C484FF001090022C824E9E647
:1054B000789F01200000FF1F37A4012038A401209D
:1054C0006C9F0120009F012040A40120909F01209B
:1054D000AC9E012094200740C02007408800400077
:1054E000882007408020074098200740B09E012078
:1054F000049F01206D9F01209C9E0120C800400058
:10550000019F0120A4820000709F01201C9C0120AB
:105510008C200740684A694C12782270ACE76849D1
:10552000684B694A02916949694C6A4D0394059632
:105530004FF0000988461C4616460495206828B19D
:10554000456800F05FF92846002DF9D1002323605B
:10555000049B30681A46002342F8293028B1456878
:1055600000F050F92846002DF9D100223260029A4D
:1055700098F800301146002241F8042B039A02915A
:10558000023B4FF0000122F81910032B07D8DFE887
:1055900003F0340234024FF0010388F8003009F1BF
:1055A0000109B9F1040F04F1040406F1040608F13D
:1055B0000108C3D1484B059EDFF83091DFF83081F8
:1055C00000211970012518F8013B09F8043B1A075E
:1055D00018D4AC0044F0020244F00304002347F85E
:1055E000323047F834303D4B994505F10105EAD199
:1055F00096F8009089F0010233E64FF0000388F836
:105600000030CCE700F0DEF8AC0007EB451300F10A
:105610000802002837D05A60314B47F8343000F088
:10562000D1F844F0010307EBC30200F1080100B315
:1056300051602C4A47F83320CCE7B1F5A06F7FF4D6
:10564000C2AE00224FF001090BE642F22132914234
:10565000F7D0B8E66A88002A7FF4B5AE224C8900FC
:105660000C448146217821F002012170F9E50220E5
:1056700002E7194B44F001021B7847F83200164A42
:1056800001331370A6E7144B134A1B78AC000133A7
:1056900047F834001370C2E74028844628BF4FF013
:1056A000400C04EB0C03CCEB00004FEA0C480293D7
:1056B00000224FF00109D9E5789F0120709F012059
:1056C000549F0120F09E0120449F01207C9F0120D7
:1056D00030A401209C9E01206D9F0120D420074012
:1056E00088004000C8004000C0200740C420074098
:1056F000A08200002DE9F041274C01F043F8002280
:1057000004F1880023461A605A60083383424FF040
:105710000001F8D12148224A0368DFF89CE0214EBD
:10572000214D224FDFF894C0DFF8948043F48023AA
:105730000360136843F04073136003238EF8003056
:10574000A023337002F5C922C4F3072300F52830E3
:105750002B708030C4F3074310323B70240EFF23BC
:105760000470134D8CF80030124888F80030137024
:10577000012306F8AC3C4FF400140EF8441C7026CC
:10578000102107F82C3C2E70046082F8F810AEF15E
:10579000440EBDE8F08100BF0000FF1F34800440CC
:1057A00000D80040402107409C200740B02007401F
:1057B00035E400E004E100E0442107408020074098
:1057C0008820074072B60D480268B2FA82F30B2BAC
:1057D00010DC4FF00041D94022EA0102026062B6BB
:1057E000074803EBC303DB00C2180021C150104679
:1057F0005160704762B60020704700BFB807FF1FB6
:10580000D003FF1F0D4B0E4AC31AA2FB03231B0933
:105810000B2B0CD80B4A127852B972B60A484FF0CB
:105820000041026821FA03F31A43026062B670472E
:10583000064A1278002AF0D0FFF7ACBAD003FF1F57
:10584000398EE3386D9F0120B807FF1F789F012034
:1058500038B50F4D286878B143880288C1180133E4
:1058600093420C7A02D24380204638BDFFF7CAFF2C
:10587000002320462B6038BD064B1B782BB103203C
:10588000FFF754FA28600028E6D14FF0FF3038BD0A
:105890008C9F0120789F012010B5094C206818B119
:1058A00043881844007A10BD064B1B782BB10320A7
:1058B000FFF73CFA20600028F2D14FF0FF3010BD16
:1058C0008C9F0120789F0120044B054A1B6890881B
:1058D0001BB11A885B88D31A184470478C9F01202B
:1058E00030A401200B4B1B789BB110B50A4C2068EB
:1058F00048B1FFF787FF002303202360FFF716FA64
:1059000030B1FFF77FFF0320FFF710FA0028F8D12E
:1059100010BD7047789F01208C9F01202DE9F04F2A
:10592000DFF8F89083B0012289F80020019169B373
:10593000DFF8EC80354F019E8346D8F80000B0B305
:10594000334D4488C4F14001B14228BF314604EBD5
:10595000010E00221FFA8EFE2A70761AA0F802E0CD
:1059600000F1080251B1013C224459441BF8014B9B
:1059700002F8014F8B45F9D1B0F802E0BEF13F0FBC
:105980000BD8244A05211170002ED6D1019800238E
:1059900089F8003003B0BDE8F08F40220280014654
:1059A0000420FFF739FA0022C8F80020E9E73A7826
:1059B00022B3194C164D4FF0010A07E0013C16D0F6
:1059C0002A78A2B900F0D0FB3A78BAB10420FFF7E8
:1059D000CBF90728F2D889F800A0FFF7F3FEC8F842
:1059E00000000028ADD10D4B013C1870E8D1012317
:1059F0004FF0FF302B7003B0BDE8F08F00234FF065
:105A0000FF3089F8003003B0BDE8F08F789F0120A7
:105A1000889F0120809F012021480100819F012053
:105A2000849F012000B583B002AB012103F8010D72
:105A30001846FFF773FF03B05DF804FB38B50E4D51
:105A40000E4C28680123237028B14088002323705E
:105A5000C0F1400038BD0A4B1B7813B900202070FC
:105A600038BD0420FFF780F90728F7D8FFF7AAFE12
:105A700028600028E9D1F1E7849F0120819F01205F
:105A8000789F0120F8B5114B1B788BB1104E114D4A
:105A9000346801272F7064B10F4A6388002717709C
:105AA000214623800420FFF7B7F9376000232B70CD
:105AB000F8BDFFF787FE084B28B1014604201C7093
:105AC000FFF7AAF9F2E71F70F0E700BF789F012007
:105AD000849F0120819F0120809F012038B50E4BBB
