:1000000000000320D1010000FD6E0000B56E00006D
:10001000B56E0000B56E0000B56E0000B56E000054
:10002000B56E0000B56E0000B56E0000FD6E0000FC
:10003000FD6E0000B56E0000C9890000CD8900008A
:10004000FD6E0000FD6E0000FD6E0000FD6E000004
:10005000FD6E0000FD6E0000FD6E0000FD6E0000F4
:10006000FD6E0000FD6E0000FD6E0000FD6E0000E4
:10007000FD6E0000FD6E0000FD6E0000FD6E0000D4
:10008000FD6E0000FD6E0000FD6E0000FD6E0000C4
:10009000FD6E0000FD6E0000FD6E0000FD6E0000B4
:1000A000FD6E0000FD6E0000FD6E0000FD6E0000A4
:1000B000FD6E0000FD6E0000FD6E0000FD6E000094
:1000C000FD6E000045980000FD6E0000D178000034
:1000D000FD6E0000FD6E0000FD6E0000FD6E000074
:1000E000FD6E0000FD6E0000FD6E0000FD6E000064
:1000F000FD6E0000FD6E0000FD6E0000FD6E000054
:10010000998D0000AD8D0000C18D0000D58D0000DF
:10011000FD6E0000C17B0000FD6E0000FD6E000062
:10012000FD6E0000FD6E0000FD6E0000FD6E000023
:10013000FD6E0000FD6E0000FD6E0000FD6E000013
:10014000FD6E0000FD6E0000FD6E0000FD6E000003
:10015000FD6E0000FD6E0000FD6E0000FD6E0000F3
:10016000FD6E0000FD6E0000FD6E0000FD6E0000E3
:10017000FD6E0000FD6E0000FD6E0000FD6E0000D3
:10018000FD6E0000FD6E0000FD6E0000FD6E0000C3
:10019000FD6E0000FD6E0000FD6E0000FD6E0000B3
:1001A000FD6E0000FD6E0000FD6E0000FD6E0000A3
:1001B000FD6E0000FD6E0000FD6E0000FD6E000093
:1001C000FD6E0000FD6E0000FD6E0000FD6E000083
:1001D0005C4B4CF2205210B51A804DF628121A8052
:1001E00000BF00BF06F08EFE574B4FF030621A6022
:1001F000564A9A60564ADA60564B4FF470021A60BB
:10020000554B564A1A60564B1A78110703D51A787F
:1002100042F008021A70534B5349AA221A70534AEB
:10022000534B8B4204D252F8040F43F8040BF8E707
:10023000504B514900228B4202D243F8042BFAE77B
:100240004E494F4A002352F8230041F8230001335E
:10025000742BF8D14B4B4C4A802103F8011B93427D
:10026000FBD14A4B454A1A60494B8A221A70A3F5C2
:10027000805324225A70A0221A709A799207FCD5D2
:100280009A79D406FCD4434A937903F00C03082BE3
:10029000FAD1414B60221A7002331A78802AFCD1BD
:1002A0003C4B01221A715D225A719A799006FCD555
:1002B0009979384A4906FBD5384B394919600021EC
:1002C000596020231370937903F00C030C2BFAD19F
:1002D000344B354A1A60354A354C136813F4807331
:1002E00003D123604FF4A8531360324B324A1A6093
:1002F00000225A60072243F8042C304AC3F80C2D20
:1003000062B606F0EDFE2368DA0705D52C4806F044
:10031000D3FE2C4B2C4A1A602C4B1B785B0609D55C
:10032000284C294B22689A4204D1254806F0C4FE85
:100330000023236006F0ECFD0BF03CFA08F092FD80
:10034000FEE700BF0E20054030800440823F0400DD
:100350000100002B88ED00E0002008E0030000858C
:1003600002D0074000E00740FC11FF1FFCCA00005C
:100370003007FF1FFC11FF1FB06902200002FF1FA2
:100380000000000000E400E064E400E008ED00E0AC
:10039000005006400040064001E007404480044011
:1003A0000000060204800440C010070010D0034083
:1003B00014D0034014E000E01FBF02000000202022
:1003C000A6AECE631CE00340A5C3945A00F00740DC
:1003D000FFFFFFFFFFFFFFFFFFFFFFFFFFFFFFFF2D
:1003E000FFFFFFFFFFFFFFFFFFFFFFFFFFFFFFFF1D
:1003F000FFFFFFFFFFFFFFFFFFFFFFFFFFFFFFFF0D
:10040000FFFFFFFFFFFFFFFFFFFFFFFFDEF9FFFF23
:1004100010B5054C237833B9044B13B10448AFF33E
:1004200000800123237010BDFC11FF1F000000009D
:10043000F8CA0000084B10B51BB108490848AFF3D3
:1004400000800848036803B910BD074B002BFBD0A0
:10045000BDE81040184700BF000000000012FF1F59
:10046000F8CA0000FC11FF1F000000000160704787
:10047000006803681B691847006803681B68184711
:10048000FFF7FABF70B50546006803680C461B68A5
:10049000C9B2984728680368210A1B68BDE8704004
:1004A000184700BF70B50546006803680C461B6816
:1004B000C9B2984728680368C4F307211B689847A6
:1004C00028680368C4F307411B68984728680368D5
:1004D000210E1B68BDE87040184700BF10B50446E8
:1004E000206803681B6998470028F9D020680368D2
:1004F0005B699847C0B210BDFFF7F0BF10B5044666
:10050000206803681B6998470028F9D020680368B1
:100510005B6998472071206803681B699847002829
:10052000F9D0206803685B6998476071A08810BDA6
:1005300010B50446206803681B6998470028F9D065
:10054000206803685B6998472071206803681B690D
:1005500098470028F9D0206803685B699847607164
:10056000206803681B6998470028F9D02068036851
:100570005B699847A071206803681B699847002849
:10058000F9D0206803685B699847E071606810BD26
:10059000006803685B681847FFF7FABF00680368E4
:1005A0005B681847AAB12DE9F041174606460D1FB2
:1005B00000F10408002455F8043F306873600368B4
:1005C00001345B68042241469847A742F3D1BDE855
:1005D000F0817047006808F027BC00BFFFF7FABF42
:1005E000002070472DE9F843DDF82080099FB3B162
:1005F00016460C46054603EB010904E0204601348B
:10060000C0474C450BD02B68324621461B69284613
:1006100098473A4631460028F0D1BDE8F8830120DA
:10062000BDE8F8832DE9F843DDF82080AAB11F4624
:100630000C46054602EB010901E04C450DD02B6844
:10064000414620465E6AB847214602462846B047E2
:1006500001340028F1D1BDE8F8830120BDE8F8831A
:100660000020704700207047002070474FF0FF3097
:10067000704700BF704700BF10B5044B044640F8F8
:10068000103B04F0C7FB204610BD00BF9CC3000018
:1006900010B5044608F05EFB204610BD024BD3F8AF
:1006A0008C040368DB681847F44D0220836C13B197
:1006B000184603F0FBBAC06C08B101F0A9BF4FF0B7
:1006C000FF307047826C62B1137803F0080303F0C7
:1006D000FF0003B3D3695069181A48BF6FF0004098
:1006E0007047C16CC1B191F8313003F0080303F0D9
:1006F000FF0083B1D1E90423D1E90001101A30B41D
:1007000063EB010100256FF000448D4208BF844275
:1007100000D2204630BC704708467047836C13B146
:10072000184603F0BDBBC06C08B102F08FBB704728
:10073000836C13B1184603F0B9BBC06C08B102F06A
:10074000C7BC704700B5836C83B08DF8071043B108
:10075000184601220DF1070103F0A8FB03B05DF874
:1007600004FBC06C0028F9D001220DF1070102F052
:10077000AFFC03B05DF804FB00B5836C83B063B1DC
:10078000184601220DF1070103F0C0F901280CD130
:100790009DF8070003B05DF804FBC06C28B101228E
:1007A0000DF1070101F060FEF0E74FF0FF30F1E7D7
:1007B0002DE9F843114D124E124C81468846287897
:1007C0000121174606F04CFD3078002106F048FD67
:1007D0002246214603230C4884F8009084F80180C7
:1007E000A77001F0C5FD3078012106F039FD2878A9
:1007F0000021BDE8F84306F033BD00BF4407FF1FEA
:100800004A07FF1FCC5202205008FF1FF8B5444D85
:10081000444C2878012106F023FD2378A3B963789E
:10082000002B2BD1A378002B42D1E378002B59D198
:100830000121287806F014FD2B783B4A52F833301A
:10084000012283F80021F8BD384E0021307806F0EF
:1008500007FD374B37485A781B784270032702460A
:100860000146837007703B46334801F081FD3078C4
:10087000012106F0F5FC6378002BD3D02B4E00212C
:10088000307806F0EDFC2A4A2A4BD77891785F70D1
:1008900002271A46997028481F701946032301F051
:1008A00067FD3078012106F0DBFCA378002BBCD07B
:1008B0001E4E0021307806F0D3FC1D4A1D4B57799F
:1008C00011795F7000271A4699701B481F701946EE
:1008D000032301F04DFD3078012106F0C1FCE378DF
:1008E000002BA5D0114F134C3878002106F0B8FC2E
:1008F0000F4B1148DA799B79627001262246214616
:10090000A3700323267001F033FD3146387806F0DA
:10091000A7FC3146287806F0A3FC2B788DE700BFB2
:100920004407FF1FE84C02206CC700004A07FF1F66
:100930001C90FF1FCC5202205008FF1F10B50A4B1D
:100940000A4C0B4A19881180012323706370A3702D
:10095000E37051809180D180FFF758FF002323700E
:100960006370A370E37010BD4807FF1FE84C0220BE
:100970001C90FF1F2DE9F04F844885B0FFF7BCFDA8
:10098000834B3F28187002D905B0BDE8F08F0546AB
:100990007E48804CFFF7CCFD7F4B43F8250002E0FA
:1009A000FFF77CFE10B12378002BF9D1784BDFF8EC
:1009B00008A21D78794ADAF84830754E02FB05F135
:1009C000002B00F0CF80184603F0A6F93578724B63
:1009D00053F8255028460AF09BFB02460B460AF0C6
:1009E0005BFA6F4B00220AF033FD41EC100B09F06B
:1009F0007FF851EC100B0AF0B1FE6A4B186000282A
:100A00003ED0DFF8B081684D684F4FF0000907F025
:100A1000F5FD0028FBD02B680193DDF804B000261B
:100A200008E02B680093009BD8F80820CBEB030369
:100A3000934234D2C6F5FA41B81907F0F3FD0644E3
:100A4000B6F5FA4FEDD302E0FFF728FE10B1237898
:100A5000002BF9D1DAF8480028B34FF4FA42534991
:100A600003F024FAB9F1000F29D04E4B186809F1B0
:100A700001098145CBD3464B474A1B7852F8235096
:100A80004B4B4FF47A5606FB105046001E601EBBBF
:100A900001213E48FFF7F4FC05B0BDE8F08F454A60
:100AA00001231373D3E7444BD86C0028DAD04FF4FA
:100AB000FA423E4902F00CFBB9F1000FD5D1344B9C
:100AC0003E481B78394903EB830300EB43204FF486
:100AD000206206F01BF9C8E7334D344F2B680393AF
:100AE000DDF80CB0DFF8CC804FF0000908E02B688F
:100AF0000293029BD8F80820CBEB030393423BD22E
:100B0000C9EB060107EB090007F08CFD81444E4557
:100B10002848ECD802E0FFF7C1FD10B12378002B84
:100B2000F9D1234BDAF848001A68234B38B31F4930
:100B300003F0BCF91B4B1B68002BA9D1144B164AC0
:100B40001B781E4852F823201849520003EB8303F8
:100B5000B2F5FA4F00EB432088BF4FF4206206F055
:100B6000D5F895E7DAF84C0000283FF430AF0A4694
:100B700001F066FD35782AE701230373CEE7D86CD0
:100B80000028D7D0094902F0A3FAD3E7EC12FF1FDF
:100B900050A4FF1FD0380220F04C022080841E0099
:100BA0000040DF403890FF1F2C670220F812FF1F23
:100BB0001890FF1FEC08FF1F80B8FF1FD0B8FF1F61
:100BC0002DE9F047DFF8E4816C4F6D4D6D4EDFF895
:100BD000E091C246002417F8013B0BB12B787BB99A
:100BE0000134042C05F1010506F10406F3D1664C2D
:100BF00023781BB1FFF7BEFE00232370BDE8F0870A
:100C0000D8F84800316800232B70C8B103F084F88D
:100C1000DAF84800022C37D0032C2AD0012C1CD043
:100C200099F80030012B70D0002838D04FF42062A2
:100C3000564902F06BFF336803F520633360CFE75A
:100C4000DAF84CE0BEF1000FE4D003460A467046E5
:100C500001F0F6FCDAF84800DCE799F80130012BE6
:100C60004CD0002839D04FF42062494902F04EFFA1
:100C7000E1E799F80330012B39D020B34FF420621B
:100C8000444902F043FFD6E799F80230012B43D0E4
:100C900078B14FF42062404902F038FFCBE7D8F832
:100CA0004C000028C7D04FF42062384901F0DCFB2B
:100CB000C1E7D8F84C000028BDD04FF42062364977
:100CC00001F0D2FBB7E7D8F84C000028B3D04FF4BE
:100CD0002062304901F0C8FBADE7D8F84C0000288D
:100CE000A9D04FF420622A4901F0BEFBA3E7D0B19E
:100CF0004FF42062294902F009FF9CE740B34FF40A
:100D00002062274902F002FF95E760B34FF42062AA
:100D1000244902F0FBFE8EE778B14FF420622249AD
:100D200002F0F4FE87E7D8F84C00002883D04FF497
:100D300020621A4901F098FB7DE7D8F84C000028A2
:100D40003FF479AF4FF42062174901F08DFB72E751
:100D5000D8F84C0000283FF46EAF4FF420621049E1
:100D600001F082FB67E7D8F84C0000283FF463AF3E
:100D70004FF420620B4901F077FB5CE7E84C02205E
:100D800064A4FF1F70A4FF1F2812FF1FD44202207B
:100D900080AEFF1FD05C0220509AFF1FD05202206D
:100DA00080A4FF1FD43802205090FF1F80B8FF1F7F
:100DB0004890FF1F10B541F27073013BFDD12948E7
:100DC000FFF756FB012816D041212648FFF758FBB4
:100DD00004212448FFF766FB0A212248FFF750FB55
:100DE000214920480A22FFF7D9FB00211D48BDE810
:100DF0001040FFF745BB04461A48FFF77DFBFF286C
:100E0000E2D141211748FFF73BFB04211548FFF7CA
:100E100049FB0A211348FFF733FB0A221249114804
:100E2000FFF7BCFB21460F48FFF72AFB56210D4870
:100E3000FFF726FB21460B48FFF722FB2146094816
:100E4000FFF71EFB76210748FFF71AFB074B054803
:100E50001978FFF715FB00210248BDE81040FFF7A5
:100E60000FBB00BF3090FF1F3407FF1FC45202208A
:100E70002DE9F04FAC4889B0FFF7FAFA002860D0AE
:100E8000A948AA4CFFF738FBA94B207001221A7021
:100E9000A84B0146002254291A7000F04D8300F23D
:100EA00036824E2900F0128440F28182502900F0EF
:100EB0009D84C0F0E883522900F0538353295AD10E
:100EC0009B4B1B78002B56D19B4C9C4821460422FF
:100ED000FFF784FB94ED007ADFED997A994B9A48FD
:100EE000B4EEE77AF1EE10FA4FF001021A7044BF47
:100EF00000221A7007F02EFF94ED007AB5EEC07A4A
:100F0000F1EE10FA37D9DFED917AB4EEE77AF1EE2F
:100F100010FA30DCDFED8E6AFEEE007AE7EE267A1C
:100F2000FCEEE77A17EE902A232A24D9894B009306
:100F3000894B029389498A4B8348049307F0C0FE8A
:100F40001FE08848FFF794FA50B18648774CFFF7C6
:100F5000D3FA774B207002221A700146754B99E73D
:100F60007648FFF785FA002840F0F481714B1A7833
:100F7000002A40F0E285774B0093774B0293784B41
:100F80000493DFF814B2784B734F754D774EDFF84A
:100F90000C92DFF80CA2CDF80CB000241C70D846DF
:100FA000009B1B5D002B62D06F49327801230B70D0
:100FB000002A40F0FF80022C029B00F09A81032C53
:100FC00000F08881012C00F076811B78002B40F026
:100FD0005C82674B049ADFF8CCC11268DFF8C8B1B5
:100FE00033F81230ACF800302B680133B3F5A06F42
:100FF0002B6007D33B785F490122D31A0A550022A0
:101000003B702A605C491BF8040059F824305AF8F8
:10101000242051F820E001330132A100734549F842
:1010200024304AF82420019100F0F0800EF1010EE6
:10103000734500F02681514B1B5D002B69D0504B4E
:10104000A100CB589A4264D94E4BDFF860E14E4A7A
:1010500003FB00F041F80E0013880193012188F88A
:10106000001004FA01FEBDF804302CF80E300134F3
:10107000042C08F1010807F1010705F1040506F148
:1010800001068DD1384BDDF80CB01B78002B00F039
:10109000D7803E4E3378002B00F0D181FFF7B6FBAE
:1010A0003B4B3C482B4ADFF808A1019300241C70FD
:1010B000A14621462346A6464FF0010C1BF8015BD2
:1010C0007DB113F80A8082F800E00CFA03F70BF800
:1010D00001ECB8F1000F04D00F435FFA87F92C46FA
:1010E000494610F8015B01331DB100F801EC82F8AC
:1010F00000C0042B02F10102E0D1002C40F0218558
:1011000011B10948FFF7BCF90123337009B0BDE8FC
:10111000F08F98F80030002BA9D01B4B1B8801934F
:101120004FEA440E9FE700BF3090FF1FF412FF1FED
:101130002890FF1FDC4C02202490FF1FEC12FF1FA1
:10114000000004424507FF1FBC5202208988884CDA
:1011500000007042E84C02204890FF1F710E000012
:1011600054A4FF1F68A4FF1FEC4C02204C08FF1F73
:10117000D438022064A4FF1FF04C0220E04C02206F
:101180001812FF1F40420F004807FF1FF04D0220BA
:101190004D90FF1F4490FF1FD84C02200890FF1F66
:1011A000F88FFF1F1C90FF1F4090FF1F70A4FF1FB0
:1011B000E44C0220DFF870B3BD491BF80420286816
:1011C000019302EB820201EB422202EB000E115C62
:1011D0009EF8010007F042FEDFF850C332782CF889
:1011E0001400019B002A3FF4FFAE2A680232B2F5D8
:1011F000206F2A60FFF606AF3A78AE496354C2F119
:10120000010300223B7032702A60FBE6AA4B1B5D93
:10121000002B3FF47EAFA94BDFF814B303FB00F3C0
:1012200003F520634FF0000E41F80B3041F809E060
:10123000A049C5F800E001233B700B553370FEE672
:101240009F4A1178002940F0D3809E49994D11F8AA
:10125000012B009E0023012A1C464FF001000BD0F9
:10126000022A08BF01F8010C0133042B3FF44EAFF2
:1012700011F8012B012AF3D101F8014CF2545A550F
:10128000F2E79149DFF8ACE209888B4BDFF8A0B2B6
:1012900001912CF81410A1000EFB00FE1B5D41F81B
:1012A0000BE04FF0010E88F800E004FA0EFE002B70
:1012B0003FF4D9AEC3E65B78002B49D0834B049A48
:1012C000DFF868C25268DFF860B233F81230ACF869
:1012D000023089E6DB78002B38D07D4B049ADFF8AA
:1012E0004CC2D268DFF840B233F81230ACF80630A6
:1012F0007AE69B7843B3774B049ADFF830C2926862
:10130000DFF824B233F81230ACF804306CE68F29E1
:1013100031D8812980F01582582900F0E0825929BE
:1013200000F0B58056297FF426AE6B4B1B78002B5E
:101330007FF421AE694C251D6948FFF7DDF804F8FC
:10134000010BAC42F8D1A7E0664BD5E7664BC5E789
:10135000664BB4E7664B1B7803F0FF05002B7FF468
:1013600005AE5F48634CFFF7C7F85B4B20701D70FC
:101370000146614B8EE5FE2900F09E8100F20A8154
:10138000E3297FF4F8AD544B1B78002B7FF4F3ADC9
:101390005A4B00935A4B0293E4215A4B5048049302
:1013A000FFF76EF804214E48FFF77CF8E9E546297F
:1013B00000F05A814C2900F0E58042297FF4DBAD32
:1013C000454B1B78002B7FF4D6AD4C4B00934C4B18
:1013D000029343484B4B0493FFF78EF84A4B021C91
:1013E00018BF012201213E481A70FFF749F8C8E5ED
:1013F0004648137007F0AEFC454BD3ED007AF5EE8E
:10140000C07AF1EE10FA7FF620AF9FED427AF4EE4B
:10141000C77AF1EE10FA3FF718AFDFED3F6ABEEE84
:10142000007AA7EEA67AFCEEC77A17EE902A232A56
:101430007FF60BAF3949354807F042FC05E73348E2
:1014400007F088FC364BD3ED007AF5EEC07AF1EE6A
:1014500010FA7FF623AE9FED2F7AF4EEC77AF1EE05
:1014600010FA3FF71BAEDFED2C6ABEEE007AA7EE56
:10147000A67AFCEEC77A17EE902A232A7FF60EAEE4
:101480002649224807F01CFC08E6264BA2E5124B31
:101490001B78002B7FF46FAD184B0093184B029311
:1014A0000F48184B04930121FEF7EAFF69E500BFDE
:1014B000D0B8FF1F64A4FF1FE04C022080841E00F0
:1014C000F04D02204490FF1F4807FF1F80AEFF1F12
:1014D000D05C0220509AFF1F2890FF1FE44C02208E
:1014E000EC12FF1F5090FF1FD052022080A4FF1F5C
:1014F0002812FF1FF412FF1FDC4C0220E84C0220D0
:101500004890FF1F54A4FF1FED4C0220BC52022044
:101510004007FF1F8988884C00007042710E000050
:101520002490FF1FD44202204090FF1F1C90FF1FF9
:1015300070A4FF1F40420F009B4B1B78002B7FF4D1
:101540001AAD9A4B00939A4B02939A489A4B049384
:10155000FEF7D2FF994B012118709648FEF790FFD5
:101560000FE5914B1B78002B7FF405AD9148FEF7FA
:10157000C3FF934B1870052827D8DFE800F05D6A99
:101580004A3E3313884B1B78002B7FF4F4ACFFF7F3
:10159000F1F9F0E4844B1B78012B7FF4ECACFFF7FE
:1015A00009FCE8E4002110200F22FFF701F9854B28
:1015B0000121187805F054FE042200210C20FFF7C9
:1015C000F7F8814B4FF400421A80FFF7B7F9012179
:1015D000764B0093764B02937648774B0493FEF755
:1015E0004FFFCEE4774B0021187805F039FE1F221B
:1015F00000211020FFF7DCF8DEE7724B002118789D
:1016000005F02EFE1F2200211020FFF7D1F8032243
:10161000D3E7002110200F22FFF7CAF8694B012100
:10162000187805F01DFE012200210C20FFF7C0F8FC
:10163000654B00221A80C8E7624B0021187805F03C
:101640000FFE1F2200211020FFF7B2F800221146E2
:10165000EBE75C4B0021187805F002FE1F22002109
:101660001020FFF7A5F8DEE7584C04F5807604F16A
:1016700040055048FEF740FF04F8010FAC42F8D196
:10168000A642F4D108E7484B1B78002B7FF473ACDB
:101690004F4C251D4748FEF72FFF04F8010BAC42C5
:1016A000F8D14C4C04F110054248FEF741FF44F8D4
:1016B000040BAC42F8D1EFE63B4C2378002B00F052
:1016C000A581022B7FF457ACFE2181E7364B1B78B6
:1016D000002B7FF450AC354B0093354B0293042123
:1016E000354B34480493FEF7CBFE40213148FEF7DA
:1016F000C9FE324B2F481978FEF7C2FE364B2D48F3
:101700001978FEF7BDFE40212A48FEF7B9FE2C4BA2
:1017100028481978FEF7B4FE042230492548FEF720
:101720003BFF04222E492348FEF736FF04222849B6
:101730002048FEF731FF042226491E48FEF732FFFB
:101740001FE4194D2B78002B00F05981012B00F07C
:101750004F81244B1E88154B2348009380391F4628
:10176000CCB20023012144FA03F2D20744BFF9545A
:1017700020F813600133042BF5D1FFF747F800235D
:101780000098194644FA03F2D20748BFC154013306
:10179000042BF7D12B78002B3FF480AE044B02933F
:1017A000054B0493FFF7EDBB2890FF1FE84C022088
:1017B0004890FF1FEC12FF1F54A4FF1FC5520220C8
:1017C0004B07FF1F4607FF1F4807FF1F4B07FF1F61
:1017D000E04C02201812FF1FED4C02202490FF1F46
:1017E000E44C0220DE4C02201C90FF1FB04B1B7803
:1017F000002B00F0DB80AF4B1B78012B00F03C810D
:10180000C0F03481022B00F02B81AB4B1878DFF84D
:101810000883AA49AA4C0023424608441E460125D3
:10182000C15C04F8011BFF2903F140030CBF1670D3
:101830001570B3F5807F02F10102F1D1A148A24AEF
:10184000A24BA34902904FF00009064692F800A06F
:10185000A04DA14A9A4CA148019383F800900091B1
:10186000CC46CB464B4604924FF0010E039618F837
:101870000360C6B1BAF1010F62D034D3BAF1020FDE
:1018800011D10A780692002A00F0C580944A03F824
:1018900002E02F783FB10EFA03FC4BEA0C0C5FFA22
:1018A0008CFCB146E346039A01330132042B05F167
:1018B000010504F1010400F1010001F101010392AD
:1018C000D5D1B9F1000F40F03481BBF1000F3FF4E6
:1018D00058AB59468348FEF7D3FDFFF752BBFFF7DD
:1018E0002DF8FFF748BB0A780592002ADBD12F7844
:1018F000227807977C4F0692059A47F823207B4F62
:1019000047F823207A4F4FF00202DA55039F059AD9
:1019100087F800E0049F47F82320069A754F07FBDD
:1019200002F7754A03F802E09DF818200270734A26
:1019300007F5206742F82370079F002FB3D0AAE76E
:101940002F7822780797684F0592002247F82320C6
:10195000059A684F81F800A007FB02F707F520679A
:10196000624A0697002742F82370654F039A03F8EE
:1019700007A0049F82F800A03A46002742F823708F
:101980005D4F9DF8142002705C4A03F807A0069F83
:1019900042F82370079F002F85D00AFA03FC4BEA18
:1019A0000C0C5FFA8CFCB146E3467CE7414B1B789C
:1019B000012B00F0B38070D3022B63D0514C524BFB
:1019C000DFF854813E4D20781E78414600230124E3
:1019D00040FA03F212F0010218BFEE5403F10103C2
:1019E00014BF0C700A70042B01F10101F0D125E73E
:1019F0003C48FEF783FD454B21781880AAE6444811
:101A0000FEF77CFD414B21781880A3E64148FEF7A4
:101A100037FD237855E622780592334A069F42F82F
:101A20002370059A334F07FB02F707F520672F4A0B
:101A30000797069F42F823702D4A03F802A0049AE4
:101A400042F823702C4A079F03F802E02B4A42F821
:101A50002370039A82F800E09DF81420027018E7C2
:101A60002C48FEF749FD144B1870D0E62848FEF7C5
:101A700043FD114B1870CAE61A48FEF73DFD0E4BA8
:101A80001870C4E623481F4CFEF736FD207021482D
:101A9000FEF732FD1C4B187092E71D48194CFEF7FB
:101AA0002BFD20701A48FEF727FD174B187087E7AB
:101AB000ED4C02202890FF1F4C90FF1F4C07FF1F8A
:101AC000D44C02204890FF1FC55202204D90FF1FAA
:101AD000E84C0220E44C022054A4FF1F4090FF1F5A
:101AE000D84C02203090FF1F0890FF1FF88FFF1F77
:101AF0004490FF1F80841E004C08FF1F70A4FF1F2E
:101B000064A4FF1F3C90FF1F50A4FF1FDE4C022067
:101B1000EC12FF1F68A4FF1FC85202200B480C4C98
:101B2000FEF7EAFC20700948FEF7E6FC094B187046
:101B300046E7019B83F800C0C7E6074C2178FFF712
:101B4000A9B9019B83F80090FFF7DABA3090FF1F24
:101B50003C90FF1F50A4FF1FF412FF1FF8B5274B46
:101B6000274D2848284A294EC3F8900400242927E5
:101B7000C3F8A42483F8A9742A46C3F89C64C3F864
:101B80008044C3F88444C3F88C4483F8984483F8B1
:101B9000994483F8AD4483F8B44483F8C4441C49A1
:101BA0001C4E184609F06CF91B4B1C491C714FF474
:101BB0007A772A461C739C64DC649F6018461E601A
:101BC00009F05EF9164B174E1C602A461846164956
:101BD00080254FF03C441D71346009F051F91349E0
:101BE0001348FEF743FC13491348FEF73FFC134923
:101BF0001348BDE8F840FEF739BC00BFF44D0220A1
:101C00003007FF1F04C500000320003894C4000003
:101C100075060000C0C3000080B8FF1F79060000F1
:101C2000BC5202202C90FF1F91060000EC08FF1F01
:101C3000EC12FF1FC408FF1F3090FF1FB008FF1FEA
:101C400068A4FF1FFFFFFFFF2DE9F047AA49AB483B
:101C5000AB4EAC4F96B006F0C1FEA749AA4806F0BD
:101C600075FF0024C021A94805F0CAFE192534706B
:101C70000221284605F008FB012005F02FFB204635
:101C800009F056FA9FED9A0B41EC110B07F0C0FFDB
:101C900053EC102B2846CDE9002305F0E7FA09F0B4
:101CA00047FADDE9002309F0A9FA80463078DFF829
:101CB00050A2894609F03CFA02460B464046494686
:101CC00009F0EAF809F04AFD013430700021284695
:101CD00005F0DAFA052C02D017F8015FC8E79AF888
:101CE00000308B4D8B4E28788B4CC3F11F030121A4
:101CF0008AF8003005F0C8FA2878002105F0B0FA1B
:101D0000864B0121187805F0BFFA3078012105F0E3
:101D1000BBFA04F592650023FF222846194684F891
:101D2000B82484F8C43404F09DFA2846C4F88C54CE
:101D300003F04CFE30B901231A46D4F88C14204627
:101D400003F0EEF8D4F88044734B002C00F0A5802B
:101D500002AF2146384600240123714A8DF808401D
:101D60008DF809408DF80A4001F07EFE002840F011
:101D700090806C4D6A4A6849384640F2022303F06D
:101D800043F99DF80C10049A9DF814302971AA604B
:101D900006A92B7305F1100003F050F8624B029373
:101DA00006A803F037F8A86C002800F08E805F4981
:101DB00001F084FE5E4C02E0FEF770FC10B1237867
:101DC000002BF9D1A86C574B002800F08780002128
:101DD00001F0A2FF574C204600F068FA564AE37A19
:101DE000126803B372B6E37ADF07194606D5534883
:101DF000E16805682940E161016019469D0706D543
:101E00004F4823690568E17A2B4023620360480745
:101E100006D54C4863690568E17A2B40636203602C
:101E20000B072FD462B62368D9688A4207D0464888
:101E300018604649DA6042F08040186119603078D5
:101E4000002105F00DFA002211461820FEF7B0FC23
:101E5000FEF774FD1F2200211020FEF7A9FC0322CB
:101E600000210C20FEF7A4FCFEF768FD384B394A30
:101E70001A603949394841F26F7206F021FF16B0F5
:101E8000BDE8F0873649A36908680340A3620B6088
:101E9000C8E7384602F0A0FC6BE7D3F8841402AF21
:101EA00000293FF466AF384601231D4A8DF83940BA
:101EB0008DF83A408DF83B4000F084FE00283FF456
:101EC00058AF384600F0CCFE53E7E86C00283FF4EA
:101ED00071AF164A002301F045F86BE7D86C002873
:101EE0003FF478AF0022002300F0AAFB72E700BFA6
:101EF0000000000000000040F4061400B008FF1FBE
:101F0000C4520220E8C30000C408FF1F2C12FF1FA8
:101F10004607FF1F4407FF1FF44D02204A07FF1F1B
:101F2000DCC3000080B8FF1F9CC300000020A10795
:101F3000D03802205008FF1F2C90FF1F80E100E0E6
:101F400084E100E088E100E001403F0000003F80C4
:101F50002490FF1F0000C842710E0000BC520220F6
:101F60008CE100E010B4047F4160022CC26003D019
:101F70005DF8044B06F0C6BC83685DF8044B184757
:101F80002DE9F0410468E56815F0807F794D256002
:101F900052D1DF0740F1B380002900F0E3800D78D3
:101FA000012B18BF45F000456563013190F82C8086
:101FB00003F1FF3C48EA0828BCF1000F00F0A880BC
:101FC00021B14D7811F8028B45EA082845682E7A30
:101FD000BCF1020F06F1FF364FEA06360CBF48F09F
:101FE000805548F01045B6B26563ACF1020C08E0CC
:101FF0000AB114700132013B05F47045B54216D99F
:102000000468E56A15F0F00FF6D0A46B13F0010F29
:1020100017464FEA242EEBD11AB107F802EB5470A1
:102020003A4605F47045B542A3F10203E8D8BCF185
:10203000000F6DD00468C3E7DD074CD5002900F020
:1020400089800D78012B18BF45F00045656301318B
:1020500003F1FF3E90F82CC0BEF1000F41D029B132
:1020600091F801C00D78023145EA0C2C45682E7AB2
:10207000BEF1020F06F1FF364FEA06360CBF4CF0F8
:1020800080554CF01045B6B26563AEF1020E08E023
:102090000AB114700132013B05F47045B54215D9FF
:1020A0000468E56A15F0F00FF6D013F0010F17463B
:1020B000A46BEDD122B107F8024B241254703A46BA
:1020C00005F47045B542A3F10203E9D8BEF1000F53
:1020D00007D00468C3E79E4690F82CC0BEF1000FFD
:1020E000BDD11BB30468E16A11F0F00FFBD0A16B06
:1020F000DC071DD50AB111700132013BF1E790F800
:102100002C809C4648EA0828BCF1000F7FF458AFA9
:1021100063B10468E16A11F0F00FFBD0DE07A16B38
:102120000FD50AB111700132013BF1E7BDE8F08132
:102130002AB114460D1204F8021B55702246023BC8
:10214000CFE72AB114460D1204F8025B5170224603
:10215000023BDDE790F82C50012B18BF45F00045FD
:10216000656375E790F82C50012B18BF45F00045CA
:1021700065631BE700041F80F0B4464B464A986B2A
:102180005C6B01791170454922790A701A6B0079EC
:102190000870002A46D05968C9688A423ED821682A
:1021A000CC8B240402F1FF3065D4C0F30E00C88349
:1021B000C88B80B2C882996B0968C88B000452D45E
:1021C000C2F30E00C883C88B002480B212F1FF3224
:1021D000C88218BF01221C63596B2E4809680D681C
:1021E00000F12C04A54236D00068C46814F0804F7A
:1021F0000C680D6815BF248824780235013544F039
:1022000000440D604463996B254B0979197021498D
:1022100012B14A6B12791A70F0BC7047521A1A63E5
:102220000122D9E7D86B196805681E4C0A63CC6295
:10223000CC682D681C4E24F080440327B542CC6046
:1022400083F82D701FD1037F4260022BC2601ED025
:10225000F0BC06F057BB016890F82C00CC6840F049
:1022600000404863CFE7CC8BC2F3080004F47E44FF
:102270002043C883A7E7CC8BC0F3080004F47E4456
:102280002043C88394E72B461146F0BC1847836867
:10229000F0BC18475008FF1F1F8000401C80004002
:1022A0001B80004000000FFF651F000090E80C003D
:1022B000F0B41C6859682568164F174E29432160F1
:1022C000164D17491760D66015611160417A154A9D
:1022D0005C180C3194F82C4053F8215002EBC401E7
:1022E00049680D60017A5C1803EB8101247ECD6999
:1022F00002EBC40149680D60817A581803EB810331
:1023000090F84000596C02EBC002F0BC53681960B1
:10231000704700BF01401F00011000380110007815
:1023200000001F806CC7000070B4417A44680E4BF7
:1023300005680E4E2144002291F82C1003EBC101D8
:1023400049680A60017A2144097E03EBC1014968AA
:102350000A60817A214491F8401003EBC1035B6865
:102360001A602E6070BC70476CC7000001401F00EF
:102370000BB1FFF705BE7047F0B500F12403054629
:102380000E46174693E8070085B001AC84E80700C5
:1023900072012146286A01F027F9012806D13A4640
:1023A0002146286A01F0E6F805B0F0BD002005B02E
:1023B000F0BD00BF10B5044600F048FD002384F8CE
:1023C000313084F8333010BD90F831200AB100204C
:1023D000704738B504460D461146382209F00CFD09
:1023E0004023012084F8313084F83300256238BD61
:1023F00070B40D460978202903D115F8014F202C1F
:10240000FBD0184915600EE0A4F12206F6B21D2E8D
:1024100020D904F0BF063C2E0ED05C2C0CD02E2C04
:1024200002D0202C00D095602C782E46013564B166
:102430002F2C06D01F2CE7D8002070BC704716F850
:10244000014F202CFBD02F2CF9D01E60114670BC00
:1024500000F098BF21FA06F6F607DAD5002070BC26
:10246000704700BF010100312DE9F04F90F8333083
:10247000DE0783B004465AD55D060E46934640F10A
:10248000B780D4E90001D4E9042310EB0B0841F133
:1024900000094B4508BF4245C0F0B080BBF1000FBA
:1024A0006ED0A146F9E806015D46276AD7F83834B0
:1024B0000340C3F3080A002B68D150EA010275D12A
:1024C00094F8312051064CBFD7F83424E269A26158
:1024D000D7F82C0497F845E45B0A023A191802FA77
:1024E0000EF21144BAF1000F2CD1B5F5007F29D3BB
:1024F000D7F81C22914225D0B5F5806F5DD34FF0FF
:10250000010808FA0EF8C3EB08034FEA552898456E
:1025100028BF984691423BD808EB01039A4237D234
:1025200007F50470019104F023FB019980BB94F836
:1025300032304FF0FF3043F0020384F8323003B002
:10254000BDE8F08F07F50470002204F0E1FA0028DE
:10255000EDD0CAF50078A84528BFA84600EB0A01CF
:102560004246304604F0D2FB42460023D4E9000143
:1025700080185941B5EB08054644C4E9000194D1DF
:102580000025C5EB0B0003B0BDE8F08FA2699FE703
:10259000D7F81402036832465F694346B8470028FB
:1025A000C5D04FEA482842460023DFE794F833209D
:1025B000520610D5A269013289E7D7F814020368E0
:1025C00032461B6998470028B1D04FF400720023AF
:1025D0004FF40078CAE738464A46A169019300F0F3
:1025E000E3FF0028A3DB0CD0276AA269019B6FE7F9
:1025F00090F8313018073FF544AF4FE7C0EB020BBE
:102600004CE794F8313013F0500FBAD18FE700BF88
:10261000F0B583B001220DF107010446D0E900674F
:102620008569FFF721FF012808BF9DF80700A56114
:1026300018BF4FF0FF30C4E9006703B0F0BD00BF22
:102640002DE9F04F90F831E0856983B00446BEF182
:10265000000F1BD0D0E90001994208BF90421646F6
:102660001F463BD056EA070307D10023A361012090
:10267000C4E9006703B0BDE8F08F1EF0080F0AD070
:10268000D4E90423BB4208BFB24204D2A5610020B2
:1026900003B0BDE8F08F236A019393F845C494F822
:1026A00033A00CF1090C5FFA8CFC16F1FF3247F1F4
:1026B000FF33CCF1200803FA08FB22FA0CF242EABD
:1026C0000B02ACF1200B23FA0BF31AF0400F42EA95
:1026D000030205D0E3691A44A261C8E70120D7E7E5
:1026E00010F1FF3941F1FF3A29FA0CFC0AFA08F817
:1026F0004CEA080C2AFA0BFB4CEA0B0C62455346D9
:1027000017D21EF0400F16BF019BE369D3F8343493
:10271000A361904604F118094A46B8F1000FA6D00B
:10272000A169206A00F040FF002808F1FF38F3DCBF
:10273000ACE750EA0103E4D0CCEB0202E9E700BFCA
:102740002DE9F04F0C468FB090F83110019381467F
:1027500021B994F8313013F0500F07D1002089F8D7
:10276000310089F833000FB0BDE8F08F019B03F012
:102770000303012B154606D0022B00F0FE80002B30
:10278000ECD1012200E00222019B03F00803134375
:102790000293002D40F0DD800327029B002643F0CA
:1027A0004003B3460393202206A92046FFF75CFEB0
:1027B000F0B12028D2D19DF81830180645D4BBF1CD
:1027C000000F04D12268D4F818A0A2F12008BB455C
:1027D0003CBF0BF1010B5FFA8BFB002B00F0CF80AD
:1027E000202206A920460026FFF73EFE0028E0D161
:1027F000019B9905B2D5029B9A07AFD5002DADD0AC
:10280000BB4580F0C5802B465E4655469A460AE099
:102810002028A3D11EB92268A569A2F12008DEB242
:10282000B74240F2B280202206A92046FFF71CFEE4
:10283000731C0028ECD12046D4F818B000F036FB09
:1028400000288BD0C4F818B0EAE756BBBB4538BFA8
:102850004FF0000B852BA6D131463822484609F0AF
:10286000CBFA9DF81C309DF8192089F83020D90644
:1028700003F0370258BF42F0080289F8312023687C
:10288000216AA269C9F82420203BC9F82010C9F8A0
:10289000283094F83330C3F3801389F82C300126A4
:1028A00081E7C02B29D0C12B9AD12A4606A94846D8
:1028B00000F042FD002866D0AB89002B7FF473AF97
:1028C000AA686B689A427FF46EAF019B1F053FF5C3
:1028D00045AF019B13F4884F40F0AC8099F833303A
:1028E0009E0700F1A780019B5B053FF537AF019B79
:1028F000580400F1BD80012035E79DF819309DF89E
:10290000082089F833209B0744BF9DF80C3089F8D4
:102910003330DDE90823DDE90C01C9E904230B9B11
:10292000C9F81C30C9E90201002DCED09DF81B303A
:102930002A69296869604FF000009A42A8817FF4F3
:102940004FAFBDF81C60AB8AF61AB6FA86F6760968
:1029500029E72B69614F0E33A7FB0337D4E9002326
:10296000FF0802371343FFB23FF417AF00230022E2
:10297000C4E900230023A3610FE7032204E7002D2D
:102980007FF436AFEAE606460DE75346AA461D46F3
:1029900094F8336038220021484609F02DFAC6F336
:1029A00080160823226A89F82C60C9F824A0C9F887
:1029B000288089F831302B68C9F8202000266B6008
:1029C000AE819FB307F1FF38DFF814A1B3465FFA79
:1029D00088F8012259464846FFF7CEFC04460028F5
:1029E0003FF4BCAE90F90030002BFFF6B7AE2022CA
:1029F000002109F001FA002E43D0BBF1010F59D09C
:102A0000C123A34623701E34AB8928461BB96A68CC
:102A1000AB689A4205D004F0B3F82BF8020F5C457E
:102A2000F2D101365FFA86FBBB45D2D3484600F0AF
:102A30000DFA98E699F8313013F0110F7FF48EAE4D
:102A4000019B5D057FF553AF99F833309C077FF507
:102A500085AE002200234846FFF7F2FD00283FF430
:102A60007DAE484600F0C4FA00283FF477AE42E756
:102A7000D9E904234846FFF7E3FD00287FF43BAF84
:102A80006CE68523237089F8308084F80180DAF8B9
:102A90000030EBB10DF113020DF1160105A89847B6
:102AA000BDF81410BDF816209DF813306181228105
:102AB0002375B6E7029B84F801B063F07F03C02260
:102AC000227089F833302B69E370AB8AA380A8E7C2
:102AD00045F221636381E3816382A2E78988888864
:102AE000286702202DE9F041044696B094F8315051
:102AF000019200208DF851008DF852008DF853009E
:102B0000ADF8140035B9984691F8313013F0500FF4
:102B10000E4603D1002016B0BDE8F08113782F2BAC
:102B2000154624D0002716E0019D2D782046002D63
:102B300032D0FFF705FE342221460028EAD008A84B
:102B400004F0E4F8204600F081F9019D84F831702A
:102B500008AE84F83370294601AB02AA2046FFF77D
:102B600047FC002302AA31460028DDD1D2E7013517
:102B7000019529782F29FAD0B9B1382208A8002167
:102B8000376A09F039F94022012308AE10978DF811
:102B900051208DF85330C5E7434602AA31462046FE
:102BA000FFF7CEFD16B0BDE8F08138222046356A29
:102BB00009F022F940230120256284F8313084F89D
:102BC0003300A8E719B101F58961FFF78BBF08460B
:102BD000704700BF8169F8B50446006A01B1013150
:102BE000012200F019FC012806462FD901230146D5
:102BF0001A46206A00F06AFC074638B3A06994F8C8
:102C0000333030B35A0613D5421C964225D023F0F8
:102C1000400284F83320E36905E0206A00F008FDF3
:102C2000A0B1A0692B465D1C834219462A46F4D305
:102C30004FF0FF323146206A00F0FAFC30B1A16952
:102C400059B13246206A00F0F3FC30B9002738460B
:102C5000F8BD43F0400384F83330A6613846F8BD30
:102C600090F833309A0739D5C1692DE9F04105460E
:102C7000A9B9002407E0037803F07F03037095F8F7
:102C80003030A3422CD3214601222846FFF774FBA3
:102C90000134E4B20028EED10020BDE8F0815B06EB
:102CA000006A35D5D5E9026790F845340933DBB2BF
:102CB00016F1FF3647F1FF37C3F1200426FA03F27D
:102CC00007FA04F4203B27FA03F322431A430132A4
:102CD000002300F0FBFB0028CBD1DDE7002070478C
:102CE0002C6A0023204685F8313085F8333003F014
:102CF0003FFF0028D0D004F5047003F039FF00280E
:102D0000CAD0D4F840040368BDE8F0411B6A1847F4
:102D100000F0A0FC0028ACD1BEE700BF2DE9F043D5
:102D20000026494F83B08046344600223146404653
:102D3000FFF722FB054630B10378C02B6DD0C12BC5
:102D400069D0852B09D098F8323043F0010388F818
:102D50003230002003B0BDE8F08398F83130D7F866
:102D6000009003F037038380B9F1000F10D00DF10C
:102D700003020DF1060101A8C847BDF80620BDF801
:102D800004309DF803106975AA812A82EB816B8259
:102D9000D8F8202092F8103243F0010382F8103264
:102DA00095F800E00021E203685C42EA540310FA5F
:102DB00083F301299CB201F1010126D01F29F2D928
:102DC000013698F83030F6B2B342AED2012208F1A3
:102DD0002401D8F8200000F0CDFB0028B3D0D8F8AB
:102DE00020504480284603F0C3FE0028ABD005F5F0
:102DF000047003F0BDFE0028A5D0D5F84004036898
:102E00001B6A984700289ED0A4E7BEF1850F0CBF2F
:102E100004210221C7E79E46C4E798F8333013F037
:102E2000400F437814BF43F0020323F002034370C2
:102E3000D8E90423C0E90223D8E90223D8F81C10FA
:102E40004161C0E90623A3E72867022090F83120FA
:102E500092B138B590F8332011060FD4056A0446B4
:102E6000284603F085FE88B994F8323043F0010318
:102E700084F83230002038BD0120704702F07F0214
:102E800080F83320BDE83840FFF748BF05F50470EF
:102E900003F06EFE0028E7D0D5F8400403681B6AF3
:102EA00098470028E0D0012038BD00BFF8B590F861
:102EB00031305A06054650D480682B6AD3F83C342A
:102EC0001844B0F1806F01D30020F8BD2846FFF709
:102ED00081FE0028F8D0286AAB6990F84524D0F824
:102EE0002C64023B934001211E4411FA02F315D0D9
:102EF00000243119052200F5047003F009FE0134A5
:102F00004FF4007200210028DED008F075FF286A17
:102F100090F8452401239340A342EAD895F8313034
:102F20005B0615D495F8333063F07F0385F83330B2
:102F3000D5E90223D0F83C64D5E9040192194FF099
:102F400000077B4180197941C5E90223C5E90401E5
:102F50002846BDE8F840FFF779BF006A00F026FC7C
:102F6000ABE700BF52EA030103D090F833108907A2
:102F700001D400207047C1690029FAD12DE9F84336
:102F80000646006A1D4690F84534093312F1FF38B1
:102F9000DBB245F1FF39C3F1200709FA07F7144600
:102FA00028FA03F2203B3A4329FA03F31A43571C49
:102FB0003A4600F031FA0128804606D901463A46E1
:102FC0000123306A00F082FA10B90020BDE8F883CE
:102FD00096F83330C6F81C8063F03F0386F8333030
:102FE000C6E902453046BDE8F843FFF72FBF00BFF2
:102FF00090F833309A0718D5F0B5C56983B08DB114
:1030000003F04003044603F0FF0083B9A1690029DF
:1030100041D10195E1612946206A00F01BFB30BBDC
:10302000002000E0012003B0F0BD00207047206ABE
:10303000A16990F84534D4E902670933DBB216F18F
:10304000FF36C3F1200E47F1FF3726FA03F207FAE5
:103050000EFE203B42EA0E0227FA03F31A43013226
:10306000B1B1013D6D1A01312A44019102BBD4E98D
:10307000000194F8333063F07F03C4E90201C4E92E
:10308000040184F833302046FFF7E0FE03B0F0BDC2
:103090000195E161EAE702AA42F8040D206A00F016
:1030A00083FA0028BCDB0AD1019D002DDFD0B2E7F6
:1030B0000023019900F00AFA0028D8D1B0E74FF0B8
:1030C000FF32A169206A00F0B3FA0028ECD1A7E72B
:1030D0002DE9F04F90F8333083B09D0704460092FD
:1030E00040F1AA801A07894600F19F80009B002BBF
:1030F00000F01C812146F1E80623DDF800800191F3
:103100004FF0010BCA46206AD0F838541540C5F379
:10311000080945BBA169002900F0C28094F833304A
:103120005B0640F1D680D4E9026790F84524E36954
:103130000932D2B216F1FF3647F1FF37C2F1200E45
:10314000D64007FA0EFE203A46EA0E0627FA02F2A9
:10315000164333449942C0F0B9802046FFF73AFD48
:10316000002869D0206AA669D0F82C7490F845E44C
:103170006D0A023EE91906FA0EF63144B9F1000F64
:1031800040F08780B8F5007F60D2D4E90423D4E909
:103190000067B8F5007F454628BF4FF400759F4291
:1031A00008BF964234BF0122052200F5047003F0E7
:1031B000AFFC002840D048442A465146A94403F0B9
:1031C000A5FDB9F5007F00F09C8028460021D4E9D8
:1031D0000023D4E9046712184B419F4208BF96426E
:1031E000AA44C5EB0808C4E9002307D294F83310B9
:1031F000C4E9042361F07F0184F83310B8F1000FB3
:1032000081D1D4E90201994208BF9042C0F0828086
:10321000484B1B68002B00F0878094F833300098EF
:1032200063F07F0384F833300DE0D0E90423FFF727
:1032300007FA00287FF45AAF94F8323043F00103C4
:1032400084F83230002003B0BDE8F08FB8F5806F0D
:103250002AD30BFA0EF35D1BD0F81C224FEA582339
:10326000AB4228BF2B4691424FEA432508D8CE18DF
:10327000B24205D24FF0FF3280F81092C0F81C2203
:10328000D0F8140206685246B66AB04700289CD1AE
:10329000D2E7C9F50075454528BF4546012284E7B8
:1032A000E669F6B1A6615FE7D0F81C32994221D0F9
:1032B000D0F81402036852465B6A98470028BBD0D6
:1032C0004FF4007000214FF4007580E74E1CA6619A
:1032D0004AE7019A00F068F90028ADDB7FF442AFBD
:1032E0003BE72046FFF776FC0028A5D0A669E661FB
:1032F000206A39E74FF0FF3380F81092C0F81C3293
:10330000D6E7206A00F5047003F032FC00287FF451
:103310005CAF91E794F83310009861F07F01C4E945
:10332000022384F833108EE700988CE7D4E9002359
:1033300067E700BF286702202DE9F0410C461546DB
:1033400001F11E08AB8934F8026F28461BB96A6880
:10335000AB689A420ED003F013FC03F07FFC0746E3
:10336000304603F07BFC874209D14445EAD1012075
:10337000BDE8F081B6FA86F04009BDE8F081002092
:10338000BDE8F081F8B50A684A6000230E461F4682
:103390008B810B611C464FF6FF7516E003F0F0FBC6
:1033A000A84221D003F05AFCE30343EA540454FA40
:1033B00080F33169B789C3F34E02041242EAC33382
:1033C00014FA83F40131A4B231613046002FE5D103
:1033D0007268B3689A42E1D13069B4820138FE283C
:1033E0008CBF00200120F8BD0020F8BD38B50C4688
:1033F000D0F82414154601EBD41100F50470012215
:1034000003F086FB034628B1A400C4F3080401209E
:103410001D5138BD38BD00BF2DE9F84F804691469B
:103420008B46002944D08F1ED8F830349F423BD2BF
:1034300007F00705012303FA05F5EDB2C7F3C80A43
:103440003E463C46D8F82C14002201EB143140468D
:1034500003F05EFBC0B110F80A100AE04A452AD01A
:10346000A74210D0D8F83024944217D213F0FF05A9
:103470000CD001340D424FEA4503A4EB0602EDD017
:10348000A7422646EED10120BDE8F88F0AF1010AD5
:10349000BAF5007F4FF00105DDD101E0002634468A
:1034A0004FF0000A0125CDE70027BA460125C7E7FE
:1034B000D0F82074B8E7BBF1000F04D1B9F1010FC7
:1034C00008BFC8F82064B01CBDE8F88F2DE9F047AC
:1034D00002398046D0F8300415468A18824238D81E
:1034E0009A46D8F82034BAF1000F35D1994238BF46
:1034F000C8F8201401F007040122D8F82C3402FA8D
:1035000004F4E4B203EB1139C1F3C80601224946C1
:103510004046914403F0FCFAD8B1871900F50070D9
:1035200017F8012B224214BF01260026564582EAD5
:1035300004024FEA44040CD0013D07F8012C15D0D9
:1035400014F0FF04EED1B84226464FF00104E7D153
:10355000DCE70020BDE8F0879942CBD89A42C9D970
:10356000824228BF0022C8F82024C3E70120BDE81A
:10357000F08700BFF8B50E4696E82800D0F838145A
:10358000D0F82C4490F845742940023B04EB5121BB
:10359000BB40194400F5047003F0BAFA18B173681F
:1035A000C3F308031844F8BD38B5D0F830340133FC
:1035B0008B4215D30C46D0F82414154600F5047040
:1035C00001EBD411002203F0A3FA48B1A100C1F32A
:1035D000080143585A1C1ABF01202B60002038BD37
:1035E0004FF0FF3038BD00BF70B50D464968D0F8C8
:1035F000383406468818686096F845440B4009340C
:103600001A44E4B222FA04F43CB12B7A3BB12B68A1
:1036100001332B60013C002CF7D1012070BD2A46FC
:1036200029683046FFF7C0FF0128F3D070BD00BF06
:1036300001290DD9D0F830340133994210B403D99F
:1036400000205DF8044B70475DF8044BFFF7CEBED9
:10365000002070472DE9F0410C4682B005460E4629
:1036600001AA21462846FFF79FFFB0F10008214636
:103670004FF00002284625DB012C23D9D5F8303441
:1036800001339C421ED8FFF7B1FE671C3146002370
:10369000BA1BB8B12846B8F1000F08D0019CA74268
:1036A000DED0FFF713FF68B1019C2646D8E7621C05
:1036B000921B434631462846FFF708FF10B102B07F
:1036C000BDE8F081002002B0BDE8F081F8B5044605
:1036D00000234FF0FF3600F50477C0F84014416036
:1036E000C0F814121546384684F84434237084F820
:1036F0001032E660C4F81C621A46194603F008FA54
:10370000042D0CD8064650B15DB905222649F01C9F
:1037100008F044FC18B996F86C30092B19D0002039
:10372000F8BD6B1E00EB031393F8BE2112F07F026D
:10373000F5D193F8C231002BF1D000EB05153846D6
:10374000D5F8B651294603F0E3F906460028DCD146
:10375000E5E7336D2B44C4F82434736DC4F8283482
:10376000B36D1D44C4F82C54F36DC4F83034336E7B
:10377000C4F8343496F86D3084F8453401250933A3
:1037800005FA03F35A1EC4F820040146C4F83C3479
:10379000C4F8382420462A46FFF73EFE402384F82A
:1037A00044342846F8BD00BF84C4000070B582B020
:1037B00002AED0F8341446F8041D0546002403E098
:1037C00004F1010407D0019932462846FFF7ECFEC8
:1037D0000028F5DA002495F845040930C0B204FA4F
:1037E00000F002B070BD00BF38B504460D4624227B
:1037F000002108F001FBA560EB79102B05D0202BF0
:1038000008D00C2B01D0002038BD202301202370CC
:10381000A07038BD402301202370A07038BD00BFC8
:10382000024638B552F8105F04462946806801F018
:103830007BF950B155B123690135AB42A37818BF6C
:1038400003F0BF0363F07F03A37038BDA37843F098
:103850004003F7E7F8B5037803F020032BB903F032
:10386000FF044169194B994202D900273846F8BD37
:103870000546FFF7D5FF07460028F6D0A8682B6954
:10388000817946690279023B8B401E4442B913E0BC
:1038900008F0B2FAA86801340379E4B2A3420AD965
:1038A0000522A119283003F033F94FF400720021EA
:1038B0000028EDD1D9E7817968694FF4007202FAE6
:1038C00001F310FA83F36B61D0E700BFFFFD1F0027
:1038D00010B5044680680A462830A16903F018F93B
:1038E00020B1A38803F00F0300EB431010BD00BF0D
:1038F00070B590F90230002B82B0044619DBA56840
:1039000005F1280003F034F930B9637843F001037E
:103910006370002002B070BD05F50E7003F028F949
:103920000028F2D0286803681B6A98470028ECD06A
:10393000F0E70121FFF7CCFF05460028E5D003782A
:10394000E52BE2D023780E4A1B0744BFE369C3612D
:10395000236A166843831B0C838266B10DF1030250
:103960000DF1060101A8B047BDF80430BDF80620EE
:103970002B836B82EA82A37803F07F03A370BEE7F8
:103980002867022010B50378044623B9002323706A
:10399000A370012010BDFFF7ABFF00232370A370BD
:1039A00010BD00BF2DE9F041064694B03578019274
:1039B00000208DF808008DF809008DF80A00ADF898
:1039C00038002DB998460B7813F0700F0C4603D1D0
:1039D000002014B0BDE8F08113782F2B114626D0BB
:1039E000002703E001993770B77002AC01AB0BAA56
:1039F000304600F09BFE0BAA214600230028E7D0AA
:103A0000019D2D7830460DB300F048FD354602ACDF
:103A10000028DDD00FCD0FC40FCD0FC433782A6836
:103A20002260002BDED03046FFF762FFDAE701317B
:103A300001910B782F2BFAD08BB1A16802A8FFF768
:103A4000D3FE0028C4D0019902ACC9E743460BAAB3
:103A50002146304600F022FD14B0BDE8F081A16897
:103A60003046FFF7C1FEB4E719B101F58961FFF7F0
:103A700099BF0846704700BF38B5CB6843B9027894
:103A80000AB1184638BD8968BDE83840FFF7ACBEBA
:103A900004460D462422002108F0AEF9012310222D
:103AA0002270A370A968EA682262A160184638BD36
:103AB00003780BB100207047FFF796BE09B90020CC
:103AC000704738B583789B0701D4002038BD036A5E
:103AD000002BFAD104468068837909330D46DBB2A6
:103AE0000139D940013104F1200201F06FF80028BA
:103AF000EBD0A3782278E56163F01F03A37002B9CD
:103B000038BD2046BDE83840FFF7F2BE2DE9F04F42
:103B10008378DF0783B0054640F192800F46017835
:103B20000E07914600F195808C0608D5826843699E
:103B30005289C3EB42139BB2994528BF9946B9F10C
:103B4000000F00F0AC806B69AA6888064E464FF003
:103B5000000805F1100AC3F3080B40D5116A01EB08
:103B60005321BBF1000F55D1B6F5007F52D3536BF3
:103B700099424FD0B6F5806F74D3287880064FEA0B
:103B8000562B05D41079C8EB0000834528BF834627
:103B900099424FEA4B240DD801EB0B00834209D226
:103BA00002F128000191009202F0E2FF009A0199CF
:103BB000002845D0D06A02685B46D2F814B03A4675
:103BC000D84700283CD06B69361B234427446B61DF
:103BD00065D02978AA688806C3F3080BBED492F88A
:103BE000058008EA5328BBF1000F39D1B8F1000F66
:103BF00036D1002B40D149064CBF146A2C6A2C6187
:103C000091795069023C8C4008EB00012144BBF1E2
:103C1000000FA9D002F12800002202F079FF78B14C
:103C2000CBF50074B44228BF344600EB0B012246AA
:103C3000384603F06BF8C6E72B7813F0700F2FD1DE
:103C40006B784FF0FF3043F002036B7003B0BDE8B8
:103C5000F08FC36942699B1A994528BF99466EE760
:103C60002C69CDE7D06A03683A461B69984700285B
:103C7000E6D04FF40074A6E70B0705D5AB785C06D9
:103C800002D52C690134BAE710462969524600F082
:103C9000D5FE0028D4DBCFD0AA682C69B0E7002677
:103CA000C6EB090003B0BDE8F08F00BF70B582B06D
:103CB00001220DF10701044646690569FFF726FF59
:103CC000012808BF9DF80700666118BF4FF0FF305C
:103CD000256102B070BD00BF30B54369C3F3431521
:103CE00083B0044605B189B901220DF107012046D0
:103CF000FFF70CFF40B201280BD163691F336361EA
:103D0000A068383000EB451003B030BD203343616C
:103D1000F6E7002003B030BD2DE9F04103780769D4
:103D20000446B3B10D464169A9422BD045B9837809
:103D3000056123F02003A37065610120BDE8F081D7
:103D400018070AD49A060BD5A3685B89B5EB431F05
:103D500034D927610020BDE8F081E2699542F8D8A6
:103D6000D4F808E0A2789EF806000930C0B26E1EB2
:103D700012F0400F26FA00F607D0236A1E4426618F
:103D80001346D6E70120BDE8F0814A1E22FA00F072
:103D9000864215D25B064CBFDEF82030236A2361D1
:103DA00004F1100807E02169A06800F047FE002830
:103DB00006F1FF36CDDD4246002EF4D1A378B8E7F8
:103DC0000029E7D0361AEBE72DE9F0410D46904681
:103DD0000021242204461F469DF8186008F00CF8C4
:103DE000A8682B6AE36000F1380208F00F0302EBC9
:103DF0004312A060A4F80480D17A0D0712D401F018
:103E000017012170D37AE67013F0180F08BF41F044
:103E1000080107F0030308BF2170012B07D0022B14
:103E200029D01BB300202070A070BDE8F0810223D0
:103E3000A370217811F0110FF4D159B207F4806505
:103E400007F008030B43DBB2A370B2F814E0518B08
:103E5000466BA66141EA0E4185B1D1B963F07F039B
:103E6000A3707B040ED40120BDE8F08117F48065B7
:103E7000D8D10121E4E70323A370DAE72162D369F3
:103E8000E361EEE7E1692046FFF746FF0028EAD14B
:103E9000C8E700F001FF0028C4D0A378DEE700BF28
:103EA00003780BB1FFF724BD012070472DE9F843DB
:103EB00083789C0705465ED590461A070F4655D471
:103EC0006A69D343984556D8B8F1000F3ED04646AC
:103ED000A868437913EA5224C2F3080961D1B9F101
:103EE000000F78D12969002900F0B280AB785B0619
:103EF00048D5EB69934245D94B1C2B6182794369C4
:103F000001399140B6F5007F194472D2B6F5007FB1
:103F1000344628BF4FF40074AB7813F0200F0CBF69
:103F200001220522283002F0F3FD20B34844224646
:103F30003946A14402F0EAFEB9F5007F00F099800D
:103F40006A69361B224427446A61C1D1EB699342F6
:103F5000C0F0A180554B1B68002B00F0A480AB780B
:103F600063F07F03AB704046BDE8F883C169FFF79B
:103F7000D3FE0028A4D16B7843F001036B700020BE
:103F8000BDE8F88305F1100200F058FD0028F2DBCF
:103F900004D12846FFF744FC0028ECD02B69A86820
:103FA00059E02B6981794269023B03FA01F111441E
:103FB0002144B9F1000F15D1B6F5007F19D26A6915
:103FC000EB69B6F5007F344628BF4FF400749A427F
:103FD000A2D30522A6E72B6981794269023B03FA45
:103FE00001F11144C9F50074B44228BF34460122DE
:103FF00098E7B6F5806F1ED30379D0F834E01B1B29
:10400000720A934228BF13468E454FEA432409D3D0
:104010005A18964506D24FF0000E4FF0FF3280F846
:1040200028E04263C06A0268D2F828903A46C8473E
:10403000002885D19FE7436B8B4213D0C06A036889
:104040003A465B6A9847002895D04FF4007477E7AA
:104050002B6AB3B12B6181794269023B03FA01F10A
:104060001144A9E700224FF0FF3380F82820436372
:10407000E4E7A868283002F07BFD00287FF460AFF9
:1040800079E72846FFF7CCFB00283FF474AF2B6993
:104090002B62A868DFE7AB78EA6163F07F03AB705F
:1040A0004046BDE8F8834046BDE8F8832867022013
:1040B0002DE9F04F0746154606468A4699460FCF2A
:1040C0008DB003AC0FC40FCF0FC43B682A682360C8
:1040D00000236A60AB81B9F1000F35D0CDF80490B0
:1040E0004FF00108C8EB0A0189B2490103A8FFF7A4
:1040F00013FE58B3002103A8FFF7EEFD074628B3CF
:104100000024E2B23946304600F0FCFBAB8983461E
:10411000013428461BB96B68AA6893421AD002F092
:104120002FFD8146584602F099FD8346484602F02D
:1041300095FD83450AD10D2CE3D108F10108019BBF
:104140005FFA88F84345CDD2012000E000200DB091
:10415000BDE8F08FBBFA8BF040090DB0BDE8F08FE1
:104160002DE9F04F8DB006461546009199460FCEC9
:1041700003AC0FC40FCE0FC43368236005F11502E2
:1041800005F120004FF0000812F8011F4FEAC81394
:1041900043EA580851FA88F882425FFA88F8F3D166
:1041A0002B686B600026AE81B9F1000F52D049F048
:1041B0004003B24601270193009BD91B89B24901F4
:1041C00003A8FFF7A9FD002851D0002103A8FFF79D
:1041D00083FD00284BD0059A019992F82830B94503
:1041E0004FF00F0443F0010314BFBE468E4682F821
:1041F000283000F1040BC47280F80CA080F80D8008
:10420000A0F81AA080F800E000240CE00A2C04F1C9
:104210000104E4B294BFABF80000ABF802000D2C2F
:104220000BF1020B12D0AB891BB96A68AB689A42DA
:1042300014D0284602F0A4FC042CE7D80134E4B2E0
:104240000D2C2BF8030C0BF1020BECD10137FFB254
:10425000B945B1D201200DB0BDE8F08F16B9304696
:104260000126E9E70136F6B24FF6FF70E4E70020D9
:104270000DB0BDE8F08F00BF02462DE9F04752F8BF
:10428000153BD0F808E000F12004202102F8011FBE
:104290009442FBD11A782E2A14BF4FF0010C4FF034
:1042A000000C03D113F8012F2E2AFBD00EF1FF369C
:1042B0009E420FD91EF8012C2E2A18BFAEF1020221
:1042C00003D107E031782E2904D09342164602F13B
:1042D000FF32F7D19E454FF000087FD94146C246D4
:1042E00007274FF008091A782E2A44D0222A27D00F
:1042F0007C2A25D0A2F15B04022C21D9A2F12A0448
:10430000052C6DD9A2F13A04052C40D802F0C00268
:10431000802A08BF4FF0000C12D101339E45E2D82D
:10432000837D202B49D0BCF1000F4CD01AEA080F36
:1043300018BF4FF0020880F815800120BDE8F08713
:10434000B9420DD84FF0000C5F224C1C4518E1B269
:104350000629AA75E1D801339E450175C3D8DFE768
:104360000A2F2DD09E422BD3731E01339E454FF052
:10437000000CB8D8D4E79E42C8D101339E454FF017
:104380000A074FF008014FF01009ACD8C8E7A2F1B6
:1043900021045D2CBAD8B942E2D8A2F16104192CEB
:1043A00004D8203AD2B249EA0808CEE7A2F1410483
:1043B000192C98BF4AEA090AC7E70020BDE8F08730
:1043C000837D202BF9D0027D024401237E243121FC
:1043D00043759475D1751846BDE8F087C2469FE7CE
:1043E0002D2AD8D092E700BF2DE9F04FDFF8A8B012
:1043F0000F7D83B08846054601F116064FF062092D
:1044000000244FF07E0ADBF800300193019B032F5C
:1044100028BF03271C443B1DA4B2DBB204F00F02EB
:1044200008EB0301013B092ADBB294BF303237327B
:104430009F424FEA14148A75F0D308EB070300215A
:1044400083F816A02846FFF767FC01212846FFF7EE
:1044500043FC0B220346014698B193F800E0304636
:10446000BEF1000F14D0DB7A1B07EED407F092FCEC
:104470000028EAD109F1FF3919F0FF09C3D14846F4
:1044800003E06878B0FA80F0400903B0BDE8F08F2F
:10449000012003B0BDE8F08F2C6702202DE9F04F1A
:1044A0000C7814F0700F8DB001D004781CB100208E
:1044B0000DB0BDE8F08F14699A4E557D0C34A6FB03
:1044C0000464C4F387040394AC0740D14FF001089F
:1044D0000E4600210F46069315460990B3680492D4
:1044E000304608930791BA46FFF716FC3C46B9469A
:1044F000059705F1160B756900213046C5F34F1578
:10450000FFF7EAFB002862D00378E52B32D08BB3AB
:10451000444538BF00242E2B29D0C27A0F2A36D02A
:1045200002F0080202F0FF030ABBB9F1000F40F0ED
:10453000DB800B22594607F02DFC0028DBD1049BC1
:104540005B7DD80740F1E48001230593D3E7039C0A
:1045500004F101085FFA88F8BAE70AF1FF3A5FFA56
:104560008AFA534503D1437B079A9A4220D04FF0F1
:104570000009C0E7002C08BF2F4644453CBF01346A
:10458000E4B243B3E52BC6D14FF00009B3E7B9F16C
:10459000000FE2D1039A03F01F0A5245ABD15B062C
:1045A00002D4DDF80CA0A6E7437B07939146924620
:1045B000BAF1010F9FD1691C4B4689B2049A30466B
:1045C000FFF776FD002808BF4FF0000993E77378E6
:1045D000002B7FF46CAF069A13469A057FF567AF00
:1045E00003F00303013B012B3FF661AF002C08BF32
:1045F0002F46444503D31DE0DCB2A0451AD9002163
:104600003046FFF769FB631C0028F5D17378002B57
:104610007FF44DAFA0450DD9089D05E02B7904EB43
:104620000314E4B2A04505D93046FFF713F900287A
:10463000F4D13CE7059B33B104993046FFF7D4FE33
:1046400000283FF434AF08F1FF385FFA88F907EB30
:104650000905ADB229464B46049A3046FFF780FD66
:1046600000283FF424AF69013046FFF755FB0028CE
:104670003FF41DAF00213046FFF72EFB0446002813
:104680003FF415AF2022002107F0B6FB049F0B2258
:1046900007F11601204602F039FB234A7B7D17689B
:1046A00003F018032373002F36D00DF12B020DF108
:1046B0002E010BA8B847BDF82C10BDF82E209DF890
:1046C0002B302182E2816373089A92F8283043F0FC
:1046D000010382F82830CDF80090069B09982A46FD
:1046E0003146FFF771FBE3E6BAF1010F7FF4DFAE6D
:1046F000441E0A3014F8011FDA0142EA530351FA4A
:1047000083F3A042DBB2F5D1079A9A427FF4CFAE91
:10471000069B1905DFD5CAE645F221632382238370
:104720006382D1E74FECC44E28670220F0B51546EE
:104730000A78202A83B008461E4603D110F8013FAC
:10474000202BFBD02860037893B32F2B30D000248C
:10475000204F1BE07F2B04F101040DD81F2B24D91F
:10476000D9B2A1F12202D2B21D2A1AD901F0BF0199
:104770003C291AD05C2B18D02E2B03D0202B1CBF29
:104780002C61A86003789BB12F2B11D001AA011DC9
:1047900002F01EFA48B1019BB3F5803FDAD3023430
:1047A000EAE727FA02F2D207E0D5002003B0F0BD15
:1047B0002B69013BFE2BF8D8024610F8013B202B59
:1047C000FAD02F2BF8D032602846FFF755FD03B002
:1047D000F0BD00BF012100312DE9F04182788AB09F
:1047E000002392078DF804308DF805308DF80630DF
:1047F00020D5016A054611BB01212846FFF768F85C
:10480000C0B1411E00F10A070024E20111F8016F56
:1048100042EA540356FA83F38F42DCB2F5D1E5271E
:104820000770AE68002306F128002B70AB7002F011
:104830009FF950B9002630460AB0BDE8F081806883
:1048400000F02AFA0028D7D1F4E706F50E7002F03E
:104850008FF90028EED0306803681B6A9847064637
:104860000028E7D0EB78002BE5D001A82946FFF718
:1048700003F90028DED0EB78002BDBD04FF00108E5
:1048800020E001A8FFF728FA08F101010028D1D0A3
:10489000C37A0F2BCED1027802F01F0398455FFA3E
:1048A00081F8C7D1437BA342C4D10770A96891F8AE
:1048B000283043F0010381F8283053060ED4EB78FA
:1048C0004345B7D3A988C8EB010189B2490101A8C2
:1048D000FFF722FA00210028D3D1ABE7AC6804F13E
:1048E000280002F045F90028A4D004F50E7002F06B
:1048F0003FF900289ED0206803681B6A984700286B
:1049000098D098E7042A0CD90A2A06D90C2A9ABF0B
:1049100001EB4202D0880020704701EB42029088F0
:10492000704701EB4202B2F8010070472DE9F843ED
:10493000C379202B07460C46154606D0102B1AD0FB
:104940000C2B2FD00020BDE8F883037A8169022B5D
:104950000CBF0322012201EBD41100F50E7002F00E
:10496000D7F803460028EDD0A40004F4FE7401201B
:104970001D51BDE8F883027A8369022AC1F3072139
:1049800019440CBF0322012200F50E7002F0C0F89A
:1049900003460028D6D0640004F4FF7401201D53A0
:1049A000BDE8F883C1F34E03027A13FA81F38169FB
:1049B0009EB2022A01EB562800F50E790CBF0322A5
:1049C00001224146484602F0A3F80028BAD014F06C
:1049D0000104C6F3080310D0C25C591C02F00F0298
:1049E00042EA0512B1F5007FC2540BD0C5F307159A
:1049F000084405700120BDE8F8835A1CB2F5007F19
:104A0000C55415D13B7A022B0CBF0322012208F1B9
:104A10000101484602F07CF8002893D02D0954B9D2
:104A2000035DC5F3031523F00F031D432044E0E7A6
:104A30002D091446F4E7EDB2DBE700BF012970D978
:104A40002DE9F843C369994267D8C379202B1646EC
:104A500004460F462FD0102B3FD00C2B5DD1C1F355
:104A60004E058269037A15FA81F5ADB202EB55283D
:104A7000022B00F50E790CBF022200224146484667
:104A800002F046F8002848D0C5F308056B1CB3F5C2
:104A9000007F455D34D0C35CFA0745EA03234CBF71
:104AA0001B11C3F30B03E26993429ABF01203360E9
:104AB0000020BDE8F883037A8169022B0CBF022233
:104AC000002201EBD71100F50E7002F021F820B39F
:104AD000B90001F4FE714358E5E7027A8369022ABE
:104AE000C1F307210CBF02220022194400F50E7009
:104AF00002F00EF888B1790001F4FF71435AD2E751
:104B0000237A022B0CBF0222002208F10101484641
:104B100001F0FEFF08B10023BDE74FF0FF30BDE814
:104B2000F8834FF0FF3070472DE9F041C4688C42A4
:104B300082B005460F4690463ABF0C460026012635
:104B4000EB6901349C4201AA2846214609D9CEB915
:104B5000EC6801349C424FF0010601AA2846214628
:104B6000F5D8A7420ED0FFF769FF00280ADBE7D08F
:104B7000019B002BE4D106B1EC60012C02D9EB695A
:104B80009C4204D90026304602B0BDE8F0816FF0A7
:104B9000704221462846FFF7C9FE06460028F1D09C
:104BA0005FB1012FEED9EB699F42EBD8394622461F
:104BB0002846FFF7BBFE0028E4D06B6A002B01DB20
:104BC000013B6B62C8F80040DDE700BF2DE9F0470C
:104BD000C468C369671C9F4282B026D89146884644
:104BE000064602344FF0010A09E0E21B234688B171
:104BF000424520D0F269934204F1010415D8651EA4
:104C0000294601AA3046FFF719FF00280DDB019B5A
:104C1000002BEAD0F2692346AF4218BF4FF0000ADA
:104C20009342274604F10104E9D94FF0000A5046A7
:104C300002B0BDE8F087BAF1000F00D0F560012D99
:104C4000F3D9F369AB42F0D36FF070422946304696
:104C5000FFF76CFE82460028E7D0AF4213D2023C39
:104C6000012CE2D9F369A342DFD3621C214630460E
:104C7000FFF75CFE0028D8D0A74204F1FF3402D031
:104C8000012CEFD1D1E7736A002BA4BFC8EB03035B
:104C90007362C9F80070CAE770B5054682B00C4669
:104CA00012E0EB699C421CD8FFF740FEC8B16B6A6A
:104CB000002BA4BF01336B62EB689C423CBF04F144
:104CC000FF34EC60019C6EB101AA21462846FFF733
:104CD000B5FE061E21464FF00002284601DB012CDE
:104CE000DFD8002002B070BDF8B5044600230125CE
:104CF0004FF0FF30E5602160E162C4F83C12E371DF
:104D000084F8283084F838326063C4F844021546C9
:104D1000DAB1042A01D90020F8BD04F128061A46A8
:104D20001946304601F0F4FE05F18055013D2D0194
:104D300000F5DF735A190028EDD011790029EAD067
:104D40005B5D5B06E7D1956801E004F1280630461B
:104D50000022294601F0DCFE0028DCD0B0F80B3040
:104D6000B3F5007FD7D1037C2372013B012BD2D84E
:104D7000467B2671721E0023012E6271A37147D0FB
:104D800001210A4600E019465200D2B24B1C96425D
:104D9000DBB203D0092BF6D1A171BCE7A171C68AA1
:104DA00026610EB9466A2661C789B0F81130638161
:104DB00007EB050EC4F818E0077CB0F813205B0180
:104DC00006FB07E703F2FF1307EB53236361276238
:104DD00002B9026AED1A154425FA01F340F6F4729D
:104DE0005D1C4FF0FF319342E561616206D80C23F0
:104DF000E3712663C4F840620120F8BD4FF6F472F7
:104E0000934285BFC36A236210232023E371F0E736
:104E10001946C4E710B50446806B28B1FEF7B2FD11
:104E200010B10023A36310BDE06B28B1FDF7C2FAF7
:104E300010B10023E36310BD002010BD884270B59F
:104E4000064615D00D46FFF7E5FFAC6B94B1314631
:104E5000242000F063F80023037043708370B06374
:104E6000AD6B04460FCD0FC40FCD0FC42B6823606C
:104E7000304670BDEB6B002BFAD03146382000F085
:104E80004DF880F8314080F8324080F83340F063CC
:104E90003422E96B01F03AFF304670BDC9B32DE909
:104EA000F0410C46054698461746FFF7B3FFD4F885
:104EB0008064AEB12946242000F030F80021017052
:104EC00041708170D4F88014A86343463A46FEF7D7
:104ED000CBFD10B10120BDE8F081A863BDE8F081F1
:104EE000D4F88434BBB12946382000F017F880F894
:104EF000316080F8326080F83360D4F88414E8635D
:104F000043463A46FDF75EFE0028E3D1E863BDE87C
:104F1000F081002070470020BDE8F081084670470E
:104F20002DE9F04100260446C0F88814C0F88064DA
:104F300001464FF4906090461F46FFF7EFFF80F860
:104F4000446480F8796480F87A6480F87B643A4637
:104F5000D4F88814C4F884040546FEF7B7FB00BBF8
:104F600000262146C4F8846440F26C40FFF7D6FF67
:104F70000223C67180F8486480F8496480F84A6466
:104F800003723A46C4F88004D4F888140546FFF743
:104F9000ABFEE8B9194B00201860C4F88004BDE8E6
:104FA000F08105F589663046FDF704FA294630465A
:104FB000FDF70AFA0028D3D0114B1A68BAB10F4B8B
:104FC000B8F1000F15D11A689AB10120BDE8F0813F
:104FD00005F589663046FEF7D5FC29463046FEF7D2
:104FE00067FD0028D6D0074B1A68002AE7D11D605C
:104FF000E5E71C600120BDE8F08100BFD866022013
:10500000D0660220D4660220F8B500254FF47A77E6
:10501000064E87600446057105738564C56440F8D3
:10502000106BFFF73BFF2046F8BD00BFC0C3000078
:10503000407B7047007C7047407C70470120704780
:10504000007E704710B4046864690123A4465DF8CB
:10505000044B604738B503681B6A04460D46984701
:1050600000B1257638BD00BF2DE9F0470C46C17B65
:10507000089F0229054691461E4623D02B682146EB
:105080001B6E2846984798B16C6104EB0908B9F18A
:10509000000F02D10FE0A0450DD039462046B047A1
:1050A0002B680146DB6D2846984701340028F2D171
:1050B0000020BDE8F0876B69287E4B446B6128B106
:1050C000BDE8F0874369A342D8D1DEE72B682846C4
:1050D0005B6EBDE8F0471847704700BF043001F031
:1050E0009BBC00BF10B51C21044603F0C3FE204644
:1050F00010BD00BF2DE9F0410D46C17B02290646D7
:1051000014461F461FD0336829461B6E3046984709
:1051100078B17561002517B90EE0AF420CD0336845
:105120002146DB6D30469847013504F500740028B0
:10513000F3D10020BDE8F0817369307E1F447761B0
:1051400028B1BDE8F0814369AB42DCD1E2E73368C6
:1051500030465B6EBDE8F041184700BF38B50446E5
:10516000051D284601F0ECFB207B002101F0E6FB49
:105170002846FF2101F072FC0123A37338BD00BF54
:1051800003685B6E184700BF38B504460121007BF9
:10519000251D01F0D3FB2846FF2101F05FFC2846C6
:1051A00001F016FC0023A37338BD00BF38B5C37BE4
:1051B000012B16D0837B044663B9FFF7CFFF201D78
:1051C00001F02EFCA37BB0F1FF0518BF012553B9F8
:1051D000284638BD043001F023FCFF3818BF0120F9
:1051E00038BD002038BD2046FFF7CEFF284638BD29
:1051F0002DE9F0431D4E83B033680093009C04F505
:105200009674054688469146A4B2071D05E03368AA
:105210000193019BE31A1B0412D4384601F000FCF1
:10522000FF282874F3D0FE280DD018236B73A87BB9
:1052300018B12846FFF7A8FF002003B0BDE8F083AF
:105240001D236B73F3E74A464146384601F0F6FBEF
:10525000287410B125236B73E9E7384601F0E0FBB1
:10526000384601F0DDFB0120E7E700BF2C67022094
:1052700070B50D4D82B02B680093009C2144061D33
:105280008CB205E02B680193019BE31A1B0407D441
:10529000304601F0C5FBFF28F4D1012002B070BDFB
:1052A000002002B070BD00BF2C6702202DE9F04144
:1052B000036882B01B6A019204460F46984718B9EA
:1052C000FF2002B0BDE8F081A37B93B30C2F05D083
:1052D0004FF496712046FFF7CBFF38B3251D2846C3
:1052E00047F0400101F0BAFB0DF1040802AE16F8D8
:1052F000011D284601F0B2FBB045F8D1002F0CBFCC
:1053000095218721284601F0A9FB284601F088FB5A
:105310000A26284601F084FB03062074D1D5013EFD
:10532000B6B2002EF5D102B0BDE8F081002FC7D192
:10533000D4E72046FFF712FFC8E700BFF8B5002208
:105340000D463A210646FFF7B1FF68B9371D2C1DFF
:10535000384601F065FB04F8010DA542F8D1B47B95
:105360006CB901242046F8BDB47B12237373002C62
:10537000F8D030460024FFF707FF2046F8BD30463E
:10538000FFF702FF2046F8BD38B515460022044657
:10539000FFF78CFF40B11B236373A07B18B120463D
:1053A000FFF7F2FE002038BD294610222046FFF705
:1053B0001FFF0028F1D0A57B002DF4D02046FFF779
:1053C000E3FE284638BD00BF0A460921FFF7DCBFCF
:1053D0000A460A21FFF7D8BF30B50368234ADB6CC1
:1053E000934285B02FD16A460921FFF7CDFF38B12E
:1053F0009DF8003013F0C00304D0402B26D00020CD
:1054000005B030BD9DF809409DF806309DF8072095
:105410009DF80A009DF805109DF8085004F003045B
:105420006400920003F0030344EAD01001F00F017E
:1054300042EA8323084443EA95130133073803FA09
:1054400000F005B030BD69469847D0E79DF80930B7
:105450009DF807109DF808005A1C01F03F0302EB6D
:10546000034303EB0020800205B030BDC9530000A8
:1054700030B50368114D9B6DAB4283B004460A46BC
:1054800012D1407C032818BF520212212046FFF798
:105490000DFF28B1A07B0C23637348B903B030BD66
:1054A0000120E07303B030BD01919847019AE9E70C
:1054B0002046FFF769FE002003B030BD39500000E0
:1054C00070B50026C67332460C210446FFF7EEFE87
:1054D000A57B20B10923637355B9284670BD15B962
:1054E0000125284670BD2046FFF74EFE284670BDB8
:1054F00020463546FFF748FE284670BDC37B022B89
:1055000005D0012B01D001207047FFF7D9BFFFF76D
:1055100037BE00BF2DE9F0470C46C17BDDF8208087
:10552000099F0129064615469A4624D02146304651
:10553000FFF79EFFA8B1746104EB0A09BAF1000FEE
:1055400005D111E020460134C047A1450CD04FF4ED
:10555000007229463046FFF74BFE3A46294600289E
:10556000F0D10020BDE8F0877369307E5344736149
:1055700028B1BDE8F0874369A342D7D1DCE73046C4
:10558000BDE8F047FFF79CBFF8B50D46C17B012988
:10559000064614461F461DD029463046FFF768FFD1
:1055A00080B17561002517B90EE0AF420CD02146DD
:1055B0004FF400723046FFF71BFE013504F500740E
:1055C0000028F2D10020F8BD7369307E1F44776156
:1055D00020B1F8BD4369AB42DED1E3E73046BDE818
:1055E000F840FFF76DBF00BF30B50368124D9B6DEB
:1055F000AB4283B004460A4613D1407C032818BF4F
:10560000520219212046FFF751FE28B1A07B0E233C
:10561000637350B903B030BD02230120E37303B0BC
:1056200030BD01919847019AE8E72046FFF7ACFDAD
:10563000002003B030BD00BF39500000F0B5036852
:105640002B4FDB6CBB4285B004460D4616462DD170
:105650006A460921FFF798FE90B19DF80A305A0674
:1056600016D5637C032B18BF6D022A464FF020012C
:10567000204618BF7602FFF719FED0B126236373C8
:10568000A07B18B12046FFF77FFD002005B0F0BDDC
:1056900003F03F039DF80B105B00721C43EAD1132B
:1056A0002A431342DDD027236373E9E7694698470D
:1056B000D2E7324621212046FFF7F8FD0028DDD150
:1056C000024626212046FFF7F1FD0028D6D142F2FE
:1056D00010712046FFF7CCFD10B928236373CFE784
:1056E000A57B002DD2D02046FFF74EFD2846CDE702
:1056F000C953000038B54FF416710446FFF7B8FDE2
:10570000054648B9A07B1E23637300B938BD204607
:10571000FFF73AFD284638BDFD21201D01F09EF916
:10572000A37B1BB90023E373284638BD2046FFF74F
:105730002BFD0023E373284638BD00BF70B5041D60
:1057400016460546204601F089F94FF400723146AD
:10575000204601F08FF92046FF2101F07FF9204615
:10576000FF2101F07BF9204601F05AF900F01F03F8
:10577000052B287409D0A87B20236B7300B970BD5A
:105780002846FFF701FD002070BD012070BD00BF5D
:1057900038B50D464FF416710446FFF769FD40B960
:1057A00024236373A07B18B12046FFF7EDFC002093
:1057B00038BD2A46FC212046FFF7C0FF0028F1D063
:1057C00038BD00BF70B50368164D9B6DAB4282B00B
:1057D0000446164622D1407C032818BF49020A46D7
:1057E00020461821FFF762FD48B10D236373A07BAB
:1057F00018B12046FFF7C8FC002002B070BD324649
:10580000FE212046FFF79AFF0028F0D0A57B002D4F
:10581000F3D02046FFF7B8FC2846EEE70191984701
:105820000199D9E73950000010B4047E1CB95DF825
:10583000044BFFF7C7BF0468A46A0123A4465DF8C0
:10584000044B6047704700BF10B4074C074A084933
:1058500008480023236014680C60096811605DF833
:10586000044B0370704700BF38100B4030100B40E2
:10587000046702201C670220034B04481B68184081
:10588000B0FA80F04009704730100B4001000F0063
:10589000024B186800F00100704700BF24100B4055
:1058A000034B186880F08070C0F30060704700BF41
:1058B00024100B40014B1878704700BF1C67022072
:1058C000034B186880F40060C0F3C020704700BF2D
:1058D00024100B40034B186880F48060C0F38020D4
:1058E000704700BF24100B40034B04481B6818404E
:1058F000B0FA80F04009704730100B4002007F1171
:105900004FF47A722C4B02FB00F09842F0B44BD863
:105910002A4D0822012149000B01B5FBF3F39842FF
:10592000264C3DD2013AF6D1B4FBF1F44B081F02EC
:10593000A0423DD2214E4B00012200E02346B6FB9F
:10594000F3F4A04202F1010503EB010426D2102D6D
:105950002A46F3D1F0221A4E1A4C18481A494FF42D
:105960007A7505FB03F3B0FBF3F33360236823F090
:1059700008032360206820F47F2323F47F6343F42B
:1059800060233B431A4322600B681B07FCD50D4A7A
:10599000136843F008031360F0BC70471201DAE7A4
:1059A000B4FBF1F4CF01C3E7044C00270121BFE7AA
:1059B0000B460022CFE700BF4FA9AB000095BA0A03
:1059C000206702202C100B4024100B40014B18784C
:1059D000704700BF9008FF1F014B1868704700BF59
:1059E0000467022008B508461022024901F08EF92A
:1059F000012008BDE066022008B5084610220249D1
:105A000001F084F9012008BD0C670220024B1B68DD
:105A10000B600120704700BFF8660220704700BF8E
:105A2000F8B5054601F036FC064F064604E001F0E5
:105A300031FC801BB84203D8A84704460028F6D1A1
:105A40002046F8BD40420F002DE9F041DFF84080CC
:105A50000E4FC8F80000054601F01CFC064606E0A3
:105A600001F018FC801BB8420AD803F01DFAA847C1
:105A700004460028F4D1C8F800002046BDE8F081B3
:105A80000023C8F800302046BDE8F08140420F00F6
:105A9000F066022010B50C21044603F0EBF9204615
:105AA00010BD00BF054B1B7833B1054B1B78002B95
:105AB00014BF03200220704701207047DC660220DB
:105AC000F466022038B504460F480D46FFF7A8FFDC
:105AD00008B1002038BD0D4A0D4B15600D481C6003
