:1000000000000320D10100000D3C0000C53B0000B2
:10001000C53B0000C53B0000C53B0000C53B0000E0
:10002000C53B0000C53B0000C53B00000D3C000087
:100030000D3C0000C53B0000615C0000655D0000F8
:100040000D3C00000D3C00000D3C00000D3C00008C
:100050000D3C00000D3C00000D3C00000D3C00007C
:100060000D3C00000D3C00000D3C00000D3C00006C
:100070000D3C00000D3C00000D3C00000D3C00005C
:100080000D3C00000D3C00000D3C00000D3C00004C
:100090000D3C00000D3C00000D3C00000D3C00003C
:1000A0000D3C00000D3C00000D3C00000D3C00002C
:1000B0000D3C00000D3C00000D3C0000F963000009
:1000C0000D3C0000A14600000D3C0000294C000042
:1000D0000D3C0000296500000D3C00000D3C0000B7
:1000E0000D3C00000D3C00000D3C00000D3C0000EC
:1000F0000D3C00000D3C00000D3C00000D3C0000DC
:10010000E9600000FD600000116100002561000051
:100110000D3C0000754E00000D3C00000D3C000041
:100120000D3C00000D3C00000D3C00000D3C0000AB
:100130000D3C00000D3C00000D3C00000D3C00009B
:100140000D3C00000D3C0000256600000D3C000049
:100150000D3C00000D3C00000D3C00000D3C00007B
:100160000D3C00000D3C00000D3C00000D3C00006B
:100170000D3C00000D3C00000D3C00000D3C00005B
:100180000D3C0000053400000D3C00000D3C00005B
:100190000D3C00000D3C0000216700000D3C0000FC
:1001A0000D3C00000D3C00000D3C00000D3C00002B
:1001B0000D3C00000D3C00000D3C00000D3C00001B
:1001C0000D3C00000D3C00000D3C00000D3C00000B
:1001D0005C4B4CF2205210B51A804DF628121A8052
:1001E00000BF00BF03F016FD574B4FF030621A609E
:1001F000564A9A60564ADA60564B4FF470021A60BB
:10020000554B564A1A60564A136813F4807304D14A
:1002100054490B604FF4A8531360534B1A781107DD
:1002200003D51A7842F008021A70504B5049AA229E
:100230001A70504A504B8B4204D252F8040F43F8C4
:10024000040BF8E74D4B4E4900228B4202D243F893
:10025000042BFAE74B494C4A002352F8230041F89B
:1002600023000133742BF8D1484B494A802103F80D
:10027000011B9342FBD1474B424A1A60464B8A22EC
:100280001A70A3F5805324225A70A0221A709A790A
:100290009207FCD59A79D406FCD4404A937903F0AE
:1002A0000C03082BFAD13E4B60221A7002331A78E5
:1002B000802AFCD1394B01221A715D225A719A7938
:1002C0009006FCD59979354A4906FBD5354B364918
:1002D00019600021596020231370937903F00C03F7
:1002E0000C2BFAD1314B324A1A60324B324A1A6027
:1002F00000225A60072243F8042C304AC3F80C2D20
:1003000062B603F0EDFD174B1B68DA0705D52C48E4
:1003100003F052FD2B4B2C4A1A602C4B1B785B06CA
:1003200009D5284C284B22689A4204D1244803F06E
:1003300043FD0023236006F0C3FF03F071FC05F0CA
:1003400035FFFEE70E20054030800440823F040068
:100350000100002B88ED00E0002008E0030000858C
:1003600010D0034014D0034002D0074000E0074003
:10037000DC10FF1F308200003007FF1FDC10FF1F62
:10038000041501200002FF1F0000000000E400E04F
:1003900064E400E008ED00E0005006400040064044
:1003A00001E007404480044000000602048004404D
:1003B000C010070014E000E01FBF02000000202072
:1003C0004DB02E5B1CE00340A5C3945A00F00740DB
:1003D000FFFFFFFFFFFFFFFFFFFFFFFFFFFFFFFF2D
:1003E000FFFFFFFFFFFFFFFFFFFFFFFFFFFFFFFF1D
:1003F000FFFFFFFFFFFFFFFFFFFFFFFFFFFFFFFF0D
:10040000FFFFFFFFFFFFFFFFFFFFFFFFDEF9FFFF23
:1004100010B5054C237833B9044B13B10448AFF33E
:1004200000800123237010BDDC10FF1F00000000BE
:1004300034820000084B10B51BB108490848AFF3DF
:1004400000800848036803B910BD074B002BFBD0A0
:10045000BDE81040184700BF00000000E010FF1F7B
:1004600034820000DC10FF1F0000000001607047B4
:10047000006803681B691847006803681B68184711
:10048000FFF7FABF0346818053F8040B0268194650
:1004900053680222184700BF0346416053F8040B1B
:1004A0000268194653680422184700BF10B5044675
:1004B000206803681B6998470028F9D02068036802
:1004C0005B699847C0B210BDFFF7F0BF10B5044696
:1004D000206803681B6998470028F9D020680368E2
:1004E0005B6998472071206803681B69984700285A
:1004F000F9D0206803685B6998476071A08810BDD7
:1005000010B50446206803681B6998470028F9D095
:10051000206803685B6998472071206803681B693D
:1005200098470028F9D0206803685B699847607194
:10053000206803681B6998470028F9D02068036881
:100540005B699847A071206803681B699847002879
:10055000F9D0206803685B699847E071606810BD56
:10056000006803685B681847006805F005BE00BFB7
:10057000FFF7FABFA2B12DE9F041174606460D1F5D
:1005800000F104080024042241463068013405F0DB
:10059000F3FD736845F8043FA742F4D1BDE8F0814C
:1005A000704700BF00207047027C02F0080202F092
:1005B000FF0332B1C36A406A181A48BF6FF00040A7
:1005C00070471846704700BF103001F097BD00BF5C
:1005D00000B583B001220DF10701103001F0C6FC17
:1005E00001280CBF9DF807004FF0FF3003B05DF805
:1005F00004FB00BF103001F059BE00BF103001F005
:100600005BBE00BF00B583B002AB012203F8011D41
:100610001030194601F050FE03B05DF804FB00BF36
:1006200010B5044605F03EFD204610BD2DE9F0470B
:10063000184A194B194E1A4CDFF86CA0DFF86C9071
:1006400002254FF40038C2F800801D60032773783C
:100650003078637022463B462146A0705046277092
:1006600001F058FB00210E20C9F8005003F0B6FB42
:100670003B465046F778B67825702246214667708B
:10068000A67001F047FB074BC9F80050C3F8008083
:10069000BDE8F08704F00F40C8F00F40CC92FF1F78
:1006A000800C012008F00F406407FF1FC4F00F40CA
:1006B0000F4B1B7813B10F4B1A7802B9704710B566
:1006C0000D4C0E48216800221A7001F04BFD0C4BB6
:1006D0000A481B78012B4FF420620CBF09490A49D4
:1006E00001F044FC236803F52063236010BD00BFC4
:1006F000D10B012010A7FF1FD40B012030A7FF1F33
:10070000D092FF1FF092FF1FF09CFF1F70B50646AE
:100710000D4627200121144603F060FB00210E2026
:1007200003F05CFB114B1B684FF00042DA625E6322
:10073000D96A0029FCDA4FF00042996BDA625D63F6
:10074000D96A0029FCDA4FF00042996BDA625C63E7
:10075000DA6A002AFCDA01210E209B6B03F03EFBD3
:1007600000212720BDE8704003F038BB6407FF1F5D
:10077000F0B54FF489708FB003F068FC5B2004F093
:1007800069F80121202003F02FFB0021202003F035
:1007900025FB5D4C01210E2003F026FB01212720C3
:1007A00003F022FB204601F077FA584AE37A1268F8
:1007B00003B372B6E17ACD070B4606D55448E36819
:1007C00005682B40E36103600B46880706D5514856
:1007D00021690568E37A294021620160590706D53D
:1007E0004D4861690568E37A2940616201601B0731
:1007F00061D462B62368D968914207D0474818602F
:100800004749DA6042F080401861196000212720D2
:1008100003F0E4FA1F2200211020FFF777FF0C20DD
:1008200003220021FFF772FF3E4A3F4B3F4C404DF1
:1008300012881A8001265A8004F58C672E70FFF703
:10084000F5FE0023384684F86C342B7002F0F2FD7C
:10085000002837D1374B384A1A60002437493848C6
:10086000384D4FF4AA6205F0D3FB4FF47A768DF839
:1008700014408DF815408DF808408DF8104005A8FB
:10088000314A32490396632305AC019501F00EFB12
:100890000FCC2F4E9DF80850357106F110050FC58D
:1008A0000FCC0FC52168039A9DF810302960B26003
:1008B00033730FB0F0BD2749A36908680340A362F2
:1008C0000B6096E704F23C40276001F0E1FA314604
:1008D000204602F073FA80B1144C04F23C452846DD
:1008E000214601F03DFB0028B4D094F83C3413F0CD
:1008F000700F1CBF184B1D60ACE70146204602F08C
:100900005DFA0028E8D1A5E76407FF1FDC92FF1F0E
:1009100080E100E084E100E088E100E001401F00A8
:1009200000001F806007FF1FCC92FF1FF810FF1F01
:10093000D10B0120D492FF1FE967B541ED090000FA
:100940006815FF1FFC7D0000187E00003415FF1F96
:1009500020A7FF1F8CE100E0880C012010B51F22AA
:1009600000211020FFF7D2FE032200210C20FFF708
:10097000CDFE064A064B074C12881A8001215A8088
:100980002170FFF753FE0023237010BD6007FF1F87
:10099000CC92FF1FD10B012010B5124C41212046F3
:1009A000FFF76EFD20460221FFF776FD20460B2162
:1009B000FFF766FD0B2220460B49FFF7D1FD2046CD
:1009C0000121FFF75DFD20462321FFF759FD204659
:1009D0001421FFF755FD20460021BDE81040FFF728
:1009E0004FBD00BFE092FF1F5007FF1F2DE9F04FE2
:1009F000A84895B0FFF73CFD002800F01A81A548F3
:100A0000FFF762FDA44AA54B107001221A70A44B97
:100A1000002550281D7000F0B48300F285814C2819
:100A200000F04A8440F2FB814E2800F06C8500F211
:100A3000A0839C48FFF74AFD9B4A42F210739842FC
:100A4000108000F28C85994982009648984C994F05
:100A5000FFF78EFD01219348FFF712FD2378002B4D
:100A600000F00681DFF8B0A29AF80030002B40F0C9
:100A70007082914BDFF8A4921B78904D99F800108A
:100A80008F4A002B00F0BA812B688E488E4E12F8E8
:100A900001E030F813203280BEF1000F00F05582E3
:100AA0005A1C30F81220728002332B60B3F5A06F0D
:100AB00009D3814A85481378C3F1010313700122D9
:100AC000002302702B60824B1B78002B00F00B82FE
:100AD000DFF84CE29EF80030002B44D0724A7D4B88
:100AE00012887D4802927D4A1B8800781288009304
:100AF00001900298DDED007ADFF8B0C1724B0392ED
:100B0000801A0138B8EEE77A0CEB800003F1040B91
:100B10000CEB820C009A33F8028BC2EB0808019AA6
:100B20000FFA88F8002A40F0ED82DCED006A07EE4B
:100B3000908AF8EEE77AB0EE476AA7EEA66A9B4580
:100B4000FCEEC67A17EE902A23F8022CE2D1644B11
:100B5000039AA3F800800132029B604892B29A4245
:100B6000028000F05D83DFF8A0815E48DFF8B4C149
:100B70005D4B026853F821B0DCF8003001320133DC
:100B80005A450260CCF8003000F0BF815748057824
:100B9000002D40F09C81564D2D78002D00F0C38231
:100BA000544A52F82120002A00F096819A4280F09F
:100BB0009381514B514A03FB01F10123116088F8E5
:100BC0000030444B49491A883280728023780022D1
:100BD0000A70002B4CD04A4D2B78002B00F002827B
:100BE000FFF724FD474A98F8001047480023137088
:100BF000002900F0668145492370097803700029B7
:100C000000F05F8199F800103B780131C9B2117092
:100C100033B13F4802260022012306703A70237048
:100C200011B11C48FFF72CFC01232B7015B0BDE857
:100C3000F08F3848FFF71CFC48B13648FFF744FCFA
:100C4000154A164B107002221A70154BE0E6154833
:100C5000FFF70EFC002840F0D480114B1A78002AD0
:100C600040F00A86124C134F2378002B7FF4FAAE23
:100C7000234B1A78002A40F015823B780D4A012B4D
:100C800000F03882022BD1D10123137015B0BDE8DA
:100C9000F08F00BFE092FF1F7415FF1FD892FF1F57
:100CA000B80B0120B00B01205C07FF1F68A7FF1FD6
:100CB000D10B0120F0A6FF1FD092FF1F7C0C01205A
:100CC00054A7FF1FF09CFF1FCC92FF1F10A7FF1F10
:100CD000790C01206007FF1FB90B01207215FF1F5F
:100CE0007A92FF1FE892FF1F280C0120D00B0120F1
:100CF0007015FF1F7C92FF1F00093D00D40B0120DF
:100D0000A80B01201CA7FF1FF2A6FF1FF8A6FF1FBC
:100D1000F1A6FF1F14A7FF1F5E07FF1F1DA7FF1FE0
:100D2000780C0120AC0B0120582800F0888240F29A
:100D30008C80E52800F09682FF2800F05182592827
:100D400090D1B44B1A78002A8CD1B34B03F5FA41F9
:100D500003F8012F99424FF00004F9D1DFF82883FE
:100D6000AE4F08F1100001F093F84FF47A73AC49DC
:100D7000AC4A099307916323AB498DF82C400BA82B
:100D80000BAD8DF82D408DF820408DF8284001F0F6
:100D90008DF80FCD08F110060FC60FCD0FC63046E7
:100DA0002B689DF82010099A40F820399DF82830CA
:100DB00088F8041088F80C302146C8F8082001F0A3
:100DC000D1F93B68B3F5FA4F0DD3984D984999483E
:100DD0004FF4FA4201F070FA3B680134A5FB03239B
:100DE000B4EBD32FF2D39348934C944F01F050F8C7
:100DF00001219348FFF744FB237830E62B689148A4
:100E000044E6914B1C78002C7FF427AF8C48FFF709
:100E10005BFB804B8D4A1C7010708D4BF8E52D28C4
:100E200000F05E83452800F090812A287FF41AAFF5
:100E3000784B1B78002B7FF415AF7F4C80487F4F99
:100E40000121FFF71DFB237809E6542800F03583C4
:100E5000562800F0D08153287FF404AF6D4B1B78E7
:100E6000002B7FF4FFAE7B4C754821460422FFF730
:100E70007FFB794805F016F9D4ED007AF5EEC07ADB
:100E8000F1EE10FA7FF6EEAE9FED747AF4EEC77ACB
:100E9000F1EE10FA3FF7E6AEDFED716ABEEE007AD2
:100EA000A7EEA67AFCEEC77A17EE902A232A7FF6E1
:100EB000D9AE614C6B496848604F05F0A9F82378BA
:100EC000CDE53B78002B3FF4AFAE0021A1E6664AAA
:100ED0001278002A7FF464AE98F80030002B7FF47B
:100EE00070AE237875E66148DFF8A0E1604B0268D8
:100EF00053F821C0DEF80030DFF89481013201336D
:100F000062450260CEF80030E1D1574A1278002ADB
:100F10003FF44FAE574ADFF87CB1DFF864C1DFF829
:100F200064E102FB01F202F52062CBF8002001220D
:100F30008CF800204FF0000C8AF800208EF800207A
:100F4000C0F800C0C5F800C02AE6728001332B60EB
:100F5000ACE5DFF84491484D99F80030DFF83CB13A
:100F60002A68DFF83C81454E03EB83030BEB4323F8
:100F70009818995C407805F015F999F800303080A0
:100F800018F8032003EB8303002A00F0C2802A68CC
:100F90000BEB432B93449BF802109BF8030005F0E6
:100FA00001F970809AF8003099F80010002B00F0D9
:100FB000678418F80130002B00F0A7802B680433F9
:100FC0002B60B3F5206FFFF67EAD2D4A2D481378C8
:100FD000C3F1010313700023012202708AF800306C
:100FE0002B6070E51C4805F05DF81A4BD3ED007AD4
:100FF000F5EEC07AF1EE10FA07D99FED187AF4EE0B
:10100000C77AF1EE10FA40F398822378002B3FF470
:10101000E9ADE5E5D892FF1F7715FF1F4C07FF1FCD
:10102000FC7D0000187E00003415FF1FD34D6210B8
:101030007815FF1F30A7FF1FD10B0120F0A6FF1F5F
:10104000B00B0120F092FF1F840C01207415FF1FCC
:10105000B80B0120D492FF1F6815FF1F8988884CA8
:1010600000007042ED0900007015FF1FE892FF1F9D
:10107000280C012000093D007C0C0120CC92FF1FB0
:10108000D092FF1F10A7FF1F20A7FF1FAC0B01204E
:10109000F2A6FF1FD40B01201DA7FF1FA8430020AD
:1010A00054A7FF1F0022B3481A7004F0FBFFB24B95
:1010B000D3ED007AF5EEC07AF1EE10FA7FF6DDADF1
:1010C0009FEDAE7AF4EEC77AF1EE10FA3FF7D5ADA8
:1010D000DFEDAB6ABEEE007AA7EEA67AFCEEC77A29
:1010E00017EE902A232A7FF6C8ADA649A14804F03E
:1010F0008FFFC2E5A448237000210370117015B062
:10110000BDE8F08FD0ED006A11E52B6802332B604B
:1011100057E72A680BEB43239818995C407805F051
:1011200041F870803EE7994B1B88DB439B44934515
:10113000BFF4D2AE9649974A01230B7003708EF824
:101140000030158098F80030C8E69348934C944FCF
:10115000FFF7BAF9934B021C18BF012201218E48F8
:101160001A70FFF78DF98A4B8A4A1D701580237813
:1011700075E48D4B1B78002B7FF474AD14228B49E2
:1011800063E4894B1B78012B00F0A382C0F0358209
:10119000022B00F02C82864D824B7D481A7800236A
:1011A000037022B1834C7B49012626700B80824B51
:1011B000824E1B780021012B317000F05A82774C4F
:1011C000C0F02182022B00F0EE81754F2A7823783F
:1011D00076487B49825C003218BF01220A703EE4E7
:1011E000714B1B78012B7FF43DAD6C4C6C4FFFF7BE
:1011F000D3FB237833E46C4B1B78002B7FF432ADA8
:101200006548664C664FFFF75FF96E4B021C18BFCE
:101210000122012160481A70FFF732F923781EE499
:10122000694BDFF8E881187800228EF8002000284A
:101230003FF49BAC1A70012388F8003095E4594BB9
:101240001E78002E00F0A181524B5F485049594A48
:10125000524C1D80012303700B701370504F237884
:10126000FFF7FDBB504B1B78002B00F08581574AE0
:10127000574802F11404002102F8011F944240F87B
:10128000041F4FF00003F7D14E48524D4A4C524ACA
:10129000524E534903702E60237002F1140002F87D
:1012A000013F904241F8043FF9D13C4C3C4FFFF7DD
:1012B00055FB2378FFF7D3BB3B4B1D78002D7FF404
:1012C000D1AC3548DFF84891FFF7FEF81328044603
:1012D00089F800003FF6C6AC2F48424EDFF834A133
:1012E000FFF7F2F8031C18BF01232B48335599F878
:1012F0000040FFF705F999F800203B49B35C41F83D
:101300002400013351F82200384C39495B00DBB22C
:1013100003FB00F044F82200364C3748A35401FB8D
:1013200002F100F01FFF99F80030304A52F8230014
:1013300005F084FC0022314B05F020FE41EC100B3F
:1013400005F0AAFA51EC100B05F088FFCAF800006E
:10135000002800F094802A4F2A4C2B4EA84604F017
:101360009FFA0028FBD023680593DDF814B0002510
:101370005BE000BF6815FF1F3407FF1F8988884C9A
:1013800000007042ED09000010A7FF1F5C07FF1F5F
:10139000B90B01207215FF1FB00B0120D10B0120EA
:1013A000F0A6FF1F790C0120D892FF1FBC0B012073
:1013B000830C0120780C01207892FF1F1CA7FF1FCF
:1013C0007015FF1FF8A6FF1FD00B0120FBA6FF1F03
:1013D000240C0120D492FF1FBB0B0120E967B5410B
:1013E0007892FF1F54A7FF1F280C0120D80B012063
:1013F00000093D003807FF1F30A7FF1F0040DF40F6
:10140000E407FF1FD80C01207815FF1FF2A6FF1F6D
:10141000F3A6FF1FEC92FF1F23680493049BBA6896
:10142000CBEB0303934280F0A380C5F5FA4170191A
:1014300004F044FA0544B5F5FA4FEDD34FF4FA42FF
:10144000BA49BB4800F038FFB8F1000F10D199F845
:101450000020B849B84B02EB820201EB4222013A6C
:1014600003F5206013F8011F02F8011F8342F9D130
:10147000DAF8000008F101088045FFF470AF99F830
:101480000030AE4A52F823704FF4FA4303FB107752
:10149000AB4B1F60002F40F099810121A948AA4C55
:1014A000AA4FFEF7EDFF04F029FB99F80020A849A8
:1014B000237801208854FFF7D2BAA64B1B78002B63
:1014C0007FF4D0AB9F48A04CA04FFEF7FDFFA24B8E
:1014D000012118709B48FEF7D3FF2378FFF7BFBAAE
:1014E0009C4B1B78002B7FF4BDAB14229B49954885
:1014F000954C964FFFF73EF801219248FEF7C0FF4A
:101500002378FFF7ACBA934B197800297FF4AAAB84
:101510008C488D4C8D4FFEF7B3FF14218948FEF7A0
:10152000B1FF42F210718748FEF7ACFF8C49854845
:10153000FEF7B2FF2378FFF792BADFED8A6ABEEEBC
:10154000007AA7EEA67AFCEEC77A17EE902A232A35
:101550007FF65BAD8449854804F05AFD55E57A4C29
:1015600078487A4F2946FEF78BFF2378FFF777BA42
:101570007F4A0123137361E7E6217248FEF780FF7B
:1015800002217048FEF788FF71E67A4A7A4B6E4C6A
:1015900012881A8001215A8021706C4FFFF746F89B
:1015A0002670FFF765BB94F800E0BEF1000F00F075
:1015B0009680002A00F00281704F714ADFF8D8E16E
:1015C000118001233B702A78604F8EF80030037041
:1015D0006C4B1B78002B3FF4FAAD0132D1B2317065
:1015E00000293FF4F3AD6848FEF74AFFEEE567488F
:1015F000674DFEF769FF2870CEE55248644DFEF74F
:1016000063FF2870C8E523782A78002B5FD1DFF8C4
:1016100098E1604FCEF800303B60DFF864E15E4F48
:10162000DFF88CC15D49AEF800303B70DFF84CE16B
:10163000544FCCF800305A48DFF878C18EF80030AB
:1016400001FB02F13B78414F027001F52061DFF8A8
:101650005CE15448CCF800100221397001218EF869
:1016600000100170002B3FF4B3AD0A44D1B23170C9
:10167000B6E72A784948DFF83CE1494C414F2270EF
:1016800000FB02F000F52060CEF80000DFF808E172
:101690003A488EF800100170434CDFF81CE14348D3
:1016A00021608EF800300370DFF804C1264CDFF8AB
:1016B000E4E03C483F78CCF800102370CEF80010EE
:1016C000037027B10132D1B23170204F88E71F4F2C
:1016D0007EE52D482E4DFEF7F7FE28705CE5304F75
:1016E0002A782E493A70324F3248C7F800E001FBA1
:1016F00002F101F52061154F0160DFF8ACC02B4805
:1017000028493B70012303700B70CCF800E01C48A3
:10171000DFF880C02049194BCCF800E0A0F800E0C9
:1017200081F800E083F800E052E700BF7815FF1F62
:1017300030A7FF1FA84300207715FF1FD80B0120FB
:10174000F4A6FF1FB00B0120D10B0120F0A6FF1F54
:10175000FCA6FF1FD892FF1F7892FF1F7C92FF1FED
:101760000077010000007042ED0900006815FF1FBE
:10177000E407FF1F6007FF1FCC92FF1F780C0120BA
:101780007215FF1FF8A6FF1FE092FF1F14A7FF1F8F
:10179000830C01207C0C0120D00B012000093D00AE
:1017A0001DA7FF1F5E07FF1FAC0B0120D092FF1F7C
:1017B000E892FF1FD40B012010A7FF1FDFF8F48071
:1017C0002A78334F012388F8003001E7314C324E3C
:1017D00023680793DDF81C80304D4FF0000B07E0C5
:1017E00023680693069BAA68C8EB0303934230D292
:1017F000CBEB070106EB0B0004F060F883445F4578
:101800002648EDD8264B244C1A682648214600F07D
:1018100053FDDAF80030002B7FF43FAE99F800302A
:10182000214A52F82320B2F5206F15D8002A3FF440
:1018300034AE1E494FF42060013A00FB0313013B14
:10184000A018621E12F8011F03F8011F8242F9D18D
:1018500023E601230373D5E7144A4FF4206101FB0B
:101860000323013B611E04F6FF1211F8010F03F878
:10187000010F9142F9D110E60D4A1078FFF7C8B870
:1018800018F801202B68002A7FF40EA9FFF75EBB31
:10189000F0A6FF1FD80C01207815FF1FE407FF1FDB
:1018A000F4A6FF1F30A7FF1FD80B0120A84300207C
:1018B0007415FF1FF2A6FF1FF8B5174B174D184EF2
:1018C0001848C3F86004002480272F71DC7183F866
:1018D0003C4483F83D44144A14492C6028464FF098
:1018E0003C47376005F0DAFC114B124A1C744FF488
:1018F0007A755C741C711C739D600F490F481A60E7
:10190000FEF7B4FD0E490F48FEF7B0FD0E490F4833
:10191000BDE8F840FEF7AABDF810FF1F6815FF1FCD
:10192000DC92FF1FC07E00003007FF1F2106000071
:1019300020A7FF1FFC7D0000E407FF1FB00B012064
:10194000C407FF1FE092FF1FB407FF1F14A7FF1F6C
:1019500010B4047F4160022CC26003D05DF8044BD8
:1019600004F01CB983685DF8044B18472DE9F04179
:101970000468E56815F0807F794D256052D1DF0756
:1019800040F1B380002900F0E3800D78012B18BFEF
:1019900045F000456563013190F82C8003F1FF3C70
:1019A00048EA0828BCF1000F00F0A88021B14D786A
:1019B00011F8028B45EA082845682E7ABCF1020F1F
:1019C00006F1FF364FEA06360CBF48F0805548F066
:1019D0001045B6B26563ACF1020C08E00AB11470B0
:1019E0000132013B05F47045B54216D90468E56A39
:1019F00015F0F00FF6D0A46B13F0010F17464FEA65
:101A0000242EEBD11AB107F802EB54703A4605F4D4
:101A10007045B542A3F10203E8D8BCF1000F6DD0C8
:101A20000468C3E7DD074CD5002900F089800D78F4
:101A3000012B18BF45F000456563013103F1FF3EFE
:101A400090F82CC0BEF1000F41D029B191F801C02F
:101A50000D78023145EA0C2C45682E7ABEF1020F52
:101A600006F1FF364FEA06360CBF4CF080554CF0BD
:101A70001045B6B26563AEF1020E08E00AB114700B
:101A80000132013B05F47045B54215D90468E56A99
:101A900015F0F00FF6D013F0010F1746A46BEDD13F
:101AA00022B107F8024B241254703A4605F47045EF
:101AB000B542A3F10203E9D8BEF1000F07D00468D4
:101AC000C3E79E4690F82CC0BEF1000FBDD11BB3FA
:101AD0000468E16A11F0F00FFBD0A16BDC071DD5A3
:101AE0000AB111700132013BF1E790F82C809C465D
:101AF00048EA0828BCF1000F7FF458AF63B10468CE
:101B0000E16A11F0F00FFBD0DE07A16B0FD50AB12F
:101B100011700132013BF1E7BDE8F0812AB11446B2
:101B20000D1204F8021B55702246023BCFE72AB182
:101B300014460D1204F8025B51702246023BDDE7A9
:101B400090F82C50012B18BF45F00045656375E7F0
:101B500090F82C50012B18BF45F0004565631BE73A
:101B600000041F80F0B4464B464A986B5C6B0179C9
:101B70001170454922790A701A6B00790870002AA1
:101B800046D05968C9688A423ED82168CC8B240463
:101B900002F1FF3065D4C0F30E00C883C88B80B259
:101BA000C882996B0968C88B000452D4C2F30E0036
:101BB000C883C88B002480B212F1FF32C88218BFDC
:101BC00001221C63596B2E4809680D6800F12C0432
:101BD000A54236D00068C46814F0804F0C680D68C8
:101BE00015BF248824780235013544F000440D6087
:101BF0004463996B254B09791970214912B14A6BDD
:101C000012791A70F0BC7047521A1A630122D9E790
:101C1000D86B196805681E4C0A63CC62CC682D68C5
:101C20001C4E24F080440327B542CC6083F82D700D
:101C30001FD1037F4260022BC2601ED0F0BC03F0B4
:101C4000ADBF016890F82C00CC6840F000404863BC
:101C5000CFE7CC8BC2F3080004F47E442043C88352
:101C6000A7E7CC8BC0F3080004F47E442043C8836C
:101C700094E72B461146F0BC18478368F0BC184720
:101C80006407FF1F1F8000401C8000401B80004035
:101C900000000FFF5119000090E80C00F0B41C6820
:101CA00059682568164F174E29432160164D17496C
:101CB0001760D66015611160417A154A5C180C31C5
:101CC00094F82C4053F8215002EBC40149680D6090
:101CD000017A5C1803EB8101247ECD6902EBC4011B
:101CE00049680D60817A581803EB810390F8400031
:101CF000596C02EBC002F0BC53681960704700BF1A
:101D000001401F00011000380110007800001F8002
:101D1000D47E00000BB1FFF729BE704738B50446EA
:101D20000D462422002105F0E5FDA560EB79102B7E
:101D300008D0202B04D1402301202370A07038BD8F
:101D4000002038BD202301202370A07038BD00BFC3
:101D50002DE9F041037803F020032BB903F0FF04D1
:101D60004269214B9A4204D94FF000084046BDE831
:101D7000F08183780169054663F07F038068AB706A
:101D800005F1100200F0C2FF80460028ECD029695E
:101D9000A86800F047FF0646A868314624300522AF
:101DA00000F008FF07460028DED04FF400722146FD
:101DB00005F0A0FDAB681A79012A10D9012403E0CF
:101DC000AB681A79A2420AD918680368A1199B68FE
:101DD0003A4698470134E4B20028F1D1C4E76B6970
:101DE00003EB42226A61C1E7FFFD1F0010B5044604
:101DF00080680A462430A16900F0DCFE20B1A38887
:101E000003F00F0300EB431010BD00BF38B590F98D
:101E10000230002B044618DBA56805F1240000F011
:101E2000F9FE28B9637843F001036370002038BDE0
:101E300005F50C7000F0EEFE0028F3D0286803686A
:101E40005B6898470028EDD0F1E70121FFF7CEFF4E
:101E500005460028E6D00378E52BE3D023780B4A2B
:101E60001B0744BFE369C361236A126843831B0CE9
:101E700083822AB100F11601183090472B8B6B82B8
:101E8000A37803F07F03A370C6E700BF8C0C01208A
:101E900010B5037804461BB900232370012010BD40
:101EA000FFF7B4FF0023237010BD00BFF0B5064656
:101EB00093B03578019200208DF824008DF825002C
:101EC0002DB91F460B7813F0700F0C4602D100207D
:101ED00013B0F0BD13782F2B104616D101300190AE
:101EE00003782F2BFAD0002B34D0A16809A8FFF774
:101EF00015FF0028EBD0019809AC06E03046FFF74B
:101F000085FF00230198337009AC01AA03A900F0F2
:101F1000C7FA03AA214601230028D8D0019D2D78B5
:101F200030467DB100F03EFC354609AC0028CED0ED
:101F30000FCD0FC40FCD0FC433782A682260002B59
:101F4000DFD0DBE73B4603AA2146304600F02AFCFF
:101F500013B0F0BDA1683046FFF7E0FEB8E700BF60
:101F600003780BB100207047FFF7D8BE2DE9F04F82
:101F70000F46017883B0054611B18378DC0708D499
:101F80006B784FF0FF3043F002036B7003B0BDE895
:101F9000F08F0B07914600F18780880608D5AA6864
:101FA0006B691289C3EB42139BB2994528BF9946CE
:101FB000B9F1000F00F097806B698A064E464FF02A
:101FC000000805F1100AC3F3080B3FD5AA68116A8F
:101FD00001EB5321BBF1000F52D1B6F5007F4FD377
:101FE000D36A99424CD0B6F5806F66D328788006C4
:101FF0004FEA562B06D41079C8EB0000C0B28345D7
:1020000028BF834699424FEA4B240BD85B44994240
:1020100008D202F12400019100F0FCFD0028AFD0AD
:10202000AA680199106802685B46D2F80CB03A467B
:10203000D8470028A4D06B69361B234427446B6122
:1020400051D029788A06C3F3080BBFD4A86890F84A
:10205000058008EA5328BBF1000F2CD1B8F1000F1E
:1020600029D1002B34D14C064CBF016A296A296161
:1020700000F0D8FDAA6808EB0001BBF1000FACD05E
:1020800002F12400002200F095FD00283FF478AF13
:10209000CBF50074B44228BF344600EB0B01224656
:1020A000384601F0F5FCC6E7EB696A699B1A994569
:1020B00028BF99467CE72969DAE7106803683A4641
:1020C0001B68984700283FF45BAF4FF40074B2E7F9
:1020D0005246296900F0ACFD0028FFF651AF08D048
:1020E000A8682969C4E70026C6EB090003B0BDE86B
:1020F000F08F2B7813F0700FF6D141E770B582B0F6
:1021000001220DF10701044646690569FFF72EFF1C
:10211000012805BF9DF8070066614FF0FF3025617B
:1021200002B070BD30B54369C3F3431583B00446B4
:1021300005B189B901220DF107012046FFF716FF0D
:1021400040B201280BD163691F336361A06830304E
:1021500000EB451003B030BD20334361F6E70020AB
:1021600003B030BD2DE9F04103780769044693B10F
:1021700042698A420E4636D021B92161666101204A
:10218000BDE8F08118070AD499060BD5A3681B890E
:10219000B6EB431FF2D927610020BDE8F081E16969
:1021A0008E42F8D8D4F808E09EF80650511E05F18A
:1021B0000900751EC140C540A94200D8B2B95B06EE
:1021C0004CBFDEF82030236A236104F11008424638
:1021D000002DD3D02169A06800F02AFD002805F168
:1021E000FF35F4DCD7E70120BDE8F0816D1AECE79C
:1021F0002DE9F041884615460021242204461E465A
:102200009DF8187005F076FBD8F80800D8F8203053
:10221000E36005F00F02520100F130011144A060AB
:10222000A580CB7A1B0714D4831893F83B3003F0B6
:1022300017032370C97AE77011F0180F04BF43F039
:102240000803237016F0320F07D0237813F0110F14
:1022500003D000202070BDE8F08106F00F05A570C6
:102260000244C36AA361B2F84410B2F84A30F706D8
:1022700043EA014107D42162D36CE361B30607D47A
:102280000120BDE8F08151B965F07F05A570F5E743
:10229000E1692046FFF766FF0028F1D1D9E700F099
:1022A00071FD0028D5D0A578EEE700BF03780BB10B
:1022B000FFF7ACBD012070472DE9F84F03781E07EA
:1022C00004466FD583789D076CD55B070F46904613
:1022D00000F1CD806369DA43904563D8B8F1000F0F
:1022E00000F0B68046464FF0000933E0002940F088
:1022F0008380216A002900F08A80216100F092FC2D
:102300000146B6F5007F55D3B6F5806F66D3A26857
:102310001379D06A5B1BDBB2750AAB4228BF2B4630
:1023200081424FEA432508D81844814205D282F8F9
:1023300024904FF0FF30D062A26810680268D2F893
:1023400010A03A46D04768B36369761B2B442F44EC
:1023500063617DD0A0682169457915EA5325C3F3EF
:10236000080A34D1BAF1000FC0D000F05BFC01467E
:10237000CAF50075B54228BF35460122A068243051
:1023800000F018FC70B150442A463946AA4401F0C6
:102390007FFBBAF5007FD7D1A068243000F03AFC6B
:1023A0000028D1D1637843F0010363704FF0FF3010
:1023B000BDE8F88F6369E269B6F5007F354628BF4E
:1023C0004FF40075934234BF01220522D6E700F096
:1023D00029FC2918BAF1000F93D0C9E7A368DA6A7B
:1023E000914222D0186803683A469B6898470028B3
:1023F000D8D04FF40075A7E704F1100B5A4600F04F
:1024000017FC0028CEDB17D02169A06876E7A378F7
:1024100063F07F03A37004F1100200F077FC002842
:10242000C0D021692162A06868E783F824904FF04A
:10243000FF32DA62A368D5E7A3782169A06863F068
:102440007F035A46A37000F061FC0028DCD1A9E7A5
:10245000E2699A4212D2A278E36142F08003A3704B
:102460001A0701D523788BB94046BDE8F88FE1699A
:10247000FFF778FE00287FF42DAF93E7074B1B682A
:1024800053B1A37843F08003A370E9E72046FFF738
:10249000BDFC0028E8D185E7A378E1E78C0C01209A
:1024A0002DE9F04F0378202B03D110F8013F202BAA
:1024B000FBD088600378002B00F007812F2B2FD0F2
:1024C0005C2B22D0A3F12204E4B21D2C20D9DFF82A
:1024D00018E2461C00247C2BA3F12005374614D0BB
:1024E0005E2D12D816F8013BA3F12205EDB201349E
:1024F000002B00F0D3802F2B13D05C2B2EFA05F786
:1025000003D01D2DE7D8FF07E5D50020BDE8F08FEB
:10251000754D25FA04F4E407D9D50020BDE8F08F05
:10252000002407193E4625462F2302E016F8013FF6
:102530000135202BFAD02F2BF8D0054415604CB173
:102540003A4612F8013D2E2B02D0202B40F0A980F4
:10255000013CF6D14FF0FF3523464B6001F11706E1
:1025600001F10C03202203F8012FB342FBD1461ED8
:10257000002200E0013216F8013F2E2BFAD0202B6A
:10258000F8D0B2FA82FC6E1C4FEA5C1C0CD0475D9E
:102590002E2F00EB050604D106E016F8017D2E2F44
:1025A00002D015F1FF35F8D2A2424FF0000980F2B7
:1025B00091804E46CA4607274FF0080825E02E2B8B
:1025C00047D0222B0BD07C2B09D0A3F12A0EBEF1D1
:1025D000050F48D9A3F13A0EBEF1050F58D8954220
:1025E00039D0B74229D34FF0000C5F2306F1010E1A
:1025F00001EB060B5FFA8EF6062E8BF80D3000D835
:102600000E730132A24207DA835C202BD7D101324C
:10261000A2424FF0000CF7DB4B7B202B3FF475AF51
:10262000BCF1000F47D01AEA090F18BF4FF002099A
:1026300081F800900120BDE8F08F0A2F37D0954235
:1026400035DB2A460A2708264FF010084FF0000C09
:10265000D7E79542DBD10A2F29D02A460A27082638
:102660004FF01008CDE72D2BB9D1A3F1210EBEF10B
:102670005D0FB4D89542EED0B742DED3A3F1610E20
:10268000BEF1190F28D8203BDBB248EA0909ADE7B3
:10269000A3F15B0EBEF1020FA1D9E6E7176007199F
:1026A0004EE7FF2C3FF731AF651E234655E74B7BC6
:1026B000202B3FF42AAF0B7B0B4401207E243122D8
:1026C00008705C739A73BDE8F08F10601C464FF081
:1026D000FF3542E7CA469FE7A3F1410EBEF1190F4D
:1026E00098BF48EA0A0A81E7010100352DE9F8435D
:1026F0000F7B0E46044601F10D054FF002084FF026
:102700007E097068B16808EB00039BB240B10844D1
:1027100011F8012B03EB4313534088429BB2F7D1CE
:10272000032F28BF03273A1DD2B203F00F01B018C0
:10273000013A0929D2B294BF3031373197424FEA7A
:1027400013134173F1D3F319002183F80D90204640
:10275000FFF708FD01212046FFF7E4FC0B220346AA
:102760000146A8B193F800E02846BEF1000F15D04D
:10277000DB7A1B07EED405F08BF80028EAD108F1CC
:1027800001081FFA88F8B8F1640FBAD1BDE8F883E0
:102790006078B0FA80F04009BDE8F8830120BDE818
:1027A000F88300BF2DE9F04F0C7814F0700F8BB058
:1027B00001D004781CB100200BB0BDE8F08F147874
:1027C000D2F804B0A40740D14FF001090E4692465A
:1027D0000990002130460F460893FFF7C3FC0AF129
:1027E0000D03079703973C46B8460697059375690E
:1027F00001213046C5F34F15FFF794FC002800F087
:10280000A1800378E52B39D0002B37D04C4538BF59
:1028100000242E2B2FD0C27A0F2A3DD002F00802BE
:1028200002F0FF033ABBB8F1000F40F066810B22C3
:10283000059905F02DF80028D9D19AF80030DB076A
:1028400040F16F8101230693D1E7BF4D0BF10C04DA
:10285000A5FB04494FEA990909F101095FFA89F9D1
:10286000B4E7039A013AD2B29342039203D1437B75
:10287000079A9A421BD04FF00008B8E7002C08BF17
:102880002F464C453CBF0134E4B2002B5ED0E52B13
:10289000BFD14FF00008AAE7B8F1000FE1D15A0606
:1028A000A5D503F01F08437BCDF80C800793039B4D
:1028B000013B03EB430503EB8505AB45DBD9C5EBDA
:1028C0000B0C0023049018E0DAF80800D2B2A2F151
:1028D000410E415CBEF1190F98BF2032A1F1410EAB
:1028E00098BFD2B2BEF1190F9CBF2031C9B291423C
:1028F000C1D101330D2B3FF47AAFDAB2042A05EBD4
:1029000003010DD90A2A17D904985A1C00EB420278
:1029100092889C450BD0FF2AD6D94FF0000866E775
:10292000049A02EB43029C45B2F80120F3D1002A3D
:1029300018BF4FF000085AE704985A1E00EB4202F5
:10294000D288E6E77378002B7FF435AF089B03F05D
:102950004203422B7FF42FAF002C18BF3D464C455D
:1029600003D31AE0DCB2A14517D900213046FFF7A6
:10297000D9FB631C0028F5D1737823B11BE7B3683A
:102980001B79012B09D8A14507D93046FFF7E0F99B
:102990001034E4B20028F2D10DE7069B33B1514662
:1029A0003046FFF7A3FE00283FF405AF690130462B
:1029B000FFF7D8FB00283FF4FEAE09F1FF3818F00E
:1029C000FF0866D048F04003DBB20393444600257D
:1029D00000213046FFF7A6FB00283FF4ECAEB268BA
:1029E000039992F82430A04543F0010308BF8E46B6
:1029F0004FF00F0718BFA64682F824300AF10C01E9
:102A0000C772057380F800E00AF11707002311F878
:102A100001CF5A0842EAC3135CFA83F38F42DBB258
:102A2000F5D10EF01F0E0EF1FF3E4373DAF80830B9
:102A300085760EEB4E020EEB820203EB0209C576A1
:102A400000230FE0042B19F8031000EB430EDFB254
:102A500014D90A2F72D8AEF8041001330D2B02F1ED
:102A6000010212D09345EDD814BF4FF0FF31002181
:102A7000042B89B200EB430EDFB2EAD801330D2BF1
:102A8000AEF8011002F10102ECD1013C14F0FF0498
:102A90009ED1002130467569FFF744FBC5F34F1501
:102AA000044600283FF487AE2022002104F022FFD4
:102AB0005346264953F80D2F5868606022601A89E2
:102AC0009B7AA37222819AF800200B6802F0180208
:102AD0002273002B3CD004F10E0104F11000984742
:102AE000238AE189B26863822383E18292F82430E9
:102AF00043F0010382F8243017E0039A012A7FF49F
:102B00005AAE441E0A3014F8011F5A0842EAC31391
:102B100051FA83F3A042DBB2F5D1079A9A427FF4CF
:102B20004AAE089B1F063FF546AECDF80080089BD5
:102B300009982A463146FFF75BFB3DE6013300EB7F
:102B40004307B9808AE700BF4FECC44E8C0C0120CC
:102B500021212822A37308232174E37362744FF4A4
:102B6000006142F62103BDE7F8B54368816800F1D2
:102B70000C0604461868036832469B68984740B1C3
:102B800023789A07054607D423F0010323702846CB
:102B9000F8BD00252846F8BD6368A16818681F695C
:102BA0000368324639449B6898470028F1D023785F
:102BB000EAE700BFF8B583688B42064614460FD09B
:102BC0000378DA070F4612D4630716D506F10C0511
:102BD000002304F003041C4334702846B760F8BD9A
:102BE00010F90C3B04F003041C433470F8BDFFF7EC
:102BF000BBFF0028E8D10020F8BD7368186803689F
:102C000006F10C051B682A46394698470028DFD193
:102C1000F1E700BF0378DB0701D401207047FFF71D
:102C2000A3BF00BF837940690239994008447047C7
:102C3000012933D9C369994230D870B5C379202BA3
:102C4000164605460C4618D0102B13D18369C1F3E4
:102C500007211944022200F50C70FFF7ABFF48B1C1
:102C6000E1B230F81130EA6993429ABF0120336033
:102C7000002070BD4FF0FF3070BD8169022201EB72
:102C8000D41100F50C70FFF795FF0028F2D004F086
:102C90007F0150F8213023F07043E4E74FF0FF301C
:102CA000704700BF01291DD938B5C369994206D8BC
:102CB000C379202B15460C4616D0102B01D00020CE
:102CC00038BD8369C1F30721194400F50C70032254
:102CD000FFF770FF03460028F1D0E1B2012023F88E
:102CE000115038BD002070478169032200F50C7037
:102CF00001EBD411FFF75EFF03460028DFD004F09C
:102D00007F01012043F8215038BD00BF2DE9F0417B
:102D1000054682B090460F46C1B9C668344604E005
:102D200001D0019BA3B1B4420BD0EB6901349C42AA
:102D300088BF0224214601AA2846FFF779FF002810
:102D4000EEDA0026304602B0BDE8F0810E46E5E737
:102D50006FF0704221462846FFF7A4FF0646002880
:102D6000EFD037B9EC603046C8F8004002B0BDE89B
:102D7000F081394628462246FFF794FF0028F2D119
:102D8000DFE700BF70B5054682B00C4608E0FFF7EC
:102D900089FF80B1EB689C4238BFEC60019C5EB15A
:102DA00001AA21462846FFF743FF061E21464FF0A1
:102DB00000022846EBDA002002B070BDF8B50446E8
:102DC00000224FF0FF330120A462C4F83442E060D7
:102DD000E27184F8242084F83022E362C4F83832A7
:102DE0000D46C1B1042901D90020F8BD04F1240623
:102DF00030461146FFF7DEFE0028F5D000EB051344
:102E000093F8AE315B06EFD11B3500EB0515D5F815
:102E1000065015B9E8E704F1240630460022294699
:102E2000FFF7C8FE0028DFD0B0F80B30B3F5007F05
:102E3000DAD1037C022BD7D1C389002BD4D0467BB7
:102E40002671731E0021012E6371A1710ED0012124
:102E50000A4600E019465200D2B24B1C9642DBB241
:102E600003D0092BF6D1A171BEE7A171C38A4BB380
:102E70001F462761C6892E44A661B0F81130238110
:102E80005A0102F2FF1206EB470303EB6222626172
:102E90002362B0F8133003B9036AAD1A1D4425FA52
:102EA00001F140F6F4734A1C9942E2610CD94FF6E5
:102EB000F473994285BFC36A236210232023E37110
:102EC0000120F8BD476AD4E70C23E3718CE700BF0B
:102ED000ABB1F8B50C46064615465F1801E0BC429A
:102EE0000BD033682A4621461B6830469847013488
:102EF00005F500750028F2D1F8BD0120F8BD0120CC
:102F0000704700BFABB1F8B50C46064615465F18D2
:102F100001E0BC420BD033682A4621469B6830460C
:102F20009847013405F500750028F2D1F8BD01205D
:102F3000F8BD0120704700BF70B5037B012B04462C
:102F40000D46164606D0236820465B68984798B918
:102F5000002070BD43688B42F5D13146204600F019
:102F600021FC0028F4D06368A268013393426360B7
:102F700024BF0023237370BD05F57F42FF3222F486
:102F80007F7222F00302A2602946521B204600F005
:102F90007DFC0028DCD0012365602373DDE700BFE2
:102FA000037B012B07D0022B01D0012070470023A7
:102FB000037300F06BBD0023037300F0AFBC00BFD0
:102FC00070B5037B022B04460D46164606D02368D7
:102FD00020465B68984798B9002070BD43688B42D3
:102FE000F5D13146204600F09BFC0028F4D0636800
:102FF000A26801339342636024BF0023237370BD32
:1030000005F57F42FF3222F47F7222F00302A260B4
:103010002946521B204600F0F1FC0028DCD0022398
:1030200065602373DDE700BF034B04481B6818404D
:10303000B0FA80F04009704730100B4001000F00DB
:10304000024B186800F00100704700BF24100B40CD
:10305000014B1878704700BFD00C0120034B186853
:1030600080F40060C0F3C020704700BF24100B4004
:10307000034B186880F48060C0F38020704700BF65
:1030800024100B40034B04481B681840B0FA80F032
:103090004009704730100B4002007F114FF47A72E4
:1030A0002C4B02FB00F09842F0B44BD82A4D08227A
:1030B000012149000B01B5FBF3F39842264C3DD2A8
:1030C000013AF6D1B4FBF1F44B081F02A0423DD205
:1030D000214E4B00012200E02346B6FBF3F4A04250
:1030E00002F1010503EB010426D2102D2A46F3D18B
:1030F000F0221A4E1A4C18481A494FF47A7505FBFB
:1031000003F3B0FBF3F33360236823F00803236079
:10311000206820F47F2323F47F6343F460233B4340
:103120001A4322600B681B07FCD50D4A136843F055
:1031300008031360F0BC70471201DAE7B4FBF1F446
:10314000CF01C3E7044C00270121BFE70B46002253
:10315000CFE700BF4FA9AB000095BA0AD40C0120FD
:103160002C100B4024100B40F8B5054600F042FE31
:10317000064F064604E000F03DFE801BB84203D82F
:10318000A84704460028F6D12046F8BD20A1070034
:103190002DE9F041DFF840800E4FC8F800000546E9
:1031A00000F028FE064606E000F024FE801BB84230
:1031B0000AD803F019F8A84704460028F4D1C8F843
:1031C00000002046BDE8F0810023C8F8003020460A
:1031D000BDE8F08120A10700980C012038B5044615
:1031E0000F480D46FFF7C0FF08B1002038BD0D4A5B
:1031F0000D4B15600D481C60FFF7B6FF0028F4D199
:103200000B4A0C4B11681960196811601A68D207D3
:10321000EBD51B6813F4702FE7D1012038BD00BF38
:103220004130000008100B400C100B40293000000A
:1032300030100B40B80C012030B5154B85B00D4651
:103240001968FFF7CBFF00B3124A134B12680092C4
:103250001968019159680291083305F10F041B6840
:103260000393002301E051F8102C03F00301C9007F
:103270000133CA400DF1100E23F003010F2B7144EE
:1032800004F8012DEFD10023EB7305B030BD00BF72
:10329000A40C012010100B4014100B4008B5074B74
:1032A00007481968FFF79AFF30B1064B186880F499
:1032B0008070C0F3002008BD012008BDA40C0120CF
:1032C00000001A0D10100B40054B186810F002009A
:1032D00005D01B6803481840B0FA80F040097047D9
:1032E000B80C012000007F1170B500211548FFF7D0
:1032F00075FF044640B91449144B28204FF4C97295
:1033000008701A60204670BD1148FFF741FF70B980
:1033100010481149114D06680B682A6823F4803360
:1033200042F080622A6006600B60204670BD06494C
:10333000064B292040F29512087000241A6020469E
:1033400070BD00BF0000DB0CA407FF1F940C012020
:103350009D32000034100B4028100B402C100B4005
:10336000F8B5044619480D46FFF7FEFE38B1184976
:10337000184B2920EC2208701A600020F8BD164F67
:10338000164B174ADFF878E0164E17494FF0010C3C
:1033900087F800C01860154B1560154F154D164A7B
:1033A000CEF80040154837600D601A60FFF7F0FE58
:1033B00018B9FFF789FF00B1F8BD0549054B232077
:1033C000F62208701A600020F8BD00BF9D32000090
:1033D000A407FF1F940C0120D00C0120B80C012081
:1033E00000100B4004100B4038100B400C100B4029
:1033F0004000010002007F1111003A065130000028
:1034000008100B4010B4074C074A0849084800232D
:10341000236014680C60096811605DF8044B037048
:10342000704700BF38100B4030100B40B80C012023
:10343000D00C01202DE9F04FAE4DAF48DFF83483BA
:10344000AE4FAF4EAF49DFF830E3AF4C00232B70E7
:10345000026888F8003042F040623B7033700260CE
:103460000A6842F400320A6000F57E3001F59F419F
:1034700004305C31CEF80030036023600B6001F54E
:10348000C821A24AC36020314FF08070136091B010
:103490000A46086013689E4CD901FBD44FF4C870EB
:1034A000FFF7FCFDDFF8D4E2DFF8CCC29648994A7A
:1034B000994940F24343CCF80030CEF800304FF445
:1034C000886EC0F800E0136002F5C82228320B6055
:1034D000C3609249924B9348106060204FF40032D1
:1034E00008701A60236843F000632360216811F0BC
:1034F0000061FBD10846FFF771FE044600284ED05C
:103500000A244FF4D5718848FFF768FE00285DD182
:10351000013CF6D13378854E002B08BF4FF440169E
:1035200000F068FC824C814600218248FFF756FE7D
:1035300050B9814A40F2E311432311602B700024FB
:10354000204611B0BDE8F08F31467C48FFF746FEBB
:103550000028EED000F04EFC794B754AC9EB000014
:103560009842E6D82368002BDEDA764B11681960A2
:10357000136875485A0048BF01234FF0000148BF47
:103580003B70FFF72BFE044698B96B4A40F2ED11F1
:103590002123204611602B7011B0BDE8F08F664AE0
:1035A0004FF4E9712023204611602B7011B0BDE863
:1035B000F08F00216548FFF711FE0446D0B95E4A3E
:1035C0004FF4F871222311602B70B9E7584B1B6838
:1035D000B3F5D57F0AD0584A00244FF4EC71252367
:1035E000204611602B7011B0BDE8F08F01233370BD
:1035F0004E4E95E74E4B564E1B68564956481B0C8F
:103600001B043360FFF718FE044630B94A4A40F203
:10361000F511262311602B7092E750495048FFF7AF
:103620000BFE044630B9444A4FF4FC712723116065
:103630002B7085E731684B48FFF7D0FD044630B961
:103640003D4A40F2FB11242311602B7078E731686A
:103650003848FFF7C3FD38B9374A40F2FF1140231D
:1036600011602B7000246BE702213F48FFF7B6FD85
:1036700004460028F0D03D4B3D481A6822F006026F
:103680001A601A684FF0101542F002021A6069467B
:1036900005606FF07F40FFF763FE18B19DF80D30B5
:1036A0009B076DD446F2A810DFF8CCB0DFF8CCA0B1
:1036B000DFF85490174F184E144D0023CBF800300C
:1036C000CAF80030C9F800303B6033602B60FFF768
:1036D000E5FC40F243434FF488610122CBF800300F
:1036E000CAF80030C9F800103B6033602B6088F8DE
:1036F000002025E7A407FF1F00D800409C0C0120F4
:10370000900C01203080044008D0044014D00440C4
:103710002C100B400CD0044010D0044051E400E0C9
:1037200008E100E00B007F1100001A0800003040A3
:1037300010100B4000001A37940C012000000229E1
:1037400020A10700A00C01200000090200001A03BC
:10375000A40C0120C00C012000000909A80C0120C4
:103760000000090A00001B0700001A0628100B4081
:1037700044100B40BC0C012000D0044004D0044095
:1037800069460748FFF7ECFD00288BD09DF8103004
:1037900003F00F03012B85D14CF2503084E700BFBA
:1037A000F1FFFF8038B52E4B1B6898050D4615D4E8
:1037B0002C4B2D491A6822F480321A600A68120CC8
:1037C0001204B2F5803F46D072B61A6842F4003255
:1037D0001A601A6842F480321A6062B62348FFF712
:1037E000C3FC00282ED11E4C21482B1F05F5FE7569
:1037F00022681105FCD503F14001026843F8042F4B
:103800009942FAD1A9420B46F2D11A48FFF7ACFC13
:1038100078B9194A194B11681960196811601A684A
:10382000920705D51B6816481840B0FA80F0400989
:1038300038BD1449144B552040F2932208701A6089
:10384000002038BD0F49104B52204FF422720870EF
:103850001A60002038BD1A6842F400321A60BDE7D1
:1038600024100B4028100B4004100B405D3000006A
:1038700020100B408530000030100B40B80C0120A8
:1038800000007F11A407FF1F940C0120B2F5803FB8
:1038900038B508D31A491B4B54204FF42A720870CC
:1038A0001A60002038BD18480D461446FFF770FC1A
:1038B000E8B9012C04D9154A136843F48033136026
:1038C000134B14491B78220442F400720A6063B956
:1038D00069021148FFF782FC30B90949094B3124CC
:1038E00040F2B2220C701A6038BD2946F1E7044953
:1038F000044B292040F2AB2208701A60002038BD2A
:10390000A407FF1F940C01209D32000028100B40DB
:103910009C0C012004100B4036003A12FFF7E4BC67
:1039200038B52B4B1B68D8050D4613D4294B2A49B3
:103930001A6822F480321A600A68120C1204B2F576
:10394000803F1A6842F400321A6003D01A6842F4C9
:1039500080321A602148FFF707FC00282ED11C4C4A
:103960001F482B1F05F5FE7522685105FCD503F194
:10397000400153F8042F02609942FAD1A9420B4644
:10398000F2D11848FFF7F0FB78B9174A174B1168C6
:103990001960196811601A68920705D51B681448E8
:1039A0001840B0FA80F0400938BD1249124B5A2035
:1039B00040F2FD2208701A60002038BD0D490E4B00
:1039C000582040F2F22208701A60002038BD00BF73
:1039D00024100B4028100B4004100B4071300000E5
:1039E00020100B408530000030100B40B80C012037
:1039F00000007F11A407FF1F940C0120B2F5803F47
:103A000038B508D31A491B4B59204FF4437208703C
:103A10001A60002038BD18480D461446FFF7B8FB61
:103A2000E8B9012C04D9154A136843F480331360B4
:103A3000134B14491B78220442F400720A6063B9E4
:103A400069021148FFF7CAFB30B90949094B332411
:103A50004FF446720C701A6038BD2946F1E70449EC
:103A6000044B29204FF4447208701A60002038BDBE
:103A7000A407FF1F940C01209D32000028100B406A
:103A80009C0C012004100B4026003A19FFF72CBCB7
:103A9000844641EA000313F003036DD1403A41D359
:103AA00051F8043B40F8043B51F8043B40F8043B18
:103AB00051F8043B40F8043B51F8043B40F8043B08
:103AC00051F8043B40F8043B51F8043B40F8043BF8
:103AD00051F8043B40F8043B51F8043B40F8043BE8
:103AE00051F8043B40F8043B51F8043B40F8043BD8
:103AF00051F8043B40F8043B51F8043B40F8043BC8
:103B000051F8043B40F8043B51F8043B40F8043BB7
:103B100051F8043B40F8043B51F8043B40F8043BA7
:103B2000403ABDD2303211D351F8043B40F8043B47
:103B300051F8043B40F8043B51F8043B40F8043B87
:103B400051F8043B40F8043B103AEDD20C3205D357
:103B500051F8043B40F8043B043AF9D2043208D04F
:103B6000D2071CBF11F8013B00F8013B01D30B88C1
:103B700003806046704700BF082A13D38B078DD09F
:103B800010F003038AD0C3F10403D21ADB071CBF71
:103B900011F8013B00F8013B80D331F8023B20F8DB
:103BA000023B7BE7043AD9D3013A11F8013B00F814
:103BB000013BF9D20B7803704B7843708B7883709C
:103BC0006046704708B5104C08E0236859050DD4CD
:103BD00023681A050FD42368DB0411D42368580323
:103BE000F3D501F047F923685905F1D502F004FC3B
:103BF00023681A05EFD500F053FD2368DB04EDD5EB
:103C000001F012F8EAE700BF3480044008B5FFF77E
:103C1000D9FF00BF014B10221A80704700200540D9
:103C2000704700BF094908B50B6830B16A461844AF
:103C3000A2F50052904202D20860184608BD03F077
:103C400039FB0C2303604FF0FF3008BDA807FF1FAE
:103C5000EFF3138070B9EFF310836BB9EFF30582C4
:103C60005AB94FF48070EFF311832BB1984228BFFB
:103C7000184670474FF0FF3070470F2A01D818469A
:103C8000F1E7014BD05CEEE7F0E300E0084A13787F
:103C9000802B01D0002070470649074B0748086079
:103CA000002119701378802BFCD00120704700BFD1
:103CB00003E007404480044001E007400000282260
:103CC000094A1378012B01D00020704703F180438B
:103CD00003F5FC23602119701378802BFCD1034B72
:103CE000034A1A600120704703E007404480044003
:103CF0000000060210B4114B53F8302092F88042B5
:103D000034B1012379B182F880305DF8044B7047FB
:103D100003EBC0035B681A6851B922F002021A6013
:103D20005DF8044B704782F800315DF8044B704732
:103D300042F003021A605DF8044B7047D47E000025
:103D40001C4A02EBC00301295B6811D004291BD077
:103D500052F83000002280F8802229B1022920D0B8
:103D6000032922D01A6070474FF480721A6070479E
:103D700052F830004FF4A27280F880121A601A686C
:103D800022F020021A60704752F830104FF4A272ED
:103D9000012081F880021A601A6842F020021A603D
:103DA000704740F203121A6070474FF481721A6034
:103DB000704700BFD47E000030B4054B054D064C63
:103DC000002210211A602A602060196030BC704700
:103DD00014D0034004D0034000D003403F2801D852
:103DE000FFF788BF704700BF3F2801D8FFF7A8BF83
:103DF000704700BF72B60D490D4B0E4A1B6808682C
:103E0000126862B6520102D5322B88BF0130C3F569
:103E10002F33094903F21F334FF47A729B08A1FB39
:103E2000031302FB00F000EB93007047D80C012055
:103E300018E000E004ED00E0176CC1162DE9F8432E
:103E4000054672B6224F234B234A1B683C68126812
:103E500062B6520102D5322B88BF0134B5B3C3F527
:103E60002F3303F21F331D4EDFF86890DFF86880B0
:103E70009B084FF47A72A6FB031302FB04F404EBD5
:103E8000930472B6D9F800103A68D8F800E062B628
:103E9000C1F52F3303F21F339B08A6FB03031EF06B
:103EA000806FC4EB93034FF47A7002D0322988BF3D
:103EB000013200FB0233B3F57A7F04D3013D05D014
:103EC00004F57A74DDE702F08FF9DAE7BDE8F883EC
:103ED000D80C012018E000E004ED00E0176CC116DA
:103EE000F8B54E4B4E48DFF85CC14E4C4E49DFF8FA
:103EF00058E14E4E4E4D4F4F4FF000621A604FF05A
:103F000080521A604FF000521A604FF080421A60DF
:103F10004FF000421A600022026028234EF6FF7024
:103F2000CCF80000CEF8003023600EF5012E0B60B7
:103F300033602B6006F500263B6005F50025A36283
:103F400007F500278B6204F5012401F5012106F62F
:103F5000E87605F6E87507F57F6710310EF1100E6B
:103F6000203433602B60CEF800303B600B60236060
:103F7000314CBB618B6109212160A7F5002704F555
:103F80008054203F08343A602060BB60E36047F80B
:103F9000041C04F5FD2407F5FE27043704F2FC7425
:103FA00022603860A360FB6044F8041C083404F607
:103FB000FC74C7F8FC2F2060A4F5E124A4F2DC74A3
:103FC00033602B60C7F8F81F21681C4841F400716A
:103FD000216001681A4C0EF57F4E0EF1E80E07F5D0
:103FE000883706F5803605F5803541F000710160AF
:103FF000CEF8002047F6FF710822396033602B604D
:10400000226002F053F93220FFF718FF01F05EFB47
:104010004FF4AF70BDE8F840FFF710BF04E100E0D7
:1040200004800340148003401C800340248003402C
:104030002C8003403480034000800340048004400F
:1040400000900C40088003400C800340264A27491A
:104050001368F0B443F4006313600A78244F254ECC
:10406000254D264C26490023092A3B8033802B709E
:1040700023700B7032D03B2A23D0224B1B780A2BA3
:1040800027D03A2B03D1204B4FF451721A601F4BAB
:104090001F4D204CC0F34437C0F3471600F01F00FB
:1040A0001F7004215E700222987288273C264020EF
:1040B0009970DA7459751F74DE7028702260F0BC34
:1040C0007047154B40F213321A600E4B1B780A2BC7
:1040D000D7D1124B4FF451721A60D8E7104B40F20F
:1040E00013321A60C9E700BF34800440AC07FF1FD9
:1040F0000C0E0120E20C0120140E01200E0E0120F6
:10410000E00C0120AD07FF1F00D0044000B00640C6
:1041100021E400E004E100E004D0044010B00440D9
:104120000CB00440194B19499B7803F0EC0200F0E5
:1041300003031343420700F00F0248BF43F010038C
:10414000042A8B701CD0114B104A5B79C10603F016
:10415000EF0348BF43F0100353719379820603F0D5
:10416000EF030A4A48BF43F010039371C30506D515
:1041700053781178DBB241F0200111705370704711
:104180008B7943F040038B71DDE700BF00B0064040
:10419000204B1B681B053BD510B51F4C237823B162
:1041A00002F022F82378002BFAD11C481C491D4B41
:1041B000022400220460CA701B78092B19D03B2B03
:1041C00001D1194B1A60194B1B7803F07F030A2B9E
:1041D00019D03A2B02D1164B00221A60154B164803
:1041E00016491A68002303800B800AB1012313705B
:1041F00010BD134B40F203121A600C4B1B7803F0F6
:104200007F030A2BE5D10F4B40F203121A60E5E75A
:10421000704700BF34800440E00C012084E100E0DE
:1042200000B00640AC07FF1F04D00440AD07FF1FDD
:1042300000D00440DC0C01200C0E0120E20C012017
:104240000CB0044010B004400A4A38B50546137853
:1042500003F0FF04002BFAD101212846FFF7C4FD2B
:1042600021462846FFF7BAFD034A044B52F8352091
:104270001A6038BDE00C0120D47E0000100E012031
:1042800009B140F08000174A1378984217D010B453
:10429000154C246824050FD503F07F030A2B1DD08D
:1042A0003A2B12D0002900F07F0114BF6023442371
:1042B0000A290ED03A2903D010705DF8044B7047DC
:1042C0000A4943F440730B60F6E7084B00241C6076
:1042D000E8E7074943F440730B60EDE7044B002423
:1042E0001C60DFE7AD07FF1F3480044000D00440AE
:1042F00010B00440124B1A7882420CD01149096860
:10430000090507D5092A16D03B2A0AD009280DD05D
:104310003B2801D0187070470B4A40F213311160EE
:10432000F8E7094A002109281160F1D1074A40F253
:1043300013311160EEE7054A00211160E6E700BF86
:10434000AC07FF1F3480044004D004400CB004408C
:104350000D4B1B6813F4006305D03F2805D90B4BA8
:1043600000201860704718467047094B10B5074C7D
:1043700053F8303023600121FFF736FD2368002217
:104380001A70012010BD00BF34800440DC0C0120F5
:10439000D47E00000F4B1B6813F4006308D017286D
:1043A00008D03C2811D00C4A537B03F0FE03537312
:1043B00000207047094B40F202321A60064A537BD4
:1043C00043F00103537301207047054B40F2023262
:1043D0001A60F3E73480044000B0064008B004409F
:1043E00008D004402DE9F84F234B1B681A053BD534
:1043F000224B1B680BB101221A70DFF89090204D00
:1044000099F80040DFF888801E4E0134272C8ABFBF
:104410004FF0000A5FFA84FA54460746AB462B7801
:104420009C4216D1FFF714FC40281FDC33791B0691
:10443000F5D59BF800300133272B86BF00221346A9
:10444000DAB218F80330DBB2F3712A702B789C4291
:10445000E8D00D490B4BFFB20120BC2208F80470D4
:10446000087089F800A0DA70BDE8F88FFF28D6DD63
:1044700001F0BAFED3E700BF34800440100E0120E3
:104480000E0E012000B00640E00C0120140E0120A9
:10449000E40C01202DE9F84F294B1B681A0548D57B
:1044A000284B1B6805460BB101221A7005EB010A67
:1044B000554540D2DFF89C80234CDFF89C90234F79
:1044C0000AE015F8012B09F80B20214A0123AA451F
:1044D000137088F800602ED098F80030227803F12D
:1044E000010BBBF1270F86BF0026B3465FFA8BF6A0
:1044F0009345E6D1BC22FA7005E03A7913060BD455
:1045000022789345DDD1FFF7A3FB4028F5DDFF2896
:10451000F6DD01F069FEF3E722780132272A86BF33
:1045200000210A46D1B219F80220D2B2FA712170E4
:10453000E6E7BDE8F88F054BBC22DA70BDE8F88FDE
:1045400034800440100E01200E0E012000B0064001
:10455000E00C0120140E0120E40C012010B5044CE5
:10456000237823B101F040FE2378002BFAD110BD4F
:10457000E00C0120064A074B1B781078DBB2C0B272
:1045800083422CBF273000F1FF30C01A704700BFB4
:104590000E0E0120140E0120054A064B10881B88C0
:1045A00080B29BB2984238BF00F58070C01A704745
:1045B0000C0E0120E20C0120154B30B4154C1A886A
:1045C000238892B29BB29A421FD00133FF2B0ED99F
:1045D0001149124B087819680023C0B2238021B119
:1045E000D31ADA2B01DC00230B7030BC70470A4869
:1045F0000A49C05C09689DB2C0B225800029F4D088
:104600009A4238BF02F58072EAE74FF0FF30ECE7DC
:104610000C0E0120E20C01200C0D0120DC0C01200D
:10462000094A0A4B12881B8892B29BB29A4208D060
:104630000133B3F5807F28BF0023054AD05CC0B2A8
:1046400070474FF0FF3070470C0E0120E20C012044
:104650000C0D01200D4B1B681B0516D530B40C4BFF
:104660000C4CDA780C480D4902F0CB024025DA7088
:104670005D74DA7842F03402DA70238802689BB203
:104680000B800AB10023137030BC704734800440A3
:1046900000B00640E20C0120DC0C01200C0E0120D1
:1046A000F0B4394B1A7912F0300F2DD072B6997DD3
:1046B00001F0FF0200293ED062B6344F34493888F9
:1046C0000D88344E1C4680B2ADB2431CB3F5807FDA
:1046D000E17928BF0023AB4202F1FF32C9B21CBF0F
:1046E000F154184612F0FF02EFD12B4B1B6882B237
:1046F0003A804BB1A84236BFC5F58075401B4019C2
:10470000E728C4BF01221A701F49CA78D2B2150621
:1047100016D452060DD51C4B1B795B0609D51F4BD1
:104720001F491B6800220A7003B11A70164B3C2205
:10473000DA70F0BC70474022D9795A7462B6E3E768
:104740000B791C06E5D5174B174E1C783378E4B26D
:10475000DBB29C420ED0154D01E0A3420AD00133DA
:10476000282B28BF00230879E85CC0B2C871087DF7
:104770000728F2D9DBB2044933700B79180644BF1D
:104780007C23CB70C5E700BF00B006400C0E0120B3
:10479000E20C01200C0D0120DC0C0120100E012088
:1047A000E00C0120140E01200E0E0120E40C01206B
:1047B0002DE9F84F214B1B6807460BB101221A70F7
:1047C000DFF888901E4D99F80040DFF884801D4E78
:1047D0000134272C8ABF4FF0000A5FFA84FA54464E
:1047E000AB462B78A34216D1FFF732FA40281FDCE4
:1047F00033791B06F5D59BF800300133272B86BF94
:1048000000221346DAB218F80330DBB2F3712A70D3
:104810002B78A342E8D00C490A4BFFB208F8047089
:104820000120AC22087089F800A0DA70BDE8F88F8A
:10483000FF28D6DD01F0D8FCD3E700BF4C0F0120E4
:10484000490F012000C00640480F0120500F0120F1
:10485000200E0120174A18491368F0B543F480531D
:10486000164C174D174FDFF874E01360164E174AB9
:1048700000232380AEF80030154C2B700B703B707A
:1048800040F213373760134D1349C0F344364FF4E9
:10489000517727601670C0F347142C2700F01F00D3
:1048A000402654709072082493701374D7702E7041
:1048B0000C60F0BD34800440490F01201C0E012023
:1048C000500F0120480F012008C0044000C00640DE
:1048D0000CC0044023E400E004E100E01E0E0120CF
:1048E000194B19499B7803F0EC0200F003031343C2
:1048F000420700F00F0248BF43F01003042A8B70F8
:104900001CD0114B104A5B79C10603F0EF0348BF7E
:1049100043F0100353719379820603F0EF030A4AC0
:1049200048BF43F010039371C30506D5537811783F
:10493000DBB241F020011170537070478B7943F066
:1049400040038B71DDE700BF00C00640F8B5114B96
:104950001B68DB041CD5104C237823B101F044FC08
:104960002378002BFAD10D4B0D4F0E4E0E4D0F4CF0
:104970000F48104908221A600023FB7040F203120E
:1049800032602A60226803800B8012B10123137009
:10499000F8BDF8BD34800440480F012084E100E0F8
:1049A00000C0064008C004400CC00440180E01209E
:1049B0001C0E01201E0E01200A4A38B50546137848
:1049C00003F0FF04002BFAD101212846FFF70CFA6F
:1049D00021462846FFF702FA034A044B52F83520D5
:1049E0001A6038BD480F0120D47E00004C0F012012
:1049F00009B140F08000104A137898421AD010B4E0
:104A00000E4C2468E40412D503F07F03082B02D176
:104A10000B4B00241C60002900F07F0314BF6021B1
:104A20004421082B03D1064B41F4407119601070EA
:104A30005DF8044B704700BFAE07FF1F3480044091
:104A40000CC00440704700BF0D4B1B6813F480532B
:104A500005D03F2805D90B4B002018607047184639
:104A60007047094B10B5074C53F8303023600121D3
:104A7000FFF7BAF9236800221A70012010BD00BFA9
:104A800034800440180E0120D47E00000C4B1B68BB
:104A900013F4805306D00E2806D00A4A537B03F045
:104AA000FE03537300207047074B064A40F2023161
:104AB0001960537B43F0010353730120704700BF1B
:104AC0003480044000C0064004C00440034B1B680F
:104AD000DB0401D5FFF76CBE704700BF3480044093
:104AE00070B5094E04464518AC4204F101040AD0E1
:104AF0003368DB04F8D514F8010CFFF759FEAC421B
:104B000004F10104F4D170BD3480044010B5044CAC
:104B1000237823B101F068FB2378002BFAD110BD74
:104B2000480F0120064A074B1B781078DBB2C0B251
:104B300083422CBF273000F1FF30C01A704700BFFE
:104B4000490F0120500F0120054A064B10881B8891
:104B500080B29BB2984238BF00F58070C01A70478F
:104B60001C0E01201E0E0120154B30B4154C1A8866
:104B7000238892B29BB29A421FD00133FF2B0ED9E9
:104B80001149124B087819680023C0B2238021B163
:104B9000D31ADA2B01DC00230B7030BC70470A48B3
:104BA0000A49C05C09689DB2C0B225800029F4D0D2
:104BB0009A4238BF02F58072EAE74FF0FF30ECE727
:104BC0001C0E01201E0E0120480E0120180E01208F
:104BD000094A0A4B12881B8892B29BB29A4208D0AB
:104BE0000133B3F5807F28BF0023054AD05CC0B2F3
:104BF00070474FF0FF3070471C0E01201E0E012041
:104C0000480E0120054B064A1B88064912689BB2D4
:104C10000B800AB100231370704700BF1E0E0120E5
:104C2000180E01201C0E012030B42C4B1A7994066A
:104C300021D52B48D97903882A4A9BB2013312889F
:104C4000FF2BC8BF002392B29342C9B203D0264CB7
:104C50009AB2E1540280254A116861B1244A12785F
:104C6000D2B2934236BFC2F580729B1A9B18E72BD3
:104C7000C4BF01230B70194AD378DBB2180611D4D4
:104C80005A060DD5154B1B795B0609D5194B1A49E8
:104C90001B6800220A7003B11A70104B2C22DA70C4
:104CA00030BC704711790906EAD5144910480C78D0
:104CB0000178C9B28C420DD04A1C272A84BF00213A
:104CC0000A460F4D054C98BFD1B2AA5CD2B2E27130
:104CD0000170D5E76C21D170D2E700BF00C006405B
:104CE0001C0E01201E0E0120480E0120180E01206E
:104CF000490F01204C0F0120480F0120500F0120C7
:104D0000200E0120431E032B14D872B60A4951F815
:104D1000230068B170B4094C058834F81320466844
:104D200041F82360521B24F8132062B670BC704710
:104D300062B6704700207047AC0F0120EC140120D0
:104D4000013803280BD872B6074B53F8203043B113
:104D500000205B680130002BFBD162B67047002059
:104D600070471846F9E700BF00100120F0B472B692
:104D70001A491B4E012311F8014B194F9A002407C1
:104D800042F0010505D556F8324064B156F8352099
:104D9000BAB10133052BEED162B6124B00221A7064
:104DA000F0BC00F01BBD0F4C0F4D217847F832507E
:104DB00007EB431308304A1E5860227062B6F0BCFD
:104DC00070470849094B0A7847F8353007EBC503A7
:104DD0000830013A58600A7062B6F0E7BC81000002
:104DE0000000FF1F2910012088004000C80040007B
:104DF000431E032B1DD81B4A400140F0100030B465
:104E0000104472B6184CE25C032A1BD8DFE802F0AB
:104E10000212151703220D88E25410F0080F14BF78
:104E2000C823882343EA054308310360416062B622
:104E300030BC704708300222EDE70522EBE708306E
:104E40000422E8E7094A52F8230038B1084A52F828
:104E50002300416042F8231062B6E9E742F82310CC
:104E6000034AF7E70000FF1F38100120001001205F
:104E7000101001202DE9F04FDFF804A3DFF804B390
:104E800087B044E0A94F4FEA930807EBC809013EF9
:104E9000D9F8042003F00803F6B2A2F1080003F0E9
:104EA000FF04002B40F0FE8057F838301B0C99B2FD
:104EB00022F8081C002B00F0EC809D4B22F8064CD9
:104EC00042F8044C53F82620002A00F02B82994D1A
:104ED00055F826305860984C45F8260034F81630BE
:104EE000194424F8161000F059FC002800F0138231
:104EF000924A934B19F0080F00F1080018BF1346AF
:104F0000C9F8040047F8383008238AF800309AF8C6
:104F10000040E4B260071AD58A4B1B78A3B18A49D6
:104F20000A7802F0FF0322B1013BDBB20B7003B938
:104F300000BE86490A7802F0FF032AB1013BDBB2CA
:104F40000B70002B00F0BD8104238AF8003004F0C0
:104F5000080303F0FF02002B00F0C8809BF800302C
:104F6000DBB21E098ED19C08704F57F8342007EB36
:104F7000C401C2F38302013A49680C2A00F2858019
:104F8000DFE802F079798383838383834283838399
:104F9000070008686E4B6F4D0193684B4A686E4E70
:104FA00047F8343081B240F28164694B6A6028600E
:104FB00000220120A1421A603A61BA61307000F209
:104FC000E380B1F5D06F80F02782B1F5817F00F0EA
:104FD000E08100F2C381802900F03682822940F00E
:104FE000DE81A9885D4B01F07F01042900F2D881A0
:104FF0005B4C89000B44227062701A78930740F171
:1050000022832070022023E2514B01931A683AB3A5
:10501000544B514E5449188834780D7840288646B0
:1050200045F0020828BF4FF0400E002C84F0010428
:105030003470CEEB00000CBF8824C82407EBC806F0
:1050400080B285F0010544EA0E447260188047F88A
:10505000384072440D70002800F0B780019B1A6040
:105060003C4B1A88B2F5A06F0FD100219A78597085
:105070003E4B1A7009E0374A108842F221029042F2
:1050800000F0A8802D4A47F83420394A01231370D4
:105090003AE72A4A2A4B19F0080F18BF134647F877
:1050A000383031E700F09AFB324A334952F8263063
:1050B000002B00F03B8158688C5D42F8260003F11C
:1050C0000802C9F80420032C05D8DFE804F02C02FC
:1050D000292602228A551A8819F0080F0CBF882346
:1050E000C82343EA024347F838300DE7E00700F1F0
:1050F000EB80210600F12881A20706D51F4A20492E
:1051000013780220DBB213700870E30602D51C4B43
:1051100010221A7007B0BDE8F08F04228A55DAE732
:1051200005228A55D7E703228A55D4E70000FF1FDE
:10513000AC0F0120580F0120EC140120C8004000E2
:105140008800400034100120BD0F01203C100120D8
:10515000540F012020100120BC0F0120C020074067
:105160002C100120680F01202810012098200740F2
:1051700094200740001001203810012088200740AB
:10518000802007409020074042F22104A14200F015
:10519000948043D8B1F5086F00F0A881B1F5106F85
:1051A00040F0FD80B84AB94CA978117004F180052F
:1051B00003E00834AC4200F09E81236A1906F8D55A
:1051C000606A083800F00AFBF3E7BEF1400F18BF31
:1051D000002243E7AE4ACD1D11F8013B02F8013F22
:1051E000A942F9D1AB4A1268862A00F01181AA4976
:1051F000AA4E0A78307882F00105002842F00202B7
:105200000D700CBF8821C82147F8321007EBC2028D
:1052100080F0010000213070516033E742F2212418
:10522000A14240F0FE81DFF8BCC29D4B9D49AC78A5
:10523000DCF800501D6081460C7000200290804612
:105240008446044694490D7845F0020E07EBCE03E0
:10525000B9F1000F5C600CBF8824C82444EA08033D
:1052600085F0010447F83E3032700C70DFF81CE224
:105270008A4BDFF82482002840F09880BCF1400F70
:105280001BD144F0020407EBC403029FDFF8FCE1EA
:105290005F60002A40F09F80020442F088020744C9
:1052A0004EF8342086F800900D703B46402804D11B
:1052B00000207D4A019910800B607C4A0123137005
:1052C000E3E600F047FC3FE6704B784872491A610C
:1052D0004FF0020E80F800E0754F0A7075491960B2
:1052E0009960754E754D764C9A610D213970FF218C
:1052F0003170DFF8F4E129702270724D724A8EF835
:1053000000109F27012406F8047C5D600470DA60B9
:1053100007B0BDE8F08F6D4A47F8380013780133C5
:105320001370F1E543F82600694DD4E58B5D032B3E
:1053300067D801A252F823F0094F0000094F00007E
:105340008D5300008753000059495C4B80220D208B
:1053500008701A70A2077FF5D8AECFE640F202328D
:10536000914240F05681A98801F07F01042916D8A6
:105370006A88A2B94E4C89000C448146217841F0DC
:105380000201217059E701238B55BDE500238B55A0
:10539000BAE5A98801F07F01042940F24781444B16
:1053A0000F221A70414A012313706EE640287FF6DF
:1053B00068AF44F002040EEBC401029E4E60AAB135
:1053C000444A83F800903346403888F80050403310
:1053D0004EF834206DE70204029B86F8009042F0FC
:1053E000C8020D7003444EF834205FE783F8009044
:1053F000029B304A88F80050403840334EF8342041
:1054000057E719F0080F0CBF022303238B557BE5E8
:10541000314A0F211170EAE6304A5468002CBED0A0
:105420006888B5F804E003E00C325468002CB6D06C
:1054300013888342F8D153887345F5D1000A0328B5
:105440000CBF2078108903E0254C02202270627086
:10545000EA88824280F00C810F490D78402A45F09D
:10546000020E944607EBCE0028BF4FF0400C04EB31
:105470000C0344600293CCEB02004FEA0C484FF05F
:1054800001090022C824E9E6341001200000FF1FB2
:10549000F3140120F414012028100120BC0F012076
:1054A000FC1401204C100120680F012094200740BB
:1054B000C020074088004000882007408020074027
:1054C000982007406C0F0120C00F012029100120F7
:1054D000580F0120C8004000BD0F0120C08100000E
:1054E0002C100120D80C01208C200740684A694C00
:1054F00012782270ACE76849684B694A02916949A1
:10550000694C6A4D039405964FF0000988461C4685
:1055100016460495206828B1456800F05FF92846D2
:10552000002DF9D100232360049B30681A46002324
:1055300042F8293028B1456800F050F92846002D7E
:10554000F9D100223260029A98F800301146002208
:1055500041F8042B039A0291023B4FF0000122F81C
:105560001910032B07D8DFE803F0340234024FF0A0
:10557000010388F8003009F10109B9F1040F04F1C1
:10558000040406F1040608F10108C3D1484B059E46
:10559000DFF83091DFF8308100211970012518F80B
:1055A000013B09F8043B1A0718D4AC0044F002028E
:1055B00044F00304002347F8323047F834303D4BC1
:1055C000994505F10105EAD196F8009089F00102AC
:1055D00033E64FF0000388F80030CCE700F0DEF847
:1055E000AC0007EB451300F10802002837D05A60E1
:1055F000314B47F8343000F0D1F844F0010307EBA9
:10560000C30200F1080100B351602C4A47F833206F
:10561000CCE7B1F5A06F7FF4C2AE00224FF00109D4
:105620000BE642F221329142F7D0B8E66A88002AAE
:105630007FF4B5AE224C89000C448146217821F0DC
:1056400002012170F9E5022002E7194B44F0010242
:105650001B7847F83200164A01331370A6E7144B43
:10566000134A1B78AC00013347F834001370C2E7CB
:105670004028844628BF4FF0400C04EB0C03CCEBD1
:1056800000004FEA0C48029300224FF00109D9E5CF
:10569000341001202C10012010100120AC0F01202B
:1056A0000010012038100120EC140120580F0120B7
:1056B00029100120D420074088004000C800400085
:1056C000C0200740C4200740BC8100002DE9F04104
:1056D000274C01F097F8002204F1880023461A6055
:1056E0005A60083383424FF00001F8D12148224A22
:1056F0000368DFF89CE0214E214D224FDFF894C073
:10570000DFF8948043F480230360136843F0407310
:10571000136003238EF80030A023337002F5C922F2
:10572000C4F3072300F528302B708030C4F30743FF
:1057300010323B70240EFF230470134D8CF80030A0
:10574000124888F800301370012306F8AC3C4FF47F
:1057500000140EF8441C7026102107F82C3C2E7003
:10576000046082F8F810AEF1440EBDE8F08100BF8D
:105770000000FF1F3480044000D800404021074053
:105780009C200740B020074035E400E004E100E041
:1057900044210740802007408820074072B60D480A
:1057A0000268B2FA82F30B2B10DC4FF00041D940B3
:1057B00022EA0102026062B6074803EBC303DB0082
:1057C000C2180021C15010465160704762B60020D7
:1057D000704700BFB007FF1FD003FF1F0D4B0E4ADD
:1057E000C31AA2FB03231B090B2B0CD80B4A1278FC
:1057F00052B972B60A484FF00041026821FA03F329
:105800001A43026062B67047064A1278002AF0D046
:10581000FFF7ACBAD003FF1F398EE33829100120FF
:10582000B007FF1F3410012038B50F4D286878B13C
:1058300043880288C118013393420C7A02D2438014
:10584000204638BDFFF7CAFF002320462B6038BD35
:10585000064B1B782BB10320FFF754FA2860002871
:10586000E6D14FF0FF3038BD481001203410012040
:1058700010B5094C206818B143881844007A10BD4F
:10588000064B1B782BB10320FFF73CFA2060002861
:10589000F2D14FF0FF3010BD48100120341001202C
:1058A000044B054A1B6890881BB11A885B88D31A81
:1058B0001844704748100120EC1401202DE9F84FDE
:1058C0000E46002942D0DFF890A09AF8003003F08D
:1058D000FF091BB34FF000091E4F8046CB463C68C2
:1058E00024B325886388ED1AB54228BF354604F1F4
:1058F000080119442A464046FEF7CAF86388228800
:105900002B449BB29A42A944A6EB0506A8446380A7
:1059100016D91EB19AF80030002BE0D14846BDE8F8
:10592000F88F0588002DDDD1FFF758FF0320FFF722
:10593000E9F9044638600028F3D14846BDE8F88FFD
:105940002046FFF74BFFC7F800B0E2E70846BDE886
:10595000F88F00BF48100120341001200B4B1B783A
:105960009BB110B50A4C206848B1FFF737FF002300
:1059700003202360FFF7C6F930B1FFF72FFF0320A4
:10598000FFF7C0F90028F8D110BD7047341001208E
:10599000481001202DE9F04FDFF8F89083B0012284
:1059A00089F80020019169B3DFF8EC80354F019E42
:1059B0008346D8F80000B0B3334D4488C4F14001A9
:1059C000B14228BF314604EB010E00221FFA8EFEC1
:1059D0002A70761AA0F802E000F1080251B1013CE9
:1059E000224459441BF8014B02F8014F8B45F9D171
:1059F000B0F802E0BEF13F0F0BD8244A0521117028
:105A0000002ED6D10198002389F8003003B0BDE8FC
:105A1000F08F4022028001460420FFF7E9F90022BE
:105A2000C8F80020E9E73A7822B3194C164D4FF038
:105A3000010A07E0013C16D02A78A2B900F0D4FB95
:105A40003A78BAB10420FFF77BF90728F2D889F831
:105A500000A0FFF7A3FEC8F800000028ADD10D4B51
:105A6000013C1870E8D101234FF0FF302B7003B0D8
:105A7000BDE8F08F00234FF0FF3089F8003003B00D
:105A8000BDE8F08F34100120441001203C100120AB
:105A9000214801003D1001204010012000B583B0D5
:105AA00002AB012103F8010D1846FFF773FF03B0A5
:105AB0005DF804FB38B50E4D0E4C286801232370A9
:105AC00028B1408800232370C0F1400038BD0A4B44
:105AD0001B7813B90020207038BD0420FFF730F97F
