:0200000460009A
:100000004643464200000156000000000103030081
:1000100000000000000000000000000000000000E0
:1000200000000000000000000000000000000000D0
:1000300000000000000000000000000000000000C0
:1000400000000000010408000000000000000000A3
:100050000000800000000000000000000000000020
:100060000000000000000000000000000000000090
:100070000000000000000000000000000000000080
:10008000EB04180A063204260000000000000000FD
:10009000050404240000000000000000000000002F
:1000A0000000000000000000000000000000000050
:1000B0000604000000000000000000000000000036
:1000C0000000000000000000000000000000000030
:1000D00020041808000000000000000000000000DC
:1000E0000000000000000000000000000000000010
:1000F0000000000000000000000000000000000000
:10010000D8041808000000000000000000000000F3
:100110000204180804200000000000000000000095
:1001200000000000000000000000000000000000CF
:10013000600400000000000000000000000000005B
:1001400000000000000000000000000000000000AF
:10015000000000000000000000000000000000009F
:10016000000000000000000000000000000000008F
:10017000000000000000000000000000000000007F
:10018000000000000000000000000000000000006F
:10019000000000000000000000000000000000005F
:1001A000000000000000000000000000000000004F
:1001B000000000000000000000000000000000003F
:1001C000000100000010000001000000000000001D
:1001D000000001000000000000000000000000001E
:1001E000000000000000000000000000000000000F
:1001F00000000000000000000000000000000000FF
:10020000FFFFFFFFFFFFFFFFFFFFFFFFFFFFFFFFFE
:10021000FFFFFFFFFFFFFFFFFFFFFFFFFFFFFFFFEE
:10100000D10020433110006000000000000000000B
:101010002010006000100060002C01600000000043
:0C10200000000060F83701000000000034
:10103000774B4FF42A01774A77482DE9F0475A64F5
:101040001864764A99639546754A03F530337549B5
:1010500008208A42C3F854010FD0734B9A420CD235
:10106000D4430846234423F0030304330B4450F8CD
:10107000041B984242F8041BF9D16C4A6C498A421D
:101080000FD06C4B9A420CD2D4430846234423F031
:10109000030304330B4450F8041B984242F8041B2A
:1010A000F9D1654A654B9A420BD2D04311460024D0
:1010B000034423F003030433134441F8044B8B42ED
:1010C000FBD15F4A4FF470015E4B116003F5307144
:1010D0005D4A43F8042F9942FBD15C4B80215C4A66
:1010E00003F8011B9342FBD15A4C4FF080375A4E04
:1010F0004FF0FF32DFF8A0A10025584BDFF89C919C
:10110000DFF89C81C3F800A0C4F80471C4F8009112
:10111000C4F8F470C4F8F080F3693D4923F07F030C
:1011200043F04003F361736A23F07F0343F040030D
:1011300073628A66CA660A674A6700F01DF9484A00
:101140006320484B4849106003221D60CAF83810DC
:1011500043F8082C4549464A4648C3F8082D0B6811
:10116000454A43F08073CAF83C0044480B6013685A
:10117000434943F00103136003680B6000F04CFB2C
:10118000C4F804713F48C4F80091C4F8F470C4F87E
:10119000F08000F0C5FCF16E3B4A41F440513B4BFE
:1011A000F1661560C2F80851C2F81851C2F828510A
:1011B000C2F838519A6BD20708D442F61562344906
:1011C00059651A659A6B42F001029A632F4A314CB5
:1011D000936843F00113936000F040F900F094FC31
:1011E0002368132BFCD900F0D7FB00F04BFC00F078
:1011F0008FFC00F043FB00F08FFC2368B3F5967F73
:10120000FBD300F091FC00F06FFC30BFFDE700BFA6
:1012100000C00A40AFAAAAAA0700200000000720C9
:1012200000000000641D006038F400000000002091
:10123000A01101603817002038170020C042062096
:1012400088ED00E0FC2B06205187000000E400E060
:10125000A0E400E000800D4000C00F4008ED00E079
:1012600014E000E018E000E0059A0000FCED00E06A
:1012700000002020099A0000001000E0041000E0A7
:10128000CC2106200046C3230040084000400D400A
:101290000000C056D4210620002C06201B10182068
:1012A0000C0D11132DE9F0412F4F00254269012447
:1012B000B96B4FF0020E16684FF4303821F47C0100
:1012C0000369DFF8B0C041F48021B9633168576821
:1012D000394331604FF00111244EC3F810E01D6115
:1012E000C3F848C05C629E624FF66106C3F82C806A
:1012F0009F6C1F651D6299651C61017E1C4B02EB92
:101300000111097A03EB011189680E60017E02EB7D
:1013100001110C7ACD6803EB041149680D60017E60
:1013200002EB01110C690CB149692160417E4FF655
:10133000610402EB011191F8281003EB0111896897
:101340000C60417E02EB011191F82840C96A03EB61
:1013500004135B681960437E02EB0312136B0BB13D
:10136000526B1A60BDE8F08100C00F40B80B050554
:10137000540300203B372819F0B5244A0020244BA1
:101380004FF0100C234C1126DFF8C8E01227206024
:101390000125C2F800C0C3F800E01660DFF8B8E02D
:1013A0001D4EC3F800E01D4917601E6041F0150195
:1013B0001B4F1C4E17601E601B4F1C4E17601E609B
:1013C0001B4F11601B4E1C491F6016601B4F19609C
:1013D0001B4E1C4917601E601B4F11601B4E1C49A1
:1013E0001F60166019602560BFF34F8FBFF36F8FCA
:1013F000C3F8B001BFF34F8FBFF36F8F52F8883C33
:1014000043F4403342F8883CF0BD00BF9CED00E05F
:10141000A0ED00E094ED00E009001000C0420620BD
:1014200013002000210002071400002025000813EB
:10143000090000101600202027000B1317000040A1
:1014400033001013180000602F000B071900007004
:101450002F000B133F00001025000803F0B58D4B43
:1014600018228D4E01208D4948F20C7E8C4D4FF094
:10147000FF378C4C83B0C3F85C12C3F86052002570
:10148000C3F86412C3F868424FF40054C3F86C62A6
:101490008549C3F87062C3F87462C3F87862834EFA
:1014A000DA661A675A679A67DA67C3F88020C3F862
:1014B0008420C3F8882040F20562C1F82C03C1F8EB
:1014C0003003C1F83403C1F83803C1F83C03C1F854
:1014D00050032946B36976481840764B0343764853
:1014E000B361D6F8843043F00C03C6F8843002268A
:1014F000036833430360036803EA0E0E6F4B4EEA42
:101500000303DFF8F0E103606D4B4760DEF808701D
:101510003B406C4F43F000538360C36823F0780373
:10152000C360036A1F40684B3B43664F0362036A14
:101530001F40654B3B43654F43628762C762DEF8DD
:10154000B830634F23F03F0343F00103C0F8B830D5
:10155000DEF8BC30DFF884E123F03F0343F0010301
:10156000C0F8BC30056104660767C0F88020446697
:101570004767C0F884200468564B24F00204564A9A
:101580000460C0F818E0C66143F8041B9342FBD125
:10159000494B1A68194642F001021A600B68464A24
:1015A00013F00103FAD14D4E022540F2F56440F2EA
:1015B000664040F299414A4F966142F20146D56138
:1015C00040F23545C2F8004242F20124C2F810024E
:1015D0000120C2F820121146C2F8307207F15A47B2
:1015E000C2F8346207F51377C2F840523D4E3E4DC3
:1015F000C2F85072C2F85462C2F86052C2F8644233
:10160000C2F8A030C2F8A430C2F8B0004B692A4A30
:10161000DD07FBD5012300244FF4803011465361D0
:10162000C2F8A040C2F8A400C2F8B0304B69224A08
:10163000DC07FBD5012300244FF400301146536131
:10164000C2F8A040C2F8A400C2F8B0304B691A4AF0
:10165000D807FBD501230024244811465361C2F862
:10166000A040C2F8A400C2F8B0304B69124ADB07B0
:10167000FBD5D2F8003145F60D5121209BB25061C7
:101680008B4239D01A4B00221A605A609A60DA6095
:1016900003B0F0BD00801F40F9700100F9B00100F7
:1016A000F9100100F900010000841F4000C00F4044
:1016B000FFFCFF1F000300A000402A401200FFFFB4
:1016C000FF37F70000FFF07C40000080FF000F8331
:1016D0006300020000422A4000432A40F05AF05AB8
:1016E0009F041830063201263806180A0400030049
:1016F0000028062000802A4000244FF48020012387
:101700001146C2F8A040C2F8A400C2F8B0304B693C
:101710003B4ADF07FBD501234FF4000400201146AC
:101720005361C2F8A040C2F8A400C2F8B0304B69BF
:10173000334ADE07FBD501234FF400044FF4803019
:1017400011465361C2F8A040C2F8A400C2F8B030FC
:101750004B692B4ADD07FBD501234FF400044FF4FE
:10176000003011465361C2F8A040C2F8A400C2F88C
:10177000B0304B69224ADC07FBD501234FF400044B
:10178000204811465361C2F8A040C2F8A400C2F834
:10179000B0304B691A4AD807FBD5D2F8003145F66C
:1017A0000D5121209BB250618B4210D0164B082264
:1017B0004FF400041A7015490020154A01230090C7
:1017C000521A1448224400F09BF903B0F0BD4FF4C4
:1017D00000044FF4802101231046C2F8A040C2F853
:1017E000A410C2F8B03043690549DB07FBD50120DE
:1017F000054B10224FF0807448611A70DBE700BF80
:1018000000402A4004000300D82106200000007098
:101810000000007000280620F0B4174A40274FF45B
:1018200080314FF480564FF400554FF4404443F25A
:101830004200136913F0020F06D094615161906168
:10184000136913F0020FF8D113F4005F01D1556151
:10185000EFE713F4805F01D15661EAE7002BE8DA85
:1018600013F4803F01D09161E3E75B0601D4576137
:10187000DFE7F0BC704700BF00800D403B4AF3EE4D
:10188000096A3B4900201368F0B523F001030324E3
:10189000DFF800E11360C2F89040D1F8E030354F36
:1018A000DDB2C3F30B24344EC4EB135307EE905A4E
:1018B000A5F15501CEF80050B8EEE77A03EB8305A9
:1018C00007EE904A03FB01F13B6003EB8313B8EE94
:1018D000E75A07EE901A491B77EE666AB8EE677A08
:1018E000264D07EE901A0B44C5ED006AF8EE677AB4
:1018F0003460C7EE265A224E15682249224C87EEE4
:10190000A66A07EE903A214BC6F84031F8EE677AA6
:1019100087EEA67A75EE855A76EE056AFCEEE55AF4
:10192000FCEEE66A15EE903A45EA035316EE905A3D
:1019300077EE057A136001EA0541D2F81031FCEE2A
:10194000E77A0B43C2F8103117EE903AD2F8101133
:10195000C3F30B030B43C2F81031136843F00203C7
:10196000136020700A4B01221A60F0BD80810D4087
:1019700000441F40E4210620E8210620E021062043
:10198000002C06200000FF0F40E400E0318800003A
:1019900008E100E0DC210620304B40F6617270B5B2
:1019A000C3F8202140F2044500F0C2F82C492D482C
:1019B000D1F880202C4C42F003022C4BC1F880203F
:1019C000C0F86051226813401BB9D0F8A8319A07BB
:1019D0001AD0244B4FF00041234A51631A46D3F8E2
:1019E000401141F00201C3F84011D2F840319B0789
:1019F000FBD44FF400301E491B4B4FF000420860EF
:101A000019209A6300F074F81A4D0022164B4FF01B
:101A10008041144C0A26996328461A601146C4F87E
:101A2000A8614FF4207200F067F84FF481064FF47C
:101A3000800040F24313104A10492E602864C4F815
:101A40005851C2F80412C4F848310D4A4FF400311D
:101A500001231160C4F8403170BD00BF00800D400B
:101A600000C00F4000002E4000900D40001C1E00E2
:101A70008CE200E000400620002C06209D8900003A
:101A80000CE100E0114B1249D86E0A4640F4403098
:101A900030B4D86640F23765D86EA02440F4407068
:101AA000D8664D648C64936C1B06FCD4094B40F2E1
:101AB0003760A0211A4658649964936C13F0800330
:101AC000FBD1054A137030BC704700BF00C00F4007
:101AD00000400C4000800C40D1240620F8B500BF27
:101AE000F8BC08BC9E4670475FF800F031A30000C8
:101AF0005FF800F0918200005FF800F09DBE0000EA
:101B00005FF800F005A500005FF800F069870000AD
:101B10005FF800F0998400005FF800F06D87000026
:101B20005FF800F0CD7F00005FF800F0C5B6000060
:101B30005FF800F05591000045000000C10B000067
:101B4000511C0000691C0000811C0000991C000051
:101B5000B11C0000C91C0000E11C0000F91C0000C1
:101B6000111D0000291D0000411D0000591D00002D
:101B7000711D0000891D0000A11D0000B91D00009D
:101B8000D11D0000E91D0000011E0000191E00000B
:101B9000311E0000491E0000611E0000791E000079
:081BA000911E00003128000035
:101BA80080C00F4000000003190000001000000072
:101BB800E8841F4001000000FF000000FF00000053
:101BC80000000000000000001800000010000000E5
:101BD800E4841F4001000000FF000000FF00000037
:101BE80000000000000000001F00000070C00F404F
:101BF800000C00001100000011000000E0841F40EC
:101C0800020000002C00000012000000E0841F40C9
:101C1800010000001000000011000000DC841F40DB
:101C2800020000002D00000012000000DC841F40AC
:101C3800010000001E00000070C00F40C00000003E
:101C48001200000013000000D0841F4001000000B3
:101C5800FF000000FF00000000000000000000007E
:101C68001300000013000000CC841F400100000096
:101C7800FF000000FF00000000000000000000005E
:101C88001C000000160355005300420020005300BA
:101C980065007200690061006C00000018035400C0
:101CA800650065006E0073007900640075006900C6
:101CB8006E006F000403090409024B00020100C012
:101CC80032080B00020202010009040000010202AE
:101CD8000100052400100105240101010424020665
:101CE80005240600010705820310001009040100FD
:101CF800020A0000000705030240000007058402ED
:101D08004000000009024B00020100C032080B002D
:101D18000202020100090400000102020100052478
:101D2800001001052401010104240206052406000F
:101D3800010705820310000509040100020A0000DA
:101D480000070503020002000705840200020000E4
:0C1D58000A060002EF0201400100010138
:101D6400000000000000000000000000000000006F
:101D7400000000000000000000000000000000005F
:101D840010B5054C237833B9044B13B10448AFF3B1
:101D940000800123237010BD3817002000000000CC
:101DA40034F40000084B10B51BB108490848AFF3E0
:101DB40000800848036803B910BD074B002BFBD013
:101DC400BDE81040184700BF000000003C17002089
:101DD40034F4000038170020000000000160704750
:101DE400006803681B691847006803681B68184784
:101DF400FFF7FABF0346042210B4416053F8040B02
:101E04000468194663685DF8044B184710B5044626
:101E1400206803681B6998470028F9D02068036884
:101E24005B699847C0B210BDFFF7F0BF10B5044618
:101E3400206803681B6998470028F9D02068036864
:101E44005B6998472071206803681B6998470028DC
:101E5400F9D0206803685B6998476071A08810BD59
:101E640010B50446206803681B6998470028F9D018
:101E7400206803685B6998472071206803681B69C0
:101E840098470028F9D0206803685B699847607117
:101E9400206803681B6998470028F9D02068036804
:101EA4005B699847A071206803681B6998470028FC
:101EB400F9D0206803685B699847E071606810BDD9
:101EC400006803685B68184700680AF0C7B800BF79
:101ED400FFF7FABFA2B12DE9F041174606460D1FE0
:101EE40000F10408002401340422414630680AF059
:101EF400B5F87368A74245F8043FF4D1BDE8F08112
:101F0400704700BF00207047704700BF4FF0FF309C
:101F1400704700BF704700BF044B10B5044640F83B
:101F2400103B05F089FE204610BD00BF08000020CC
:101F340010B504460AF01CF8204610BD2DE9F04FF8
:101F4400B74C23782DED028B83B0002B00F0B580C5
:101F5400B4490B78002B00F0F780B34BDFF850B393
:101F64001B78002B00F034819BF80030002B00F02C
:101F7400E981AE4DAE4E2B78002B00F0F981AD4ACD
:101F84003768AD4B02EB87000246B0F93804B2F96A
:101F94003A2418805A800137DFF818C33760A74FF6
:101FA4003E78002E40F06F8207EE900AA44EA548BA
:101FB400B8EEE77A07EE902A3288DFF8FCE2F8EE12
:101FC400E77A00EB8200BEF800E0D0ED006A27EE6D
:101FD400267A013267EEA67A92B2BDEEC77AFDEE9A
:101FE400E77A7245328017EE108A17EE900AA3F84A
:101FF4000080588000F05D829348944A90F800A0D5
:1020040028784FEA4A0E924D0EEB0006914F55F890
:1020140026502E4600953D6806F6B8360135B54281
:102024003D6000F00182DCF80060DFF88882B6F5DC
:10203400FA4F12D1DFF8849299F8006001960026D5
:10204400C8F80060019EDFF87882C6F1010689F8BD
:1020540000604FF0010688F80060DFF868827E4E69
:1020640096F80090D8F800600136C8F80060B9F11D
:10207400000F00F0CA81794951F82A1089B1DFF8BC
:10208400488298F80080B8F1000F00F03982DFF838
:102094002882B8F800806FEA080841448E4200F0B4
:1020A400518270446E4951F820108D4200F0118223
:1020B4002178107881F0010114E06A4A117851B155
:1020C40069480168242940F2A48068494FF400005B
:1020D400C1F884001370664B197829BB5B4A01214F
:1020E400554B1078217040B14E490020614E604C30
:1020F4000125087010703060257023F01F035E49BD
:10210400BFF34F8F5D4A136020339942FBD8BFF36E
:102114004F8FBFF36F8F5A4A5A4B1279DA7703B055
:10212400BDEC028BBDE8F08F524E30682A2840F295
:10213400CF804E484FF400060025444AC0F888601A
:102144001D7010783C4BCDE74F4B197800295BD0BC
:102154004E4901254E480A780570002A00F0C680D1
:102164004C4D4D4E4D4ADFF864E14D4F96ED006BFA
:1021740095ED007B167837EE067B012EFCEEC76BDF
:1021840085ED007BCDED006ABDF800204FEA520CCE
:102194003A80AEF800C000F0A180002E40F0A38089
:1021A400404E3688B24200F29E8007EE906A0022CA
:1021B4003E80B8EE677B0A7085ED007B002E40F010
:1021C40095801E700021214A1B4B0170107889E70D
:1021D4009BF80030002B00F09F801B4A324B92F892
:1021E40000A0134E13F80A30002B40F0CE802F4A83
:1021F4003068114B52F820201A6001300B4DDFF883
:10220400B4C03060114AFBE60B4B104A19601078D9
:1022140068E70131164B01601978002984D15DE724
:10222400D11B062022380020253900203118002037
:10223400FC38002048A523205417002059170020FB
:1022440014380020D4180020F13E0020203800204B
:102254008C3900207C3900203C3800202C390020A7
:1022640084170020581700200839002000800042FD
:1022740050270420781700205817002070EF00E042
:10228400C01B062000800E40D01B0620323A0020DE
:10229400550C00205827042028180020F03E002068
:1022A4008017002024380020D41B062000002020A2
:1022B4000C39002080390020580C0020333A0020CB
:1022C40064270420383800202C3A0020F426042007
:1022D400451CA34AA34B1078356003E7A24E368809
:1022E400B242BFF462AF002A3FF46CAF9F4B1B783D
:1022F400002B00F00B81012B5AD09D4A9D4BB2F963
:102304000050B3F90000974B2178954A588081F02A
:1023140001011D801078E5E6974BDFF8B8C21B7801
:10232400002B3BD19548DCF800208E4B50F822005E
:102334001860501C924E934D96F800A0884ACCF831
:1023440000005DE68C4BDFF88CC21B7873BB8B4AB4
:10235400DCF80050834B6800461C32F9100032F957
:1023640016206E1C18805A80864DCCF8006016E644
:102374003768854A78007B4B00F1010E32F9100072
:1023840032F91E2018805A8005E6804A3068754B61
:1023940002EB8002D2F838241A602EE77C48DCF87D
:1023A4000020704B50F822001860C2E7784ACFE74B
:1023B400784E96ED008BB0EE480B09F09DFF764BFE
:1023C4006B491B886B4A07EE103A744BB8EEC77B17
:1023D40027EE000BB6EE007BB5EEC00BF1EE10FA63
:1023E400ACBF30EE070B30EE470BFDEEC07BCDEDFE
:1023F400007ABDF9005093ED007B28460D801580CE
:1024040037EE087B86ED007B7DE7654E70443678B9
:1024140026BB644E56F82060B5427FF449AE20785E
:1024240080F00100207060E6DFF84C814FF0000975
:1024340098F800608BF80090C6F10106DFF88891E7
:10244400019640F6B836CCF800609DF8046088F830
:1024540000604FF0010689F80060FEE5514E524FCE
:1024640056F820603888301A01388542D4D10120CA
:10247400DFF85CE1DFF838C14C4F8EF800003870AB
:10248400ACF80090C8E707EE900ADFF81CE1484E6C
:10249400B8EEE77ABEF800E007EE902A32884548A5
:1024A400C2EB0E08F8EEE77A00EB880050ED016A03
:1024B4008DE538780022404E3C4F32703A70002847
:1024C4003FF49AAD264A01262D48167090F800A0D4
:1024D40096E500990120394D8E003960384955F848
:1024E4002A7000250E60374E29468BF800003760AD
:1024F400214F354E38703070CCF800501078F1E52B
:102504008E427FF6CEAD01211170CAE5224F0BF049
:10251400C7FB2E4E3B883288154D90FBF3F101FB2F
:102524001300831A2B800BF0BBFB3B883188114AC4
:10253400B5F9005090FBF3F606FB1300401A00B205
:102544001080E0E64FF001081849214E4FF00009D1
:1025540081F80080164986F80080A1F80090A0E573
:10256400203800205417002024380020681B06203F
:102574002E3A0020303A0020333A0020F43E002066
:10258400F13E0020311800200000202048A523201F
:10259400F432022000390020801700203038002057
:1025A4002C3A002084170020580C002025390020E4
:1025B40014380020D41800202D3A0020F8260420D6
:1025C4006C1B0620FC38002064270420F426042019
:1025D400591700208039002010B5044609F086F808
:1025E400204610BD10B40123044C05480021054ABF
:1025F4002370037011805DF8044B70472539002067
:102604005917002014380020024BD3F88C040368B7
:102614009B681847343A0020836C13B1184604F0C1
:102624000DB8C06C08B102F0B5B94FF0FF30704777
:10263400826C62B1137803F0080303F0FF000BB35C
:10264400D3695069181A48BF6FF000407047C16CD5
:10265400C9B191F8313003F0080303F0FF008BB1E6
:10266400D1E90423D1E9000130B4101A4FF0000578
:102674006FF0004463EB01018D4208BF844200D235
:10268400204630BC70470846704700BF836C13B1C6
:10269400184604F035BAC06C08B102F045BE704764
:1026A400836C13B1184604F06DBAC06C08B103F022
:1026B4008BB8704700B5836C83B08DF8071043B1B5
:1026C400184601220DF1070104F05CFA03B05DF82D
:1026D40004FBC06C0028F9D001220DF1070103F0BE
:1026E40073F803B05DF804FB836C00B583B063B189
:1026F400184601220DF1070103F0D2FE01280CD186
:102704009DF8070003B05DF804FBC06C28B10122FA
:102714000DF1070102F064F8F0E74FF0FF30F1E744
:102724001C491D4BCA6F42F44022CA679A68002AAA
:102734002FDBD3F88820002A2BDB012201F57C2132
:102744004FF48030F0B50326144D00244FF0844E2E
:10275400C1F82861124FC1F824614FF00076C5F822
:1027640090211049C5F8A4210F4D1C66DA60C3F806
:1027740010E058619F61D961C3F8E040C3F88C2030
:10278400C3F89060C3F89400C3F89850C3F89C1041
:10279400F0BD704700C00F400040384000841F4027
:1027A4001B1F0100001F1F1F1A1F0100F8B5254C35
:1027B4000121254D40F201162046244F08F046FF22
:1027C400FFF7AEFF224B032102226FF00300DFF874
:1027D4009CE0C3F8801100212368DFF894C01D60D9
:1027E40001259A80DE80D86026791A48DA829A60B8
:1027F400DA8399619A839982C3F810E0164A40F803
:10280400261040F8267015492379154ED37603F027
:102814001F02D1F8880003F1100705FA02F25B11D8
:1028240040F01040DFF84CE0C1F888000D48C1F8D2
:1028340008C046F827E00C4940F8232023795D546A
:10284400F8BD00BFC01B06205417002014000080F0
:1028540000801F4000C00E4000800E400040384001
:10286400002C062000E100E000E400E022403840B3
:1028740001000090DD01000028B1012802D10348C5
:10288400FFF7D2BA70470248FFF7CEBA8439002066
:10289400C81B062028B1012802D10348FFF7C6BA95
:1028A40070470248FFF7C2BA84390020C81B0620CB
:1028B40028B1012802D10348FFF7D2BA7047024871
:1028C400FFF7CEBA84390020C81B062010B5124C7D
:1028D40041212046FFF78CFA20460121FFF78AFAAE
:1028E40020460421FFF784FA042220460B49FFF70F
:1028F400E7FA20460121FFF77BFA20462321FFF760
:1029040077FA20461421FFF773FA20460021BDE828
:102914001040FFF76DBA00BF84390020500C00202E
:10292400F8B5264D0024264901272A4625480AF0F1
:10293400DBFB254E254B0721DFF8C0E02A46C3F810
:10294400906429262248C3F8A4E4C3F89C041846DA
:10295400C3F8A81483F8B17483F8B364C3F880444B
:10296400C3F8844483F8984483F8994483F8B644BC
:1029740018490AF0B9FB184B4FF47A71174E184FE7
:10298400184699602A461C711C739C64DC641549C2
:102994001F600AF0A9FB2146304608F057FE2A467C
:1029A400304611490AF0A0FB10491148FFF716FA06
:1029B40010491148BDE8F840FFF710BA400C002058
:1029C400D1010000440C0020E0020020343A002031
:1029D40088020020B5010000701B0620C01B0620E1
:1029E4002C000020B901000079080000780D0020B7
:1029F400C81B0620140D00208439002000093D0066
:102A040070B50B4C430001251646204684F83D3032
:102A140084F8605084F85F5006F09EFF31462046EB
:102A240006F09AFF29462046BDE8704007F074B8C6
:102A34006C0C0020F0B51F4C9FB004F130076E46BB
:102A44002068103454F80C1C354654F8082C103601
:102A540054F8043CBC420FC5F2D1174F0DF13C0EA3
:102A64002068616807F13005A26807C63868103726
:102A740057F80C1C744657F8082C0EF1100E57F832
:102A8400043CAF420FC4F1D10DF13B0538687968BD
:102A94000DF1FF34BA682E46AEE8070014F8011FA2
:102AA400622015F8012FFFF7ABFFB442F6D11FB037
:102AB400F0BD00BF480000208400002008B50121BB
:102AC400212007F053FB012007F092FA0021212076
:102AD40007F04CFB012007F08BFA0121212007F0BD
:102AE40045FB0A2007F084FAFE2210214C20FFF750
:102AF40087FFFE2211214C20FFF782FFC022122102
:102B04004C20FFF77DFF002213214C20BDE8084034
:102B1400FFF776BFF0B54FF47A7195B06D48012494
:102B240009F09AFA01211E206B4F07F025FB0121C1
:102B340021206A4E07F020FB00211E20684D07F07B
:102B440015FB0021212007F011FBFFF72FFE65483C
:102B54000EF012FB002201216020FFF751FF624BAF
:102B6400022160201A783F2A28BF3F22FFF748FF3E
:102B7400FFF760FFFFF7A2FF5C4B5D4900225D4851
:102B84001C7008F0D9FE00234EF6602E19465A4AEE
:102B94005A4C5B481A4447F8041F01F6B8311C44E8
:102BA4001844714546F8043C45F8042C134646F88D
:102BB400084B45F8080BEAD1524C4FF0000104F5DC
:102BC4009265284606F054FA2846C4F88C5405F059
:102BD400C3FD20B9D4F88C14204605F0F7F8D4F8D6
:102BE4008044484B002C4CD00026214601236846E3
:102BF400454A6D468DF800608DF801608DF80260DD
:102C040003F018FC002838D1284640F202233E4A3B
:102C14003C4905F041F93D4D029A04A99DF80C3058
:102C240005F110009DF80440AA602B732C7105F087
:102C340017F8374B04A8009304F0FEFFA86C002893
:102C440035D0344903F004FC334C02E0FFF7DCFCDC
:102C540010B12378002BF9D1304B314A1978314B1C
:102C6400525CA86C02EB4102284C53F822108900F4
:102C740028B303F039FE15B0F0BD684604F084FAB9
:102C8400C2E7D3F884146D460029BDD001231E4A3F
:102C940068468DF831408DF832408DF8334002F0AB
:102CA40085F90028B0D0684602F0F0F9ACE7E86C8A
:102CB4000028C9D0174A002302F074FCC4E7E46C6E
:102CC400002CD8D003460A46204601F079FE15B000
:102CD400F0BD00BF780D0020F426042090390020B8
:102CE400881700206C0C0020560C00201838002097
:102CF400F4061400140D002000E4570000DD6D00FC
:102D040000C1C500343A002010010020701B0620C9
:102D1400080000200080EE3624390020F13E002017
:102D2400D41B06208C3900202DE9F04F3E4B95B082
:102D34009C46186859686C469A680DF1100B9E46BB
:102D44001D465F46B3F80C800DF1200AE94607C41E
:102D54005CF8100F5646A4F800800CACDCF80410A4
:102D6400DCF80820BCF80CC0DFF8C88007C753F8AB
:102D7400200FA7F800C059689A689B892B4F07C693
:102D84005EF8300F3380DEF80410DEF80820BEF859
:102D94000C600DF1400E07C42680002455F8400F46
:102DA400234E6968AA68B5F80CC04BF68035AEE8C6
:102DB4000700AEF800C00FE0BB4224D0434506D163
:102DC40010AB622099F800101A5DFFF719FE013468
:102DD40009F101090E2C13D03368AB421BD0EBD898
:102DE4004AF644429342F2D11BF80420013499F884
:102DF40000106220FFF704FE0E2C09F10109EBD14B
:102E040015B0BDE8F08F0CAB622099F800101A5D84
:102E1400FFF7F6FDDBE71AF80420622099F80010AA
:102E2400FFF7EEFDD3E700BFC000002000770100EC
:102E34004C0C002000EE020010B5C44310214C20BD
:102E4400E4B22246FFF7DCFD224611214C20BDE806
:102E54001040FFF7D5BD00BF20B1C0220121602082
:102E6400FFF7CEBD024601216020FFF7C9BD00BFB8
:102E7400F8B5344D2978002950D001294CD1324875
:102E840008F092FC0028FAD02F4808F0A1FC297819
:102E94002E4C0129207049D023782D4AD25C002A77
:102EA40039D02C4900242C480122CE5C2B4906EB56
:102EB4004305DFF8F8C0C95C50F82550091B8CF8AD
:102EC4000060274E4FEA850E18BF0121254F35605B
:102ED400254D57F823702970244B254E254D26493E
:102EE400264837602A700A70C3F800E0244F254E44
:102EF400254D264903783A7032702C600C6043B932
:102F040023490978B1B923490124234B00220C70C9
:102F14001A6001230370F8BD0C4CBDE71F48FEF78F
:102F240083FF2978094C01292070B5D1064808F09F
:102F3400CFFEB1E71A4D1B4C1B492A7023700B803E
:102F4400E1E700BFF6260420140D0020F13E002026
:102F540040380020D41B06208C3900206417002040
:102F64007C390020F82604203C3800206C1B062005
:102F7400FC380020333A0020642704202238002043
:102F84000C390020D11B062080390020383800205D
:102F94002C3A00205817002008390020C81B0620AE
:102FA400253900205917002014380020311800203A
:102FB40008B51F4808F0F8FB00281EDD1C4808F07F
:102FC40007FC1C49C0B21C4A012350280870137026
:102FD40021D013D9582817D0782823D1144808F0C1
:102FE400E3FB0028FAD0124808F0F2FB134BC0B2FE
:102FF400134A1B781070834206D008BD2A2810D1CA
:10300400104B00221A7008BD0F4B1B785BB90F4B95
:1030140001221A7008BD0E4A1370BDE80840FFF77C
:1030240027BF08BD08BDBDE80840FFF7DBBA00BFF5
:10303400140D002048270420F6260420F13E002029
:1030440030180020512704202C3A0020203800207A
:1030540016380020000000002DE9F04FA04C00239A
:10306400A04D83B026782B70002E00F0A4809E4BD8
:103074001B7823B19D4E3378002B40F0DF802378FA
:103084003BB1DFF8D8929A4BD9F800201B689A42DA
:1030940002D303B0BDE8F08F40F2AF4295499648A1
:1030A40008F006FF924BD9F800201B68013B9342BD
:1030B40000F00C81914B1A4601934FF4FA331360DC
:1030C40008F0DCF90028FBD08D4D4FF0000B019B7C
:1030D400D5F80080D3F800A08A4E8B4F06E029680B
:1030E400B868C8EB0101814280F0F881CBEB0A019A
:1030F40006EB0B0008F02AF98344834BDA45EED83B
:10310400824E834DC6F800B002E0FFF77DFA10B19D
:103114002B78002BF9D1DFF800827E4FD8F84800D5
:103124003968002800F0778203F0DEFB02E0FFF745
:103134006BFA10B12B78002BF9D1019BD8F8480019
:103144001A68754B002800F0CC816E4903F01AFD13
:1031540002E0FFF759FA10B12B78002BF9D1D9F816
:1031640000507DB96D4B6E4A1B78D35C002B40F048
:10317400C9816C4B42F6E0626B481B686149184494
:1031840006F03AFD019B31681A683B688A42134491
:103194003B6002D0654B00221A70554B01351B6809
:1031A400C9F800509D4200F04282534803B0BDE884
:1031B400F04F08F0DDBE5E48FEF712FE002836D15F
:1031C4005C4808F0F1FA002800F39381287800287D
:1031D4003FF44DAF4D2800F04C8300F2C1804628E7
:1031E40000F0238300F2DB802D2800F0D68240F229
:1031F4008382412800F0B88145287FF438AF4E4BD4
:103204001B78002B7FF433AF4948FEF70DFE021CF8
:103214004A4B4FF0010118BF012245481A70FEF7CE
:10322400E7FD00234649474A0B8013701FE74048D7
:10323400FEF7FAFD404B28701E70C8E740F2AF421B
:103244002C492D4808F034FE0023314D337002E040
:10325400FFF7DAF910B12B78002BF9D1DFF8B88039
:10326400394CD8F848002168002800F0128303F094
:103274003BFB02E0FFF7C8F910B12B78002BF9D122
:10328400324B1B78012B00F0BA81D8F84800224B4E
:10329400002800F0AA814FF4FA322D4903F000F916
:1032A40002E0FFF7B1F910B12B78002BF9D1294BCB
:1032B4001A781AB9226802F5FA32226000220E48FE
:1032C4001A7003B0BDE8F04F08F052BE224B1B68E1
:1032D400002B3FF4EFAE094A01921360F0E600BF01
:1032E40017380020482704202238002064270420AF
:1032F4002839002051120000440C00201C38002002
:10330400D421062068270420780D00205C170020B3
:103314002439002028380020701B06202138002082
:10332400D41B0620EC3E002080A923205127042032
:10333400C81B0620140D0020F62604202C3A002079
:1033440014380020591700206C1B0620333A002043
:10335400F4320220163800204C2704206027042071
:10336400572800F0298240F28E80782800F0E1800E
:1033740000F2D280582800F0EB805A287FF477AE10
:10338400B94B1B78002B7FF472AEB848FEF768FD8A
:10339400B74B01211860B548FEF72AFD67E64828B7
:1033A40000F02E82C0F01382492800F0F8804C28E7
:1033B4007FF45DAEAC4B1B78002B7FF458AEAD4B65
:1033C4000127DFF820831F7008F098F8AA4BC6B2D3
:1033D400DFF804939D5D132E89F80060A7EB0505C3
:1033E400EDB288F800503FF642AEA04805EB460522
:1033F400FEF736FD99F8001098F800304FF4FA32D1
:103404009E4E03EB4103DFF8E0E246F8250056F850
:1034140023509B48AE00277050F82110002707EE78
:10342400906A98488900DFF8C4C2B8EE675B01600F
:1034340095499FED896B51F82300C82185EE067BE1
:10344400054480004EF82350DFF8A4E28F4D4EF877
:1034540023608F4B28601F60DFF898E28D4D8E4803
:10346400BBFE477BFCEEC77B17EE903ACCED007AAF
:1034740002FB1362BA4218BF0133CEF800202B605E
:1034840008F0EAFDF3E54F2800F07C81C0F052819A
:10349400502866D053287FF4EAAD734B1B78002B79
:1034A4007FF4E5AD7D4D7148FEF7DAFC2860FFF747
:1034B4003BFC95ED007A7A4A0121B8EE477B794BC3
:1034C4006A4892ED004B9FED665B87EE046B85EED8
:1034D400067B83ED007BFEF78BFCC8E501221A73A3
:1034E4000EE6D86C00283FF437AE6F4902F06CF951
:1034F40032E66E4808F06CF95B4BC0B201222870CA
:103504001A7064E65F4B42F6E06269481B686649DC
:10351400184406F071FB35E6F32836D0FF287FF413
:10352400A6AD514B1B78012B7FF4A1ADFFF7CEF96B
:103534009DE54D4B1B78002B40F0C0814B48FEF7B6
:1035440073FC5C4B18705C4B1B7883427FF48FAD2B
:103554005A4B1B78002B40F0DB81594B01221A7027
:1035640085E5FFF785FC82E53F4B1B78002B7FF454
:103574007EAD3E48FEF758FC524B1870FFF75CFCDA
:1035840001213A48FEF734FC71E5374B1B78002BD8
:103594007FF46DADF4213548FEF72AFC67E5324B24
:1035A4001B78002B7FF463AD474B30481978FEF746
:1035B4001FFC10212D48FEF71BFC14212B48FEF79D
:1035C40017FC404B29481978FEF712FC334B274867
:1035D4001968FEF70FFC1E212448FEF70BFC4FF47C
:1035E400FA612248FEF706FC41E5D86C00283FF456
:1035F4005BAE4FF4FA32354901F0F2F854E6D8F8EC
:103604004800334B002800F04F814FF4FA3231491F
:1036140002F046FF48E6D8F84CE0BEF1000F3FF454
:1036240089AD03460A46704601F0CAF982E52A4B81
:103634000122104800211B78284E294D0078217062
:10364400F254EA5407F06AFF07F0B0FF4FF47A71BE
:10365400114808F001FDA8E5000000000040FF400B
:10366400112D4454FB211940F6260420C81B0620C2
:103674005438002051270420D41B06205838002039
:10368400F8260420EC3E00208C3900202838002045
:103694006027042028390020780D00204C0C0020DD
:1036A400600C00203038002068270420140D00200E
:1036B4000000202030180020F13E00202C3A002089
:1036C400203800205A0C002018380020F432022040
:1036D400701B0620F43E0020213800201039002001
:1036E40040380020F838002084170020601700209C
:1036F400341800204C2704202A287FF4B8AC904BBF
:103704000025904A03F1140013F8011F21B1117828
:103714001D70C1F101011170984202F10102F3D14F
:10372400894B1B78002B7FF4A2AC01218748FEF75C
:103734005FFB9CE4844D2878FFF7ACF8844A854904
:103744001378088023B9844B00260027C3E9006757
:10375400824B1B68002B40F0B88007EE900A80492A
:10376400804F4308B8EE677B7F4E3880338081ED0D
:10377400007B002840F0D08010702B78002B7FF461
:1037840076ACD2E7704B1B78002B7FF470AC14221C
:1037940076496E48FEF79CFBC7E76B4B1B78002B02
:1037A4007FF465AC142272496848FEF793FB01214B
:1037B4006648FEF71DFB5AE4634D2878FFF75CF872
:1037C4006C4A2B781070002B7FF451ACADE75E4B44
:1037D4001B78002B7FF44BAC5C48FEF725FB3F289D
:1037E4000346654D02464FF0020128BF3F22602088
:1037F4002B70FFF705F901215448FEF7F9FA36E476
:10380400514B1B78002B7FF432AC5048FEF70CFB75
:10381400031C5A4A18BF012318461370FFF71CFBF8
:1038240001214A48FEF7E4FA21E4474D2878FFF7DE
:103834003FF807EE900A524AB8EE673B2B7892EDB8
:10384400007A504DB8EE477B4F49504A28609FEDAF
:10385400385B9FED394B83EE056B87EE065B81ED9C
:10386400006B84EE057B82ED007B002B7FF4FFABC5
:103874005BE7354B1D78002D7FF4F9AB3348FEF739
:10388400D5FA434BB0F5FA6F188048D88200414905
:103894007FE7D8F84C60002E3FF4EFAC03460A46AD
:1038A400304601F08DF8E8E4D86C00283FF4FCAC15
:1038B4004FF4FA32384900F093FFF5E4374807F043
:1038C40087FF374BC0B218703DE6264907EE900AD1
:1038D400344F0988B8EE676B07EE903A012305EE82
:1038E400901A8842B8EE677B1370B8EE655B1C4E85
:1038F40094BF002001202C4A36EE456B2B493870CA
:103904000B7086EE074B86ED005B82ED004B34E7CF
:10391400FEF768FEFFF7ABBB012313702DE72946C2
:103924000A48FEF765FAFFF7A2BB00BFAFF30080B9
:103934000000000000408F40112D4454FB21194029
:103944000F390020D41B0620F6260420C81B0620AD
:10395400D01B0620243800200039002054380020D1
:103964005827042080170020F42604206417002020
:103974002C390020681B0620560C002052270420F6
:103984004C0C00207C170020600C002030380020F4
:10399400580C0020D4180020F43E0020140D002000
:1039A40030180020F03E002028180020323A002071
:1039B400024A0349034809F097BB00BF400C0020AA
:1039C40079080000E81B0620024A0349034809F06D
:1039D4008BBB00BF400C002079080000F01B0620C0
:1039E400024A0349034809F07FBB00BF400C002092
:1039F40079080000F81B0620024A0349034809F02D
:103A040073BB00BF400C002079080000001C062096
:103A1400024A0349034809F067BB00BF400C002079
:103A240079080000081C0620024A0349034809F0EB
:103A34005BBB00BF400C002079080000101C06206E
:103A4400024A0349034809F04FBB00BF400C002061
:103A540079080000181C0620024A0349034809F0AB
:103A640043BB00BF400C002079080000201C062046
:103A7400024A0349034809F037BB00BF400C002049
:103A840079080000281C0620024A0349034809F06B
:103A94002BBB00BF400C002079080000301C06201E
:103AA400024A0349034809F01FBB00BF400C002031
:103AB40079080000381C0620024A0349034809F02B
:103AC40013BB00BF400C002079080000401C0620F6
:103AD400024A0349034809F007BB00BF400C002019
:103AE40079080000481C0620024A0349034809F0EB
:103AF400FBBA00BF400C002079080000501C0620CF
:103B0400024A0349034809F0EFBA00BF400C002001
:103B140079080000581C0620024A0349034809F0AA
:103B2400E3BA00BF400C002079080000601C0620A6
:103B3400024A0349034809F0D7BA00BF400C0020E9
:103B440079080000681C0620024A0349034809F06A
:103B5400CBBA00BF400C002079080000701C06207E
:103B6400024A0349034809F0BFBA00BF400C0020D1
:103B740079080000781C0620024A0349034809F02A
:103B8400B3BA00BF400C002079080000801C062056
:103B9400024A0349034809F0A7BA00BF400C0020B9
:103BA40079080000881C0620024A0349034809F0EA
:103BB4009BBA00BF400C002079080000901C06202E
:103BC400024A0349034809F08FBA00BF400C0020A1
:103BD40079080000981C0620024A0349034809F0AA
:103BE40083BA00BF400C002079080000A01C062006
:103BF400024A0349034809F077BA00BF400C002089
:103C040079080000A81C0620006910B103689B6AAB
:103C140018477047006910B10368DB6A184770479A
:103C2400006910B103681B6918477047006910B137
:103C340003689B6918474FF0FF307047006910B163
:103C44000368DB6818477047006910B10168096BA5
:103C54000847704710B4006920B10468616B5DF8CF
:103C6400044B08475DF8044B704700BF006910B16E
:103C740003689B6B1847002000217047006910B14E
:103C84000368DB6B1847002000217047006910B1FE
:103C940003681B6C18477047006910B103685B6CBC
:103CA40018477047006910B103689B6C18470148B6
:103CB400704700BF2C020020006910B10368DB6C60
:103CC4001847704738B50B6904462BB11D6819466F
:103CD4002B6D9847204638BD4FF47A70064A2371FD
:103CE4002373A06022600B692361002BF2D01A6950
:103CF400204601321A6138BD5C010020006910B110
:103D040003685B6D18477047006980B1036801223E
:103D140000B583B09B6A0DF10701984720B19DF867
:103D2400070003B05DF804FB4FF0FF30F9E74FF0F4
:103D3400FF30704710B582B00468012202AB03F86B
:103D4400011D1946E36A984702B010BDC36D0BB15B
:103D540001207047006E003018BF0120704700BF7B
:103D640010B50446406E18B109F08CFB002363665D
:103D740004F12400BDE8104003F05EBF10B5044612
:103D8400064907482369224608F03EF9206920B114
:103D94000368BDE810405B6A184710BD1402002098
:103DA400780D0020024602490248136908F02CB934
:103DB40030020020780D00202DE9F041002394B05A
:103DC4004FF47A74264F1A460546243104A88DF818
:103DD40004308DF80C30129313930294009703F07F
:103DE400C3FF129B002B31D06820002608F058F93D
:103DF4009DF8043004461B4A4FF47A782430237625
:103E040004A9029B2260E361174A9DF80C306261A9
:103E140084F82030267126732661C4F8088003F0E4
:103E2400C9FE2369114A0133676166662E71C5F8BC
:103E340008802E732C6123612A600D4B04A8009323
:103E440003F0FAFE284614B0BDE8F081139B002B62
:103E5400CAD1064A2B71AC602B732B612A60ECE744
:103E64002C000020BC010020380100205C0100204F
:103E740008000020C26D62B1137803F0080303F058
:103E8400FF000BB3D3695069181A48BF6FF00040A4
:103E94007047016EC9B191F8313003F0080303F0A3
:103EA400FF008BB1D1E90423D1E9000130B4101A29
:103EB4004FF000056FF0004463EB01018D4208BF31
:103EC400844200D2204630BC70470846704700BF89
:103ED400C36D13B1184602F0B1BB006E08B100F017
:103EE40059BD4FF0FF307047C36D13B1184602F04F
:103EF40007BE006E08B101F017BA704738B5446EBA
:103F04000CB1204638BD05464FF4807009F0B2FA72
:103F14000146686680B1E86D0C7028B14FF4807278
:103F240002F076FF6C6EECE7286E40B14FF48072BD
:103F340000F06EFB6C6EE4E7024C6C66E1E70C4645
:103F4400DFE700BFB01C0620C36D9BB11A7812F0E6
:103F5400700F00D1704710B504460021184602F0D6
:103F6400C3FC206E28B100220023BDE8104000F0FD
:103F740027BD10BD006E0028ECD090F8313013F04E
:103F8400500FE7D00022002300F01ABDD0B5C46D55
:103F94008CB1012B08BF002A01D30020D0BD1146EB
:103FA400204602F0A1FC0028F7D0204602F0AEFD26
:103FB4000028F2D0D0BD046E002CEED0204600F0D4
:103FC400FFFC0028E9D02046BDE8D04001F08ABBC0
:103FD400C36D13B1D86900217047036E13B118691A
:103FE4005969704718461946704700BFC36D13B12D
:103FF400586900217047036E13B193E803007047BA
:1040040018461946704700BFC36D13B1184602F035
:1040140047BA006E08B100F0E3BB4FF0FF307047C1
:10402400C36D33B11B7813F0700F14BF012000204F
:104034007047006E30B190F8313013F0500F14BF58
:1040440001200020704700BFC36D13B1184602F071
:1040540099BD006E08B101F0B7BB7047D0B4039CA2
:1040640016461F4634B1012C1ED0022C0DD0002060
:10407400D0BC7047C46DDCB1012B08BF002AF6D256
:1040840020461146D0BC02F02FBCC36DB3B1DA692F
:10409400B61847F10007012F08BF002EE7D23146BA
:1040A4001846D0BC02F020BCC36D93B15A69EFE747
:1040B400006E0028DBD0D0BC00F082BC036E002B65
:1040C400D5D01846D3E9042392197B41D0BC00F023
:1040D40077BC036E002BCAD01846D3E9002392198B
:1040E4007B41E8E7084B026910B50446036042B11E
:1040F4001369013B136123B9006910B103681B6A9A
:104104009847204610BD00BF5C01002038B5154A11
:104114000446C36D00F124050260F3B1284603F0A0
:104124008BFD606E08B109F0ADF90F4B2846636151
:1041340003F082FD0D4B2269236042B11369013BF8
:10414400136123B9206910B103681B6A984720469C
:10415400682107F0A7FF204638BD036E002BDDD190
:10416400DFE700BFBC010020080000205C01002044
:104174000A4B026910B50446036042B11369013B5E
:10418400136123B9006910B103681B6A984720467C
:10419400142107F087FF204610BD00BF5C010020FA
:1041A40038B5134A0446C36D00F124050260D3B147
:1041B400284603F041FD606E08B109F063F90D4B28
:1041C4002846636103F038FD0B4B2269236042B13A
:1041D4001369013B136123B9206910B103681B6A99
:1041E4009847204638BD036E002BE1D1E3E700BFBA
:1041F400BC010020080000205C01002070B440F2E3
:104204000125046825611BB31E46F1B10D78013107
:10421400013B6566256FAD0706D4656F013EEDB2BF
:1042240012B11570013204686569ED07F2D5002BEF
:10423400EBD16EB101680B6F9B07FCD44B6FDBB203
:104244000AB113700132013EF3E790F83C50DFE706
:1042540070BC70470BB1FFF7D1BF7047704700BF08
:1042640030B5D0F884448FB0A4B100250A4668461E
:10427400214601238DF800508DF801508DF802502D
:1042840002F0D8F808B90FB030BD684602F07CFFE0
:104294000FB030BDD0F888040028F4D00A460123BA
:1042A400014668468DF831408DF832408DF8334030
:1042B40000F07CFE0028E6D0684600F0E7FE0FB070
:1042C40030BD00BF30B5D0F884448FB07CB1002538
:1042D4000A46012304F2444168468DF800508DF8E3
:1042E40001508DF8025001F0DDFF0FB030BDD0F861
:1042F40088040028F9D00A46012300F5896168463C
:104304008DF831408DF832408DF8334001F0DCF8FF
:104314000FB030BD30B5D0F884448FB074B10025EF
:104324000A46684621462B468DF800508DF8015008
:104334008DF8025002F07EF80FB030BDD0F888043A
:104344000028F9D00A462346014668468DF83140D4
:104354008DF832408DF8334000F028FE0FB030BDA8
:1043640038B50546D0F88404C0B1C469013C03F0F3
:1043740037FBD5F88434241A43B198794FF4007389
:1043840003FA00F080B2A0FB040138BDD5F88834EC
:1043940063B1D3F83C04A0FB040138BDD5F888040C
:1043A40020B1D0F8304401F0DBFCE2E7002000212A
:1043B40038BD00BF30B5D0F884448FB0A4B1002517
:1043C4000A46684621462B468DF800508DF8015068
:1043D4008DF8025002F02EF808B90FB030BD6846CF
:1043E40002F054FA0FB030BDD0F888040028F4D09D
:1043F4000A462346014668468DF831408DF832401E
:104404008DF8334000F0D2FD0028E6D0684600F075
:10441400A9FE0FB030BD00BF70B5D0F884448EB093
:104424001646C4B1002504F244440A4668462146AF
:104434002B468DF800508DF801508DF8025001F094
:1044440095FF08B90EB070BD32462146684602F0A9
:104454002BF90EB070BDD0F888040028F2D000F516
:1044640089650A462346684629468DF831408DF809
:1044740032408DF8334000F017FD0028E2D0324678
:104484002946684601F0D6F80EB070BDD0F88424F1
:104494004AB191794FF40073D0698B4001389BB2D3
:1044A400A3FB00017047D0F8882432B1D2F830342D
:1044B400D2F83C04A3FB00017047002000217047A0
:1044C400012B2DE9F041054694B040D0022B01F1B7
:1044D400040140F20223684618BF002303F0DCFC09
:1044E400129B002B3CD0682004AF07F0D9FD9DF847
:1044F40004200446214B224900264FF47A78227680
:1045040063612430029B9DF80C2021603946E361ED
:1045140084F82020267126732661C4F8088003F0ED
:1045240049FB236917490133174A66662E71C5F89A
:1045340008802E732C61616123612A60134B384615
:10454400009303F079FB284614B0BDE8F08144F2EF
:1045540002230431684603F09FFC129B002BC2D156
:10456400139B002BBFD14FF47A71074A2B7104AF10
:104574002B732B61A9602A60E0E700BF380100209B
:10458400BC0100202C0000205C0100200800002059
:10459400134B14491448154AF0B400240727012684
:1045A4002925C3F89414124918601846C3F8A024A6
:1045B400C3F8A814C3F8AC7483F8B56483F8B7548B
:1045C400C3F88444C3F8884483F89C4483F89D4426
:1045D40083F8BA44074A0849F0BC08F085BD00BF17
:1045E400B41C0620E00200205802002088020020AB
:1045F40000093D00400C0020FD24000010B50446D5
:1046040000F092FE002384F8313084F8333010BD7A
:104614002DE9F04300F1240385B081468846154610
:1046240001AE90F8314093E8070086E80700ACB388
:1046340099F83030012B38D901270024012F314655
:10464400D9F8200014BF2022402201F00DFB0128DC
:1046540024D100223146D9F8200001F0E9FAE8B16A
:104664000378C12B1AD108EB040E04F10F0C30F8B7
:10467400022F631C3F21CAB1AB4217D27E2A1C46CB
:1046840098BFD1B263450EF8011BF0D1013799F8F8
:104694003020FFB2BA4209D91C46CFE7002318469E
:1046A40088F8003005B0BDE8F083002400232046DC
:1046B40008F8043005B0BDE8F08300BF90F831205D
:1046C4000AB10020704738B50D4611463822044619
:1046D40009F094FA40230120256284F8313084F8EB
:1046E400330038BD2DE9F0410878202803D111F8B2
:1046F400010F2028FBD0516008782F2864D00028AF
:1047040062D05C2825D0A0F12204E4B21A2C23D96B
:104714004D1C0026DFF8C4E003E01A2C2EFA04F73F
:1047240022D9A0F13E040136A0F1200CA846012CA8
:1047340037460ED97C280CD0BCF15E0F09D815F889
:10474400010BA0F12204A0B12F28E4B211D05C28FF
:10475400E3D10020BDE8F081204D25FA04F4E507FB
:10476400D6D50020BDE8F081FC07DAD50020BDE8ED
:10477400F0812F2801D0202823D1701C084405463D
:1047840010F8014B202CFAD02F2CF8D01D609EB1CC
:104794000F4417F8013C202B01D02E2B0AD1731E95
:1047A40019441E464BB111F8010D013B2E28F8D0D7
:1047B4002028F6D0FF2ECCDC334613600120BDE860
:1047C400F081C3F80080E3E7202801D02F2802D12C
:1047D40000273E46D1E719600023EEE701010005FA
:1047E4002DE9F04F90F8333083B00546DE0760D5ED
:1047F4005C060E46914640F1BE80D5E90001D5E93C
:10480400042310EB090A41F1000B5B4508BF524534
:10481400C0F0B780B9F1000F74D0AA464C4640F2FC
:10482400FF17FAE806012B6AD3F8382402EA0008D5
:10483400C8F3080BB8F1000F6AD150EA010279D12C
:1048440095F8312051064CBFD3F83414E969A961B5
:104854004FEA58200239D3F82C24BC4293F845E49B
:10486400024401FA0EF111442ED9BBF1000F2BD1F1
:10487400D3F81C22914227D0B4F5806F61D34FF056
:10488400010C4FEA54280CFA0EFEC0EB0E008045D2
:1048940028BF804691423DD801EB0800824239D2BC
:1048A40003F504700191009305F02AF8009B019927
:1048B40080BB95F832304FF0FF3043F0020385F8A7
:1048C400323003B0BDE8F08F03F50470002204F029
:1048D400E7FF0028EDD0CBF5007800EB0B01304664
:1048E400A04528BFA046424605F086F9404600216F
:1048F4004644D5E9002380185941B4EB0804C5E9BE
:10490400000190D10024C4EB090003B0BDE8F08F8E
:10491400A9699DE7D3F8140232464346D0F800E073
:10492400DEF810B0D8470028C3D04FEA4828002149
:104934004046DDE795F83320520610D5A9690131C8
:1049440085E7D3F8140232460368DB6898470028E9
:10495400AFD04FF4007000214FF40078C8E7184638
:104964005246A96901F0ACF940B20028A1DB0BD092
:104974002B6AA9696CE790F8313018073FF53DAF11
:1049840048E7C0EB020945E795F8313013F0500FC2
:10499400B9D18EE7F0B583B00122044685690DF1E3
:1049A4000701D0E90067FFF71BFF0128A5610CBFD1
:1049B4009DF807004FF0FF30C4E9006703B0F0BD75
:1049C4002DE9F04F90F831E085B004468569BEF1D9
:1049D400000F36D016461F46D0E90001994208BFA1
:1049E400904265D056EA070330D10023A361012029
:1049F400C4E9006705B0BDE8F08F10F1FF3241F162
:104A0400FF3322FA0CFC03FA08F823FA0AFA50EAF4
:104A140001034CEA080C4CEA0A0C4BD0E34549D399
:104A2400CCEB0B0BA94604F118085D464246002D59
:104A3400DDD0A169013D206A01F042F90028F5D1D9
:104A44004D460020A56105B0BDE8F08F1EF0080FAB
:104A540027D1236A16F1FF3893F845C447F1FF398B
:104A6400C24603930CF1090CCB4694F833905FFAD9
:104A74008CFC19F0400FCCF120082AFA0CF2CDE995
:104A840000AB019BACF1200A03FA08FB23FA0AF3FA
:104A940042EA0B0242EA030BAFD0E3695B44A36131
:104AA400A5E7D4E90423BB4208BFB242C9D3D0E787
:104AB4000120C8E71EF0400F02D1E369A361B1E70A
:104AC400039BD3F83434F9E72DE9F04F9A4693B0B9
:104AD40090F83130054600922BB991F831300E46EA
:104AE40013F0500F08D10023184685F8313085F8AB
:104AF400333013B0BDE8F08F1C9B03F00303012B8C
:104B040006D0022B00F00981002BECD1012300E038
:104B140002231C9A02F0080213430193009B002B0A
:104B240000F0FD8018460022514601F001FA96F883
:104B3400313002904BB1D6E90023134305D0002154
:104B440000220023B161C6E900230AF10E03B8492B
:104B54004FF0000981FB0321DA174C464F460B4402
:104B6400C2EBE303DBB2039302335FFA83FB20223D
:104B74000AA93046FFF734FE00283DD02028B2D1E0
:104B84009DF828301A0666D4002C61D13268B169C8
:104B9400203A079108920134E4B26BB3C02B00F0C1
:104BA4009380C12B62D0852BE1D138220021284685
:104BB40009F024F89DF82C309DF82920D8063046B9
:104BC40085F8302003F0370258BF42F0080285F818
:104BD40031203368316AB269203B29620AA96A62CA
:104BE4002022AB6296F83330C3F3801385F82C305F
:104BF400FFF7F6FD0028C1D11C9B99057FF573AF23
:104C0400019B9A077FF56FAF009B002B3FF46BAFBE
:104C14005C450CD386E020287FF465AF24B9326864
:104C2400B169203A07910892DCB2A3457AD92022CF
:104C34000AA93046FFF7D4FD631C0028EBD13046A7
:104C4400B76900F0A1FB00283FF44DAFB761ECE772
:104C54005C45A2D29FE7B9F1000F9FD15C4538BFF4
:104C64000024852B83D14FF001099EE7C7EB0A0886
:104C74003A4600990AA85FFA88F8B8F10F0F28BFDE
:104C84004FF00F08434601F025F900283CD0474473
:104C9400FFB2BA457FF46BAF1C9B1B053FF523AFF6
:104CA4001C9B13F4884F40F0A08095F833309F0785
:104CB40000F19B801C9B5B053FF515AF1C9B5804C2
:104CC40000F1B880012014E79DF82930019A990772
:104CD40085F8332003D542F0400385F833300F992B
:104CE400DDE90C23E961C5E90423DDE91001009B3A
:104CF400C5E90201002BCFD09DF82B30534505D0D8
:104D04004FF000094F4632E7814630E7BDF82C30BA
:104D1400029A9342F4D1002729E70323F9E6009B82
:104D2400029312E796F83330002138222846C3F361
:104D340080130F460DF11C0805F124048DF824306E
:104D440008F05CFF039A336A0AF11E0602F10109B6
:104D540008222B62F6B285F831205FFA89F9CDF882
:104D64000CA0DDF800A098E8070084E807001846C6
:104D74000122414600F05CFF044600283FF4B3AE34
:104D840090F90030002BFFF6AEAE2022002108F08F
:104D940035FF002F67D0012F55D0C7EB07130F2E17
:104DA4004FF0C1013246A3F11E0328BF0F22217028
:104DB400DBB252B1023412B2534404EB420213F890
:104DC400011B24F8021BA242F9D10137FFB2BB45F3
:104DD40029D920224146286A00F046FF01287FF4A1
:104DE40082AE0F3E286AF6B2C2E795F8313013F06E
:104DF400110F7FF478AE1C9B5E057FF55FAF95F8CD
:104E040033309C077FF56FAE002200232846FFF75E
:104E1400D7FD00283FF467AE284600F063FC002865
:104E24003FF461AE4EE7284600F07EFA61E600BF2B
:104E3400898888882846D5E90423FFF7C1FD00281E
:104E44007FF440AF4FE6019BC021032263F03F0390
:104E54002170627085F833309DF80C30E370BDF832
:104E64000830A380B1E7852323700E4B85F830907A
:104E740084F801901B687BB10DF117020DF11A0142
:104E840006A89847BDF81810BDF81A209DF81730E9
:104E940061812281237598E745F221236381E381AF
:104EA400638292E7C82106202DE9F043064695B0B7
:104EB40000200D4696F8311003928DF849008DF8C4
:104EC4004A008DF84B0029B9994695F8313013F012
:104ED400500F03D1002015B0BDE8F08313781446B9
:104EE4002F2B35D04FF00008214603AB04AA3046DF
:104EF400FFF7F8FB0028EDD0039B1B78002B3CD078
:104F04009DF810302946059A3046CDF80080FFF709
:104F1400DBFD0028DED0344606AF06F1300E2068F3
:104F2400103454F80C1C3D4654F8082C103754F82F
:104F3400043C74450FC5F2D1206806AD3860304694
:104F440000F0F2F986F8318086F83380039CCBE7D1
:104F54000134039421782F29FAD0D1B106A838223C
:104F640000212F6A054608F049FE402201230E97CE
:104F74008DF849208DF84B30B4E79DF81030294660
:104F8400059A3046CDF80090FFF79EFD15B0BDE8B8
:104F9400F083382230462C6A08F030FE402301208A
:104FA400346286F8313086F8330094E719B101F59C
:104FB4008961FFF779BF0846704700BF90F8313028
:104FC40053B930B591F8314083B00D4614F0500414
:104FD40004D1204603B030BD00207047D5E9004518
:104FE400002504F01F042C4302D0184603B030BD42
:104FF40000921A46FFF768FD03B030BD8169F8B529
:105004000446006A01B10131012200F045FD012886
:1050140006462ED901230146206A1A4600F096FD61
:10502400074630B3A3693BB394F83320510612D535
:10503400591C8E4226D022F04002E16984F83320C4
:1050440005E0206A00F046FE294690B1A3694D1C94
:1050540099422A46F5D34FF0FF323146206A00F0D8
:1050640039FE30B1A16969B13246206A00F032FEDE
:1050740040B900273846F8BD94F8333043F0400374
:1050840084F83330A6613846F8BD00BF2DE9F043FB
:1050940000F1240385B090F83340054601AE93E84F
:1050A400070086E80700A2071BD5E969E9B90024CF
:1050B40001223146286A013400F0BAFD88B1037830
:1050C400E4B203F07F03037095F83030A34231D388
:1050D400002CEDD020223146286A00F0C5FD0128BD
:1050E400E6D0002005B0BDE8F0836306286A1CD52D
:1050F40090F845240023D5E90289093218F1FF38D4
:10510400D2B249F1FF39C2F12007A2F1200428FAF2
:1051140002F209FA07F729FA04F43A432243013266
:1051240000F014FD0028C2D1DBE700F0E5FD002803
:10513400BDD1D6E700232C6A85F83130204685F8A6
:10514400333004F0DDFB0028CBD004F5047004F008
:10515400D7FB0028C5D0D4F8400403689B6998475E
:10516400C0E700BF90F83130D90601D40020704761
:1051740010B5002288B000230446FFF721FC06E0A6
:10518400202819D19DF800301A0615D433B12022F5
:1051940069462046FFF724FB0028F1D194F8333008
:1051A4000822204643F0020384F8312084F8333087
:1051B400FFF76CFF08B010BD002008B010BD00BFA1
:1051C4002DE9F04F002787B000F1240B06460DF1BE
:1051D4000C08BA463C469BE8070088E80700002212
:1051E4004146306A5FFA87F900F022FD054630B186
:1051F4000378C02B59D0C12B2ED0852B09D096F81B
:105204003230002043F0010386F8323007B0BDE8A5
:10521400F08F96F83120434B02F0370290F801A04A
:105224001B68828083B10DF107020DF10A0102A807
:105234009847BDF80A20BDF808309DF80710AA81E8
:1052440069752A82EB816B82326A92F8103243F0DC
:10525400010382F810322B78E103A3F185000022C8
:1052640041EA5404B0FA80F0012113FA84F34009AE
:105274009CB20A44E30303211F2A43EA540309D8D6
:10528400AC5C012A14FA83F39CB201D10028F0D15A
:105294000121EEE7CA4526D020224146306A013773
:1052A40000F0E2FC01289AD0A9E796F8333013F015
:1052B400400F437814BF43F0020323F0020343700A
:1052C400306AF169D6E904236961C5E90223D6E9A4
:1052D4000223C5E9062390F8103243F0010380F855
:1052E40010322B78B8E759460122306A00F0A0FC4E
:1052F400002884D0356A4480284604F001FB002845
:105304003FF47DAF05F5047004F0FAFA00283FF489
:1053140076AFD5F8400403689B69984700283FF4AA
:105324006EAF73E7C821062090F8312092B138B5EA
:1053340090F8332011060FD4056A0446284604F079
:10534400DFFA88B994F83230002043F0010384F87E
:10535400323038BD0120704702F07F0280F83320DC
:10536400BDE83840FFF72CBF05F5047004F0C8FA17
:105374000028E7D0D5F8400403689B6998470028C3
:10538400E0D0012038BD00BF2DE9F04190F8313064
:10539400044659065FD48068236AD3F83C34184421
:1053A400B0F1806F02D30020BDE8F0812046FFF702
:1053B40025FE0028F7D0266A96F81032DA074ED474
:1053C4004FF0FF33002506F508784FF40072C6F855
:1053D4001C32294686F81052404608F00FFC226A17
:1053E400A769012692F84514023FD2F82C348F4065
:1053F4001F4416FA01F310D0D2F84004791942463A
:1054040001350368DB6998470028CCD0226A92F8FA
:10541400453406FA03F3AB42EED894F831305B0618
:1054240014D494F83330002763F07F0384F83330C6
:10543400D2F83C64D4E90223D4E9040192197B41F3
:1054440080197941C4E90223C4E904012046BDE876
:10545400F041FFF769BF006A00F030FD9CE706F5F4
:10546400047004F04DFA0028AAD19CE791F8313079
:1054740013F0500F01D10020704730B540F60225DB
:1054840083B01378044652680095FFF71DFB10B9EA
:10549400002003B030BD1023204684F83130FFF7DC
:1054A40073FF0028F4D0A169002200232046E161A3
:1054B400FFF786FAC123204684F8333003B0BDE8F1
:1054C4003040FFF731BF00BF2DE9F043064695B0E9
:1054D40000200C4696F8311003928DF849008DF89F
:1054E4004A008DF84B0029B9994694F8313013F0ED
:1054F400500F03D1002015B0BDE8F0831378114696
:105504002F2B39D04FF0000803AB04AA3046FFF725
:10551400E9F80028EED0039B1B78002B3AD09DF8C5
:1055240010302146059A3046CDF80080FFF7CCFABA
:1055340048B9B9F1000FDDD0214604AA3046FFF77F
:1055440095FF0028D6D0344606AF06F1300E206809
:10555400103454F80C1C3D4654F8082C103754F8F9
:10556400043C74450FC5F2D1206806AC386030465F
:10557400FFF744F80399C7E7013103910B782F2B08
:10558400FAD0216A06A8FFF799F80028B2D006AC31
:105594000399B7E704AA21463046FFF767FF15B021
:1055A400BDE8F08352EA030103D090F83310890771
:1055B40001D400207047C1690029FAD12DE9F041D6
:1055C40012F1FF368046006A1D4643F1FF37144648
:1055D40090F845340933DBB2C3F1200E26FA03F206
:1055E400203B07FA0EFE27FA03F342EA0E021A439F
:1055F400561C324600F050FA0128074607D90146E6
:1056040032460123D8F8200000F0A0FA10B9002097
:10561400BDE8F08198F833304046C8F81C7063F058
:105624003F03C8E9024588F83330BDE8F041FFF78D
:105634007BBE00BFF0B590F831409DB0002314F05C
:10564400180F8DF831308DF832308DF833308DF8F5
:1056540069308DF86A308DF86B3003D00B6A046AB8
:105664009C4202D000201DB0F0BD044640F6012348
:105674006846FFF719FC0028F4D0254604F1300EE3
:105684000EAF2868103555F80C1C3E4655F8082C0A
:10569400103755F8043C75450FC6F2D1286809AA9D
:1056A40004F1240338609DF8305007CA83E80700EA
:1056B40094F83330204684F8305063F07F0384F844
:1056C4003330FFF731FE0028CCD00021022208231A
:1056D4000EA815918DF86B208DF86930FFF7D6FC74
:1056E400C1E700BF90F833309A0718D5F0B5C56903
:1056F40083B08DB103F04003044603F0FF0683B981
:105704008169002942D10195C1612946206A00F0CE
:10571400F3FA38BB002000E0012003B0F0BD002004
:105724007047006AA16990F84524D4E902670932F8
:1057340016F1FF36D2B247F1FF37C2F1200EA2F1C3
:10574400200326FA02F207FA0EFE27FA03F342EACE
:105754000E021A430132B1B1013D4B1C691A019387
:105764000A440ABB94F833302046D4E9006763F056
:105774007F03C4E9026784F83330C4E90467FFF7A0
:10578400D3FD03B0F0BD0195E161EAE702AA006A26
:1057940042F8046D00F094FA40B20028BADB0AD152
:1057A400019D002DDED0B0E70023019900F0CEF971
:1057B4000028D7D1AEE74FF0FF32A169206A00F08C
:1057C40089FA0028ECD1A5E72DE9F04F90F83330A1
:1057D40083B004469D0700920AD494F832304FF007
:1057E400FF3043F0010384F8323003B0BDE8F08F9A
:1057F4001A07884600F10781009B002B00F01781EF
:105804002146009D4FF0010AF1E8062393460191D9
:10581400206AA169D0F8386406EA0B06C6F30809C1
:1058240056BB002900F0BD8094F833305B0640F18C
:10583400D28090F84524E3690932D4E902BCD2B29B
:105844001BF1FF3BC2F1200EA2F120074CF1FF3CFB
:105854002BFA02F20CFA0EFE2CFA07F742EA0E02B9
:105864003A431A449142C0F0B3802046FFF7C6FB86
:105874000028B2D0206AA169760A0239D0F82C74C3
:1058840090F845E4374401FA0EF13944B9F1000FB8
:105894005BD1B5F5007F2CBF00220122002A54D130
:1058A400B5F5806FC0F081800AFA0EFE6B0AD0F85D
:1058B4001CC2C6EB0E06B34228BF334661454FEA0D
:1058C400432708D85E18B44505D24FF0FF3680F858
:1058D4001022C0F81C62D0F8140242460668366AE8
:1058E400B04700283FF479AF38460021B844ED1B97
:1058F400D4E90023D4E9046712EB000B43EB010C59
:10590400674508BF5E45C4E900BC07D294F833106C
:1059140061F07F01C4E904BC84F83310002D7FF4E6
:1059240077AF5A466346D4E90201994208BF9042D0
:1059340071D3404B1B68002B77D094F83330009818
:1059440063F07F0384F833304FE7B9F1000F26D1B9
:10595400D4E90423D4E900679F4208BF964234BFC8
:105964000122052200F5047003F09AFF00283FF499
:1059740034AFC9F5007748444146AF4228BF2F46AB
:10598400B9443A4604F038F9B9F5007FACD1206A3D
:1059940000F5047003F0B4FF0028A5D11DE701222F
:1059A400E0E7E169F1B1A16166E7D0F81C32994200
:1059B40022D0D0F8140242460368DB6998470028D5
:1059C4003FF40BAF4FF4007000214FF400778DE7E4
:1059D4000131A16150E7019A00F072F900287FF4C7
:1059E40049AF42E72046FFF709FB00283FF4F5AE34
:1059F400A169206AE1613FE74FF0FF3380F810228C
:105A0400C0F81C32D5E7D0E90423FEF7D9FF0028FB
:105A14003FF4E3AEF0E694F83310009861F07F01B0
:105A2400C4E9022384F83310DFE60098DDE6D4E904
:105A3400002378E7C821062038B50C46D0F8241492
:105A4400154600F50470002201EBD41103F028FF81
:105A540040B1A400C4F3080403595A1C04D02B60B9
:105A6400012038BDFF2038BD002038BD38B50C46B4
:105A7400D0F82414154600F50470012201EBD4116A
:105A840003F00EFF034628B1A4000120C4F3080468
:105A94001D5138BD38BD00BF2DE9F84F80469146F1
:105AA4008B46002943D08F1ED8F830349F423AD217
:105AB40007F007050123C7F3C80A03FA05F5EDB299
:105AC4003E463C46D8F82C140022404601EB1431E3
:105AD40003F0E6FEC0B110F80A100AE04A4529D0E6
:105AE400A74210D0D8F83024944216D213F0FF0500
:105AF4000CD001340D424FEA4503A4EB0602EDD06D
:105B0400A7422646EED10120BDE8F88F0AF1010A2A
:105B14000125BAF5007FDED101E0002634464FF0BE
:105B2400000A0125CEE700270125BA46C8E7D0F8C8
:105B34002074B9E7BBF1000F04D1B9F1010F08BF1C
:105B4400C8F82064B01CBDE8F88F00BF2DE9F04709
:105B5400023915469A46D0F830244B19934238D866
:105B64008046BAF1000F37D1D0F82034994238BFBB
:105B7400C0F8201401F007040122D8F82C34C1F332
:105B8400C80602FA04F403EB1139E4B201224946CF
:105B94004046914403F084FED8B1871900F50070A3
:105BA40017F8012B224282EA04024FEA440414BF8C
:105BB4000126002656450CD0013D07F8012C17D0CC
:105BC40014F0FF04EED1874226464FF00104E7D1DA
:105BD400DCE70020BDE8F087D0F820048342C9D96F
:105BE4008142C7D8934228BF0023C8F82034C1E7B4
:105BF4000120BDE8F08700BF70B582B005460024DF
:105C040002AE46F8041DD5F83034019901339942A7
:105C140002D9002002B070BD32462846FFF70CFFBF
:105C2400013440B20028F4DBEDD1204602B070BD4F
:105C340070B50E460446D0F8385400F5047049682F
:105C440033682940D4F82C54023B94F8454405EBBE
:105C54005121A340194403F023FE18B17368C3F320
:105C64000803184470BD00BF70B54C680D46D0F8E9
:105C740038340646A1181C40696090F84534224423
:105C84000933DBB222FA03F43CB12B7A3BB12B6823
:105C940001332B60013C002CF7D1012070BDD6F8F4
:105CA400303429680133994202D94FF0FF3070BD76
:105CB4002A463046FFF7C0FE40B20128EAD070BD44
:105CC400D0F8303401338B4201D2FF207047FFF704
:105CD400B3BE00BF01290DD9D0F830340133994245
:105CE40010B403D900205DF8044B70475DF8044BF1
:105CF400FFF7BCBE00207047F0B50C4683B00546E4
:105D04000F46D5F8303401339C4202D9002003B049
:105D1400F0BD214601AA2846FFF78EFE012C46B2AB
:105D240021462846F2D9F20FF0D1D5F830340133A8
:105D34009C42EBD8FFF79AFE394600230028E5D0B1
:105D4400621C2846019C0EB1A242DAD0D21BFFF796
:105D5400FDFE0028DAD0019C002ED8D02746D0E7DB
:105D64002DE9F84300248046D0F82C6400F504772C
:105D74002546314600223846013603F091FD28B30A
:105D840000F1FF3ED8F830C405F580591EF8010F24
:105D9400FF2813D048B10822012318424FEA4301D7
:105DA40018BF0134013ACBB2F7D10835AC4509D953
:105DB4004D45DED01EF8010FFF28EBD1083508341D
:105DC400AC45F5D8C4EB0C00BDE8F883BDE8F88316
:105DD4002DE9F041002304464FF0FF3600F5047727
:105DE4001546C0F8401441601A46C4F814123846E7
:105DF400194684F84434237084F81032E660C4F8F9
:105E04001C6203F04DFD042D0DD8064658B16DB942
:105E140005222949F01C08F0F1F9034618B996F84F
:105E24006C20092A1AD00020BDE8F0816B1E00EB1B
:105E3400031393F8BE2112F07F02F4D193F8C23118
:105E4400002BF0D000EB05153846D5F8B65129469D
:105E540003F026FD06460028DAD1E4E7326D4FF060
:105E640001080146204602EB050E4246C4F824E42C
:105E7400776DC4F82874B76D3D44C4F82C54F56D9F
:105E8400C4F83054356EC4F8345496F86D50C4F8E0
:105E9400203405F1090384F8455408FA03F35D1E20
:105EA400C4F83C34C4F83854FFF7F6FD40234046A8
:105EB40084F84434BDE8F0817802002010B504462B
:105EC400D0F83414FFF798FE94F845340933DBB264
:105ED400984010BD4BB370B444887E2C1FD8134433
:105EE40002300A44194412F8013BE4B2A3F16106FA
:105EF400A4F16105192E94BF20260026192DA3EBC9
:105F0400060394BF20250025DBB2641BE4B29C4247
:105F140005D18A4206D030F8024F7E2CE3D9002006
:105F240070BC7047012070BC70470120704700BFEF
:105F3400D1B1014430B410F8014BD30343EA520207
:105F4400A4F16103A4F12005192B98BFECB281429E
:105F540014FA82F292B24FEAC23343EA520292B284
:105F6400E9D1104630BC70471046704738B50D462D
:105F740004462422002107F041FEA560EB79102B92
:105F840008D0202B04D1402301202370A07038BDF9
:105F9400002038BD202301202370A07038BD00BF2D
:105FA400024638B552F8105F04468068294601F06D
:105FB4005DFC50B155B123690135AB42A37818BFDC
:105FC40003F0BF0363F07F03A37038BDA37843F0ED
:105FD4004003F7E72DE9F041037803F020032BB9E0
:105FE40003F0FF044169204B994203D9002630464F
:105FF400BDE8F0810546FFF7D3FF06460028F5D03B
:10600400A96805222B698F7901F12400023B4969B3
:10601400BB405F18394603F043FC80460028E5D0B6
:106024004FF40072214607F0E9FDAB681A79012AA2
:1060340010D9012404E0AB68E4B21A79A24209D968
:106044001868E119424601340368DB69984700285F
:10605400F1D1CBE79B794FF40072696902FA03F33B
:1060640011FA83F36B61C2E7FFFD1F0010B504460C
:1060740080680A462430A16903F012FC20B1A38889
:1060840003F00F0300EB431010BD00BF30B590F9CF
:10609400023083B00446002B19DBA56805F1240007
:1060A40003F02EFC30B96378002043F001036370E1
:1060B40003B030BD05F50D7003F022FC0028F2D0CA
:1060C400286803689B6998470028ECD0F0E7012111
:1060D400FFF7CCFF05460028E5D00378E52BE2D096
:1060E40023781B0701D5E369C361236A0B491A0CA2
:1060F4006B830B68AA8263B10DF103020DF10601F3
:1061040001A89847BDF80430BDF806202B836B82A4
:10611400EA82A37803F07F03A370BEE7C8210620B8
:1061240010B50378044623B9002301202370A3701B
:1061340010BDFFF7ABFF00232370A37010BD00BF99
:106144002DE9F0410C7888B014F0700F03D10020D1
:1061540008B0BDE8F08140F6022305460C4601F084
:1061640007F90028F3D0012210232846AA702B70C7
:10617400FFF730FF0028EAD02A692B782A62002B27
:106184007FD101212846FFF771FF07460028DED0A2
:10619400102300687968EE46FB724FF02E0CBA6843
:1061A40008AEFB68B7F81480AEE80F00BA69FB6963
:1061B4003869796906F820CD0DF10A0C7F8BAEE8B9
:1061C4000F003346202203F8012F6345FBD1A86852
:1061D40001222B6A90F806E02430023B50F8101C90
:1061E40003FA0EF3194403F05BFB86460028AED095
:1061F400ADF814804FF02E08ADF81A7037460FCE64
:10620400CEF80000CEF80410CEF80820CEF80C30FA
:106214008DF801800FCECEF81000CEF81410CEF811
:106224001820CEF81C30236A1A0CADF81A30ADF8D9
:1062340014200FCFCEF82000CEF82410CEF828205A
:10624400CEF82C300FCFCEF83000CEF83410CEF884
:106254003820CEF83C30AC6804F1240003F050FB45
:1062640000283FF474AF04F50D7003F049FB0028D7
:106274003FF46DAF206803689B6908B0BDE8F04146
:1062840018476B6933B1AB78002223F020032A61ED
:106294006A61AB702846FFF7F9FE00283FF457AF58
:1062A4006FE700BF2DE9F041064692B000200C468E
:1062B400317801928DF824008DF825008DF82600A0
:1062C40021B99846237813F0700F03D1002012B03F
:1062D400BDE8F081137810462F2B2DD0002701AA9A
:1062E40003A900F00FFE03AA214600230028EDD0E5
:1062F400019D30462D78002D30D001F039F848B991
:10630400B8F1000FE2D0214603AA3046FFF718FF88
:106314000028DBD0354609AC96F800E00FCD0FC459
:106324000FCD2D680FC42560BEF1000F12D1377058
:1063340009ACB7700198D2E70130019003782F2B94
:10634400FAD0A16809A8FFF711FE0028BED009AC55
:106354000198C3E73046FFF799FEE8E703AA214610
:106364003046FFF7EDFE12B0BDE8F0812DE9F041B3
:10637400064692B000200D46317801928DF8240033
:106384008DF825008DF8260021B998462B7813F056
:10639400700F03D1002012B0BDE8F08113781046CD
:1063A4002F2B29D0002702E001983770B77001AA7B
:1063B40003A900F0A7FD03AA294600230028E9D079
:1063C400019C3046247834B300F0D2FF354609AC42
:1063D4000028DFD096F800E00FCD0FC40FCDD5F81C
:1063E40000C009AD0FC4C4F800C0BEF1000FDBD07B
:1063F4003046FFF74BFED7E70130019003782F2B8F
:10640400FAD08BB1A96809A8FFF7B0FD0028C1D064
:1064140009AD0198C6E7434603AA2946304600F071
:10642400A7FF12B0BDE8F081A9683046FFF79EFDD2
:10643400B1E700BF19B101F24441FFF797BF084625
:10644400704700BF03780BB100207047FFF78EBD83
:1064540009B90020704738B583789B0701D4002020
:1064640038BD036A002BFAD1044680680D46013911
:10647400837904F120020933DBB2D940013101F000
:1064840037FA0028EBD0A378227863F01F03E56184
:10649400A37002B938BD2046BDE83840FFF7F6BD09
:1064A4002DE9F04F837883B00546DF0740F19080F3
:1064B4000F46017891460E0700F193808C0608D5AB
:1064C400826843691289C3EB42139BB2994528BF82
:1064D4009946B9F1000F00F0AA806B6988064E4610
:1064E4004FF0000805F1100AAA68C3F3080440D568
:1064F400116A01EB5321002C54D1B6F5007F51D31E
:10650400136B99424ED0B6F5806F73D328784FEA57
:10651400562B800605D41079C8EB0000834528BFAC
:10652400834699424FEA4B240DD801EB0B0083427A
:1065340009D202F124000191009203F0E1F9009ADA
:106544000199002844D0906A5B463A46D0F800E0AE
:10655400DEF810B0D84700283AD06B69361B2744C0
:1065640023446B6163D02978C3F30804AA688806BE
:10657400BED492F8058008EA5328002C38D1B8F12B
:10658400000F35D1002B3FD148064CBF136A2B6A4C
:106594002B619179023B50698B4008EB000119444F
:1065A400002CAAD002F12400002203F079F978B17A
:1065B400C4F5007301193846B34228BF33461A465E
:1065C4001C4603F019FBC8E72B7813F0700F2FD18A
:1065D4006B784FF0FF3043F002036B7003B0BDE8FB
:1065E400F08FC36942699B1A994528BF994670E7A1
:1065F4002B69CEE7906A3A460368DB68984700281F
:10660400E6D04FF40074A8E7090705D5AB785B061C
:1066140002D52B690133BBE710462969524601F0C4
:10662400B9F80028D4DBCFD0AA682B69B1E70026DB
:10663400C6EB090003B0BDE8F08F00BF70B582B0AF
:106644000122044646690DF107010569FFF728FF99
:10665400012866610CBF9DF807004FF0FF302561EB
:1066640002B070BD436930B5C3F3431583B004462B
:10667400B5FA85F252098A4207D220334361A068F1
:10668400343000EB451003B030BD01220DF1070199
:10669400FFF706FF40B2012803D163691F3363612A
:1066A400EDE70020EFE700BF2DE9F04305789BB04C
:1066B400002415F0180F8DF820408DF821408DF836
:1066C40022408DF844408DF845408DF8464004D072
:1066D400866803468D68AE4203D000201BB0BDE837
:1066E400F0831D4690460E46FFF7D0FCAE4611AF30
:1066F400BEE80F000FC7BEE80F00DEF800E00FC7CA
:1067040021462846C7F800E0FFF7B0FC864600287B
:10671400E3D000686F46DEF80410DEF80820DEF8E7
:106724000C3095F800C00FC70CF0080CDEF8100010
:10673400DEF81410DEF818200CF0FF09DEF81C3027
:106744000FC7BCF1000F00F096804246314640F678
:10675400012308A8FFF70AFE0028BED00E9A0026DF
:10676400BDF824300121AA612846AB809DF823207E
:106774000B9BEA70EB608DF820608DF82260FFF7C8
:1067840075FC0028A9D01AAB9DF80B2053F85B7D4B
:10679400C272D3F804E0C0F80D709F68C0F811E02D
:1067A400C0F81570D3F80CE01F8A9B7CC0F819E080
:1067B400A0F81D70C377002C3BD0AF68A31E3246EF
:1067C400BE7907F124007969B340194403F068F8ED
:1067D400002882D006466F4656F8200F7168B268CA
:1067E400F3680FC730697169B269F3690FC721464D
:1067F400A86801F0D7F800283FF46FAFA968012218
:106804002B6A8C7901F12400023B4969A3401944A5
:1068140003F046F8074600283FF45FAF6C460FCC00
:1068240038627962BA62FB620FCC38637963BA6307
:10683400FB6300210222082311A819918DF8462038
:106844008DF8443000F0A0FC00283FF446AFAC685B
:1068540004F1240003F054F800283FF43EAF04F59B
:106864000D7003F04DF800283FF437AF206803683B
:106874009B69984732E74B464246314608A8FFF7E2
:1068840011FD00283FF429AF109C67E70378DA066E
:106894001AD5436910B5044633B18378002223F036
:1068A400200302614261837001212046FFF7DAFE72
