:0200000460009A
:100000004643464200000156000000000103030081
:1000100000000000000000000000000000000000E0
:1000200000000000000000000000000000000000D0
:1000300000000000000000000000000000000000C0
:1000400000000000010408000000000000000000A3
:100050000000800000000000000000000000000020
:100060000000000000000000000000000000000090
:100070000000000000000000000000000000000080
:10008000EB04180A063204260000000000000000FD
:10009000050404240000000000000000000000002F
:1000A0000000000000000000000000000000000050
:1000B0000604000000000000000000000000000036
:1000C0000000000000000000000000000000000030
:1000D00020041808000000000000000000000000DC
:1000E0000000000000000000000000000000000010
:1000F0000000000000000000000000000000000000
:10010000D8041808000000000000000000000000F3
:100110000204180804200000000000000000000095
:1001200000000000000000000000000000000000CF
:10013000600400000000000000000000000000005B
:1001400000000000000000000000000000000000AF
:10015000000000000000000000000000000000009F
:10016000000000000000000000000000000000008F
:10017000000000000000000000000000000000007F
:10018000000000000000000000000000000000006F
:10019000000000000000000000000000000000005F
:1001A000000000000000000000000000000000004F
:1001B000000000000000000000000000000000003F
:1001C000000100000010000001000000000000001D
:1001D000000001000000000000000000000000001E
:1001E000000000000000000000000000000000000F
:1001F00000000000000000000000000000000000FF
:10020000FFFFFFFFFFFFFFFFFFFFFFFFFFFFFFFFFE
:10021000FFFFFFFFFFFFFFFFFFFFFFFFFFFFFFFFEE
:10100000D100204301140060000000000000000037
:10101000201000600010006000300160000000003F
:1010200000000060FC3B010000000000FFFFFFFF2C
:10103000FFFFFFFFFFFFFFFFFFFFFFFFFFFFFFFFC0
:10104000FFFFFFFFFFFFFFFFFFFFFFFFFFFFFFFFB0
:10105000FFFFFFFFFFFFFFFFFFFFFFFFFFFFFFFFA0
:10106000FFFFFFFFFFFFFFFFFFFFFFFFFFFFFFFF90
:10140000794B4FF42A01794A79482DE9F0475A641B
:101410001864784A99639546BFF34F8F764A03F56F
:101420003033764908208A42C3F854010FD0744BF8
:101430009A420CD2D4430846234423F003030433D6
:101440000B4450F8041B984242F8041BF9D16D4A32
:101450006D498A420FD06D4B9A420CD2D443084654
:10146000234423F0030304330B4450F8041B984235
:1014700042F8041BF9D1664A664B9A420BD2D0431C
:1014800011460024034423F003030433134441F8BA
:10149000044B8B42FBD1604A4FF4700100235F4C38
:1014A00011605F4A44F823200133B02BFAD15D4B21
:1014B00080215D4A03F8011B9342FBD15B4D4FF045
:1014C00080385B494FF0FF325A4B0026DFF8A0A16D
:1014D000DFF8A0911C60C5F80481C5F800A1C5F82B
:1014E000F480C5F8F0900B68534F43F4E0230B6091
:1014F000FB693D4923F07F0343F04003FB617B6AB6
:1015000023F07F0343F040037B628A66CA660A6762
:101510004A6700F01BF9494A494B6320A263032143
:10152000E363484A484B106000F160401E6042F897
:10153000041C00F6A1704549454AC3F8082D0B6804
:10154000444A43F080730B601368434943F001033E
:10155000136003680B6000F049FBC5F804813F4845
:10156000C5F800A1C5F8F480C5F8F09000F0ACFC17
:10157000F96E3B4A41F440513A4BF9661660C2F8A5
:101580000861C2F81861C2F82861C2F838619A6B24
:10159000D20708D442F61562334959651A659A6B29
:1015A00042F001029A632F4A304C936843F00113D2
:1015B000936000F03DF900F097FC2368132BFCD9F1
:1015C00000F0D4FB00F048FC00F09EFC00F040FB73
:1015D00000F096FC2368B3F5967FFBD300F08CFCFB
:1015E00000F086FC30BFFDE700C00A40AFAAAAAAFF
:1015F0000700200000000720000000003C210060E0
:10160000F8F6000000000020381801607016002075
:1016100070160020C042062088ED00E0002C062055
:10162000E988000000E400E0A0E400E000800D4054
:1016300024ED00E008ED00E000C00F40C59C000074
:10164000C99C000014E000E018E000E0FCED00E0C0
:1016500000002020001000E0A02106200046C32347
:101660000040084000400D400000C056A821062060
:101670001B1018200C0D11132DE9F0412F4F0025E0
:1016800042690124B96B4FF0020E16684FF43038EE
:1016900021F47C010369DFF8B0C041F48021B96313
:1016A00031685768394331604FF00111244EC3F857
:1016B00010E01D61C3F848C05C629E624FF661068F
:1016C000C3F82C809F6C1F651D6299651C61017EAB
:1016D0001C4B02EB0111097A03EB011189680E60C2
:1016E000017E02EB01110C7ACD6803EB041149680D
:1016F0000D60017E02EB01110C690CB1496921609A
:10170000417E4FF6610402EB011191F8281003EBC2
:10171000011189680C60417E02EB011191F82840AB
:10172000C96A03EB04135B681960437E02EB031282
:10173000136B0BB1526B1A60BDE8F08100C00F4013
:10174000B80B05058C0200203B372819F0B5244A58
:101750000020244B4FF0100C234C1126DFF8C8E07A
:10176000122720600125C2F800C0C3F800E016600F
:10177000DFF8B8E01D4EC3F800E01D4917601E6099
:1017800041F015011B4F1C4E17601E601B4F1C4E75
:1017900017601E601B4F11601B4E1C491F601660B6
:1017A0001B4F19601B4E1C4917601E601B4F1160B8
:1017B0001B4E1C491F60166019602560BFF34F8FD8
:1017C000BFF36F8FC3F8B001BFF34F8FBFF36F8FBD
:1017D00052F8883C43F4403342F8883CF0BD00BFE7
:1017E0009CED00E0A0ED00E094ED00E009001000A9
:1017F000C042062013002000210002071400002030
:1018000025000813090000101600202027000B13E4
:101810001700004033001013180000602F000B0762
:10182000190000702F000B133F0000102500080363
:10183000F0B58D4B18228D4E01208D4948F20C7E5B
:101840008C4D4FF0FF378C4C83B0C3F85C12C3F85B
:1018500060520025C3F86412C3F868424FF4005484
:10186000C3F86C628549C3F87062C3F87462C3F848
:101870007862834EDA661A675A679A67DA67C3F83E
:101880008020C3F88420C3F8882040F20562C1F8A4
:101890002C03C1F83003C1F83403C1F83803C1F890
:1018A0003C03C1F850032946B36976481840764B8B
:1018B00003437648B361D6F8843043F00C03C6F88E
:1018C00084300226036833430360036803EA0E0E84
:1018D0006F4B4EEA0303DFF8F0E103606D4B4760A6
:1018E000DEF808703B406C4F43F000538360C368E0
:1018F00023F07803C360036A1F40684B3B43664F85
:101900000362036A1F40654B3B43654F4362876236
:10191000C762DEF8B830634F23F03F0343F00103A2
:10192000C0F8B830DEF8BC30DFF884E123F03F03C4
:1019300043F00103C0F8BC30056104660767C0F8D6
:10194000802044664767C0F884200468564B24F022
:101950000204564A0460C0F818E0C66143F8041B4C
:101960009342FBD1494B1A68194642F001021A60B2
:101970000B68464A13F00103FAD14D4E022540F29E
:10198000F56440F2664040F299414A4F966142F256
:101990000146D56140F23545C2F8004242F20124C9
:1019A000C2F810020120C2F820121146C2F83072AB
:1019B00007F15A47C2F8346207F51377C2F840526C
:1019C0003D4E3E4DC2F85072C2F85462C2F86052A9
:1019D000C2F86442C2F8A030C2F8A430C2F8B00025
:1019E0004B692A4ADD07FBD5012300244FF48030E0
:1019F00011465361C2F8A040C2F8A400C2F8B0304A
:101A00004B69224ADC07FBD5012300244FF4003048
:101A100011465361C2F8A040C2F8A400C2F8B03029
:101A20004B691A4AD807FBD50123002424481146E4
:101A30005361C2F8A040C2F8A400C2F8B0304B69AC
:101A4000124ADB07FBD5D2F8003145F60D512120B3
:101A50009BB250618B4239D01A4B00221A605A60F7
:101A60009A60DA6003B0F0BD00801F40F970010099
:101A7000F9B00100F9100100F900010000841F40D5
:101A800000C00F40FFFCFF1F000300A000402A40E1
:101A90001200FFFFFF37F70000FFF07C40000080DE
:101AA000FF000F836300020000422A4000432A40E7
:101AB000F05AF05A9F041830063201263806180AE8
:101AC000040003000028062000802A4000244FF470
:101AD000802001231146C2F8A040C2F8A400C2F839
:101AE000B0304B693B4ADF07FBD501234FF40004BC
:101AF000002011465361C2F8A040C2F8A400C2F809
:101B0000B0304B69334ADE07FBD501234FF40004A4
:101B10004FF4803011465361C2F8A040C2F8A400CF
:101B2000C2F8B0304B692B4ADD07FBD501234FF4D7
:101B300000044FF4003011465361C2F8A040C2F8CF
:101B4000A400C2F8B0304B69224ADC07FBD5012360
:101B50004FF40004204811465361C2F8A040C2F877
:101B6000A400C2F8B0304B691A4AD807FBD5D2F8A6
:101B7000003145F60D5121209BB250618B4210D0AF
:101B8000164B08224FF400041A7015490020154A1C
:101B900001230090521A1448224400F09DF903B02A
:101BA000F0BD4FF400044FF4802101231046C2F829
:101BB000A040C2F8A410C2F8B03043690549DB0761
:101BC000FBD50120054B10224FF0807448611A703C
:101BD000DBE700BF00402A4004000300AC210620E0
:101BE000000000700000007000280620F0B4174AC2
:101BF00040274FF480314FF480564FF400554FF496
:101C0000404443F24200136913F0020F06D094617E
:101C100051619061136913F0020FF8D113F4005F62
:101C200001D15561EFE713F4805F01D15661EAE716
:101C3000002BE8DA13F4803F01D09161E3E75B0603
:101C400001D45761DFE7F0BC704700BF00800D4052
:101C50003B4AF3EE096A3B4900201368F0B523F0D4
:101C600001030324DFF800E113601461D1F8E030D0
:101C7000354FDDB2C3F30B24344EC4EB135307EEE0
:101C8000905AA5F15501CEF80050B8EEE77A03EB73
:101C9000830507EE904A03FB01F13B6003EB8313DE
:101CA000B8EEE75A07EE901A491B77EE666AB8EE6F
:101CB000677A274D07EE901A0B44C5ED006AF8EEDF
:101CC000677A3460C7EE265A17682249224D234CA2
:101CD000234E87EEA66A07EE903AF8EE677A87EE13
:101CE000A67A75EE855A76EE056AFCEEE55AFCEEAC
:101CF000E66A15EE903A47EA035316EE907A77EECD
:101D0000057A136001EA0741D2F81031FCEEE77A58
:101D10000B43C2F8103117EE903AD2F81011C3F30A
:101D20000B030B43C2F81031136843F00203136036
:101D30002870C4F840610B4B01221A60F0BD00BF4F
:101D400080810D4000441F40B8210620BC210620A0
:101D5000B42106200000FF0F40E400E0002C062024
:101D6000B58A000008E100E0B0210620304B40F6C3
:101D7000617270B5C3F8202140F2044500F0A8F864
:101D80002C492D48D1F880202C4C42F003022C4BDA
:101D9000C1F88020C0F86051226813401BB9D0F808
:101DA000A8319A071AD0244B4FF00041234A5163BF
:101DB0001A46D3F8401141F00201C3F84011D2F89D
:101DC00040319B07FBD44FF400301E491B4B4FF0B2
:101DD0000042086019209A6300F082F81A4D002230
:101DE000164B4FF08041144C0A26996328461A601E
:101DF0001146C4F8A8614FF4207200F061F84FF466
:101E0000810640F243114FF48000104B104A2E60BF
:101E10002864C4F85851C4F84811C3F804220D4A84
:101E20004FF4003101231160C4F8403170BD00BF90
:101E300000800D4000C00F4000002E4000900D407B
:101E4000001C1E008CE200E000400620002C062052
:101E50005D8C00000CE100E0114B1249D86E0A467F
:101E600040F4403030B4D86640F23765D86EA024D4
:101E700040F44070D8664D648C64936C1B06FCD4AF
:101E8000094B40F23760A0211A4658649964936C5C
:101E900013F08003FBD1054A137030BC704700BFBC
:101EA00000C00F4000400C4000800C40B1240620D0
:101EB000F8B500BFF8BC08BC9E46704700000000A3
:101EC0005FF800F08DC100005FF800F06581000050
:101ED0005FF800F0159400005FF800F0F5A700002F
:101EE0005FF800F0298400005FF800F0798A0000B4
:101EF0005FF800F0F1A500005FF800F0B5B9000050
:101F00005FF800F07D8A00005FF800F03186000085
:101F100045000000F90C0000E91D0000011E000052
:101F2000191E0000311E0000491E0000611E000045
:101F3000791E0000911E0000A91E0000C11E0000B5
:101F4000D91E0000F11E0000091F0000211F000023
:101F5000391F0000511F0000691F0000811F000091
:101F6000991F0000B11F0000C91F0000E11F000001
:101F7000F91F00001120000029200000C9290000DD
:101F800080C00F4000000003190000001000000096
:101F9000E8841F4001000000FF000000FF00000077
:101FA0000000000000000000180000001000000009
:101FB000E4841F4001000000FF000000FF0000005B
:101FC00000000000000000001F00000070C00F4073
:101FD000000C00001100000011000000E0841F4010
:101FE000020000002C00000012000000E0841F40EE
:101FF000010000001000000011000000DC841F4000
:10200000020000002D00000012000000DC841F40D0
:10201000010000001E00000070C00F40C000000062
:102020001200000013000000D0841F4001000000D7
:10203000FF000000FF0000000000000000000000A2
:102040001300000013000000CC841F4001000000BA
:10205000FF000000FF000000000000000000000082
:102060001C000000160355005300420020005300DE
:1020700065007200690061006C00000018035400E4
:10208000650065006E0073007900640075006900EA
:102090006E006F000403090409024B00020100C036
:1020A00032080B00020202010009040000010202D2
:1020B0000100052400100105240101010424020689
:1020C0000524060001070582031000100904010021
:1020D000020A000000070503024000000705840211
:1020E0004000000009024B00020100C032080B0052
:1020F000020202010009040000010202010005249D
:102100000010010524010101042402060524060033
:10211000010705820310000509040100020A0000FE
:102120000007050302000200070584020002000008
:0C2130000A060002EF020140010001015C
:10213C000000000000000000000000000000000093
:10214C000000000000000000000000000000000083
:10215C0010B5054C237833B9044B13B10448AFF3D5
:10216C0000800123237010BD7016002000000000B9
:10217C00F4F60000084B10B51BB108490848AFF342
:10218C0000800848036803B910BD074B002BFBD037
:10219C00BDE81040184700BF000000007416002076
:1021AC00F4F600007016002000000000016070477B
:1021BC00006803681B691847006803681B681847A8
:1021CC00FFF7FABF0346042210B4416053F8040B26
:1021DC000468194663685DF8044B184710B504464B
:1021EC00206803681B6998470028F9D020680368A9
:1021FC005B699847C0B210BDFFF7F0BF10B504463D
:10220C00206803681B6998470028F9D02068036888
:10221C005B6998472071206803681B699847002800
:10222C00F9D0206803685B6998476071A08810BD7D
:10223C0010B50446206803681B6998470028F9D03C
:10224C00206803685B6998472071206803681B69E4
:10225C0098470028F9D0206803685B69984760713B
:10226C00206803681B6998470028F9D02068036828
:10227C005B699847A071206803681B699847002820
:10228C00F9D0206803685B699847E071606810BDFD
:10229C00006803685B68184700680AF027BA00BF3B
:1022AC00FFF7FABF00207047704700BF4FF0FF30B8
:1022BC00704700BF704700BF044B10B5044640F890
:1022CC00103B05F06DFF204610BD00BF080000203C
:1022DC0010B504460AF094F9204610BD2DE9F04FD4
:1022EC00B64C23782DED028B83B0002B00F0AC8024
:1022FC00B3490B78002B00F0EE80B24BDFF850A303
:10230C001B78002B00F02B819AF80030002B00F08A
:10231C001582AD4D2B78002B00F02D82AB4BAC4EC3
:10232C0001931B78AB4A3768002B00F06C8302EBEF
:10233C00870EA94BBEF93824BEF93A041A8058808E
:10234C000137DFF810E33760A44F3E78002E40F0E1
:10235C00A082A34E07EE902ADFF8FCC23288B8EEBA
:10236C00E77A07EE900ADFF8F4820CEB8200F8EEC5
:10237C00E77AB8F800C0D0ED006A27EE267A67EE4F
:10238C00A67ABDEEC77AFDEEE77A17EE108A17EE45
:10239C00900AA3F800805880013292B262453280D4
:1023AC0000F09C828F48904A90F800B028784FEA51
:1023BC004B0C8E4E0CEB00088D4D56F828603746B2
:1023CC0000962E688B4D07EB06088A4F2D68013559
:1023DC0045453D6000F03482DEF80060DFF8808215
:1023EC00D8F80080B04500F01A82DFF87882824E6F
:1023FC0096F80090D8F800600136C8F80060B9F182
:10240C00000F00F0FD817D49096889B1DFF8588221
:10241C0098F80080B8F1000F00F08D82DFF83C8254
:10242C000139B8F80080C8EB01018E4200F01F831F
:10243C006044734951F820108D4200F05F8221787E
:10244C00107881F0010114E06E4A117851B16E4898
:10245C000168242940F2AA806C494FF40000C1F8AD
:10246C00840013706A4B197829BB5F4A01215A4BBF
:10247C001078217040B152490020664E644C012501
:10248C00087010703060257023F01F036249BFF391
:10249C004F8F624A136020339942FBD8BFF34F8FA2
:1024AC00BFF36F8F5E4A5F4B1279DA7703B0BDECE6
:1024BC00028BBDE8F08F574E30682A2840F2D88046
:1024CC0052484FF400060025474AC0F888601D703A
:1024DC001078414BCDE7544B1978002961D0534902
:1024EC00012553480A780570002A00F0CF80514D21
:1024FC00514E524ADFF874E1514F96ED006B95ED59
:10250C00007B167837EE067B012EFCEEC76B85ED53
:10251C00007BCDED006ABDF800204FEA520C3A80EA
:10252C00AEF800C000F0AA80002E40F0AC80454E02
:10253C003688B24200F2A78007EE906A00223E80F5
:10254C00B8EE677B0A7085ED007B002E40F09E8014
:10255C001E700021244A204B0170107889E79AF8EC
:10256C000030002B00F0CF801E4A374B92F800B0A1
:10257C0013F80B30002B40F01281144B144E0193C6
:10258C001B78324A3068002B00F04E82124B52F806
:10259C0020201A6001300C4DDFF8B8E03060124A90
:1025AC0004E70D4B104A1960107862E70131184BA3
:1025BC000160197800297FF47EAF56E7A51B062031
:1025CC007637002075380020E5160020E316002031
:1025DC005438002048A523208C1600209916002082
:1025EC0068370020BC3E002074370020543900208E
:1025FC00C42604201C390020943700207C3700208E
:10260C00C836002098160020583800200080004260
:10261C0024270420D81600209016002070EF00E02C
:10262C003827042000800E40A41B0620FA39002015
:10263C008D0B00202827042090160020E216002085
:10264C00E016002078370020A81B06200000202070
:10265C005C3800202039002088170020900B0020C7
:10266C00A01B062090370020F4390020C02604203F
:10267C00451CB44AB44B10783560FAE6B34E368834
:10268C00B242BFF459AF002A3FF463AFB04B1B7892
:10269C00002B00F09581012B40F0AB80AD4E96EDF8
:1026AC00008BB0EE480B0AF087F9AB4BAB491B889B
:1026BC00AB4A07EE103AAB4BB8EEC77B27EE000BDC
:1026CC00B6EE007BB5EEC00BF1EE10FAACBF30EEFF
:1026DC00070B30EE470BFDEEC07BCDED007ABDF95C
:1026EC00005093ED007B28460D80158037EE087B5B
:1026FC0086ED007B944B2178924A588081F0010141
:10270C001D801078B5E6984B1B78002B61D1974B48
:10271C00DFF8A4E201931B78954ADEF80000002B49
:10272C0061D0894B52F820201A60924A0130924DA8
:10273C0092F800B0CEF80000824A37E68A4B1B783C
:10274C00002B3CD1894BDFF870E201931B78002BF6
:10275C0000F083818648DEF800507B4B6A00561CE3
:10276C0030F9122030F916001A8058806E1C824DF8
:10277C00CEF80060E8E57D4B804E01931B78002B72
:10278C0000F0628137687E487A006F4B02F1010ECF
:10279C0030F9122030F91E001A805880D0E5734BA6
:1027AC00764E01931B78774A3068002B00F0348109
:1027BC0002EB8002644BD2F838241A60EAE66B4BC9
:1027CC00DFF8F4E101931B78002B00F033816E48A5
:1027DC00C1E7664BDFF8E0E101931B786A4ADEF84B
:1027EC000000002B9DD1584B32F910201A805A80D2
:1027FC009BE75A4A5A4BB2F90050B3F9000079E7FB
:10280C00624E604436787EBB614E56F82060B5420D
:10281C007FF415AE207880F0010020702CE6DFF8F4
:10282C0048814FF00109002798F80060CEF800703D
:10283C00C6EB090688F80060564E86F80090D4E581
:10284C00DFF824914FF00007CEF8006099F8008073
:10285C008AF80070C8F101084E4F89F800804FF0DB
:10286C00010887F80080B9E5494E4B4F56F82060B7
:10287C003888301A01388542C9D10120DFF83CE193
:10288C00DFF81CC1454F8EF800003870ACF8009092
:10289C00BDE7DFF804C107EE902A414E07EE100A9F
:1028AC00BCF800C0F8EEE77A3288B8EEC77A3D483B
:1028BC00C2EB0C0800EB880050ED016A67EEA67ABB
:1028CC0027EE267AFDEEE77A17EE900AFDEEC77A30
:1028DC00188017EE908AA3F802805DE53878002204
:1028EC00314E2E4F32703A7000283FF45BAD154AD2
:1028FC0001262048167090F800B057E50199009811
:10290C002A4D09782860002976D029481B4950F8AF
:10291C002B00086000990120264D8900124E8AF880
:10292C0000003070296000251A4E2946CEF8005060
:10293C00307010789DE58E427FF67AAD01211170D2
:10294C0076E500BF743700208C1600207837002005
:10295C00401B0620A0160020E0160020F6390020AF
:10296C00F839002088370020FB390020E3160020BE
:10297C00C03E0020BC3E0020E5160020543800204C
:10298C000000202048A52320C0320220F43900206A
:10299C00C836002034270420900B00207538002006
:1029AC006837002088170020F53900201C390020DA
:1029BC00CC260420441B0620203900209916002028
:1029CC00324F0BF0CDFC324E3B883288314D90FBB0
:1029DC00F3F101FB1300831A2B800BF0C1FC3B8835
:1029EC0031882D4AB5F9005090FBF3F606FB130025
:1029FC00401A00B210807DE62849294851F82B1066
:102A0C004900016086E702EB4702264BB2F93824F5
:102A1C0010461A805A8093E402EB4002214BB2F923
:102A2C0038241A805A80B5E51E4B32F910201A80D2
:102A3C005A80AFE51C4ADEF800501A4B32F91520CB
:102A4C0010461A805A8091E6184A3768154B32F9AD
:102A5C0017201A8010465A8072E4154ADEF800508E
:102A6C00104B32F915201A8010465A807EE64FF032
:102A7C000109104E10494FF00008104F86F80090D5
:102A8C0087F80090A1F80080D2E400BFE016002087
:102A9C00C0260420F6390020F8390020CC2604206A
:102AAC00543800208C160020C03202200000202058
:102ABC00C03E002099160020683700207538002091
:102ACC0010B5044609F05AF9204610BD0C4A13788B
:102ADC007BB10C490B787BB90B480C4B10B41B88A1
:102AEC0004881B1B5DF8044B0380012313700B70CF
:102AFC007047054803490380012313700B7070471E
:102B0C00753800209916002068370020900B0020A3
:102B1C00024BD3F88C0403689B681847043A0020D6
:102B2C00836C13B1184604F03DB8C06C08B102F0C8
:102B3C00E5B94FF0FF307047826C62B1137803F047
:102B4C00080303F0FF000BB3D3695069181A48BF90
:102B5C006FF000407047C16CC9B191F8313003F08F
:102B6C00080303F0FF008BB1D1E90423D1E9000184
:102B7C0030B4101A4FF000056FF0004463EB010104
:102B8C008D4208BF844200D2204630BC70470846B4
:102B9C00704700BF836C13B1184604F065BAC06C63
:102BAC0008B102F075BE7047836C13B1184604F07F
:102BBC009DBAC06C08B103F0BBB8704700B5836C0C
:102BCC0083B08DF8071043B1184601220DF10701AF
:102BDC0004F08CFA03B05DF804FBC06C0028F9D04B
:102BEC0001220DF1070103F0A3F803B05DF804FB1B
:102BFC00836C00B583B063B1184601220DF1070157
:102C0C0003F002FF01280CD19DF8070003B05DF81A
:102C1C0004FBC06C28B101220DF1070102F094F8FD
:102C2C00F0E74FF0FF30F1E71C491D4BCA6F42F43F
:102C3C004022CA679A68002A2FDBD3F88820002A22
:102C4C002BDB012201F57C214FF48030F0B50326FB
:102C5C00144D00244FF0844EC1F82861124FC1F876
:102C6C0024614FF00076C5F890211049C5F8A421D5
:102C7C000F4D1C66DA60C3F810E058619F61D96192
:102C8C00C3F8E040C3F88C20C3F89060C3F89400FC
:102C9C00C3F89850C3F89C10F0BD704700C00F40AB
:102CAC000040384000841F401B1F0100001F1F1FE5
:102CBC001A1F0100F8B5254C0121254D40F20116D3
:102CCC002046244F09F00AF8FFF7AEFF224B0321F0
:102CDC0002226FF00300DFF89CE0C3F880110021A2
:102CEC002368DFF894C01D6001259A80DE80D860CF
:102CFC0026791A48DA829A60DA8399619A839982E2
:102D0C00C3F810E0164A40F8261040F82670154912
:102D1C002379154ED37603F01F02D1F8880003F106
:102D2C00100705FA02F25B1140F01040DFF84CE09E
:102D3C00C1F888000D48C1F808C046F827E00C49D6
:102D4C0040F8232023795D54F8BD00BF38270420B8
:102D5C008C1600201400008000801F4000C00E4024
:102D6C0000800E4000403840002C062000E100E0BE
:102D7C0000E400E02240384001000090AD0100006A
:102D8C0028B1012802D10348FFF736BA7047024830
:102D9C00FFF732BA24390020981B062028B10128ED
:102DAC0002D10348FFF72ABA70470248FFF726BA48
:102DBC0024390020981B062028B1012802D1034891
:102DCC00FFF736BA70470248FFF732BA24390020B1
:102DDC00981B062010B5124C41212046FFF7F0F944
:102DEC0020460121FFF7EEF920460421FFF7E8F910
:102DFC00042220460B49FFF74BFA20460121FFF72E
:102E0C00DFF920462321FFF7DBF920461421FFF7D9
:102E1C00D7F920460021BDE81040FFF7D1B900BF1B
:102E2C0024390020880B0020F8B5264D00242649B3
:102E3C0001272A4625480AF0B7FC254E254B0721C9
:102E4C00DFF8C0E02A46C3F8906429262248C3F86C
:102E5C00A4E4C3F89C041846C3F8A81483F8B1740E
:102E6C0083F8B364C3F88044C3F8844483F898446B
:102E7C0083F8994483F8B64418490AF095FC184B2A
:102E8C004FF47A71174E184F184699602A461C71E8
:102E9C001C739C64DC6415491F600AF085FC214698
:102EAC00304608F01BFF2A46304611490AF07CFCDC
:102EBC0010491148FFF77AF910491148BDE8F8405C
:102ECC00FFF774B9780B0020A10100007C0B0020E7
:102EDC0018020020043A0020C001002085010000E7
:102EEC00481B0620382704202C00002089010000F4
:102EFC0091090000B00C0020981B06204C0C0020FF
:102F0C002439002000093D0070B50B4C430001250D
:102F1C001646204684F83D3084F8605084F85F50A3
:102F2C0006F0CEFF3146204606F0CAFF2946204661
:102F3C00BDE8704007F0A4B8A40B002008B510221F
:102F4C0002214D20FFF7E0FF112201214D20FFF758
:102F5C00DBFF002202214D20FFF7D6FF10220221B9
:102F6C004D20FFF7D1FF2C2208214D20FFF7CCFF7D
:102F7C00022252214D20FFF7C7FF022253214D2080
:102F8C00FFF7C2FF022255214D20FFF7BDFF0022A3
:102F9C0056214D20FFF7B8FF112209214D20FFF7D4
:102FAC00B3FF03220C214D20FFF7AEFF0022282196
:102FBC004D20FFF7A9FF7D2225214D20FFF7A4FF0F
:102FCC00002204214D20FFF79FFF30220E214D20BF
:102FDC00FFF79AFF324B4BF680321B68934257D067
:102FEC0039D9304A934234D02F4A934211D101221D
:102FFC0020214D20FFF788FF3F2221214D20FFF794
:10300C0083FF2A4B1B78EBBB042256214D20FFF784
:10301C007BFF012213214D20FFF776FF00221321A5
:10302C004D20FFF771FF31223D214D20FFF76CFF42
:10303C0031223E214D20FFF767FF002241214D2018
:10304C00FFF762FF002202214D20BDE80840FFF788
:10305C005BBF0322CCE74AF644429342D9D1072204
:10306C0020214D20FFF750FF3F2221214D20FFF75B
:10307C004BFF0E4B1B786BB1282256214D20FFF7CE
:10308C0043FFC6E70C2256214D20FFF73DFFC0E75A
:10309C000722ADE7202256214D20FFF735FFB8E778
:1030AC00840B00200077010000EE0200FC390020A8
:1030BC00F0B54FF47A7195B06E48002409F014FB0A
:1030CC0001211E206C4F07F00BFB012121206B4EC0
:1030DC0007F006FB21461E20694D07F0FBFA21463E
:1030EC00212007F0F7FAFFF7E5FD66480EF090FB9C
:1030FC00224601216020FFF707FF634B022160206D
:10310C001A783F2A28BF3F22FFF7FEFEFFF716FF73
:10311C005E4B22465E495F481C7008F055FF224604
:10312C004EF6602E21465C4B5C4C5D48134447F8D0
:10313C00041F01F6B83114441044714546F8042CB0
:10314C0045F8043C1A4646F8084B45F8080BEAD1FA
:10315C00544C4FF0000104F59265284606F03CFAF9
:10316C002846C4F88C5405F0ABFD20B9D4F88C1467
:10317C00204605F0DFF8D4F880444A4B002C51D09F
:10318C000026214601236846474A6D468DF80060AB
:10319C008DF801608DF8026003F000FC00283DD131
:1031AC00284640F20223404A3E4905F029F93F4D9A
:1031BC00029A04A99DF80C3005F110009DF804400A
:1031CC00AA602B732C7104F0FFFF394B04A80093F9
:1031DC0004F0E6FFA86C00283AD0364903F0ECFB6B
:1031EC00354C02E0FFF794FC10B12378002BF9D199
:1031FC00324B334A1978334B525CA86C02EB4102C8
:10320C002A4C53F82210890050B303F021FE2E4BA8
:10321C0001221A70FFF792FE15B0F0BD684604F05B
:10322C0067FABDE7D3F884146D460029B8D00123A2
:10323C001D4A68468DF831408DF832408DF8334088
:10324C0002F068F90028ABD0684602F0D3F9A7E782
:10325C00E86C0028C4D0174A002302F057FCBFE7E3
:10326C00E46C002CD3D003460A46204601F05CFEE9
:10327C00CDE700BFB00C0020C82604205839002030
:10328C00CC360020A40B00208E0B00206C370020C5
:10329C00F40614004C0C002000E4570000DD6D0017
:1032AC0000C1C500043A002048000020481B06203D
:1032BC00080000200080EE3674380020BC3E002050
:1032CC00A81B062054390020FC390020CF2810B54B
:1032DC000CDDFF2422463D214D20FFF715FE224632
:1032EC003E214D20BDE81040FFF70EBE3030C4B279
:1032FC00F0E700BF20B1C02201216020FFF704BE1F
:10330C00024601216020FFF7FFBD00BFF8B54D4D0F
:10331C002978002963D001295FD14B4808F08CFD36
:10332C000028FAD0484808F09BFD2978474C012921
:10333C0020705CD02278464B9B5C002B4CD04549CE
:10334C0053004548895C454D18445E18444F445C15
:10335C0055F82600434E444D397030602C70002CCB
:10336C0049D0424D40F6B836414F4FF4FA4455F827
:10337C002220404D3A60404A2E6014603F4A5F184C
:10338C003F4D800013443F4E55F8277001225B5C83
:10339C0000213D4D5B1A30603C4C18BF01233C4E64
:1033AC0020782B703B4D3C4B37602A701A703B4F8A
:1033BC003B4E3C4D3C4B3A7032702960196050BB0F
:1033CC003A4B1B78002B36D139490120394B00225E
:1033DC0008701A6001232370F8BD1C4CAAE736480C
:1033EC00FEF70AFF2978194C01292070A2D1164842
:1033FC0008F0B6FF9EE71D4C41F2707E1C4E4FF458
:10340C007A4554F822201B4F52001B4CC7F800E0A1
:10341C0032602560B2E7294B1B78002BDAD0284BA1
:10342C001A782AB12749284A08881288121A0A8061
:10343C0000221A70CEE7214D2149224B2A700870C8
:10344C001880C1E7C22604204C0C0020BC3E002092
:10345C0098370020A81B06202C3900205439002056
:10346C00E51600201C390020E3160020CC26042091
:10347C0054380020C4260420A01B0620B0160020BF
:10348C007C380020441B062094370020763700201F
:10349C007C370020FB390020342704205C380020C6
:1034AC00A51B06202039002090370020F43900207D
:1034BC009816002058380020981B062075380020DC
:1034CC009916002068370020900B002008B51F4883
:1034DC0008F0B2FC00281EDD1C4808F0C1FC1C4999
:1034EC00C0B21C4A012350280870137021D013D984
:1034FC00582817D0782823D1144808F09DFC0028B0
:10350C00FAD0124808F0ACFC134BC0B2134A1B782B
:10351C001070834206D008BD2A2810D1104B00220F
:10352C001A7008BD0F4B1B785BB90F4B01221A7038
:10353C0008BD0E4A1370BDE80840FFF7E7BE08BD92
:10354C0008BDBDE80840FFF7C1BA00BF4C0C002015
:10355C001C270420C2260420BC3E0020E4160020B8
:10356C0025270420F4390020743700206A37002006
:10357C002DE9F04F9B4C00239B4D83B026782B708C
:10358C00002E00F0A480994B1B7823B1984E337811
:10359C00002B40F0D58023783BB1DFF8BC92954BE3
:1035AC00D9F800201B689A4202D303B0BDE8F08F13
:1035BC0040F2AF429049914808F0C2FF8D4BD9F8C8
:1035CC0000201B68013B934200F002818C4B1A4691
:1035DC0001934FF4FA33136008F098FA0028FBD0EB
:1035EC00884D4FF0000B019BD5F80080D3F800A05C
:1035FC00854E864F06E02968B868C8EB0101814208
:10360C0080F0E681CBEB0A0106EB0B0008F0E6F943
:10361C0083447E4BDA45EED87D4E7E4DC6F800B025
:10362C0002E0FFF775FA10B12B78002BF9D1DFF817
:10363C00EC81794FD8F848003968002800F0F68200
:10364C0003F006FC02E0FFF763FA10B12B78002BB5
:10365C00F9D1019BD8F848001A68704B002800F08B
:10366C00D981694903F042FD02E0FFF751FA10B12C
:10367C002B78002BF9D1D9F800507DB9684B694AE9
:10368C001B78D35C002B40F0D681674B42F6E0628E
:10369C0066481B685C49184406F062FD019B316862
:1036AC001A683B688A4213443B6002D0604B00228C
:1036BC001A70504B01351B68C9F800509D4200F040
:1036CC00FE824E4803B0BDE8F04F08F099BF594850
:1036DC00FEF76EFD68BB584808F0AEFB002800F3FF
:1036EC00A181287800283FF44EAF4D2800F0638369
:1036FC0040F2B480582800F0908200F25781502894
:10370C0000F0F28240F29E82532800F0E5815728A7
:10371C007FF439AF494D2878FFF732FB484A2B78B4
:10372C001070002B7FF42FAF01214248FEF748FDAB
:10373C0029E74048FEF760FD404B28701E70D1E72A
:10374C0040F2AF422C492D4808F0FAFE0023314DCF
:10375C00337002E0FFF7DCF910B12B78002BF9D1B4
:10376C00DFF8B880374CD8F848002168002800F002
:10377C003A8303F06DFB02E0FFF7CAF910B12B7826
:10378C00002BF9D1304B1B78012B00F0D081D8F8ED
:10379C004800224B002800F0C0814FF4FA322B492C
:1037AC0003F032F902E0FFF7B3F910B12B78002BDC
:1037BC00F9D1274B1A781AB9226802F5FA3222602D
:1037CC0000220E481A7003B0BDE8F04F08F018BF85
:1037DC00204B1B68002B3FF4F9AE094A0192136091
:1037EC00FAE600BF6B3700201C2704207637002038
:1037FC0034270420783800209D1300007C0B002017
:10380C0070370020A821062040270420B00C00208F
:10381C00A81600207438002080370020481B062092
:10382C0075370020A81B0620003A002080A9232011
:10383C0025270420981B06204C0C0020C2260420AF
:10384C00401B0620441B0620FB390020C0320220FE
:10385C006A3700202027042030270420462800F057
:10386C00748240F2B880482800F05A82C0F03F823F
:10387C00492800F0F4804C287FF485AEB64B1B78B9
:10388C00002B7FF480AEB54B01221A7008F03EF984
:10389C000028FBD0B24D0027B24ED5F80090DFF8CF
:1038AC00C88207E02B68D8F80820C9EB03039342C1
:1038BC0080F0DB82C7F10B01F01908F08FF8074498
:1038CC00A9490A2FEED93078A84B727845001B5CB9
:1038DC00002AA749C3F10103A64A14BF4FF0010EF9
:1038EC004FF0000EDBB22944A34F2A4401F803E049
:1038FC0096F802E0A149387005EB030702F803E0E3
:10390C00D6F80320DFF8DCC241F827200CBF0221D7
:10391C0004219B4A13288CF8003011703FF633AE0B
:10392C00D6F807102B4412784FF0000C954F4FF43B
:10393C00FA3601FB02F2944DDFF8ACE207EE902A66
:10394C0047F8232055F82350B8EE675B8F4F9FED57
:10395C007E6B47F8231029448D4FAD0085EE067B16
:10396C004EF8231057F8203001218A489B008A4FCB
:10397C0005608A488A4D03608A4BDFF870E2C3F811
:10398C0000C02170C8217848BBFE477BFCEEC77B8A
:10399C0017EE903ACEED007A06FB1322624518BF63
:1039AC0001333A602B6008F09FFEECE5782800F0BC
:1039BC001F8140F27281F32847D0FF287FF4E3ADDA
:1039CC00654B1B78012B7FF4DEADFFF703FADAE5CC
:1039DC0001221A7320E6412800F0DB81452864D0CF
:1039EC002A287FF4D0AD704B0025604A03F11400F7
:1039FC0013F8011F21B111781D70C1F10101117073
:103A0C00834202F10102F3D1534B1B78002B7FF45C
:103A1C00BAAD89E6D86C00283FF42AAE514902F0C1
:103A2C0087F925E6614808F01BFA4B4BC0B201221E
:103A3C0028701A7056E6594B42F6E0625C481B68D7
:103A4C004849184406F08CFB28E6434B1B78002BA6
:103A5C007FF499ADF4215748FEF7B2FB93E53E4B4A
:103A6C001B78002B7FF48FAD534B52481978FEF71F
:103A7C00A7FB10214F48FEF7A3FB14214D48FEF77E
:103A8C009FFB4E4B4B481978FEF79AFB4C4B494821
:103A9C001968FEF797FB1E214648FEF793FB4FF47F
:103AAC00FA614448FEF78EFB6DE52B4B1D78002D1B
:103ABC007FF469AD3F48FEF79FFB021C414B4FF072
:103ACC00010118BF01223B481A70FEF779FB3E4AF0
:103ADC003E4B15801D7056E51F4B1B78002B7FF459
:103AEC0052AD374D3348FEF7A3FB2860FFF726FA9B
:103AFC0095ED007A364A0121B8EE477B354B2D48BF
:103B0C0092ED004B9FED125B87EE046B85EE067B0E
:103B1C0083ED007BFEF754FB35E5D86C00283FF4B1
:103B2C0045AE4FF4FA322C4901F00EF93EE6D8F8C6
:103B3C0048002A4B002800F061814FF4FA322849E2
:103B4C0002F062FF32E600BF000000000040FF40C0
:103B5C00112D4454FB211940C22604202527042092
:103B6C00A821062040270420B00C0020A81B06200A
:103B7C002C390020B0160020753700207C3800202E
:103B8C00C8260420E816002054390020B037002045
:103B9C00CC2604208037002020270420003A002067
:103BAC0078380020302704205F3800204C0C00208F
:103BBC0000002020981B06206C370020920B002060
:103BCC00840B0020F439002068370020991600205F
:103BDC00980B002088370020C0320220481B06209A
:103BEC00C03E002050380020C8360020AC16002003
:103BFC00A94B1B78002B00F03281A84808F01CF967
:103C0C000028FAD0A54808F02BF9A54BC0B21870C3
:103C1C00A44B1B7883427FF4B6ACA34B1B78002BD0
:103C2C0040F01981A14B01221A70ACE4D8F84CE099
:103C3C00BEF1000F3FF40AAD03460A46704601F090
:103C4C0073F903E54E287FF49EAC934D2878FFF76B
:103C5C00A5F8974A97491378088023B9964B002604
:103C6C000027C3E90067954B1B68002B40F0D08000
:103C7C0007EE900A9249934F4308B8EE677B924E39
:103C8C003880338081ED007B002840F0F18010708B
:103C9C002B78002B7FF477AC46E55A287FF473AC75
:103CAC007D4B1B78002B7FF46EAC8848FEF7C0FA76
:103CBC00824B012118608548FEF782FA63E4844B3D
:103CCC000122844800211B78834E844D007821709A
:103CDC00F254EA5407F06AFF07F0B0FF4FF47A7120
:103CEC007F4808F001FDECE4FFF710FB4BE46A4B56
:103CFC001B78002B7FF447AC7448FEF77DFA3F2805
:103D0C000346784D02464FF0020128BF3F22602047
:103D1C002B70FFF7F9F801216C48FEF751FA32E4E9
:103D2C005D4B1B78002B7FF42EAC6848FEF764FAD1
:103D3C00031C6D4A18BF012318461370FFF7DAFAFB
:103D4C0001216248FEF73CFA1DE4534D2878FFF739
:103D5C0033F807EE900A654AB8EE673B2B7892ED84
:103D6C00007A634DB8EE477B6249634A28609FED49
:103D7C00465B9FED474B83EE056B87EE065B81ED53
:103D8C00006B84EE057B82ED007B002B7FF4FBAB9C
:103D9C00CAE4414B1B78002B7FF4F5AB4B48FEF784
:103DAC002BFA564B1870FFF791FA01214748FEF792
:103DBC0007FAFFF7E8BB384B1D78002D7FF4E3AB17
:103DCC004248FEF71BFA4E4BB0F5FA6F188052D8EA
:103DDC0082004C493D48FEF763FA01213B48FEF74F
:103DEC00EFF9FFF7D0BBD8F84C60002E3FF4C7AC0E
:103DFC0003460A46304601F097F8C0E4D86C002818
:103E0C003FF4D4AC4FF4FA323F4900F09DFFCDE4BF
:103E1C002C4907EE900A3D4F0988B8EE676B07EE08
:103E2C00903A012305EE901A8842B8EE677B137026
:103E3C00B8EE655B224E94BF00200120344A36EE6A
:103E4C00456B344938700B7086EE074B86ED005B82
:103E5C0082ED004B1CE7FEF739FEFFF794BB1B48C5
:103E6C00FEF7CAF90E4B1870D2E601230B732AE544
:103E7C00012313700CE729461448FEF7A1F9FFF74C
:103E8C0082BB00BFAFF300800000000000408F40F9
:103E9C00112D4454FB211940C22604204C0C002047
:103EAC00E4160020BC3E0020F439002074370020BA
:103EBC00A41B062078370020A0160020AC37002069
:103ECC0028270420E0160020C0260420981B06207A
:103EDC0075370020252704206038002098370020F3
:103EEC00B00C00208E0B002026270420840B002011
:103EFC00DC160020980B002088370020920B002045
:103F0C00900B002088170020C03E0020E2160020F5
:103F1C0090160020FA390020024A0349034809F0A0
:103F2C0043BC00BF780B002091090000BC1B06208D
:103F3C00024A0349034809F037BC00BF780B002044
:103F4C0091090000C41B0620024A0349034809F0EA
:103F5C002BBC00BF780B002091090000CC1B062065
:103F6C00024A0349034809F01FBC00BF780B00202C
:103F7C0091090000D41B0620024A0349034809F0AA
:103F8C0013BC00BF780B002091090000DC1B06203D
:103F9C00024A0349034809F007BC00BF780B002014
:103FAC0091090000E41B0620024A0349034809F06A
:103FBC00FBBB00BF780B002091090000EC1B062016
:103FCC00024A0349034809F0EFBB00BF780B0020FD
:103FDC0091090000F41B0620024A0349034809F02A
:103FEC00E3BB00BF780B002091090000FC1B0620EE
:103FFC00024A0349034809F0D7BB00BF780B0020E5
:10400C0091090000041C0620024A0349034809F0E8
:10401C00CBBB00BF780B0020910900000C1C0620C4
:10402C00024A0349034809F0BFBB00BF780B0020CC
:10403C0091090000141C0620024A0349034809F0A8
:10404C00B3BB00BF780B0020910900001C1C06209C
:10405C00024A0349034809F0A7BB00BF780B0020B4
:10406C0091090000241C0620024A0349034809F068
:10407C009BBB00BF780B0020910900002C1C062074
:10408C00024A0349034809F08FBB00BF780B00209C
:10409C0091090000341C0620024A0349034809F028
:1040AC0083BB00BF780B0020910900003C1C06204C
:1040BC00024A0349034809F077BB00BF780B002084
:1040CC0091090000441C0620024A0349034809F0E8
:1040DC006BBB00BF780B0020910900004C1C062024
:1040EC00024A0349034809F05FBB00BF780B00206C
:1040FC0091090000541C0620024A0349034809F0A8
:10410C0053BB00BF780B0020910900005C1C0620FB
:10411C00024A0349034809F047BB00BF780B002053
:10412C0091090000641C0620024A0349034809F067
:10413C003BBB00BF780B0020910900006C1C0620D3
:10414C00024A0349034809F02FBB00BF780B00203B
:10415C0091090000741C0620024A0349034809F027
:10416C0023BB00BF780B0020910900007C1C0620AB
:10417C00006910B103689B6A18477047006910B159
:10418C000368DB6A18477047006910B103681B6944
:10419C0018477047006910B103689B6918474FF0C6
:1041AC00FF307047006910B10368DB68184770472F
:1041BC00006910B10168096B0847704710B40069B9
:1041CC0020B10468616B5DF8044B08475DF8044B43
:1041DC00704700BF006910B103689B6B1847002043
:1041EC0000217047006910B10368DB6B1847002091
:1041FC0000217047006910B103681B6C18477047A9
:10420C00006910B103685B6C18477047006910B106
:10421C0003689B6C18470148704700BF640100207D
:10422C00006910B10368DB6C1847704738B50B692F
:10423C0004462BB11D6819462B6D9847204638BD96
:10424C004FF47A70064A23712373A06022600B69C5
:10425C002361002BF2D01A69204601321A6138BD55
:10426C0094000020006910B103685B6D184770471B
:10427C00006980B10368012200B583B09B6A0DF11F
:10428C000701984720B19DF8070003B05DF804FBC7
:10429C004FF0FF30F9E74FF0FF30704710B582B0A8
:1042AC000468012202AB03F8011D1946E36A984722
:1042BC0002B010BDC36D0BB101207047006E003011
:1042CC0018BF0120704700BF10B50446406E18B1EE
:1042DC0009F038FC0023636604F12400BDE81040AB
:1042EC0003F05EBF10B50446064907482369224611
:1042FC0008F0D2F9206920B10368BDE810405B6A70
:10430C00184710BD4C010020B00C00200246024999
:10431C000248136908F0C0B968010020B00C0020F5
:10432C002DE9F041002394B04FF47A74264F1A46CD
:10433C000546243104A88DF804308DF80C30129306
:10434C0013930294009703F0C3FF129B002B31D000
:10435C006820002608F0ECF99DF8043004461B4A4E
:10436C004FF47A782430237604A9029B2260E3610F
:10437C00174A9DF80C30626184F820302671267340
:10438C002661C4F8088003F0C9FE2369114A013381
:10439C00676166662E71C5F808802E732C612361E7
:1043AC002A600D4B04A8009303F0FAFE284614B0C3
:1043BC00BDE8F081139B002BCAD1064A2B71AC606F
:1043CC002B732B612A60ECE72C000020F4000020FA
:1043DC00700000209400002008000020C26D62B123
:1043EC00137803F0080303F0FF000BB3D369506993
:1043FC00181A48BF6FF000407047016EC9B191F8B0
:10440C00313003F0080303F0FF008BB1D1E9042332
:10441C00D1E9000130B4101A4FF000056FF00044E0
:10442C0063EB01018D4208BF844200D2204630BCB0
:10443C0070470846704700BFC36D13B1184602F0B1
:10444C00B1BB006E08B100F059BD4FF0FF307047A2
:10445C00C36D13B1184602F007BE006E08B101F02F
:10446C0017BA704738B5446E0CB1204638BD0546B6
:10447C004FF4807009F05EFB0146686680B1E86D10
:10448C000C7028B14FF4807202F076FF6C6EECE782
:10449C00286E40B14FF4807200F06EFB6C6EE4E756
:1044AC00024C6C66E1E70C46DFE700BF841C06207B
:1044BC00C36D9BB11A7812F0700F00D1704710B514
:1044CC0004460021184602F0C3FC206E28B10022DD
:1044DC000023BDE8104000F027BD10BD006E002881
:1044EC00ECD090F8313013F0500FE7D000220023BD
:1044FC0000F01ABDD0B5C46D8CB1012B08BF002AD9
:10450C0001D30020D0BD1146204602F0A1FC0028AA
:10451C00F7D0204602F0AEFD0028F2D0D0BD046EDC
:10452C00002CEED0204600F0FFFC0028E9D02046FD
:10453C00BDE8D04001F08ABBC36D13B1D86900212E
:10454C007047036E13B118695969704718461946BC
:10455C00704700BFC36D13B1586900217047036EDB
:10456C0013B193E80300704718461946704700BF13
:10457C00C36D13B1184602F047BA006E08B100F0D3
:10458C00E3BB4FF0FF307047C36D33B11B7813F0B2
:10459C00700F14BF012000207047006E30B190F8EE
:1045AC00313013F0500F14BF01200020704700BFB2
:1045BC00C36D13B1184602F099BD006E08B101F03D
:1045CC00B7BB7047D0B4039C16461F4634B1012CC0
:1045DC001ED0022C0DD00020D0BC7047C46DDCB1B5
:1045EC00012B08BF002AF6D220461146D0BC02F09F
:1045FC002FBCC36DB3B1DA69B61847F10007012FB0
:10460C0008BF002EE7D231461846D0BC02F020BCC1
:10461C00C36D93B15A69EFE7006E0028DBD0D0BCB4
:10462C0000F082BC036E002BD5D01846D3E90423CE
:10463C0092197B41D0BC00F077BC036E002BCAD022
:10464C001846D3E9002392197B41E8E7084B02692D
:10465C0010B50446036042B11369013B136123B9E1
:10466C00006910B103681B6A9847204610BD00BF53
:10467C009400002038B5154A0446C36D00F124059A
:10468C000260F3B1284603F08BFD606E08B109F0AF
:10469C0059FA0F4B2846636103F082FD0D4B2269DA
:1046AC00236042B11369013B136123B9206910B136
:1046BC0003681B6A98472046682108F03BF820469F
:1046CC0038BD036E002BDDD1DFE700BFF400002006
:1046DC0008000020940000200A4B026910B5044623
:1046EC00036042B11369013B136123B9006910B136
:1046FC0003681B6A98472046142108F01BF82046D3
:10470C0010BD00BF9400002038B5134A0446C36D99
:10471C0000F124050260D3B1284603F041FD606E20
:10472C0008B109F00FFA0D4B2846636103F038FD10
:10473C000B4B2269236042B11369013B136123B90E
:10474C00206910B103681B6A9847204638BD036E78
:10475C00002BE1D1E3E700BFF400002008000020AB
:10476C009400002070B440F20125046825611BB34D
:10477C001E46F1B10D780131013B6566256FAD0721
:10478C0006D4656F013EEDB212B1157001320468AA
:10479C006569ED07F2D5002BEBD16EB101680B6F9B
:1047AC009B07FCD44B6FDBB20AB113700132013E94
:1047BC00F3E790F83C50DFE770BC70470BB1FFF7A4
:1047CC00D1BF7047704700BF30B5D0F884448FB06C
:1047DC00A4B100250A466846214601238DF80050F5
:1047EC008DF801508DF8025002F0D8F808B90FB0CE
:1047FC0030BD684602F07CFF0FB030BDD0F88804A5
:10480C000028F4D00A460123014668468DF8314051
:10481C008DF832408DF8334000F07CFE0028E6D055
:10482C00684600F0E7FE0FB030BD00BF30B5D0F8E1
:10483C0084448FB07CB100250A46012304F2444124
:10484C0068468DF800508DF801508DF8025001F03B
:10485C00DDFF0FB030BDD0F888040028F9D00A462F
:10486C00012300F5896168468DF831408DF832409E
:10487C008DF8334001F0DCF80FB030BD30B5D0F816
:10488C0084448FB074B100250A46684621462B46F5
:10489C008DF800508DF801508DF8025002F07EF822
:1048AC000FB030BDD0F888040028F9D00A46234652
:1048BC00014668468DF831408DF832408DF8334012
:1048CC0000F028FE0FB030BD38B50546D0F8840492
:1048DC00C0B1C469013C03F037FBD5F88434241A09
:1048EC0043B198794FF4007303FA00F080B2A0FB47
:1048FC00040138BDD5F8883463B1D3F83C04A0FB6F
:10490C00040138BDD5F8880420B1D0F8304401F04A
:10491C00DBFCE2E70020002138BD00BF30B5D0F849
:10492C0084448FB0A4B100250A46684621462B4624
:10493C008DF800508DF801508DF8025002F02EF8D1
:10494C0008B90FB030BD684602F054FA0FB030BD54
:10495C00D0F888040028F4D00A462346014668465D
:10496C008DF831408DF832408DF8334000F0D2FD97
:10497C000028E6D0684600F0A9FE0FB030BD00BF9D
:10498C0070B5D0F884448EB01646C4B1002504F23C
:10499C0044440A46684621462B468DF800508DF853
:1049AC0001508DF8025001F095FF08B90EB070BDA2
:1049BC0032462146684602F02BF90EB070BDD0F895
:1049CC0088040028F2D000F589650A46234668461B
:1049DC0029468DF831408DF832408DF8334000F087
:1049EC0017FD0028E2D032462946684601F0D6F879
:1049FC000EB070BDD0F884244AB191794FF4007395
:104A0C00D0698B4001389BB2A3FB00017047D0F8F2
:104A1C00882432B1D2F83034D2F83C04A3FB000124
:104A2C007047002000217047012B2DE9F04105460D
:104A3C0094B040D0022B01F1040140F202236846ED
:104A4C0018BF002303F0DCFC129B002B3CD0682029
:104A5C0004AF07F06DFE9DF804200446214B22495B
:104A6C0000264FF47A78227663612430029B9DF8FD
:104A7C000C2021603946E36184F8202026712673CE
:104A8C002661C4F8088003F049FB236917490133F8
:104A9C00174A66662E71C5F808802E732C61616109
:104AAC0023612A60134B3846009303F079FB2846A8
:104ABC0014B0BDE8F08144F202230431684603F0DF
:104ACC009FFC129B002BC2D1139B002BBFD14FF428
:104ADC007A71074A2B7104AF2B732B61A9602A6082
:104AEC00E0E700BF70000020F40000202C00002044
:104AFC009400002008000020134B14491448154A58
:104B0C00F0B40024072701262925C3F89414124970
:104B1C0018601846C3F8A024C3F8A814C3F8AC74E2
:104B2C0083F8B56483F8B754C3F88444C3F8884455
:104B3C0083F89C4483F89D4483F8BA44074A084997
:104B4C00F0BC08F031BE00BF881C06201802002003
:104B5C0090010020C001002000093D00780B0020CE
:104B6C009526000010B5044600F092FE002384F850
:104B7C00313084F8333010BD2DE9F04300F12403BB
:104B8C0085B081468846154601AE90F8314093E8D1
:104B9C00070086E80700ACB399F83030012B38D900
:104BAC0001270024012F3146D9F8200014BF202200
:104BBC00402201F00DFB012824D100223146D9F806
:104BCC00200001F0E9FAE8B10378C12B1AD108EB07
:104BDC00040E04F10F0C30F8022F631C3F21CAB1F4
:104BEC00AB4217D27E2A1C4698BFD1B263450EF851
:104BFC00011BF0D1013799F83020FFB2BA4209D924
:104C0C001C46CFE70023184688F8003005B0BDE8F5
:104C1C00F08300240023204608F8043005B0BDE8DA
:104C2C00F08300BF90F831200AB10020704738B5EE
:104C3C000D4611463822044609F040FB4023012062
:104C4C00256284F8313084F8330038BD2DE9F04109
:104C5C000878202803D111F8010F2028FBD05160CF
:104C6C0008782F2864D0002862D05C2825D0A0F1C9
:104C7C002204E4B21A2C23D94D1C0026DFF8C4E020
:104C8C0003E01A2C2EFA04F722D9A0F13E040136C7
:104C9C00A0F1200CA846012C37460ED97C280CD04C
:104CAC00BCF15E0F09D815F8010BA0F12204A0B1DC
:104CBC002F28E4B211D05C28E3D10020BDE8F081AC
:104CCC00204D25FA04F4E507D6D50020BDE8F08187
:104CDC00FC07DAD50020BDE8F0812F2801D0202870
:104CEC0023D1701C0844054610F8014B202CFAD037
:104CFC002F2CF8D01D609EB10F4417F8013C202BCF
:104D0C0001D02E2B0AD1731E19441E464BB111F83B
:104D1C00010D013B2E28F8D02028F6D0FF2ECCDC3C
:104D2C00334613600120BDE8F081C3F80080E3E74F
:104D3C00202801D02F2802D100273E46D1E7196048
:104D4C000023EEE7010100052DE9F04F90F8333018
:104D5C0083B00546DE0760D55C060E46914640F1F1
:104D6C00BE80D5E90001D5E9042310EB090A41F115
:104D7C00000B5B4508BF5245C0F0B780B9F1000F7E
:104D8C0074D0AA464C4640F2FF17FAE806012B6A8B
:104D9C00D3F8382402EA0008C8F3080BB8F1000F66
:104DAC006AD150EA010279D195F8312051064CBFF5
:104DBC00D3F83414E969A9614FEA58200239D3F8C1
:104DCC002C24BC4293F845E4024401FA0EF1114440
:104DDC002ED9BBF1000F2BD1D3F81C22914227D036
:104DEC00B4F5806F61D34FF0010C4FEA54280CFAE4
:104DFC000EFEC0EB0E00804528BF804691423DD888
:104E0C0001EB0800824239D203F504700191009342
:104E1C0005F02AF8009B019980BB95F832304FF0D1
:104E2C00FF3043F0020385F8323003B0BDE8F08F59
:104E3C0003F50470002204F0E7FF0028EDD0CBF559
:104E4C00007800EB0B013046A04528BFA046424637
:104E5C0005F086F9404600214644D5E90023801828
:104E6C005941B4EB0804C5E9000190D10024C4EB0E
:104E7C00090003B0BDE8F08FA9699DE7D3F81402CF
:104E8C0032464346D0F800E0DEF810B0D847002890
:104E9C00C3D04FEA482800214046DDE795F833207F
:104EAC00520610D5A969013185E7D3F814023246B0
:104EBC000368DB6898470028AFD04FF400700021DE
:104ECC004FF40078C8E718465246A96901F0ACF9CE
:104EDC0040B20028A1DB0BD02B6AA9696CE790F8D3
:104EEC00313018073FF53DAF48E7C0EB020945E705
:104EFC0095F8313013F0500FB9D18EE7F0B583B07F
:104F0C000122044685690DF10701D0E90067FFF71E
:104F1C001BFF0128A5610CBF9DF807004FF0FF3067
:104F2C00C4E9006703B0F0BD2DE9F04F90F831E013
:104F3C0085B004468569BEF1000F36D016461F4673
:104F4C00D0E90001994208BF904265D056EA0703A8
:104F5C0030D10023A3610120C4E9006705B0BDE88E
:104F6C00F08F10F1FF3241F1FF3322FA0CFC03FAFF
:104F7C0008F823FA0AFA50EA01034CEA080C4CEA46
:104F8C000A0C4BD0E34549D3CCEB0B0BA94604F1EF
:104F9C0018085D464246002DDDD0A169013D206A0E
:104FAC0001F042F90028F5D14D460020A56105B06D
:104FBC00BDE8F08F1EF0080F27D1236A16F1FF38D9
:104FCC0093F845C447F1FF39C24603930CF1090C21
:104FDC00CB4694F833905FFA8CFC19F0400FCCF16F
:104FEC0020082AFA0CF2CDE900AB019BACF1200AA7
:104FFC0003FA08FB23FA0AF342EA0B0242EA030B18
:10500C00AFD0E3695B44A361A5E7D4E90423BB42B9
:10501C0008BFB242C9D3D0E70120C8E71EF0400F49
:10502C0002D1E369A361B1E7039BD3F83434F9E708
:10503C002DE9F04F9A4693B090F831300546009226
:10504C002BB991F831300E4613F0500F08D10023D4
:10505C00184685F8313085F8333013B0BDE8F08F41
:10506C001C9B03F00303012B06D0022B00F00981DB
:10507C00002BECD1012300E002231C9A02F0080261
:10508C0013430193009B002B00F0FD801846002277
:10509C00514601F001FA96F8313002904BB1D6E945
:1050AC000023134305D0002100220023B161C6E97F
:1050BC0000230AF10E03B8494FF0000981FB0321CC
:1050CC00DA174C464F460B44C2EBE303DBB20393B7
:1050DC0002335FFA83FB20220AA93046FFF734FE25
:1050EC0000283DD02028B2D19DF828301A0666D46D
:1050FC00002C61D13268B169203A079108920134D1
:10510C00E4B26BB3C02B00F09380C12B62D0852B23
:10511C00E1D138220021284609F0D0F89DF82C3036
:10512C009DF82920D806304685F8302003F0370248
:10513C0058BF42F0080285F831203368316AB269F1
:10514C00203B29620AA96A622022AB6296F83330AE
:10515C00C3F3801385F82C30FFF7F6FD0028C1D17E
:10516C001C9B99057FF573AF019B9A077FF56FAF79
:10517C00009B002B3FF46BAF5C450CD386E02028E2
:10518C007FF465AF24B93268B169203A079108926F
:10519C00DCB2A3457AD920220AA93046FFF7D4FD08
:1051AC00631C0028EBD13046B76900F0A1FB002846
:1051BC003FF44DAFB761ECE75C45A2D29FE7B9F184
:1051CC00000F9FD15C4538BF0024852B83D14FF055
:1051DC0001099EE7C7EB0A083A4600990AA85FFA4C
:1051EC0088F8B8F10F0F28BF4FF00F08434601F0B5
:1051FC0025F900283CD04744FFB2BA457FF46BAF89
:10520C001C9B1B053FF523AF1C9B13F4884F40F0F0
:10521C00A08095F833309F0700F19B801C9B5B05A9
:10522C003FF515AF1C9B580400F1B880012014E722
:10523C009DF82930019A990785F8332003D542F05F
:10524C00400385F833300F99DDE90C23E961C5E99A
:10525C000423DDE91001009BC5E90201002BCFD02E
:10526C009DF82B30534505D04FF000094F4632E7DF
:10527C00814630E7BDF82C30029A9342F4D10027D6
:10528C0029E70323F9E6009B029312E796F83330E3
:10529C00002138222846C3F380130F460DF11C0859
:1052AC0005F124048DF8243009F008F8039A336AC8
:1052BC000AF11E0602F1010908222B62F6B285F8EA
:1052CC0031205FFA89F9CDF80CA0DDF800A098E840
:1052DC00070084E8070018460122414600F05CFFF5
:1052EC00044600283FF4B3AE90F90030002BFFF6D3
:1052FC00AEAE2022002108F0E1FF002F67D0012F75
:10530C0055D0C7EB07130F2E4FF0C1013246A3F156
:10531C001E0328BF0F222170DBB252B1023412B22D
:10532C00534404EB420213F8011B24F8021BA24263
:10533C00F9D10137FFB2BB4529D920224146286A51
:10534C0000F046FF01287FF482AE0F3E286AF6B2C9
:10535C00C2E795F8313013F0110F7FF478AE1C9B37
:10536C005E057FF55FAF95F833309C077FF56FAE28
:10537C00002200232846FFF7D7FD00283FF467AE34
:10538C00284600F063FC00283FF461AE4EE7284647
:10539C0000F07EFA61E600BF898888882846D5E946
:1053AC000423FFF7C1FD00287FF440AF4FE6019BBB
:1053BC00C021032263F03F032170627085F8333003
:1053CC009DF80C30E370BDF80830A380B1E785235D
:1053DC0023700E4B85F8309084F801901B687BB1DC
:1053EC000DF117020DF11A0106A89847BDF8181017
:1053FC00BDF81A209DF8173061812281237598E73A
:10540C0045F221236381E381638292E79C2106208C
:10541C002DE9F043064695B000200D4696F8311064
:10542C0003928DF849008DF84A008DF84B0029B98C
:10543C00994695F8313013F0500F03D1002015B078
:10544C00BDE8F083137814462F2B35D04FF00008AD
:10545C00214603AB04AA3046FFF7F8FB0028EDD039
:10546C00039B1B78002B3CD09DF810302946059AE5
:10547C003046CDF80080FFF7DBFD0028DED0344647
:10548C0006AF06F1300E2068103454F80C1C3D4663
:10549C0054F8082C103754F8043C74450FC5F2D15D
:1054AC00206806AD3860304600F0F2F986F831809D
:1054BC0086F83380039CCBE70134039421782F29A1
:1054CC00FAD0D1B106A8382200212F6A054608F07F
:1054DC00F5FE402201230E978DF849208DF84B30B4
:1054EC00B4E79DF810302946059A3046CDF8009067
:1054FC00FFF79EFD15B0BDE8F083382230462C6ACC
:10550C0008F0DCFE40230120346286F8313086F846
:10551C00330094E719B101F58961FFF779BF0846AB
:10552C00704700BF90F8313053B930B591F8314025
:10553C0083B00D4614F0500404D1204603B030BDA6
:10554C0000207047D5E90045002504F01F042C43CA
:10555C0002D0184603B030BD00921A46FFF768FD22
:10556C0003B030BD8169F8B50446006A01B1013160
:10557C00012200F045FD012806462ED901230146E3
:10558C00206A1A4600F096FD074630B3A3693BB378
:10559C0094F83320510612D5591C8E4226D022F095
:1055AC004002E16984F8332005E0206A00F046FEF1
:1055BC00294690B1A3694D1C99422A46F5D34FF068
:1055CC00FF323146206A00F039FE30B1A16969B171
:1055DC003246206A00F032FE40B900273846F8BD4A
:1055EC0094F8333043F0400384F83330A6613846E6
:1055FC00F8BD00BF2DE9F04300F1240385B090F80D
:10560C003340054601AE93E8070086E80700A20781
:10561C001BD5E969E9B9002401223146286A013415
:10562C0000F0BAFD88B10378E4B203F07F03037095
:10563C0095F83030A34231D3002CEDD020223146E6
:10564C00286A00F0C5FD0128E6D0002005B0BDE8B1
:10565C00F0836306286A1CD590F845240023D5E90D
:10566C000289093218F1FF38D2B249F1FF39C2F17F
:10567C002007A2F1200428FA02F209FA07F729FA06
:10568C0004F43A432243013200F014FD0028C2D145
:10569C00DBE700F0E5FD0028BDD1D6E700232C6A3E
:1056AC0085F83130204685F8333004F0DDFB0028D6
:1056BC00CBD004F5047004F0D7FB0028C5D0D4F887
:1056CC00400403689B699847C0E700BF90F83130ED
:1056DC00D90601D40020704710B5002288B00023F1
:1056EC000446FFF721FC06E0202819D19DF8003074
:1056FC001A0615D433B1202269462046FFF724FB45
:10570C000028F1D194F833300822204643F00203EC
:10571C0084F8312084F83330FFF76CFF08B010BDEB
:10572C00002008B010BD00BF2DE9F04F002787B056
:10573C0000F1240B06460DF10C08BA463C469BE8DA
:10574C00070088E8070000224146306A5FFA87F9B3
:10575C0000F022FD054630B10378C02B59D0C12B87
:10576C002ED0852B09D096F83230002043F001035F
:10577C0086F8323007B0BDE8F08F96F83120434BF5
:10578C0002F0370290F801A01B68828083B10DF102
:10579C0007020DF10A0102A89847BDF80A20BDF8CE
:1057AC0008309DF80710AA8169752A82EB816B82FB
:1057BC00326A92F8103243F0010382F810322B78DF
:1057CC00E103A3F18500002241EA5404B0FA80F011
:1057DC00012113FA84F340099CB20A44E303032128
:1057EC001F2A43EA540309D8AC5C012A14FA83F348
:1057FC009CB201D10028F0D10121EEE7CA4526D098
:10580C0020224146306A013700F0E2FC01289AD090
:10581C00A9E796F8333013F0400F437814BF43F0E8
:10582C00020323F002034370306AF169D6E90423C2
:10583C006961C5E90223D6E90223C5E9062390F87C
:10584C00103243F0010380F810322B78B8E7594638
:10585C000122306A00F0A0FC002884D0356A448014
:10586C00284604F001FB00283FF47DAF05F50470D9
:10587C0004F0FAFA00283FF476AFD5F84004036838
:10588C009B69984700283FF46EAF73E79C21062074
:10589C0090F8312092B138B590F8332011060FD41E
:1058AC00056A0446284604F0DFFA88B994F83230C9
:1058BC00002043F0010384F8323038BD01207047DA
:1058CC0002F07F0280F83320BDE83840FFF72CBF90
:1058DC0005F5047004F0C8FA0028E7D0D5F84004A8
:1058EC0003689B6998470028E0D0012038BD00BFB1
:1058FC002DE9F04190F83130044659065FD48068A8
:10590C00236AD3F83C341844B0F1806F02D30020E2
:10591C00BDE8F0812046FFF725FE0028F7D0266A67
:10592C0096F81032DA074ED44FF0FF33002506F507
:10593C0008784FF40072C6F81C32294686F81052CB
:10594C00404608F0BBFC226AA769012692F8451470
:10595C00023FD2F82C348F401F4416FA01F310D0BA
:10596C00D2F840047919424601350368DB6998473F
:10597C000028CCD0226A92F8453406FA03F3AB42E5
:10598C00EED894F831305B0614D494F833300027F9
:10599C0063F07F0384F83330D2F83C64D4E90223FB
:1059AC00D4E9040192197B4180197941C4E902239D
:1059BC00C4E904012046BDE8F041FFF769BF006A65
:1059CC0000F030FD9CE706F5047004F04DFA002859
:1059DC00AAD19CE791F8313013F0500F01D100207F
:1059EC00704730B540F6022583B0137804465268F0
:1059FC000095FFF71DFB10B9002003B030BD10233C
:105A0C00204684F83130FFF773FF0028F4D0A169E9
:105A1C00002200232046E161FFF786FAC1232046CD
:105A2C0084F8333003B0BDE83040FFF731BF00BF1E
:105A3C002DE9F043064695B000200C4696F831103F
:105A4C0003928DF849008DF84A008DF84B0029B966
:105A5C00994694F8313013F0500F03D1002015B053
:105A6C00BDE8F083137811462F2B39D04FF0000886
:105A7C0003AB04AA3046FFF7E9F80028EED0039BED
:105A8C001B78002B3AD09DF810302146059A3046F1
:105A9C00CDF80080FFF7CCFA48B9B9F1000FDDD092
:105AAC00214604AA3046FFF795FF0028D6D034468D
:105ABC0006AF06F1300E2068103454F80C1C3D462D
:105ACC0054F8082C103754F8043C74450FC5F2D127
:105ADC00206806AC38603046FFF744F80399C7E7F6
:105AEC00013103910B782F2BFAD0216A06A8FFF70E
:105AFC0099F80028B2D006AC0399B7E704AA21465E
:105B0C003046FFF767FF15B0BDE8F08352EA03019A
:105B1C0003D090F83310890701D400207047C16975
:105B2C000029FAD12DE9F04112F1FF368046006AC6
:105B3C001D4643F1FF37144690F845340933DBB268
:105B4C00C3F1200E26FA03F2203B07FA0EFE27FAC9
:105B5C0003F342EA0E021A43561C324600F050FA86
:105B6C000128074607D9014632460123D8F8200000
:105B7C0000F0A0FA10B90020BDE8F08198F833309D
:105B8C004046C8F81C7063F03F03C8E9024588F82A
:105B9C003330BDE8F041FFF77BBE00BFF0B590F8A5
:105BAC0031409DB0002314F0180F8DF831308DF872
:105BBC0032308DF833308DF869308DF86A308DF8CD
:105BCC006B3003D00B6A046A9C4202D000201DB0DB
:105BDC00F0BD044640F601236846FFF719FC002887
:105BEC00F4D0254604F1300E0EAF2868103555F868
:105BFC000C1C3E4655F8082C103755F8043C7545DE
:105C0C000FC6F2D1286809AA04F1240338609DF864
:105C1C00305007CA83E8070094F83330204684F8E4
:105C2C00305063F07F0384F83330FFF731FE0028E7
:105C3C00CCD00021022208230EA815918DF86B20E0
:105C4C008DF86930FFF7D6FCC1E700BF90F8333010
:105C5C009A0718D5F0B5C56983B08DB103F0400330
:105C6C00044603F0FF0683B98169002942D10195EE
:105C7C00C1612946206A00F0F3FA38BB002000E02D
:105C8C00012003B0F0BD00207047006AA16990F8B4
:105C9C004524D4E90267093216F1FF36D2B247F136
:105CAC00FF37C2F1200EA2F1200326FA02F207FA06
:105CBC000EFE27FA03F342EA0E021A430132B1B187
:105CCC00013D4B1C691A01930A440ABB94F833300A
:105CDC002046D4E9006763F07F03C4E9026784F8C7
:105CEC003330C4E90467FFF7D3FD03B0F0BD019571
:105CFC00E161EAE702AA006A42F8046D00F094FA46
:105D0C0040B20028BADB0AD1019D002DDED0B0E7ED
:105D1C000023019900F0CEF90028D7D1AEE74FF05F
:105D2C00FF32A169206A00F089FA0028ECD1A5E7BE
:105D3C002DE9F04F90F8333083B004469D07009264
:105D4C000AD494F832304FF0FF3043F0010384F85A
:105D5C00323003B0BDE8F08F1A07884600F1078196
:105D6C00009B002B00F017812146009D4FF0010A8B
:105D7C00F1E8062393460191206AA169D0F83864B2
:105D8C0006EA0B06C6F3080956BB002900F0BD80D5
:105D9C0094F833305B0640F1D28090F84524E369E7
:105DAC000932D4E902BCD2B21BF1FF3BC2F1200E86
:105DBC00A2F120074CF1FF3C2BFA02F20CFA0EFE7A
:105DCC002CFA07F742EA0E023A431A449142C0F009
:105DDC00B3802046FFF7C6FB0028B2D0206AA16929
:105DEC00760A0239D0F82C7490F845E4374401FA5D
:105DFC000EF13944B9F1000F5BD1B5F5007F2CBF22
:105E0C0000220122002A54D1B5F5806FC0F08180A8
:105E1C000AFA0EFE6B0AD0F81CC2C6EB0E06B34291
:105E2C0028BF334661454FEA432708D85E18B4456E
:105E3C0005D24FF0FF3680F81022C0F81C62D0F863
:105E4C00140242460668366AB04700283FF479AF20
:105E5C0038460021B844ED1BD4E90023D4E904678B
:105E6C0012EB000B43EB010C674508BF5E45C4E920
:105E7C0000BC07D294F8331061F07F01C4E904BC74
:105E8C0084F83310002D7FF477AF5A466346D4E97B
:105E9C000201994208BF904271D3404B1B68002B02
:105EAC0077D094F83330009863F07F0384F8333064
:105EBC004FE7B9F1000F26D1D4E90423D4E90067E8
:105ECC009F4208BF964234BF0122052200F50470A0
:105EDC0003F09AFF00283FF434AFC9F5007748442B
:105EEC004146AF4228BF2F46B9443A4604F038F930
:105EFC00B9F5007FACD1206A00F5047003F0B4FF53
:105F0C000028A5D11DE70122E0E7E169F1B1A1610B
:105F1C0066E7D0F81C32994222D0D0F814024246DF
:105F2C000368DB69984700283FF40BAF4FF400700F
:105F3C0000214FF400778DE70131A16150E7019A00
:105F4C0000F072F900287FF449AF42E72046FFF7D2
:105F5C0009FB00283FF4F5AEA169206AE1613FE737
:105F6C004FF0FF3380F81022C0F81C32D5E7D0E98F
:105F7C000423FEF7D9FF00283FF4E3AEF0E694F8D3
:105F8C003310009861F07F01C4E9022384F83310C8
:105F9C00DFE60098DDE6D4E9002378E79C210620B3
:105FAC0038B50C46D0F82414154600F504700022C0
:105FBC0001EBD41103F028FF40B1A400C4F3080492
:105FCC0003595A1C04D02B60012038BDFF2038BD6A
:105FDC00002038BD38B50C46D0F82414154600F511
:105FEC000470012201EBD41103F00EFF034628B11B
:105FFC00A4000120C4F308041D5138BD38BD00BFF6
:10600C002DE9F84F804691468B46002943D08F1ED0
:10601C00D8F830349F423AD207F007050123C7F372
:10602C00C80A03FA05F5EDB23E463C46D8F82C14E6
:10603C000022404601EB143103F0E6FEC0B110F82B
:10604C000A100AE04A4529D0A74210D0D8F83024CB
:10605C00944216D213F0FF050CD001340D424FEAD6
:10606C004503A4EB0602EDD0A7422646EED1012053
:10607C00BDE8F88F0AF1010A0125BAF5007FDED1DF
:10608C0001E0002634464FF0000A0125CEE7002738
:10609C000125BA46C8E7D0F82074B9E7BBF1000F68
:1060AC0004D1B9F1010F08BFC8F82064B01CBDE8D9
:1060BC00F88F00BF2DE9F047023915469A46D0F803
:1060CC0030244B19934238D88046BAF1000F37D19F
:1060DC00D0F82034994238BFC0F8201401F00704DE
:1060EC000122D8F82C34C1F3C80602FA04F403EBED
:1060FC001139E4B2012249464046914403F084FE32
:10610C00D8B1871900F5007017F8012B224282EAEA
:10611C0004024FEA440414BF0126002656450CD055
:10612C00013D07F8012C17D014F0FF04EED1874283
:10613C0026464FF00104E7D1DCE70020BDE8F087EC
:10614C00D0F820048342C9D98142C7D8934228BFD2
:10615C000023C8F82034C1E70120BDE8F08700BF58
:10616C0070B582B00546002402AE46F8041DD5F881
:10617C00303401990133994202D9002002B070BD2C
:10618C0032462846FFF70CFF013440B20028F4DBFE
:10619C00EDD1204602B070BD70B50E460446D0F865
:1061AC00385400F50470496833682940D4F82C54ED
:1061BC00023B94F8454405EB5121A340194403F0EC
:1061CC0023FE18B17368C3F30803184470BD00BFF5
:1061DC0070B54C680D46D0F838340646A1181C40F2
:1061EC00696090F8453422440933DBB222FA03F497
:1061FC003CB12B7A3BB12B6801332B60013C002C5A
:10620C00F7D1012070BDD6F830342968013399429A
:10621C0002D94FF0FF3070BD2A463046FFF7C0FE62
:10622C0040B20128EAD070BDD0F8303401338B4233
:10623C0001D2FF207047FFF7B3BE00BF01290DD973
:10624C00D0F830340133994210B403D900205DF8F2
:10625C00044B70475DF8044BFFF7BCBE0020704741
:10626C00F0B50C4683B005460F46D5F830340133F3
:10627C009C4202D9002003B0F0BD214601AA284659
:10628C00FFF78EFE012C46B221462846F2D9F20FBA
:10629C00F0D1D5F8303401339C42EBD8FFF79AFE9D
:1062AC00394600230028E5D0621C2846019C0EB11B
:1062BC00A242DAD0D21BFFF7FDFE0028DAD0019CF7
:1062CC00002ED8D02746D0E72DE9F843002480468D
:1062DC00D0F82C6400F50477254631460022384668
:1062EC00013603F091FD28B300F1FF3ED8F830C41D
:1062FC0005F580591EF8010FFF2813D048B108226C
:10630C00012318424FEA430118BF0134013ACBB2C2
:10631C00F7D10835AC4509D94D45DED01EF8010F33
:10632C00FF28EBD108350834AC45F5D8C4EB0C008C
:10633C00BDE8F883BDE8F8832DE9F041002304465D
:10634C004FF0FF3600F504771546C0F84014416055
:10635C001A46C4F814123846194684F8443423708B
:10636C0084F81032E660C4F81C6203F04DFD042D75
:10637C000DD8064658B16DB905222949F01C08F014
:10638C0085FA034618B996F86C20092A1AD0002011
:10639C00BDE8F0816B1E00EB031393F8BE2112F0E5
:1063AC007F02F4D193F8C231002BF0D000EB05152D
:1063BC003846D5F8B651294603F026FD0646002886
:1063CC00DAD1E4E7326D4FF001080146204602EBCA
:1063DC00050E4246C4F824E4776DC4F82874B76DF2
:1063EC003D44C4F82C54F56DC4F83054356EC4F8E3
:1063FC00345496F86D50C4F8203405F1090384F830
:10640C00455408FA03F35D1EC4F83C34C4F8385400
:10641C00FFF7F6FD4023404684F84434BDE8F08194
:10642C00B001002010B50446D0F83414FFF798FEE4
:10643C0094F845340933DBB2984010BD4BB370B4BB
:10644C0044887E2C1FD8134402300A44194412F895
:10645C00013BE4B2A3F16106A4F16105192E94BFCE
:10646C0020260026192DA3EB060394BF202500251A
:10647C00DBB2641BE4B29C4205D18A4206D030F8F0
:10648C00024F7E2CE3D9002070BC7047012070BCF9
:10649C0070470120704700BFD1B1014430B410F8EF
:1064AC00014BD30343EA5202A4F16103A4F120058A
:1064BC00192B98BFECB2814214FA82F292B24FEAD5
:1064CC00C23343EA520292B2E9D1104630BC704753
:1064DC001046704738B50D4604462422002107F0BB
:1064EC00EDFEA560EB79102B08D0202B04D14023B6
:1064FC0001202370A07038BD002038BD202301205E
:10650C002370A07038BD00BF024638B552F8105F3A
:10651C0004468068294601F05DFC50B155B12369F1
:10652C000135AB42A37818BF03F0BF0363F07F03C0
:10653C00A37038BDA37843F04003F7E72DE9F04191
:10654C00037803F020032BB903F0FF044169204BBF
:10655C00994203D900263046BDE8F0810546FFF785
:10656C00D3FF06460028F5D0A96805222B698F7940
:10657C0001F12400023B4969BB405F18394603F026
:10658C0043FC80460028E5D04FF40072214607F00A
:10659C0095FEAB681A79012A10D9012404E0AB6886
:1065AC00E4B21A79A24209D91868E11942460134B9
:1065BC000368DB6998470028F1D1CBE79B794FF44E
:1065CC000072696902FA03F311FA83F36B61C2E793
:1065DC00FFFD1F0010B5044680680A462430A169EF
:1065EC0003F012FC20B1A38803F00F0300EB43105F
:1065FC0010BD00BF30B590F9023083B00446002BBB
:10660C0019DBA56805F1240003F02EFC30B9637882
:10661C00002043F00103637003B030BD05F50D702D
:10662C0003F022FC0028F2D0286803689B69984785
:10663C000028ECD0F0E70121FFF7CCFF054600283D
:10664C00E5D00378E52BE2D023781B0701D5E3696D
:10665C00C361236A0B491A0C6B830B68AA8263B162
:10666C000DF103020DF1060101A89847BDF80430A5
:10667C00BDF806202B836B82EA82A37803F07F039C
:10668C00A370BEE79C21062010B50378044623B9FD
:10669C00002301202370A37010BDFFF7ABFF002374
:1066AC002370A37010BD00BF2DE9F0410C7888B0A9
:1066BC0014F0700F03D1002008B0BDE8F08140F653
:1066CC00022305460C4601F007F90028F3D00122FD
:1066DC0010232846AA702B70FFF730FF0028EAD051
:1066EC002A692B782A62002B7FD101212846FFF7DB
:1066FC0071FF07460028DED0102300687968EE464B
:10670C00FB724FF02E0CBA6808AEFB68B7F8148019
:10671C00AEE80F00BA69FB693869796906F820CDD3
:10672C000DF10A0C7F8BAEE80F003346202203F8E4
:10673C00012F6345FBD1A86801222B6A90F806E073
:10674C002430023B50F8101C03FA0EF3194403F0EA
:10675C005BFB86460028AED0ADF814804FF02E08B7
:10676C00ADF81A7037460FCECEF80000CEF80410F4
:10677C00CEF80820CEF80C308DF801800FCECEF874
:10678C001000CEF81410CEF81820CEF81C30236A66
:10679C001A0CADF81A30ADF814200FCFCEF820003B
:1067AC00CEF82410CEF82820CEF82C300FCFCEF80F
:1067BC003000CEF83410CEF83820CEF83C30AC682F
:1067CC0004F1240003F050FB00283FF474AF04F5EF
:1067DC000D7003F049FB00283FF46DAF206803688F
:1067EC009B6908B0BDE8F04118476B6933B1AB78D1
:1067FC00002223F020032A616A61AB702846FFF760
:10680C00F9FE00283FF457AF6FE700BF2DE9F041C8
:10681C00064692B000200C46317801928DF8240087
:10682C008DF825008DF8260021B99846237813F0B1
:10683C00700F03D1002012B0BDE8F0811378104620
:10684C002F2B2DD0002701AA03A900F00FFE03AABD
:10685C00214600230028EDD0019D30462D78002DD7
:10686C0030D001F039F848B9B8F1000FE2D0214628
:10687C0003AA3046FFF718FF0028DBD0354609ACD9
:10688C0096F800E00FCD0FC40FCD2D680FC4256016
:10689C00BEF1000F12D1377009ACB7700198D2E776
:1068AC000130019003782F2BFAD0A16809A8FFF7CB
:1068BC0011FE0028BED009AC0198C3E73046FFF7A3
:1068CC0099FEE8E703AA21463046FFF7EDFE12B029
:1068DC00BDE8F0812DE9F041064692B000200D464E
:1068EC00317801928DF824008DF825008DF8260062
:1068FC0021B998462B7813F0700F03D1002012B0F9
:10690C00BDE8F081137810462F2B29D0002702E028
:10691C0001983770B77001AA03A900F0A7FD03AA6C
:10692C00294600230028E9D0019C3046247834B352
:10693C0000F0D2FF354609AC0028DFD096F800E015
:10694C000FCD0FC40FCDD5F800C009AD0FC4C4F8DE
:10695C0000C0BEF1000FDBD03046FFF74BFED7E78F
:10696C000130019003782F2BFAD08BB1A96809A8BC
:10697C00FFF7B0FD0028C1D009AD0198C6E743462A
:10698C0003AA2946304600F0A7FF12B0BDE8F081FB
:10699C00A9683046FFF79EFDB1E700BF19B101F2BF
:1069AC004441FFF797BF0846704700BF03780BB10F
:1069BC0000207047FFF78EBD09B90020704738B52D
:1069CC0083789B0701D4002038BD036A002BFAD1D1
:1069DC00044680680D460139837904F1200209339D
:1069EC00DBB2D940013101F037FA0028EBD0A378A3
:1069FC00227863F01F03E561A37002B938BD20460D
:106A0C00BDE83840FFF7F6BD2DE9F04F837883B031
:106A1C000546DF0740F190800F46017891460E073E
:106A2C0000F193808C0608D5826843691289C3EB08
:106A3C0042139BB2994528BF9946B9F1000F00F05B
:106A4C00AA806B6988064E464FF0000805F1100AC3
:106A5C00AA68C3F3080440D5116A01EB5321002C3A
:106A6C0054D1B6F5007F51D3136B99424ED0B6F585
:106A7C00806F73D328784FEA562B800605D4107993
:106A8C00C8EB0000834528BF834699424FEA4B244C
:106A9C000DD801EB0B00834209D202F124000191C5
:106AAC00009203F0E1F9009A0199002844D0906A11
:106ABC005B463A46D0F800E0DEF810B0D847002824
:106ACC003AD06B69361B274423446B6163D0297819
:106ADC00C3F30804AA688806BED492F8058008EAB5
:106AEC005328002C38D1B8F1000F35D1002B3FD1F1
:106AFC0048064CBF136A2B6A2B619179023B506993
:106B0C008B4008EB00011944002CAAD002F12400A0
:106B1C00002203F079F978B1C4F5007301193846F5
:106B2C00B34228BF33461A461C4603F019FBC8E78C
:106B3C002B7813F0700F2FD16B784FF0FF3043F0A0
:106B4C0002036B7003B0BDE8F08FC36942699B1AF6
:106B5C00994528BF994670E72B69CEE7906A3A466B
:106B6C000368DB6898470028E6D04FF40074A8E768
:106B7C00090705D5AB785B0602D52B690133BBE75A
:106B8C0010462969524601F0B9F80028D4DBCFD061
:106B9C00AA682B69B1E70026C6EB090003B0BDE873
:106BAC00F08F00BF70B582B00122044646690DF12A
:106BBC0007010569FFF728FF012866610CBF9DF8E6
:106BCC0007004FF0FF30256102B070BD436930B54E
:106BDC00C3F3431583B00446B5FA85F252098A42D1
:106BEC0007D220334361A068343000EB451003B06A
:106BFC0030BD01220DF10701FFF706FF40B201285D
:106C0C0003D163691F336361EDE70020EFE700BF39
:106C1C002DE9F04305789BB0002415F0180F8DF882
:106C2C0020408DF821408DF822408DF844408DF89D
:106C3C0045408DF8464004D0866803468D68AE42C8
