:0200000460009A
:100000004643464200000156000000000103030081
:1000100000000000000000000000000000000000E0
:1000200000000000000000000000000000000000D0
:1000300000000000000000000000000000000000C0
:1000400000000000010408000000000000000000A3
:100050000000800000000000000000000000000020
:100060000000000000000000000000000000000090
:100070000000000000000000000000000000000080
:10008000EB04180A063204260000000000000000FD
:10009000050404240000000000000000000000002F
:1000A0000000000000000000000000000000000050
:1000B0000604000000000000000000000000000036
:1000C0000000000000000000000000000000000030
:1000D00020041808000000000000000000000000DC
:1000E0000000000000000000000000000000000010
:1000F0000000000000000000000000000000000000
:10010000D8041808000000000000000000000000F3
:100110000204180804200000000000000000000095
:1001200000000000000000000000000000000000CF
:10013000600400000000000000000000000000005B
:1001400000000000000000000000000000000000AF
:10015000000000000000000000000000000000009F
:10016000000000000000000000000000000000008F
:10017000000000000000000000000000000000007F
:10018000000000000000000000000000000000006F
:10019000000000000000000000000000000000005F
:1001A000000000000000000000000000000000004F
:1001B000000000000000000000000000000000003F
:1001C000000100000010000001000000000000001D
:1001D000000001000000000000000000000000001E
:1001E000000000000000000000000000000000000F
:1001F00000000000000000000000000000000000FF
:10020000FFFFFFFFFFFFFFFFFFFFFFFFFFFFFFFFFE
:10021000FFFFFFFFFFFFFFFFFFFFFFFFFFFFFFFFEE
:10100000D10020432914006000000000000000000F
:10101000201000600010006000F800600000000078
:10102000000000600004010000000000FFFFFFFF5F
:10103000FFFFFFFFFFFFFFFFFFFFFFFFFFFFFFFFC0
:10104000FFFFFFFFFFFFFFFFFFFFFFFFFFFFFFFFB0
:10105000FFFFFFFFFFFFFFFFFFFFFFFFFFFFFFFFA0
:10106000FFFFFFFFFFFFFFFFFFFFFFFFFFFFFFFF90
:10140000884207D0904205D251F8043B40F8043B93
:101410008242F9D8704700BF884204D2002340F8C6
:10142000043B8142FBD87047664B4FF42A01664A61
:1014300066482DE9F0475A641864654A99639546F1
:10144000BFF34F8FBFF36F8F00F06EF9614B082031
:10145000614A6249C3F854016148FFF7D1FF614A0C
:1014600061496248FFF7CCFF61496248FFF7D4FF4A
:10147000614C62494FF470000023614A086044F8EF
:1014800023200133B02BFAD15E4B80215E4A03F852
:10149000011B9342FBD14F4D4FF080385B494FF019
:1014A000FF325B4B0026DFF8A4A1DFF8A4911C609B
:1014B000C5F80481C5F800A1C5F8F480C5F8F0901E
:1014C0000B68544F43F4E0230B60FB693D4923F064
:1014D0007F0343F04003FB617B6A23F07F0343F00B
:1014E00040037B628A66CA660A674A6700F022F98F
:1014F000494A4A4B6320A2630321E363484A494BAC
:10150000106000F160401E6042F8041C00F6A170FB
:101510004549464AC3F8082D0B68454A43F0807395
:101520000B601368434943F00103136003680B60C9
:1015300000F050FBC5F804813F48C5F800A1C5F88C
:10154000F480C5F8F09000F0F3FCF96E3B4A41F4EA
:1015500040513B4BF9661660C2F80861C2F8186149
:10156000C2F82861C2F838619A6BD20708D442F6F3
:101570001562344959651A659A6B42F001029A6303
:101580002F4A314C936843F00113936000F044F903
:1015900000F080FC00F0C4FC00F04EFB00F0C6F848
:1015A0002368132BFCD900F0D5FB2368B3F5967F95
:1015B000FBD300F0BDF800F09FFC00F0ADFC30BFA5
:1015C000FDE700BF00C00A40AFAAAAAA070020009A
:1015D0000000072000800D40C8C3000064210060A7
:1015E000000000000412002030E500600000002030
:1015F000C0420620041200200028062088ED00E0EA
:10160000258B000000E400E0A0E400E024ED00E011
:1016100008ED00E000C00F40059F0000099F00009A
:1016200014E000E018E000E0FCED00E00000202005
:10163000001000E0381D06200046C323004008408B
:1016400000400D400000C056401D06201B10182011
:101650000C0D11132DE9F0412F4F00254269012493
:10166000B96B4FF0020E16684FF4303821F47C014C
:101670000369DFF8B0C041F48021B963316857686D
:10168000394331604FF00111244EC3F810E01D6161
:10169000C3F848C05C629E624FF66106C3F82C80B6
:1016A0009F6C1F651D6299651C61017E1C4B02EBDE
:1016B0000111097A03EB011189680E60017E02EBCA
:1016C00001110C7ACD6803EB041149680D60017EAD
:1016D00002EB01110C690CB149692160417E4FF6A2
:1016E000610402EB011191F8281003EB01118968E4
:1016F0000C60417E02EB011191F82840C96A03EBAE
:1017000004135B681960437E02EB0312136B0BB189
:10171000526B1A60BDE8F08100C00F40B80B0505A0
:10172000080200203B372819704700BF704700BFF0
:10173000704700BFF0B5244A0020244B4FF0100C36
:10174000234C1126DFF8C8E0122720600125C2F8DB
:1017500000C0C3F800E01660DFF8B8E01D4EC3F823
:1017600000E01D4917601E6041F015011B4F1C4E23
:1017700017601E601B4F1C4E17601E601B4F1160D0
:101780001B4E1C491F6016601B4F19601B4E1C49E5
:1017900017601E601B4F11601B4E1C491F601660B6
:1017A00019602560BFF34F8FBFF36F8FC3F8B0018F
:1017B000BFF34F8FBFF36F8F52F8883C43F4403331
:1017C00042F8883CF0BD00BF9CED00E0A0ED00E0D9
:1017D00094ED00E009001000C04206201300200034
:1017E0002100020714000020250008130900001042
:1017F0001600202027000B131700004033001013A1
:10180000180000602F000B07190000702F000B1349
:101810003F00001025000803F0B58D4B18228D4EB7
:1018200001208D4948F20C7E8C4D4FF0FF378C4CD7
:1018300083B0C3F85C12C3F860520025C3F8641289
:10184000C3F868424FF40054C3F86C628549C3F88A
:101850007062C3F87462C3F87862834EDA661A67FE
:101860005A679A67DA67C3F88020C3F88420C3F800
:10187000882040F20562C1F82C03C1F83003C1F89A
:101880003403C1F83803C1F83C03C1F850032946BA
:10189000B36976481840764B03437648B361D6F86F
:1018A000843043F00C03C6F88430022603683343C7
:1018B0000360036803EA0E0E6F4B4EEA0303DFF882
:1018C000F0E103606D4B4760DEF808703B406C4F01
:1018D00043F000538360C36823F07803C360036A56
:1018E0001F40684B3B43664F0362036A1F40654BD2
:1018F0003B43654F43628762C762DEF8B830634F8F
:1019000023F03F0343F00103C0F8B830DEF8BC30E9
:10191000DFF884E123F03F0343F00103C0F8BC305B
:10192000056104660767C0F8802044664767C0F811
:1019300084200468564B24F00204564A0460C0F820
:1019400018E0C66143F8041B9342FBD1494B1A6867
:10195000194642F001021A600B68464A13F001036F
:10196000FAD14D4E022540F2F56440F2664040F255
:1019700099414A4F966142F20146D56140F23545A0
:10198000C2F8004242F20124C2F810020120C2F85B
:1019900020121146C2F8307207F15A47C2F8346279
:1019A00007F51377C2F840523D4E3E4DC2F85072D3
:1019B000C2F85462C2F86052C2F86442C2F8A03061
:1019C000C2F8A430C2F8B0004B692A4ADD07FBD543
:1019D000012300244FF4803011465361C2F8A04027
:1019E000C2F8A400C2F8B0304B69224ADC07FBD52C
:1019F000012300244FF4003011465361C2F8A04087
:101A0000C2F8A400C2F8B0304B691A4AD807FBD517
:101A100001230024244811465361C2F8A040C2F8B3
:101A2000A400C2F8B0304B69124ADB07FBD5D2F8EC
:101A3000003145F60D5121209BB250618B4239D0C7
:101A40001A4B00221A605A609A60DA6003B0F0BD47
:101A500000801F40F9700100F9B00100F910010089
:101A6000F900010000841F4000C00F40FFFCFF1F71
:101A7000000300A000402A401200FFFFFF37F700DC
:101A800000FFF07C40000080FF000F836300020035
:101A900000422A4000432A40F05AF05A9F0418306E
:101AA000063201263806180A040003000024062026
:101AB00000802A4000244FF4802001231146C2F800
:101AC000A040C2F8A400C2F8B0304B693B4ADF071F
:101AD000FBD501234FF40004002011465361C2F8E6
:101AE000A040C2F8A400C2F8B0304B69334ADE0708
:101AF000FBD501234FF400044FF4803011465361AD
:101B0000C2F8A040C2F8A400C2F8B0304B692B4A1A
:101B1000DD07FBD501234FF400044FF400301146DC
:101B20005361C2F8A040C2F8A400C2F8B0304B69BB
:101B3000224ADC07FBD501234FF40004204811465C
:101B40005361C2F8A040C2F8A400C2F8B0304B699B
:101B50001A4AD807FBD5D2F8003145F60D5121209D
:101B60009BB250618B4210D0164B08224FF40004F8
:101B70001A7015490020154A01230090521A144882
:101B8000224400F0C5F903B0F0BD4FF400044FF457
:101B9000802101231046C2F8A040C2F8A410C2F868
:101BA000B03043690549DB07FBD50120054B102206
:101BB0004FF0807448611A70DBE700BF00402A4094
:101BC00004000300441D06200000007000000070A7
:101BD00000240620F0B4174A40274FF480314FF418
:101BE00080564FF400554FF4404443F242001369CD
:101BF00013F0020F06D0946151619061136913F0E4
:101C0000020FF8D113F4005F01D15561EFE713F42F
:101C1000805F01D15661EAE7002BE8DA13F4803FD8
:101C200001D09161E3E75B0601D45761DFE7F0BCC7
:101C3000704700BF00800D40394A03203949F3EE58
:101C4000095A13689FED386A23F00103DFED376A04
:101C5000F0B4136000241061D1F8E030344FD8B2F2
:101C6000C3F30B211B0D334E07EE100A05EE101ABD
:101C700007EE903A304BB8EEC55A304DB8EEC77A01
:101C80003060F8EEE77A29602D4937EE466A2D4E2E
:101C900077EEC57A2C4877EE666A2C4D37EE657A7A
:101CA00026EE276AC7ED007A66EEA76A176867EE28
:101CB000277A83ED007AC6EE075A86EE876AC7EE6A
:101CC000876A35EE857AFCEEC77A36EE057A17EE2E
:101CD000903ABCEEC77A47EA035376EE857A1360F2
:101CE00017EE103AD2F81071FCEEE77A01EA0341E0
:101CF000394317EE903AC2F81011C3F30B03D2F830
:101D000010110B43C2F81031136843F00203136043
:101D10003470C0F840510E4B0122F0BC1A6070477D
:101D200080810D4000441F400000AA420000B442E0
:101D3000501D0620481D06204C1D0620541D06205F
:101D40000000FF0F40E400E000280620E98C0000BE
:101D500008E100E0304B40F6617270B5C3F8202115
:101D600040F2044500F0D0F82C492D48D1F88020ED
:101D70002C4C42F003022C4BC1F88020C0F860517B
:101D8000226813401BB9D0F8A8319A071AD0244B07
:101D90004FF00041234A51631A46D3F8401141F0F5
:101DA0000201C3F84011D2F840319B07FBD44FF435
:101DB00000301E491B4B4FF00042086019209A6307
:101DC00000F09EF81A4D0022164B4FF08041144C43
:101DD0000A26996328461A601146C4F8A8614FF490
:101DE000207200F0A1F84FF4810640F243114FF445
:101DF0008000104B104A2E602864C4F85851C4F873
:101E00004811C3F804220D4A4FF400310123116038
:101E1000C4F8403170BD00BF00800D4000C00F40CD
:101E200000002E4000900D40001C1E008CE200E0DF
:101E30000040062000280620958E00000CE100E0FE
:101E400008B50E4B1B6E9B0700D4FBBE72B60C4B45
:101E500000200C4AC3F8400103F160430A49A3F58E
:101E60005F2311649D46BFF34F8F084A03F5E0439B
:101E700007491268184619609368984700441F4044
:101E800000002E4000C00A40030020001C0020007B
:101E9000000012EB114B1249D86E0A4640F4403054
:101EA00030B4D86640F23765D86EA02440F4407054
:101EB000D8664D648C64936C1B06FCD4094B40F2CD
:101EC0003760A0211A4658649964936C13F080031C
:101ED000FBD1054A137030BC704700BF00C00F40F3
:101EE00000400C4000800C4051200620F8B500BF97
:101EF000F8BC08BC9E4670475FF800F0ADB8000023
:101F00005FF800F0658600005FF800F0359600008D
:101F10005FF800F005AA00005FF800F001A80000DB
:101F20005FF800F06D8800005FF800F0F1BE00007F
:101F30005FF800F0A183000045000000450D00009F
:101F4000391F0000511F0000691F0000811F0000A1
:101F5000991F0000B11F0000C91F0000E11F000011
:101F6000F91F00001120000029200000412000007E
:101F7000592000007120000089200000A1200000ED
:101F8000B9200000D1200000E9200000012100005C
:101F900019210000312100004921000061210000C9
:081FA00079210000D12B0000A3
:101FA80080C00F400000000319000000100000006E
:101FB800E8841F4001000000FF000000FF0000004F
:101FC80000000000000000001800000010000000E1
:101FD800E4841F4001000000FF000000FF00000033
:101FE80000000000000000001F00000070C00F404B
:101FF800000C00001100000011000000E0841F40E8
:10200800020000002C00000012000000E0841F40C5
:10201800010000001000000011000000DC841F40D7
:10202800020000002D00000012000000DC841F40A8
:10203800010000001E00000070C00F40C00000003A
:102048001200000013000000D0841F4001000000AF
:10205800FF000000FF00000000000000000000007A
:102068001300000013000000CC841F400100000092
:10207800FF000000FF00000000000000000000005A
:102088001C000000160355005300420020005300B6
:1020980065007200690061006C00000018035400BC
:1020A800650065006E0073007900640075006900C2
:1020B8006E006F000403090409024B00020100C00E
:1020C80032080B00020202010009040000010202AA
:1020D8000100052400100105240101010424020661
:1020E80005240600010705820310001009040100F9
:1020F800020A0000000705030240000007058402E9
:102108004000000009024B00020100C032080B0029
:102118000202020100090400000102020100052474
:10212800001001052401010104240206052406000B
:10213800010705820310000509040100020A0000D6
:1021480000070503020002000705840200020000E0
:0C2158000A060002EF0201400100010134
:10216400000000000000000000000000000000006B
:10217400000000000000000000000000000000005B
:1021840010B5054C237833B9044B13B10448AFF3AD
:1021940000800123237010BD041200200000000001
:1021A400C4C30000084B10B51BB108490848AFF37D
:1021B40000800848036803B910BD074B002BFBD00F
:1021C400BDE81040184700BF0000000008120020BE
:1021D400C4C3000004120020000000000160704726
:1021E400006803681B691847006803681B68184780
:1021F400FFF7FABF0346042210B4416053F8040BFE
:102204000468194663685DF8044B184710B5044622
:10221400206803681B6998470028F9D02068036880
:102224005B699847C0B210BDFFF7F0BF10B5044614
:10223400206803681B6998470028F9D02068036860
:102244005B6998472071206803681B6998470028D8
:10225400F9D0206803685B6998476071A08810BD55
:1022640010B50446206803681B6998470028F9D014
:10227400206803685B6998472071206803681B69BC
:1022840098470028F9D0206803685B699847607113
:10229400206803681B6998470028F9D02068036800
:1022A4005B699847A071206803681B6998470028F8
:1022B400F9D0206803685B699847E071606810BDD5
:1022C400006803685B68184700680AF02FBB00BF0A
:1022D400FFF7FABF00207047704700BF4FF0FF3090
:1022E400704700BF704700BF044B10B5044640F868
:1022F400103B06F08BF8204610BD00BF08000020FC
:1023040010B504460AF0B4FA204610BD2DE9F04F8A
:10231400B64C23782DED028B83B0002B00F0AC80FB
:10232400B3490B78002B00F0EE80B24BDFF850A3DA
:102334001B78002B00F02B819AF80030002B00F062
:102344000C82AD4D2B78002B00F02482AB4BAC4EAD
:1023540001931B78AB4A3768002B00F0628302EBD1
:10236400870EA94BBEF93824BEF93A041A80588066
:102374000137DFF810E33760A44F3E78002E40F0B9
:102384009782A34E07EE902ADFF8FCC23288B8EE9B
:10239400E77A07EE900ADFF8F4820CEB8200F8EE9D
:1023A400E77AB8F800C0D0ED006A27EE267A67EE27
:1023B400A67ABDEEC77AFDEEE77A17EE108A17EE1D
:1023C400900AA3F800805880013292B262453280AC
:1023D40000F093828F48904A90F800B028784FEA32
:1023E4004B0C8E4E0CEB00088D4D56F8286037468A
:1023F40000962E688B4D07EB06088A4F2D68013531
:1024040045453D6000F02B82DEF80060DFF88082F5
:10241400D8F80080B04500F01182DFF87882824E4F
:1024240096F80090D8F800600136C8F80060B9F159
:10243400000F00F0F4817D49096889B1DFF8588202
:1024440098F80080B8F1000F00F08482DFF83C8235
:102454000139B8F80080C8EB01018E4200F0158301
:102464006044734951F820108D4200F0568221785F
:10247400107881F0010114E06E4A117851B16E4870
:102484000168182940F2AA806C494FF40000C1F891
:10249400840013706A4B197829BB5F4A01215A4B97
:1024A4001078217040B152490020664E644C0125D9
:1024B400087010703060257023F01F036249BFF369
:1024C4004F8F624A136020339942FBD8BFF34F8F7A
:1024D400BFF36F8F5E4A5F4B1279DA7703B0BDECBE
:1024E400028BBDE8F08F574E30681C2840F2D8802C
:1024F40052484FF400060025474AC0F888601D7012
:102504001078414BCDE7544B1978002961D05349D9
:10251400012553480A780570002A00F0CF80514DF8
:10252400514E524ADFF874E1514F96ED006B95ED30
:10253400007B167837EE067B012EFCEEC76B85ED2B
:10254400007BCDED006ABDF800204FEA520C3A80C2
:10255400AEF800C000F0AA80002E40F0AC80454EDA
:102564003688B24200F2A78007EE906A00223E80CD
:10257400B8EE677B0A7085ED007B002E40F09E80EC
:102584001E700021244A204B0170107889E79AF8C4
:102594000030002B00F0C6801E4A374B92F800B082
:1025A40013F80B30002B40F00981144B144E0193A7
:1025B4001B78324A3068002B00F04482124B52F8E8
:1025C40020201A6001300C4DDFF8B8E03060124A68
:1025D40004E70D4B104A1960107862E70131184B7B
:1025E4000160197800297FF47EAF56E73D17062075
:1025F40004330020FD3300207912002077120020DC
:10260400DC33002048A523202012002031120020B2
:10261400FC3200208835002002330020DC34002006
:1026240050220420A4340020013300200833002069
:102634005C32002030120020E03300200080004291
:10264400B02204206C1200202412002070EF00E05D
:10265400CC22042000800E403C1706208235002046
:102664008D080020B82204202812002076120020B1
:10267400741200200633002040170620000020209A
:10268400E4330020A83400201C1300208E0800200E
:1026940038170620183300207C3500204C220420F3
:1026A400451CAF4AAF4B10783560FAE6AE4E36881B
:1026B400B242BFF459AF002A3FF463AFAB4B1B786F
:1026C400002B00F08B81012B40F0A280A84D95EDEA
:1026D400008BB0EE480B0AF08FFAA64BA6491B8874
:1026E400A64A07EE103AA64BB8EEC77B91ED006BF5
:1026F40027EE000B36EE086BB8FE407BFDEEC77B81
:1027040085ED006BCDED007ABDF9005028461580AB
:102714001D80944B2178924A588081F001011D80DC
:102724001078BEE6974B1B78002B61D1964BDFF8EF
:10273400A4E201931B78954ADEF80000002B61D0D7
:10274400884B52F820201A60914A0130914D92F83A
:1027540000B0CEF80000824A40E68A4B1B78002B7A
:102764003CD1894BDFF86CE201931B78002B00F01D
:1027740082818648DEF800507A4B6A00561C30F994
:10278400122030F916001A8058806E1C814DCEF844
:102794000060F1E57C4B804E01931B78002B00F028
:1027A400618137687D487A006E4B02F1010E30F981
:1027B400122030F91E001A805880D9E5724B764EEB
:1027C40001931B78764A3068002B00F0338102EBCA
:1027D4008002644BD2F838241A60F3E66A4BDFF8BF
:1027E400F4E101931B78002B00F032816D48C1E7BE
:1027F400654BDFF8E0E101931B786A4ADEF80000DC
:10280400002B9DD1574B32F910201A805A809BE738
:102814005A4A5B4BB2F90050B3F9000079E7624EB3
:10282400604436787EBB614E56F82060B5427FF432
:102834001EAE207880F00100207035E6DFF8448178
:102844004FF00109002798F80060CEF80070C6EB3D
:10285400090688F80060564E86F80090DDE5DFF83A
:1028640024914FF00007CEF8006099F800808AF8B0
:102874000070C8F101084E4F89F800804FF001083C
:1028840087F80080C2E5494E4A4F56F820603888E0
:10289400301A01388542C9D10120DFF83CE1DFF864
:1028A4001CC1454F8EF800003870ACF80090BDE7AD
:1028B400DFF800C107EE902A404E07EE100ABCF87C
:1028C40000C0F8EEE77A3288B8EEC77A3C48C2EB2B
:1028D4000C0800EB880050ED016A67EEA67A27EE3B
:1028E400267AFDEEE77A17EE900AFDEEC77A188095
:1028F40017EE908AA3F8028066E538780022314EFC
:102904002D4F32703A7000283FF464AD144A01260A
:102914001F48167090F800B060E5019900982A4DA0
:1029240009782860002975D028481B4950F82B00E5
:10293400086000990120264D8900124E8AF8000093
:102944003070296000251A4E2946CEF800503070A8
:102954001078A6E58E427FF683AD012111707FE5E4
:10296400023300202012002006330020D416062053
:10297400381200204C220420103300207E35002021
:102984008035002083350020771200204C3A002047
:102994008835002079120020DC330020000020203C
:1029A40048A523204C2E02207C3500205C320020D8
:1029B400C82204208E080020FD330020FC320020B1
:1029C4001C1300207D350020A4340020582204204C
:1029D400D8160620A834002031120020324F0BF004
:1029E40089FB324E3B883288314D90FBF3F101FB79
:1029F4001300831A2B800BF07DFB3B8831882D4A12
:102A0400B5F9005090FBF3F606FB1300401A00B230
:102A140010807EE62849294851F82B1049000160AE
:102A240087E702EB4702264BB2F9382410461A8096
:102A34005A809DE402EB4002214BB2F938241A80FB
:102A44005A80BFE51E4B32F910201A805A80B9E52E
:102A54001C4ADEF800501A4B32F9152010461A8031
:102A64005A8092E6184A3768154B32F917201A80B3
:102A740010465A807CE4154ADEF80050104B32F9B7
:102A840015201A8010465A807FE64FF00109104E37
:102A940010494FF00008104F86F8009087F8009016
:102AA400A1F80080DCE400BF741200204C22042052
:102AB4007E3500208035002058220420DC3300209D
:102AC400201200204C2E0220000020204C3A00202E
:102AD40031120020FC320020FD33002010B50446E2
:102AE40009F084FA204610BD0C4A13787BB10C49D6
:102AF4000B787BB90B480C4B10B41B8804881B1B48
:102B04005DF8044B0380012313700B707047054874
:102B140003490380012313700B707047FD330020B9
:102B240031120020FC3200208E080020024BD3F822
:102B34008C0403689B68184790350020836C13B19C
:102B4400184604F04BB9C06C08B102F0F3BA4FF068
:102B5400FF307047826C62B1137803F0080303F00E
:102B6400FF000BB3D3695069181A48BF6FF00040D7
:102B74007047C16CC9B191F8313003F0080303F018
:102B8400FF008BB1D1E90423D1E9000130B4101A5C
:102B94004FF000056FF0004463EB01018D4208BF64
:102BA400844200D2204630BC70470846704700BFBC
:102BB400836C13B1184604F073BBC06C08B102F007
:102BC40083BF7047836C13B1184604F0ABBBC06C71
:102BD40008B103F0C9B9704700B5836C83B08DF8B0
:102BE400071043B1184601220DF1070104F09AFBC6
:102BF40003B05DF804FBC06C0028F9D001220DF18C
:102C0400070103F0B1F903B05DF804FB836C00B570
:102C140083B063B1184601220DF1070104F010F8E6
:102C240001280CD19DF8070003B05DF804FBC06CCB
:102C340028B101220DF1070102F0A2F9F0E74FF0EB
:102C4400FF30F1E71C491D4BCA6F42F44022CA67AA
:102C54009A68002A2FDBD3F88820002A2BDB012274
:102C640001F57C214FF48030F0B50326144D002487
:102C74004FF0844EC1F82861124FC1F824614FF01F
:102C84000076C5F890211049C5F8A4210F4D1C66A3
:102C9400DA60C3F810E058619F61D961C3F8E0407D
:102CA400C3F88C20C3F89060C3F89400C3F898501C
:102CB400C3F89C10F0BD704700C00F40004038407E
:102CC40000841F401B1F0100001F1F1F1A1F01004B
:102CD400F8B5254C0121254D40F201162046244F1C
:102CE40009F034F9FFF7AEFF224B032102226FF003
:102CF4000300DFF89CE0C3F8801100212368DFF8AB
:102D040094C01D6001259A80DE80D86026791A4817
:102D1400DA829A60DA8399619A839982C3F810E01F
:102D2400164A40F8261040F8267015492379154EA6
:102D3400D37603F01F02D1F8880003F1100705FAD7
:102D440002F25B1140F01040DFF84CE0C1F888005B
:102D54000D48C1F808C046F827E00C4940F8232084
:102D640023795D54F8BD00BFCC220420201200203A
:102D74001400008000801F4000C00E4000800E4000
:102D8400004038400028062000E100E000E400E0B4
:102D94002240384001000090AD01000030B4144DD1
:102DA400144C2B6821688B4204D21A4642F8040B57
:102DB4008A42FBD323F01F03BFF34F8F0E4A1360E5
:102DC40020339942FBD8BFF34F8FBFF36F8F2B682B
:102DD40021688B4203D308E004338B4205D21A687E
:102DE4009042F9D0002030BC7047012030BC7047BD
:102DF400C02204201C33002070EF00E028B1012819
:102E040002D10348FFF710BA70470248FFF70CBA23
:102E1400AC3400203017062028B1012802D1034821
:102E2400FFF704BA70470248FFF700BAAC34002039
:102E34003017062028B1012802D10348FFF710BA41
:102E440070470248FFF70CBAAC3400203017062054
:102E540010B5124C41212046FFF7CAF92046022141
:102E6400FFF7C8F920460421FFF7C2F904222046DF
:102E74000B49FFF725FA20460121FFF7B9F920464F
:102E84002321FFF7B5F920461421FFF7B1F92046B5
:102E94000021BDE81040FFF7ABB900BFAC340020FF
:102EA40088080020F8B5264D0024264901272A4623
:102EB40025480AF099FD254E254B0721DFF8C0E08F
:102EC4002A46C3F8906429262248C3F8A4E4C3F828
:102ED4009C041846C3F8A81483F8B17483F8B36447
:102EE400C3F88044C3F8844483F8984483F899442D
:102EF40083F8B64418490AF077FD184B4FF47A71F9
:102F0400174E184F184699602A461C711C739C640E
:102F1400DC6415491F600AF067FD2146304609F05C
:102F240015F82A46304611490AF05EFD1049114849
:102F3400FFF754F910491148BDE8F840FFF74EB9BE
:102F440074080020A10100007C08002094010020E6
:102F5400903500203C01002085010000DC1606208D
:102F6400CC2204202C000020890100007D090000EF
:102F7400B0090020301706204C090020AC34002092
:102F840000093D0070B50B4C430001251646204650
:102F940084F83D3084F8605084F85F5007F0C6F838
:102FA4003146204607F0C2F829462046BDE8704065
:102FB40007F09CB9A408002008B5102202214D2076
:102FC400FFF7E0FF112201214D20FFF7DBFF002274
:102FD40002214D20FFF7D6FF102202214D20FFF7DA
:102FE400D1FF2C2208214D20FFF7CCFF02225221D1
:102FF4004D20FFF7C7FF022253214D20FFF7C2FFE8
:10300400022255214D20FFF7BDFF002256214D20FD
:10301400FFF7B8FF112209214D20FFF7B3FF032268
:103024000C214D20FFF7AEFF002228214D20FFF791
:10303400A9FF7D2225214D20FFF7A4FF00220421B2
:103044004D20FFF79FFF30220E214D20FFF79AFFFE
:10305400324B4BF680321B68934257D039D9304AF1
:10306400934234D02F4A934211D1012220214D2082
:10307400FFF788FF3F2221214D20FFF783FF2A4BD2
:103084001B78EBBB042256214D20FFF77BFF012266
:1030940013214D20FFF776FF002213214D20FFF767
:1030A40071FF31223D214D20FFF76CFF31223E217B
:1030B4004D20FFF767FF002241214D20FFF762FFFB
:1030C400002202214D20BDE80840FFF75BBF032228
:1030D400CCE74AF644429342D9D1072220214D201D
:1030E400FFF750FF3F2221214D20FFF74BFF0E4BEE
:1030F4001B786BB1282256214D20FFF743FFC6E70A
:103104000C2256214D20FFF73DFFC0E70722ADE713
:10311400202256214D20FFF735FFB8E78408002010
:103124000077010000EE020089350020754B4FF452
:103134007A71754A7548F0B51B784FF0E046744DC6
:1031440095B003F5E06300242E601B05714F724EA9
:10315400136009F0E9FB01211E2007F0F7FB0121B0
:1031640021206E4D07F0F2FB21461E2007F0E8FBFC
:103174002146212007F0E4FBFFF7AAFD68480BF085
:10318400CBF9224601216020FFF7FCFE654B0221AA
:1031940060201A783F2A28BF3F22FFF7F3FEFFF78B
:1031A4000BFF614B2246614961481C7009F044F8E9
:1031B40022464EF6602E21465E4B5F4C5F48134418
:1031C40047F8041F01F6B83114441044714546F819
:1031D400042C45F8043C1A4646F8084B45F8080BFD
:1031E400EAD1574C4FF0000104F59265284606F0E9
:1031F40029FB2846C4F88C5405F098FE20B9D4F86D
:103204008C14204605F0CCF9D4F880444C4B002CA7
:1032140051D000262146012368464A4A6D468DF85E
:1032240000608DF801608DF8026003F0D3FC002883
:103234003DD1284640F20223424A414905F016FA9C
:10324400414D029A04A99DF80C3005F110009DF837
:103254000440AA602B732C7105F0ECF83B4B04A8D6
:10326400009305F0D3F8A86C00283AD0384903F04D
:10327400BFFC384C02E0FFF759FC10B12378002B57
:10328400F9D1354B354A1978354B525CA86C02EBB1
:1032940041022D4C53F82210890050B303F0F4FE80
:1032A400304B01221A70FFF787FE15B0F0BD684657
:1032B40004F03AFBBDE7D3F884146D460029B8D076
:1032C4000123204A68468DF831408DF832408DF84C
:1032D400334002F03BFA0028ABD0684602F0A6FA6D
:1032E400A7E7E86C0028C4D0194A002302F02AFD9D
:1032F400BFE7E46C002CD3D003460A46204601F015
:103304002FFFCDE7441D06201C330020B009002008
:10331400C022042054220420E03400206032002023
:10332400A40800207808002000330020F4061400CC
:103334004C09002000E4570000DD6D0000C1C50009
:103344009035002048000020DC16062008000020EC
:103354000080EE36FC33002088350020401706201C
:10336400DC34002089350020CF2810B50CDDFF2483
:1033740022463D214D20FFF705FE22463E214D20E9
:10338400BDE81040FFF7FEBD3030C4B2F0E700BF27
:1033940020B1C02201216020FFF7F4BD02460121C3
:1033A4006020FFF7EFBD00BFF8B54D4D2978002927
:1033B40063D001295FD14B4808F076FE0028FAD08B
:1033C400484808F085FE2978474C012920705CD0D4
:1033D4002278464B9B5C002B4CD045495300454812
:1033E400895C454D18445E18444F445C55F82600EA
:1033F400434E444D397030602C70002C49D0424DFE
:1034040040F6B836414F4FF4FA4455F82220404D67
:103414003A60404A2E6014603F4A5F183F4D800076
:1034240013443F4E55F8277001225B5C00213D4D4B
:103434005B1A30603C4C18BF01233C4E20782B7043
:103444003B4D3C4B37602A701A703B4F3B4E3C4D12
:103454003C4B3A7032702960196050BB3A4B1B7870
:10346400002B36D139490120394B002208701A60EB
:1034740001232370F8BD1C4CAAE73648FEF7D4FE9E
:103484002978194C01292070A2D1164809F0A0F816
:103494009EE71D4C41F2707E1C4E4FF47A4554F861
:1034A40022201B4F52001B4CC7F800E032602560FD
:1034B400B2E7294B1B78002BDAD0284B1A782AB1B3
:1034C4002749284A08881288121A0A8000221A708A
:1034D400CEE7214D2149224B2A7008701880C1E79C
:1034E4004E2204204C09002088350020203300207F
:1034F40040170620B4340020DC3400207912002068
:10350400A43400207712002058220420DC33002049
:1035140050220420381706204412002004340020CE
:10352400D81606200133002004330020083300207D
:1035340083350020C8220420E43300203D170620F0
:10354400A8340020183300207C35002030120020DD
:10355400E033002030170620FD3300203112002014
:10356400FC3200208E08002008B51F4808F09CFD9E
:1035740000281EDD1C4808F0ABFD1C49C0B21C4AE3
:10358400012350280870137021D013D9582817D05C
:10359400782823D1144808F087FD0028FAD012486F
:1035A40008F096FD134BC0B2134A1B781070834287
:1035B40006D008BD2A2810D1104B00221A7008BD6D
:1035C4000F4B1B785BB90F4B01221A7008BD0E4AD2
:1035D4001370BDE80840FFF7E7BE08BD08BDBDE8AD
:1035E4000840FFF781BA00BF4C090020A82204203C
:1035F4004E2204208835002078120020B1220420B5
:103604007C35002002330020FE3200200000000040
:103614002DE9F04FAA4C0023AA4D83B026782B70D5
:10362400002E00F0A480A84B1B7823B1A74E33785A
:10363400002B40F0EB8023783BB1DFF80493A44BDC
:10364400D9F800201B689A4202D303B0BDE8F08F7A
:1036540040F2AF429F49A04809F0AAF89C4BD9F820
:1036640000201B68013B934200F018819B4B1A46D3
:1036740001934FF4FA33136008F07CFB0028FBD06D
:10368400974D4FF0000B019BD5F80080D3F800A0B4
:10369400944E954F06E02968B868C8EB0101814251
:1036A40080F0A381CBEB0A0106EB0B0008F0CAFA09
:1036B40083448D4BDA45EED88C4E8D4DC6F800B060
:1036C40002E0FFF733FA10B12B78002BF9D1DFF8C1
:1036D4002882884FD8F848003968002800F03483DD
:1036E40003F0D2FC02E0FFF721FA10B12B78002B93
:1036F400F9D1019BD8F848001A687F4B002800F0E4
:103704007781784903F00EFE02E0FFF70FFA10B15B
:103714002B78002BF9D1D9F800507DB9774B784A32
:103724001B78D35C002B40F07481764B42F6E06248
:1037340075481B686B49184406F048FE019B3168C4
:103744001A683B688A4213443B6002D06F4B0022E4
:103754001A705F4B01351B68C9F800509D4200F098
:1037640031835D4803B0BDE8F04F09F081B8684883
:10377400FEF736FD002842D1664808F095FC002883
:1037840000F33E81287800283FF44DAF4E2800F026
:10379400598300F2D780472800F03A8300F2EF8083
:1037A400412800F0248340F2F382452800F03B8155
:1037B40046287FF438AF584D2878FFF73BFB07EED7
:1037C400900A564AB8EE673B2B7892ED007A544D36
:1037D400B8EE477B5349544A28609FED355B9FED13
:1037E400364B83EE056B87EE065B81ED006B84EE52
:1037F400057B82ED007B002B7FF415AFBAE04448D3
:10380400FEF712FD444B28701E70BCE740F2AF4235
:103814003049314808F0CCFF0023354D337002E0C5
:10382400FFF784F910B12B78002BF9D1DFF8C880A9
:103834003E4CD8F848002168002800F08A8303F041
:1038440023FC02E0FFF772F910B12B78002BF9D1B9
:10385400374B1B78012B00F04D82D8F84800264BDB
:10386400002800F03D824FF4FA32324903F0E8F9BF
:1038740002E0FFF75BF910B12B78002BF9D12E4B46
:103884001A781AB9226802F5FA3222600022124824
:103894001A7003B0BDE8F04F08F0EABF274B1B686D
:1038A400002B3FF4E3AE0D4A01921360E4E600BF3F
:1038B4000000000000408F40112D4454FB211940AA
:1038C400FF320020A822042004330020C822042050
:1038D40000340020091400007C08002084350020F6
:1038E400401D0620D4220420B00900202C170620F5
:1038F400FC3300200C330020DC16062003330020A8
:10390400401706208C35002080A92320B1220420F2
:10391400301706204C0900204E2204208408002081
:10392400701200209808002010330020D8160620BA
:10393400833500204C2E0220FE320020AC220420CD
:10394400C4220420582800F0F6813BD8532800F004
:10395400DE8240F2058254287CD057287FF463AE7F
:10396400B74D2878FFF74AFAB64A2B781070002B27
:103974007FF459AE0121B448FEF73AFC53E64928D6
:1039840000F08882C0F0AD824C2800F0BC804D2845
:103994007FF449AEAA4B1B78002B7FF444AEAA48AF
:1039A400FEF744FCA94BB0F5FA6F188000F25F8370
:1039B4008200A749A448FEF78BFC0121A248FEF728
:1039C40017FC30E6782800F0A18140F2CF81F3287B
:1039D40000F07C81FF287FF426AE994B1B78012BE5
:1039E4007FF421AEFFF734FA1DE601221A7363E671
:1039F400D86C00283FF48CAE964902F0B5FA87E6FD
:103A0400954808F065FB8E4BC0B2012228701A70ED
:103A1400B9E6924B42F6E06291481B688D4918441E
:103A240006F0D4FC8AE6864B1D78002D7FF4FBADAE
:103A34008548FEF7F9FB021C8A4B4FF0010118BFC1
:103A4400012281481A70FEF7D3FB874A874B158001
:103A54001D70E8E57A4B1D78002D7FF4E4AD844BAE
:103A6400844E187808F0D6F901234FF0553033709E
:103A7400FFF794F908B9002333704FF03330FFF7A0
:103A84008DF900B930704FF00F30FFF787F900B9A6
:103A940030704FF0FF10FFF781F900B930704FF626
:103AA400FF70FFF77BF900B930704FF0AA30FFF7D1
:103AB40075F900B930704FF0CC30FFF76FF900B9E9
:103AC40030704FF0F030FFF769F900B930704FF003
:103AD400FF20FFF763F900B930706748FFF75EF91C
:103AE40000B930704FF0FF30FFF758F900B930706B
:103AF4000020FFF753F9002800F0B78235782846F4
:103B040008F088F98FE54E4B1B78002B7FF48BADC2
:103B14005A4B01221A7008F02DF90028FBD0584D99
:103B240000274C4ED5F80090DFF8588107E02B6849
:103B3400D8F80820C9EB0303934280F09382C7F1BD
:103B44000B01F01908F07EF807444E490A2FEED90C
:103B540030784D4B727845001B5C002A4B49C3F109
:103B640001034B4A14BF4FF0010E4FF0000EDBB2BD
:103B74002944484F2A4401F803E096F802E04649F4
:103B8400387005EB030702F803E0D6F80320DFF8EA
:103B940030C141F827200CBF022104213F4A1328D9
:103BA4008CF8003011703FF63EADD6F807102B4468
:103BB40012784FF0000C3A4F4FF4FA3601FB02F240
:103BC400384DDFF800E107EE902A47F8232055F836
:103BD4002350B8EE675B344F9FED176B47F8231003
:103BE4002944324FAD0085EE067B4EF8231057F87A
:103BF400203001212E489B002E4F056017482E4D82
:103C040003602E4BDFF8C0E0C3F800C02170C82168
:103C14001C48BBFE477BFCEEC77B17EE903ACEED0B
:103C2400007A06FB1322624518BF01333A602B6009
:103C340008F07AFEF7E400BF000000000040FF40F7
:103C44004E220420D4160620301706208E080020A9
:103C54001C130020D42204204C0900208C350020A1
:103C6400000020207C350020FC320020311200208E
:103C7400441D0620483A00200000FFFFB122042022
:103C8400401D0620B009002040170620B43400204F
:103C94004412002003330020043400205422042062
:103CA4007C120020DC340020383300205822042009
:103CB4000C330020AC22042000340020C422042051
:103CC400D83300205C32002040120020AE4B1B7819
:103CD400002B7FF4A8ACF421AC48FEF789FAA2E4E7
:103CE400D86C00283FF4C8AD4FF4FA32A84901F06B
:103CF40047F9C1E5D8F84800A64B002800F0348104
:103D04004FF4FA32A44902F09BFFB5E59E4B1B78B1
:103D1400002B00F09E81A14808F0C6F90028FAD0D3
:103D24009E4808F0D5F99E4BC0B218709D4B1B7885
:103D340083427FF478AC9C4B1B78002B40F0858148
:103D44009A4B01221A706EE4D8F84CE0BEF1000FD1
:103D54003FF4CCAC03460A46704601F001FAC5E4D0
:103D640050287FF460ACFFF71FFB5CE45A287FF413
:103D74005AAC854B1B78002B7FF455AC8348FEF777
:103D84006FFA8B4B012118608048FEF731FA4AE440
:103D94002A287FF448AC874B0025874A03F1140096
:103DA40013F8011F21B111781D70C1F101011170C7
:103DB400834202F10102F3D1734B1B78002B7FF491
:103DC40032ACD7E57D4B01227D4800211B787D4E26
:103DD4007D4D00782170F254EA5408F01BF808F085
:103DE40063F84FF47A71794808F09EFDB9E4664BA4
:103DF4001B78002B7FF417AC6448FEF715FA744B5C
:103E04001870FFF7B1FA01216048FEF7F1F90AE4EE
:103E14005D4B1B78002B7FF406AC5C48FEF704FA7C
:103E24003F2803466B4D02464FF0020128BF3F2254
:103E340060202B70FFF7A6F801215448FEF7D8F94B
:103E4400FFF7F1BB504D2878FEF7E6FF624A63495D
:103E54001378088023B9624B00260027C3E9006762
:103E6400534B1B68002B40F0CD8007EE900A5D4950
:103E74005D4F4308B8EE677B5C4E3880338081ED3C
:103E8400007B002840F0EB8010702B78002B7FF42F
:103E9400CAAB6FE53C4B1B78002B7FF4C4AB544B8F
:103EA4003A481978FEF7A4F910213848FEF7A0F92A
:103EB40014213648FEF79CF9454B34481978FEF72F
:103EC40097F94C4B31481968FEF794F91E212F4895
:103ED400FEF790F94FF4FA612C48FEF78BF9FFF7DF
:103EE400A2BB294B1B78002B7FF49DAB2748FEF720
:103EF4009BF9031C404A18BF012318461370FFF7AF
:103F040047FA01212148FEF773F9FFF78CBB1E4BDA
:103F14001B78002B7FF487AB364D1C48FEF7A0F9C5
:103F24002860FFF749F895ED007A344A0121B8EE8C
:103F3400477B334B154892ED004B9FED115B87EEA9
:103F4400046B85EE067B83ED007BFEF751F9FFF7EA
:103F54006ABBD8F84C60002E3FF477AC03460A469F
:103F6400304601F0FDF870E4D86C00283FF484ACCE
:103F74004FF4FA32084901F003F87DE4AFF300800E
:103F8400112D4454FB2119404E22042030170620E1
:103F94004C2E0220DC1606204C3A00204C0900204E
:103FA40078120020883500207C3500200233002060
:103FB40034330020E7330020401706200333002069
:103FC400B1220420E833002020330020B00900206F
:103FD40090080020780800203C17062006330020B3
:103FE40038120020B8220420741200204C2204202D
:103FF4000033002084080020B22204209808002006
:10400400103300201D4907EE900A1D4F0988B8EEB1
:10401400676B07EE903A012305EE901A8842B8EEDA
:10402400677B1370B8EE655B164E94BF00200120C9
:10403400154A36EE456B154938700B7086EE074B02
:1040440086ED005B82ED004B1FE7FEF74DFDFFF7A9
:10405400EABA0F48FEF7E8F80E4B187066E601233B
:10406400137012E701230B7372E5307047E50021EA
:104074000748FEF7BDF8FFF7D6BA00BF7412002058
:1040840076120020B8220420281200208235002055
:104094003017062078120020024A0349034809F029
:1040A400A3BC00BF740800207D090000541706203B
:1040B400024A0349034809F097BC00BF7408002072
:1040C4007D0900005C170620024A0349034809F0F1
:1040D4008BBC00BF740800207D0900006417062013
:1040E400024A0349034809F07FBC00BF740800205A
:1040F4007D0900006C170620024A0349034809F0B1
:1041040073BC00BF740800207D09000074170620EA
:10411400024A0349034809F067BC00BF7408002041
:104124007D0900007C170620024A0349034809F070
:104134005BBC00BF740800207D09000084170620C2
:10414400024A0349034809F04FBC00BF7408002029
:104154007D0900008C170620024A0349034809F030
:1041640043BC00BF740800207D090000941706209A
:10417400024A0349034809F037BC00BF7408002011
:104184007D0900009C170620024A0349034809F0F0
:104194002BBC00BF740800207D090000A417062072
:1041A400024A0349034809F01FBC00BF74080020F9
:1041B4007D090000AC170620024A0349034809F0B0
:1041C40013BC00BF740800207D090000B41706204A
:1041D400024A0349034809F007BC00BF74080020E1
:1041E4007D090000BC170620024A0349034809F070
:1041F400FBBB00BF740800207D090000C417062023
:10420400024A0349034809F0EFBB00BF74080020C9
:104214007D090000CC170620024A0349034809F02F
:10422400E3BB00BF740800207D090000D4170620FA
:10423400024A0349034809F0D7BB00BF74080020B1
:104244007D090000DC170620024A0349034809F0EF
:10425400CBBB00BF740800207D090000E4170620D2
:10426400024A0349034809F0BFBB00BF7408002099
:104274007D090000EC170620024A0349034809F0AF
:10428400B3BB00BF740800207D090000F4170620AA
:10429400024A0349034809F0A7BB00BF7408002081
:1042A4007D090000FC170620024A0349034809F06F
:1042B4009BBB00BF740800207D0900000418062081
:1042C400024A0349034809F08FBB00BF7408002069
:1042D4007D0900000C180620024A0349034809F02E
:1042E40083BB00BF740800207D0900001418062059
:1042F400036D0BB101207047406D003018BF0120E1
:10430400704700BF10B50446806D18B109F0AEFBCC
:104314000023A365236D2BB104F11800BDE8104000
:1043240004F074B8636D002BF6D110BDF0B5002312
:1043340095B04FF47A74234F1A460546183104A8F1
:104344008DF804308DF80C30129313930294009777
:1043540004F0F4F8129B53B35C20002608F008FB29
:104364009DF804300446184A04A918302373029BAC
:1043740022602361154A9DF80C30A26023756660A3
:1043840004F002F863684FF47A71114A0133A760AC
:10439400A6652E712E732C616360A9602A600D4B93
:1043A40004A8009304F032F8284615B0F0BD139B1E
:1043B400002BD1D1064A2B71AC602B732B612A6080
:1043C400EDE700BF2C000020C0000020700000209A
:1043D4009400002008000020036D13B1184602F079
:1043E400FDBC406D08B100F0A5BE4FF0FF30704732
:1043F40038B5846D0CB1204638BD05464FF4807045
:1044040009F02CFB0146A86580B1286D0C7028B119
:104414004FF4807203F0CCF8AC6DECE7686D40B1FA
:104424004FF4807200F0C4FCAC6DE4E7024CAC6560
:10443400E1E70C46DFE700BF1C180620036D9BB1C3
:104444001A7812F0700F00D1704710B5044600219D
:10445400184602F019FE606D28B100220023BDE861
:10446400104000F07DBE10BD406D0028ECD090F8E7
:10447400313013F0500FE7D00022002300F070BE5B
:10448400D0B5046D8CB1012B08BF002A01D30020E4
:10449400D0BD1146204602F0F7FD0028F7D0204693
:1044A40002F004FF0028F2D0D0BD446D002CEED001
:1044B400204600F055FE0028E9D02046BDE8D04053
:1044C40001F0E0BC036D13B1D86900217047436D5E
:1044D40013B118695969704718461946704700BFE7
:1044E400036D13B1586900217047436D13B193E80C
:1044F4000300704718461946704700BF036D13B197
:10450400184602F09DBB406D08B100F039BD4FF074
:10451400FF307047036D33B11B7813F0700F14BF75
:10452400012000207047406D30B190F8313013F015
:10453400500F14BF01200020704700BF10B503695D
:1045440082B08DF80710BBB11968104ACC68944248
:1045540015D1186D30B101220DF1070102F0E2FE10
:1045640002B010BD586D0028FAD001220DF10701E8
:1045740001F0FAFC02B010BD184602B010BD0122D1
:104584000DF107011846A04702B010BD99240000A0
:10459400036963B11A68074992698A4208D1186DA0
:1045A40008B102F07DBE586D08B101F08DBA7047B4
:1045B4001846104759240000036D13B1184602F041
:1045C4006FBE406D08B101F07FBA7047036973B1E3
:1045D4001A68084952698A4207D1186D08B102F075
:1045E400FDBB586D18B100F0A5BD184610474FF03B
:1045F400FF30704779220000036D13B1184602F0B2
:1046040091BE406D08B101F0AFBC7047036923B39C
:104614001968134A10B58C6882B0944214D1186D8D
:1046240048B101220DF1070102F00AFB90B19DF897
:10463400070002B010BD586D0028F8D001220DF11A
:10464400070100F09DFCF1E7184601220DF1070176
:10465400A047EBE74FF0FF30EBE74FF0FF30704738
:104664009D230000026D62B1137803F0080303F088
:10467400FF000BB3D3695069181A48BF6FF00040AC
:104684007047416DC9B191F8313003F0080303F06C
:10469400FF008BB1D1E90423D1E9000130B4101A31
:1046A4004FF000056FF0004463EB01018D4208BF39
:1046B400844200D2204630BC70470846704700BF91
:1046C400006900282FD00368184A1B6993420ED151
:1046D400026D6AB1137803F0080303F0FF0013B30B
:1046E400D3695069181A48BF6FF0004070471847E3
:1046F400416DC9B191F8313003F0080303F0FF00B4
:104704008BB1D1E90423D1E9000130B4101A4FF080
:1047140000056FF0004463EB01018D4208BF844241
:1047240000D2204630BC704708467047052500007B
:10473400D0B4039C16461F4634B1012C1ED0022C63
:104744000DD00020D0BC7047046DDCB1012B08BF34
:10475400002AF6D220461146D0BC02F095BC036D67
:10476400B3B1DA69B61847F10007012F08BF002E6C
:10477400E7D231461846D0BC02F086BC036D93B133
:104784005A69EFE7406D0028DBD0D0BC00F0E8BCEC
:10479400436D002BD5D01846D3E9042392197B41ED
:1047A400D0BC00F0DDBC436D002BCAD01846D3E961
:1047B400002392197B41E8E738B504460C4B806D21
:1047C400236018B109F052F90023A365236D04F1A5
:1047D40018054BB1284603F019FE064B2846A36082
:1047E40003F014FE204638BD636D002BF2D1F4E7CC
:1047F400C00000200800002038B504460E4B806D30
:10480400236018B109F032F90023A365236D04F184
:1048140018056BB1284603F0F9FD084B2846A36040
:1048240003F0F4FD20465C2108F0A4F8204638BDCE
:10483400636D002BEED1F0E7C000002008000020DB
:1048440070B5254B0546046903601CB16668013EDA
:1048540066600EB1284670BD2368204ADB6A934225
:104864002CD1A06D10B109F001F9A665236D5BB3DD
:1048740004F1180003F0CAFD2C69002CEAD0236867
:10488400174A5B6893421CD1164BA06D236018B184
:1048940009F0ECF80023A365236D04F11806BBB1FD
:1048A400304603F0B3FD104B3046A36003F0AEFD79
:1048B40020465C2108F05EF8284670BD20469847E3
:1048C400DAE720469847C5E7636D002BD0D1D3E7DC
:1048D400636D002BE4D1E6E794000020A5210000DD
:1048E40099260000C00000200800002070B5294B64
:1048F4000446056903601DB16E68013E6E602EB109
:104904002046142108F036F8204670BD2B68224A50
:10491400DB6A934230D1A86D10B109F0A7F8AE65F7
:104924002B6D7BB305F1180003F070FD2569002D94
:10493400E6D02B68194A5B68934220D1184BA86DC6
:104944002B6018B109F092F80023AB652B6D05F1CB
:104954001806DBB1304603F059FD124B3046AB600C
:1049640003F054FD28465C2108F004F82046142185
:1049740008F000F8204670BD28469847D6E7284638
:104984009847BDE76B6D002BCCD1CFE76B6D002B47
:10499400E0D1E2E794000020A52100009926000060
:1049A400C00000200800002070B440F20125046813
:1049B40025611BB31E46F1B10D780131013B6566DB
:1049C400256FAD0706D4656F013EEDB212B11570C7
:1049D400013204686569ED07F2D5002BEBD16EB1A5
:1049E40001680B6F9B07FCD44B6FDBB20AB11370E9
:1049F4000132013EF3E790F83C50DFE770BC7047AA
:104A04000BB1FFF7D1BF7047704700BF012BF0B562
:104A1400054695B03BD0022B01F1040140F202237C
:104A2400684618BF002303F021FE129B002B37D0E9
:104A34005C2004AF07F09CFF9DF8042004461F4B44
:104A44000026DFF888E022733946029A1830A36002
:104A54009DF80C3022612375C4F800E0666003F011
:104A640093FC63684FF47A7115480133154AA665BF
:104A74002E712E732C61A0606360A9602A60124BB2
:104A84003846009303F0C2FC284615B0F0BD44F24A
:104A940002230431684603F0E9FD129B002BC7D1C1
:104AA400139B002BC4D14FF47A71064A2B7104AFC7
:104AB4002B732B61A9602A60E1E700BF700000201E
:104AC4002C0000209400002008000020C0000020DA
:104AD40030B5D0F884448FB0A4B100250A466846A6
:104AE400214601238DF800508DF801508DF80250B5
:104AF40002F070F808B90FB030BD684602F014FF38
:104B04000FB030BDD0F888040028F4D00A46012341
:104B1400014668468DF831408DF832408DF83340B7
:104B240000F014FE0028E6D0684600F07FFE0FB0C7
:104B340030BD00BF30B5D0F884448FB07CB10025BF
:104B44000A46012304F5896168468DF800508DF802
:104B540001508DF8025001F075FF0FB030BDD0F850
:104B640088040028F9D00A46012300F589616846C3
:104B74008DF831408DF832408DF8334001F074F8EF
:104B84000FB030BD30B5D0F884448FB074B1002577
:104B94000A46684621462B468DF800508DF8015090
:104BA4008DF8025002F016F80FB030BDD0F888042A
:104BB4000028F9D00A462346014668468DF831405C
:104BC4008DF832408DF8334000F0C0FD0FB030BD99
:104BD40038B50546D0F88404C0B1C469013C03F07B
:104BE400E1FAD5F88434241A43B198794FF4007368
:104BF40003FA00F080B2A0FB040138BDD5F8883474
:104C040063B1D3F83C04A0FB040138BDD5F8880493
:104C140020B1D0F8304401F073FCE2E70020002119
:104C240038BD00BF30B5D0F884448FB0A4B100259E
:104C34000A46684621462B468DF800508DF80150EF
:104C44008DF8025001F0C6FF08B90FB030BD6846B8
:104C540002F0ECF90FB030BDD0F888040028F4D08D
:104C64000A462346014668468DF831408DF83240A5
:104C74008DF8334000F06AFD0028E6D0684600F065
:104C840041FE0FB030BD00BF70B5D0F884448EB083
:104C94001646C4B1002504F589640A4668462146CF
:104CA4002B468DF800508DF801508DF8025001F01C
:104CB4002DFF08B90EB070BD32462146684602F099
:104CC400C3F80EB070BDD0F888040028F2D000F507
:104CD40089650A462346684629468DF831408DF891
:104CE40032408DF8334000F0AFFC0028E2D0324669
:104CF4002946684601F06EF80EB070BDD0F88424E1
:104D04004AB191794FF40073D0698B4001389BB25A
:104D1400A3FB00017047D0F8882432B1D2F83034B4
:104D2400D2F83C04A3FB0001704700200021704727
:104D3400134B14491448154AF0B4002407270126DC
:104D44002925C3F89414124918601846C3F8A024FE
:104D5400C3F8A814C3F8AC7483F8B56483F8B754E3
:104D6400C3F88444C3F8884483F89C4483F89D447E
:104D740083F8BA44074A0849F0BC08F035BE00BFBE
:104D840020180620940100200C0100203C01002082
:104D940000093D0074080020A928000010B504464D
:104DA40000F092FE002384F8313084F8333010BDD3
:104DB4002DE9F04300F1240385B081468846154669
:104DC40001AE90F8314093E8070086E80700ACB3E1
:104DD40099F83030012B38D901270024012F3146AE
:104DE400D9F8200014BF2022402201F00DFB012835
:104DF40024D100223146D9F8200001F0E9FAE8B1C3
:104E04000378C12B1AD108EB040E04F10F0C30F80F
:104E1400022F631C3F21CAB1AB4217D27E2A1C4623
:104E240098BFD1B263450EF8011BF0D1013799F850
:104E34003020FFB2BA4209D91C46CFE700231846F6
:104E440088F8003005B0BDE8F08300240023204634
:104E540008F8043005B0BDE8F08300BF90F83120B5
:104E64000AB10020704738B50D4611463822044671
:104E740009F0EEF840230120256284F8313084F8EB
:104E8400330038BD2DE9F0410878202803D111F80A
:104E9400010F2028FBD0516008782F2864D0002807
:104EA40062D05C2825D0A0F12204E4B21A2C23D9C4
:104EB4004D1C0026DFF8C4E003E01A2C2EFA04F798
:104EC40022D9A0F13E040136A0F1200CA846012C01
:104ED40037460ED97C280CD0BCF15E0F09D815F8E2
:104EE400010BA0F12204A0B12F28E4B211D05C2858
:104EF400E3D10020BDE8F081204D25FA04F4E50754
:104F0400D6D50020BDE8F081FC07DAD50020BDE845
:104F1400F0812F2801D0202823D1701C0844054695
:104F240010F8014B202CFAD02F2CF8D01D609EB124
:104F34000F4417F8013C202B01D02E2B0AD1731EED
:104F440019441E464BB111F8010D013B2E28F8D02F
:104F54002028F6D0FF2ECCDC334613600120BDE8B8
:104F6400F081C3F80080E3E7202801D02F2802D184
:104F740000273E46D1E719600023EEE70101000552
:104F84002DE9F04F90F8333083B00546DE0760D545
:104F94005C060E46914640F1BE80D5E90001D5E994
:104FA400042310EB090A41F1000B5B4508BF52458D
:104FB400C0F0B780B9F1000F74D0AA464C4640F255
:104FC400FF17FAE806012B6AD3F8382402EA00082E
:104FD400C8F3080BB8F1000F6AD150EA010279D185
:104FE40095F8312051064CBFD3F83414E969A9610E
:104FF4004FEA58200239D3F82C24BC4293F845E4F4
:10500400024401FA0EF111442ED9BBF1000F2BD149
:10501400D3F81C22914227D0B4F5806F61D34FF0AE
:10502400010C4FEA54280CFA0EFEC0EB0E0080452A
:1050340028BF804691423DD801EB0800824239D214
:1050440003F504700191009305F044F8009B019965
:1050540080BB95F832304FF0FF3043F0020385F8FF
:10506400323003B0BDE8F08F03F50470002205F080
:1050740001F80028EDD0CBF5007800EB0B013046A9
:10508400A04528BFA046424605F0A0F940460021AD
:105094004644D5E9002380185941B4EB0804C5E916
:1050A400000190D10024C4EB090003B0BDE8F08FE7
:1050B400A9699DE7D3F8140232464346D0F800E0CC
:1050C400DEF810B0D8470028C3D04FEA48280021A2
:1050D4004046DDE795F83320520610D5A969013121
:1050E40085E7D3F8140232460368DB689847002842
:1050F400AFD04FF4007000214FF40078C8E7184691
:105104005246A96901F0ACF940B20028A1DB0BD0EA
:105114002B6AA9696CE790F8313018073FF53DAF69
:1051240048E7C0EB020945E795F8313013F0500F1A
:10513400B9D18EE7F0B583B00122044685690DF13B
:105144000701D0E90067FFF71BFF0128A5610CBF29
:105154009DF807004FF0FF30C4E9006703B0F0BDCD
:105164002DE9F04F90F831E085B004468569BEF131
:10517400000F36D016461F46D0E90001994208BFF9
:10518400904265D056EA070330D10023A361012081
:10519400C4E9006705B0BDE8F08F10F1FF3241F1BA
:1051A400FF3322FA0CFC03FA08F823FA0AFA50EA4D
:1051B40001034CEA080C4CEA0A0C4BD0E34549D3F2
:1051C400CCEB0B0BA94604F118085D464246002DB2
:1051D400DDD0A169013D206A01F042F90028F5D132
:1051E4004D460020A56105B0BDE8F08F1EF0080F04
:1051F40027D1236A16F1FF3893F845C447F1FF39E4
:10520400C24603930CF1090CCB4694F833905FFA31
:105214008CFC19F0400FCCF120082AFA0CF2CDE9ED
:1052240000AB019BACF1200A03FA08FB23FA0AF352
:1052340042EA0B0242EA030BAFD0E3695B44A36189
:10524400A5E7D4E90423BB4208BFB242C9D3D0E7DF
:105254000120C8E71EF0400F02D1E369A361B1E762
:10526400039BD3F83434F9E72DE9F04F9A4693B011
:1052740090F83130054600922BB991F831300E4642
:1052840013F0500F08D10023184685F8313085F803
:10529400333013B0BDE8F08F1C9B03F00303012BE4
:1052A40006D0022B00F00981002BECD1012300E091
:1052B40002231C9A02F0080213430193009B002B63
:1052C40000F0FD8018460022514601F001FA96F8DC
:1052D400313002904BB1D6E90023134305D00021AD
:1052E40000220023B161C6E900230AF10E03B84984
:1052F4004FF0000981FB0321DA174C464F460B445B
:10530400C2EBE303DBB2039302335FFA83FB202295
:105314000AA93046FFF734FE00283DD02028B2D138
:105324009DF828301A0666D4002C61D13268B16920
:10533400203A079108920134E4B26BB3C02B00F019
:105344009380C12B62D0852BE1D1382200212846DD
:1053540008F07EFE9DF82C309DF82920D8063046B2
:1053640085F8302003F0370258BF42F0080285F870
:1053740031203368316AB269203B29620AA96A6222
:105384002022AB6296F83330C3F3801385F82C30B7
:10539400FFF7F6FD0028C1D11C9B99057FF573AF7B
:1053A400019B9A077FF56FAF009B002B3FF46BAF17
:1053B4005C450CD386E020287FF465AF24B93268BD
:1053C400B169203A07910892DCB2A3457AD9202228
:1053D4000AA93046FFF7D4FD631C0028EBD1304600
:1053E400B76900F0A1FB00283FF44DAFB761ECE7CB
:1053F4005C45A2D29FE7B9F1000F9FD15C4538BF4D
:105404000024852B83D14FF001099EE7C7EB0A08DE
:105414003A4600990AA85FFA88F8B8F10F0F28BF36
:105424004FF00F08434601F025F900283CD04744CB
:10543400FFB2BA457FF46BAF1C9B1B053FF523AF4E
:105444001C9B13F4884F40F0A08095F833309F07DD
:1054540000F19B801C9B5B053FF515AF1C9B58041A
:1054640000F1B880012014E79DF82930019A9907CA
:1054740085F8332003D542F0400385F833300F9983
:10548400DDE90C23E961C5E90423DDE91001009B92
:10549400C5E90201002BCFD09DF82B30534505D030
:1054A4004FF000094F4632E7814630E7BDF82C3013
:1054B400029A9342F4D1002729E70323F9E6009BDB
:1054C400029312E796F83330002138222846C3F3BA
:1054D40080130F460DF11C0805F124048DF82430C7
:1054E40008F0B6FD039A336A0AF11E0602F10109B7
:1054F40008222B62F6B285F831205FFA89F9CDF8DB
:105504000CA0DDF800A098E8070084E8070018461E
:105514000122414600F05CFF044600283FF4B3AE8C
:1055240090F90030002BFFF6AEAE2022002108F0E7
:105534008FFD002F67D0012F55D0C7EB07130F2E17
:105544004FF0C1013246A3F11E0328BF0F22217080
:10555400DBB252B1023412B2534404EB420213F8E8
:10556400011B24F8021BA242F9D10137FFB2BB454B
:1055740029D920224146286A00F046FF01287FF4F9
:1055840082AE0F3E286AF6B2C2E795F8313013F0C6
:10559400110F7FF478AE1C9B5E057FF55FAF95F825
:1055A40033309C077FF56FAE002200232846FFF7B7
:1055B400D7FD00283FF467AE284600F063FC0028BE
:1055C4003FF461AE4EE7284600F07EFA61E600BF84
:1055D400898888882846D5E90423FFF7C1FD002877
:1055E4007FF440AF4FE6019BC021032263F03F03E9
:1055F4002170627085F833309DF80C30E370BDF88B
:105604000830A380B1E7852323700E4B85F83090D2
:1056140084F801901B687BB10DF117020DF11A019A
:1056240006A89847BDF81810BDF81A209DF8173041
:1056340061812281237598E745F221436381E381E7
:10564400638292E7341D06202DE9F043064695B0A7
:1056540000200D4696F8311003928DF849008DF81C
:105664004A008DF84B0029B9994695F8313013F06A
:10567400500F03D1002015B0BDE8F0831378144611
:105684002F2B35D04FF00008214603AB04AA304637
:10569400FFF7F8FB0028EDD0039B1B78002B3CD0D0
:1056A4009DF810302946059A3046CDF80080FFF762
:1056B400DBFD0028DED0344606AF06F1300E20684C
:1056C400103454F80C1C3D4654F8082C103754F888
:1056D400043C74450FC5F2D1206806AD38603046ED
:1056E40000F0F2F986F8318086F83380039CCBE72A
:1056F4000134039421782F29FAD0D1B106A8382295
:1057040000212F6A054608F0A3FC402201230E97CE
:105714008DF849208DF84B30B4E79DF810302946B8
:10572400059A3046CDF80090FFF79EFD15B0BDE810
:10573400F083382230462C6A08F08AFC402301208A
:10574400346286F8313086F8330094E719B101F5F4
:105754008961FFF779BF0846704700BF90F8313080
:1057640053B930B591F8314083B00D4614F050046C
:1057740004D1204603B030BD00207047D5E9004570
:10578400002504F01F042C4302D0184603B030BD9A
:1057940000921A46FFF768FD03B030BD8169F8B581
:1057A4000446006A01B10131012200F045FD0128DF
:1057B40006462ED901230146206A1A4600F096FDBA
:1057C400074630B3A3693BB394F83320510612D58E
:1057D400591C8E4226D022F04002E16984F833201D
:1057E40005E0206A00F046FE294690B1A3694D1CED
:1057F40099422A46F5D34FF0FF323146206A00F031
:1058040039FE30B1A16969B13246206A00F032FE36
:1058140040B900273846F8BD94F8333043F04003CC
:1058240084F83330A6613846F8BD00BF2DE9F04353
:1058340000F1240385B090F83340054601AE93E8A7
:10584400070086E80700A2071BD5E969E9B9002427
:1058540001223146286A013400F0BAFD88B1037888
:10586400E4B203F07F03037095F83030A34231D3E0
:10587400002CEDD020223146286A00F0C5FD012815
:10588400E6D0002005B0BDE8F0836306286A1CD585
:1058940090F845240023D5E90289093218F1FF382C
:1058A400D2B249F1FF39C2F12007A2F1200428FA4B
:1058B40002F209FA07F729FA04F43A4322430132BF
:1058C40000F014FD0028C2D1DBE700F0E5FD00285C
:1058D400BDD1D6E700232C6A85F83130204685F8FF
:1058E400333004F0F7FB0028CBD004F5047004F047
:1058F400F1FB0028C5D0D4F8400403689B6998479D
:10590400C0E700BF90F83130D90601D400207047B9
:1059140010B5002288B000230446FFF721FC06E0FE
:10592400202819D19DF800301A0615D433B120224D
:1059340069462046FFF724FB0028F1D194F8333060
:105944000822204643F0020384F8312084F83330DF
:10595400FFF76CFF08B010BD002008B010BD00BFF9
:105964002DE9F04F002787B000F1240B06460DF116
:105974000C08BA463C469BE8070088E8070000226A
:105984004146306A5FFA87F900F022FD054630B1DE
:105994000378C02B59D0C12B2ED0852B09D096F873
:1059A4003230002043F0010386F8323007B0BDE8FE
:1059B400F08F96F83120434B02F0370290F801A0A3
:1059C4001B68828083B10DF107020DF10A0102A860
:1059D4009847BDF80A20BDF808309DF80710AA8141
:1059E40069752A82EB816B82326A92F8103243F035
:1059F400010382F810322B78E103A3F18500002221
:105A040041EA5404B0FA80F0012113FA84F3400906
:105A14009CB20A44E30303211F2A43EA540309D82E
:105A2400AC5C012A14FA83F39CB201D10028F0D1B2
:105A34000121EEE7CA4526D020224146306A0137CB
:105A440000F0E2FC01289AD0A9E796F8333013F06D
:105A5400400F437814BF43F0020323F00203437062
:105A6400306AF169D6E904236961C5E90223D6E9FC
:105A74000223C5E9062390F8103243F0010380F8AD
:105A840010322B78B8E759460122306A00F0A0FCA6
:105A9400002884D0356A4480284604F01BFB002883
:105AA4003FF47DAF05F5047004F014FB00283FF4C7
:105AB40076AFD5F8400403689B69984700283FF403
:105AC4006EAF73E7341D062090F8312092B138B5DB
:105AD40090F8332011060FD4056A0446284604F0D2
:105AE400F9FA88B994F83230002043F0010384F8BD
:105AF400323038BD0120704702F07F0280F8332035
:105B0400BDE83840FFF72CBF05F5047004F0E2FA55
:105B14000028E7D0D5F8400403689B69984700281B
:105B2400E0D0012038BD00BF2DE9F04190F83130BC
:105B3400044659065FD48068236AD3F83C34184479
:105B4400B0F1806F02D30020BDE8F0812046FFF75A
:105B540025FE0028F7D0266A96F81032DA074ED4CC
:105B64004FF0FF33002506F508784FF40072C6F8AD
:105B74001C32294686F81052404608F069FA226A17
:105B8400A769012692F84514023FD2F82C348F40BD
:105B94001F4416FA01F310D0D2F840047919424692
:105BA40001350368DB6998470028CCD0226A92F853
:105BB400453406FA03F3AB42EED894F831305B0671
:105BC40014D494F83330002763F07F0384F833301F
:105BD400D2F83C64D4E90223D4E9040192197B414C
:105BE40080197941C4E90223C4E904012046BDE8CF
:105BF400F041FFF769BF006A00F030FD9CE706F54D
:105C0400047004F067FA0028AAD19CE791F83130B7
:105C140013F0500F01D10020704730B540F6022533
:105C240083B01378044652680095FFF71DFB10B942
:105C3400002003B030BD1023204684F83130FFF734
:105C440073FF0028F4D0A169002200232046E161FB
:105C5400FFF786FAC123204684F8333003B0BDE849
:105C64003040FFF731BF00BF2DE9F043064695B041
:105C740000200C4696F8311003928DF849008DF8F7
:105C84004A008DF84B0029B9994694F8313013F045
:105C9400500F03D1002015B0BDE8F08313781146EE
:105CA4002F2B39D04FF0000803AB04AA3046FFF77E
:105CB400E9F80028EED0039B1B78002B3AD09DF81E
:105CC40010302146059A3046CDF80080FFF7CCFA13
:105CD40048B9B9F1000FDDD0214604AA3046FFF7D8
:105CE40095FF0028D6D0344606AF06F1300E206862
:105CF400103454F80C1C3D4654F8082C103754F852
:105D0400043C74450FC5F2D1206806AC38603046B7
:105D1400FFF744F80399C7E7013103910B782F2B60
:105D2400FAD0216A06A8FFF799F80028B2D006AC89
:105D34000399B7E704AA21463046FFF767FF15B079
:105D4400BDE8F08352EA030103D090F833108907C9
:105D540001D400207047C1690029FAD12DE9F0412E
:105D640012F1FF368046006A1D4643F1FF371446A0
:105D740090F845340933DBB2C3F1200E26FA03F25E
:105D8400203B07FA0EFE27FA03F342EA0E021A43F7
:105D9400561C324600F050FA0128074607D901463E
:105DA40032460123D8F8200000F0A0FA10B90020F0
:105DB400BDE8F08198F833304046C8F81C7063F0B1
:105DC4003F03C8E9024588F83330BDE8F041FFF7E6
:105DD4007BBE00BFF0B590F831409DB0002314F0B5
:105DE400180F8DF831308DF832308DF833308DF84E
:105DF40069308DF86A308DF86B3003D00B6A046A11
:105E04009C4202D000201DB0F0BD044640F60123A0
:105E14006846FFF719FC0028F4D0254604F1300E3B
:105E24000EAF2868103555F80C1C3E4655F8082C62
:105E3400103755F8043C75450FC6F2D1286809AAF5
:105E440004F1240338609DF8305007CA83E8070042
:105E540094F83330204684F8305063F07F0384F89C
:105E64003330FFF731FE0028CCD000210222082372
:105E74000EA815918DF86B208DF86930FFF7D6FCCC
:105E8400C1E700BF90F833309A0718D5F0B5C5695B
:105E940083B08DB103F04003044603F0FF0683B9D9
:105EA4008169002942D10195C1612946206A00F027
:105EB400F3FA38BB002000E0012003B0F0BD00205D
:105EC4007047006AA16990F84524D4E90267093251
:105ED40016F1FF36D2B247F1FF37C2F1200EA2F11C
:105EE400200326FA02F207FA0EFE27FA03F342EA27
:105EF4000E021A430132B1B1013D4B1C691A0193E0
:105F04000A440ABB94F833302046D4E9006763F0AE
:105F14007F03C4E9026784F83330C4E90467FFF7F8
:105F2400D3FD03B0F0BD0195E161EAE702AA006A7E
:105F340042F8046D00F094FA40B20028BADB0AD1AA
:105F4400019D002DDED0B0E70023019900F0CEF9C9
:105F54000028D7D1AEE74FF0FF32A169206A00F0E4
:105F640089FA0028ECD1A5E72DE9F04F90F83330F9
:105F740083B004469D0700920AD494F832304FF05F
:105F8400FF3043F0010384F8323003B0BDE8F08FF2
:105F94001A07884600F10781009B002B00F0178147
:105FA4002146009D4FF0010AF1E806239346019132
:105FB400206AA169D0F8386406EA0B06C6F308091A
:105FC40056BB002900F0BD8094F833305B0640F1E5
:105FD400D28090F84524E3690932D4E902BCD2B2F4
:105FE4001BF1FF3BC2F1200EA2F120074CF1FF3C54
:105FF4002BFA02F20CFA0EFE2CFA07F742EA0E0212
:106004003A431A449142C0F0B3802046FFF7C6FBDE
:106014000028B2D0206AA169760A0239D0F82C741B
:1060240090F845E4374401FA0EF13944B9F1000F10
:106034005BD1B5F5007F2CBF00220122002A54D188
:10604400B5F5806FC0F081800AFA0EFE6B0AD0F8B5
:106054001CC2C6EB0E06B34228BF334661454FEA65
:10606400432708D85E18B44505D24FF0FF3680F8B0
:106074001022C0F81C62D0F8140242460668366A40
:10608400B04700283FF479AF38460021B844ED1BEF
:10609400D4E90023D4E9046712EB000B43EB010CB1
:1060A400674508BF5E45C4E900BC07D294F83310C5
:1060B40061F07F01C4E904BC84F83310002D7FF43F
:1060C40077AF5A466346D4E90201994208BF904229
:1060D40071D3404B1B68002B77D094F83330009871
:1060E40063F07F0384F833304FE7B9F1000F26D112
:1060F400D4E90423D4E900679F4208BF964234BF21
:106104000122052200F5047003F0B4FF00283FF4D7
:1061140034AFC9F5007748444146AF4228BF2F4603
:10612400B9443A4604F052F9B9F5007FACD1206A7B
:1061340000F5047003F0CEFF0028A5D11DE701226D
:10614400E0E7E169F1B1A16166E7D0F81C32994258
:1061540022D0D0F8140242460368DB69984700282D
:106164003FF40BAF4FF4007000214FF400778DE73C
:106174000131A16150E7019A00F072F900287FF41F
:1061840049AF42E72046FFF709FB00283FF4F5AE8C
:10619400A169206AE1613FE74FF0FF3380F81022E4
:1061A400C0F81C32D5E7D0E90423FEF7D9FF002854
:1061B4003FF4E3AEF0E694F83310009861F07F0109
:1061C400C4E9022384F83310DFE60098DDE6D4E95D
:1061D400002378E7341D062038B50C46D0F8241483
:1061E400154600F50470002201EBD41103F042FFC0
:1061F40040B1A400C4F3080403595A1C04D02B6012
:10620400012038BDFF2038BD002038BD38B50C460C
:10621400D0F82414154600F50470012201EBD411C2
:1062240003F028FF034628B1A4000120C4F30804A6
:106234001D5138BD38BD00BF2DE9F84F8046914649
:106244008B46002943D08F1ED8F830349F423AD26F
:1062540007F007050123C7F3C80A03FA05F5EDB2F1
:106264003E463C46D8F82C140022404601EB14313B
:1062740003F000FFC0B110F80A100AE04A4529D023
:10628400A74210D0D8F83024944216D213F0FF0558
:106294000CD001340D424FEA4503A4EB0602EDD0C5
:1062A400A7422646EED10120BDE8F88F0AF1010A83
:1062B4000125BAF5007FDED101E0002634464FF017
:1062C400000A0125CEE700270125BA46C8E7D0F821
:1062D4002074B9E7BBF1000F04D1B9F1010F08BF75
:1062E400C8F82064B01CBDE8F88F00BF2DE9F04762
:1062F400023915469A46D0F830244B19934238D8BF
:106304008046BAF1000F37D1D0F82034994238BF13
:10631400C0F8201401F007040122D8F82C34C1F38A
:10632400C80602FA04F403EB1139E4B20122494627
:106334004046914403F09EFED8B1871900F50070E1
:1063440017F8012B224282EA04024FEA440414BFE4
:106354000126002656450CD0013D07F8012C17D024
:1063640014F0FF04EED1874226464FF00104E7D132
:10637400DCE70020BDE8F087D0F820048342C9D9C7
:106384008142C7D8934228BF0023C8F82034C1E70C
:106394000120BDE8F08700BF70B582B00546002437
:1063A40002AE46F8041DD5F8303401990133994200
:1063B40002D9002002B070BD32462846FFF70CFF18
:1063C400013440B20028F4DBEDD1204602B070BDA8
:1063D40070B50E460446D0F8385400F50470496888
:1063E40033682940D4F82C54023B94F8454405EB17
:1063F4005121A340194403F03DFE18B17368C3F35F
:106404000803184470BD00BF70B54C680D46D0F841
:1064140038340646A1181C40696090F8453422447B
:106424000933DBB222FA03F43CB12B7A3BB12B687B
:1064340001332B60013C002CF7D1012070BDD6F84C
:10644400303429680133994202D94FF0FF3070BDCE
:106454002A463046FFF7C0FE40B20128EAD070BD9C
:10646400D0F8303401338B4201D2FF207047FFF75C
:10647400B3BE00BF01290DD9D0F83034013399429D
:1064840010B403D900205DF8044B70475DF8044B49
:10649400FFF7BCBE00207047F0B50C4683B005463C
:1064A4000F46D5F8303401339C4202D9002003B0A2
:1064B400F0BD214601AA2846FFF78EFE012C46B204
:1064C40021462846F2D9F20FF0D1D5F83034013301
:1064D4009C42EBD8FFF79AFE394600230028E5D00A
:1064E400621C2846019C0EB1A242DAD0D21BFFF7EF
:1064F400FDFE0028DAD0019C002ED8D02746D0E734
:106504002DE9F84300248046D0F82C6400F5047784
:106514002546314600223846013603F0ABFD28B348
:1065240000F1FF3ED8F830C405F580591EF8010F7C
:10653400FF2813D048B10822012318424FEA43012F
:1065440018BF0134013ACBB2F7D10835AC4509D9AB
:106554004D45DED01EF8010FFF28EBD10835083475
:10656400AC45F5D8C4EB0C00BDE8F883BDE8F8836E
:106574002DE9F041002304464FF0FF3600F504777F
:106584001546C0F8401441601A46C4F8141238463F
:10659400194684F84434237084F81032E660C4F851
:1065A4001C6203F067FD042D0DD8064658B16DB981
:1065B40005222949F01C07F0CFFD034618B996F8C7
:1065C4006C20092A1AD00020BDE8F0816B1E00EB74
:1065D400031393F8BE2112F07F02F4D193F8C23171
:1065E400002BF0D000EB05153846D5F8B6512946F6
:1065F40003F040FD06460028DAD1E4E7326D4FF09F
:1066040001080146204602EB050E4246C4F824E484
:10661400776DC4F82874B76D3D44C4F82C54F56DF7
:10662400C4F83054356EC4F8345496F86D50C4F838
:10663400203405F1090384F8455408FA03F35D1E78
:10664400C4F83C34C4F83854FFF7F6FD4023404600
:1066540084F84434BDE8F0812C01002010B50446D0
:10666400D0F83414FFF798FE94F845340933DBB2BC
:10667400984010BD4BB370B444887E2C1FD813448B
:1066840002300A44194412F8013BE4B2A3F1610652
:10669400A4F16105192E94BF20260026192DA3EB21
:1066A400060394BF20250025DBB2641BE4B29C42A0
:1066B40005D18A4206D030F8024F7E2CE3D900205F
:1066C40070BC7047012070BC70470120704700BF48
:1066D400D1B1014430B410F8014BD30343EA520260
:1066E400A4F16103A4F12005192B98BFECB28142F7
:1066F40014FA82F292B24FEAC23343EA520292B2DD
:10670400E9D1104630BC70471046704738B50D4685
:1067140004462422002107F09BFCA560EB79102B92
:1067240008D0202B04D1402301202370A07038BD51
:10673400002038BD202301202370A07038BD00BF85
:10674400024638B552F8105F04468068294601F0C5
:106754005DFC50B155B123690135AB42A37818BF34
:1067640003F0BF0363F07F03A37038BDA37843F045
:106774004003F7E72DE9F041037803F020032BB938
:1067840003F0FF044169204B994203D900263046A7
:10679400BDE8F0810546FFF7D3FF06460028F5D093
:1067A400A96805222B698F7901F12800023B496908
:1067B400BB405F18394603F05DFC80460028E5D0F5
:1067C4004FF40072214607F043FCAB681A79012AA2
:1067D40010D9012404E0AB68E4B21A79A24209D9C1
:1067E4001868E119424601340368DB6998470028B8
:1067F400F1D1CBE79B794FF40072696902FA03F394
:1068040011FA83F36B61C2E7FFFD1F0010B5044664
:1068140080680A462830A16903F02CFC20B1A388C3
:1068240003F00F0300EB431010BD00BF30B590F927
:10683400023083B00446002B19DBA56805F128005B
:1068440003F048FC30B96378002043F0010363701F
:1068540003B030BD05F50E7003F03CFC0028F2D007
:10686400286803689B6998470028ECD0F0E7012169
:10687400FFF7CCFF05460028E5D00378E52BE2D0EE
:1068840023781B0701D5E369C361236A0B491A0CFA
:106894006B830B68AA8263B10DF103020DF106014B
:1068A40001A89847BDF80430BDF806202B836B82FD
:1068B400EA82A37803F07F03A370BEE7341D0620A9
:1068C40010B50378044623B9002301202370A37074
:1068D40010BDFFF7ABFF00232370A37010BD00BFF2
:1068E4002DE9F0410C7888B014F0700F03D100202A
:1068F40008B0BDE8F08140F6022305460C4601F0DD
:1069040007F90028F3D0012210232846AA702B701F
:10691400FFF730FF0028EAD02A692B782A62002B7F
:106924007FD101212846FFF771FF07460028DED0FA
:10693400102300687968EE46FB724FF02E0CBA689B
:1069440008AEFB68B7F81480AEE80F00BA69FB69BB
:106954003869796906F820CD0DF10A0C7F8BAEE811
:106964000F003346202203F8012F6345FBD1A868AA
:1069740001222B6A90F806E02830023B50F8141CE0
:1069840003FA0EF3194403F075FB86460028AED0D3
:10699400ADF814804FF02E08ADF81A7037460FCEBC
:1069A400CEF80000CEF80410CEF80820CEF80C3053
:1069B4008DF801800FCECEF81000CEF81410CEF86A
:1069C4001820CEF81C30236A1A0CADF81A30ADF832
:1069D40014200FCFCEF82000CEF82410CEF82820B3
:1069E400CEF82C300FCFCEF83000CEF83410CEF8DD
:1069F4003820CEF83C30AC6804F1280003F06AFB80
:106A040000283FF474AF04F50E7003F063FB002814
:106A14003FF46DAF206803689B6908B0BDE8F0419E
:106A240018476B6933B1AB78002223F020032A6145
:106A34006A61AB702846FFF7F9FE00283FF457AFB0
:106A44006FE700BF2DE9F041064692B000200C46E6
:106A5400317801928DF824008DF825008DF82600F8
:106A640021B99846237813F0700F03D1002012B097
:106A7400BDE8F081137810462F2B2DD0002701AAF2
:106A840003A900F00FFE03AA214600230028EDD03D
:106A9400019D30462D78002D30D001F039F848B9E9
:106AA400B8F1000FE2D0214603AA3046FFF718FFE1
:106AB4000028DBD0354609AC96F800E00FCD0FC4B2
:106AC4000FCD2D680FC42560BEF1000F12D13770B1
:106AD40009ACB7700198D2E70130019003782F2BED
:106AE400FAD0A16809A8FFF711FE0028BED009ACAE
:106AF4000198C3E73046FFF799FEE8E703AA214669
:106B04003046FFF7EDFE12B0BDE8F0812DE9F0410B
:106B1400064692B000200D46317801928DF824008B
:106B24008DF825008DF8260021B998462B7813F0AE
:106B3400700F03D1002012B0BDE8F0811378104625
:106B44002F2B29D0002702E001983770B77001AAD3
:106B540003A900F0A7FD03AA294600230028E9D0D1
:106B6400019C3046247834B300F0D2FF354609AC9A
:106B74000028DFD096F800E00FCD0FC40FCDD5F874
:106B840000C009AD0FC4C4F800C0BEF1000FDBD0D3
:106B94003046FFF74BFED7E70130019003782F2BE7
:106BA400FAD08BB1A96809A8FFF7B0FD0028C1D0BD
:106BB40009AD0198C6E7434603AA2946304600F0CA
:106BC400A7FF12B0BDE8F081A9683046FFF79EFD2B
:106BD400B1E700BF19B101F58961FFF797BF084616
:106BE400704700BF03780BB100207047FFF78EBDDC
:106BF40009B90020704738B583789B0701D4002079
:106C040038BD036A002BFAD1044680680D46013969
:106C1400837904F120020933DBB2D940013101F058
:106C24003BFA0028EBD0A378227863F01F03E561D8
:106C3400A37002B938BD2046BDE83840FFF7F6BD61
