:0200000460009A
:100000004643464200000156000000000103030081
:1000100000000000000000000000000000000000E0
:1000200000000000000000000000000000000000D0
:1000300000000000000000000000000000000000C0
:1000400000000000010408000000000000000000A3
:100050000000800000000000000000000000000020
:100060000000000000000000000000000000000090
:100070000000000000000000000000000000000080
:10008000EB04180A063204260000000000000000FD
:10009000050404240000000000000000000000002F
:1000A0000000000000000000000000000000000050
:1000B0000604000000000000000000000000000036
:1000C0000000000000000000000000000000000030
:1000D00020041808000000000000000000000000DC
:1000E0000000000000000000000000000000000010
:1000F0000000000000000000000000000000000000
:10010000D8041808000000000000000000000000F3
:100110000204180804200000000000000000000095
:1001200000000000000000000000000000000000CF
:10013000600400000000000000000000000000005B
:1001400000000000000000000000000000000000AF
:10015000000000000000000000000000000000009F
:10016000000000000000000000000000000000008F
:10017000000000000000000000000000000000007F
:10018000000000000000000000000000000000006F
:10019000000000000000000000000000000000005F
:1001A000000000000000000000000000000000004F
:1001B000000000000000000000000000000000003F
:1001C000000100000010000001000000000000001D
:1001D000000001000000000000000000000000001E
:1001E000000000000000000000000000000000000F
:1001F00000000000000000000000000000000000FF
:10020000FFFFFFFFFFFFFFFFFFFFFFFFFFFFFFFFFE
:10021000FFFFFFFFFFFFFFFFFFFFFFFFFFFFFFFFEE
:10100000D10020433110006000000000000000000B
:101010002010006000100060A82A0160000000009D
:0C10200000000060A0360100000000008D
:10103000774B4FF42A01774A77482DE9F0475A64F5
:101040001864764A99639546754A03F530337549B5
:1010500008208A42C3F854010FD0734B9A420CD235
:10106000D4430846234423F0030304330B4450F8CD
:10107000041B984242F8041BF9D16C4A6C498A421D
:101080000FD06C4B9A420CD2D4430846234423F031
:10109000030304330B4450F8041B984242F8041B2A
:1010A000F9D1654A654B9A420BD2D04311460024D0
:1010B000034423F003030433134441F8044B8B42ED
:1010C000FBD15F4A4FF470015E4B116003F5307144
:1010D0005D4A43F8042F9942FBD15C4B80215C4A66
:1010E00003F8011B9342FBD15A4C4FF080375A4E04
:1010F0004FF0FF32DFF8A0A10025584BDFF89C919C
:10110000DFF89C81C3F800A0C4F80471C4F8009112
:10111000C4F8F470C4F8F080F3693D4923F07F030C
:1011200043F04003F361736A23F07F0343F040030D
:1011300073628A66CA660A674A6700F01DF9484A00
:101140006320484B4849106003221D60CAF83810DC
:1011500043F8082C4549464A4648C3F8082D0B6811
:10116000454A43F08073CAF83C0044480B6013685A
:10117000434943F00103136003680B6000F056FB22
:10118000C4F804713F48C4F80091C4F8F470C4F87E
:10119000F08000F0B5FCF16E3B4A41F440513B4B0E
:1011A000F1661560C2F80851C2F81851C2F828510A
:1011B000C2F838519A6BD20708D442F61562344906
:1011C00059651A659A6B42F001029A632F4A314CB5
:1011D000936843F00113936000F04AF900F0B4FC07
:1011E0002368132BFCD900F0E1FB00F055FC00F064
:1011F0009BFC00F04DFB00F0A3FC2368B3F5967F49
:10120000FBD300F095FC00F087FC30BFFDE700BF8A
:1012100000C00A40AFAAAAAA0700200000000720C9
:10122000000000007C1D0060B8F6000000000020F7
:10123000381401607016002070160020C04206208D
:1012400088ED00E0FC2B0620FD89000000E400E0B2
:10125000A0E400E000800D4000C00F4008ED00E079
:1012600014E000E018E000E0B19C0000FCED00E0BC
:1012700000002020B59C0000001000E0041000E0F9
:10128000FC2006200046C3230040084000400D40DB
:101290000000C05604210620002C06201B10182038
:1012A0000C0D11132DE9F0412F4F00254269012447
:1012B000B96B4FF0020E16684FF4303821F47C0100
:1012C0000369DFF8B0C041F48021B9633168576821
:1012D000394331604FF00111244EC3F810E01D6115
:1012E000C3F848C05C629E624FF66106C3F82C806A
:1012F0009F6C1F651D6299651C61017E1C4B02EB92
:101300000111097A03EB011189680E60017E02EB7D
:1013100001110C7ACD6803EB041149680D60017E60
:1013200002EB01110C690CB149692160417E4FF655
:10133000610402EB011191F8281003EB0111896897
:101340000C60417E02EB011191F82840C96A03EB61
:1013500004135B681960437E02EB0312136B0BB13D
:10136000526B1A60BDE8F08100C00F40B80B050554
:101370008C0200203B372819F0B5284A0020284B62
:101380004FF0100C274C1127DFF8D8E01226206010
:101390000125C2F800C0C3F800E01760DFF8C8E01C
:1013A000214FC3F800E016601F60204E204F1660EA
:1013B00020491F60204E41F01501204F16601F602C
:1013C00007F540371E4E116002371E60DFF89CE0C3
:1013D0001C4E1D49C2F800E01F6016601B4F1960CB
:1013E0001B4E1C4917601E601B4F11601B4E1C4991
:1013F0001F60166019602560BFF34F8FBFF36F8FBA
:10140000C3F8B001BFF34F8FBFF36F8F52F8883C22
:1014100043F4403342F8883CF0BD00BF9CED00E04F
:10142000A0ED00E094ED00E00900100013002000A2
:1014300021000207C04206201400002025000813E6
:10144000090000101700004033001013180000605E
:101450002F000B071900007037000B171A000070DF
:101460002F000B133F00001025000803160020205A
:10147000F0B58D4B18228D4E01208D4948F20C7E1F
:101480008C4D4FF0FF378C4C83B0C3F85C12C3F81F
:1014900060520025C3F86412C3F868424FF4005448
:1014A000C3F86C628549C3F87062C3F87462C3F80C
:1014B0007862834EDA661A675A679A67DA67C3F802
:1014C0008020C3F88420C3F8882040F20562C1F868
:1014D0002C03C1F83003C1F83403C1F83803C1F854
:1014E0003C03C1F850032946B36976481840764B4F
:1014F00003437648B361D6F8843043F00C03C6F852
:1015000084300226036833430360036803EA0E0E47
:101510006F4B4EEA0303DFF8F0E103606D4B476069
:10152000DEF808703B406C4F43F000538360C368A3
:1015300023F07803C360036A1F40684B3B43664F48
:101540000362036A1F40654B3B43654F43628762FA
:10155000C762DEF8B830634F23F03F0343F0010366
:10156000C0F8B830DEF8BC30DFF884E123F03F0388
:1015700043F00103C0F8BC30056104660767C0F89A
:10158000802044664767C0F884200468564B24F0E6
:101590000204564A0460C0F818E0C66143F8041B10
:1015A0009342FBD1494B1A68194642F001021A6076
:1015B0000B68464A13F00103FAD14D4E022540F262
:1015C000F56440F2664040F299414A4F966142F21A
:1015D0000146D56140F23545C2F8004242F201248D
:1015E000C2F810020120C2F820121146C2F830726F
:1015F00007F15A47C2F8346207F51377C2F8405230
:101600003D4E3E4DC2F85072C2F85462C2F860526C
:10161000C2F86442C2F8A030C2F8A430C2F8B000E8
:101620004B692A4ADD07FBD5012300244FF48030A3
:1016300011465361C2F8A040C2F8A400C2F8B0300D
:101640004B69224ADC07FBD5012300244FF400300C
:1016500011465361C2F8A040C2F8A400C2F8B030ED
:101660004B691A4AD807FBD50123002424481146A8
:101670005361C2F8A040C2F8A400C2F8B0304B6970
:10168000124ADB07FBD5D2F8003145F60D51212077
:101690009BB250618B4239D01A4B00221A605A60BB
:1016A0009A60DA6003B0F0BD00801F40F97001005D
:1016B000F9B00100F9100100F900010000841F4099
:1016C00000C00F40FFFCFF1F000300A000402A40A5
:1016D0001200FFFFFF37F70000FFF07C40000080A2
:1016E000FF000F836300020000422A4000432A40AB
:1016F000F05AF05A9F041830063201263806180AAC
:10170000040003000028062000802A4000244FF433
:10171000802001231146C2F8A040C2F8A400C2F8FC
:10172000B0304B693B4ADF07FBD501234FF400047F
:10173000002011465361C2F8A040C2F8A400C2F8CC
:10174000B0304B69334ADE07FBD501234FF4000468
:101750004FF4803011465361C2F8A040C2F8A40093
:10176000C2F8B0304B692B4ADD07FBD501234FF49B
:1017700000044FF4003011465361C2F8A040C2F893
:10178000A400C2F8B0304B69224ADC07FBD5012324
:101790004FF40004204811465361C2F8A040C2F83B
:1017A000A400C2F8B0304B691A4AD807FBD5D2F86A
:1017B000003145F60D5121209BB250618B4210D073
:1017C000164B08224FF400041A7015490020154AE0
:1017D00001230090521A1448224400F0ADF903B0DE
:1017E000F0BD4FF400044FF4802101231046C2F8ED
:1017F000A040C2F8A410C2F8B03043690549DB0725
:10180000FBD50120054B10224FF0807448611A70FF
:10181000DBE700BF00402A40040003000821062047
:1018200000204E700000007000280620F0B4174A17
:1018300040274FF480314FF480564FF400554FF459
:10184000404443F24200136913F0020F06D0946142
:1018500051619061136913F0020FF8D113F4005F26
:1018600001D15561EFE713F4805F01D15661EAE7DA
:10187000002BE8DA13F4803F01D09161E3E75B06C7
:1018800001D45761DFE7F0BC704700BF00800D4016
:101890003B4AF3EE096A3B4900201368F0B523F098
:1018A00001030324DFF800E11360C2F89040D1F88F
:1018B000E030354FDDB2C3F30B24344EC4EB135389
:1018C00007EE905AA5F15501CEF80050B8EEE77A30
:1018D00003EB830507EE904A03FB01F13B6003EB4A
:1018E0008313B8EEE75A07EE901A491B77EE666A43
:1018F000B8EE677A264D07EE901A0B44C5ED006AE4
:10190000F8EE677A3460C7EE265A224E15682249EF
:10191000224C87EEA66A07EE903A214BC6F840317A
:10192000F8EE677A87EEA67A75EE855A76EE056A46
:10193000FCEEE55AFCEEE66A15EE903A45EA0353F2
:1019400016EE905A77EE057A136001EA0541D2F857
:101950001031FCEEE77A0B43C2F8103117EE903AE3
:10196000D2F81011C3F30B030B43C2F81031136804
:1019700043F00203136020700A4B01221A60F0BD8D
:1019800080810D4000441F401421062018210620AC
:1019900010210620002C06200000FF0F40E400E08C
:1019A000DD8A000008E100E00C210620304B40F603
:1019B000617270B5C3F8202140F2044500F0B0F820
:1019C0002C492D48D1F880202C4C42F003022C4B9E
:1019D000C1F88020C0F86051226813401BB9D0F8CC
:1019E000A8319A071AD0244B4FF00041234A516383
:1019F0001A46D3F8401141F00201C3F84011D2F861
:101A000040319B07FBD44FF400301E491B4B4FF075
:101A10000042086019209A6300F076F81A4D0022FF
:101A2000164B4FF08041144C0A26996328461A60E1
:101A30001146C4F8A8614FF4207200F069F84FF421
:101A400081064FF4800040F24313104A10492E6083
:101A50002864C4F85851C2F80412C4F848310D4A39
:101A60004FF4003101231160C4F8403170BD00BF54
:101A700000800D4000C00F4000002E4000900D403F
:101A8000001C1E008CE200E000400620002C062016
:101A9000498C00000CE100E0114B1249D86E0A4657
:101AA00040F4403030B4D86640F23765D86EA02498
:101AB00040F44070D8664D648C64936C1B06FCD473
:101AC000094B40F23760A0211A4658649964936C20
:101AD00013F08003FBD1054A137030BC704700BF80
:101AE00000C00F4000400C4000800C401124062034
:101AF000F8B500BFF8BC08BC9E4670470000000067
:101B00005FF800F0798200005FF800F03D8500008A
:101B10005FF800F04DC100005FF800F0DDA50000A7
:101B20005FF800F0019400005FF800F045870000C6
:101B30005FF800F075B900005FF800F0B1A7000091
:101B40005FF800F0198A00005FF800F0158A0000C5
:101B500045000000AD0D0000FD1E0000151F000037
:101B60002D1F0000451F00005D1F0000751F0000B5
:101B70008D1F0000A51F0000BD1F0000D51F000025
:101B8000ED1F0000052000001D2000003520000092
:101B90004D200000652000007D2000009520000001
:101BA000AD200000C5200000DD200000F520000071
:101BB0000D210000252100003D210000DD2A00004C
:101BC00080C00F400000000319000000100000005A
:101BD000E8841F4001000000FF000000FF0000003B
:101BE00000000000000000001800000010000000CD
:101BF000E4841F4001000000FF000000FF0000001F
:101C000000000000000000001F00000070C00F4036
:101C1000000C00001100000011000000E0841F40D3
:101C2000020000002C00000012000000E0841F40B1
:101C3000010000001000000011000000DC841F40C3
:101C4000020000002D00000012000000DC841F4094
:101C5000010000001E00000070C00F40C000000026
:101C60001200000013000000D0841F40010000009B
:101C7000FF000000FF000000000000000000000066
:101C80001300000013000000CC841F40010000007E
:101C9000FF000000FF000000000000000000000046
:101CA0001C000000160355005300420020005300A2
:101CB00065007200690061006C00000018035400A8
:101CC000650065006E0073007900640075006900AE
:101CD0006E006F000403090409024B00020100C0FA
:101CE00032080B0002020201000904000001020296
:101CF000010005240010010524010101042402064D
:101D000005240600010705820310001009040100E4
:101D1000020A0000000705030240000007058402D4
:101D20004000000009024B00020100C032080B0015
:101D30000202020100090400000102020100052460
:101D400000100105240101010424020605240600F7
:101D5000010705820310000509040100020A0000C2
:101D600000070503020002000705840200020000CC
:0C1D70000A060002EF0201400100010120
:101D7C000000000000000000000000000000000057
:101D8C000000000000000000000000000000000047
:101D9C0010B5054C237833B9044B13B10448AFF399
:101DAC0000800123237010BD70160020000000007D
:101DBC00B4F60000084B10B51BB108490848AFF346
:101DCC0000800848036803B910BD074B002BFBD0FB
:101DDC00BDE81040184700BF00000000741600203A
:101DEC00B4F600007016002000000000016070477F
:101DFC00006803681B691847006803681B6818476C
:101E0C00FFF7FABF0346042210B4416053F8040BE9
:101E1C000468194663685DF8044B184710B504460E
:101E2C00206803681B6998470028F9D0206803686C
:101E3C005B699847C0B210BDFFF7F0BF10B5044600
:101E4C00206803681B6998470028F9D0206803684C
:101E5C005B6998472071206803681B6998470028C4
:101E6C00F9D0206803685B6998476071A08810BD41
:101E7C0010B50446206803681B6998470028F9D000
:101E8C00206803685B6998472071206803681B69A8
:101E9C0098470028F9D0206803685B6998476071FF
:101EAC00206803681B6998470028F9D020680368EC
:101EBC005B699847A071206803681B6998470028E4
:101ECC00F9D0206803685B699847E071606810BDC1
:101EDC00006803685B68184700680AF01DBA00BF09
:101EEC0000680AF019BA00BFFFF7FABFA2B12DE9DA
:101EFC00F041174606460D1F00F10408002401347A
:101F0C000422414630680AF007FA7368A74245F884
:101F1C00043FF4D1BDE8F081704700BF002070474A
:101F2C00704700BF4FF0FF30704700BF704700BFD5
:101F3C00044B10B5044640F8103B05F0DBFF20467F
:101F4C0010BD00BF0800002010B504460AF06EF961
:101F5C00204610BD2DE9F04FB14C23782DED028BAE
:101F6C0083B0002B00F0A180AE490B78002B00F061
:101F7C00E280AD4BDFF838B31B78002B00F01F81EB
:101F8C009BF80030002B00F0D381A848A84E0378B2
:101F9C00002B00F0E381A74A3768A74B02EB8705BB
:101FAC002A46B5F96855B2F96A251D805A80013761
:101FBC00DFF800A33760A14F3E78002E40F062821C
:101FCC0007EE905A9E4E9F4DB8EEE77A07EE902A98
:101FDC003288DFF8E4E2F8EEE77A05EB8205BEF82A
:101FEC0000E0D5ED006A27EE267A013267EEA67A7C
:101FFC0092B2BDEEC77AFDEEE77A7245328017EEEB
:10200C0010CA17EE905AA3F800C05D8000F0508201
:10201C008D4ADAF8006092F800C08C4A00784FEADA
:10202C004C0E8B4D0EEB00088A4F55F828503F682C
:10203C0005F5FA4801957D1C864F45453D6000F03D
:10204C00FA81B6F5FA4F00F0E581DFF87082824E26
:10205C0096F80090D8F800600136C8F80060B9F125
:10206C00000F00F0C8817D4951F82C1089B1DFF8C0
:10207C00508298F80080B8F1000F00F04382DFF82E
:10208C003882B8F800806FEA080841448E4200F0AC
:10209C005B827044724951F820108D4200F01A8214
:1020AC002178107881F0010114E06E4A117851B159
:1020BC006D480168242940F2A5806C494FF400005A
:1020CC00C1F8840013706A4B197829BB5F4A01214F
:1020DC00594B1078217040B152490020654E644C28
:1020EC000125087010703060257023F01F036249C1
:1020FC00BFF34F8F614A136020339942FBD8BFF373
:10210C004F8FBFF36F8F5E4A5E4B1279DA7703B055
:10211C00BDEC028BBDE8F08F564E30682A2878D97A
:10212C0052484FF400060025484AC0F888601D70DC
:10213C001078414BCEE7544B197800295DD05349A8
:10214C00012553480A780570002A00F0C580514DCE
:10215C00514E524ADFF86CE1514F96ED006B95ED04
:10216C00007B167837EE067B012EFCEEC76B85EDF7
:10217C00007BCDED016ABDF804204FEA520C3A8089
:10218C00AEF800C000F0A080002E40F0A280454EBA
:10219C003688B24200F29D8007EE906A00223E80A3
:1021AC00B8EE677B0A7085ED007B002E40F09480C2
:1021BC001E700021254A204B017010788AE79BF88D
:1021CC000030002B00F09E801F4A374B92F800C065
:1021DC00174E13F80C30002B40F0D780334A306880
:1021EC00154B52F820201A60421CDFF8C8A00F488B
:1021FC003260DAF80060154A10E70F4B134A196089
:10220C00107867E701311A4B01601978002983D1E6
:10221C005CE7451C0D4A084B107835605AE700BF47
:10222C0038000420041B06204C210420F71A062039
:10223C0094170020980A2770000020206D2104209C
:10224C002C170020080204202E0004202400042057
:10225C006401042048010420051B062040170020BF
:10226C003C0004200C000420842104200080004247
:10227C005C010420400104200400202070EF00E0E9
:10228C00081B062000800E408821042034160620EE
:10229C007C0B002050010420101B0620450104205B
:1022AC008A210420340004205021042000000070F6
:1022BC003017002008180020900B00205801042033
:1022CC0090170020F41A0620A64E3688B242BFF4AE
:1022DC0063AF002A3FF46DAFA34B1B78002B00F0CB
:1022EC001781012B5AD0A14AA14BB2F90050B3F976
:1022FC000000A04B2178A04A588081F001011D807C
:10230C001078E7E69D4BDFF8D4A21B78002B34D075
:10231C009B4ADAF80060974B52F826201A60994ACB
:10232C000136994892F800C0CAF80060924A75E6E6
:10233C00924BDFF8A8A21B78EBB1914ADAF80000B7
:10234C008C4B45006E1C32F9155032F91620461C88
:10235C001D805A808C48CAF800602CE637688B4A7E
:10236C007D00844B05F1010E32F9155032F91E2017
:10237C001D805A801BE6864AE0E7854ADAF8006041
:10238C007C4B52F826201A60C9E7824A3068794B98
:10239C0002EB8002D2F868251A6025E77E4E96ED96
:1023AC00008BB0EE480B0AF007F97C4B6F491B8889
:1023BC006F4A07EE103A7A4BB8EEC77B27EE000B4C
:1023CC00B6EE007BB5EEC00BF1EE10FAACBF30EE02
:1023DC00070B30EE470BFDEEC07BCDED017ABDF95E
:1023EC00045093ED007B28460D80158037EE087B5A
:1023FC0086ED007B7DE76B4E704436786EBB6A4E83
:10240C0056F82060B5427FF44BAE207880F0010086
:10241C00207062E6DFF864814FF00109002798F81C
:10242C000060CAF80070C6EB090688F800605F4EC1
:10243C0086F8009009E6DFF844914FF0000799F810
:10244C0000808BF80070C8F10108584F89F80080A3
:10245C004FF0010887F80080F3E5534E544F56F8BF
:10246C0020603888301A01388542CBD10120DFF842
:10247C0068E1DFF844C14F4F8EF800003870ACF8BB
:10248C000090BFE707EE905ADFF824E14A4EB8EE11
:10249C00E77ABEF800E007EE902A3288474DC2EB8F
:1024AC000E0CF8EEE77A05EB8C0555ED016A9AE512
:1024BC003D780022424E3F4F32703A70002D3FF46F
:1024CC00A7AD01262C4A2F4D167095F800C0DAF8EE
:1024DC000060A3E501993B488E003B4D0160012053
:1024EC003A4955F82C7000250E60394E29468BF868
:1024FC0000003760214F2D4E38703070CAF80050F4
:10250C001078E7E58E427FF6C4AD01211170C0E56D
:10251C00224F0BF025FD2F4E3B883288134D90FB3C
:10252C00F3F101FB1300831A2B800BF019FD3B8890
:10253C0031880F4AB5F9005090FBF3F606FB1300F7
:10254C00401A00B21080D4E64FF00108224E1A490E
:10255C004FF00009174F86F8008087F80080A1F82B
:10256C00009096E5340004202F1700202C00042046
:10257C0036000420000020202400042091170020A5
:10258C000C0C02202E000420F71A0620000000700C
:10259C000C180020980A2770381700208A21042074
:1025AC00E0000420901700203C000420440104208B
:1025BC00900B00204C2104202C1700200802042032
:1025CC008921042048010420B81700209021042000
:1025DC0094170020F41A06206D21042008180020FE
:1025EC0010B5044609F0E0F9204610BD10B40123E3
:1025FC00044C05480021054A2370037011805DF8D6
:10260C00044B70474C2104206D2104202C17002012
:10261C00024BD3F88C0403689B68184738160620C5
:10262C00836C13B1184604F067B9C06C08B102F0A2
:10263C000FBB4FF0FF307047826C62B1137803F020
:10264C00080303F0FF000BB3D3695069181A48BF95
:10265C006FF000407047C16CC9B191F8313003F094
:10266C00080303F0FF008BB1D1E90423D1E9000189
:10267C0030B4101A4FF000056FF0004463EB010109
:10268C008D4208BF844200D2204630BC70470846B9
:10269C00704700BF836C13B1184604F08FBBC06C3D
:1026AC0008B102F09FBF7047836C00B583B063B173
:1026BC00184601220DF1070104F050F801280CD145
:1026CC009DF8070003B05DF804FBC06C28B1012233
:1026DC000DF1070102F0E2F9F0E74FF0FF30F1E7FE
:1026EC00836C13B1184604F0ABBBC06C08B103F09B
:1026FC00C9B9704700B5836C83B08DF8071043B12E
:10270C00184601220DF1070104F09AFB03B05DF8A5
:10271C0004FBC06C0028F9D001220DF1070103F075
:10272C00B1F903B05DF804FB1C491D4BCA6F42F4B0
:10273C004022CA679A68002A2FDBD3F88820002A27
:10274C002BDB012201F57C214FF48030F0B5032600
:10275C00144D00244FF0844EC1F82861124FC1F87B
:10276C0024614FF00076C5F890211049C5F8A421DA
:10277C000F4D1C66DA60C3F810E058619F61D96197
:10278C00C3F8E040C3F88C20C3F89060C3F8940001
:10279C00C3F89850C3F89C10F0BD704700C00F40B0
:1027AC000040384000841F401B1F0100001F1F1FEA
:1027BC001A1F0100F8B5254C0121254D40F20116D8
:1027CC002046244F09F0A0F8FFF7AEFF224B03215F
:1027DC0002226FF00300DFF89CE0C3F880110021A7
:1027EC002368DFF894C01D6001259A80DE80D860D4
:1027FC0026791A48DA829A60DA8399619A839982E7
:10280C00C3F810E0164A40F8261040F82670154917
:10281C002379154ED37603F01F02D1F8880003F10B
:10282C00100705FA02F25B1140F01040DFF84CE0A3
:10283C00C1F888000D48C1F808C046F827E00C49DB
:10284C0040F8232023795D54F8BD00BF081B0620F7
:10285C00000020201400008000801F4000C00E40AB
:10286C0000800E4000403840002C062000E100E0C3
:10287C0000E400E02240384001000090E501000037
:10288C00F8B5304C217800294ED0012940D02E4D7E
:10289C002B782E4AD25C002A39D02D4900242D48A1
:1028AC000122CE5C2C4906EB4305DFF800C1C95C64
:1028BC0050F82550091B8CF80060284E4FEA850E05
:1028CC0018BF0121264F3560264D57F8237029700B
:1028DC00254B264E264D2749274837602A700A700B
:1028EC00C3F800E0254F264E264D274903783A7051
:1028FC0032702C600C6043B924490978D9B9244949
:10290C000124244B00220C701A6001230370F8BDC3
:10291C002148FFF791FA0C4D217828700129B7D185
:10292C001D48FFF76DFAB3E7074D1C48FFF784FA13
:10293C0021782870F2E71A4D1A4C1B492A70237023
:10294C000B80DCE73C0104202E0004201000042046
:10295C00502104206401042070210420480104202B
:10296C00B8170020051B0620902104209417002086
:10297C009117002044010420041B0620301700206E
:10298C00380004200818002058010420901700205B
:10299C000C0004208421042098170020FC1A062027
:1029AC004C2104206D2104202C170020F71A06203E
:1029BC0008B51048FFF71CFA00B908BD0D48FFF721
:1029CC003BFA0D4901230D4A50280870137008D0AA
:1029DC00582805D10A4A12783AB90A4A137008BD28
:1029EC0008BDBDE80840FFF74BBFBDE80840FFF746
:1029FC00FDBD00BF981700202E1700203C010420BD
:102A0C009017002024000420144A0023DFF85CC037
:102A1C0011681A46124801EB81012DE9F0414FEA89
:102A2C00810E104E104CDFF84880F4440F4903EB34
:102A3C000E0546F8042F02F5FA420CEB0307194475
:102A4C00424544F8043C40F8045C2B4644F8081B0F
:102A5C0040F8087BEAD1BDE8F08100BF8C0B002068
:102A6C0040000420B417002068010420003E4900F7
:102A7C0000C4090028B1012802D10348FFF7DCB9D2
:102A8C0070470248FFF7D8B998170020FC1A0620A7
:102A9C0028B1012802D10348FFF7D0B9704702488A
:102AAC00FFF7CCB998170020FC1A062028B1012892
:102ABC0002D10348FFF7DCB970470248FFF7D8B9D9
:102ACC0098170020FC1A062010B5124C4121204604
:102ADC00FFF796F920460121FFF794F920460421CF
:102AEC00FFF78EF9042220460B49FFF7F1F9204637
:102AFC000121FFF785F920462321FFF781F92046B4
:102B0C001421FFF77DF920460021BDE81040FFF7A6
:102B1C0077B900BF98170020940B0020F8B5264D0C
:102B2C000024264901272A4625480AF03DFC254E5B
:102B3C00254B0721DFF8C0E02A46C3F8906429260C
:102B4C002248C3F8A4E4C3F89C041846C3F8A8149C
:102B5C0083F8B17483F8B364C3F88044C3F8844435
:102B6C0083F8984483F8994483F8B64418490AF0DA
:102B7C001BFC184B4FF47A71174E184F184699607E
:102B8C002A461C711C739C64DC6415491F600AF096
:102B9C000BFC2146304608F0B7FE2A463046114958
:102BAC000AF002FC10491148FFF720F910491148AE
:102BBC00BDE8F840FFF71AB9780B0020D9010000E6
:102BCC009C0B00201802002038160620C0010020A3
:102BDC00BD010000E8000420081B06202C0000208A
:102BEC00C101000071080000B40C0020FC1A062082
:102BFC00500C00209817002000093D0070B50B4CBC
:102C0C00430001251646204684F83D3084F8605078
:102C1C0084F85F5006F0FEFF3146204606F0FAFFBE
:102C2C0029462046BDE8704007F0D4B8A80B002018
:102C3C0008B5102202214D20FFF7E0FF11220121DF
:102C4C004D20FFF7DBFF002202214D20FFF7D6FFBE
:102C5C00102202214D20FFF7D1FF2C2208214D20FC
:102C6C00FFF7CCFF022252214D20FFF7C7FF0222B3
:102C7C0053214D20FFF7C2FF022255214D20FFF7B3
:102C8C00BDFF002256214D20FFF7B8FF112209216C
:102C9C004D20FFF7B3FF03220C214D20FFF7AEFFB1
:102CAC00002228214D20FFF7A9FF7D2225214D2050
:102CBC00FFF7A4FF002204214D20FFF79FFF3022D5
:102CCC000E214D20FFF79AFF324B4BF680321B68DA
:102CDC00934257D039D9304A934234D02F4A934239
:102CEC0011D1012220214D20FFF788FF3F22212105
:102CFC004D20FFF783FF2A4B1B78EBBB0422562198
:102D0C004D20FFF77BFF012213214D20FFF776FFAB
:102D1C00002213214D20FFF771FF31223D214D2060
:102D2C00FFF76CFF31223E214D20FFF767FF002299
:102D3C0041214D20FFF762FF002202214D20BDE80A
:102D4C000840FFF75BBF0322CCE74AF644429342AC
:102D5C00D9D1072220214D20FFF750FF3F222121FE
:102D6C004D20FFF74BFF0E4B1B786BB128225621E1
:102D7C004D20FFF743FFC6E70C2256214D20FFF7ED
:102D8C003DFFC0E70722ADE7202256214D20FFF77B
:102D9C0035FFB8E78C0B00200077010000EE020035
:102DAC004D21042070B54FF47A7194B0664800261A
:102DBC0009F0B0FA01211E20644C07F03BFB012105
:102DCC00212004F5926507F035FB31461E2007F0F3
:102DDC002BFB3146212007F027FBFFF7EBFC5C486F
:102DEC000EF012FB324601216020FFF707FF594B12
:102DFC00022160201A783F2A28BF3F22FFF7FEFEEF
:102E0C00FFF716FF544B3246544955481E7008F0D4
:102E1C00F1FEFFF7F9FD3146284606F087FA284601
:102E2C00C4F88C5405F0F6FD20B9D4F88C14204667
:102E3C0005F02AF9D4F88044444B002C5CD00026D1
:102E4C00214601236846474A6D468DF800608DF88F
:102E5C0001608DF8026003F04BFC002848D1284635
:102E6C0040F202233F4A394905F074F93E4D029A6B
:102E7C0004A99DF80C3005F110009DF80440AA60DF
:102E8C002B732C7105F04AF8384B04A8009305F00D
:102E9C0031F8A86C002845D0354903F037FC354C87
:102EAC0002E0FFF7B5FB10B12378002BF9D1324BC0
:102EBC00324A1978324B525CA86C02EB41022A4C14
:102ECC0053F822209100002834D003F06BFE2D4BD8
:102EDC0000212D4A2D4843F8041F834242F8041F59
:102EEC00F9D12B4B01221A70FFF7A2FE14B070BD62
:102EFC00684604F0A7FAB2E7D3F884146D460029AB
:102F0C00ADD00123174A68468DF831408DF8324018
:102F1C008DF8334002F0A8F90028A0D0684602F0E2
:102F2C0013FA9CE7E86C0028B9D0114A002302F090
:102F3C0097FCB4E7E46C002CC9D003460A46204643
:102F4C0001F09CFEC3E700BFB40C0020381606202D
:102F5C00A80B0020880B0020F61A0620F40614009B
:102F6C00500C002048000020E8000420080000203D
:102F7C0000009F244E2104202E0004205021042008
:102F8C0064010420FCFFFF6FFC0F2770FC0F2770FF
:102F9C004D210420CF2810B50CDDFF2422463D2105
:102FAC004D20FFF72BFE22463E214D20BDE8104060
:102FBC00FFF724BE3030C4B2F0E700BF20B1C0220E
:102FCC0001216020FFF71ABE024601216020FFF7A5
:102FDC0015BE00BF000000002DE9F04FA44C0023EB
:102FEC00A44D89B026782B70002E55D0A24B1B789F
:102FFC0023B1A24D2B78002B40F08E8023782BB17F
:10300C009F4DA04F2A683B689A4202D309B0BDE895
:10301C00F08F40F2AF429C499C4809F0A7F83B68FE
:10302C002A68013B934200F0BE80994B1A460093EC
:10303C004FF4FA33136008F07FFB0028FBD02B68A9
:10304C00002B40F0D880934B934A1B78934ED35C63
:10305C00002B40F0B08192493368009A1944914892
:10306C001268FEF739FF904B32681860009B1B68A2
:10307C001A443260984202D08C4B00221A702B6892
:10308C003A68013393422B6000F03B837F4809B0D0
:10309C00BDE8F04F09F0CAB88248FEF7A9FE002837
:1030AC0033D18348FEF7A4FE002840F0DD82287857
:1030BC0000289BD04D2800F0A7847DD8452800F02F
:1030CC008B8440F21181482800F0148400F2838133
:1030DC00462800F04083472888D1764B1B78002B7C
:1030EC0084D17048FEF7A8FE3F280346724D024675
:1030FC004FF0020128BF3F2260202B70FFF77EFDAE
:10310C0001216848FEF77CFE70E76648FEF794FEE6
:10311C00684B28701E70CBE740F2AF425A495B48AF
:10312C0009F024F80023DFF8B8812B7002E0FFF7D8
:10313C006FFA18B198F80030002BF8D1DFF884B191
:10314C005E4CDBF848002168002800F0958403F001
:10315C0029FD02E0FFF75CFA18B198F80030002B5B
:10316C00F8D1574B1B78012B00F09082DBF848000C
:10317C00544B002800F080824FF4FA32524903F08D
:10318C00EDFA02E0FFF744FA18B198F80030002B82
:10319C00F8D123683D4803F5FA33236009B0BDE844
:1031AC00F04F09F043B8494B1B68002B3FF43DAF7F
:1031BC00374A009213603EE7572800F0B78240F27E
:1031CC00AF80782800F0858200F2F780582800F054
:1031DC008F825A287FF40AAF364B1B78002B7FF472
:1031EC0005AF3048FEF744FE394B012118602D48DD
:1031FC00FEF706FEFAE62D4B01931B78002B40F0F0
:10320C00BB80344B0393344E4FF0000B009B029762
:10321C00D3F800A033685746DFF8C880B246DFF811
:10322C00BC901E4607E0DAF80010D9F80800891B9C
:10323C00814280F01582CBEB070108EB0B0008F004
:10324C00E3F98344254B5F45EDD8029F019B1A7827
:10325C00154B0293C3F800B0002A40F02382584665
:10326C000399009B0A681B681A440A6002E700BFB6
:10327C00B41700202E170020041B06204401042044
:10328C00F01A062030000420410C00009C0B00209A
:10329C00040204202F00042050210420600104208B
:1032AC0000102770FC1A0620380104208C21042001
:1032BC00981700203C010420880B0020902104204A
:1032CC0091170020E80004200C0C0220642104203B
:1032DC004C0104206821042004210620B40C002099
:1032EC004E210420942104202D2800F0CC8240F2A1
:1032FC0045813E2800F0538241287FF477AEBA4BCB
:10330C001B78002B7FF472AEB848FEF795FDB84BD6
:10331C001870FFF73FFE0121B448FEF771FD65E61A
:10332C004F2800F0A582C0F08083502800F0448123
:10333C0053287FF45BAEAC4B1B78002B7FF456AE5E
:10334C00AC4DAA48FEF794FD2860FFF771FC95ED93
:10335C00007AA94A0121B8EE477BA84BA34892ED0D
:10336C00004B9FED9D5B87EE046B85EE067B83ED3A
:10337C00007BFEF745FD39E6DFF8DC8202E0FFF763
:10338C0047F918B198F80030002BF8D19C4B9D4AA6
:10339C00986C03921168002800F0118103F002FC74
:1033AC0004E0FFF735F900283FF42DAF98F8003012
:1033BC00002BF6D127E794494EE6F32800F0C181A3
:1033CC00FF287FF413AE884B1B78012B7FF40EAED5
:1033DC00FFF77AFB0AE6492800F065824C287FF457
:1033EC0005AE814B1B78002B7FF400AE874B7F48DA
:1033FC001A4601930123864F1370FEF71DFD854B72
:10340C00132806461D5C844BC5F101050393EDB2F0
:10341C0018703D703FF6EAAD744805EB4605FEF7B3
:10342C0027FD039A3B784FF4FA3117787B4A03EB6C
:10343C0047037B4E42F8250052F8230056F8232010
:10344C008600784D1044DFF8B8B107EE906A764FDD
:10345C0045F823009200B8EE675B74489FED606BF3
:10346C0040F82360724885EE067BDBF84830BBFEE3
:10347C00477BFCEEC77B17EE905AC0ED007A6D4887
:10348C0001FB1561002918BF013501603D60002B5F
:10349C0000F0B1831146184603F084FBDFF8B881C5
:1034AC0002E0FFF7B5F818B198F80030002BF8D10E
:1034BC003B68002B54D060490022049700911746BA
:1034CC005E495F4D5F4E0291CDF81880CDF81CB06F
:1034DC00013BBB4200F074834FF4FA33009A136043
:1034EC0008F02AF90028FBD0002F40F03583039B0D
:1034FC00B84655481978474B5B5C002B40F0088365
:10350C00009B50F82110D3F800B033684FEA8109C2
:10351C0005975F46DFF844A19B4606E03368A9682F
:10352C00CBEB03038B4280F0128309EB0800C8EB52
:10353C000701504408F068F880444745EED8059FD1
:10354C00029BC3F800804346009A12689A4202D04C
:10355C000023019A1370049B01371B689F42B7D359
:10356C00039B012201981B783849394D0078EA54A5
:10357C00CA5408F031F908F077F937E52A287FF4B6
:10358C0035AD344B0025234A03F1140013F8011F09
:10359C0021B111781D70C1F101011170984202F135
:1035AC000102F3D1104B1B78002B7FF41FAD0121CE
:1035BC000E48FEF725FC19E5FFF762F916E5DE6CFF
:1035CC00002E3FF4F3AE03460A46304601F056FB9C
:1035DC00ECE600BFAFF30080112D4454FB211940E1
:1035EC00000000000040FF403C010420FC1A0620B3
:1035FC007D0B00208C0B0020800B0020E0000420B1
:10360C00E800042068210420000000708C210420B4
:10361C00F81A0620502104202F00042094150620AF
:10362C00640104203C000420300004208C1600208F
:10363C0048210420642104200402042038010420C1
:10364C00B40C002004210620B81700201000042020
:10365C00A01700209F1700204E2104200010277077
:10366C000122029F1A73F1E5B348FEF7E5FBB34B59
:10367C00012228701A701BE5D86C00283FF485AD28
:10368C004FF4FA32AE4901F009FA7EE5DBF8480056
:10369C00AC4B002800F0FC814FF4FA32AA4903F03D
:1036AC005DF872E5A74B009A986C1268002800F040
:1036BC00FA81A64903F0C4FBDFF8088302E0FEF7A9
:1036CC00A7FF18B198F80030002BF8D1029B1868AE
:1036DC00C6E59A4B1B78002B40F0ED819C48FEF719
:1036EC00ABFB9C4B18709C4B1B7883427FF47EACDD
:1036FC009A4B1B78002B40F00782994B01221A70D1
:10370C0074E4984B0122984800211B78974E984DF1
:10371C0000782170F254EA5408F05EF808F0A4F82E
:10372C004FF47A71934808F0F5FDAFE4834D287897
:10373C00FFF7A0F9904A2B781070002B7FF456AC51
:10374C0035E77E4B1B78002B7FF450ACF42180487E
:10375C00FEF756FB4AE4794D2878FFF7A7F907EEF8
:10376C00900A864AB8EE673B2B7892ED007A844D2E
:10377C00B8EE477B8349844A28609FED695B9FEDD7
:10378C006A4B83EE056B87EE065B81ED006B84EE76
:10379C00057B82ED007B002B7FF428AC07E7674BA1
:1037AC001B78002B7FF422AC6F4B0122774F1A70E1
:1037BC0008F002F8764BC6B26A4A9D5D132E03924E
:1037CC00C5F101051670EDB23D703FF60FAC6048C7
:1037DC0005EB4605FEF74CFB039B6E494FF4FA32A2
:1037EC0093F800E03B78002741F8250003EB4E03EB
:1037FC00DFF8D4C1684D51F823105CF82E008E0010
:10380C0055F823508000DFF8C4E107EE906A294494
:10381C00CEF80000AD00B8EE675B6048DFF8B0E1B1
:10382C0040F8231001215E48DFF8A8C140F823605E
:10383C005C4B2170C8211D605B4B5C4D1F604D487B
:10384C009FED3B6B85EE067BBBFE477BFCEEC77B9F
:10385C0017EE903ACCED007A02FB1362BA4218BF15
:10386C000133CEF800202B6008F054FDFFF7BEBBEF
:10387C00324B1B78002B7FF4B9AB14224C493448E3
:10388C00FEF732FB93E62D4B1B78002B7FF4AEAB8F
:10389C00142248492E48FEF729FB01212C48FEF73B
:1038AC00AFFAFFF7A3BB254B1B78002B7FF49EAB25
:1038BC00414B27481978FEF7A3FA10212448FEF74C
:1038CC009FFA14212248FEF79BFA3C4B20481978AA
:1038DC00FEF796FA294B1E481968FEF793FA142145
:1038EC001B48FEF78FFA4FF4FA611948FEF78AFA73
:1038FC00FFF77CBB114B1B78002B7FF477AB144884
:10390C00FEF79AFA031C2E4A18BF012318461370AF
:10391C00FFF754FB01210E48FEF772FAFFF766BB66
:10392C000000000000408F40112D4454FB21194031
:10393C00000000000040FF40981700203C010420CC
:10394C000C0C0220E80004200C1800209421042008
:10395C00FC1A06206C2104202E0004209017002055
:10396C00240004202F0004208C210420A017002008
:10397C0010000420B40C00202F1700208C0B00200A
:10398C0028000420800B0020E0000420F81A0620F8
:10399C005021042094150620640104203C000420CE
:1039AC008C16002068210420F01A06203000042018
:1039BC007021042040170020F61A06207D0B0020F1
:1039CC00DC0004204E210420B817002060010420E4
:1039DC0064210420482104208B4B1D78002D7FF49A
:1039EC0005AB8A48FEF728FA021C894B4FF00101FF
:1039FC0018BF012285481A70FEF702FA854A864BD9
:103A0C0015801D70FFF7F2BA7F4B1D78002D7FF4E7
:103A1C00EDAA7E48FEF712FA804BB0F5FA6F1880CB
:103A2C0000F2D48082007E4929E7774D2878FFF791
:103A3C002FF87C4A7C491378088023B97B4B0026ED
:103A4C000027C3E900677A4B1B68002B39D107EEBE
:103A5C00900A7849784F4308B8EE677B774E3880E8
:103A6C00338081ED007B002840F0A78010702B780C
:103A7C00002B7FF4BBAA9AE5DBF84C50002D3FF4E9
:103A8C006CAB03460A46284601F0F8F8FFF765BB15
:103A9C00D86C00283FF479AB4FF4FA32684900F047
:103AAC00FDFFFFF772BBD86C00283FF405AE6549EB
:103ABC0001F0E8FF00E66448FEF7BEF9634B1870AE
:103ACC0011E65D4907EE900A614F0988B8EE676B05
:103ADC0007EE903A012305EE901A8842B8EE677B08
:103AEC001370B8EE655B534E94BF00200120594A09
:103AFC0036EE456B584938700B7086EE074B86EDE9
:103B0C00005B82ED004BB2E7FEF770FDFFF76EBA7B
:103B1C00009B50F82110D3F800B033684FEA8109AC
:103B2C0005975F46DFF840A19B4605E03368A9681E
:103B3C00CBEB03038B420AD209EB0800C8EB07015D
:103B4C00504407F061FD80444745EFD8F7E401226B
:103B5C00424B059F1A73F3E4009B4FF0000AD6F812
:103B6C000090D3F800B005E03368AA68C9EB0303F2
:103B7C00934231D2334BCAEB0B0103EB0A0007F033
:103B8C0043FD8244D345EFD8079B986C029BC3F846
:103B9C0000A0009B1A68324B10B32A4903F050F96D
:103BAC00DDF8188002E0FEF733FD18B198F800300C
:103BBC00002BF8D1029B1B68C6E40123137056E757
:103BCC00284B1B68002B7FF489AC85E429460F48F1
:103BDC00FEF716F9FFF70ABA0123204A1373D3E74D
:103BEC00D86C28B1174901F04DFFDDF81880DDE7DE
:103BFC00DDF81880DAE7DBF84C0000283FF44EAC17
:103C0C0001F03CF84AE400BF3C010420FC1A0620F9
:103C1C00901700202C1700206D210420900B002001
:103C2C0008020420882104203400042038170020C6
:103C3C004C010420500104208A210420F41A06208F
:103C4C000C18002094210420981700206C210420CB
:103C5C0045010420101B062034160620B40C00204D
:103C6C00E80004206421042000000070024A03498B
:103C7C00034809F099BB00BF780B002071080000C5
:103C8C00181B0620024A0349034809F08DBB00BFEC
:103C9C00780B002071080000201B0620024A034903
:103CAC00034809F081BB00BF780B002071080000AD
:103CBC00281B0620024A0349034809F075BB00BFC4
:103CCC00780B002071080000301B0620024A0349C3
:103CDC00034809F069BB00BF780B00207108000095
:103CEC00381B0620024A0349034809F05DBB00BF9C
:103CFC00780B002071080000401B0620024A034983
:103D0C00034809F051BB00BF780B0020710800007C
:103D1C00481B0620024A0349034809F045BB00BF73
:103D2C00780B002071080000501B0620024A034942
:103D3C00034809F039BB00BF780B00207108000064
:103D4C00581B0620024A0349034809F02DBB00BF4B
:103D5C00780B002071080000601B0620024A034902
:103D6C00034809F021BB00BF780B0020710800004C
:103D7C00681B0620024A0349034809F015BB00BF23
:103D8C00780B002071080000701B0620024A0349C2
:103D9C00034809F009BB00BF780B00207108000034
:103DAC00781B0620024A0349034809F0FDBA00BFFC
:103DBC00780B002071080000801B0620024A034982
:103DCC00034809F0F1BA00BF780B0020710800001D
:103DDC00881B0620024A0349034809F0E5BA00BFD4
:103DEC00780B002071080000901B0620024A034942
:103DFC00034809F0D9BA00BF780B00207108000005
:103E0C00981B0620024A0349034809F0CDBA00BFAB
:103E1C00780B002071080000A01B0620024A034901
:103E2C00034809F0C1BA00BF780B002071080000EC
:103E3C00A81B0620024A0349034809F0B5BA00BF83
:103E4C00780B002071080000B01B0620024A0349C1
:103E5C00034809F0A9BA00BF780B002071080000D4
:103E6C00B81B0620024A0349034809F09DBA00BF5B
:103E7C00780B002071080000C01B0620024A034981
:103E8C00034809F091BA00BF780B002071080000BC
:103E9C00C81B0620024A0349034809F085BA00BF33
:103EAC00780B002071080000D01B0620024A034941
:103EBC00034809F079BA00BF780B002071080000A4
:103ECC00D81B0620006910B103689B6A184770471D
:103EDC00006910B10368DB6A18477047006910B1BC
:103EEC0003681B6918477047006910B103689B6928
:103EFC0018474FF0FF307047006910B10368DB685A
:103F0C0018477047006910B10168096B0847704782
:103F1C0010B4006920B10468616B5DF8044B08476C
:103F2C005DF8044B704700BF006910B103689B6BD0
:103F3C001847002000217047006910B10368DB6B43
:103F4C001847002000217047006910B103681B6CF2
:103F5C0018477047006910B103685B6C18477047CD
:103F6C00006910B103689B6C18470148704700BF8B
:103F7C0064010020006910B10368DB6C18477047BE
:103F8C0038B50B6904462BB11D6819462B6D984743
:103F9C00204638BD4FF47A70064A23712373A06013
:103FAC0022600B692361002BF2D01A692046013282
:103FBC001A6138BD94000020006910B103685B6D74
:103FCC0018477047006980B10368012200B583B0BF
:103FDC009B6A0DF10701984720B19DF8070003B0CB
:103FEC005DF804FB4FF0FF30F9E74FF0FF307047FE
:103FFC0010B582B00468012202AB03F8011D19460A
:10400C00E36A984702B010BDC36D0BB10120704735
:10401C00006E003018BF0120704700BF10B5044679
:10402C00406E18B109F08EFB0023636604F1240086
:10403C00BDE8104003F05EBF10B5044606490748C2
:10404C002369224608F03EF9206920B10368BDE8D7
:10405C0010405B6A184710BD4C010020B40C0020C6
:10406C00024602490248136908F02CB96801002085
:10407C00B40C00202DE9F041002394B04FF47A7475
:10408C00264F1A460546243104A88DF804308DF8C5
:10409C000C30129313930294009703F0C3FF129BFE
:1040AC00002B31D06820002608F058F99DF8043018
:1040BC0004461B4A4FF47A782430237604A9029BD9
:1040CC002260E361174A9DF80C30626184F820305D
:1040DC00267126732661C4F8088003F0C9FE236993
:1040EC00114A0133676166662E71C5F808802E731C
:1040FC002C6123612A600D4B04A8009303F0FAFE97
:10410C00284614B0BDE8F081139B002BCAD1064A97
:10411C002B71AC602B732B612A60ECE72C00002018
:10412C00F400002070000020940000200800002003
:10413C00C26D62B1137803F0080303F0FF000BB3F8
:10414C00D3695069181A48BF6FF000407047016E70
:10415C00C9B191F8313003F0080303F0FF008BB1C3
:10416C00D1E90423D1E9000130B4101A4FF0000555
:10417C006FF0004463EB01018D4208BF844200D212
:10418C00204630BC70470846704700BFC36D13B162
:10419C00184602F0B1BB006E08B100F059BD4FF0EB
:1041AC00FF307047C36D13B1184602F007BE006EA6
:1041BC0008B101F017BA704738B5446E0CB12046FF
:1041CC0038BD05464FF4807009F0B4FA01466866B4
:1041DC0080B1E86D0C7028B14FF4807202F076FF5C
:1041EC006C6EECE7286E40B14FF4807200F06EFB01
:1041FC006C6EE4E7024C6C66E1E70C46DFE700BF4F
:10420C00E01B0620C36D9BB11A7812F0700F00D121
:10421C00704710B504460021184602F0C3FC206E0E
:10422C0028B100220023BDE8104000F027BD10BDCE
:10423C00006E0028ECD090F8313013F0500FE7D01E
:10424C000022002300F01ABDD0B5C46D8CB1012B37
:10425C0008BF002A01D30020D0BD1146204602F031
:10426C00A1FC0028F7D0204602F0AEFD0028F2D0C9
:10427C00D0BD046E002CEED0204600F0FFFC0028D0
:10428C00E9D02046BDE8D04001F08ABBC36D13B124
:10429C00D86900217047036E13B1186959697047CA
:1042AC0018461946704700BFC36D13B158690021F9
:1042BC007047036E13B193E8030070471846194614
:1042CC00704700BFC36D13B1184602F047BA006EB9
:1042DC0008B100F0E3BB4FF0FF307047C36D33B152
:1042EC001B7813F0700F14BF012000207047006E74
:1042FC0030B190F8313013F0500F14BF0120002072
:10430C00704700BFC36D13B1184602F099BD006E23
:10431C0008B101F0B7BB7047D0B4039C16461F46DA
:10432C0034B1012C1ED0022C0DD00020D0BC704713
:10433C00C46DDCB1012B08BF002AF6D22046114611
:10434C00D0BC02F02FBCC36DB3B1DA69B61847F11B
:10435C000007012F08BF002EE7D231461846D0BC0B
:10436C0002F020BCC36D93B15A69EFE7006E0028D0
:10437C00DBD0D0BC00F082BC036E002BD5D018462D
:10438C00D3E9042392197B41D0BC00F077BC036EB7
:10439C00002BCAD01846D3E9002392197B41E8E7D9
:1043AC00084B026910B50446036042B11369013B26
:1043BC00136123B9006910B103681B6A9847204642
:1043CC0010BD00BF9400002038B5154A0446C36DDB
:1043DC0000F124050260F3B1284603F08BFD606EFA
:1043EC0008B109F0AFF90F4B2846636103F082FD69
:1043FC000D4B2269236042B11369013B136123B950
:10440C00206910B103681B6A98472046682107F0A1
:10441C00A7FF204638BD036E002BDDD1DFE700BFC0
:10442C00F400002008000020940000200A4B0269D0
:10443C0010B50446036042B11369013B136123B903
:10444C00006910B103681B6A98472046142107F0D5
:10445C0087FF204610BD00BF9400002038B5134ADA
:10446C000446C36D00F124050260D3B1284603F065
:10447C0041FD606E08B109F065F90D4B284663618A
:10448C0003F038FD0B4B2269236042B11369013BE9
:10449C00136123B9206910B103681B6A9847204641
:1044AC0038BD036E002BE1D1E3E700BFF400002020
:1044BC00080000209400002070B440F2012504682C
:1044CC0025611BB31E46F1B10D780131013B6566C8
:1044DC00256FAD0706D4656F013EEDB212B11570B4
:1044EC00013204686569ED07F2D5002BEBD16EB192
:1044FC0001680B6F9B07FCD44B6FDBB20AB11370D6
:10450C000132013EF3E790F83C50DFE770BC704796
:10451C000BB1FFF7D1BF7047704700BF30B5D0F873
:10452C0084448FB0A4B100250A4668462146012375
:10453C008DF800508DF801508DF8025002F0D8F82B
:10454C0008B90FB030BD684602F07CFF0FB030BD2B
:10455C00D0F888040028F4D00A46012301466846A6
:10456C008DF831408DF832408DF8334000F07CFEF0
:10457C000028E6D0684600F0E7FE0FB030BD00BF63
:10458C0030B5D0F884448FB07CB100250A460123A5
:10459C0004F2444168468DF800508DF801508DF8B6
:1045AC00025001F0DDFF0FB030BDD0F888040028B8
:1045BC00F9D00A46012300F5896168468DF831402F
:1045CC008DF832408DF8334001F0DCF80FB030BD7F
:1045DC0030B5D0F884448FB074B100250A466846D3
:1045EC0021462B468DF800508DF801508DF8025065
:1045FC0002F07EF80FB030BDD0F888040028F9D056
:10460C000A462346014668468DF831408DF8324003
:10461C008DF8334000F028FE0FB030BD38B505469C
:10462C00D0F88404C0B1C469013C03F037FBD5F861
:10463C008434241A43B198794FF4007303FA00F0D0
:10464C0080B2A0FB040138BDD5F8883463B1D3F82F
:10465C003C04A0FB040138BDD5F8880420B1D0F887
:10466C00304401F0DBFCE2E70020002138BD00BF44
:10467C0030B5D0F884448FB0A4B100250A46684602
:10468C0021462B468DF800508DF801508DF80250C4
:10469C0002F02EF808B90FB030BD684602F054FA9B
:1046AC000FB030BDD0F888040028F4D00A46234659
:1046BC00014668468DF831408DF832408DF8334014
:1046CC0000F0D2FD0028E6D0684600F0A9FE0FB03D
:1046DC0030BD00BF70B5D0F884448EB01646C4B15E
:1046EC00002504F244440A46684621462B468DF8C0
:1046FC0000508DF801508DF8025001F095FF08B96B
:10470C000EB070BD32462146684602F02BF90EB051
:10471C0070BDD0F888040028F2D000F589650A46EF
:10472C002346684629468DF831408DF832408DF885
:10473C00334000F017FD0028E2D032462946684687
:10474C0001F0D6F80EB070BDD0F884244AB191793E
:10475C004FF40073D0698B4001389BB2A3FB00016E
:10476C007047D0F8882432B1D2F83034D2F83C04F7
:10477C00A3FB00017047002000217047012B2DE99D
:10478C00F041054694B040D0022B01F1040140F2F7
:10479C000223684618BF002303F0DCFC129B002B9D
:1047AC003CD0682004AF07F0D9FD9DF804200446E6
:1047BC00214B224900264FF47A782276636124300B
:1047CC00029B9DF80C2021603946E36184F820207F
:1047DC00267126732661C4F8088003F049FB23690F
:1047EC0017490133174A66662E71C5F808802E7377
:1047FC002C61616123612A60134B3846009303F0EE
:10480C0079FB284614B0BDE8F08144F20223043150
:10481C00684603F09FFC129B002BC2D1139B002B0C
:10482C00BFD14FF47A71074A2B7104AF2B732B61F4
:10483C00A9602A60E0E700BF70000020F4000020AF
:10484C002C0000209400002008000020134B144979
:10485C001448154AF0B40024072701262925C3F86B
:10486C009414124918601846C3F8A024C3F8A8146D
:10487C00C3F8AC7483F8B56483F8B754C3F88444B4
:10488C00C3F8884483F89C4483F89D4483F8BA4465
:10489C00074A0849F0BC08F087BD00BFE41B06209E
:1048AC001802002090010020C001002000093D00EA
:1048BC00780B0020A927000010B5044600F092FEEA
:1048CC00002384F8313084F8333010BD2DE9F043E7
:1048DC0000F1240385B081468846154601AE90F858
:1048EC00314093E8070086E80700ACB399F8303004
:1048FC00012B38D901270024012F3146D9F820008B
:10490C0014BF2022402201F00DFB012824D10022EB
:10491C003146D9F8200001F0E9FAE8B10378C12B4F
:10492C001AD108EB040E04F10F0C30F8022F631CA3
:10493C003F21CAB1AB4217D27E2A1C4698BFD1B2D6
:10494C0063450EF8011BF0D1013799F83020FFB206
:10495C00BA4209D91C46CFE70023184688F8003024
:10496C0005B0BDE8F08300240023204608F804308D
:10497C0005B0BDE8F08300BF90F831200AB10020EB
:10498C00704738B50D4611463822044609F096FAA0
:10499C0040230120256284F8313084F8330038BD7F
:1049AC002DE9F0410878202803D111F8010F2028B7
:1049BC00FBD0516008782F2864D0002862D05C2886
:1049CC0025D0A0F12204E4B21A2C23D94D1C0026C8
:1049DC00DFF8C4E003E01A2C2EFA04F722D9A0F178
:1049EC003E040136A0F1200CA846012C37460ED906
:1049FC007C280CD0BCF15E0F09D815F8010BA0F186
:104A0C002204A0B12F28E4B211D05C28E3D10020FD
:104A1C00BDE8F081204D25FA04F4E507D6D5002039
:104A2C00BDE8F081FC07DAD50020BDE8F0812F2825
:104A3C0001D0202823D1701C0844054610F8014BE6
:104A4C00202CFAD02F2CF8D01D609EB10F4417F8F3
:104A5C00013C202B01D02E2B0AD1731E19441E466B
:104A6C004BB111F8010D013B2E28F8D02028F6D0BF
:104A7C00FF2ECCDC334613600120BDE8F081C3F877
:104A8C000080E3E7202801D02F2802D100273E46E2
:104A9C00D1E719600023EEE7010100052DE9F04F85
:104AAC0090F8333083B00546DE0760D55C060E46C1
:104ABC00914640F1BE80D5E90001D5E9042310EB05
:104ACC00090A41F1000B5B4508BF5245C0F0B780A5
:104ADC00B9F1000F74D0AA464C4640F2FF17FAE821
:104AEC0006012B6AD3F8382402EA0008C8F3080B35
:104AFC00B8F1000F6AD150EA010279D195F8312052
:104B0C0051064CBFD3F83414E969A9614FEA582017
:104B1C000239D3F82C24BC4293F845E4024401FA40
:104B2C000EF111442ED9BBF1000F2BD1D3F81C225E
:104B3C00914227D0B4F5806F61D34FF0010C4FEA4E
:104B4C0054280CFA0EFEC0EB0E00804528BF8046A0
:104B5C0091423DD801EB0800824239D203F5047032
:104B6C000191009305F02AF8009B019980BB95F800
:104B7C0032304FF0FF3043F0020385F8323003B08F
:104B8C00BDE8F08F03F50470002204F0E7FF002865
:104B9C00EDD0CBF5007800EB0B013046A04528BFDB
:104BAC00A046424605F086F9404600214644D5E928
:104BBC00002380185941B4EB0804C5E9000190D1D9
:104BCC000024C4EB090003B0BDE8F08FA9699DE790
:104BDC00D3F8140232464346D0F800E0DEF810B0A9
:104BEC00D8470028C3D04FEA482800214046DDE7CB
:104BFC0095F83320520610D5A969013185E7D3F811
:104C0C00140232460368DB6898470028AFD04FF493
:104C1C00007000214FF40078C8E718465246A96985
:104C2C0001F0ACF940B20028A1DB0BD02B6AA969CA
:104C3C006CE790F8313018073FF53DAF48E7C0EB13
:104C4C00020945E795F8313013F0500FB9D18EE7D2
:104C5C00F0B583B00122044685690DF10701D0E956
:104C6C000067FFF71BFF0128A5610CBF9DF807002B
:104C7C004FF0FF30C4E9006703B0F0BD2DE9F04FF1
:104C8C0090F831E085B004468569BEF1000F36D04E
:104C9C0016461F46D0E90001994208BF904265D0E4
:104CAC0056EA070330D10023A3610120C4E9006751
:104CBC0005B0BDE8F08F10F1FF3241F1FF3322FA5D
:104CCC000CFC03FA08F823FA0AFA50EA01034CEA3E
:104CDC00080C4CEA0A0C4BD0E34549D3CCEB0B0B3C
:104CEC00A94604F118085D464246002DDDD0A169A5
:104CFC00013D206A01F042F90028F5D14D46002013
:104D0C00A56105B0BDE8F08F1EF0080F27D1236A0E
:104D1C0016F1FF3893F845C447F1FF39C2460393A7
:104D2C000CF1090CCB4694F833905FFA8CFC19F01B
:104D3C00400FCCF120082AFA0CF2CDE900AB019B14
:104D4C00ACF1200A03FA08FB23FA0AF342EA0B023D
:104D5C0042EA030BAFD0E3695B44A361A5E7D4E956
:104D6C000423BB4208BFB242C9D3D0E70120C8E735
:104D7C001EF0400F02D1E369A361B1E7039BD3F8A6
:104D8C003434F9E72DE9F04F9A4693B090F831306E
:104D9C00054600922BB991F831300E4613F0500FA6
:104DAC0008D10023184685F8313085F8333013B01C
:104DBC00BDE8F08F1C9B03F00303012B06D0022BE4
:104DCC0000F00981002BECD1012300E002231C9A96
:104DDC0002F0080213430193009B002B00F0FD80AE
:104DEC0018460022514601F001FA96F83130029033
:104DFC004BB1D6E90023134305D000210022002338
:104E0C00B161C6E900230AF10E03B8494FF000095D
:104E1C0081FB0321DA174C464F460B44C2EBE303EC
:104E2C00DBB2039302335FFA83FB20220AA93046DC
:104E3C00FFF734FE00283DD02028B2D19DF8283051
:104E4C001A0666D4002C61D13268B169203A0791F8
:104E5C0008920134E4B26BB3C02B00F09380C12BE9
:104E6C0062D0852BE1D138220021284609F026F8A2
:104E7C009DF82C309DF82920D806304685F8302036
:104E8C0003F0370258BF42F0080285F8312033682E
:104E9C00316AB269203B29620AA96A622022AB629C
:104EAC0096F83330C3F3801385F82C30FFF7F6FDFA
:104EBC000028C1D11C9B99057FF573AF019B9A0704
:104ECC007FF56FAF009B002B3FF46BAF5C450CD3B1
:104EDC0086E020287FF465AF24B93268B169203AA6
:104EEC0007910892DCB2A3457AD920220AA9304650
:104EFC00FFF7D4FD631C0028EBD13046B76900F0F6
:104F0C00A1FB00283FF44DAFB761ECE75C45A2D2A2
:104F1C009FE7B9F1000F9FD15C4538BF0024852B6A
:104F2C0083D14FF001099EE7C7EB0A083A46009976
:104F3C000AA85FFA88F8B8F10F0F28BF4FF00F08D6
:104F4C00434601F025F900283CD04744FFB2BA454E
:104F5C007FF46BAF1C9B1B053FF523AF1C9B13F41D
:104F6C00884F40F0A08095F833309F0700F19B806C
:104F7C001C9B5B053FF515AF1C9B580400F1B880DA
:104F8C00012014E79DF82930019A990785F8332000
:104F9C0003D542F0400385F833300F99DDE90C233B
:104FAC00E961C5E90423DDE91001009BC5E90201B3
:104FBC00002BCFD09DF82B30534505D04FF0000976
:104FCC004F4632E7814630E7BDF82C30029A9342C7
:104FDC00F4D1002729E70323F9E6009B029312E79B
:104FEC0096F83330002138222846C3F380130F463D
:104FFC000DF11C0805F124048DF8243008F05EFF37
:10500C00039A336A0AF11E0602F1010908222B6287
:10501C00F6B285F831205FFA89F9CDF80CA0DDF8ED
:10502C0000A098E8070084E80700184601224146D2
:10503C0000F05CFF044600283FF4B3AE90F900305A
:10504C00002BFFF6AEAE2022002108F037FF002F18
:10505C0067D0012F55D0C7EB07130F2E4FF0C101AE
:10506C003246A3F11E0328BF0F222170DBB252B1CE
:10507C00023412B2534404EB420213F8011B24F81D
:10508C00021BA242F9D10137FFB2BB4529D920221C
:10509C004146286A00F046FF01287FF482AE0F3E9D
:1050AC00286AF6B2C2E795F8313013F0110F7FF48D
:1050BC0078AE1C9B5E057FF55FAF95F833309C078F
:1050CC007FF56FAE002200232846FFF7D7FD00289E
:1050DC003FF467AE284600F063FC00283FF461AE55
:1050EC004EE7284600F07EFA61E600BF8988888882
:1050FC002846D5E90423FFF7C1FD00287FF440AF13
:10510C004FE6019BC021032263F03F0321706270C4
:10511C0085F833309DF80C30E370BDF80830A3806F
:10512C00B1E7852323700E4B85F8309084F80190FD
:10513C001B687BB10DF117020DF11A0106A89847F7
:10514C00BDF81810BDF81A209DF817306181228126
:10515C00237598E745F221236381E381638292E70B
:10516C00F82006202DE9F043064695B000200D46A8
:10517C0096F8311003928DF849008DF84A008DF89D
:10518C004B0029B9994695F8313013F0500F03D1E3
:10519C00002015B0BDE8F083137814462F2B35D0C2
:1051AC004FF00008214603AB04AA3046FFF7F8FB8A
:1051BC000028EDD0039B1B78002B3CD09DF81030C1
:1051CC002946059A3046CDF80080FFF7DBFD002814
:1051DC00DED0344606AF06F1300E2068103454F899
:1051EC000C1C3D4654F8082C103754F8043C7445FC
:1051FC000FC5F2D1206806AD3860304600F0F2F9E8
:10520C0086F8318086F83380039CCBE70134039415
:10521C0021782F29FAD0D1B106A8382200212F6A83
:10522C00054608F04BFE402201230E978DF84920CD
:10523C008DF84B30B4E79DF810302946059A30466E
:10524C00CDF80090FFF79EFD15B0BDE8F083382235
:10525C0030462C6A08F032FE40230120346286F876
:10526C00313086F8330094E719B101F58961FFF705
:10527C0079BF0846704700BF90F8313053B930B54C
:10528C0091F8314083B00D4614F0500404D12046FF
:10529C0003B030BD00207047D5E90045002504F06F
:1052AC001F042C4302D0184603B030BD00921A469E
:1052BC00FFF768FD03B030BD8169F8B50446006A9C
:1052CC0001B10131012200F045FD012806462ED91D
:1052DC0001230146206A1A4600F096FD074630B3BA
:1052EC00A3693BB394F83320510612D5591C8E4256
:1052FC0026D022F04002E16984F8332005E0206AD0
:10530C0000F046FE294690B1A3694D1C99422A46ED
:10531C00F5D34FF0FF323146206A00F039FE30B140
:10532C00A16969B13246206A00F032FE40B900270B
:10533C003846F8BD94F8333043F0400384F83330EA
:10534C00A6613846F8BD00BF2DE9F04300F12403F7
:10535C0085B090F83340054601AE93E8070086E827
:10536C000700A2071BD5E969E9B9002401223146DF
:10537C00286A013400F0BAFD88B10378E4B203F076
:10538C007F03037095F83030A34231D3002CEDD05D
:10539C0020223146286A00F0C5FD0128E6D0002005
:1053AC0005B0BDE8F0836306286A1CD590F8452447
:1053BC000023D5E90289093218F1FF38D2B249F13C
:1053CC00FF39C2F12007A2F1200428FA02F209FAEF
:1053DC0007F729FA04F43A432243013200F014FD92
:1053EC000028C2D1DBE700F0E5FD0028BDD1D6E7EF
:1053FC0000232C6A85F83130204685F8333004F0D0
:10540C00DDFB0028CBD004F5047004F0D7FB00289A
:10541C00C5D0D4F8400403689B699847C0E700BF27
:10542C0090F83130D90601D40020704710B5002215
:10543C0088B000230446FFF721FC06E0202819D190
:10544C009DF800301A0615D433B120226946204647
:10545C00FFF724FB0028F1D194F8333008222046C2
:10546C0043F0020384F8312084F83330FFF76CFFEB
:10547C0008B010BD002008B010BD00BF2DE9F04FE2
:10548C00002787B000F1240B06460DF10C08BA4634
:10549C003C469BE8070088E8070000224146306A3A
:1054AC005FFA87F900F022FD054630B10378C02B76
:1054BC0059D0C12B2ED0852B09D096F83230002034
:1054CC0043F0010386F8323007B0BDE8F08F96F850
:1054DC003120434B02F0370290F801A01B68828008
:1054EC0083B10DF107020DF10A0102A89847BDF82E
:1054FC000A20BDF808309DF80710AA8169752A8228
:10550C00EB816B82326A92F8103243F0010382F81D
:10551C0010322B78E103A3F18500002241EA5404F8
:10552C00B0FA80F0012113FA84F340099CB20A44CA
:10553C00E30303211F2A43EA540309D8AC5C012A74
:10554C0014FA83F39CB201D10028F0D10121EEE7CB
:10555C00CA4526D020224146306A013700F0E2FCD1
:10556C0001289AD0A9E796F8333013F0400F43780E
:10557C0014BF43F0020323F002034370306AF16955
:10558C00D6E904236961C5E90223D6E90223C5E9FA
:10559C00062390F8103243F0010380F810322B7878
:1055AC00B8E759460122306A00F0A0FC002884D0EC
:1055BC00356A4480284604F001FB00283FF47DAF97
:1055CC0005F5047004F0FAFA00283FF476AFD5F82C
:1055DC00400403689B69984700283FF46EAF73E75B
:1055EC00F820062090F8312092B138B590F833208D
:1055FC0011060FD4056A0446284604F0DFFA88B970
:10560C0094F83230002043F0010384F8323038BD76
:10561C000120704702F07F0280F83320BDE838404B
:10562C00FFF72CBF05F5047004F0C8FA0028E7D08A
:10563C00D5F8400403689B6998470028E0D0012006
:10564C0038BD00BF2DE9F04190F8313004465906C1
:10565C005FD48068236AD3F83C341844B0F1806F6F
:10566C0002D30020BDE8F0812046FFF725FE00287C
:10567C00F7D0266A96F81032DA074ED44FF0FF3383
:10568C00002506F508784FF40072C6F81C3229463E
:10569C0086F81052404608F011FC226AA7690126D0
:1056AC0092F84514023FD2F82C348F401F4416FA5E
:1056BC0001F310D0D2F84004791942460135036841
:1056CC00DB6998470028CCD0226A92F8453406FA58
:1056DC0003F3AB42EED894F831305B0614D494F853
:1056EC003330002763F07F0384F83330D2F83C6406
:1056FC00D4E90223D4E9040192197B418019794140
:10570C00C4E90223C4E904012046BDE8F041FFF7D7
:10571C0069BF006A00F030FD9CE706F5047004F0E8
:10572C004DFA0028AAD19CE791F8313013F0500FB4
:10573C0001D10020704730B540F6022583B01378B4
:10574C00044652680095FFF71DFB10B9002003B00A
:10575C0030BD1023204684F83130FFF773FF00284A
:10576C00F4D0A169002200232046E161FFF786FAFC
:10577C00C123204684F8333003B0BDE83040FFF736
:10578C0031BF00BF2DE9F043064695B000200C4612
:10579C0096F8311003928DF849008DF84A008DF877
:1057AC004B0029B9994694F8313013F0500F03D1BE
:1057BC00002015B0BDE8F083137811462F2B39D09B
:1057CC004FF0000803AB04AA3046FFF7E9F80028B5
:1057DC00EED0039B1B78002B3AD09DF8103021465D
:1057EC00059A3046CDF80080FFF7CCFA48B9B9F1EC
:1057FC00000FDDD0214604AA3046FFF795FF0028A4
:10580C00D6D0344606AF06F1300E2068103454F86A
:10581C000C1C3D4654F8082C103754F8043C7445C5
:10582C000FC5F2D1206806AC38603046FFF744F85B
:10583C000399C7E7013103910B782F2BFAD0216A1A
:10584C0006A8FFF799F80028B2D006AC0399B7E781
:10585C0004AA21463046FFF767FF15B0BDE8F08378
:10586C0052EA030103D090F83310890701D40020C9
:10587C007047C1690029FAD12DE9F04112F1FF36C8
:10588C008046006A1D4643F1FF37144690F84534B4
:10589C000933DBB2C3F1200E26FA03F2203B07FAE0
:1058AC000EFE27FA03F342EA0E021A43561C324646
:1058BC0000F050FA0128074607D901463246012369
:1058CC00D8F8200000F0A0FA10B90020BDE8F08153
:1058DC0098F833304046C8F81C7063F03F03C8E9B1
:1058EC00024588F83330BDE8F041FFF77BBE00BFBE
:1058FC00F0B590F831409DB0002314F0180F8DF8DE
:10590C0031308DF832308DF833308DF869308DF8B8
:10591C006A308DF86B3003D00B6A046A9C4202D05B
:10592C0000201DB0F0BD044640F601236846FFF789
:10593C0019FC0028F4D0254604F1300E0EAF28686F
:10594C00103555F80C1C3E4655F8082C103755F8F8
:10595C00043C75450FC6F2D1286809AA04F124034A
:10596C0038609DF8305007CA83E8070094F833304C
:10597C00204684F8305063F07F0384F83330FFF70F
:10598C0031FE0028CCD00021022208230EA815914C
:10599C008DF86B208DF86930FFF7D6FCC1E700BF9E
:1059AC0090F833309A0718D5F0B5C56983B08DB12E
:1059BC0003F04003044603F0FF0683B98169002914
:1059CC0042D10195C1612946206A00F0F3FA38BB37
:1059DC00002000E0012003B0F0BD00207047006AF9
:1059EC00A16990F84524D4E90267093216F1FF3613
:1059FC00D2B247F1FF37C2F1200EA2F1200326FAF2
:105A0C0002F207FA0EFE27FA03F342EA0E021A43D9
:105A1C000132B1B1013D4B1C691A01930A440ABB16
:105A2C0094F833302046D4E9006763F07F03C4E96F
:105A3C00026784F83330C4E90467FFF7D3FD03B081
:105A4C00F0BD0195E161EAE702AA006A42F8046D33
:105A5C0000F094FA40B20028BADB0AD1019D002D67
:105A6C00DED0B0E70023019900F0CEF90028D7D1A1
:105A7C00AEE74FF0FF32A169206A00F089FA0028E6
:105A8C00ECD1A5E72DE9F04F90F8333083B0044604
:105A9C009D0700920AD494F832304FF0FF3043F057
:105AAC00010384F8323003B0BDE8F08F1A07884642
:105ABC0000F10781009B002B00F017812146009D0F
:105ACC004FF0010AF1E8062393460191206AA1697F
:105ADC00D0F8386406EA0B06C6F3080956BB002951
:105AEC0000F0BD8094F833305B0640F1D28090F822
:105AFC004524E3690932D4E902BCD2B21BF1FF3B65
:105B0C00C2F1200EA2F120074CF1FF3C2BFA02F25D
:105B1C000CFA0EFE2CFA07F742EA0E023A431A442C
:105B2C009142C0F0B3802046FFF7C6FB0028B2D0EC
:105B3C00206AA169760A0239D0F82C7490F845E4F1
:105B4C00374401FA0EF13944B9F1000F5BD1B5F5C8
:105B5C00007F2CBF00220122002A54D1B5F5806FA2
:105B6C00C0F081800AFA0EFE6B0AD0F81CC2C6EB9C
:105B7C000E06B34228BF334661454FEA432708D887
:105B8C005E18B44505D24FF0FF3680F81022C0F8ED
:105B9C001C62D0F8140242460668366AB0470028E8
:105BAC003FF479AF38460021B844ED1BD4E900230B
:105BBC00D4E9046712EB000B43EB010C674508BFFB
:105BCC005E45C4E900BC07D294F8331061F07F0144
:105BDC00C4E904BC84F83310002D7FF477AF5A4627
:105BEC006346D4E90201994208BF904271D3404BFD
:105BFC001B68002B77D094F83330009863F07F0348
:105C0C0084F833304FE7B9F1000F26D1D4E90423DF
:105C1C00D4E900679F4208BF964234BF0122052297
:105C2C0000F5047003F09AFF00283FF434AFC9F577
:105C3C00007748444146AF4228BF2F46B9443A4604
:105C4C0004F038F9B9F5007FACD1206A00F5047086
:105C5C0003F0B4FF0028A5D11DE70122E0E7E169BC
:105C6C00F1B1A16166E7D0F81C32994222D0D0F88C
:105C7C00140242460368DB69984700283FF40BAFD7
:105C8C004FF4007000214FF400778DE70131A161D2
:105C9C0050E7019A00F072F900287FF449AF42E70F
:105CAC002046FFF709FB00283FF4F5AEA169206AF6
:105CBC00E1613FE74FF0FF3380F81022C0F81C324F
:105CCC00D5E7D0E90423FEF7D9FF00283FF4E3AE73
:105CDC00F0E694F83310009861F07F01C4E90223D8
:105CEC0084F83310DFE60098DDE6D4E9002378E78A
:105CFC00F820062038B50C46D0F82414154600F5CB
:105D0C000470002201EBD41103F028FF40B1A40071
:105D1C00C4F3080403595A1C04D02B60012038BD6D
:105D2C00FF2038BD002038BD38B50C46D0F82414FF
:105D3C00154600F50470012201EBD41103F00EFF9F
:105D4C00034628B1A4000120C4F308041D5138BD3A
:105D5C0038BD00BF2DE9F84F804691468B4600298F
:105D6C0043D08F1ED8F830349F423AD207F0070543
:105D7C000123C7F3C80A03FA05F5EDB23E463C46CB
:105D8C00D8F82C140022404601EB143103F0E6FE47
:105D9C00C0B110F80A100AE04A4529D0A74210D029
:105DAC00D8F83024944216D213F0FF050CD00134ED
:105DBC000D424FEA4503A4EB0602EDD0A74226465E
:105DCC00EED10120BDE8F88F0AF1010A0125BAF5E0
:105DDC00007FDED101E0002634464FF0000A012599
:105DEC00CEE700270125BA46C8E7D0F82074B9E7FA
:105DFC00BBF1000F04D1B9F1010F08BFC8F8206442
:105E0C00B01CBDE8F88F00BF2DE9F04702391546EC
:105E1C009A46D0F830244B19934238D88046BAF1C0
:105E2C00000F37D1D0F82034994238BFC0F8201475
:105E3C0001F007040122D8F82C34C1F3C80602FA89
:105E4C0004F403EB1139E4B2012249464046914473
:105E5C0003F084FED8B1871900F5007017F8012BF8
:105E6C00224282EA04024FEA440414BF01260026AF
:105E7C0056450CD0013D07F8012C17D014F0FF0447
:105E8C00EED1874226464FF00104E7D1DCE7002033
:105E9C00BDE8F087D0F820048342C9D98142C7D825
:105EAC00934228BF0023C8F82034C1E70120BDE885
:105EBC00F08700BF70B582B00546002402AE46F8EC
:105ECC00041DD5F8303401990133994202D90020D0
:105EDC0002B070BD32462846FFF70CFF013440B2C9
:105EEC000028F4DBEDD1204602B070BD70B50E4633
:105EFC000446D0F8385400F50470496833682940DA
:105F0C00D4F82C54023B94F8454405EB5121A340A2
:105F1C00194403F023FE18B17368C3F30803184443
:105F2C0070BD00BF70B54C680D46D0F838340646CD
:105F3C00A1181C40696090F8453422440933DBB247
:105F4C0022FA03F43CB12B7A3BB12B6801332B6062
:105F5C00013C002CF7D1012070BDD6F830342968F3
:105F6C000133994202D94FF0FF3070BD2A463046BA
:105F7C00FFF7C0FE40B20128EAD070BDD0F8303433
:105F8C0001338B4201D2FF207047FFF7B3BE00BF35
:105F9C0001290DD9D0F830340133994210B403D90A
:105FAC0000205DF8044B70475DF8044BFFF7BCBE56
:105FBC0000207047F0B50C4683B005460F46D5F867
:105FCC00303401339C4202D9002003B0F0BD21468D
:105FDC0001AA2846FFF78EFE012C46B22146284620
:105FEC00F2D9F20FF0D1D5F8303401339C42EBD812
:105FFC00FFF79AFE394600230028E5D0621C28469C
:10600C00019C0EB1A242DAD0D21BFFF7FDFE002894
:10601C00DAD0019C002ED8D02746D0E72DE9F843E2
:10602C0000248046D0F82C6400F5047725463146D0
:10603C0000223846013603F091FD28B300F1FF3EF3
:10604C00D8F830C405F580591EF8010FFF2813D07D
:10605C0048B10822012318424FEA430118BF01340A
:10606C00013ACBB2F7D10835AC4509D94D45DED054
:10607C001EF8010FFF28EBD108350834AC45F5D8D4
:10608C00C4EB0C00BDE8F883BDE8F8832DE9F041C2
:10609C00002304464FF0FF3600F504771546C0F890
:1060AC00401441601A46C4F814123846194684F854
:1060BC004434237084F81032E660C4F81C6203F098
:1060CC004DFD042D0DD8064658B16DB90522294950
:1060DC00F01C08F0DBF9034618B996F86C20092A75
:1060EC001AD00020BDE8F0816B1E00EB031393F86F
:1060FC00BE2112F07F02F4D193F8C231002BF0D004
:10610C0000EB05153846D5F8B651294603F026FDA7
:10611C0006460028DAD1E4E7326D4FF0010801465B
:10612C00204602EB050E4246C4F824E4776DC4F811
:10613C002874B76D3D44C4F82C54F56DC4F8305434
:10614C00356EC4F8345496F86D50C4F8203405F10B
:10615C00090384F8455408FA03F35D1EC4F83C3473
:10616C00C4F83854FFF7F6FD4023404684F8443415
:10617C00BDE8F081B001002010B50446D0F834140D
:10618C00FFF798FE94F845340933DBB2984010BD04
:10619C004BB370B444887E2C1FD8134402300A448D
:1061AC00194412F8013BE4B2A3F16106A4F16105B4
:1061BC00192E94BF20260026192DA3EB060394BF9D
:1061CC0020250025DBB2641BE4B29C4205D18A4237
:1061DC0006D030F8024F7E2CE3D9002070BC7047FB
:1061EC00012070BC70470120704700BFD1B1014441
:1061FC0030B410F8014BD30343EA5202A4F161030B
:10620C00A4F12005192B98BFECB2814214FA82F24A
:10621C0092B24FEAC23343EA520292B2E9D110462B
:10622C0030BC70471046704738B50D4604462422E2
:10623C00002107F043FEA560EB79102B08D0202B32
:10624C0004D1402301202370A07038BD002038BD3C
:10625C00202301202370A07038BD00BF024638B542
:10626C0052F8105F04468068294601F05DFC50B17D
:10627C0055B123690135AB42A37818BF03F0BF03B6
:10628C0063F07F03A37038BDA37843F04003F7E7B6
:10629C002DE9F041037803F020032BB903F0FF0440
:1062AC004169204B994203D900263046BDE8F08164
:1062BC000546FFF7D3FF06460028F5D0A96805224E
:1062CC002B698F7901F12400023B4969BB405F18AF
:1062DC00394603F043FC80460028E5D04FF40072A9
:1062EC00214607F0EBFDAB681A79012A10D901247D
:1062FC0004E0AB68E4B21A79A24209D91868E11932
:10630C00424601340368DB6998470028F1D1CBE79A
:10631C009B794FF40072696902FA03F311FA83F363
:10632C006B61C2E7FFFD1F0010B5044680680A468A
:10633C002430A16903F012FC20B1A38803F00F03F1
:10634C0000EB431010BD00BF30B590F9023083B0A4
:10635C000446002B19DBA56805F1240003F02EFC84
:10636C0030B96378002043F00103637003B030BD93
:10637C0005F50D7003F022FC0028F2D028680368A4
:10638C009B6998470028ECD0F0E70121FFF7CCFF80
:10639C0005460028E5D00378E52BE2D023781B07CF
:1063AC0001D5E369C361236A0B491A0C6B830B6833
:1063BC00AA8263B10DF103020DF1060101A8984701
:1063CC00BDF80430BDF806202B836B82EA82A378DB
:1063DC0003F07F03A370BEE7F820062010B5037806
:1063EC00044623B9002301202370A37010BDFFF7CE
:1063FC00ABFF00232370A37010BD00BF2DE9F0414B
:10640C000C7888B014F0700F03D1002008B0BDE8F0
:10641C00F08140F6022305460C4601F007F90028EE
:10642C00F3D0012210232846AA702B70FFF730FFFF
:10643C000028EAD02A692B782A62002B7FD101210F
:10644C002846FFF771FF07460028DED010230068AE
:10645C007968EE46FB724FF02E0CBA6808AEFB68FA
:10646C00B7F81480AEE80F00BA69FB69386979692E
:10647C0006F820CD0DF10A0C7F8BAEE80F003346E9
:10648C00202203F8012F6345FBD1A86801222B6A57
:10649C0090F806E02430023B50F8101C03FA0EF37F
:1064AC00194403F05BFB86460028AED0ADF814808F
:1064BC004FF02E08ADF81A7037460FCECEF800000C
:1064CC00CEF80410CEF80820CEF80C308DF80180F0
:1064DC000FCECEF81000CEF81410CEF81820CEF84F
:1064EC001C30236A1A0CADF81A30ADF814200FCFFB
:1064FC00CEF82000CEF82410CEF82820CEF82C3080
:10650C000FCFCEF83000CEF83410CEF83820CEF8BD
:10651C003C30AC6804F1240003F050FB00283FF43D
:10652C0074AF04F50D7003F049FB00283FF46DAF18
:10653C00206803689B6908B0BDE8F04118476B6997
:10654C0033B1AB78002223F020032A616A61AB706F
:10655C002846FFF7F9FE00283FF457AF6FE700BF5E
:10656C002DE9F041064692B000200C46317801929C
:10657C008DF824008DF825008DF8260021B9984659
:10658C00237813F0700F03D1002012B0BDE8F08116
:10659C00137810462F2B2DD0002701AA03A900F049
:1065AC000FFE03AA214600230028EDD0019D3046A2
:1065BC002D78002D30D001F039F848B9B8F1000F22
:1065CC00E2D0214603AA3046FFF718FF0028DBD0A3
:1065DC00354609AC96F800E00FCD0FC40FCD2D68F1
:1065EC000FC42560BEF1000F12D1377009ACB77023
:1065FC000198D2E70130019003782F2BFAD0A168D3
:10660C0009A8FFF711FE0028BED009AC0198C3E71A
:10661C003046FFF799FEE8E703AA21463046FFF71C
:10662C00EDFE12B0BDE8F0812DE9F041064692B0C6
:10663C0000200D46317801928DF824008DF825004C
:10664C008DF8260021B998462B7813F0700F03D1E2
:10665C00002012B0BDE8F081137810462F2B29D002
:10666C00002702E001983770B77001AA03A900F067
:10667C00A7FD03AA294600230028E9D0019C304637
:10668C00247834B300F0D2FF354609AC0028DFD0B3
:10669C0096F800E00FCD0FC40FCDD5F800C009ADB2
:1066AC000FC4C4F800C0BEF1000FDBD03046FFF7BA
:1066BC004BFED7E70130019003782F2BFAD08BB12A
:1066CC00A96809A8FFF7B0FD0028C1D009AD019851
:1066DC00C6E7434603AA2946304600F0A7FF12B08E
:1066EC00BDE8F081A9683046FFF79EFDB1E700BF19
:1066FC0019B101F24441FFF797BF0846704700BF3C
:10670C0003780BB100207047FFF78EBD09B900204C
:10671C00704738B583789B0701D4002038BD036AD5
:10672C00002BFAD1044680680D460139837904F1B7
:10673C0020020933DBB2D940013101F037FA0028CD
:10674C00EBD0A378227863F01F03E561A37002B944
:10675C0038BD2046BDE83840FFF7F6BD2DE9F04FB7
:10676C00837883B00546DF0740F190800F460178AF
:10677C0091460E0700F193808C0608D58268436918
:10678C001289C3EB42139BB2994528BF9946B9F1C4
:10679C00000F00F0AA806B6988064E464FF0000887
:1067AC0005F1100AAA68C3F3080440D5116A01EB7D
:1067BC005321002C54D1B6F5007F51D3136B994261
:1067CC004ED0B6F5806F73D328784FEA562B8006DF
:1067DC0005D41079C8EB0000834528BF8346994245
:1067EC004FEA4B240DD801EB0B00834209D202F186
:1067FC0024000191009203F0E1F9009A019900281C
:10680C0044D0906A5B463A46D0F800E0DEF810B00F
:10681C00D84700283AD06B69361B274423446B6158
:10682C0063D02978C3F30804AA688806BED492F80A
:10683C00058008EA5328002C38D1B8F1000F35D167
:10684C00002B3FD148064CBF136A2B6A2B61917900
:10685C00023B50698B4008EB00011944002CAAD074
:10686C0002F12400002203F079F978B1C4F5007329
:10687C0001193846B34228BF33461A461C4603F06A
:10688C0019FBC8E72B7813F0700F2FD16B784FF0F2
:10689C00FF3043F002036B7003B0BDE8F08FC369A7
:1068AC0042699B1A994528BF994670E72B69CEE738
