:1000000000000320D10100000D390000C5380000B8
:10001000C5380000C5380000C5380000C5380000EC
:10002000C5380000C5380000C53800000D39000093
:100030000D390000C5380000B5700000B97100002E
:100040000D3900000D3900000D3900000D39000098
:100050000D3900000D3900000D3900000D39000088
:100060000D3900000D3900000D3900000D39000078
:100070000D3900000D3900000D3900000D39000068
:100080000D3900000D3900000D3900000D39000058
:100090000D3900000D3900000D3900000D39000048
:1000A0000D3900000D3900000D3900000D39000038
:1000B0000D3900000D3900000D390000BD48000069
:1000C0000D390000215000000D390000A955000035
:1000D0000D390000C95B00000D3900000D3900002A
:1000E0000D3900000D3900000D3900000D390000F8
:1000F0000D3900000D3900000D3900000D390000E8
:10010000C1780000D5780000E9780000FD78000093
:100110000D390000696300000D3900000D39000041
:100120000D3900000D3900000D3900000D390000B7
:100130000D3900000D3900000D3900000D390000A7
:100140000D3900000D3900001D6100000D3900005F
:100150000D3900000D3900000D3900000D39000087
:100160000D3900000D3900000D3900000D39000077
:100170000D3900000D3900000D3900000D39000067
:100180000D3900000D3900000D3900000D39000057
:100190000D3900000D390000417C00000D390000D0
:1001A0000D3900000D3900000D3900000D39000037
:1001B0000D3900000D3900000D3900000D39000027
:1001C0000D3900000D3900000D3900000D39000017
:1001D0005C4B4CF2205210B51A804DF628121A8052
:1001E00000BF00BF03F096FB574B4FF030621A6020
:1001F000564A9A60564ADA60564B4FF470021A60BB
:10020000554B564A1A60564A136813F4807304D14A
:1002100054490B604FF4A8531360534B1A781107DD
:1002200003D51A7842F008021A70504B5049AA229E
:100230001A70504A504B8B4204D252F8040F43F8C4
:10024000040BF8E74D4B4E4900228B4202D243F893
:10025000042BFAE74B494C4A002352F8230041F89B
:1002600023000133742BF8D1484B494A802103F80D
:10027000011B9342FBD1474B424A1A60464B8A22EC
:100280001A70A3F5805324225A70A0221A709A790A
:100290009207FCD59A79D406FCD4404A937903F0AE
:1002A0000C03082BFAD13E4B60221A7002331A78E5
:1002B000802AFCD1394B01221A715D225A719A7938
:1002C0009006FCD59979354A4906FBD5354B364918
:1002D00019600021596020231370937903F00C03F7
:1002E0000C2BFAD1314B324A1A60324B324A1A6027
:1002F00000225A60072243F8042C304AC3F80C2D20
:1003000062B603F0B3FE174B1B68DA0705D52C481D
:1003100003F0D2FB2B4B2C4A1A602C4B1B785B064C
:1003200009D5284C284B22689A4204D1244803F06E
:10033000C3FB0023236007F04BFD03F0F1FA07F045
:100340001DFBFEE70E20054030800440823F040084
:100350000100002B88ED00E0002008E0030000858C
:1003600010D0034014D0034002D0074000E0074003
:10037000A417FF1F448D00003007FF1FA817FF1FA1
:1003800080BD00200002FF1F0000000000E400E02C
:1003900064E400E008ED00E0005006400040064044
:1003A00001E007404480044000000602048004404D
:1003B000C010070014E000E01FBF02000000202072
:1003C000FEDF5E5B1CE00340A5C3945A00F00740CB
:1003D000FFFFFFFFFFFFFFFFFFFFFFFFFFFFFFFF2D
:1003E000FFFFFFFFFFFFFFFFFFFFFFFFFFFFFFFF1D
:1003F000FFFFFFFFFFFFFFFFFFFFFFFFFFFFFFFF0D
:10040000FFFFFFFFFFFFFFFFFFFFFFFFDEF9FFFF23
:1004100010B5054C237833B9044B13B10448AFF33E
:1004200000800123237010BDA817FF1F00000000EB
:10043000488D0000084B10B51BB108490848AFF3C0
:1004400000800848036803B910BD074B002BFBD0A0
:10045000BDE81040184700BF00000000AC17FF1FA8
:10046000488D0000A417FF1F0000000001607047C6
:10047000006803681B69184700680368DB68184751
:10048000006803681B681847FFF7FABF03468180BE
:1004900053F8040B0268194653680222184700BF3C
:1004A00010B50446206803681B6998470028F9D0F6
:1004B000206803685B699847C0B210BDFFF7F0BFC2
:1004C000FFF7EEBF006803685B681847FFF7FABFE5
:1004D000006807F03DBA00BFFFF7FABF10B5044649
:1004E00007F0CCF9204610BDC0B2054B012253F8ED
:1004F000303011B983F80021704783F880207047AD
:10050000C88800000B4B1A68C0B24FF00043D3629A
:100510005063D36A002BFCDA10B5074C936B20783C
:100520000121FFF7E1FF20780021BDE81040FFF72F
:10053000DBBF00BF000EFF1FC50DFF1F30B5364BE0
:10054000364A1B6883B00193019B1360032821D8AE
:10055000DFE800F03F023322314A1278D2B9314845
:100560000168994216D23049304D09682C781944F7
:10057000012C016043D0002C3CD12D4C2178002966
:1005800046D103F5FA73012203602A70294B1878CB
:1005900003F0A4FA03B030BD274B0121187803F013
:1005A000E3FC244B0021187803F098FA234B8021B8
:1005B000187803F093FA03B030BD1E4B0021187871
:1005C00003F08CFA1C4B01211878FFF78DFF03B064
:1005D00030BD1A4B0021187803F080FA164B002129
:1005E0001878FFF781FF134B0021187803F076FA93
:1005F00003B030BD0E4A022C1178C7D1C1E70C4CB4
:100600002178FF2903D00131C9B22170BEE72A70D9
:100610000139C9B22170B9E750B5002054D6FF1F87
:10062000B030FF1FB01BFF1FF80DFF1FC60DFF1FCF
:100630009497FF1F800DFF1F950DFF1FDC0DFF1FFF
:100640002DE9F84F8F4A90491578904A904B1678CB
:10065000DFF88CB2DFF88CA28E4C9BF800009AF881
:10066000007000220A708C491A700A708B490A7057
:100670008B499646944690469146134601220A704D
:1006800088490A7021460CE0422A00F09B80572AD4
:1006900040F09F8016B9DEB24FF0010801330C2BF9
:1006A0000BD011F8012B582AEED10028F6D1D8B280
:1006B00001330C2B4FF0010EF3D1B9F1000F40F0D4
:1006C0009280B8F1000F40F0DE81BCF1000F01D044
:1006D0006C4B1D70BEF1000F01D08BF80000724B07
:1006E00072491E78724B1D78724B1878724B93F8D2
:1006F00000E0724B4FF0000C22461F787446E34630
:10070000E246E046E146634696460AE0422A6DD05C
:10071000572A71D116B9DEB24FF0010A0133102BFE
:100720000AD0CA5C582AF1D10028F7D1D8B20133D7
:10073000102B4FF0010CF4D17346A6461C46B9F1BC
:10074000000F40F09C81B8F1000F01D05B4B1F708F
:10075000BAF1000F01D0544B1E70BBF1000F01D055
:10076000534B1D70BCF1000F01D0524B1870544B0D
:10077000DFF874A1DFF874B1DFF87481514D524F86
:10078000524EDFF870910021197014F8013B423B82
:10079000152B4BD8DFE813F00E014A0003014A0085
:1007A0004A004A004A004A004A004A004A004A00F9
:1007B0004A004A0044004A004A004A004A00390000
:1007C0004A000E01002D7FF469AFDDB24FF0010C3D
:1007D00064E7502A7FF462AF002F7FF45FAFDFB28F
:1007E0004FF001095AE78AF800706AE7002D95D1A9
:1007F000DDB24FF0010B91E7502A40F04781002C09
:100800008CD1DCB24FF0010988E72D4B1B78042B0B
:100810000CD8DFE813F0F300EE00EA00E100F80086
:100820000221307803F0A6FB01232B704C450AF11E
:10083000010A0BF1010B08F1010805F1010507F1AF
:10084000010706F10106A0D1214E2249002501240D
:10085000E8B232460023C85403330F2B02F8014F8D
:10086000F9D10135B5F5807F06F1060601F11201D7
:10087000EED1194D124A194E002305F110081370DC
:1008800001273FE0CC1AFF1F2C99FF1FCA1AFF1F38
:10089000D01BFF1FEC0DFF1FD21BFF1F18D6FF1F21
:1008A0005C30FF1FC518FF1FE8B00020840DFF1F3C
:1008B00090B1FF1F7D97FF1F9CB1FF1F0531FF1FE8
:1008C0003D1BFF1FE01BFF1F18B50020C80DFF1FB9
:1008D0003307FF1FD09900203C0DFF1F830DFF1F22
:1008E0009BB1FF1F0C1CFF1F30B5002028D6FF1F37
:1008F000C4990020F80DFF1F530400F188800135D2
:10090000A84518D016F8013F654C423BDBB207FA08
:1009100003F2152B04EA0204F1D8002CECD028785D
:10092000012103F027FB013515F8010C002103F02C
:100930001BFBA845E6D15B4B5B4C18785B4B002555
:1009400001211D7003F016FB594B0121187803F0AB
:1009500011FB584B0121187803F00CFB2078012182
:1009600003F008FB2946207803F0FEFA524B1B786F
:10097000002B5AD1514B1B78002B6CD1504B514856
:1009800001221A7002F060FF0020FFF7D7FD4E4BE6
:100990004E4A1B88591E914267D9BDE8F88F002343
:1009A00001228AF800308BF800303B7088F8002074
:1009B0002A703BE70021307803F0DCFA444A1178D2
:1009C000444A29700123127888F800308AF80030F0
:1009D0008BF800303A7029E75B2004F0A5FE334B1A
:1009E000324A1B780133137020E75B2004F0F2FBDE
:1009F000F5E74FF4897003F0E9FFF0E74FF48970F1
:100A000003F03CFCEBE75B2005F09EF9E7E7287874
:100A1000012103F0AFFA2878214603F05FF89FED3B
:100A20002E0A287803F0FAF969E72C4D2C4C287827
:100A3000012103F09FFA2078012103F09BFA287826
:100A4000012103F091FA2078012103F08DFA1B4B6C
:100A50001B78002B92D0234C0121207803F08AFAD6
:100A60002078002103F080FA88E7C3EB03139A0093
:100A7000013A1D491D48BDE8F84F06F0B5BE1C4BB4
:100A800083F800E05FE61B4B1E701EE6562A7FF4DB
:100A900045AE002F7FF442AEDFB24FF001083DE6D5
:100AA00005003000DC0DFF1F4C0DFF1F3D1BFF1F1D
:100AB000950DFF1F800DFF1F2C99FF1FD21BFF1FDD
:100AC000381CFF1F000EFF1F680DFF1F4744440422
:100AD00018D6FF1FC518FF1F00504347D40DFF1F36
:100AE0006A0DFF1FC50DFF1FC51E00004CD6FF1F5E
:100AF0009CB1FF1FCA1AFF1F70B5174B1D780F2D31
:100B000028DC164E6B1E334406F10F04002101E071
:100B1000A3420AD013F8012F012AF9D1981B401BD8
:100B200082400A43A342D1B2F4D10D4B1A684FF070
:100B30000043D3625163D36A002BFCDA094C936BF8
:100B400020780121FFF7D0FC20780021BDE870401B
:100B5000FFF7CABC0021E8E70531FF1FFC1BFF1FA0
:100B6000000EFF1F14B50020074B197849B9074B39
:100B7000074A1B781170502B064B187802D0FFF7EC
:100B8000B3BC704702F0AABFD21BFF1F0498FF1F1F
:100B90001AD6FF1F3F1BFF1F2DE9F843264C274E97
:100BA000274D284F04F110084FF0000914F8013FB9
:100BB000423B0021152B12D8DFE803F0351111114B
:100BC000111111111111111111110B11111111111B
:100BD00035350021307802F081FF85F800904445DA
:100BE00006F1010605F1010507F10107DED1FFF766
:100BF00083FF154B1548164903F11405002203F82D
:100C0000012FAB4200F8012F01F8012F4FF0000433
:100C1000F5D1104A104B1149146054601C705C707F
:100C20000C70BDE8F8833078FFF75EFC85F8009023
:100C300087F80090D3E700BF830DFF1F3C0DFF1F17
:100C4000EC1BFF1FFC1BFF1F57D6FF1FCF1AFF1FF8
:100C5000231CFF1FA81BFF1F48D6FF1F24B5002021
:100C6000C0B2034B53F8303093F80002704700BF16
:100C7000C8880000FF2901D002F030BF4FF4807116
:100C800002F02CBF0E4B197881B90E4B1B786BB15B
:100C90000D4B1A785AB119700C4B1B78502B0C4B1A
:100CA00008D001F001011878FFF71EBC7047012140
:100CB0001970F1E74942C9B21878FFF7DBBF00BFEE
:100CC000D21BFF1FF0B000201AD6FF1F0498FF1F91
:100CD0003F1BFF1FF8B5494A494B155C5B5D423B22
:100CE00004460E46152B19D8DFE803F04F184F18AD
:100CF0001818181818181818181841181818181C47
:100D00000B4F404B197800294DD13F4B012E08BFA6
:100D10003146585DFFF7E8FB3C4B5E553C4B1C44AD
:100D20002673F8BD01290CBF3A4B3B4B1B5CFD2BD6
:100D3000F4D83A4A03EB430102EB4102525D7AB127
:100D400003EBC303590003273548364B17FB051146
:100D500001449F1811F8010F03F8010BBB42F9D1B0
:100D6000042DDBD8DFE805F045403B363100012992
:100D700024D0254B0021585D02F0B0FE234B002209
:100D80005A55234B1C442673F8BD01291E4B0FD026
:100D9000585D0021FFF7A8FB1C4B00225A551C4B45
:100DA0001C442673F8BD204B5E55FFF7A5FEB3E744
:100DB000585DFFF799FB154B5955AFE7154A124B94
:100DC000115C585DFFF756FFA6E716491748FFF775
:100DD0007DFBA3E713491648FFF778FB9EE711490F
:100DE0001448FFF773FB99E70E491348FFF76EFBB2
:100DF00094E70C491148FFF769FB8FE76C0DFF1F63
:100E0000840DFF1FD01BFF1F3C0DFF1FEC1BFF1F9E
:100E100030B50020980DFF1F540DFF1F3407FF1F32
:100E2000CF9900208CB1FF1FFC1BFF1F78ADFF1F67
:100E300070ADFF1F68ADFF1F60ADFF1F58ADFF1FF6
:100E4000264A274B52F820201B682DE9F041254EF9
:100E5000254D46F820300121044629548AB1134417
:100E600046F820302149224A51F82400125D2149D8
:100E7000034441F8243012B11F4B01221A55BDE83A
:100E8000F0811E4A155C002DECD11D4F1154FFF767
:100E900021FF57F82430A3B1DFF8748098F80020C0
:100EA00012B90EE057F82430EB40DB0704D5AC4212
:100EB000E8B201D0FFF7C4FF98F800300135AB422B
:100EC000F0DC1048104B01781A78104D56F8243099
:100ED00022444E1C06706A54C4E700BFB430FF1FA2
:100EE000ECB000209897FF1F58D6FF1F401BFF1F34
:100EF0008097FF1FEC1AFF1F241CFF1FD01AFF1F33
:100F0000A0B1FF1F1BD6FF1F3A0DFF1F101CFF1FB4
:100F10004D0DFF1F2DE9F04F924B1B7883B0824699
:100F2000002B40F01A81904B33F82AB0BBF1000F30
:100F30002FD08E4F3B7893B38D4D8E4EDFF88C8241
:100F400000240AE02A7802B12B703B780134A342D6
:100F500005F1010506F101061BDD4BFA04F3DA0782
:100F6000F3D53378002BEDD000235FFA84F91946CE
:100F700048462B703370FFF7ADFE7F4B98F800208A
:100F80001B787E499944531C01F8029088F8003080
:100F9000DBE77B4B33F82A50002D40F0A380794CDF
:100FA000794D7A4F7A4EDFF828820023019304F1BD
:100FB000100B05EB0A15994614F8013F423B162B1E
:100FC00021D8DFE803F00C200C2020202020202056
:100FD00020202020762020202044150C6800337823
:100FE0008BB929783878003118BF0121FFF77CFAD6
:100FF000337843B9674B1B78002B6BD02B7888F87C
:101000000030012301935C4507F1010705F101055B
:1010100006F1010608F10108CED1019B002B40F03A
:1010200099805D4B13F80A302BB1013BDBB25B4A70
:10103000002142F823105A4B13F80A305345594BFC
:1010400014BF012200221A7003B0BDE8F08F297886
:1010500000293AD0544B01EB410203EB420313F851
:10106000092082B14FF0120E09EB490C4F48504B4A
:101070001EFB01C1014403EB020E11F8010F03F83E
:10108000010B7345F9D1B9F1040F1ED8DFE809F05F
:10109000504719593E002B78002BB4D04FF0020E68
:1010A000434944484B70724681F800E0FFF70EFA5E
:1010B000A9E73378002BA6D129783878FFF7DAFD35
:1010C000A1E73B493C48FFF701FA09F101095FFA42
:1010D00089F998E729783878003118BF0121FFF79E
:1010E00003FA90E7214F3B78002B3FF458AF0024E0
:1010F00004E03B780134A3427FF751AF45FA04F393
:10110000DB07F6D5E0B2FFF79BFEF2E728492B4854
:1011100009F10109FFF7DAF95FFA89F973E7244960
:10112000274809F10109FFF7D1F95FFA89F96AE760
:101130001F49244809F10109FFF7C8F95FFA89F945
:1011400061E71B49204809F10109FFF7BFF95FFA80
:1011500089F958E7FFF7D0FC63E70130FFF7D2F9D0
:10116000E1E600BFD21BFF1F88ADFF1F4D0DFF1F23
:1011700058D6FF1FD01AFF1F26B50020101CFF1FD6
:10118000F4B00020830DFF1FF0B1FF1F3C0DFF1FC7
:10119000EC1BFF1FD01BFF1FC417FF1FA81BFF1F47
:1011A0001898FF1F24B500203407FF1FCF99002097
:1011B0008CB1FF1F1CD6FF1F68ADFF1F78ADFF1F4E
:1011C00060ADFF1F58ADFF1F70ADFF1F1BD6FF1F87
:1011D000FC1BFF1F2DE9F04383B08DE80300684638
:1011E000FFF746F930B900214548FFF74DF903B044
:1011F000BDE8F0836846FFF763F9424D41286C462D
:101200002870F0D16846FFF733F90328EBD90121A4
:101210003B48FFF739F904262046FFF751F901460C
:101220003748FFF731F9013EF6D12046FFF748F97C
:10123000354F014632483960FFF726F93B6853B114
:101240002046FFF73DF901462D48FFF71DF93B68A1
:1012500001369E42F4D32046FFF732F90128287068
:10126000C1D1DFF8B090DFF8B080284F24480121C9
:10127000FFF70AF92046FFF723F9232889F8000031
:1012800032D0452829D101461D48FFF7FDF82046F8
:10129000FFF716F903460146194888F80030FFF7B2
:1012A000F3F898F80030C3B100262046FFF708F99C
:1012B0000346014612483B70FFF7E6F83A781449B6
:1012C0002046FFF709F93A7811490D48FFF7FEF873
:1012D00098F800300136B342E7DC2046FFF7F0F81B
:1012E00001282870C2D07EE701460548FFF7CCF8F8
:1012F0002046FFF7E5F801460148FFF7C5F8ECE79F
:101300001CD6FF1F3D1BFF1F10B50020E41AFF1F56
:10131000E8AF00209AB1FF1F3E1BFF1FF8B53E4EFD
:101320003E4C16F8012B00235D1CF2B1042B1CD897
:10133000DFE803F05D48331E03003948FFF798F8F3
:10134000C0B2207058B100273548FFF7B9F8014600
:101350003448FFF799F823780137BB42F4DC2B4679
:1013600016F8012B5D1C002AE0D1062DF7D1F8BD3F
:101370002D48FFF77DF8C0B220700028EFD000277D
:101380002948FFF79DF801462648FFF77DF82378A6
:101390000137BB42F4DC2B46E2E72448FFF768F84C
:1013A000C0B220700028DAD000272048FFF788F864
:1013B00001461C48FFF768F823780137BB42F4DC8C
:1013C0002B46CDE71A48FFF753F8C0B2207000282B
:1013D000C5D000271648FFF773F801461148FFF7FC
:1013E00053F823780137BB42F4DC2B46B8E71148A9
:1013F000FFF73EF8C0B220700028B0D000270D489B
:10140000FFF75EF801460748FFF73EF823780137FB
:10141000BB42F4DC2B46A3E7BC990020E41AFF1F73
:1014200078ADFF1F1CD6FF1F70ADFF1F68ADFF1FFB
:1014300060ADFF1F58ADFF1FF8B5314F314C3B7801
:1014400000252570DBB1304E16F8013B552B12D12B
:101450002378042B0FD8DFE803F009493929190054
:101460002A48FFF72DF82378013323702748FEF729
:10147000FFFF0028F4D13B780135AB42E4DCF8BD36
:101480002348FFF71DF82378013323702048FEF727
:10149000EFFF0028F4D13B780135AB42D4DCEEE716
:1014A0001C48FFF70DF82378013323701948FEF725
:1014B000DFFF0028F4D13B780135AB42C4DCDEE726
:1014C0001548FEF7FDFF2378013323701248FEF71D
:1014D000CFFF0028F4D13B780135AB42B4DCCEE736
:1014E0000E48FEF7EDFF2378013323700B48FEF71B
:1014F000BFFF0028F4D13B780135AB42A4DCBEE746
:10150000CC1AFF1F3D1BFF1FEC0DFF1F58ADFF1F27
:1015100078ADFF1F70ADFF1F68ADFF1F60ADFF1FEF
:101520002DE9F04FBC4CBD49BD48BE4A6578BE4B65
:1015300094F800B00D70E178117089B0C0F800B077
:10154000BA4AA07818700423039505900691138079
:10155000BBF1000F00F0BE81B54BB64A0793DFF830
:10156000FCA2DFF8FC920293B34BB448DFF8E882A8
:10157000CDF810B04FF0000C01920AF1140709F1F8
:10158000140602F11405E6469B46029B03F801EFA0
:101590005FFA8CF2029308F1650108F1FF3303F85A
:1015A000012F8B42FBD100F1100300F801EB9842B0
:1015B000FBD1A349002041F82C00A24941F82C009E
:1015C000A14901F80C00019901F8012FA942FBD1B2
:1015D000494601F8012FB142FBD1974901F81C207F
:1015E00051468BF8012001F8012F8F42FBD1019A5F
:1015F0001846049B0CF1010C143263450AF1140ADD
:1016000007F114070BF1020B09F1140906F1140696
:10161000019205F1140508F16608B6D1D91C9B4664
:10162000079A8A4B214413F8010F02F8010F8B42ED
:10163000F9D1874D87482F7801780026B446B04607
:101640000BF104034FF0660914F803E05A1C92B240
:10165000BEF1000F00F01D837F49002609FB081C26
:10166000511C89B2A75C615C0CF80710013602328C
:10167000764592B2F4D103EB4E03013301269BB2BF
:10168000B44608F10108C345DEDCBCF1000F40F0B0
:10169000078306B101700026DFF8C8A12F78017812
:1016A000B446B04614F803E05A1C92B2BEF1000FE3
:1016B00000F0ED826149002601EB081C511C89B243
:1016C000A75C615C0CF8071001360232764592B2D5
:1016D000F4D103EB4E03013301269BB2B44608F16B
:1016E0000108C345DEDCBCF1000F40F0E48206B126
:1016F000017000262F780178DFF86C91B446B0466F
:1017000014F803E05A1C92B2BEF1000F00F0BD8243
:1017100008EB880C09EB8C0C0026511C89B2A75CE5
:10172000615C0CF8071001360232764592B2F4D1B2
:1017300003EB4E03013301269BB2B44608F10108C6
:10174000C345DDDCBCF1000F40F0BB8206B1017087
:1017500000262F780178DFF81491B446B04614F8CB
:1017600003E05A1C92B2BEF1000F00F08C8208EB2D
:10177000880C09EB8C0C0026511C89B2A75C615CBB
:101780000CF8071001360232764592B2F4D103EB21
:101790004E03013301269BB2B44608F10108C3454C
:1017A000DDDCBCF1000F40F08A8206B1017000263A
:1017B0002F780178B446B04614F803E05A1C92B270
:1017C000BEF1000F00F05D821B49002601EB480CC2
:1017D000511C89B2A75C615C0CF80710013602321B
:1017E000B64592B2F4D103EB4E03013301269BB20E
:1017F000B44608F10108C345DEDCBCF1000F40F03F
:101800005C8206B101700026B446B0462F7801789C
:10181000DFF85C9033E000BF6CD6FF1F4D0DFF1F5B
:101820000098FF1F940DFF1FAC0DFF1F1498FF1FA2
:101830001798FF1F2F99FF1FC818FF1FF0B1FF1F38
:10184000F4B0002088ADFF1FC417FF1F6FD6FF1F25
:101850003C1BFF1F99B1FF1F1031FF1F03C2FF1F69
:10186000471CFF1F1698FF1F3099FF1F481CFF1FC2
:1018700004C2FF1F08F10108C345134620DD14F818
:1018800003E05A1C92B2BEF1000FF3D008EB880CB3
:1018900009EB8C0C0026511C89B2A75C615C0CF82A
:1018A000071001360232B64592B2F4D103EB4E0373
:1018B00008F1010801330126C3459BB2B446DEDCC2
:1018C000AC4A1380BCF1000F40F0F38106B1017007
:1018D0008AF800E0039B002B51D0A64BA6491A883A
:1018E000039813460D18E05C01F8010B01338D429B
:1018F0009BB2F8D1039D6B1E9BB2D11889B22A46C8
:10190000481C0132114480B29C4D89B20246561CDB
:10191000A25C05F8012FB2B29142F8D10133034421
:101920009749039D9BB200220132E05C01F8010F50
:10193000013395429BB2F7DC0022924D9249DDF8CB
:101940000CE017460126E05C05F8010F012802F1C2
:1019500001028CBF0E700F70013396459BB201F1EE
:101960000101F0DC8949039D00220132E05C01F8AD
:10197000010F013395429BB2F7DC7E4A1380059B31
:101980008BB17C4B824A1B880598E15C1170013356
:101990009BB2804901281CBFC95C5170059A013A6D
:1019A0001344744A1380069B1BB3724B7A4A1888FF
:1019B000069903465518E15C02F8011B0133AA425F
:1019C0009BB2F8D1069A754D531E99B2084413463E
:1019D00080B201330344421C9BB292B2561CA25CFB
:1019E00005F8012FB2B29A42F8D18B1C614A034428
:1019F0001380BBF1000F00F055815E4B68481D88D5
:101A00000BF1FF3E421E2B467044E15C02F8011FC1
:101A1000013390429BB2F8D11FFA8EFE0EEB050304
:101A20009BB25F1C03EB8B05BFB201355D4E5E4A76
:101A3000ADB23B4603F1010C981CD91C1FFA8CFC7B
:101A400080B289B214F80C8014F800C0605CE15CCC
:101A500082F80180043382F802C0D07011709BB20A
:101A6000116846F8041F9D42E4D107EB8E0304334E
:101A70004E4E9BB200255F1C981CD91CBFB280B291
:101A800089B214F807E0275C605CE15C82F801E051
:101A90009770D070117001350433116846F8041F37
:101AA000AB459BB2E7DC33490B800399002900F07A
:101AB000F2803F4EDDF80CE000255F1C981CD91C1D
:101AC000BFB280B289B214F807C0275C605CE15CE9
:101AD00082F801C09770D07011700135043311681D
:101AE00046F8041FAE459BB2E7DCBBF1000F20D0E7
:101AF000304E00255F1C981CD91CBFB280B289B241
:101B000014F807E0275C605CE15C82F801E0977004
:101B1000D070117001350433116846F8041FAB45CD
:101B20009BB2E7DC13490B800B46039900297DD05B
:101B30001B88214FDDF80CE000265D1C981CD91C89
:101B4000ADB280B289B214F805C0255C605CE15C7E
:101B500082F801C09570D07011700136043311689D
:101B600047F8041FB6459BB2E7DC144FDDF80CE0E4
:101B7000002625E01498FF1F6C0DFF1F970DFF1F17
:101B8000530DFF1FF7B400208097FF1F43ADFF1FC9
:101B9000E00DFF1F6CD6FF1FB00DFF1FB31BFF1F13
:101BA000C417FF1FF0B0002024D6FF1F84ADFF1F15
:101BB0009CB1FF1FE0AB00203C1BFF1FB030FF1F9C
:101BC0005D1C981CD91CADB280B289B214F805C056
:101BD000255C605CE15C82F801C09570D07011708A
:101BE00001360433116847F8041FB6459BB2E7DCA1
:101BF000354FDDF80CE000265D1C981CD91CADB2F9
:101C000080B289B214F805C0255C605CE15C82F8A2
:101C100001C09570D070117001360433116847F817
:101C2000041FB6459BB2E7DC284A1380059B2BB303
:101C3000264BDFF8A0E01988059B254A01EB8300BD
:101C400080B20B465F1C9E1CDD1CBFB2B6B2ADB2AB
:101C500014F807C0A75D665DE55C82F801C0043337
:101C60009770D67015709BB215684EF8045B984259
:101C7000E8D1059B01EB8301144B198009B0BDE845
:101C8000F08F1346B5E5134687E5134656E5134630
:101C900025E51346F5E4BBF1000F7FF429AFC5E756
:101CA0002F70F6E4039B002BC0D0084B084A1B881A
:101CB000FFE62F700AE62F7019E52F70A1E52F704F
:101CC00073E52F7042E500BF5C30FF1F1498FF1FC3
:101CD00024D6FF1FC81BFF1F2DE9F8433D4C237876
:101CE00043B13D4B197800296FD13C48FEF7CCFB3E
:101CF000002323700320FEF721FC394B394D1B785C
:101D000039493A4ADFF824C1DFF824E1384F394E27
:101D1000394C002028700B2B4FF0FF05CCF8000049
:101D2000CEF8000038603070086048601070507065
:101D300025702CDC314ADFF8FCC0314E314C324981
:101D4000DFF8F4E05F1ED51902F10B098046674405
:101D50001E441C4419440EEB03020EE0137823705A
:101D60000B704D4507F8018F06F1010604F10104DF
:101D700001F1010102F1010209D015F8013F012B27
:101D8000ECD13078FEF76CFF20700870E9E71F4B4C
:101D9000002103F1140203F8011F9A424FF00004DE
:101DA000F9D1FFF749FB1A4D1A4B1B4F1B481C4931
:101DB0001C4A1D4E2C601C60FE2501233C700570E2
:101DC0000B7013703460BDE8F88301210348FEF7FF
:101DD0005BFB8DE72B99FF1FF197FF1F1CD6FF1FA1
:101DE000CC1AFF1FD11BFF1FA81BFF1F48D6FF1FC8
:101DF0001098FF1F0CB5002015B50020C4990020D5
:101E0000C80DFF1F30B5002028D6FF1F3BB50020AE
:101E100094B1FF1FECB000201BD6FF1F101CFF1F4A
:101E200000C2FF1F4AD6FF1F84ADFF1FFC0DFF1F1E
:101E3000500DFF1FD41BFF1F18B5002010B5164B07
:101E40001B782BB3154C2378A3B902F099F8144BE7
:101E500014491A680860904203D213490A68013293
:101E60000A60124C186023781BB1FFF735FF00237E
:101E7000237010BD0E4B0F491A880F48FEF72CFB3C
:101E80000E480F490123002203700B702270DCE71B
:101E9000FFF744FAD6E700BF00C2FF1FF097FF1F0D
:101EA0000831FF1F80ADFF1F0898FF1F98B1FF1F6B
:101EB000221CFF1F6CD6FF1F1CD6FF1FF197FF1FB0
:101EC000E2AB00202DE9F04F8E4D2B7891B063B935
:101ED0008D4E8E4C33680D930D9B22689B1A642B9C
:101EE00000F237850120FEF729FB894B1B7823B1CF
:101EF000884B1B78002B40F09382874C237833B1BA
:101F0000864A13680133642B136000F22C858448E1
:101F1000FEF7AEFA20B1834E3378002B00F0BC817F
:101F2000814B06931878814A0392002840F09B80E9
:101F3000039B1B78002B00F0D3847D4B02937D4BD9
:101F40001B78002B00F0A581FEF79CFE02F018F82C
:101F5000794B7A4A7A4E1268D3E900454FF0FF3741
:101F6000A2FB0723121B63EB0503141843F10005C2
:101F700020462946C6E90001FEF70EFE714B68486F
:101F80009F701946012403221C705C70FEF79EFAB4
:101F9000029A6D4B6D4D12686D4F2C681A60D6E930
:101FA0000089194610225E485C60C3E90289FEF789
:101FB0008DFA039A3B7800241470002B40F0888639
:101FC0000020FEF7BBFA0220FEF7B8FA614B1A7840
:101FD00072B1614A127800211970002A00F0E98577
:101FE0004C4B1B78002B40F0E485494A01231370C9
:101FF0002B6801332B6011B0BDE8F08F574C564B66
:10200000DFF810814648534F21464FF00009042263
:1020100001251D7088F80090FEF75EFA2178A378FC
:102020002370E27863786270B1EB090122884C4832
:102030004C4C18BF0121B3EB090318BF01233970C1
:102040004CF24F3103708A42374B228006933FF6A1
:1020500069AF1C78002C01F07282434B3570A3F8F5
:102060000090324B0393414B1A78012A00F0A5856A
:102070002F4BDFF830B1029318469BF800101B6815
:102080000B2903F10103036001F32682384A394E1C
:10209000394D3A4C0A4402E001310C290DD012F8B6
:1020A000013F002BF8D08B5D002BF5D1685CFEF76B
:1020B000D7FD605401310C29F1D1314B314A324DF9
:1020C0001E78099212782A609BF80030002E01F0E9
:1020D0002E822E492E4FD1F800C02E4C059100972C
:1020E0002D4901910CEB8C0704EB870491F80090CB
:1020F0002A482B49DFF8848002EB060E013C4FF0A2
:10210000000A58E0B030FF1F50B50020E81AFF1F4A
:10211000201CFF1FF197FF1F0431FF1F1C1CFF1F16
:102120001CD6FF1FF097FF1F00C2FF1F0CB5002039
:10213000ECB000202A99FF1FF897FF1F0898FF1F97
:10214000E897FF1F8CB1FF1F981BFF1F84ADFF1F77
:10215000E2AB0020901BFF1F2B99FF1F24D6FF1F0F
:102160000D1CFF1F221CFF1F28B500204AD6FF1F91
:10217000C3990020D41BFF1FC80DFF1F30B50020DE
:10218000940DFF1F1A1CFF1F2CB50020500DFF1FC0
:10219000101CFF1F04C2FF1F1BD6FF1FB00DFF1F27
:1021A000B41BFF1FCC1AFF1F0132724500F1010062
:1021B00001F1010119D014F8016F6645F4D00778D8
:1021C0000E7818F80770B742EED1009F07F8092083
:1021D000013209F1010672454FF0010A5FFA86F9F2
:1021E00000F1010001F10101E5D12A60BAF1000F0F
:1021F00041F0F181CC4A0B2B127804922A6001F352
:102200007C810199C94A0978C94FCA4ECA4CCB484A
:102210000791DDF810E00A95591E114402F10B0CEC
:10222000002208921F441E441C4418449A467246D9
:102230000CE002328C45D2B207F1010706F101062B
:1022400004F1010400F1010000F0088111F8013FE0
:10225000012BEED194F800E090F80080C64500F024
:10226000E38096F80090CE45E3D13B784345E0D13A
:10227000079D87F800E005F1010E009DA846079D27
:10228000531C08F80530012308935FFA8EF3079377
:10229000CFE7FEF769FC59E6A948FEF711F9A94A0C
:1022A000A0F1240310705A2B3FF63AAE01A252F867
:1022B00023F000BF45310000CD310000211F000098
:1022C000211F0000211F0000211F0000F531000028
:1022D000211F0000211F0000211F0000211F0000FE
:1022E000211F0000211F0000211F0000211F0000EE
:1022F000211F0000211F0000211F000023320000C9
:10230000211F0000211F0000211F0000211F0000CD
:10231000211F0000211F0000211F0000A13200002A
:10232000211F0000211F0000211F0000211F0000AD
:10233000FD1F0000211F0000FB2C0000112D0000DC
:102340006B2C00003B2F0000F92E0000B92E00007E
:10235000112C0000372D0000ED290000211F000086
:10236000B92D0000211F0000211F0000A92F00002F
:10237000C32F0000F32F0000213000007F30000049
:10238000211F0000B3300000211F0000D7300000E3
:10239000211F0000211F0000211F0000211F00003D
:1023A000211F0000211F0000211F0000211F00002D
:1023B000211F0000211F0000211F0000211F00001D
:1023C000211F0000211F0000211F0000211F00000D
:1023D000211F0000211F0000211F0000211F0000FD
:1023E000211F0000211F0000211F0000211F0000ED
:1023F000211F0000211F0000211F0000211F0000DD
:10240000211F0000211F0000211F0000211F0000CC
:10241000211F0000211F0000211F000021310000AA
:10242000494A0023137068E53D7896F800900B95B3
:102430004D457FF418AF079D87F800E005F10108CE
:10244000009DA946079D09F805205FFA88F50795C4
:102450000B9DAE453FF40CAF0893EAE6049A0A9D43
:102460001832A2EB4A022A60089A5346002A41F029
:10247000AB80DFF8F080002288F800202A60002B73
:102480003AD0324E324FDFF8E090DFF8E0A043461A
:102490000024B046049318E02E4A1178FF291AD080
:1024A000019E2B68307801EB030E009901F800E0E3
:1024B0000130FF213070117018F8010F9BF80010E7
:1024C00001340344A1422B6016DD17F8013F552B60
:1024D00003D0582BE0D02B68EEE799F80030002BA2
:1024E000F9D0049B1B78042BF5D8DFE813F04903DF
:1024F0000F03FF02EF02E302DFF874B0164A9BF805
:10250000003012782A60002B01F00C80029BDFF86B
:102510006480D3F800E0DFF860A0104EDFF85C9034
:102520000F4F0024704643E0810DFF1FC499002027
:1025300028D6FF1F18B5002030B50020E01BFF1F74
:102540001CD6FF1F9AB1FF1F201CFF1FE30DFF1FAA
:10255000EB0DFF1F15B500203A0DFF1F58D6FF1FCA
:10256000F8B400203D1BFF1F5C30FF1F3E1BFF1F08
:102570004D0DFF1FCF1AFF1F241CFF1F44ADFF1F6F
:10258000984B53F8241081424FEA840356D92B68A4
:102590009BF8001001340133A1422B600AF1010ABB
:1025A00006F1010609F1010907F1010740F3A080D6
:1025B00018F8013F002BE3D13378002BE7D08A4B8A
:1025C00053F8241081424FEA8403E0D8397801207F
:1025D00088F8000000297ED099F8001039B10199DF
:1025E000009A0878296811540199013008707F49D0
:1025F000C858D8B19BF80010C1B1002104960795C6
:102600001E4625460C4601E0784B9859E040C3072A
:1026100004D5A542E0B201D0FEF712FC9BF8000001
:102620000134A042F0DC2C46049E079D0121E0B25B
:10263000FEF750FB029A2B681068A9E70021E0B270
:102640000493FEF747FB38780021317088F80010BA
:10265000002830D09AF800C0604540F25C81049BAD
:10266000634902985A58DFF8CCE1006899F80010E5
:1026700053F80EE0049111185B4A8E4499500121E1
:10268000584A3170049943F802E02B6849B1019A25
:102690001178009A03F1140E02F801E0019A013159
:1026A00011705449095D00293FF472AF0CF101012A
:1026B0008AF800106CE7019B009993F800C02B6822
:1026C000029803F1140E01F80CE0019900680CF176
:1026D00001020A705CE701992A680878009904925F
:1026E0000A469DF8101011540199013008707EE7D8
:1026F0008646414A414B177893F80080C5F8008020
:10270000019B002F00F0E98293F800C0DFF82891C8
:102710003B4E00230493E3461C463A4B195DFD29CA
:1027200015D8394B306853F82430984200F0448172
:10273000BCF1000F0BD0009A344B02EB0C0A13F8DB
:10274000012B914204BF013030605345F7D1013471
:10275000BC4209F1010906F10406DEDB049B474493
:102760002F60002B40F02687059BDFF8D0A01C6867
:10277000274ADAF8003052F8242026482649007803
:102780000A90C3EB0E0393420B60286004D3234BE3
:102790001B78002B40F08281BBF10A0F03D9019A0C
:1027A0000A239B4613701E4D099E95F800901D4903
:1027B0001D4D36781D4B1E48079604EB8407BF005D
:1027C00039442C60662600255A460991CDF820B080
:1027D0000078DDF800B0049706FB04362946A446CD
:1027E00035E000BFEC1AFF1F9897FF1FA0B1FF1F35
:1027F0006030FF1F8097FF1FAC0DFF1F7C97FF1FEE
:10280000A81BFF1FE00DFF1FC81BFF1F101CFF1F91
:10281000E4AB00200C98FF1F7897FF1F24B5002021
:1028200026B5002004C2FF1FFC0DFF1F1031FF1F43
:102830003A0DFF1F401BFF1F48D6FF1F94B1FF1F1B
:1028400016F803C00125644501F1010113D191423D
:1028500011DA11F80B308342F2D34B4543D2B34D1A
:10286000049F1B1A05EB070C01311CF803C06445DB
:102870004FF00105EBD0DDF820B0002D40F09F8631
:10288000BBF1000F40F00082A94B019A1868009933
:102890001D4600231370A0424FF0FE020A703FF461
:1028A00047ABA44A1268904200F01A82A24B1B78F0
:1028B000012B00F01C82A14B029A1B781268CAF807
:1028C0000020002B40F0DF809D4B059A1C701060AB
:1028D000C0B2FEF71FFB039B1B78002B7FF42DABD0
:1028E000984DFFF785BB984509D9974D049FC9EBD3
:1028F000030305EB070C01251CF803C0A3E7079FA2
:10290000BB421CD2914DC8EB030305EB440C0125DF
:102910001CF803C097E799F80030002B3FF48AAE0B
:10292000019A2B6892F800C00099029803F1140EE6
:1029300001F80CE00CF101010068117028E60A9F13
:102940009F4232D9079D099F5B1B012517F803C0E1
:1029500079E7DE217E48FDF797FD33680E930E9BE5
:102960002360FFF7BFBA7B4B002693E803000122E8
:102970002670FEF72FFC784B022293E80300FEF747
:1029800029FC764B032293E80300FEF723FC744BEB
:10299000042293E80300FEF71DFC724B052293E826
:1029A0000300FEF717FCFFF7B2BA7FF44CAF6E4B93
:1029B000012513F804C046E799F80030002B7FF496
:1029C000B7AE08EB04039A46009B0CF1010203F832
:1029D0000CA04FF001035FFA82FC89F8003001235C
:1029E000E3460493A4E65B48FDF76AFD5948FDF70A
:1029F0003FFD0028F7D102E05748FDF761FD56483A
:102A0000FDF736FD0028F7D102E05448FDF758FDE8
:102A10005248FDF72DFD0028F7D102E05048FDF7A0
:102A20004FFD4F48FDF724FD0028F7D102E04D4847
:102A3000FDF746FD4B48FDF71BFD0028F7D14B4B3A
:102A400006930546FF2143481E46494B0393FDF775
:102A50001BFDFF214048FDF717FDFF213F48FDF713
:102A600013FDFF213E48FDF70FFD3E48FF21FDF716
:102A70000BFD404B30781D600123237000283FF48C
:102A800057AAFFF7F0BAFF287FF41EAF2C4B3A4A43
:102A90000599187808601C70146019E7009A1146AF
:102AA0000BF1010301F80B005FFA83FB019B83F834
:102AB00000B071E62B48FDF7DBFC002840F02585CF
:102AC0002B68049A117801311170F5E42448FDF760
:102AD000CFFC0028F4D02248FDF7F2FC274B8AF8FF
:102AE0000000DB7883422B6859D2EAE71B48FDF7E8
:102AF000BFFC0028E4D01948FDF7E2FC1F4B8AF820
:102B000000009B7883422B6849D2DAE71248FDF730
:102B1000AFFC0028D4D01048FDF7D2FC174B8AF840
:102B200000005B7883422B6839D2CAE73099FF1FD7
:102B3000FC0DFF1F0098FF1F2A99FF1F0D1CFF1F90
:102B4000D11BFF1F84ADFF1F481CFF1FC818FF1FAC
:102B50001CD6FF1F58ADFF1F60ADFF1F68ADFF1FE4
:102B600070ADFF1F78ADFF1F1898FF1F00C2FF1F39
:102B70000CB500201C1CFF1FD80DFF1FE40DFF1F0C
:102B8000AE48FDF775FC00289AD0AC48FDF798FCDC
:102B9000AB4B8AF800001B7883422B6891D3019ECF
:102BA000009A317803F1FF3E704450540131317086
:102BB00087E7FFF791F8FFF71BBA00214FF49672F1
:102BC00019701346013BFDD101F0DAF99D4A9E4B85
:102BD0009E4E1B68D2E900454FF0FF32A3FB022353
:102BE000141B63EB05052418994B9A4845F1000521
:102BF00031460822C3E90045C6E90045FDF766FCF9
:102C0000FEF740F8944B1878FEF784F9FFF790B977
:102C10009048924DFDF754FC28708E48FDF750FC0B
:102C20008F4B904A1B781070FBB98F4C2B78227811
:102C300093421AD0FF2B00F0B1840F2B14D8FF2A37
:102C400000F0A8848949885C5928894804BF057820
:102C50008D54884E884DF65C2E70884ACD5C057088
:102C60005926CE54012111702370854B06931C46C2
:102C70007848844B03930121FDF706FC2078002857
:102C80003FF456A9FFF7EFB97F4C00987F4B2146E0
:102C9000104401F801BF13F8015B01F8015F8342A2
:102CA000F9D11444CEF30721E170CEF30741784BFC
:102CB00021714FEA1E61617106327349654884F8DB
:102CC00002E0C3F800E0FDF701FC059B1C68DBE5B2
:102CD000FEF726FC3C70FFF773B993F800B043E5AC
:102CE00006990B70039B01221A70FFF728B9FDF7B4
:102CF000C9FF059B28681C68DDE5664C04F10C05DE
:102D00005448FDF7DDFB04F8010BAC42F8D1ACE709
:102D10005B4B5048069316211C465A4B0393FDF714
:102D2000B5FB4C480321FDF7B1FB207800283FF4A8
:102D3000FFA8FFF798B94748DFF87881FDF7C0FB97
:102D400088F800004348FDF7BBFB534B1870002880
:102D50008BD0524C524D534E00273E48FDF7B0FBEE
:102D600020703C48FDF7ACFB94F800A04E4A98F860
:102D7000009028700AEB4A0302EB430303F80900B2
:102D8000002800F0A1834FF0000B3248FDF798FBBC
:102D900009EB49090AEBCA0309EB430333442A78D8
:102DA00003F80B000BF1010B5A4540F38D8394F8A7
:102DB00000A098F80090E8E726483C4C3C4DFDF711
:102DC0007FFB20702348FDF77BFB2378274AD25CEA
:102DD00081B2423A2980152A3FF6A2A801A656F8E8
:102DE00022F000BF2B330000211F00002B33000016
:102DF000211F0000211F0000211F0000211F0000D3
:102E0000211F0000211F0000211F0000211F0000C2
:102E1000211F0000211F0000211F0000FD320000C3
:102E2000211F0000211F0000211F0000211F0000A2
:102E3000211F0000CD3200002B33000058ADFF1FD2
:102E4000E40DFF1FF897FF1F0898FF1F981BFF1F37
:102E50002099FF1F1CD6FF1F500DFF1F0C31FF1FB5
:102E6000D21BFF1F2A99FF1FC40DFF1F840DFF1FD8
:102E70000498FF1F3C0DFF1F3F1BFF1FF0B00020F9
:102E800000C2FF1F0CB50020381CFF1F101CFF1FC5
:102E900024D6FF1FC49900203E1BFF1FE41AFF1F0A
:102EA000CB1AFF1FD09900203407FF1F25B5002043
:102EB0002899FF1F3D1BFF1FA94CAA4A2378AA4D42
:102EC00006921646A94A03920022EA54FEF7B4FA83
:102ED000A748FDF7F5FA2070A548FDF7F1FAA54BD4
:102EE00022781870011C307818BF0121A9540028DD
:102EF0003FF41EA8FFF7B7B89A4B06931D469C48AF
:102F00009A4B0393FDF7DCFA954C9B4B2070185CB1
:102F1000FDF7A6FE23789949964ACB5C1B1AB3FAB3
:102F200083F35B09924813701946FDF7ADFA2878D0
:102F300000283EF4FDAFFFF796B84FF480718C483F
:102F40008F4C904EFDF7A2FA8F4B89481988FDF7F8
:102F50009DFA5A218648FDF797FA14218448FDF717
:102F600093FA02218248FDF78FFA14218048FDF779
:102F70008BFA0C217E48FDF787FA0C2283497C48A6
:102F8000FDF7A4FA10217A48FDF77EFA04F1100546
:102F900014F8011F7648592908BF3178FDF774FAF3
:102FA000AC42F5D1FEF7BCBF6E4A794B1078069261
:102FB0006E49039101221A7000283EF4B9AFFFF761
:102FC00052B8684B06931D466948684B0393FDF75A
:102FD00077FA704C022120706548FDF755FA644875
:102FE0002178FDF751FA287800283EF4A1AFFFF7C9
:102FF0003AB85F485A4D684CFDF762FA431E5C4888
:103000002B70FDF75BFA2B7820600246042B3EF60E
:1030100087AFDFE813F0F001DC01B401A001C801C3
:1030200053484F4CFDF74CFA431E51482370FDF7AF
:1030300047FA504A594B107000EB40022478584927
:1030400003EB42031A5D0A707AB100EBC000410045
:1030500003255448544B15FB041101449D1811F8E5
:10306000010F03F8010BAB42F9D1042C3EF658AF27
:10307000DFE814F0F001EA01E401D5012402394B44
:103080003B4806931D46FDF71BFA484C2070384814
:10309000FDF716FA3F4A2B781070002B4ED023789C
:1030A0004349444AC8540121D154304B0393FEF79D
:1030B000DABF2E4B039318462A4B06931C46012277
:1030C000002302702370FDF767FD207800283EF48E
:1030D0002FAFFEF7C8BF2349214B234A1B78069127
:1030E0000E4622492248039100243121D4542C70E9
:1030F000FDF7CAF9304B31491B68314A0F930F9BDA
:103100000B6020461360FDF719FA2E4B2146187804
:1031100000F02AFF307800283EF40AAFFEF7A3BF84
:10312000104B134806931C46FDF7CAF9264B22782C
:103130001870002A7EF495AFFF221A700B4B039390
:10314000FEF7F6BE074B06931C460948074B039350
:10315000FDF7B6F9207000283EF4EAAEFEF783BF13
:103160003D1BFF1F00C2FF1FBC9900200CB50020B3
:103170001CD6FF1F3E1BFF1FC80DFF1FE01BFF1FBC
:10318000830DFF1F0498FF1F680DFF1FEC0DFF1F2D
:1031900098B1FF1F0598FF1F10B500203407FF1FCF
:1031A000E41AFF1FCF9900208CB1FF1F19D6FF1F13
:1031B00030B50020D41BFF1F50B50020E81AFF1FB8
:1031C000B01BFF1F4C0DFF1F15B50020A44BA549D8
:1031D000A548069306221C46A44B0393FDF77CF9F1
:1031E000A1480121FDF750F9207800283EF4A0AE57
:1031F000FEF739BF00F0C4FE994B9D4A9D4C0693E3
:103200001D46002310605360974823600121974BAF
:103210000393FDF739F9287800283EF489AEFEF7CC
:1032200022BF012402202C70FDF788F935218E4839
:10323000FDF72AF9904B013BFDD18B488F4EFDF7EE
:103240001BF900F09DFE8A4B8A4A8D4918600025C3
:103250005D601560E8B232460023C85403330F2B7B
:1032600002F8014FF9D10135B5F5807F06F1060668
:1032700001F11201EED17A488249834B834A1B78CF
:103280000690054608787949039100240121D45419
:1032900000F06AFE287800283EF44AAEFEF7E3BE4E
:1032A000764E774900250124E8B232460023C854FF
:1032B00003330F2B02F8014FF9D10135B5F5807FAB
:1032C00006F1060601F11201EED1CEE4704A127841
:1032D000002A00F04A816F4AD054FDF70DFC604986
:1032E00023786D4A0691084629880078D1545F4BAF
:1032F000039300283EF41CAEFEF7B5BE674A0146B4
:10330000D05CFDF7B7FC2B88002B00F036815449C8
:1033100056482378604A0390087806910121D154D9
:1033200000283EF405AEFEF79EBE4D485B4A06906F
:103330000031064618BF0121D05C4C4B0393FDF7CA
:10334000D3F82378544A30782988D15400283EF4A1
:10335000EFADFEF788BE424B5149434806931D46E8
:10336000424B0393FDF7B8F84E4822684C49FDF7ED
:10337000ADF8287800283EF4DBADFEF774BE384B7C
:103380004749394806931D46384B0393FDF7A4F887
:10339000454822684249FDF799F8287800283EF40C
:1033A000C7ADFEF760BE2E4B3D492F4806931D4624
:1033B0002E4B0393FDF790F83C4822683849FDF7FF
:1033C00085F8287800283EF4B3ADFEF74CBE244BB8
:1033D0003349254806931D46244B0393FDF77CF89B
:1033E000334822682E49FDF771F8287800283EF40A
:1033F0009FADFEF738BE1A4B29491B4806931D4660
:103400001A4B0393FDF768F82A4822682449FDF710
:103410005DF8287800283EF48BADFEF724BE104BF3
:103420002549204806931C46104B0393FDF74EF8A0
:10343000207800283EF47CADFEF715BE084B0693BD
:103440001C461D491848EFE7054B06931C461A49D0
:103450001748E9E7024B06931C4617491548E3E76E
:1034600000C2FF1FE40DFF1F1CD6FF1F0CB500207C
:10347000F897FF1F0898FF1F808D5B003307FF1F21
:10348000D09900204C0DFF1F3D1BFF1FBC99002051
:10349000D01BFF1FFC1BFF1FEC1BFF1F3C0DFF1F62
:1034A000E8AF002070ADFF1F68ADFF1F78ADFF1FB4
:1034B00060ADFF1F58ADFF1F8CB1FF1F484B069337
:1034C0001C4648494848AFE7484B1B780137BB4288
:1034D0003FF743ACFFF7C9BB454B464A464D1E7804
:1034E000099212782A600B46002E7EF4F2AD434B0F
:1034F0000593434B0193434B0093DFF8388100233E
:1035000088F800302B60FEF7BCBF3748FCF7D8FFC7
:103510003D4B8AF800001B7983422B68FFF4D1AA47
:10352000FFF73DBB029BD3F800E0FFF7E2B8334A58
:103530000592334A0192334A0092FEF75BBE33494B
:103540003348FCF7C9FF88F80050FDF7E9FF3B78E6
:1035500013B1304B3C701D70069B18782E4B0393B3
:1035600000283EF4E5ACFEF77EBD2C4A003118BFC2
:103570000121D05CFCF7B8FFB1E619482278284950
:10358000069000788B54244B039300283EF4D0AC73
:10359000FEF769BD23482449FFF75BBB0F2A03D818
:1035A0002048214900788854204A23700021117056
:1035B000FFF75BBB019B83F800C0FFF7D5B81C4B3E
:1035C000C3F800C0FFF75CB9019A11469DF81C20B2
:1035D0000A70FEF74EBF019A82F80090FEF70ABE0D
:1035E00000C2FF1F8CB1FF1F78ADFF1F3E1BFF1FE6
:1035F000940DFF1F1A1CFF1F2CB50020500DFF1F3C
:103600001BD6FF1F101CFF1FE40DFF1F6CD6FF1FF2
:103610001CD6FF1F98B1FF1F0CB500203C0DFF1FEB
:10362000EC1BFF1F0498FF1F840DFF1FF0B000204C
:10363000FC0DFF1F3D1BFF1FF8B51B491B481C4E0F
:103640001C4D1D4F1D4CFCF711FF1D491D48FCF77B
:103650000DFF1D491D48FCF709FF1D491D48FCF7DA
:1036600005FF1D491D48FCF701FF1D491D48FCF7DA
:10367000FDFE1D4B1D481B781D4A1E4903F1140E0B
:1036800086F800E003F128062E7003F12A053E3388
:103690000570002680253B70204626602571BDE818
:1036A000F84004F083BB00BFB00EFF1F1CD6FF1F05
:1036B00026B500207C97FF1F0C98FF1F4CD6FF1FDC
:1036C000500EFF1F58ADFF1F700EFF1F60ADFF1F94
:1036D000600EFF1F68ADFF1F800EFF1F70ADFF1F44
:1036E000900EFF1F78ADFF1F3A0DFF1F1A1CFF1F22
:1036F0003007FF1FDD04000010B4047F4160022C7E
:10370000C26003D05DF8044B03F072BC83685DF8BF
:10371000044B1847F0B4464B464A986B5C6B0179F2
:103720001170454922790A701A6B00790870002AD5
:1037300046D05968C9688A423ED82168CC8B240497
:1037400002F1FF3065D4C0F30E00C883C88B80B28D
:10375000C882996B0968C88B000452D4C2F30E006A
:10376000C883C88B002480B212F1FF32C88218BF10
:1037700001221C63596B2E4809680D6800F12C0466
:10378000A54236D00068C46814F0804F0C680D68FC
:1037900015BF248824780235013544F000440D60BB
:1037A0004463996B254B09791970214912B14A6B11
:1037B00012791A70F0BC7047521A1A630122D9E7C5
:1037C000D86B196805681E4C0A63CC62CC682D68FA
:1037D0001C4E24F080440327B542CC6083F82D7042
:1037E0001FD1037F4260022BC2601ED0F0BC03F0E9
:1037F000FFBB016890F82C00CC6840F000404863A3
:10380000CFE7CC8BC2F3080004F47E442043C88386
:10381000A7E7CC8BC0F3080004F47E442043C883A0
:1038200094E72B461146F0BC18478368F0BC184754
:10383000000EFF1F1F8000401C8000401B800040C6
:1038400000000FFFF936000090E80C00F0B41C688F
:1038500059682568164F174E29432160164D1749A0
:103860001760D66015611160417A154A5C180C31F9
:1038700094F82C4053F8215002EBC40149680D60C4
:10388000017A5C1803EB8101247ECD6902EBC4014F
:1038900049680D60817A581803EB810390F8400065
:1038A000596C02EBC002F0BC53681960704700BF4E
:1038B00001401F00011000380110007800001F8037
:1038C000C888000008B5104C08E0236859050DD4DD
:1038D00023681A050FD42368DB0411D42368580326
:1038E000F3D502F041FD23685905F1D500F0E6FF5C
:1038F00023681A05EFD501F093FB2368DB04EDD5AF
:1039000001F052FEEAE700BF3480044008B5FFF73B
:10391000D9FF00BF014B10221A80704700200540DC
:10392000704700BF094908B50B6830B16A461844B2
:10393000A2F50052904202D20860184608BD04F079
:1039400041FA0C2303604FF0FF3008BD400EFF1F0B
:10395000EFF3138070B9EFF310836BB9EFF30582C7
:103960005AB94FF48070EFF311832BB1984228BFFE
:10397000184670474FF0FF3070470F2A01D818469D
:10398000F1E7014BD05CEEE7F0E300E0084A137882
:10399000802B01D0002070470649074B074808607C
:1039A000002119701378802BFCD00120704700BFD4
:1039B00003E007404480044001E007400000282263
:1039C000094A1378012B01D00020704703F180438E
:1039D00003F5FC23602119701378802BFCD1034B75
:1039E000034A1A600120704703E007404480044006
:1039F0000000060210B4114B53F8302092F88042B8
:103A000034B1012379B182F880305DF8044B7047FE
:103A100003EBC0035B681A6851B922F002021A6016
:103A20005DF8044B704782F800315DF8044B704735
:103A300042F003021A605DF8044B7047C88800002A
:103A40001C4A02EBC00301295B6811D004291BD07A
:103A500052F83000002280F8802229B1022920D0BB
:103A6000032922D01A6070474FF480721A607047A1
:103A700052F830004FF4A27280F880121A601A686F
:103A800022F020021A60704752F830104FF4A272F0
:103A9000012081F880021A601A6842F020021A6040
:103AA000704740F203121A6070474FF481721A6037
:103AB000704700BFC888000030B4054B054D064C68
:103AC000002210211A602A602060196030BC704703
:103AD00014D0034004D0034000D0034038B5A0F117
:103AE0004203012B044624D900297ADD994B1B7827
:103AF000012505FA03F28A4202D83F282CD938BDA5
:103B0000C21E012A30D9A0F11D02012A78D90E283F
:103B10005BD9A4F12302032A5CD9A4F11002012A83
:103B200094BF8D4A8D4A126802FB011222FA03F3F8
:103B300020E0884B1B780B2B0AD90C2B1CBF0C3BAD
:103B40001941422C084657D0BDE8384004F024B84B
:103B5000C3F10C039940F4E72946FFF74BFF2946D0
:103B6000BDE83840FFF76CBF7D4A126802FB0112C6
:103B700022FA03F3A21E242A00F2E380DFE812F007
:103B8000DA00D300CC00C500BE00B700B000A90029
:103B9000A200E100E100E1009B00E10094008D0043
:103BA000E100E10086007F0078007100E100E100A3
:103BB000E100E100E1006A006300E100E100E100F2
:103BC000E1005C0055004E00470044F28412C24000
:103BD000D2079ED5634A126802FB011222FA03F350
:103BE000C8E73F288BD80021FFF704FF20460121BA
:103BF000BDE83840FFF724BFBDE8384003F0AEBF52
:103C0000594A126802FB011222FA03F3B2E757493C
:103C1000574A0B604FF45173136038BD5549564AEB
:103C20000B604FF45173136038BD5449544A0B6014
:103C30004FF45173136038BD5249534A0B604FF42F
:103C40005173136038BD5149514A0B604FF45173A1
:103C5000136038BD4F49504A0B604FF451731360E5
:103C600038BD4E494E4A0B6040F24443136038BDA4
:103C70004C494D4A0B6040F24443136038BD4B49F8
:103C80004B4A0B6040F24443136038BD49494A4AED
:103C90000B6040F24443136038BD4849484A0B600A
:103CA00040F24463136038BD4649474A0B6040F216
:103CB0004463136038BD4549454A0B6040F24443B4
:103CC000136038BD4349444A0B6040F244431360DB
:103CD00038BD4249424A0B6040F24443136038BD4C
:103CE0004049414A0B6040F24443136038BD3F49AC
:103CF0003F4A0B6040F24443136038BD3D493E4AA1
:103D00000B6040F24443136038BD3C493C4A0B60B1
:103D100040F24443136038BD3A493B4A0B604FF4CC
:103D20005173136038BD3949394A0B604FF45173F0
:103D3000136038BD3749384A0B6040F24443136082
:103D400038BD3F2C3FF6DBAE7F29D4BF00210121D7
:103D5000204649E7440EFF1F08900C4008800340AE
:103D60000890034008900B4008800B4048900B409F
:103D70002CB0044040900B4028B0044038900B40D9
:103D800024B0044030900B4020B0044018800B4019
:103D90004CA0044010800B4048A004401880034011
:103DA00008B004401080034004B004404080034049
:103DB00018C004403880034014C0044018900C40E0
:103DC00004A0044010900C4000A0044018900B4048
:103DD00004C004402880034010B004402080034009
:103DE0000CB0044028900B400CC0044020900B40C5
:103DF00008C004403080034010C0044048800340A5
:103E00001CC00440189003403490044010900340BC
:103E10003090044010900B4000C00440A0F110010D
:103E2000C9B2012970B45BD9DFED3B7A3B4AB4EEED
:103E3000E70AF1EE10FA47F6122346BF1A460225AA
:103E40000125DFED376A002322FA03F407EE904ADA
:103E5000F8EEE77A27EEA67AB4EEC70AF1EE10FA8A
:103E600007DA0133072BEFD1D20907EE902AF8EEDB
:103E7000E77A87EE807A4FF6FF74C21EF6EE007A7C
:103E800077EE677AFCEEE77A17EE906AA64228BFD3
:103E90002646012A344637D917280ED9A0F11D022B
:103EA000012A35D90E281ED92338032820D9012903
:103EB00014D81C4A1C4E1D481DE01D4AC24002F089
:103EC000010282F00106002AE8D01A4A1A481B496A
:103ED000166043EAC50306600C60136070BC70474F
:103EE000174A0125ADE744F28412C240D207DBD560
:103EF000144A154E154843EAC5030021116031608C
:103F00000460136070BC7047114A124E1248F2E709
:103F1000124A134E1348EEE7C0E1E44000879303D2
:103F20000000803700900C4004900C4008900C403A
:103F30006006F000008003400480034008800340D6
:103F40000024F40000900B4004900B4008900B40BC
:103F500000900340049003400890034000800B4011
:103F600004800B4008800B403F2801D8FFF742BD7A
:103F7000704700BF3F2801D8FFF762BD704700BF00
:103F800072B60D490D4B0E4A1B680868126862B67E
:103F9000520102D5322B88BF0130C3F52F330949B6
:103FA00003F21F334FF47A729B08A1FB031302FB49
:103FB00000F000EB9300704750B5002018E000E0DF
:103FC00004ED00E0176CC1162DE9F843054672B602
:103FD000224F234B234A1B683C68126862B6520189
:103FE00002D5322B88BF0134B5B3C3F52F3303F2AA
:103FF0001F331D4EDFF86890DFF868809B084FF490
:104000007A72A6FB031302FB04F404EB930472B66A
:10401000D9F800103A68D8F800E062B6C1F52F333D
:1040200003F21F339B08A6FB03031EF0806FC4EB53
:1040300093034FF47A7002D0322988BF013200FB1B
:104040000233B3F57A7F04D3013D05D004F57A74C9
:10405000DDE703F0B1FCDAE7BDE8F88350B50020F6
:1040600018E000E004ED00E0176CC116F8B54E4B07
:104070004E48DFF85CC14E4C4E49DFF858E14E4ED9
:104080004E4D4F4F4FF000621A604FF080521A6051
:104090004FF000521A604FF080421A604FF0004219
:1040A0001A600022026028234EF6FF70CCF8000050
:1040B000CEF8003023600EF5012E0B6033602B60CC
:1040C00006F500263B6005F50025A36207F50027ED
:1040D0008B6204F5012401F5012106F6E87605F668
:1040E000E87507F57F6710310EF1100E203433604C
:1040F0002B60CEF800303B600B602360314CBB611D
:104100008B6109212160A7F5002704F58054203F29
:1041100008343A602060BB60E36047F8041C04F593
:10412000FD2407F5FE27043704F2FC742260386092
:10413000A360FB6044F8041C083404F6FC74C7F860
:10414000FC2F2060A4F5E124A4F2DC7433602B6022
:10415000C7F8F81F21681C4841F40071216001680C
:104160001A4C0EF57F4E0EF1E80E07F5883706F56E
:10417000803605F5803541F000710160CEF80020F1
:1041800047F6FF710822396033602B60226003F02C
:1041900075FC3220FFF718FF02F012FD4FF4AF70EC
:1041A000BDE8F840FFF710BF04E100E004800340E1
:1041B000148003401C800340248003402C80034073
:1041C00034800340008003400480044000900C4091
:1041D000088003400C8003402DE9F84F214B1B68F9
:1041E00007460BB101221A70DFF888901E4D99F82E
:1041F0000040DFF884801D4E01343F2C8ABF4FF011
:10420000000A5FFA84FA5446AB462B78A34216D1D3
:10421000FFF79EFB40281FDC33791B06F5D59BF882
:10422000003001333F2B86BF00221346DAB218F864
:104230000330DBB2F3712A702B78A342E8D00C492B
:104240000A4BFFB208F804700120BC22087089F8FC
:1042500000A0DA70BDE8F88FFF28D6DD03F0ACFBD4
:10426000D3E700BFA4B60020A1B6002000A00640FE
:10427000A0B60020A8B600205CB500202E4A2F4929
:104280001368F0B543F4806313600A782C4F2D4E09
:104290002D4D2E4C2E490023152A3B8033802B7048
:1042A00023700B7043D01B2A3CD04AB3294B1B7898
:1042B000052B2DD01A2B30D0012B1CD0264B274C90
:1042C0002749C0F34436C0F347151E7000F01F00A5
:1042D0005D7004224FF0020E88273C26402598721C
:1042E0009A704FF0004083F813E05A751F74DE7027
:1042F00025700860F0BD1B4B4FF451721A60DDE76A
:10430000194B40F213321A60124B1B78052BD1D196
:10431000164B4FF451721A60D0E7154B4FF451729F
:104320001A60CBE7134B40F213321A60BEE7124B10
:1043300040F213321A60B9E7348004409CB5002083
:1043400058B500205AB50020A8B60020A1B600201C
:10435000A0B60020450EFF1F00A006401FE400E0AD
:1043600000E100E044A0044040A004401CC0044020
:10437000389004403C90044018C00440194B19493F
:104380009B7803F0EC0200F003031343420700F0B4
:104390000F0248BF43F01003042A8B701CD0114B4E
:1043A000104A5B79C10603F0EF0348BF43F01003E6
:1043B00053719379820603F0EF030A4A48BF43F032
:1043C00010039371C30506D553781178DBB241F021
:1043D00020011170537070478B7943F040038B714B
:1043E000DDE700BF00A00640284B1B685B0533D506
:1043F00010B5274C237823B103F0DEFA2378002B85
:10440000FAD12448244A254B4FF00044002104608F
:10441000D1701B78152B20D01B2B32D01BB9204B11
:1044200040F203121A601F4B1B7803F07F03052B29
:104430001DD01A2B20D0012B03D11B4B40F20312AD
:104440001A601A4B1A481B491A68002303800B8014
:104450000AB10123137010BD7047174B40F20312CD
:104460001A60104B1B7803F07F03052BE1D1134B2F
:1044700040F203121A60E4E7114B40F203121A6093
:10448000DFE7104B40F203121A60CCE7348004409F
:10449000A0B6002080E100E000A006409CB500200E
:1044A00040A00440450EFF1F44A0044054B5002026
:1044B00058B500205AB5002018C004401CC0044064
:1044C000389004403C9004400A4A38B505461378B9
:1044D00003F0FF04002BFAD101212846FFF74AFD23
:1044E00021462846FFF740FD034A044B52F8352089
:1044F0001A6038BDA0B60020C8880000A4B600200D
:1045000009B140F080001E4A137898421BD010B4C5
:104510001C4C2468640513D503F07F03052B2AD0B7
:104520001A2B24D0012B14D0002900F07F0114BFD6
:1045300060234423052915D01A290ED0012903D060
:1045400010705DF8044B70470F4943F440730B60E3
:10455000F6E70D4B00241C60E6E70C4943F440737A
:104560000B60EDE70A4943F440730B60E8E7074B43
:1045700000241C60D8E7064B00241C60D4E700BF71
:10458000450EFF1F3480044044A00440389004408E
:104590001CC00440174A137883420ED0164909689C
:1045A000490509D5152B20D01B2B1AD05BB1152836
:1045B0000DD01B2810D008B1107070470F4B40F27F
:1045C00013311960F8E70D4915280B60F1D10C4B38
:1045D00040F213311960EFE70A4B40F213311960D2
:1045E000EAE7084B00211960E1E7054B002119605B
:1045F000DDE700BF9CB500203480044040A00440AB
:1046000018C004403C9004400D4B1B6813F48063B9
:1046100005D03F2805D90B4B00201860704718467D
:104620007047094B10B5074C53F830302360012117
:10463000FFF7A0FC236800221A70012010BD00BF04
:104640003480044054B50020C88800000F4B1B681C
:1046500013F4806308D0122808D0142811D00C4A13
:10466000537B03F0FE03537300207047094B40F265
:1046700002321A60064A537B43F001035373012050
:104680007047054B40F202321A60F3E73480044071
:1046900000A006400CA0044014C00440034B1B685B
:1046A0005B0501D5FFF798BD704700BF348004401B
:1046B0002DE9F84F294B1B685A0548D5284B1B6834
:1046C00005460BB101221A7005EB010A554540D28F
:1046D000DFF89C80234CDFF89C90234F0AE015F80C
:1046E000012B09F80B20214A0123AA45137088F8F1
:1046F00000602ED098F80030227803F1010BBBF156
:104700003F0F86BF0026B3465FFA8BF69345E6D18E
:10471000BC22FA7005E03A7913060BD4227893454F
:10472000DDD1FFF715F94028F5DDFF28F6DD03F0B0
:1047300043F9F3E7227801323F2A86BF00210A4677
:10474000D1B219F80220D2B2FA712170E6E7BDE8C1
:10475000F88F054BBC22DA70BDE8F88F3480044036
:10476000A4B60020A1B6002000A00640A0B60020FC
:10477000A8B600205CB5002010B5044C237823B106
:1047800003F01AF92378002BFAD110BDA0B600204F
:10479000064A074B1B781078DBB2C0B283422CBFAD
:1047A0003F3000F1FF30C01A704700BFA1B60020B3
:1047B000A8B60020054A064B10881B8880B29BB221
:1047C000984238BF00F58070C01A704758B5002075
:1047D0005AB50020154B30B4154C1A88238892B274
:1047E0009BB29A421FD00133FF2B0ED91149124BB5
:1047F000087819680023C0B2238021B1D31ADA2BBC
:1048000001DC00230B7030BC70470A480A49C05CC9
:1048100009689DB2C0B225800029F4D09A4238BF01
:1048200002F58072EAE74FF0FF30ECE758B5002060
:104830005AB50020A0B5002054B50020094A0A4B03
:1048400012881B8892B29BB29A4208D00133B3F50A
:10485000807F28BF0023054AD05CC0B270474FF06C
:10486000FF30704758B500205AB50020A0B5002091
:104870000D4B1B685B0516D530B40C4B0C4CDA782D
:104880000C480D4902F0CB024025DA705D74DA78ED
:1048900042F03402DA70238802689BB20B800AB1BE
:1048A0000023137030BC70473480044000A00640E1
:1048B0005AB5002054B5002058B50020F0B4394B4B
:1048C0001A7912F0300F2DD072B6997D01F0FF02E7
:1048D00000293ED062B6344F344938880D88344EB2
:1048E0001C4680B2ADB2431CB3F5807FE17928BF8E
:1048F0000023AB4202F1FF32C9B21CBFF15418468B
:1049000012F0FF02EFD12B4B1B6882B23A804BB101
:10491000A84236BFC5F58075401B4019E728C4BFC3
:1049200001221A701F49CA78D2B2150616D452064F
:104930000DD51C4B1B795B0609D51F4B1F491B6806
:1049400000220A7003B11A70164B3C22DA70F0BCD8
:1049500070474022D9795A7462B6E3E70B791C0696
:10496000E5D5174B174E1C783378E4B2DBB29C4286
:104970000ED0154D01E0A3420AD00133402B28BFD1
:1049800000230879E85CC0B2C871087D0728F2D915
:10499000DBB2044933700B79180644BF7C23CB701B
:1049A000C5E700BF00A0064058B500205AB500205A
:1049B000A0B5002054B50020A4B60020A0B6002069
:1049C000A8B60020A1B600205CB50020264A2749E1
:1049D0001368F0B443F4006313600A78244F254E43
:1049E000254D264C26490023092A3B8033802B7015
:1049F00023700B7032D03B2A23D0224B1B780A2B1A
:104A000027D03A2B03D1204B4FF451721A601F4B21
:104A10001F4D204CC0F34437C0F3471600F01F0071
:104A20001F7004215E700222987288273C26402065
:104A30009970DA7459751F74DE7028702260F0BCAA
:104A40007047154B40F213321A600E4B1B780A2B3D
:104A5000D7D1124B4FF451721A60D8E7104B40F285
:104A600013321A60C9E700BF34800440460EFF1FAE
:104A7000DCB70020B2B60020E4B70020DEB700208B
:104A8000B0B60020470EFF1F00D0044000B0064023
:104A900021E400E004E100E004D0044010B0044050
:104AA0000CB00440194B19499B7803F0EC0200F05C
:104AB00003031343420700F00F0248BF43F0100303
:104AC000042A8B701CD0114B104A5B79C10603F08D
:104AD000EF0348BF43F0100353719379820603F04C
:104AE000EF030A4A48BF43F010039371C30506D58C
:104AF00053781178DBB241F0200111705370704788
:104B00008B7943F040038B71DDE700BF00B00640B6
:104B1000204B1B681B053BD510B51F4C237823B1D8
:104B200002F04AFF2378002BFAD11C481C491D4B88
:104B3000022400220460CA701B78092B19D03B2B79
:104B400001D1194B1A60194B1B7803F07F030A2B14
:104B500019D03A2B02D1164B00221A60154B164879
:104B600016491A68002303800B800AB101231370D1
:104B700010BD134B40F203121A600C4B1B7803F06C
:104B80007F030A2BE5D10F4B40F203121A60E5E7D1
:104B9000704700BF34800440B0B6002084E100E0DC
:104BA00000B00640460EFF1F04D00440470EFF1F12
:104BB00000D00440ACB60020DCB70020B2B6002024
:104BC0000CB0044010B004400A4A38B505461378CA
:104BD00003F0FF04002BFAD101212846FFF7CAF9A0
:104BE00021462846FFF7C0F9034A044B52F8352006
:104BF0001A6038BDB0B60020C8880000E0B70020B9
:104C000009B140F08000174A1378984217D010B4C9
:104C1000154C246824050FD503F07F030A2B1DD003
:104C20003A2B12D0002900F07F0114BF60234423E7
:104C30000A290ED03A2903D010705DF8044B704752
:104C40000A4943F440730B60F6E7084B00241C60EC
:104C5000E8E7074943F440730B60EDE7044B002499
:104C60001C60DFE7470EFF1F3480044000D0044083
:104C700010B00440124B1A7882420CD011490968D6
:104C8000090507D5092A16D03B2A0AD009280DD0D4
:104C90003B2801D0187070470B4A40F21331116065
:104CA000F8E7094A002109281160F1D1074A40F2CA
:104CB00013311160EEE7054A00211160E6E700BFFD
:104CC000460EFF1F3480044004D004400CB0044062
:104CD0000D4B1B6813F4006305D03F2805D90B4B1F
:104CE00000201860704718467047094B10B5074CF4
:104CF00053F8303023600121FFF73CF9236800228C
:104D00001A70012010BD00BF34800440ACB60020F2
:104D1000C88800000F4B1B6813F4006308D01728E5
:104D200008D03C2811D00C4A537B03F0FE03537388
:104D300000207047094B40F202321A60064A537B4A
:104D400043F00103537301207047054B40F20232D8
:104D50001A60F3E73480044000B0064008B0044015
:104D600008D004402DE9F84F234B1B681A053BD5AA
:104D7000224B1B680BB101221A70DFF89090204D76
:104D800099F80040DFF888801E4E0134272C8ABF36
:104D90004FF0000A5FFA84FA54460746AB462B7878
:104DA0009C4216D1FEF7D4FD40281FDC33791B0648
:104DB000F5D59BF800300133272B86BF0022134620
:104DC000DAB218F80330DBB2F3712A702B789C4208
:104DD000E8D00D490B4BFFB20120BC2208F804704B
:104DE000087089F800A0DA70BDE8F88FFF28D6DDDA
:104DF00002F0E2FDD3E700BF34800440E0B70020BA
:104E0000DEB7002000B00640B0B60020E4B70020B6
:104E1000B4B600202DE9F84F294B1B681A0548D578
:104E2000284B1B6805460BB101221A7005EB010ADD
:104E3000554540D2DFF89C80234CDFF89C90234FEF
:104E40000AE015F8012B09F80B20214A0123AA4595
:104E5000137088F800602ED098F80030227803F1A3
:104E6000010BBBF1270F86BF0026B3465FFA8BF616
:104E70009345E6D1BC22FA7005E03A7913060BD4CB
:104E800022789345DDD1FEF763FD4028F5DDFF284C
:104E9000F6DD02F091FDF3E722780132272A86BF82
:104EA00000210A46D1B219F80220D2B2FA7121705B
:104EB000E6E7BDE8F88F054BBC22DA70BDE8F88F55
:104EC00034800440E0B70020DEB7002000B0064088
:104ED000B0B60020E4B70020B4B6002010B5044CF2
:104EE000237823B102F068FD2378002BFAD110BD9E
:104EF000B0B60020064A074B1B781078DBB2C0B270
:104F000083422CBF273000F1FF30C01A704700BF2A
:104F1000DEB70020E4B70020054A064B10881B8846
:104F200080B29BB2984238BF00F58070C01A7047BB
:104F3000DCB70020B2B60020154B30B4154C1A88EF
:104F4000238892B29BB29A421FD00133FF2B0ED915
:104F50001149124B087819680023C0B2238021B18F
:104F6000D31ADA2B01DC00230B7030BC70470A48DF
:104F70000A49C05C09689DB2C0B225800029F4D0FE
:104F80009A4238BF02F58072EAE74FF0FF30ECE753
:104F9000DCB70020B2B60020DCB60020ACB60020A2
:104FA000094A0A4B12881B8892B29BB29A4208D0D7
:104FB0000133B3F5807F28BF0023054AD05CC0B21F
:104FC00070474FF0FF307047DCB70020B2B60020CA
:104FD000DCB600200D4B1B681B0516D530B40C4BFE
:104FE0000C4CDA780C480D4902F0CB024025DA70FF
:104FF0005D74DA7842F03402DA70238802689BB27A
:105000000B800AB10023137030BC70473480044019
:1050100000B00640B2B60020ACB60020DCB70020DD
:10502000F0B4394B1A7912F0300F2DD072B6997D49
:1050300001F0FF0200293ED062B6344F344938886F
:105040000D88344E1C4680B2ADB2431CB3F5807F50
:10505000E17928BF0023AB4202F1FF32C9B21CBF85
:10506000F154184612F0FF02EFD12B4B1B6882B2AD
:105070003A804BB1A84236BFC5F58075401B401938
:10508000E728C4BF01221A701F49CA78D2B2150698
:1050900016D452060DD51C4B1B795B0609D51F4B48
:1050A0001F491B6800220A7003B11A70164B3C227C
:1050B000DA70F0BC70474022D9795A7462B6E3E7DF
:1050C0000B791C06E5D5174B174E1C783378E4B2E4
:1050D000DBB29C420ED0154D01E0A3420AD0013351
:1050E000282B28BF00230879E85CC0B2C871087D6E
:1050F0000728F2D9DBB2044933700B79180644BF94
:105100007C23CB70C5E700BF00B00640DCB70020B1
:10511000B2B60020DCB60020ACB60020E0B700201C
:10512000B0B60020E4B70020DEB70020B4B60020FF
:105130002DE9F84F214B1B6807460BB101221A706D
:10514000DFF888901E4D99F80040DFF884801D4EEE
:105150000134272C8ABF4FF0000A5FFA84FA5446C4
:10516000AB462B78A34216D1FEF7F2FB40281FDC9A
:1051700033791B06F5D59BF800300133272B86BF0A
:1051800000221346DAB218F80330DBB2F3712A704A
:105190002B78A342E8D00C490A4BFFB208F8047000
:1051A0000120AC22087089F800A0DA70BDE8F88F01
:1051B000FF28D6DD02F000FCD3E700BF1CB90020B9
:1051C00019B9002000C0064018B9002020B90020FD
:1051D000F0B70020174A18491368F0B543F480531C
:1051E000164C174D174FDFF874E01360164E174A30
:1051F00000232380AEF80030154C2B700B703B70F1
:1052000040F213373760134D1349C0F344364FF45F
:10521000517727601670C0F347142C2700F01F0049
:10522000402654709072082493701374D7702E70B7
:105230000C60F0BD3480044019B90020ECB70020A8
:1052400020B9002018B9002008C0044000C0064062
:105250000CC0044023E400E004E100E0EEB70020CD
:10526000194B19499B7803F0EC0200F00303134338
:10527000420700F00F0248BF43F01003042A8B706E
:105280001CD0114B104A5B79C10603F0EF0348BFF5
:1052900043F0100353719379820603F0EF030A4A37
:1052A00048BF43F010039371C30506D553781178B6
:1052B000DBB241F020011170537070478B7943F0DD
:1052C00040038B71DDE700BF00C00640F8B5114B0D
:1052D0001B68DB041CD5104C237823B102F06CFB57
:1052E0002378002BFAD10D4B0D4F0E4E0E4D0F4C67
:1052F0000F48104908221A600023FB7040F2031285
:1053000032602A60226803800B8012B1012313707F
:10531000F8BDF8BD3480044018B9002084E100E0F5
:1053200000C0064008C004400CC00440E8B700209C
:10533000ECB70020EEB700200A4A38B505461378CE
:1053400003F0FF04002BFAD101212846FEF712FEDC
:1053500021462846FEF708FE034A044B52F8352042
:105360001A6038BD18B90020C88800001CB9002098
:1053700009B140F08000104A137898421AD010B456
:105380000E4C2468E40412D503F07F03082B02D1ED
:105390000B4B00241C60002900F07F0314BF602128
:1053A0004421082B03D1064B41F440711960107061
:1053B0005DF8044B704700BF480EFF1F3480044067
:1053C0000CC00440704700BF0D4B1B6813F48053A2
:1053D00005D03F2805D90B4B0020186070471846B0
:1053E0007047094B10B5074C53F83030236001214A
:1053F000FEF7C0FD236800221A70012010BD00BF17
:1054000034800440E8B70020C88800000C4B1B68BB
:1054100013F4805306D00E2806D00A4A537B03F0BB
:10542000FE03537300207047074B064A40F20231D7
:105430001960537B43F0010353730120704700BF91
:105440003480044000C0064004C00440034B1B6885
:10545000DB0401D5FFF76CBE704700BF3480044009
:1054600070B5094E04464518AC4204F101040AD057
:105470003368DB04F8D514F8010CFFF759FEAC4291
:1054800004F10104F4D170BD3480044010B5044C23
:10549000237823B102F090FA2378002BFAD110BDC3
:1054A00018B90020064A074B1B781078DBB2C0B24F
:1054B00083422CBF273000F1FF30C01A704700BF75
:1054C00019B9002020B90020054A064B10881B8816
:1054D00080B29BB2984238BF00F58070C01A704706
:1054E000ECB70020EEB70020154B30B4154C1A88ED
:1054F000238892B29BB29A421FD00133FF2B0ED960
:105500001149124B087819680023C0B2238021B1D9
:10551000D31ADA2B01DC00230B7030BC70470A4829
:105520000A49C05C09689DB2C0B225800029F4D048
:105530009A4238BF02F58072EAE74FF0FF30ECE79D
:10554000ECB70020EEB7002018B80020E8B7002024
:10555000094A0A4B12881B8892B29BB29A4208D021
:105560000133B3F5807F28BF0023054AD05CC0B269
:1055700070474FF0FF307047ECB70020EEB70020C7
:1055800018B80020054B064A1B88064912689BB2D2
:105590000B800AB100231370704700BFEEB70020E4
:1055A000E8B70020ECB7002030B42C4B1A799406F1
:1055B00021D52B48D97903882A4A9BB20133128816
:1055C000FF2BC8BF002392B29342C9B203D0264C2E
:1055D0009AB2E1540280254A116861B1244A1278D6
:1055E000D2B2934236BFC2F580729B1A9B18E72B4A
:1055F000C4BF01230B70194AD378DBB2180611D44B
:105600005A060DD5154B1B795B0609D5194B1A495E
:105610001B6800220A7003B11A70104B2C22DA703A
:1056200030BC704711790906EAD5144910480C7846
:105630000178C9B28C420DD04A1C272A84BF0021B0
:105640000A460F4D054C98BFD1B2AA5CD2B2E271A6
:105650000170D5E76C21D170D2E700BF00C00640D1
:10566000ECB70020EEB7002018B80020E8B7002003
:1056700019B900201CB9002018B9002020B9002059
:10568000F0B700202DE9F84F214B1B6807460BB1FE
:1056900001221A70DFF888901E4D99F80040DFF85B
:1056A00084801D4E0134272C8ABF4FF0000A5FFA18
:1056B00084FA5446AB462B78A34216D1FEF748F93C
:1056C00040281FDC33791B06F5D59BF800300133E9
:1056D000272B86BF00221346DAB218F80330DBB25C
:1056E000F3712A702B78A342E8D00C490A4BFFB221
:1056F00008F804700120AC22087089F800A0DA7064
:10570000BDE8F88FFF28D6DD02F056F9D3E700BFD9
:1057100058BA002055BA002000D0064054BA0020E4
:105720005CBA00202CB90020244A25491368F0B443
:1057300043F4005313600A78224F234E234D244C28
:10574000244900231F2A3B8033802B7023700B7069
:105750002FD03F2A20D0204B1B78202B24D03E2B4B
:1057600003D11E4B4FF451721A601D4B1D4D1E4943
:10577000C0F344361E70C0F3471400222C27402685
:1057800000F01F005C70987220249A701A74DF7009
:105790002E700C60F0BC7047144B40F213321A604C
:1057A0000D4B1B78202BDAD1114B4FF451721A603C
:1057B000DBE7104B40F213321A60CCE73480044030
:1057C000490EFF1F28B900202AB900205CBA00202A
:1057D00055BA002054BA00204A0EFF1F10D00440D2
:1057E00000D0064025E400E004E100E014D00440CD
:1057F0002CA0044028A00440194B19499B7803F0C1
:10580000EC0200F003031343420700F00F0248BF0D
:1058100043F01003042A8B701CD0114B104A5B79A3
:10582000C10603F0EF0348BF43F0100353719379AF
:10583000820603F0EF030A4A48BF43F01003937156
:10584000C30506D553781178DBB241F02001117001
:10585000537070478B7943F040038B71DDE700BFD5
:1058600000D00640204B1B689B043BD510B51F4C55
:10587000237823B102F0A0F82378002BFAD11C483A
:105880001C491D4B202400220460CA701B781F2B6A
:1058900019D03F2B01D1194B1A60194B1B7803F01B
:1058A0007F03202B19D03E2B02D1164B00221A6009
:1058B000154B164816491A68002303800B800AB15D
:1058C0000123137010BD134B40F203121A600C4BEE
:1058D0001B7803F07F03202BE5D10F4B40F203121E
:1058E0001A60E5E7704700BF3480044054BA0020D6
:1058F00084E100E000D00640490EFF1F14D00440B0
:105900004A0EFF1F10D0044024B9002028B90020FF
:105910002AB9002028A004402CA004400A4A38B527
:105920000546137803F0FF04002BFAD10121284625
:10593000FEF720FB21462846FEF716FB034A044BE0
:1059400052F835201A6038BD54BA0020C8880000CB
:1059500058BA002009B140F08000174A13789842E5
:1059600017D010B4154C2468A4040FD503F07F039E
:10597000202B1DD03E2B12D0002900F07F0114BF38
:105980006023442320290ED03E2903D010705DF8F7
:10599000044B70470A4943F440730B60F6E7084B29
:1059A00000241C60E8E7074943F440730B60EDE70F
:1059B000044B00241C60DFE74A0EFF1F34800440C4
:1059C00010D004402CA00440124B1A7882420CD014
:1059D00011490968890407D51F2A16D03F2A0AD021
:1059E0001F280DD03F2801D0187070470B4A40F295
:1059F00013311160F8E7094A00211F281160F1D125
:105A0000074A40F213311160EEE7054A00211160A8
:105A1000E6E700BF490EFF1F3480044014D0044065
:105A200028A004400D4B1B6813F4005305D03F28F9
:105A300005D90B4B00201860704718467047094B7A
:105A400010B5074C53F8303023600121FEF792FA6D
:105A5000236800221A70012010BD00BF348004406A
:105A600024B90020C888000000207047034B1B6841
:105A70009B0401D5FFF706BE704700BF3480044089
:105A800070B5094E04464518AC4204F101040AD031
:105A900033689B04F8D514F8010CFFF7F3FDAC4212
:105AA00004F10104F4D170BD3480044010B5044CFD
:105AB000237823B101F080FF2378002BFAD110BDA9
:105AC00054BA0020064A074B1B781078DBB2C0B2EC
:105AD00083422CBF273000F1FF30C01A704700BF4F
