:1000000000000320D1010000D53C00008D3C000021
:100010008D3C00008D3C00008D3C00008D3C0000BC
:100020008D3C00008D3C00008D3C0000D53C000064
:10003000D53C00008D3C0000A17F0000A57F0000A2
:10004000D53C0000D53C0000D53C0000D53C00006C
:10005000D53C0000D53C0000D53C0000D53C00005C
:10006000D53C0000D53C0000D53C0000D53C00004C
:10007000D53C0000D53C0000D53C0000D53C00003C
:10008000D53C0000D53C0000D53C0000D53C00002C
:10009000D53C0000D53C0000D53C0000D53C00001C
:1000A000D53C0000D53C0000D53C0000D53C00000C
:1000B000D53C0000D53C0000D53C0000494D000077
:1000C000D53C0000A1560000D53C0000C55D0000F5
:1000D000D53C000061650000D53C0000D53C000027
:1000E000D53C0000D53C0000D53C0000D53C0000CC
:1000F000D53C0000D53C0000D53C0000D53C0000BC
:100100006187000075870000898700009D870000D7
:10011000D53C0000216F0000D53C0000D53C00001C
:10012000D53C0000D53C0000D53C0000D53C00008B
:10013000D53C0000D53C0000D53C0000D53C00007B
:10014000D53C0000D53C0000316C0000D53C0000DF
:10015000D53C0000D53C0000D53C0000D53C00005B
:10016000D53C0000D53C0000D53C0000D53C00004B
:10017000D53C0000D53C0000D53C0000D53C00003B
:10018000D53C0000D53C0000D53C0000D53C00002B
:10019000D53C0000D53C0000D53C0000D53C00001B
:1001A000D53C0000D53C0000D53C0000D53C00000B
:1001B000D53C0000D53C0000D53C0000D53C0000FB
:1001C000D53C0000D53C0000D53C0000D53C0000EB
:1001D0005C4B4CF2205210B51A804DF628121A8052
:1001E00000BF00BF03F07AFD574B4FF030621A603A
:1001F000564A9A60564ADA60564B4FF470021A60BB
:10020000554B564A1A60564B1A78110703D51A787F
:1002100042F008021A70534B5349AA221A70534AEB
:10022000534B8B4204D252F8040F43F8040BF8E707
:10023000504B514900228B4202D243F8042BFAE77B
:100240004E494F4A002352F8230041F8230001335E
:10025000742BF8D14B4B4C4A802103F8011B93427D
:10026000FBD14A4B454A1A60494B8A221A70A3F5C2
:10027000805324225A70A0221A709A799207FCD5D2
:100280009A79D406FCD4434A937903F00C03082BE3
:10029000FAD1414B60221A7002331A78802AFCD1BD
:1002A0003C4B01221A715D225A719A799006FCD555
:1002B0009979384A4906FBD5384B394919600021EC
:1002C000596020231370937903F00C030C2BFAD19F
:1002D000344B354A1A60354A354C136813F4807331
:1002E00003D123604FF4A8531360324B324A1A6093
:1002F00000225A60072243F8042C304AC3F80C2D20
:1003000062B603F0D1FD2368DA0705D52C4803F067
:10031000B7FD2C4B2C4A1A602C4B1B785B0609D579
:10032000284C294B22689A4204D1254803F0A8FDA5
:100330000023236003F0D8FC0AF04CFA08F072FAAC
:10034000FEE700BF0E20054030800440823F0400DD
:100350000100002B88ED00E0002008E0030000858C
:1003600002D0074000E00740541CFF1FBCB700004C
:10037000000AFF1F581CFF1FD8D900200002FF1FD2
:100380000000000000E400E064E400E008ED00E0AC
:10039000005006400040064001E007404480044011
:1003A0000000060204800440C010070010D0034083
:1003B00014D0034014E000E01FBF02000000202022
:1003C00044691F631CE00340A5C3945A00F0074032
:1003D000FFFFFFFFFFFFFFFFFFFFFFFFFFFFFFFF2D
:1003E000FFFFFFFFFFFFFFFFFFFFFFFFFFFFFFFF1D
:1003F000FFFFFFFFFFFFFFFFFFFFFFFFFFFFFFFF0D
:10040000FFFFFFFFFFFFFFFFFFFFFFFFDEF9FFFF23
:1004100010B5054C237833B9044B13B10448AFF33E
:1004200000800123237010BD581CFF1F0000000036
:10043000B8B70000084B10B51BB108490848AFF326
:1004400000800848036803B910BD074B002BFBD0A0
:10045000BDE81040184700BF000000005C1CFF1FF3
:10046000B8B70000541CFF1F000000000160704777
:10047000006803681B69184700680368DB68184751
:10048000006803681B681847FFF7FABF03468180BE
:1004900053F8040B0268194653680222184700BF3C
:1004A00010B50446206803681B6998470028F9D0F6
:1004B000206803685B699847C0B210BDFFF7F0BFC2
:1004C000FFF7EEBF006803685B681847FFF7FABFE5
:1004D000006808F08DB900BFFFF7FABF10B50446F9
:1004E00008F01CF9204610BD38B503F0FDFF0A4B9B
:1004F0000A4A1B680A490B4CC01A1060106822682F
:10050000D1E900450021001B61EB05014FF0FF33ED
:10051000E3FB020138BD00BF58EBFF1F44E9FF1F9A
:1005200048B4FF1FD4D7FF1F10B503F0DDFF094CFF
:10053000206003F0D9FF2368074AC01A106003F057
:10054000D3FF2368054A0649C01A002382E8090040
:100550000B6010BD58EBFF1F38E9FF1F48B4FF1FA9
:10056000D4D7FF1FC0B2054B012253F8303011B968
:1005700083F80021704783F880207047C8B20000DC
:100580000B4B1A68C0B24FF00043D3625063D36A7A
:10059000002BFCDA10B5074C936B20780121FFF794
:1005A000E1FF20780021BDE81040FFF7DBBF00BF6E
:1005B000CC11FF1F8E11FF1F30B5434B1C7883B049
:1005C000002C2BD0414B424A1B680193019B1360C6
:1005D000032821D8DFE800F0440255333D4A127861
:1005E000D2B93D480168994216D23C493C4D096850
:1005F0002C781944012C016054D0002C5AD1394C6C
:10060000217800295CD103F5FA73012203602A7076
:10061000354B187803F008FD03B030BD334B21464D
:10062000187803F001FD324B21461878FFF79AFF46
:100630002D4B2146187803F0F7FC03B030BD2C4B4E
:100640000121187803F036FF274B0021187803F0BA
:10065000EBFC264B8021187803F0E6FC03B030BD9C
:10066000224B0021187803F0DFFC214B0021187881
:10067000FFF778FF1C4B0021187803F0D5FC03B07E
:1006800030BD194B0021187803F0CEFC174B002128
:10069000187803F0C9FC164B01211878FFF762FFA8
:1006A00003B030BD0F4C2178FF2908D00131C9B209
:1006B0002170ADE70B4A022C1178A9D1A3E72A706B
:1006C0000139C9B22170A3E78D11FF1F58D5002051
:1006D000700F0020BC3DFF1FEC27FF1FC411FF1F40
:1006E0008F11FF1F60B4FF1F5011FF1FA411FF1FC8
:1006F0006511FF1F70B5174B1D78102D28DC164EA5
:100700006B1E334406F11004002101E0A3420AD01D
:1007100013F8012F012AF9D1981B401B82400A438C
:10072000A342D1B2F4D10D4B1A684FF00043D3620B
:100730005163D36A002BFCDA094C936B20780121BA
:10074000FFF710FF20780021BDE87040FFF70ABFD7
:100750000021E8E7C13EFF1F482CFF1FCC11FF1FFF
:100760008125FF1F074B197849B9074B074A1B78AA
:100770001170502B064B187802D0FFF7F3BE70476C
:1007800003F052BC2228FF1FD0D7FF1FA80D002066
:100790006027FF1F2DE9F843284C294E294D2A4F89
:1007A00004F111084FF0000914F8013F423B002109
:1007B000152B12D8DFE803F03A11111111111111A4
:1007C0001111111111110B11111111113A3A0021CE
:1007D000307803F029FC85F80090444506F10106C5
:1007E00005F1010507F10107DED1FFF783FF174B84
:1007F0001748184903F11004002203F8012FA342FF
:1008000000F8012F01F8012FF7D1134B134903F121
:100810000804002203F8012FA34241F8042F4FF0EF
:100820000000F7D10E4B1870BDE8F8833078FFF761
:1008300099FE85F8009087F80090CEE75311FF1FCE
:100840001411FF1FE4D20020482CFF1F432DFF1F6F
:100850008325FF1F532DFF1F5B0F0020C827FF1F9D
:1008600024D50020C0B2034B53F8303093F8000277
:10087000704700BFC8B20000FF2901D003F0D4BB0D
:100880004FF4807103F0D0BB0E4B197881B90E4B39
:100890001B786BB10D4B1A785AB119700C4B1B7841
:1008A000502B0C4B08D001F001011878FFF75ABE0D
:1008B000704701211970F1E74942C9B21878FFF772
:1008C000DBBF00BF2228FF1FF6D20020A80D0020AA
:1008D000D0D7FF1F6027FF1FF8B5594A594B155C49
:1008E0005B5D423B04460E46182B1CD8DFE803F044
:1008F0002B1B2B1B1B1B1B1B1B1B1B1B1B1B391B0A
:100900001B1B1B470D2B6A1B1F004F4B197800291F
:1009100040F083804D4B012E08BF3146585DFFF7F4
:1009200021FE4B4B5E554B4B1C446673F8BD0129B1
:100930000CBF494B494B195C4948FFF7A5FD454B96
:100940001C446673F8BD0129404B6BD0585D0021F3
:10095000FFF708FE3E4B00225A553E4B1C4466737F
:10096000F8BD012964D0394B0021585D03F05CFBD0
:10097000374B00225A55374B1C446673F8BD01298A
:100980000CBF354B354B1F5CFD2FCCD8354AC7EB20
:10099000C70313445A5D72B1232105EB850E32481B
:1009A000324B11FB07E101449F1811F8010F03F8C6
:1009B000010BBB42F9D1042DB5D8DFE805F029249D
:1009C0001F1A150001290CBF234B244B1A5C274B1F
:1009D00027485A70022519462A461D70FFF776FDF2
:1009E0001C4B1C446673F8BD20492248FFF76EFD7E
:1009F00099E71E492048FFF769FD94E71B491F4806
:100A0000FFF764FD8FE719491D48FFF75FFD8AE78F
:100A100016491C48FFF75AFD85E71B4B5E55FFF74B
:100A200069FE7EE7585DFFF79DFD094B59557AE752
:100A3000094A064B115C585DFFF71EFF71E700BFC6
:100A40004011FF1F5411FF1F2028FF1F1411FF1F0B
:100A5000E4D2002038D500206811FF1F2C11FF1FA1
:100A60001CD500200C0AFF1FA7B4FF1FDCD20020FA
:100A7000AC0D00203CE9FF1F2CD5002030E9FF1F02
:100A800028E9FF1F20E9FF1F482CFF1F264A274B9C
:100A900052F820201B682DE9F041254E254D46F8DF
:100AA00020300121044629548AB1134446F82030ED
:100AB0002149224A51F82400125D2149034441F89A
:100AC000243012B11F4B01221A55BDE8F0811E4A95
:100AD000155C002DECD11D4F1154FFF7FDFE37F8CA
:100AE0001430A3B1DFF8748098F8002012B90EE03A
:100AF00037F814302B41DB0704D5AC42E8B201D003
:100B0000FFF7C4FF98F800300135AB42F0DC104825
:100B1000104B01781A78104D56F8243022444E1CA0
:100B200006706A54C4E700BF803EFF1F5C27FF1FAA
:100B300064B4FF1F442DFF1F6427FF1F50B4FF1F25
:100B40005826FF1F542DFF1F8425FF1F60EBFF1F3A
:100B5000F5D200201311FF1FCC2CFF1F2611FF1F01
:100B60002DE9F04F904B1B7883B08246002B40F06C
:100B700017818E4B33F81AB0BBF1000F2FD08C4F7A
:100B80003B7893B38B4D8C4EDFF88C8200240AE0C7
:100B90002A7802B12B703B780134A34205F101059C
:100BA00006F101061BDD4BFA04F3DA07F3D53378BF
:100BB000002BEDD000235FFA84F9194648462B70CC
:100BC0003370FFF789FE7D4B98F800201B787C4935
:100BD0009944531C01F8029088F80030DBE7794B08
:100BE00033F81A50002D40F0AB80774C774D784F9A
:100BF000784EDFF8288200230AEB0A12019304F1F1
:100C0000110B1544994614F8013F423B182B22D88A
:100C1000DFE803F00D210D212121212121212121B6
:100C200021215D2121212165160D4F2147003378B7
:100C30008BB929783878003118BF0121FFF792FC71
:100C4000337843B9644B1B78002B71D02B7888F82C
:100C50000030012301935C4507F1010705F101050F
:100C600006F1010608F10108CDD1019B002B40F0EF
:100C700094805A4B13F80A303BB1013BDBB2584821
:100C80005849002240F82320CA54574B13F80A3021
:100C90005345564B14BF012200221A7003B0BDE821
:100CA000F08F297800293FD109F101095FFA89F90C
:100CB000D1E72B78002BF7D04FF0020E4C494D486E
:100CC0004B70724681F800E0FFF700FCECE73378E8
:100CD000002BC0D129783878FFF7CEFDBBE72B7801
:100CE000002BE1D04449C3EBC3020A4412F80920A7
:100CF00092B103EB8303C3EBC3014FF0050E3F48F2
:100D00003B4B1EFB0911014403EB020E11F8010FCE
:100D100003F8010B7345F9D1B9F1040FC4D8DFE82A
:100D200009F02D37322823003548FFF7ADFBBBE72C
:100D300029783878003118BF0121FFF713FC8AE7C2
:100D40001B4F3B78002B3FF450AF002404E03B786E
:100D50000134A3427FF749AF45FA04F3DB07F6D528
:100D6000E0B2FFF793FEF2E721492648FFF7AEFB1A
:100D70009AE71F492448FFF7A9FB95E71C49234838
:100D8000FFF7A4FB90E71A492148FFF79FFB8BE789
:100D900017492048FFF79AFB86E7FFF7ABFC68E7A7
:100DA0000130FFF7EDFBE4E62228FF1F4CE9FF1FAF
:100DB0002611FF1F442DFF1F8425FF1F26D500206D
:100DC000CC2CFF1FF8D200205311FF1F80EBFF1F18
:100DD0001411FF1FE4D200202028FF1F741CFF1FE6
:100DE000CC27FF1F5C0F0020ECD7FF1F24D500206D
:100DF000DCD20020AC0D00200C0AFF1FA7B4FF1F9F
:100E00001CD500203CE9FF1F2CD5002020E9FF1F46
:100E100030E9FF1F28E9FF1FF5D20020482CFF1FF3
:100E20002DE9F04383B08DE8030068466C46FFF778
:100E30001FFB78B900214D48FFF726FB02E0204652
:100E4000FFF73EFB2046FFF713FB0028F7D103B066
:100E5000BDE8F0836846FFF733FB454D4128287015
:100E6000E8D16846FFF704FB0328E3D901213F4896
:100E7000FFF70AFB04262046FFF722FB01463B480A
:100E8000FFF702FB013EF6D12046FFF719FB394F71
:100E9000014636483960FFF7F7FA3B6853B1204600
:100EA000FFF70EFB01463148FFF7EEFA3B680136CB
:100EB0009E42F4D32046FFF703FB01282870B9D1E6
:100EC000DFF8BC90DFF8BC802B4E14E0562801D030
:100ED00076280AD101462548FFF7D6FA2046FFF7C3
:100EE000EFFA01462148FFF7CFFA2046FFF7E8FA6C
:100EF000012828709ED11D480121FFF7C5FA204620
:100F0000FFF7DEFA452889F8000003D0DED8232851
:100F1000E0D0EAE701461548FFF7B6FA2046FFF7AA
:100F2000CFFA03460146114888F80030FFF7ACFAC3
:100F300098F80030002BD8D000272046FFF7C0FAE1
:100F40000346014609483370FFF79EFA32780B4991
:100F50002046FFF7C1FA327808490448FFF7B6FA8D
:100F600098F800300137BB42E7DCBEE7AC0D00204B
:100F70005827FF1F10D500209425FF1FA80C002024
:100F80005CEBFF1F8325FF1FF8B53E4E3E4C16F865
:100F9000012F00235D1CF2B1042B1CD8DFE803F005
:100FA0005D48331E03003948FFF762FAC0B2207073
:100FB00058B100273548FFF783FA01463448FFF758
:100FC00063FA23780137BB42F4DC2B4616F8012F75
:100FD0005D1C002AE0D1072DF7D1F8BD2D48FFF7A1
:100FE00047FAC0B220700028EFD000272948FFF749
:100FF00067FA01462648FFF747FA23780137BB42D4
:10100000F4DC2B46E2E72448FFF732FAC0B2207046
:101010000028DAD000272048FFF752FA01461C4882
:10102000FFF732FA23780137BB42F4DC2B46CDE7D9
:101030001A48FFF71DFAC0B220700028C5D000275B
:101040001648FFF73DFA01461148FFF71DFA2378CD
:101050000137BB42F4DC2B46B8E71148FFF708FA2A
:10106000C0B220700028B0D000270D48FFF728FA42
:1010700001460748FFF708FA23780137BB42F4DC42
:101080002B46A3E713D500209425FF1F3CE9FF1F43
:10109000AC0D00202CD5002030E9FF1F28E9FF1FF0
:1010A00020E9FF1FF8B5314F314C3B780025257002
:1010B000DBB1304E16F8013B552B12D12378042BAF
:1010C0000FD8DFE803F00949392919002A48FFF74A
:1010D000F7F92378013323702748FFF7C9F900286F
:1010E000F4D13B780135AB42E4DCF8BD2348FFF78F
:1010F000E7F92378013323702048FFF7B9F9002876
:10110000F4D13B780135AB42D4DCEEE71C48FFF765
:10111000D7F92378013323701948FFF7A9F900287C
:10112000F4D13B780135AB42C4DCDEE71548FFF76C
:10113000C7F92378013323701248FFF799F9002883
:10114000F4D13B780135AB42B4DCCEE70E48FFF773
:10115000B7F92378013323700B48FFF789F900288A
:10116000F4D13B780135AB42A4DCBEE78225FF1FFA
:101170005827FF1FB411FF1F20E9FF1F3CE9FF1F85
:101180002CD5002030E9FF1F28E9FF1F2DE9F04F83
:10119000B84FB94897F800B0B849B94AB94B7C780C
:1011A000BD78C0F800B089B0F87803940595069032
:1011B0000C7015701870BBF1000F00F03D84B2493F
:1011C000B24AB34B02914FF0000CB249B24DB34E4C
:1011D000B34CB448DFF8DC92DFF8D482CDF810B01D
:1011E000079301910093E646E2469346009B03F87D
:1011F00001EF5FFA8CF2009308F1740108F1FF33FC
:1012000003F8012F8B42FBD109F1FF3309F11001E3
:1012100003F801EF8B42FBD1029B2BF802AF23F8BE
:1012200002AF0293019B03F801AF019300F1100399
:1012300000F8012B9842FBD104F1100104F8012BB6
:101240008C42FBD106F1080006F8012B8642FBD147
:1012500005F1100405F8012BA542FBD106461846FE
:10126000049B0CF1010C634509F1110908F17508A3
:101270000C46BBD1D91C9B46079A8B4B394413F8BB
:10128000010F02F8010F9942F9D1DFF82CE2874EE5
:10129000BEF8000031880025AC46A8460BF10403D7
:1012A0004FF07509FC5C5A1C92B2002C00F0C2830E
:1012B0007F49002509FB081C511C89B2B85C795C88
:1012C0000CF8001001350232A54289B280B292B208
:1012D000F2D103EB4403013301259BB2AC4608F184
:1012E0000108C345DEDCBCF1000F40F0BA8305B154
:1012F0003180DFF8C881BEF8000088F800403188EE
:101300000024A446A146FD5C5A1C92B2002D00F0B8
:101310008F83684909EB091C8C440024511C89B255
:10132000B85C795C0CF8001001340232AC4289B22E
:1013300080B292B2F2D103EB4503013301249BB298
:10134000A44609F10109CB45DDDCBCF1000F40F0FA
:101350008E8304B131804FF0000CBEF8000031885C
:1013600088F80050E1466546FC5C5A1C92B2002C9D
:1013700000F058834B49002501EB091C511C89B230
:10138000B85C795C0CF8001001350232A54289B2D4
:1013900080B292B2F2D103EB440301334FF0010C5F
:1013A0009BB2654609F10109CB45DDDC002D40F01B
:1013B0005B83BCF1000F00D031800025BEF8000037
:1013C000318888F80040AC46A946FC5C5A1C92B2B1
:1013D000002C00F025833249002501EB091C511C2B
:1013E00089B2B85C795C0CF8001001350232A54274
:1013F00089B280B292B2F2D103EB440301330125EA
:101400009BB2AC4609F10109CB45DEDCBCF1000F13
:1014100040F0338305B131800025BEF800003188EB
:1014200088F80040AC46A946FC5C5A1C92B2002CDD
:1014300000F0F4821949002501EBC90C511C89B256
:10144000B85C795C0CF8001001350232AC4289B20C
:1014500080B292B2F2D103EB4403013301259BB277
:10146000AC4609F10109CB45DEDCBCF1000F40F0D0
:10147000018325E0780F0020CCD7FF1F2611FF1F26
:101480007811FF1F9D11FF1F4AE9FF1FF6D20020B0
:10149000EBD7FF1F731CFF1F94FCFF1F781DFF1F5E
:1014A000682DFF1F00D9FF1F7B0F0020760F002043
:1014B000D03EFF1F80EBFF1FAA0D0020E8D7FF1FC3
:1014C00005B131804FF0000CBEF80000318888F87B
:1014D0000040E1466446FD5C5A1C92B2002D00F0CB
:1014E0009B829E49002401EB091C511C89B2B85C07
:1014F000795C0CF8001001340232A54289B280B246
:1015000092B2F2D103EB450301334FF0010C9BB2D1
:10151000644609F10109CB45DDDC002C40F09A82DC
:10152000BCF1000F00D031805A1C92B29E1C88F88A
:1015300000501046B6B21946039C002C56D0039AB0
:101540008749013A4C1E881819467D5C04F8015FF2
:101550000131844289B2F8D192B2134498B2039B0C
:10156000411C01330132034489B27E4894B29BB2DC
:101570000A46551CBA5C00F8012FAAB29342F8D172
:101580002144794A89B20023785C02F8010F03985C
:1015900001330131984289B2F6DC00237348744A62
:1015A0001E4601257C5C00F8014F012C039C88BF7E
:1015B000157003F1010398BF167001319C4289B286
:1015C00002F10102EEDC6B48002200E01946039CA8
:1015D0007B5C00F8013F01324B1C94429BB2F5DC6E
:1015E0008A1C92B203318EB210461946059C94B102
:1015F00061480022991889B20132795C00F8011F14
:1016000005999142F6D10B449BB25A1C92B29E1C92
:101610001046B6B21946069C3CB30699574A481E76
:10162000541E11181A46BD5C04F8015F0132A14234
:1016300092B2F8D180B203440699514C9BB2013169
:101640005A1C01300B4492B281B29BB21046451C29
:10165000385C04F8010FA8B28342F8D10A4491B271
:101660004A1C92B28E1C1046B6B27D5C88F80050BF
:10167000C5B1444E114600234C1CA4B2785C3C5DBD
:10168000345401330231AB42A4B280B289B2F3D1F7
:1016900002EB430292B23C493C4B0880561CB6B266
:1016A00010461C80BBF1000F00F0CE81384C394B46
:1016B0000BF10045013D511C04EB450589B2023C8C
:1016C000481E80B27E5C385C18705E70188824F802
:1016D000020F0231AC4289B2F2D10BF1FF31490065
:1016E00089B20A4492B2961C02EB4B040231B6B2A4
:1016F000023429488DB2A4B23246511C89B217F87F
:1017000002E0795C5970023283F800E092B21988E5
:1017100020F8021FA242F0D10399AA1992B2C9B1CE
:1017200003991E4D02EB410189B21446601C80B240
:101730003E5D385C587002341E70A4B2188825F8DB
:10174000020F8C42F2D1039902EB410292B2BBF13B
:10175000000F47D0124E9646002524E094FCFF1F50
:101760004011FF1F6711FF1F2B11FF1FFBD400202B
:1017700050B4FF1F0FE9FF1FAB11FF1F7C11FF1FAC
:10178000EF27FF1F741CFF1FAA0D0020760F0020FB
:10179000F8D20020780E00204AE9FF1F5EEBFF1F01
:1017A0004028FF1F9646541C901CD11CA4B280B246
:1017B00089B217F804C03C5C785CB95C83F801C05E
:1017C0009C70D870197001350432196846F8041FEE
:1017D000AB4592B2E6DC03990EF10506B6B21046AF
:1017E000002956D0A64D114600264C1C881CCA1C48
:1017F000A4B280B292B217F804E03C5CB85C7A5CA8
:1018000083F801E09C70D8701A701A6845F8042FAC
:10181000039A01360431B24289B2E6DC994E0025C2
:101820004C1C881CCA1CA4B280B292B217F804E007
:101830003C5CB85C7A5C83F801E09C70D8701A70EC
:101840001A6846F8042F039A01350431AA4289B276
:10185000E6DC8D4D002400E011464E1C881CCA1C9D
:10186000B6B280B292B217F806E03E5CB85C7A5C21
:10187000D87083F801E09E701A7003981A6845F8D2
:10188000042F01340A1DA04292B2E5DC05318EB26C
:101890001046059B3BB3059B7C4E02EB83007C4BC3
:1018A00080B2114601F1010E8D1CCC1C1FFA8EFE78
:1018B000ADB2A4B217F80EC017F805E03D5D7C5C30
:1018C00083F801C0043183F802E0DD701C7089B236
:1018D0001C6846F8044F8842E4D1059B02EB830262
:1018E00090B2461CB6B26B4A3B5C1680002B00F0EF
:1018F0008E80694BDFF8B4A193F800B0674B93F882
:1019000000E0674B93F80090664B002293F800804C
:1019100001925C461046009213460125B34617F823
:101920000B100BF101064C29B6B257D1C3B9DFF841
:101930007CC15D489E465FFA8EF46246002303EB4D
:1019400083010133062B02F8015B4454F7D10EF1F9
:10195000010EBEF5807F0CF1070C00F12300EAD1E7
:101960000BF102039BB20BF1030B17F803E0BC5D14
:101970001FFA8BF6BEF1000F56D004EB840B4FF02C
:10198000000CA04617F80690721C92B2C9EBC9036E
:101990005344BC5C03F80840B31C9BB2002C39D004
:1019A000232212FB09B24049013A18190A4480B2B5
:1019B000591CFB5C02F8013F8BB28342F8D12644EC
:1019C0000236B6B20CF1010CF445DBD101222346FC
:1019D000104644460192984600921346B95D01367E
:1019E0001FFA86FB00299AD12A4B5E461E80009B77
:1019F000A34693BB019B13B12A4B83F8008010B11F
:101A0000254B83F800B012B1244B83F800E009B0F5
:101A1000BDE8F08F1E46D5E713467AE5134620E56C
:101A20001346EFE41346BDE4012210461346D5E702
:101A3000134686E4134652E404210520DFF8708043
:101A40000B460246062677E5039B002B3FF421AFA9
:101A50000F4B65E6AEF8000062E5114B83F800908D
:101A6000C8E7AEF8000042E4AEF80000A1E4AEF82A
:101A700000006EE4AEF8000022E5AEF80000C9E414
:101A80006027FF1F7C3EFF1F783DFF1FFC27FF1FC5
:101A9000780E0020E0D7FF1F5827FF1F8325FF1F68
:101AA0009425FF1F9525FF1FA8B4FF1F0C0AFF1FD9
:101AB000E8D7FF1F2DE9F8433F4C237843B13F4B54
:101AC0001978002972D13E48FEF7DEFC002323700E
:101AD0000320FEF771FD3B483B49DFF840E13B4FF7
:101AE0003B4E3C4D3C4C3D4B002202700A60FF20B7
:101AF0003B4928702070CEF800203A60327003F124
:101B0000080003F8012F834241F8042FF9D1354B27
:101B10001B780C2B2CDC344A344F354E354C36496F
:101B2000DFF8FCE0581E151802F10C0807441E44AB
:101B30001C4419440EEB03024FF000090EE0137829
:101B400023700B70454507F8019F06F1010604F16B
:101B5000010401F1010102F1010209D015F8013F70
:101B6000012BECD13078FEF77DFE20700870E9E79C
:101B7000224B002103F1100203F8011F93424FF0A2
:101B80000004F9D1FFF78EFA1D4D1E4B1E4F1F4862
:101B90001F49204A204E2C601C60FE2501233C700A
:101BA00005700B7013703460BDE8F88301210448A0
:101BB000FEF76AFC8AE700BFC72CFF1FA6B4FF1F11
:101BC000AC0D00204EEBFF1F2811FF1FDCD7FF1FBD
:101BD0000CD50020A4B4FF1FA5B4FF1F5B0F00208D
:101BE000C827FF1F8225FF1FCCD200202428FF1FFB
:101BF0009011FF1F38D500203C0F002044D5002055
:101C000050EBFF1F5C27FF1FF5D20020CC2CFF1FDD
:101C100091FCFF1F640F002048E9FF1FC811FF1F40
:101C2000A427FF1F70B5164D2B782BB3154C2378C6
:101C30008BB9154C23784BB970BDFFF7A7FA134B3E
:101C40001A78002AF5D0104C1E702570FFF732FF6D
:101C50000023237070BD0E4B0E491A880E48FEF704
:101C60003BFC2E780D4A0125002315702370002EB1
:101C7000E3D00B4B1D70DCE7FFF786F9D6E700BF1A
:101C800091FCFF1F5DEBFF1F642DFF1FC827FF1F87
:101C9000422DFF1F780F0020AC0D0020A6B4FF1FBF
:101CA000D9D200202DE9F04F93B002F01DFC9B4AE1
:101CB0009B4B12689B49801A186018680A6890420A
:101CC00003D29948026801320260984C1A6823785E
:101CD0000A6063B9964E974D33680F930F9B2A683D
:101CE0009B1A642B00F25C850120FEF765FC924B89
:101CF0001B7823B1914B1B78002B40F0C182904D93
:101D00002B7833B18F4A13680133642B136000F2D0
:101D100051858D48FEF7ACFB20B18C4E3378002BFB
:101D200000F0EA818A4B03938A4B02938A48FEF7BC
:101D30009FFB002859D1039B1B78002B5FD1029B8E
:101D40001B78002B00F0D681844B854A1B780692C5
:101D5000002B40F01085FEF705FDFEF7C5FB814E18
:101D6000814C824DC6E90001FEF714FD804B764898
:101D7000FF229A70012219461A705A700322FEF748
:101D8000A5FB069B7B481B680360D6E900232168FE
:101D90004160C0E90223014610226B48FEF796FB22
:101DA000029A2B7800261670002B40F074860020D3
:101DB000FEF702FC0220FEF7FFFB6F4B1A7872B1B0
:101DC0006E4A127800211970002A00F060865B4B81
:101DD0001B78002B40F05B86574A01231370236861
:101DE0000133236013B0BDE8F08F5B48FEF768FB5A
:101DF000039A634B12781870002A00F0C984614A74
:101E00001378012B00F06485554B069319685E4AE0
:101E100018465E4B12781B68013101605B49013343
:101E20000C2A0B6016DC5A495A4E5B4D5B4C114430
:101E300002E001320D2A0DD011F8013F002BF8D03D
:101E4000935D002BF5D1A85CFEF70CFDA054013288
:101E50000D2AF1D1524B534D1F78534B1B78002F55
:101E600001F06B81514A5249D2F800E0514C52487E
:101E70000992049191F80080504A51490594DFF885
:101E80001CC11F4400EB0E104FF00009A24606E0F3
:101E90000133BB4201F1010102F1010218D010F837
:101EA000014B7445F4D00E7814781CF80660A642F5
:101EB000EED10AF80830013308F10104BB424FF0BB
:101EC00001095FFA84F801F1010102F10102E6D192
:101ED000B9F1000F41F0C181DFF8F4B0314A9BF84D
:101EE0000090B9F10C0F4FF0690300F3FD85049FDA
:101EF000274E3F78334C34482849344A07974FEAF5
:101F0000490E4E4400274C44484449444A44CEF1CB
:101F1000830E0897CDF82890019667E058EBFF1FD5
:101F200044E9FF1F38E9FF1FD4D7FF1FBC3DFF1F47
:101F300058D50020FCD8FF1F2128FF1FA6B4FF1F83
:101F4000C03EFF1F3C2DFF1FAC0D00205DEBFF1FAF
:101F500091FCFF1F0CD500201CD50020FBD8FF1FD3
:101F60005C27FF1FC83EFF1F48E9FF1FD9D2002092
:101F7000DCD20020B827FF1FC827FF1FC72CFF1F78
:101F8000A5B4FF1F640F00208225FF1FE4D7FF1FA9
:101F9000CBD200202428FF1F9011FF1F38D500202E
:101FA0009D11FF1F34D50020412DFF1F2811FF1F59
:101FB000F5D20020CC2CFF1F94FCFF1FF027FF1F41
:101FC0007C11FF1F3C0F0020A427FF1F3428FF1F98
:101FD000402DFF1F0233734504F1010400F101009D
:101FE00001F1010102F1010200F06781019E16F882
:101FF000017F0196012FEDD191F800C092F8008089
:10200000C44500F0418190F80090CC45E2D127789A
:102010004745DFD1079E84F800C006F1010C059EFC
:10202000B046079E5F1C08F80670012608965FFA06
:102030008CF60796CEE70B9B002E41F02281079984
:1020400011B3C84D9DF81C40C7492846561E00F8DC
:10205000014F059C264411F8014F00F8014FB14291
:10206000F9D11544C3F30721E970C3F30741BF4C0D
:102070002971190E69710632BA49BD482360AB70E7
:10208000FEF724FA099B1C68049AD9F80000059908
:10209000B84D00231370A0424FF0FE020A7000F00A
:1020A000FF84B54A1268904200F0FD84B34E337845
:1020B000012B00F01285B24A069B12781B68CAF801
:1020C0000030B04B002A40F09E83099A1C701060CB
:1020D000C0B2FEF745FD3378022B7FF430AEAA4B39
:1020E0001B68B3F57A7F00F0EE84029B1B78002B0F
:1020F00040F04183A54C72E69D48FEF7E1F9A44A01
:10210000A0F1240310705A2B3FF60CAE01A252F836
:1021100023F000BFF52A00000B2B0000251D000056
:10212000251D0000251D0000251D0000292B000095
:10213000251D0000251D0000251D0000251D000097
:10214000251D0000251D0000251D0000251D000087
:10215000251D0000251D0000251D0000472B000047
:10216000251D0000251D0000251D0000D72E0000A4
:10217000251D0000251D0000251D0000FD2E00006E
:10218000251D0000251D0000251D0000251D000047
:102190002D2F0000251D0000992F0000592E000052
:1021A0007B2A0000AB2D0000212E0000B52B000083
:1021B000212A0000212D000037280000251D0000E5
:1021C000EB2B0000251D0000251D0000BB3000008A
:1021D000912C0000AF2F00005D300000CD300000DA
:1021E000251D000003310000251D0000752E000094
:1021F000251D0000251D0000251D0000251D0000D7
:10220000251D0000251D0000251D0000251D0000C6
:10221000251D0000251D0000251D0000B52E000015
:10222000251D0000251D0000251D0000251D0000A6
:10223000251D0000251D0000251D0000251D000096
:10224000251D0000251D0000251D0000251D000086
:10225000251D0000251D0000251D0000CF2E0000BB
:10226000251D0000251D0000251D0000251D000066
:10227000C92E0000251D0000251D00006D2C00004A
:10228000444A002313703AE594F800A090F80090B7
:10229000CA457FF4BAAE079E84F800C006F1010873
:1022A000059EB146079ED44509F806305FFA88F6C8
:1022B00007963FF4AFAE08978CE6089BDDF82890B0
:1022C000002B40F0C387344C002323702B60B9F1FE
:1022D000000F00F08780DFF8D080304FDFF8CCA00F
:1022E0000026234607F101094446B0461E460EE08B
:1022F0005A2B5DD0552B26D02B6817F801EF9BF891
:10230000000008F10108734440452B606ADD14F8B1
:10231000013F582BECD19AF80030214A19F80330CC
:1023200010788342E8D9049A2B6892F800E0059966
:102330000EF1010C184482F800C0194A01F80E0091
:10234000FF201070D9E7174B1B78002BD4D03378BF
:10235000042BD1D8DFE813F01C030C03FC02EC02C1
:10236000E10200BF5C2CFF1FCB2CFF1F780E00206A
:10237000AC0D0020C811FF1FCCD7FF1FFBD8FF1FDB
:10238000C82CFF1F4EEBFF1FE4D7FF1F48E9FF1FBC
:102390005CEBFF1F2128FF1F5827FF1F332DFF1F56
:1023A000A4B4FF1F783DFF1FB311FF1F3128FF1F8B
:1023B0009AF80030AF484B4490F800E05B787345E2
:1023C0009AD904992B6891F800C0059A9E4402F8A6
:1023D0000CE00CF1010C4FF0FF0E81F800C080F80A
:1023E00000E08AE7DFF8E0B2A34A9BF800301278F9
:1023F0002A60002B00F0A986069BDFF8D0821B68BC
:10240000DFF8CCA29D4EDFF8CC929D4F00241946F8
:1024100017E09C4B53F8240088424FEA840355D9B7
:102420002B689BF8000001340133A0422B600AF1B5
:10243000010A06F1010609F1010907F1010740F35C
:10244000968018F8013F002BE3D13378002BE7D0BA
:102450008D4B53F824308B42E2D83B78012188F829
:10246000001013B199F8003033B1049A059813782D
:102470002968C15401331370844B33F81400610090
:10248000E0B19BF80030CBB10023019607972646B8
:102490000F461C46034601E07C4BDB5B2341DB0718
:1024A00004D5A642E0B201D0FEF7F0FA9BF8003066
:1024B0000134A342F0DC3446079F019E0121E0B2C3
:1024C000FEF70AFA069A2B681168AAE70021E0B223
:1024D0000193FEF701FA38780021317088F8001076
:1024E000002835D09AF80030079398422CD9019BE8
:1024F0006749069A5858DFF8E0E11168624A53F8D4
:102500000EE099F800C0084498505E4A86440120C5
:1025100043F802E030702B68BCF1000F0AD0049A37
:10252000059892F800C003F1100E00F80CE00CF1D1
:10253000010010705748005D00283FF472AF079803
:1025400001308AF800006CE799F80030002BB9D010
:10255000049A2B6892F800C00598069903F1100EB2
:1025600000F80CE00CF101000968107059E70B4607
:1025700049494A4A91F8009012780892049AB9F1B0
:10258000000F00F0A78292F80080CDF81C80002296
:102590000A93DFF848C1DFF848E1414EDFF844A173
:1025A00001924346DDF8148017461CF8010FFD2800
:1025B00012D834685AF82720944200F0B4805BB1F6
:1025C00003F1FF3B374AC34412F8011F814204BFA5
:1025D000013434605A45F7D101374F450EF1010EF1
:1025E00006F10406E1D1019A98460A9B002A40F0C0
:1025F0004C86099ADFF8F0A014682B49DAF800201D
:1026000051F82410294E2A4836780C969A1A8A4294
:1026100002602E6004D3274A1278002A40F0FD8021
:10262000079A642A03D90499642207920A70DFF892
:10263000BC802148214F224EDFF8B4900E4D97F810
:1026400000B096F800E02D78C9F800404FEA041C6D
:1026500008EB0C010D9100EB0C010A9119490B9349
:10266000752707FB041700263046A04605990197F9
:1026700049E000BFA5B4FF1F1311FF1F442DFF1F2A
:10268000FCD400205826FF1F64B4FF1F60EBFF1F1F
:102690007C3DFF1F50B4FF1F7811FF1F45B4FF1F83
:1026A000CC27FF1FCB2CFF1F4428FF1FD8D7FF1FAD
:1026B000C43EFF1F24D50020682DFF1F412DFF1FA2
:1026C00026D50020D03EFF1F2611FF1F8325FF1FA8
:1026D000542DFF1F10E9FF1F6427FF1FAB11FF1FC1
:1026E0005C0F00200028FF1F50EBFF1F94FCFF1F12
:1026F000C811FF1F019E16F803800126444500F112
:1027000001007FF498AC9042BFF695AC0B5CAB42F5
:10271000F0D373451AD2AD4E5B1B06EB0C080126B5
:1027200018F80380EAE79EF80020002A7FF447AFFC
:10273000089A3A4408F80320591C4FF00102CBB222
:102740008EF8002001220793019238E7089F9F42EC
:1027500006D9CEEB03030A9F012617F80380CDE7C5
:102760005B450CD29A4E089F06EBC408DB1B012682
:1027700018F80380C2E7FEF787F8FFF7EEBA0C9F60
:102780009F4239D8BAD1934B012613F80480B5E79C
:10279000FF221A70029B1B78002B7FF4D5AAA9E4B4
:1027A000DE218D48FDF770FE33681093109B2B607F
:1027B000FFF79ABA894B002693E8030001222E7096
:1027C000FEF72EFB864B022293E80300FEF728FB60
:1027D000844B032293E80300FEF722FB824B042282
:1027E00093E80300FEF71CFB804B052293E80300EF
:1027F000FEF716FBFFF78DBACBEB03030D9F012607
:1028000017F803807AE7FF287FF45FAC784A0999CC
:10281000187808601C7014605AE4059807990546FA
:102820000A4601326E540499D2B207920A70F7E652
:102830006A48FDF745FE6948FDF71AFE0028F7D102
:1028400002E06748FDF73CFE6548FDF711FE0028F1
:10285000F7D102E06348FDF733FE6248FDF708FE5A
:102860000028F7D102E06048FDF72AFE5E48FDF738
:10287000FFFD0028F7D102E05C48FDF721FE5B4830
:10288000FDF7F6FD0028F7D15A4B5B490393044648
:102890005A4B524802930222FDF718FE0222564973
:1028A0004F48FDF713FE022253494E48FDF70EFE36
:1028B000022251494C48FDF709FE02224E494B487D
:1028C000FDF704FE4E4A012314602B70FFF72EBA69
:1028D00000244FF496731470013BFDD1494A1388CC
:1028E00001331380FDF700FE474B484A06460F466A
:1028F00039481946C2E900670822C3E90067FDF7B5
:10290000E5FDFDF7C1FF424A424B10781C60FEF71F
:1029100027F9414B1C70FFF712BA3448FDF7A8FDA8
:10292000002840F0FE832B68307801303070E4E4FA
:102930002D48FDF79DFD0028F5D02B48FDF7C0FD83
:1029400099F80330354A834210702B682FD2EBE799
:102950002448FDF78DFD0028E5D02248FDF7B0FDA5
:1029600099F802302D4A834210702B681FD2DBE7A2
:102970001B48FDF77DFD0028D5D01948FDF7A0FDC7
:1029800099F80130254A834210702B680FD2CBE7AB
:102990001248FDF76DFD0028C5D01048FDF790FDE9
:1029A00099F800301D4A834210702B68BCD30499FB
:1029B000059A91F800E003F1FF3C604402F80E0034
:1029C0000EF1010E81F800E0AEE700BF00D9FF1F55
:1029D000781DFF1FECD7FF1FAC0D002020E9FF1F63
:1029E00028E9FF1F30E9FF1F2CD500203CE9FF1F1D
:1029F000A011FF1F91FCFF1FA811FF1F0CD5002085
:102A00003C2DFF1F92FCFF1FB827FF1FF0D8FF1FB0
:102A10002811FF1FE4D7FF1F302DFF1F8325FF1F45
:102A2000A548A64DA64EFDF74BFD2870A248FDF720
:102A300047FDA44B30701B78FBB9A34C2B78227850
:102A400093421AD0FF2B00F00D84102B14D8FF2ACC
:102A500000F013849D49885C59289D4804BF05787F
:102A60008D549C4E9C4DF65C2E709C4ACD5C05703E
:102A70005926CE540121117023708F480121984BA3
:102A80000393984B0293FDF7FFFCFFF74FB9FFF755
:102A900011F8FFF7A4B9FEF779FB2E70FFF787B99D
:102AA000874EFFF718BB864A03990B70137802997B
:102AB0000122022B0A707FF44BA98B4B1B68B3F5E4
:102AC0007A7F7FF458AEFDF7DFFE874A002313605C
:102AD000FFF735B9127807928BE5FDF7D5FE099B14
:102AE00028681C68FFF7E7BA804C00232370136046
:102AF000FFF7F1BB7A4B03931C466F48794B029367
:102B0000FDF7DEFC2070FFF711B9754B0393072228
:102B1000744B774968480293FDF7DEFC0121664853
:102B2000FDF7B2FCFFF702B9FDF7FEFC6C4A714BF2
:102B300003926C4A02926048002201211A80FDF73C
:102B4000A3FCFFF7F3B8012502202570FDF734FD43
:102B500035215948FDF798FC674B013BFDD156489C
:102B6000664FFDF789FCFDF7DFFC65480026F4B2EF
:102B70003A46002303EB83010133062B02F8015B85
:102B80004454F7D10136B6F5807F07F1070700F10D
:102B90002300ECD15B49554B087851491B785A4AC0
:102BA00003915049029100240121D45401F082FC88
:102BB000FFF7BCB84D4C4A4A2378534D0392494A1B
:102BC00002920022EA54FEF76DFA3B48FDF778FCCA
:102BD00020703948FDF774FC22784C4B011C18BF5B
:102BE0000121A9541870FFF7A1B83348484C494D4A
:102BF000FDF766FC20703048FDF762FC2378334A0D
:102C0000D25C81B2423A2980152A3FF68BA801A6F0
:102C100056F822F019320000251D0000193200007C
:102C2000251D0000251D0000251D0000251D00009C
:102C3000251D0000251D0000251D0000251D00008C
:102C4000251D0000251D0000251D0000F731000096
:102C5000251D0000251D0000251D0000251D00006C
:102C6000251D000053310000193200001C4B124892
:102C700003931C46FDF724FC274B22781870002A8A
:102C800040F08681FF221A70164B0293FFF74EB870
:102C9000134B03930848134B0293FDF711FC1F4C91
:102CA000022120700448FDF7EFFB21780248FDF770
:102CB000EBFBFFF73BB800BFAC0D0020E0D20020DB
:102CC000FBD8FF1F2228FF1FAA11FF1F5411FF1F4F
:102CD000D0D7FF1F1411FF1F6027FF1FF6D200205F
:102CE00091FCFF1F0CD50020E4D7FF1F5827FF1FC2
:102CF000342DFF1F92FCFF1F808D5B000C0AFF1F0D
:102D0000A8B4FF1F2511FF1F14D500208325FF1F26
:102D100025D50020F8D8FF1FA4B4FF1FD1D7FF1F6F
:102D2000AE48AF4CDFF8EC92FDF7CAFB2070AB4821
:102D3000FDF7C6FB89F8000000283FF49EAEA94DC0
:102D4000A94F0026A548FDF7BBFB2870A348FDF757
:102D5000B7FB95F80080A54A94F800B03870C8EB2E
:102D6000C803134403F80B00C8B14FF0000A03E096
:102D700095F8008094F800B0984808EB8808FDF7B3
:102D80009FFBC8EBC8089A4A0BEB8B0343441344E0
:102D90003A7803F80A000AF1010A5245E8DC99F88A
:102DA00000300136B342CDDC67E64FF480718B48CA
:102DB000904C914EFDF76AFB904B88481988FDF7BF
:102DC00065FB69218548FDF75FFB05218348FDF719
:102DD0005BFB10218148FDF757FB08217F48FDF779
:102DE00053FB10217D48FDF74FFB0D217B48FDF77C
:102DF0004BFB0D2282497948FDF768FB112177488A
:102E0000FDF742FB04F1110514F8011F734859291D
:102E100008BF3178FDF738FBAC42F5D1FEF782BF31
:102E2000784B03936D48784B0293FDF749FB6C4C4C
:102E3000764B2070185CFDF715FD23787449754AB0
:102E4000CB5C1B1AB3FA83F35B0919466348137012
:102E5000FDF71AFBFEF76ABF6A4B039317216A4B13
:102E60005E480293FDF712FB03215C48FDF70EFB61
:102E7000FEF75CBF5A4B6349674A1B78039162496E
:102E8000029100255548D55431212570FDF7FCFAF3
:102E9000624B63491B681193624A119B0B60284681
:102EA0001360FDF789FB604B2946187801F002FB9F
:102EB000FEF73CBF534B03930821534B4748029303
:102EC000FDF7E4FAFEF732BFDE215848D7E5584B4C
:102ED00042481978D3E54148FDF7F2FA554B0028EE
:102EE00014BF012200221A7000F0D4812378012B34
:102EF0000CBF02200120FDF75FFBBEE53B4F3C48C5
:102F000000260125F4B23A46002303EB8301013386
:102F1000062B02F8015B4454F7D10136B6F5807FE9
:102F200007F1070700F12300ECD1A6E5424C434B23
:102F3000DFF824812948424F21464FF0000904223E
:102F400001251D7088F80090FDF7C6FA2178A37856
:102F50002370E27863786270B1EB09012288394806
:102F6000394C18BF0121B3EB090318BF0123397095
:102F70004CF24F3103708A42224B2280039307D8D0
:102F80001C78002C00F09981304B3570A3F800902C
:102F90001D4B0293FEF7CABE2D4C04F10D050F48E0
:102FA000FDF78EFA04F8010BA542F8D165E50B4850
:102FB0000B4D284CFDF784FA431E08482B70FDF793
:102FC0007DFA2B7820600246042B3EF6ABAEDFE89C
:102FD00013F0EC00DD00FB00CE006501AC0D00201D
:102FE0005827FF1F9425FF1F9525FF1F0C0AFF1F61
:102FF000A8B4FF1F5311FF1FD0D7FF1F3C11FF1FA5
:10300000B411FF1F91FCFF1F0CD500209011FF1F72
:103010003428FF1F8325FF1F14D5002058D500201A
:10302000FCD8FF1FEC27FF1F2511FF1F1CD5002018
:10303000C8D200208D11FF1F780E0020C72CFF1F63
:10304000C827FF1FC82CFF1F422DFF1F28D50020B7
:10305000CCD2002010D50020A6B4FF1FA748A84C52
:10306000A84DFDF72DFA431EA4482370FDF728FA5A
:10307000A54A23781070C0EBC0022A44A349D25C51
:103080000A7082B100EB8000A14CA249C0EBC000E5
:10309000052515FB030020448C1810F8015F01F88A
:1030A000015BA142F9D1042B3EF63CAEDFE813F000
:1030B0006C016901660122011801974A974B03923E
:1030C000974A029201221A70FEF730BE924B8B484B
:1030D00003931D46FDF7F4F9924C20708748FDF7E5
:1030E000EFF9914A2B781070002B3FF451AF237801
:1030F0008E498F4AC8540121D154894B0293FEF75F
:1031000015BE874B02931A46834B0393194600243E
:10311000012313700C70FDF73DFB864B1C70FEF70E
:1031200005BE8548FDF7CCF999F80430764A83420C
:1031300010702B68FFF4F8AB39E4804B0993804B97
:103140000493804B0593FEF7C7BE069B1B68FFF7F1
:103150000FBA7D4A1278002A45D07C4AD054FDF738
:10316000C9FA23787A4A2988D154FEF7DBBD6A4B25
:10317000039378496A4B61480293FDF7ADF92268E1
:1031800074497548FDF7A2F9FEF7D0BD624B039371
:103190007049634B59480293FDF79EF922686D49C7
:1031A0006E48FDF793F9FEF7C1BD5B4B0393694988
:1031B0005B4B52480293FDF78FF9226865496848D6
:1031C000FDF784F9FEF7B2BD534B03936149544BAD
:1031D0004A480293FDF780F922685E496148FDF78D
:1031E00075F9FEF7A3BD604A003118BF0121D05C1C
:1031F000FDF7B8F9B5E75C4A0146D05CFDF73CFB4A
:103200002B88D3B144492378514A03914449029110
:103210000121D154FEF78ABD534A3F480390003143
:10322000D05C3F4B029318BF0121FDF79BF9237837
:10323000474A2988D154FEF779BD22784449364857
:103240008B54374B03900293FEF770BD049B1A46D4
:103250009DF81C301370FFF736B8049B83F800808C
:10326000FEF73ABE102A03D84048414900788854F6
:10327000404A00211170FFF7FFBB3C483C49FFF773
:10328000F0BBC9F80080FEF7DABE049A82F800802D
:10329000FFF7AFB9FDF790F9FFF7EFBB1E4B0393B4
:1032A0002C491F4B15480293FDF716F9226829494E
:1032B0002148FDF70BF9FEF739BD2F490F48FDF7FF
:1032C0000BF988F80050FDF761FF3B78002B3FF4C5
:1032D0005FAE124B3C701D70114B0293FEF726BD82
:1032E0000C4915480C4B03930D4B0293FDF7EEF878
:1032F000FEF71CBD07491848F4E700BFAC0D0020DD
:103300005827FF1F0C0AFF1F8325FF1F9425FF1F4F
:10331000A7B4FF1FDCD2002091FCFF1F642DFF1F0C
:103320000CD50020B40D0020D1D7FF1F38D50020C8
:103330002428FF1FFAD8FF1F3CE9FF1F2811FF1F99
:10334000F5D20020CC2CFF1F2028FF1F482CFF1F88
:10335000E4D20020A80C00202CD5002028E9FF1F73
:1033600020E9FF1F30E9FF1F1411FF1FD0D7FF1FF7
:103370005411FF1FF6D20020780F002004490548A1
:10338000B0E703490448ADE701490448AAE700BF94
:10339000DCD2002030E9FF1F28E9FF1F20E9FF1FD2
:1033A000F8B51E491E481F4E1F4D204C204FFDF7FB
:1033B0005DF820492048FDF759F820492048FDF7DD
:1033C00055F820492048FDF751F820492048FDF7DD
:1033D0004DF820492048FDF749F820492048FDF7DD
:1033E00045F8204B20481B78204A214903F1100E54
:1033F00086F800E003F120062E7003F12805057021
:1034000038330026802520463B702660257106F063
:1034100047FD01F069F8174B1860F8BDFC12FF1F5B
:10342000AC0D002026D5002045B4FF1F680F0020FA
:10343000D8D7FF1F0C13FF1F1CD500208012FF1FC1
:1034400020E9FF1FA812FF1F28E9FF1F9412FF1F8A
:1034500030E9FF1FBC12FF1F2CD50020D012FF1F28
:103460003CE9FF1F1311FF1F412DFF1F000AFF1F23
:10347000DD04000058EBFF1F2DE9F04FA84AA949D1
:103480001678A94AA94B1078A94ADFF808B317782B
:10349000A84A9BF8005092F800E000220A70A64962
:1034A0001A700A70A549A64B0A70A64914460A70FC
:1034B0009246A54994469046914601221A702346A9
:1034C0000A70044685B07046A0499E460CE0422A28
:1034D00000F0B780572A40F0BB8016B9DEB24FF03B
:1034E000010C01330D2B0AD05A5C582AEFD1002C65
:1034F000F7D1DCB201330D2B4FF0010EF4D173463E
:10350000864620461C46B9F1000F40F0B480B8F161
:10351000000F40F07482BCF1000F01D0804B1E7090
:10352000BAF1000F01D08BF800500CB17E4B18702F
:103530008749884B087888499BF8002091F800C09B
:1035400086491A700D788649039591F800E08549FF
:1035500000240F788449009423460E788349A046BE
:10356000A146A246A34675466446DDF80CE09C469B
:103570000CE0422A00F08380572A40F0888014B97A
:10358000DCB24FF0010B0133112B0AD0CA5C582A70
:10359000EFD10028F7D1D8B20133112B4FF0010C35
:1035A000F4D172466346AE46A44615461C46BBF1AE
:1035B000000F40F02082BAF1000F02D0684B83F870
:1035C00000E0B9F1000F01D0664B1F70B8F1000F99
:1035D00001D0654B1E70009B0BB1604B1D700CB190
:1035E0005B4B18706248594CDFF8ACA1DFF8ACB106
:1035F000DFF8AC815F4D604F604E00F009FB604B1F
:1036000000221A7004F10D0914F8013B423B152BFE
:1036100058D8DFE813F062015700570157005701EF
:1036200057005700570057005700570057005700E2
:1036300057005100570057005700570046005700E9
:103640006201002D7FF44DAFDDB24FF0010A48E773
:10365000502A06D1002F7FF444AFDFB24FF00108AB
:103660003FE7462A7FF43DAF00287FF43AAFD8B257
:103670004FF0010935E72F4B83F800E047E7BEF133
:10368000000F80D101225FFA83FE00927BE7502A6F
:1036900040F0B881002D7FF476AFDDB24FF0010A23
:1036A00071E7374B1B78042B0CD8DFE813F052017D
:1036B00044013601280160010221307800F00EFF3C
:1036C00001232B704C450AF1010A0BF1010B08F1A3
:1036D000010805F1010507F1010706F1010693D183
:1036E000284F294800260125F4B23A46002303EB6F
:1036F00083010133062B02F8015B4454F7D10136F4
:10370000B6F5807F07F1070700F12300ECD11F4CCD
:103710001B4A1F4E002304F111081370012747E0D4
:103720008025FF1F2028FF1F3128FF1FCBD7FF1F39
:1037300054EBFF1F61B4FF1FC62CFF1F2228FF1F81
:10374000751DFF1FA40C0020783DFF1FB411FF1F43
:103750001BD50020402DFF1FC9D200204FEBFF1FBB
:103760005EEBFF1FC13EFF1F740F00205411FF1FAF
:10377000CC11FF1F3428FF1FA427FF1F9011FF1F2C
:103780005827FF1F0C0AFF1FA8B4FF1F1411FF1FAB
:103790005311FF1F8225FF1F38D500203C0F00204A
:1037A000CCD20020530400F1F0800134A04518D0A1
:1037B00016F8013FA04D423BDBB207FA03F2152B8E
:1037C00005EA0205F1D8002DECD02078012100F0A7
:1037D00085FE013414F8010C002100F06BFEA045B9
:1037E000E6D1964B964C1878964B002501211D701A
:1037F00000F074FE944B0121187800F06FFE934B9B
:103800000121187800F06AFE2078012100F066FEA0
:103810002946207800F04EFE8D4B1B78002B40F09F
:10382000D7808C4B1B78002B40F0C8808A4E8B4D84
:10383000002434702878DFF820A2022100F04EFE28
:10384000204606F085FC9FED7A0B41EC110B05F04C
:10385000EFF953EC102B2F4615F8010BCDE900239F
:1038600000F02EFE06F074FCDDE9002306F0D6FC25
:1038700080463078894606F06BFC02460B4640468F
:10388000494606F019FB06F079FF0134307000213B
:10389000387800F023FE052CCCD19AF80030704A1D
:1038A000C3F11F030121002011708AF80030FCF7DA
:1038B00083FE6C4B6C4A1B88591E914273D905B02C
:1038C000BDE8F08F002301228AF800308BF8003029
:1038D0003B7088F800202A70F4E60021307800F070
:1038E000FDFD624A1178624A29700123127888F836
:1038F00000308AF800308BF800303A70E2E65D491B
:103900005D4804F04FFD4F4B4E4A1B785B48013336
:10391000C021137002F0BCFED4E65649584804F0AA
:1039200089FC484B474A1B7856480133C021137025
:1039300002F0E0FAC6E64F49534804F0C3FB414B9E
:10394000404A1B7851480133C021137001F06AFFCF
:10395000B8E648494E4804F03DFB3A4B394A1B78DB
:103960004C480133C021137001F0B0FAAAE6414976
:10397000494804F0CFFD334B324A1B7847480133A6
:10398000C021137003F0ECF99CE62078012100F0CF
:10399000A5FD2078294600F047FB9FED410A2078DD
:1039A00000F0E2FC01E7C3EB03139A003D493E48F7
:1039B000013A05B0BDE8F04F04F066BE3B4C012172
:1039C000207800F08BFD2078002100F073FD2DE7BA
:1039D000374D384C2878012100F080FD20780121F6
:1039E00000F07CFD2878012100F064FD20780121A1
:1039F00000F060FD15E7304B83F800C0DBE52F4B8E
:103A00001F7088E5562A06D1002F7FF4BCADDFB2C7
:103A10004FF00109B7E5462A7FF4B5AD002E7FF4DB
:103A2000B2ADDEB24FF00108ADE500BFAFF30080EC
:103A3000000000000000004005003000A411FF1F3E
:103A40002511FF1F5827FF1F6511FF1F5011FF1F72
:103A5000C62CFF1F2228FF1FC8D20020040AFF1F08
:103A60005C2CFF1F3C11FF1F47444404A40C0020A2
:103A7000751DFF1FF4061400BC12FF1F9825FF1FC1
:103A8000A812FF1F7C0E00209412FF1FC03DFF1FD5
:103A90008012FF1FB80D0020D012FF1F9826FF1FB5
:103AA00000504347A51C0000680F00208E11FF1F27
:103AB0008C11FF1F3E11FF1FC9D2002054EBFF1FC6
:103AC00010B4047F4160022CC26003D05DF8044B47
:103AD00004F004BA83685DF8044B1847F0B4464B11
:103AE000464A986B5C6B01791170454922790A70DE
:103AF0001A6B00790870002A46D05968C9688A4252
:103B00003ED82168CC8B240402F1FF3065D4C0F389
:103B10000E00C883C88B80B2C882996B0968C88BB5
:103B2000000452D4C2F30E00C883C88B002480B2B4
:103B300012F1FF32C88218BF01221C63596B2E4854
:103B400009680D6800F12C04A54236D00068C468ED
:103B500014F0804F0C680D6815BF24882478023556
:103B6000013544F000440D604463996B254B09799D
:103B70001970214912B14A6B12791A70F0BC704762
:103B8000521A1A630122D9E7D86B196805681E4CCE
:103B90000A63CC62CC682D681C4E24F08044032755
:103BA000B542CC6083F82D701FD1037F4260022B99
:103BB000C2601ED0F0BC04F091B9016890F82C00EE
:103BC000CC6840F000404863CFE7CC8BC2F30800DC
:103BD00004F47E442043C883A7E7CC8BC0F30800DD
:103BE00004F47E442043C88394E72B461146F0BC7E
:103BF00018478368F0BC1847CC11FF1F1F80004096
:103C00001C8000401B80004000000FFFC13A0000F4
:103C100090E80C00F0B41C6859682568164F174EE0
:103C200029432160164D17491760D6601561116050
:103C3000417A154A5C180C3194F82C4053F8215005
:103C400002EBC40149680D60017A5C1803EB810145
:103C5000247ECD6902EBC40149680D60817A581851
:103C600003EB810390F84000596C02EBC002F0BCFA
:103C700053681960704700BF01401F0001100038F1
:103C80000110007800001F80C8B2000008B5104C79
:103C900008E0236859050DD423681A050FD423685A
:103CA000DB0411D423685803F3D503F039F92368F2
:103CB0005905F1D501F048F823681A05EFD501F050
:103CC000EFFC2368DB04EDD502F07CF8EAE700BFE7
:103CD0003480044008B5FFF7D9FF00BF014B102224
:103CE0001A80704700200540704700BF094908B599
:103CF0000B6830B16A461844A2F50052904202D2D5
:103D00000860184608BD06F05FFD0C2303604FF005
:103D1000FF3008BD0C12FF1FEFF3138070B9EFF3F3
:103D200010836BB9EFF305825AB94FF48070EFF34B
:103D300011832BB1984228BF184670474FF0FF30CF
:103D400070470F2A01D81846F1E7014BD05CEEE727
:103D5000F0E300E0084A1378802B01D00020704780
:103D60000649074B07480860002119701378802B1B
:103D7000FCD00120704700BF03E0074044800440AE
:103D800001E0074000002822094A1378012B01D0E6
:103D90000020704703F1804303F5FC236021197074
:103DA0001378802BFCD1034B034A1A600120704723
:103DB00003E00740448004400000060210B4114BA9
:103DC00053F8302092F8804234B1012379B182F85F
:103DD00080305DF8044B704703EBC0035B681A68E2
:103DE00051B922F002021A605DF8044B704782F864
:103DF00000315DF8044B704742F003021A605DF831
:103E0000044B7047C8B200001C4A02EBC0030129F2
:103E10005B6811D004291BD052F83000002280F8D2
:103E2000802229B1022920D0032922D01A607047AC
:103E30004FF480721A60704752F830004FF4A2724B
:103E400080F880121A601A6822F020021A60704707
:103E500052F830104FF4A272012081F880021A60EB
:103E60001A6842F020021A60704740F203121A608A
:103E700070474FF481721A60704700BFC8B20000EB
:103E800030B4054B054D064C002210211A602A6003
:103E90002060196030BC704714D0034004D0034048
:103EA00000D00340704700BF524B5348DFF870C149
:103EB00052494FF00062F0B51A604FF080521A601C
:103EC0004FF000521A604FF080421A604FF00042EB
:103ED0001A604B4CDFF84CE14A4E4B4D4B4F0022E1
:103EE000026028234EF6FF70CCF80000CEF80030B8
:103EF00023600EF5012E0B6033602B6006F5002663
:103F00003B6005F50025A36207F500278B6204F5E9
:103F1000012401F5012106F6E87605F6E87507F5B6
:103F20007F6710310EF1100E203433602B60CEF815
:103F300000303B600B602360354CBB618B61092115
:103F40002160A7F5002704F58054203F08343A602B
:103F50002060BB60E36047F8041C04F5FD2407F50E
:103F6000FE27043704F2FC7422603860A360FB6013
:103F700044F8041C083404F6FC74C7F8FC2F2060D5
:103F8000A4F5E124A4F2DC7433602B60C7F8F81FB9
:103F90002168204841F40071216001681E4C0EF533
:103FA0007F4E0EF1E80E41F0007107F5883706F5F7
:103FB000803605F580350160CEF8002047F6FF71A8
:103FC0000822396083B033602B60226004F0EEFC7D
:103FD000FFF768FF114C23680093009B132BFAD95D
:103FE00003F0F4FB23680193019BB3F5967FF9D3AB
:103FF00003B0F0BD04E100E0048003401C800340F6
:1040000014800340248003402C800340348003400C
:10401000008003400480044000900C4058D50020EC
:10402000088003400C80034038B5A0F14203012B07
:10403000044624D900297ADD994B1B78012505FA1D
:1040400003F28A4202D83F282CD938BDC21E012A69
:1040500030D9A0F11D02012A78D90E285BD9A4F12C
:104060002302032A5CD9A4F11002012A94BF8D4ACD
:104070008D4A126802FB011222FA03F320E0884BFA
:104080001B780B2B0AD90C2B1CBF0C3B1941422C63
:10409000084657D0BDE8384004F016BDC3F10C0304
:1040A0009940F4E72946FFF789FE2946BDE83840E4
:1040B000FFF7AABE7D4A126802FB011222FA03F33F
:1040C000A21E242A00F2E380DFE812F0DA00D30017
:1040D000CC00C500BE00B700B000A900A200E100FE
:1040E000E100E1009B00E10094008D00E100E100AF
:1040F00086007F0078007100E100E100E100E1004E
:10410000E1006A006300E100E100E100E1005C0021
:1041100055004E00470044F28412C240D2079ED59B
:10412000634A126802FB011222FA03F3C8E73F2830
:104130008BD80021FFF742FE20460121BDE8384020
:10414000FFF762BEBDE8384004F0A0BC594A1268CF
:1041500002FB011222FA03F3B2E75749574A0B60F8
:104160004FF45173136038BD5549564A0B604FF4F4
:104170005173136038BD5449544A0B604FF4517366
:10418000136038BD5249534A0B604FF451731360AA
:1041900038BD5149514A0B604FF45173136038BD1B
:1041A0004F49504A0B604FF45173136038BD4E496C
:1041B0004E4A0B6040F24443136038BD4C494D4AAF
:1041C0000B6040F24443136038BD4B494B4A0B60CF
:1041D00040F24443136038BD49494A4A0B6040F2FB
:1041E0004443136038BD4849484A0B6040F2446379
:1041F000136038BD4649474A0B6040F24463136080
:1042000038BD4549454A0B6040F24443136038BD10
:104210004349444A0B6040F24443136038BD42496D
:10422000424A0B6040F24443136038BD4049414A62
:104230000B6040F24443136038BD3F493F4A0B6076
:1042400040F24443136038BD3D493E4A0B6040F2A2
:104250004443136038BD3C493C4A0B6040F2444340
:10426000136038BD3A493B4A0B604FF451731360F9
:1042700038BD3949394A0B604FF45173136038BD6A
:104280003749384A0B6040F24443136038BD3F2C35
:104290003FF6DBAE7F29D4BF00210121204649E74C
:1042A0001012FF1F08900C40088003400890034044
:1042B00008900B4008800B4048900B402CB0044005
:1042C00040900B4028B0044038900B4024B004408C
:1042D00030900B4020B0044018800B404CA00440AC
:1042E00010800B4048A004401880034008B00440F0
:1042F0001080034004B004404080034018C00440D4
:104300003880034014C0044018900C4004A00440BE
:1043100010900C4000A0044018900B4004C00440D2
:104320002880034010B00440208003400CB00440BB
:1043300028900B400CC0044020900B4008C0044063
:104340003080034010C00440488003401CC004403B
:104350001890034034900440109003403090044083
:1043600010900B4000C00440A0F11001C9B2012917
:1043700070B45BD9DFED3B7A3B4AB4EEE70AF1EE6D
:1043800010FA47F6122346BF1A4602250125DFED33
:10439000376A002322FA03F407EE904AF8EEE77A30
:1043A00027EEA67AB4EEC70AF1EE10FA07DA013367
:1043B000072BEFD1D20907EE902AF8EEE77A87EEC5
:1043C000807A4FF6FF74C21EF6EE007A77EE677AB7
:1043D000FCEEE77A17EE906AA64228BF2646012A2D
:1043E000344637D917280ED9A0F11D02012A35D934
:1043F0000E281ED92338032820D9012914D81C4A95
:104400001C4E1D481DE01D4AC24002F0010282F010
:104410000106002AE8D01A4A1A481B49166043EAE6
:10442000C50306600C60136070BC7047174A012515
:10443000ADE744F28412C240D207DBD5144A154ED0
:10444000154843EAC5030021116031600460136020
:1044500070BC7047114A124E1248F2E7124A134ECE
:104460001348EEE7C0E1E440008793030000803783
:1044700000900C4004900C4008900C406006F00046
:104480000080034004800340088003400024F400BF
:1044900000900B4004900B4008900B4000900340AC
:1044A000049003400890034000800B4004800B40C0
:1044B00008800B403F2801D8FFF780BC704700BF41
:1044C0003F2806D8044B53F8303093F80002C0B2AE
:1044D00070470020704700BFC8B200003F2801D8D5
:1044E000FFF792BC704700BF72B60D490D4B0E4AE4
:1044F0001B680868126862B6520102D5322B88BF69
:104500000130C3F52F33094903F21F334FF47A7298
:104510009B08A1FB031302FB00F000EB9300704724
:1045200058D5002018E000E004ED00E0176CC1163B
:104530002DE9F84F2C4B1B6807460BB101221A706E
:10454000DFF8BC90DFF8BC8099F80040D8F8003064
:10455000264D274E01349C422ABF4FF0000A5FFAD5
:1045600084FA5446AB462B78A3421CD1FFF7D4FB08
:1045700040282BDC33791B06F5D59BF80030D8F8A2
:104580000010DBB25A1C8A4225D23F2A29D9194988
:104590003F3B0968CB5CD1B2DBB2DBB2F37129706F
:1045A0002B78A342E2D03F2C8ABF124B124B1B68E0
:1045B000124988BF403CFFB21F550D4B0120BC2261
:1045C000087089F800A0DA70BDE8F88FFF28CADD0E
:1045D00004F062F9C7E700210A46074B9B5CDBB297
:1045E000DBE7D1B2F9E700BFF4D50020EDD500201C
:1045F00000A00640A8D5002064D50020ECD50020FE
:10460000F8D500202012FF1F324A33491368F0B555
:1046100043F4806313600A78304F314E314D324C91
:1046200032490023152A3B7033702B7023700B70B6
:1046300045D01B2A3ED082B32D4B1B78052B34D09E
:104640001A2B41D0012B1BD01F281FD80020024657
:104650000125284B284C1A7028495D7004224FF020
:10466000020E88273C26402598729A704FF0004031
:1046700083F813E05A751F74DE7025700860F0BD72
:104680001F4B4FF451721F281A60DFD9C0F3443218
:10469000C0F3471500F01F00DBE71A4B40F213325E
:1046A0001A60134B1B78052BCAD1174B4FF451726C
:1046B0001A60C9E7154B40F213321A60BCE7144B7D
:1046C00040F213321A60B7E7124B4FF451721A607E
:1046D000BAE700BF34800440A4D5002060D5002094
:1046E00061D50020F8D50020EDD50020ECD50020C4
:1046F0002412FF1F00A006401FE400E000E100E0DC
:1047000044A0044040A004401CC004403C9004402D
:1047100018C0044038900440284B28499B7803F087
:10472000EC0200F003031343420700F00F0248BFFE
:1047300043F01003042A8B7038D0204B1F4A5B795A
:10474000C10603F0EF0348BF43F0100353719379A0
:10475000820603F0EF03194A48BF43F01003937138
:10476000C30506D553781178DBB241F020011170F2
:10477000537010F4007005D1114B124A1968914220
:1047800019D0704730B40D490F4D8A780F4B0C4843
:104790000C4C42F0A0028A702A78046003EBC2033A
:1047A00040F247325B6830BC1A6070478B7943F047
:1047B00040038B71C1E71860704700BF00A006403E
:1047C000F4D50020D400D4422412FF1FC8B2000048
:1047D0002A4B1B685B0536D510B5294C237823B1CD
:1047E00004F05AF82378002BFAD12648264A274BA2
:1047F0004FF0004400210460D1701B78152B23D0AA
:104800001B2B35D01BB9224B40F203121A60214BEF
:104810001B7803F07F03052B20D01A2B23D0012B0C
:1048200003D11D4B40F203121A601C4A164B1C4860
:104830001C4912681C79DB79002303700B700AB1E4
:104840000123137010BD7047174B40F203121A601A
:10485000104B1B7803F07F03052BDED1134B40F286
:1048600003121A60E1E7124B40F203121A60DCE710
:10487000104B40F203121A60C9E700BF34800440B5
:10488000ECD5002080E100E000A00640A4D5002087
:1048900040A004402412FF1F44A004405CD5002027
:1048A00060D5002061D5002018C004401CC0044021
:1048B000389004403C9004400A4A38B505461378C5
:1048C00003F0FF04002BFAD101212846FFF706FE72
:1048D00021462846FFF7EEFD034A044B52F83520E7
:1048E0001A6038BDECD50020C8B20000F4D5002015
:1048F00009B140F080001E4A137898421BD010B4D2
:104900001C4C2468640513D503F07F03052B2AD0C3
:104910001A2B24D0012B14D0002900F07F0114BFE2
:1049200060234423052915D01A290ED0012903D06C
:1049300010705DF8044B70470F4943F440730B60EF
:10494000F6E70D4B00241C60E6E70C4943F4407386
:104950000B60EDE70A4943F440730B60E8E7074B4F
:1049600000241C60D8E7064B00241C60D4E700BF7D
:104970002412FF1F3480044044A0044038900440B7
:104980001CC00440174A137883420ED016490968A8
:10499000490509D5152B20D01B2B1AD05BB1152842
:1049A0000DD01B2810D008B1107070470F4B40F28B
:1049B00013311960F8E70D4915280B60F1D10C4B44
:1049C00040F213311960EFE70A4B40F213311960DE
:1049D000EAE7084B00211960E1E7054B0021196067
:1049E000DDE700BFA4D500203480044040A004408F
:1049F00018C004403C9004400D4B1B6813F48063C6
:104A000005D03F2805D90B4B002018607047184689
:104A10007047094B10B5074C53F830302360012123
:104A2000FFF75CFD236800221A70012010BD00BF53
:104A3000348004405CD50020C8B200000F4B1B68D6
:104A400013F4806308D0122808D0142811D00C4A1F
:104A5000537B03F0FE03537300207047094B40F271
:104A600002321A60064A537B43F00103537301205C
:104A70007047054B40F202321A60F3E7348004407D
:104A800000A006400CA0044014C00440034B1B6867
:104A90005B0501D5FFF74CBD704700BF3480044073
:104AA0003E4B1B685A0575D52DE9F04F3C4B1B68F2
:104AB00083B00BB101221A7043189842019363D25C
:104AC000DFF8F080DFF8F090364CDFF8F0B0364FCA
:104AD000451C18E0227892455FFA8AF629D0BAF18F
:104AE0003F0F1ED9DBF8002015F8011CAAF1400386
:104AF000D1542A462D4901230B701D44019B88F88F
:104B000000609A4240D298F80030D9F8002003F1B2
:104B1000010A9245DED3237803F0FF0643B1002655
:104B2000B246234B15F8012C03F80A202A46E1E788
:104B3000B246BC22FA7005E03A7913060BD422780B
:104B40005245CCD1FFF7E8F84028F5DDFF28F6DD27
:104B500003F0A2FEF3E72278D9F80010D2B2501C7D
:104B600088420BD23F2816D9DBF800103F3A8A5C06
:104B7000C1B2D2B2D2B2FA712170E0E70021084688
:104B80000B4B1A5CD2B2F5E7074BBC22DA7003B0CC
:104B9000BDE8F08F7047C1B2F2E700BF3480044037
:104BA000F4D50020EDD5002000A00640ECD5002073
:104BB00064D50020F8D500202012FF1FA8D50020C2
:104BC00010B5044C237823B103F066FE2378002B44
:104BD000FAD110BDECD50020084B094A1B7810789B
:104BE000DBB2C0B2834202D20138C01A7047054A14
:104BF0001268013A1044C01A704700BFF8D500206F
:104C0000EDD500202012FF1F064A074B10781B78B5
:104C1000C0B2DBB2984202D2044A12681044C01AF1
:104C2000704700BF60D5002061D500201412FF1F1F
:104C300070B4184B184D1B782A78D9B2D2B2914271
:104C400022D0164B1C68531CA34214D300221346D7
:104C50001348C05CC0B2134E2A7032684AB1994200
:104C600038BF0919CB1A104909688B4201D80023B3
:104C7000137070BC70473F2B09D90C483F3A00684D
:104C8000805CDAB2C0B2E6E74FF0FF30F1E7DAB2AB
:104C9000DEE700BF60D5002061D500201412FF1FA1
:104CA000ACD500205CD500201812FF1FF0D50020E5
:104CB0000D4A0E4B12781B78DBB29A4211D00C4A87
:104CC00011685A1C8A4204D300220A4B985CC0B275
:104CD00070473F2AF9D9084A3F3B1268D05CC0B2FE
:104CE00070474FF0FF30704760D5002061D500203D
:104CF0001412FF1FACD50020F0D500200D4B1B680F
:104D00005B0516D530B40C4B0C4CDA780C480D49C9
:104D100002F0CB024025DA705D74DA7842F034029A
:104D2000DA7023780268DBB20B700AB100231370CB
:104D300030BC70473480044000A0064061D500209C
:104D40005CD5002060D500202DE9F041504A137950
:104D500013F0300F44D072B6937D03F0FF01002BA7
:104D600057D062B6DFF858814A4B4B4D98F8000097
:104D70004A4C1B782F68D4F800C0DFF848E115468C
:104D8000C0B2DEB20CE09642A0F13F0404D03F2A4C
:104D90007CD90CF8043010464A1E12F0FF010DD0E9
:104DA000EB79421CBA42DBB2EDD3002EF4D00020E6
:104DB0004A1E12F0FF010EF80030F1D1384B1A688C
:104DC000C3B288F800305AB13649B04238BFBB1B75
:104DD00009682CBF831B1B188B4224BF012313704F
:104DE0002B48C178C9B20D0618D44A060FD5284BF6
:104DF0001B795B060BD52C4B2C491B6800220A70D3
:104E000003B11A70224B3C22DA70BDE8F081BDE894
:104E1000F0814023D179537462B6E1E703791C062F
:104E2000E3D5234BDFF8A0E01D789EF80030EDB20B
:104E3000DBB29D421ED01F4C1F4A2668D2F800C02C
:104E40001E4F0DE03F2C02791ED91CF8032023468B
:104E5000D2B2D2B2C271027D072A0BD89D4209D0CC
:104E60005C1CA642A3F13F03ECD803790023FA5C53
:104E7000D2B2EEE7DBB2064A8EF80030137918069C
:104E800044BF7C23D370B0E72346F0E710468FE79A
:104E900000A0064061D500201412FF1FF0D50020AD
:104EA0005CD500201C12FF1FF4D50020ECD500209B
:104EB000F8D500202012FF1FA8D5002064D50020BF
:104EC00060D50020ACD50020EDD50020084B18603F
:104ED000084B50B101F140021A60074A074B01F13B
:104EE0001A00283110601960704740221A60F4E7F8
:104EF000F0D500201412FF1F1812FF1F1C12FF1FF5
:104F0000044B1860044B10B14031196070474022C7
:104F10001A607047A8D500202012FF1F2A4A2B498B
:104F20001368F0B443F4006313600A78284F294EE5
:104F3000294D2A4C2A490023092A3B7033702B70D3
:104F400023700B703AD03B2A1ED0264B1B780A2BBD
:104F500022D03A2B2DD01F2824D80020024601262B
:104F6000214B224D1A70224C5E700421987202224D
:104F700088273C2640209970DA7459751F74DE70BA
:104F800028702260F0BC70471A4B40F213321A604E
:104F9000144B1B780A2BDCD1174B4FF451721F288E
:104FA0001A60DAD9C0F34432C0F3471600F01F008C
:104FB000D6E7124B4FF451721A60CCE7104B40F217
:104FC00013321A60C1E700BF348004402C12FF1F67
:104FD00070D6002001D600207CD6002071D600209B
:104FE00000D600203812FF1F00B0064021E400E088
:104FF00004E100E004D0044010B0044000D00440BC
:105000000CB00440284B28499B7803F0EC0200F0D8
:1050100003031343420700F00F0248BF43F010039D
:10502000042A8B7038D0204B1F4A5B79C10603F0ED
:10503000EF0348BF43F0100353719379820603F0E6
:10504000EF03194A48BF43F010039371C30506D517
:1050500053781178DBB241F020011170537010F4D5
:10506000007005D1114B124A1968914219D070474E
:1050700030B40D490F4D8A780F4B0C480C4C42F060
:10508000A0028A702A78046003EBC20340F2473220
:105090005B6830BC1A6070478B7943F040038B71BA
:1050A000C1E71860704700BF00B0064078D6002006
:1050B000D400D6423812FF1FC8B20000214B1B6833
:1050C0001B053ED510B5204C237823B103F0E4FB3B
:1050D0002378002BFAD11D481D491E4B02240022C3
:1050E0000460CA701B78092B1CD03B2B01D11A4BD2
:1050F0001A601A4B1B7803F07F030A2B1CD03A2B43
:1051000002D1174B00221A60164A114B1648174954
:1051100012681C79DB79002303700B700AB101233C
:10512000137010BD124B40F203121A600B4B1B7828
:1051300003F07F030A2BE2D10E4B40F203121A60F8
:10514000E2E770473480044000D6002084E100E0AC
:1051500000B006402C12FF1F04D004403812FF1F7D
:1051600000D00440FCD5002070D6002001D60020DD
:105170000CB0044010B004400A4A38B50546137814
:1051800003F0FF04002BFAD101212846FFF7A6F90E
:1051900021462846FFF78EF9034A044B52F8352082
:1051A0001A6038BD00D60020C8B2000078D60020B2
:1051B00009B140F08000174A1378984217D010B414
:1051C000154C246824050FD503F07F030A2B1DD04E
:1051D0003A2B12D0002900F07F0114BF6023442332
:1051E0000A290ED03A2903D010705DF8044B70479D
:1051F0000A4943F440730B60F6E7084B00241C6037
:10520000E8E7074943F440730B60EDE7044B0024E3
:105210001C60DFE73812FF1F3480044000D00440D8
:1052200010B00440124B1A7882420CD01149096820
:10523000090507D5092A16D03B2A0AD009280DD01E
:105240003B2801D0187070470B4A40F213311160AF
:10525000F8E7094A002109281160F1D1074A40F214
:1052600013311160EEE7054A00211160E6E700BF47
:105270002C12FF1F3480044004D004400CB00440C2
:105280000D4B1B6813F4006305D03F2805D90B4B69
:1052900000201860704718467047094B10B5074C3E
:1052A00053F8303023600121FFF718F923680022FA
:1052B0001A70012010BD00BF34800440FCD50020CE
:1052C000C8B200000F4B1B6813F4006308D0172806
:1052D00008D03C2811D00C4A537B03F0FE035373D3
:1052E00000207047094B40F202321A60064A537B95
:1052F00043F00103537301207047054B40F2023223
:105300001A60F3E73480044000B0064008B004405F
:1053100008D004402DE9F84F2E4B1B681A0546D5DE
:105320002D4B1B680BB101221A70DFF8C490DFF817
:10533000C48099F80040D8F80030284D284E013438
:105340009C422ABF4FF0000A5FFA84FA544607468F
:10535000AB462B789C4219D1FEF7DEFC402828DCB6
:1053600033791B06F5D59BF80030D8F80010DBB276
:105370005A1C8A4222D300210A461A4B9B5CDBB29C
:10538000DBB2F37129702B789C42E5D0272C8ABFC1
:10539000154B144B1B68154988BF283CFFB21F559D
:1053A0000F4B0120BC22087089F800A0DA70BDE81C
:1053B000F88FFF28CDDD03F06FFACAE7272A06D958
:1053C0000949273B0968CB5CD1B2DBB2D8E7D1B23F
:1053D000D3E700BF3480044078D6002071D6002087
:1053E00000B0064004D600202CD6002000D60020B5
:1053F0007CD600203412FF1F3E4B1B681A0575D562
:105400002DE9F04F3C4B1B6883B00BB101221A70A1
:1054100043189842019363D2DFF8F080DFF8F090F0
:10542000364CDFF8F0B0364F451C18E02278924534
:105430005FFA8AF629D0BAF1270F1ED9DBF80020CF
:1054400015F8011CAAF12803D1542A462D4901233D
:105450000B701D44019B88F800609A4240D298F876
:105460000030D9F8002003F1010A9245DED32378F9
:1054700003F0FF0643B10026B246234B15F8012C7A
:1054800003F80A202A46E1E7B246BC22FA7005E09A
:105490003A7913060BD422785245CCD1FEF73CFC66
:1054A0004028F5DDFF28F6DD03F0F6F9F3E7227872
:1054B000D9F80010D2B2501C88420BD2272816D936
:1054C000DBF80010273A8A5CC1B2D2B2D2B2FA71CC
:1054D0002170E0E7002108460B4B1A5CD2B2F5E7D9
:1054E000074BBC22DA7003B0BDE8F08F7047C1B241
:1054F000F2E700BF3480044078D6002071D6002047
:1055000000B0064000D6002004D600207CD6002043
:105510003412FF1F2CD6002010B5044C237823B181
:1055200003F0BAF92378002BFAD110BD00D6002081
:10553000084B094A1B781078DBB2C0B2834202D212
:105540000138C01A7047054A1268013A1044C01A5F
:10555000704700BF7CD6002071D600203412FF1F98
:10556000064A074B10781B78C0B2DBB2984202D2D1
:10557000044A12681044C01A704700BF70D6002059
:1055800001D600202812FF1F70B4184B184D1B784D
:105590002A78D9B2D2B2914222D0164B1C68531C41
:1055A000A34214D3002213461348C05CC0B2134E6A
:1055B0002A7032684AB1994238BF0919CB1A10498A
:1055C00009688B4201D80023137070BC70473F2BD1
:1055D00009D90C483F3A0068805CDAB2C0B2E6E70D
:1055E0004FF0FF30F1E7DAB2DEE700BF70D60020FF
:1055F00001D600202812FF1F30D60020FCD5002045
:105600003C12FF1F74D600200D4A0E4B12781B78F7
:10561000DBB29A4211D00C4A11685A1C8A4204D358
:1056200000220A4B985CC0B270473F2AF9D9084A59
:105630003F3B1268D05CC0B270474FF0FF307047FC
:1056400070D6002001D600202812FF1F30D600207F
:1056500074D600200D4B1B681B0516D530B40C4BBF
:105660000C4CDA780C480D4902F0CB024025DA7078
:105670005D74DA7842F03402DA7023780268DBB2C3
:105680000B700AB10023137030BC704734800440A3
:1056900000B0064001D60020FCD5002070D60020C6
:1056A0002DE9F041504A137913F0300F44D072B60F
:1056B000937D03F0FF01002B57D062B6DFF85881CD
:1056C0004A4B4B4D98F800004A4C1B782F68D4F891
:1056D00000C0DFF848E11546C0B2DEB20CE09642E9
:1056E000A0F13F0404D03F2A7CD90CF804301046C6
:1056F0004A1E12F0FF010DD0EB79421CBA42DBB218
:10570000EDD3002EF4D000204A1E12F0FF010EF857
:105710000030F1D1384B1A68C3B288F800305AB162
:105720003649B04238BFBB1B09682CBF831B1B180E
:105730008B4224BF012313702B48C178C9B20D06D8
:1057400018D44A060FD5284B1B795B060BD52C4B7A
:105750002C491B6800220A7003B11A70224B3C22AC
:10576000DA70BDE8F081BDE8F0814023D17953744F
:1057700062B6E1E703791C06E3D5234BDFF8A0E02E
:105780001D789EF80030EDB2DBB29D421ED01F4C5A
:105790001F4A2668D2F800C01E4F0DE0272C027960
:1057A0001ED91CF803202346D2B2D2B2C271027DA8
:1057B000072A0BD89D4209D05C1CA642A3F12703FF
:1057C000ECD803790023FA5CD2B2EEE7DBB2064AEA
:1057D0008EF800301379180644BF7C23D370B0E7ED
:1057E0002346F0E710468FE700B0064001D60020C0
:1057F0002812FF1F74D60020FCD500203012FF1F96
:1058000078D6002000D600207CD600203412FF1F5E
:105810002CD6002004D6002070D6002030D60020E0
:1058200071D60020084B1860084B50B101F14002BE
:105830001A60074A074B01F11A00283110601960FD
:10584000704740221A60F4E774D600202812FF1F28
:105850003C12FF1F3012FF1F044B1860044B10B1A5
:1058600028311960704728221A6070472CD6002012
:105870003412FF1F2DE9F84F2C4B1B6807460BB164
:1058800001221A70DFF8BC90DFF8BC8099F8004064
:10589000D8F80030264D274E01349C422ABF4FF0E5
:1058A000000A5FFA84FA5446AB462B78A3421CD117
:1058B000FEF732FA40282BDC33791B06F5D59BF82E
:1058C0000030D8F80010DBB25A1C8A4225D2272AB1
:1058D00029D91949273B0968CB5CD1B2DBB2DBB2CD
:1058E000F37129702B78A342E2D0272C8ABF124B88
:1058F000124B1B68124988BF283CFFB21F550D4B45
:105900000120AC22087089F800A0DA70BDE8F88F99
:10591000FF28CADD02F0C0FFC7E700210A46074B97
:105920009B5CDBB2DBE7D1B2F9E700BFFCD600201D
:10593000F5D6002000C00640B0D6002088D6002052
:10594000F4D6002000D700204C12FF1F1B4BDFF8BD
:1059500090C01A681A49F0B542F48052194D1A6085
:10596000DFF880E0184F194E194C00238CF80030F6
:105970004FF451722B701F2840F213358EF800300F
:105980003B70337025600A6011D819460124114A12
:10599000114D11701148547000212C27402693722C
:1059A000082491701174D7702E700460F0BDC0F39C
:1059B0004431C0F3471400F01F03E8E7348004408B
:1059C0000CC0044085D60020F5D60020F4D6002077
:1059D00008C0044000C0064023E400E004E100E009
:1059E00084D6002000D70020284B28499B7803F05C
:1059F000EC0200F003031343420700F00F0248BF1C
:105A000043F01003042A8B7038D0204B1F4A5B7977
:105A1000C10603F0EF0348BF43F0100353719379BD
:105A2000820603F0EF03194A48BF43F01003937155
:105A3000C30506D553781178DBB241F0200111700F
:105A4000537010F4007005D1114B124A196891423D
:105A500019D0704730B40D490F4D8A780F4B0C4860
:105A60000C4C42F0A0028A702A78046003EBC20357
:105A700040F247325B6830BC1A6070478B7943F064
:105A800040038B71C1E71860704700BF00C006403B
:105A9000FCD60020D400D8425012FF1FC8B200002C
:105AA000F8B5124B1B68DB041ED5114C237823B1CB
:105AB00002F0F2FE2378002BFAD10E4B0E4A0F4D66
:105AC0000F4F104E104C1148082119600023D3705D
:105AD00040F203113960316029681579D279237059
