:1000000000000320D1010000E17E00009D7E000081
:100010009D7E00009D7E00009D7E00009D7E000074
:100020009D7E00009D7E00009D7E0000E17E000020
:10003000E17E00009D7E00002D78000031780000F8
:10004000E17E0000E17E0000E17E0000E17E000034
:10005000E17E0000E17E0000E17E0000E17E000024
:10006000E17E0000E17E0000E17E0000E17E000014
:10007000E17E0000E17E0000E17E0000E17E000004
:10008000E17E0000E17E0000E17E0000E17E0000F4
:10009000E17E0000E17E0000E17E0000E17E0000E4
:1000A000E17E0000E17E0000E17E0000E17E0000D4
:1000B000E17E0000E17E0000E17E0000E17E0000C4
:1000C000E17E0000A98A0000E17E0000E5910000C9
:1000D000E17E0000E17E0000E17E0000E17E0000A4
:1000E000E17E0000E17E0000E17E0000E17E000094
:1000F000E17E0000E17E0000E17E0000E17E000084
:10010000057C00001D7C0000357C00004D7C00005B
:10011000E17E0000E5940000E17E0000E17E000049
:10012000E17E0000E17E0000E17E0000E17E000053
:10013000E17E0000E17E0000E17E0000E17E000043
:10014000E17E0000E17E0000E17E0000E17E000033
:10015000E17E0000E17E0000E17E0000E17E000023
:10016000E17E0000E17E0000E17E0000E17E000013
:10017000E17E0000E17E0000E17E0000E17E000003
:10018000E17E0000E17E0000E17E0000E17E0000F3
:10019000E17E0000E17E0000E17E0000E17E0000E3
:1001A000E17E0000E17E0000E17E0000E17E0000D3
:1001B000E17E0000E17E0000E17E0000E17E0000C3
:1001C000E17E0000E17E0000E17E0000E17E0000B3
:1001D0005F4B4CF2205210B5DA814DF62812DA81CD
:1001E00000BF00BF07F080FE5A4B4FF030621A6329
:1001F000594A9A63594ADA634FF0E0234FF4700288
:10020000C3F8882D03F5E823554A1A60554B9A78B0
:10021000110703D59A7842F008029A70524B53485E
:10022000AA221A70524BDA1C121AC11E22F00302C3
:10023000994288BF00224F4907F05CFD4E4B4F4862
:10024000DA1C121AC11E22F00302994288BF002252
:1002500000210BF015FE4A494A484FF4E87207F0B6
:1002600049FD494B494A802103F8011B9342FBD1C8
:100270004FF0E023434AC3F8082D454B8A221A70F9
:10028000A3F5805324225A70A0221A709A799207FB
:10029000FCD59A79D406FCD43E4A937903F00C033A
:1002A000082BFAD1304B60225A70DA78802AFCD1C0
:1002B000384B01221A715D225A719A799006FCD549
:1002C0009A795106FCD5234A33495164002191643F
:1002D000202119702F498B7903F00C030C2BFAD1D4
:1002E0002E4B53602E4A136913F4807303D153616C
:1002F0004FF4A85313614FF0E0232A4A5A610022B9
:100300009A6107221A61284AC3F8202D62B607F0C5
:100310009FFE234B5B69DA0705D5244807F08CFE66
:10032000234B244ADA61244B1B785B0609D5204C09
:10033000204BE2699A4204D11C4807F07DFE00235D
:10034000E36107F0D7FD0BF04BFE07F0CBFCFEE7B7
:100350000020054000800440823F04000100002B83
:100360000300008500D0074000E007403007FF1F72
:10037000C80EFF1F14CD0000086A0220C80EFF1F20
:10038000000000000002FF1F00E400E064E400E061
:10039000005006400040064000000602C010070062
:1003A00000D003401FBF020000002020E083BA6598
:1003B00000E00340A5C3945A00F00740FFFFFFFF91
:1003C000FFFFFFFFFFFFFFFFFFFFFFFFFFFFFFFF3D
:1003D000FFFFFFFFFFFFFFFFFFFFFFFFFFFFFFFF2D
:1003E000FFFFFFFFFFFFFFFFFFFFFFFFFFFFFFFF1D
:1003F000FFFFFFFFFFFFFFFFFFFFFFFFFFFFFFFF0D
:10040000FFFFFFFFFFFFFFFFFFFFFFFFDEF9FFFF23
:100410000548064B1B1AD90F01EBA301491002D066
:10042000034B03B118477047C80EFF1FC80EFF1FCC
:100430000000000008B5054B1BB105490548AFF3A6
:100440000080BDE80840FFF7E3BF00BF00000000E8
:10045000C80EFF1F0CCD00000160704700680368E4
:100460001B691847006803681B68184770B5054684
:10047000006803680C461B68C9B29847286803687F
:10048000210A1B68BDE87040184700BF70B50546DB
:10049000006803680C461B68C9B29847286803685F
:1004A000C4F307211B68984728680368C4F3074111
:1004B0001B68984728680368210E1B68BDE87040D8
:1004C000184700BF10B50446206803681B699847A9
:1004D0000028F9D0206803685B699847C0B210BD56
:1004E00010B50446206803681B6998470028F9D0B6
:1004F000206803685B6998472071206803681B695E
:1005000098470028F9D0206803685B6998476071B4
:10051000A08810BD10B50446206803681B69984781
:100520000028F9D0206803685B699847207120682B
:1005300003681B6998470028F9D0206803685B6945
:1005400098476071206803681B6998470028F9D0B4
:10055000206803685B699847A071206803681B697D
:1005600098470028F9D0206803685B699847E071D4
:10057000606810BD006803685B681847006807F092
:1005800091BB00BF00207047704700BF10B5044BFF
:10059000044640F8103B04F019FE204610BD00BF91
:1005A000ACC4000010B5044607F006FB204610BDA1
:1005B000836C13B1184603F0E3BDC06C08B102F0C0
:1005C00011BD7047836C13B1184603F0D9BCC06CE1
:1005D00008B102F007B94FF0FF307047836C53B198
:1005E000187810F008000DD0D8695B69C01A48BFB0
:1005F0006FF000407047C36CA3B193F8310010F066
:10060000080000D17047186919685A695B68401A78
:1006100062EB0303B0F1004F73F10003F2D36FF00C
:10062000004070471846EDE7836C13B1184603F09D
:10063000ADBDC06C08B102F00FBE704700B5836C51
:1006400083B08DF8071043B101220DF10701184660
:1006500003F09CFD03B05DF804FBC06C0028F9D0EA
:1006600001220DF1070102F0F7FD03B05DF804FB74
:1006700000B5836C83B063B101220DF10701184608
:1006800003F0A8FB01280CD19DF8070003B05DF82A
:1006900004FBC06C28B101220DF1070101F0CEFF6F
:1006A000F0E74FF0FF30F1E72DE9F04FDFF84C9223
:1006B000864C85B099F80030002B40F0A080844B28
:1006C00084491C78844B9B6C04FB01F1002B00F0E7
:1006D000E580184603F08CFC7D4B1C787F4B53F86B
:1006E000244020460BF038F802460B460AF0F8FE8C
:1006F0007B4B00220BF0D4F941EC100B09F0E4FE27
:1007000051EC100B0BF052FB764B186000283BD0DD
:10071000754C764D764FDFF8B4B14FF0000809F014
:1007200089FB0028FBD023680193DDF804A0002694
:1007300007E023680093009BBA68A3EB0A03934287
:100740005AD2C6F5FA41A81909F08AFB0644B6F553
:10075000FA4FEED399F8003053BB5F4B986C0028EA
:1007600031D062494FF4FA4203F010FDB8F1000FA6
:1007700035D05C4B186808F101084045CFD8544B80
:10078000564A1B7852F82340DFF874A14FF47A538D
:1007900003FB10444FEA440BCAF800B0BBF1000F52
:1007A00036D15448012105B0BDE8F04FFFF75ABEDD
:1007B000DBF88C040368DB6898470028CAD1464BF5
:1007C000986C0028CDD1444BD86C0028CED0474936
:1007D0004FF4FA4202F040FDB8F1000FC9D13C4B92
:1007E00042491878444B00EB800003EB40204FF463
:1007F000206207F07FFABCE701233B73AAE7D4F835
:100800008C040368DB68984700287FF453AF56E7F1
:10081000354C364D23680393039FDFF8D4800026C0
:1008200007E023680293029BD8F80820DB1B934261
:1008300047D2ABEB0601A81909F012FB0644B345F9
:10084000EFD8224C99F8003003BB234BDAF8002094
:10085000986C00282DD0254903F098FC214B1B688B
:10086000002B9ED11A4B1D4A1B78234852F8232097
:100870001E49520003EB8303B2F5206F88BF4FF48B
:10088000206200EB432007F035FA8AE7D4F88C04A5
:100890000368DB6898470028D4D1D6E70E4AD06CAD
:1008A00000283FF41BAF0A4601F0B4FF084B1C7848
:1008B00014E7094BD86C0028D0D00C4902F0CCFCCE
:1008C000CCE7012288F80C20BBE700BFE80EFF1F31
:1008D0008C63022080841E008814FF1F68E2FF1FC3
:1008E0000040DF4064E2FF1FC06402203C65FF1F40
:1008F000C008FF1F8014FF1F78E3FF1F78630220EA
:100900006CE3FF1F2DE9F0478E4F8F4E8F4DDFF8C0
:100910007482DFF874A2DFF87492002417F8013BA8
:100920000BB12B787BB90134042C06F1040605F1D8
:100930000105F3D1864C2378002B42D1854F3B78BB
:100940003BBBBDE8F087D8F8483000222A703268F7
:10095000002B41D01146184603F04AFB022CD8F870
:10096000480042D0032C58D0012C7B4B4AD01B7836
:10097000012B78D0D8F84800002800F099807749FA
:100980004FF4206203F026FA336803F520633360E6
:10099000C9E7734D734E05F58078A5F140043046E4
:1009A000FFF790FD04F8010FA542F8D14035A845A6
:1009B000F3D16C480121FFF755FD00233B70BDE8E2
:1009C000F0876848FFF77EFD674B3F2805461870A3
:1009D0002ED900232370B1E7D8F84C0088B301F07A
:1009E00019FF022CD8F84800BCD15B4B9B78012B37
:1009F00000F08A80002866D05C494FF4206203F042
:100A0000E9F9C1E75B78012B35D0002845D058497A
:100A10004FF4206203F0DEF9B6E74F4BDB78012B91
:100A200079D078B34FF42062514603F0D3F9ABE7A5
:100A30004C48FFF76FFD4F4B43F82500FFF734FE9E
:100A4000C7E7022C6FD0032C8ED1434BDB78012BF0
:100A500018D1D8F84C00002896D04FF420624946AF
:100A600001F0ECFD90E7002843D043494FF42062A9
:100A700003F0B0F988E788B340494FF4206203F0EF
:100A8000A9F981E7D8F84C0000283FF47DAF4FF476
:100A90002062514601F0D2FD76E7D8F84C000028DC
:100AA0003FF472AF32494FF4206201F0C7FD6BE7AB
:100AB000D8F84C0000283FF467AF28494FF4206273
:100AC00001F0BCFD60E7D8F84C0000283FF45CAFB3
:100AD00026494FF4206201F0B1FD55E7D8F84C00EB
:100AE00000283FF451AF25494FF4206201F0A6FDE4
:100AF0004AE7D8F84C0000283FF446AF1E494FF4AF
:100B0000206201F09BFD3FE788B11D494FF4206250
:100B100003F060F938E700289BD04FF42062494683
:100B200003F058F930E70C4B9B78012BCBD1D8F868
:100B30004C0000283FF428AF11494FF4206201F027
:100B40007DFD21E774E3FF1F2C65FF1F4CE2FF1FB3
:100B50008B630220886302200465FF1FE81EFF1FCD
:100B60009307FF1F8014FF1F8C630220E846FF1FBE
:100B7000E832FF1F68E2FF1FE814FF1FE828FF1F8D
:100B8000E83CFF1F8814FF1FE85AFF1FE850FF1FB3
:100B90002DE9E043DFF85080DFF850900E4607461D
:100BA000012198F80000154607F0CEFA99F80000E8
:100BB000002107F0C9FA0A4A0A4817705670957062
:100BC0001146032301F0CAFB99F80000012107F048
:100BD000BBFA98F800000021BDE8E04307F0B4BA82
:100BE0002065FF1F946302203607FF1F3807FF1F91
:100BF00070B53F4D3F4C2878012107F0A5FA2378C6
:100C00009BB963785BBBA378002B41D1E378002BC1
:100C100057D10121287807F097FA374B297853F8F4
:100C20003130012283F8002170BD344E002130782C
:100C300007F08AFA3249334A91F801C00978917075
:100C4000032313701146304882F801C001F086FB7F
:100C50003078012107F078FA6378002BD3D0274E43
:100C60000021307807F070FA264A274802231370D3
:100C7000234BD9789B78517093701146032301F070
:100C80006DFB3078012107F05FFAA378002BBDD00F
:100C90001A4E0021307807F057FA1A4A1A480023F2
:100CA0001370174B59791B795170937011460323B8
:100CB00001F054FB3078012107F046FAE378002B6D
:100CC000A7D00E4C0021207807F03EFA0C4B0D4ABD
:100CD000D9799B7951700126937011460A48167094
:100CE000032301F03BFB2078314607F02DFA90E713
:100CF0003607FF1F74E3FF1F6CCA00003807FF1F91
:100D00002465FF1F2065FF1F9463022030B40F4C41
:100D10000F4A21540F4C104D002344F820300F4C43
:100D200042F8203004FB01F10D4C0E4A44F820300B
:100D30000D4B0E4C01F5206143F8201001232B547C
:100D400023540223135430BC704700BF9063022029
:100D50000865FF1FEC64FF1F0465FF1F80841E00F1
:100D6000D814FF1F0065FF1F2C65FF1F4807FF1FDA
:100D70000F4A002370B442F820300E4C0E4A215422
:100D800042F820300D4C0E4A44F8203002FB01F1AD
:100D90000C4B0D4E0D4D0E4C0E4A01F5206143F8E3
:100DA0002010012333542B542354135470BC704728
:100DB0000865FF1F90630220EC64FF1FD814FF1F1B
:100DC00080841E002C65FF1F74E3FF1F0465FF1F56
:100DD0004807FF1F4CE2FF1F2DE9F84FDFF8D4B0A2
:100DE000DFF8D4802D4F2E4D2E4EDFF8D0A00024FA
:100DF0008BF8004018F8011B51B19AF80090B9F136
:100E0000010F14D0B9F1020F36D0B9F1000F1ED086
:100E10000134042C07F1010705F1010506F1010673
:100E2000E8D19BF8001000292DD1BDE8F88F397862
:100E3000E0B2FFF79DFF29780029E9D09BF8001068
:100E400009FA04F941EA09018BF80010E0E731786A
:100E50000029DDD1144B1978D1B13978E0B2FFF710
:100E600087FF29780029D3D09BF800100120A040EB
:100E700001438BF80010CBE731780029EAD00B4B07
:100E80000121E154EDE7BDE8F84F0948FFF7EABA60
:100E90003978E0B2FFF73AFFE3E700BF1C65FF1FB8
:100EA0008063022074E3FF1F70E3FF1F7C63022056
:100EB000B013FF1FE00EFF1F1865FF1F896302209C
:100EC00070B5134E134D04460023012044FA03F27B
:100ED000D20744BF985525F813100133042BF5D1E0
:100EE000FFF786FE00230A48194644FA03F2D207A8
:100EF00048BF19540133042BF7D1074B1B7803B1BA
:100F000070BDBDE8704005480121FFF7ABBA00BFD6
:100F100074E3FF1F2465FF1F6AE3FF1F8014FF1F98
:100F200010B541F27073013BFDD12948FFF796FAE5
:100F3000012816D026484121FFF794FA24480621BB
:100F4000FFF7A4FA22480A21FFF78CFA214920482A
:100F50000A22FFF70FFBBDE810401D480021FFF7F4
:100F600081BA04461A48FFF7ADFAFF28E2D11848C3
:100F70004121FFF777FA16480621FFF787FA144850
:100F80000A21FFF76FFA0A2211481249FFF7F2FA15
:100F900021460F48FFF766FA0D485621FFF762FA1F
:100FA00021460B48FFF75EFA21460948FFF75AFA37
:100FB00007487621FFF756FA074B05481978FFF7DF
:100FC00051FABDE8104002480021FFF74BBA00BFBC
:100FD000B013FF1F3C07FF1FFC64FF1F2DE9F04FFC
:100FE000774887B0FFF73AFA002800F0D3817448B9
:100FF000FFF768FA01210346724C7348734A237065
:10100000017000218F2B117000F2C880202B7FD936
:10101000A3F121026E2A7BD8DFE812F04F037A0099
:101020007A007A007A007A007A007A007A007A00F0
:101030007A007A007A007A007A007A007A007A00E0
:101040007A007A007A007A007A007A007A007A00D0
:101050007A007A007A0063037A007A007A008503C6
:101060007A0018037A0032037A00ED027A007A00DF
:101070007A00FC027A009C03B303F2037A0017049F
:101080002C048C047A0068047A00780449037A00FE
:101090007A007A007A007A007A007A007A007A0080
:1010A0007A007A007A007A007A007A007A007A0070
:1010B0007A007A007A007A007A007A007A007A0060
:1010C0007A007A007A007A007A007A007A007A0050
:1010D0007A007A007A007A007A007A00D902D9027E
:1010E000D902D902D902D902D902D902D902D90228
:1010F000D902D902D902D902D9023548FFF7AEF98F
:10110000002840F00582314A1378002B40F06A85B0
:10111000304B314A01931B780292304A30492E4FAE
:10112000DFF8D8A02F4EDFF8C8902F4D059100248E
:1011300014702E4A04928B469046002B00F0B38028
:101140002649337801220A70002B59D1022C284BF2
:1011500000F09081032C00F08281012C00F074815A
:101160001B78002B00F09781224B1F4A126833F83E
:101170001230029A1380204B2A680132B2F5A06F18
:101180002A6064D399F80020C2F1010289F8002096
:1011900000222A6001228BF8002058E0FE2B00F08C
:1011A0004A84FF2B40F02681074B1B78012BAFD1DF
:1011B000084C0194FFF7B4FE074B02932378ACE789
:1011C000B013FF1F69E3FF1F6AE3FF1F68E3FF1F00
:1011D0008014FF1F74E3FF1F2465FF1F70E3FF1FD0
:1011E0004CE2FF1F4807FF1FD814FF1F7C6302203B
:1011F0000465FF1FE81EFF1F9063022060E2FF1FCF
:10120000A64BA749185D039300EB800001EB40213A
:10121000286801EB000C095C9CF8010006F05EFDFB
:101220003178039B388001220029A5D0296802313A
:10123000B1F5206F29600ADB8BF8002099F80020B7
:10124000C2F1010289F80020002232702A6095491B
:1012500013F804E0944B53F824C01A4651F8243094
:10126000013341F82430914951F82E000CF101016D
:10127000814242F8241076D0844500F0D1809AF85B
:10128000001021B38A4951F824108B421FD9894B91
:1012900003FB0EF2884B43F82420884B1988012366
:1012A00088F8003039800134042C07F1020708F176
:1012B00001080AF1010A06F1010609F1010905F127
:1012C00004050BF1010B09D0019BE35C35E798F8AD
:1012D0000030002BE7D0794B1988E3E7784B1B7877
:1012E000002B63D0774E3378002B00F04A81DFF873
:1012F0001882FFF77DFC00247348744ADFF80CE283
:10130000049D88F800402146234627464FF0010CF3
:10131000A24615F8014B6CB113F80E90177005F842
:10132000017CB9F1000F05D00CFA03F941EA09017B
:10133000A246C9B210F8014B01331CB182F800C0BB
:1013400000F8017C042B02F10102E2D154462CB1D9
:1013500088F8001011B15E48FFF784F8012333705C
:1013600007B0BDE8F08F9AF800100029AFD05949B6
:1013700051480EFB01F101F5206140F824100121D4
:1013800089F800108BF800103170002142F8241009
:10139000296077E75048FFF761F800283FF4ADAEC9
:1013A0004D48FFF78FF80221034625E6454A11789C
:1013B000002940F0BF80444B4449059E181D13F896
:1013C000012B012A4FF001054FF000040DD0022A35
:1013D00008BF03F8015C984201F1010106F1010622
:1013E000BED013F8012B012AF1D103F8014C0A7089
:1013F0003270F0E7E32B7FF48BAE384B1B78002B79
:101400007FF486AE3648314C0194E421FFF72AF888
:1014100033480621FFF73AF8324B029323787CE6F3
:101420002448DFF894C025490EFB00F04CF8240056
:101430009AF80000098839804FF0010C88F800C044
:1014400000287FF41FAF2DE75B7813B3264B274AA4
:10145000526833F81230029A5380104B8CE6DB78D6
:10146000ABB1234B214AD26833F81230029AD380B1
:101470000A4B81E69B7843B11E4B1C4A926833F8B5
:101480001230029A9380054B76E61B4BF5E71B4B17
:10149000E8E71B4BDBE71B4B67E600BF90630220CE
:1014A00078E3FF1FEC64FF1F0865FF1F68E2FF1F62
:1014B00050E2FF1F40420F002C65FF1F3407FF1F43
:1014C00070E3FF1F71E3FF1F0065FF1F74E3FF1F41
:1014D000B013FF1F80841E00B813FF1F6AE3FF1FB5
:1014E0008014FF1F2465FF1FE832FF1FD814FF1F61
:1014F000E85AFF1FE846FF1FE83CFF1FE850FF1FA8
:10150000E828FF1FE814FF1FE00EFF1F8063022082
:10151000A44B1B78002B7FF4F6ADA34B1B7803F094
:10152000FF04002B7FF4EFADA048FEF7CBFF214670
:10153000034661E59E48137006F03EFB9D4BD3EDDC
:10154000007AF5EEC07AF1EE10FA7FF634AF9FED37
:101550009A7AF4EEC77AF1EE10FA3FF72CAFDFED8E
:10156000976ABEEE007AA7EEA67AFCEEC77A17EE6F
:10157000902A232A7FF61FAF91498D4806F0D2FAB0
:1015800019E78B4806F018FB8E4BD3ED007AF5EE89
:10159000C07AF1EE10FA7FF6AAAE9FED877AF4EEEC
:1015A000C77AF1EE10FA3FF7A2AEDFED846ABEEE25
:1015B000007AA7EEA67AFCEEC77A17EE902A232AC5
:1015C0007FF695AE7E497A4806F0ACFA8FE67E4A01
:1015D0001278002A00F0B682012A00F0AB827B4A22
:1015E00011887B4C0194803BD8B2FFF769FC794BA2
:1015F0000293237891E56D48754C0121FEF732FF87
:10160000754B6A4819780194FEF72CFF714B0293D1
:10161000237882E56C4B1B78002B7FF479AD63480F
:10162000FEF750FF6D4B3F28044618703FF670AD33
:101630005E48674DFEF76EFF694B019543F8240045
:10164000644B0293FFF730F82B7866E55E4B1B780E
:10165000002B7FF45DAD634C544E04F11005304611
:10166000FEF758FF44F8040BAC42F8D1584C4F48F1
:1016700001940121FEF7F6FE564B029323784CE5C8
:10168000514B1B78002B7FF443AD574D474E05F56A
:101690008077A5F140043046FEF714FF04F8010FEF
:1016A000AC42F8D104F14005BD42F2D1DEE7464B31
:1016B0001B78002B7FF42CADD8E7434B1B78002B15
:1016C00000F0FC81012B00F0EC81404B474C198865
:1016D0003F4D20780195FFF7F3FB3E4B02932B78AB
:1016E0001BE5394B1B78012B00F03A82022B00F0EE
:1016F0003182002B00F03A823D493E4A00230B60C4
:10170000101D12F8013B3F2B8CBF002301238242A6
:1017100001F8013BF5D12E4C0194FFF75DFB2D4BF9
:1017200002932378F9E4284B1B78002B7FF4F0AC6C
:101730001E48274CFEF7C6FE2F4A0194031E18BF11
:10174000012313701948234B02930121FEF78AFEEF
:101750002378E2E41C4B1B78002B7FF4D9AC1348B0
:101760001B4C0421FEF77EFE104801944021FEF739
:101770007DFE0E484021FEF775FE164B029323783E
:10178000CBE4114B1B78002B7FF4C2AC1B4C074EF3
:10179000251D3046FEF796FE04F8010BAC42F8D149
:1017A00064E700BF8B630220886302208014FF1F60
:1017B00040E2FF1F5007FF1F8988884C00007042DD
:1017C000DD0F0000846302206AE3FF1F3CE2FF1F7D
:1017D00074E3FF1F2465FF1FFC64FF1F8C6302205E
:1017E00068E2FF1F50E2FF1F9307FF1FE864FF1F1F
:1017F0001865FF1F1C65FF1F8A63022060E2FF1F40
:10180000B24B1B78002B00F02981B14B1B78012BC8
:1018100000F0B281022B00F0BB81002B00F0B281FE
:10182000AC4B1878AC4BAD4AAD491844151D00249B
:1018300010F8403B02F8013BFF3B18BF0123AA42CE
:101840000C7001F8013BF3D165E7A14B1B78002B2D
:101850007FF45EACA348FEF735FEA34B1870052855
:1018600000F2C481DFE810F0DB00D000BD00B10061
:10187000A6007C00964B1C78002C7FF449AC9B4D55
:10188000984804222946FEF779FE95ED007ADFEDAF
:10189000987A984B9848B4EE677AF1EE10FA58BFF0
:1018A00001241C7006F088F995ED007AB5EEC07A37
:1018B000F1EE10FA7FF6DAAEDFED907AB4EEE77A69
:1018C000F1EE10FA3FF7D2AEDFED8D6AFEEE007A50
:1018D000E7EE267AFCEEE77A17EE902A232A7FF6C7
:1018E000C5AE8849844806F01DF9BFE6784B1B78E1
:1018F000002B7FF40DAC844C7A4E251D3046FEF74C
:10190000E1FD04F8010BAC42F8D1AFE67F4B804912
:1019100080481B880B804FF0013204464B808B803F
:10192000CB80026002910190FFF762F900232360EF
:10193000FFF7F3BB664B1B78002B7FF4E9AB6948DC
:10194000744CFEF7BFFD744B019402461A70654853
:101950006F4B02930121FEF785FD2378FFF7DDBB76
:10196000002110200F22FFF713F96C4B012118788A
:1019700006F0EAFB042200210C20FFF709F9634A74
:101980004FF400431380624962480B804FF00132EC
:1019900004464B808B80CB80026002910190FFF760
:1019A00027F9002323604F480121FEF75BFD2378D0
:1019B000FFF7B3BB594B0021187806F0C5FB1F2277
:1019C00000211020FFF7E4F8D4E7544B00211878E9
:1019D00006F0BAFB1F2200211020FFF7D9F80322DE
:1019E000C9E7002110200F22FFF7D2F84B4B01214D
:1019F000187806F0A9FB012200210C20FFF7C8F897
:101A0000424A00231380BEE7444B0021187806F0B9
:101A10009BFB1F2200211020FFF7BAF8EBE73F4B9A
:101A20000021187806F090FB1F2200211020FFF7FC
:101A3000AFF80022E0E7264C2278002A00F08480EC
:101A4000022A7FF465AB334C26480194FE21FEF751
:101A500009FD2F4B02932378FFF75FBB1C4B1B78CC
:101A6000012B00F0B380022B00F0A480002B00F0CB
:101A700095802B4B2B4C187824781949174D00234F
:101A8000012644FA03F212F0010218BF585503F17F
:101A9000010314BF0E700A70042B01F10101F0D193
:101AA00039E62148214CFEF70DFD03461E48237000
:101AB000FEF716FD1E4B0146188009E609481B4C2F
:101AC000FEF700FD03460748F1E700BF8A630220E6
:101AD0006AE3FF1F48E2FF1F5407FF1F1C65FF1F3B
:101AE0001865FF1F8014FF1F4C07FF1F846302202F
:101AF000000004423907FF1F40E2FF1F8988884C1D
:101B000000007042DD0F0000806302203407FF1FD9
:101B10002465FF1F74E3FF1F896302203707FF1F3F
:101B20008C630220E964FF1FB013FF1FE864FF1FEE
:101B30003CE2FF1F2F48FEF7D3FC2F4A237810808A
:101B400001464EE52D48F6E72D481946FEF78AFC7A
:101B5000227875E72B492A480422FEF70FFDCBE5D2
:101B6000284924480422FEF709FDC5E525492348F4
:101B70000422FEF703FDBFE51E48FEF7A3FC224B3F
:101B800018704FE61D48FEF79DFC1F4B187049E684
:101B90001B48FEF797FC1C4B187043E617481B4C7C
:101BA000FEF790FC034615482370FEF78BFC184B9C
:101BB000187061E71248154CFEF784FC0346104884
:101BC0002370FEF77FFC124B187055E709480F4C45
:101BD000FEF778FC034607482370FEF773FC0C4BB6
:101BE000187049E70B4C2378FFF70BBA0A4B1B8898
:101BF000C9E600BFB013FF1F3CE2FF1F8014FF1FA8
:101C0000B813FF1F1C65FF1F48E2FF1FE964FF1F99
:101C10008C63022069E3FF1F3407FF1F2448254B14
:101C2000254A264910B5C0F89034254BC0F8A43495
:101C3000244BC0F89C3400242923C0F88044C0F809
:101C40008444C0F88C44A0F8984480F8AD4480F8EF
:101C5000B44480F8C44480F8A93409F035FC1A482B
:101C60001A4B03604FF47A731949134A8360446036
:101C700004738464C46409F027FC164B16480E4AAA
:101C800004604FF03C41196080230371134909F04F
:101C90001BFC13491348FEF7DFFB13491348FEF7FB
:101CA000DBFBBDE8104012491248FEF7D5BB00BF70
:101CB000E80EFF1F30C700003007FF1F8905000036
:101CC00003200038C0C600008814FF1FD0C40000E5
:101CD0008D050000E40EFF1F40E2FF1FA505000078
:101CE000C008FF1F8014FF1F6C08FF1FB013FF1FE9
:101CF0005808FF1FB813FF1F2DE9F04F2DED028B81
:101D0000BB49BC48DFF844A3DFF844B395B005F005
:101D100097FD9FEDB58BB649B74805F049FE002405
:101D2000B648C02107F0F2FA19258AF800400221CE
:101D3000284606F041FA012006F09CFA204609F0F8
:101D40001BFDB0EE480AF0EE680A41EC110B08F0FA
:101D500037FB284659EC108B06F020FA07469AF814
:101D6000000009F009FD0246384616460F4609F004
:101D700003FD42464B4609F069FD02460B463046DC
:101D8000394609F0ADFB0AF011F801340346002191
:101D900028468AF8003006F00FFA052C02D01BF80E
:101DA000015FC4E79AF80030954C964E2078C3F155
:101DB0001F0301218AF8003006F0FEF92078924CCA
:101DC000002106F0C1F9914B0121187806F0F4F9D1
:101DD0003078012106F0F0F904F592650023FF2226
:101DE000194684F8B82484F8C434284604F0B8FEB0
:101DF0002846C4F88C5404F0B5F930B90123D4F85E
:101E00008C141A46204603F04FFAD4F88034002B85
:101E100000F0C08000226D461946009201237C4AE2
:101E2000284601F05DFF002840F0D980784A7649C5
:101E3000284640F20223774D03F0A6FA019B6B601F
:101E4000029BAB609DF80C302B7304A905F11000C8
:101E500003F078F9704B009304A803F0B7F9A86C6D
:101E6000002800F0B3806D4901F08EFF6C4F3B7885
:101E7000002B7CD1A86C002800F09F80002102F08C
:101E8000B7F8684C204600F0FFF9674AE37A126819
:101E90002BB372B6E37ADD0708D54FF0E020E56892
:101EA000D0F880112940C0F88011E161980708D569
:101EB0004FF0E0202569D0F884112940C0F8841142
:101EC0002162590708D54FF0E0206569D0F88811E4
:101ED0002940C0F8881161621B0751D462B623689B
:101EE000D968914207D0514C51491C6042F0804062
:101EF000DA60186119603078DFF858814D4C4E4D2A
:101F0000002106F021F9002211461820FEF740FEBC
:101F10004FF00137B8F8003023806380A380E3805E
:101F200000262F60FEF764FE31462E601F2210202F
:101F3000FEF72EFE314603220C20FEF729FEB8F8EC
:101F4000003023806380A380E3802F60FEF750FE83
:101F50003A4B3B4818603B493B482E6041F26F7258
:101F600015B0BDEC028BBDE8F04F05F0DBBDD4F839
:101F70008C040368DB68984700287FF478AF79E722
:101F80004FF0E021A069D1F88C310340A362C1F881
:101F90008C31A3E7D4F884146D4600293FF446AF92
:101FA0000C931B4A0123284600F0D6FE00283FF47C
:101FB0003DAF284600F022FF38E7E86C00283FF4E8
:101FC00060AF0022002300F025FC5AE7E86C0028EF
:101FD0003FF44CAF114A002301F08CF846E7284645
:101FE00002F056FD22E700BF0000000000000040A4
:101FF000F40614005808FF1F6C08FF1FC013FF1FD2
:102000003707FF1F3607FF1FE80EFF1F3807FF1FA8
:1020100098C400008814FF1FACC400000020A10772
:102020007863022094630220E40EFF1F01403F000A
:1020300000003F802465FF1F74E3FF1F84630220BC
:102040000000C842DD0F000040E2FF1FFC64FF1FDC
:10205000ECC400003407FF1F90F81CC04160BCF1C5
:10206000020FC26001D18368184705F07BBB00BF37
:102070002DE9F0410468E56815F0807F764D256014
:1020800048D1DD0700F1C98090F82C601F4646EA70
:102090000626002F00F0B08031B10E784D7846EA68
:1020A000052676BA0231B6B2456895F808C0022F07
:1020B0000CF1FF3C4FEA0C3C0CBF46F0805546F05B
:1020C00010451FFA8CFC6563023F09E012B10EF85F
:1020D000014B7246013B05F47045654516D904680D
:1020E000E56A15F0F00FF6D013F0010FA46B9646D9
:1020F000ECD1C4F307281AB10EF8028B5470724663
:1021000005F470456545A3F10203E8D8002F73D0AC
:102110000468C1E7DD075BD490F82C701E46BFB29F
:10212000002E42D021B14D7811F8027B47EA0527F5
:10213000456895F808C0022E0CF1FF3C4FEA0C3CB4
:102140000CBF47F0805547F010451FFA8CFC6563C3
:10215000023E09E012B10EF8014B7246013B05F454
:102160007045654516D90468E56A15F0F00FF6D09C
:1021700013F0010FA46B9646ECD12AB10EF8024B76
:10218000C4F307245470724605F470456545A3F105
:102190000203E8D84EB10468C4E72AB104F8021B70
:1021A000C1F3072151702246023B7BB10168CC6A22
:1021B00014F0F00FF9D0DD07896B1446EDD512B19C
:1021C00004F8011B2246013B002BEFD1BDE8F08152
:1021D00079B311F8015B012B18BF45F00045656329
:1021E00090F82C705E1E9AE7C1F307251AB104F827
:1021F000025B51702246023B002BE7D00168CC6A9B
:1022000014F0F00FF8D0DE07896B1446ECD512B14C
:1022100004F8011B2246013BEEE799B111F8015B7E
:10222000012B18BF45F00045656390F82C605F1ED8
:102230002DE790F82C70012B1ABF47F0004565631D
:102240006763CFE790F82C60012B1ABF46F000457A
:1022500065636663EBE700BF00041F8010B40024D1
:102260008460C460046144618461C4610462446246
:1022700084628485046344638463C463C0E9001298
:102280005DF8044B704700BF436810B41C685A687F
:102290002168114302682160164C17491460D1600F
:1022A000164C174914611160417A164A5C180C31BA
:1022B00094F82CC053F8214002EBCC0149680C6023
:1022C000017A5C1803EB810194F818C0CC6902EB29
:1022D000CC0149680C60817A5DF8044B581803EB17
:1022E000810390F84000596C02EBC00253681960FA
:1022F000704700BF01401F00011000380110007836
:1023000000001F806CCA000010B4426890F809C039
:10231000104B944400219CF82CC003EBCC0CDCF84F
:102320000440216090F808C094449CF818C003EB66
:10233000CC0CDCF804402160847A00682244064C0E
:1023400092F8402003EBC2035B68196004605DF8FB
:10235000044B70476CCA000001401F000BB1FFF72F
:1023600087BE704770B4826B4B4B1279DA77426B41
:1023700012791A77826B12791A77026B2AB3436843
:10238000DB689A4244D9446B816BD21A236802639A
:102390001D6800F12C04A5424FF001025AD00468D8
:1023A000E56815F0804F1D682AD12D781E6845F02C
:1023B000004501361E606563374B0979D97612B145
:1023C000426B1279DA7670BC70470168334CC36B8C
:1023D0000A63CC62CC6824F08044CC601C6830492D
:1023E00024684FF0030C8C4280F82DC03AD1197F3D
:1023F0005A600229DA603AD170BC9A6818461047D0
:102400002D881E6845F0004502361E606563D3E7DF
:10241000436B1B68DC8B260402F1FF3133D4C1F31C
:102420000E01D983DC8B816BA4B2DC820C68E58B56
:102430002D0420D4C2F30E05E583E58BADB2E58211
:102440001D680024013A046300F12C0418BF012226
:10245000A542A4D10368DC6890F82C4044F0004405
:102460005C63A9E718461146234670BC184770BC48
:10247000184605F077B9E58BC2F3080605F47E45EA
:102480003543E583D9E7DC8BC1F3080104F47E44CE
:102490002143D983C6E700BF0080004000000FFF42
:1024A0005920000008B50248FFF75CFF08BD00BFD7
:1024B0009463022008B50248FFF754FF08BD00BF2F
:1024C000D463022008B50248FFF74CFF08BD00BFE7
:1024D0001464022008B5084A08490948FFF7BEFEFF
:1024E000084A09490948FFF7B9FE094A09490A4853
:1024F000FFF7B4FE08BD00BFF4C4000000C00240F6
:102500009463022088C5000000D00240D4630220FA
:102510001CC6000000C00A401464022070B500F11F
:1025200024038C460546164693E8070084B001ACA8
:1025300084E80700286A4FEA4C12214601F022F98C
:10254000012806D1286A3246214601F0FFF804B07E
:1025500070BD002004B070BD10B5044600F042FD0F
:10256000002384F8313084F8333010BD38B590F84A
:1025700031300BB1002038BD04460D4638221946D3
:1025800009F07EFC0120402384F8313084F83300C8
:10259000256238BD30B40C78202C03D111F8014FDE
:1025A000202CFBD0116091600C783CB3224D0CE0E4
:1025B000A4F1220C5FFA8CFC25FA0CFC1CF0010F34
:1025C00010D12E2C16D10C78C4B12F2C25D03C2C38
:1025D00001F1010109D8212CEAD804F1FF3CBCF13A
:1025E0001E0F16D8002030BC70475C2CFAD00AD9D8
:1025F0007C2CF7D091600C78002CE6D1196030BCAF
:10260000114600F08DBF3E3C012CF3D8002030BCB9
:102610007047202CD7D09160EDE70C46214614F886
:1026200001CBBCF1200FF9D0BCF12F0FF6D019600F
:1026300030BC114600F074BF012100052DE9F04FB8
:1026400090F83330DC0783B005466CD558068B46CE
:10265000904640F1B480D5E90023D5E9041018EB89
:10266000020443F10003A14270EB0303C0F0AD800C
:10267000B8F1000F53D0D5E900324646D5F8209086
:10268000D9F838441C40C4F3080A002C56D113432F
:1026900076D195F831305A064CBFD9F83414E9692F
:1026A000A96199F84534D9F82C240239994011448C
:1026B000B6F5007F4FD3D9F81C228A424BD0B6F52D
:1026C000806F64D34FF0010A0AFA03FAAAEB040AF6
:1026D000730A9A4528BF9A468A424FEA4A240AD387
:1026E0000AEB01039A4206D209F50470019104F045
:1026F00019FF0199B8B1D9F8140207685346D7F801
:1027000014905A46C84770B12346D5E900125B18A9
:1027100042F10002361BC5E90032A344AED1404667
:1027200003B0BDE8F08F95F832304FF0FF3043F042
:10273000020385F8323003B0BDE8F08FAA6999F83A
:102740004534D9F82C04911E9940640A014421446F
:10275000BAF1000FACD0CAF50074B4424FF00002D9
:1027600009F5047028BF344604F008FF0028DAD0C9
:1027700000EB0A012246584605F0BCFA2346C4E79E
:1027800095F83330A9695B060DD5013188E7D9F892
:10279000140203685A461B6998470028C3D04FF4B7
:1027A00000731C46B1E705F11802484601F02CF809
:1027B0000028B8DB0CD0A969D5F8209071E795F80E
:1027C000313019077FF554AF45E7A1EB02084FE719
:1027D00095F8313013F0500FA5D0A8EB060840460D
:1027E0009EE700BFF0B583B001220DF1070104465A
:1027F000D0E900678569FFF721FF012808BF9DF830
:102800000700A56118BF4FF0FF30C4E9006703B0AF
:10281000F0BD00BF2DE9F84F90F83110D0F81880C6
:102820000446002950D01646D0E9002C9C4508BF2C
:10283000B2421F4658D056EA07034AD0080704D5CB
:10284000D4E90403B042BB413ED3D4F8209099F8B8
:1028500045340933751EDBB247F1FF3AC3F120005E
:102860000AFA00FBDD40A3F1200E2AFA0EFA45EA2F
:102870000B0545EA0A0594F833A01AF0400F2FD152
:1028800012F1FF3A2AFA03F34CF1FF3A0AFA00F088
:1028900003432AFA0EFA43EA0A039D4202D352EA9C
:1028A0000C0C24D14B064CBFD9F83434E369A36136
:1028B00004F118094A4675B1A169206A00F0A4FF25
:1028C000002805F1FF35F5DCC4F818800020BDE8CC
:1028D000F88F00238361C4E900670120BDE8F88F09
:1028E000E3692B44A361F6E70120BDE8F88FED1AF8
:1028F000DEE700BF2DE9F04F064690F831008FB0BB
:10290000002840F0D880174691F8312012F0500F7F
:102910008B4600F0D08003F00302032A9A4600F0B1
:10292000CA80013203F0080142EA01030293002F3A
:1029300000F0CA803A6902F10E08B54AA2FB0828E5
:10294000DBE900214FEAD80808F102080A435FFAE0
:1029500088F805D0CBF8180000210020CBE9000151
:10296000029B002443F0400325460393202206A93E
:102970005846FFF763FE00B3202840F09C809DF985
:1029800018209DF81830002AC0F2A18034B9DBF875
:102990000020A2F12009DBF81820019244453CBF39
:1029A0000134E4B2002B00F01281202206A958461F
:1029B0000025FFF743FE0028DED11AF4007F7AD00D
:1029C000029B9B0777D5002F75D0444517D2DDF8C1
:1029D00004A0202206A95846FFF730FE631C0028F9
:1029E00061D0202867D12CB9DBF80020DBF818A0D3
:1029F000A2F12009DCB2A045EBD8CDF804A0382222
:102A0000002130469BF8334009F03AFADBF82030D9
:102A10003362019B7362082386F831303B68C6F845
:102A20002890C4F38014002586F82C407B60BD817B
:102A3000B8F1000F32D008F1FF39DFF8D8A15FFA02
:102A400089F9AB46012259463046FFF767FD044637
:102A500088B390F90020002A2DDB2022002109F004
:102A60000FFA002D00F0BA80BBF1010F00F0D48006
:102A7000C1232370A3461E34BB8938461BB97A682C
:102A8000BB689A4205D004F0A1FD2BF8020FA345C4
:102A9000F2D101355FFA85FBD845D3D8304600F036
:102AA000A1FA05460CE05846DBF8185000F0CAFAC7
:102AB000002840F09080002586F8315086F8335089
:102AC00028460FB0BDE8F08F4FF0030848E755BB2C
:102AD000444538BF0024852B7FF448AF294638226F
:102AE000304609F0CDF99DF81C209DF8193086F884
:102AF000303002F03703D20658BF43F0080386F89F
:102B00003130DBF80030DBF820203262203BDBF88C
:102B100018207262B3629BF83330C3F3801386F8D7
:102B20002C30012522E7C02B28D0C12B7FF43DAFEC
:102B30003A4606A9304600F0CDFCE8B1BB89DBB9C6
:102B4000BA687B689A4217D11AF4006FB3D11AF4AD
:102B5000884F6FD196F833309C076BD41AF4806F8E
:102B6000A9D11AF4804FABD0D6E904233046FFF741
:102B700051FE0028A4D19EE70546F7E6029B86F8A1
:102B800033309DF819309B0744BF039B86F83330E0
:102B90000B9BF361DDE90823C6E90423DDE90C237F
:102BA000C6E90223002FCFD04FF000033A69BB8162
:102BB0009DF81B30396879609A427FF4F6AEBD8A81
:102BC000BDF81C30ED1AB5FA85F56D09CEE6002F7B
:102BD0007FF4F3AE6FE7CBF818500CE78523237032
:102BE00086F8309084F80190DAF80030002B45D058
:102BF0000DF113020DF1160105A89847BDF8143028
:102C00006381BDF8163023819DF81330237540E7AA
:102C100089888888A8640220C0232370029B84F8D6
:102C200001B063F07F0386F833303B69E370BB8A01
:102C3000A3802EE796F83130D8063FF53CAF13F06D
:102C400001027FF438AF1AF4806F8AD096F83310FF
:102C500089077FF530AF002B3FF42DAFD6E9003167
:102C60000B4304D000200021C6E90001B2613046C8
:102C700000F080FA00283FF41EAF21E745F621035B
:102C80006381E381638204E72DE9F043044697B052
:102C9000994694F83130019200201490ADF8140058
:102CA0006BBB91F8313013F0500F0E4627D01378DC
:102CB0002F2B154627D04FF0000813E0019D2F78E9
:102CC000A7B3FFF717FE06463422214608A8B6B17F
:102CD00005F010F8204600F085F908AE84F8318040
:102CE00084F83380294601AB02AA2046FFF752FC44
:102CF0000546002302AA31462046002DDED10020E1
:102D000017B0BDE8F08315F8011F2F29FBD00195FE
:102D100099B938222046356A09F0B2F801204023DB
:102D200084F83130256284F83300E9E74B4602AA83
:102D3000FFF7E0FD17B0BDE8F0833822002108A8B6
:102D4000366A09F09DF801238DF853304023109620
:102D50008DF8513008AEAEE719B101F58961FFF782
:102D600093BF0846704700BF8169F8B50446006A02
:102D700001B10131012200F009FC0128054632D9D8
:102D8000012301461A46206A00F060FC064650B353
:102D9000A3695BB394F83320510612D5591CA9429C
:102DA00018D022F04002E16984F8332005E0206A5F
:102DB00000F04AFDB8B1A36939464F1C99423A4622
:102DC000F5D3206A4FF0FF32294600F03DFD50B1A7
:102DD000A16911B9A5613046F8BD206A2A4600F004
:102DE00033FD0028F6D100263046F8BD94F8333084
:102DF00043F0400384F83330ECE700BF90F8333001
:102E00009A0736D5C16970B50546A1B90024214697
:102E100007E0037803F07F03037095F830308B42AE
:102E200029D301222846FFF779FB0134E1B20028BB
:102E3000EFD1002070BD5B06006A34D5D5E90224CD
:102E400090F845340933013ADBB244F1FF34C3F161
:102E5000200CDA4004FA0CFC203B24FA03F342EA8B
:102E60000C021A430132002300F0F0FB0028CDD100
:102E7000DFE7002070472C6A002385F8313085F8A1
:102E80003330204604F04EFB0028D2D004F5047005
:102E900004F048FB0028CCD0D4F840040368BDE817
:102EA00070401B6A184700F0EFFC0028AED1C0E765
:102EB0002DE9F0414FF00008494F82B006464446E4
:102EC000414600223046FFF729FB054630B1007825
:102ED000C02867D0C1282BD0852809D096F8323079
:102EE00043F00103002086F8323002B0BDE8F081E3
:102EF00096F8313003F03703AB803B6883B10DF1B6
:102F000003020DF1060101A89847BDF80630AB8118
:102F10002B82BDF80430EB816B829DF803306B751A
:102F2000326A92F8103243F0010382F810322878A6
:102F30000146002202E01F2A0FD8A95CE30343EAFE
:102F4000540311FA83F3012A9CB202F10102F2D177
:102F5000852814BF02220422EFE796F8303008F1EA
:102F600001085FFA88F18B42ABD2306A012206F188
:102F7000240100F0EBFB0028B0D0356A44802846DD
:102F800004F0D0FA0028A9D005F5047004F0CAFABC
:102F90000028A3D0D5F8400403681B6A984700288E
:102FA000A3D19BE796F8333013F0400F6B7814BF32
:102FB00043F0020303F0FD036B70D6E90401F369EB
:102FC000326A6B61C5E90201D6E90201C5E9060171
:102FD00092F8103243F0010382F810322878A7E704
:102FE000A864022038B590F8313043B390F933200B
:102FF00090F83330002A04460CDB056A284604F0BA
:1030000091FA78B994F8323043F0010384F8323001
:10301000002038BD03F07F0380F83330BDE838402E
:10302000FFF746BF05F5047004F07CFA0028E9D0EC
:10303000D5F8400403681B6A98470028E2D00120B5
:1030400038BD00BF70B590F831305A0605464CD4F3
:1030500080682B6AD3F83C341844B0F1806F01D3F8
:10306000002070BD2846FFF77FFE0028F8D0286AB0
:10307000AE6990F84524D0F82C34023E96401E44A8
:1030800000243119052200F5047004F077FA0134A8
:103090004FF4007200210028E2D008F0F1FE286A07
:1030A00090F84524012393409C42EAD395F83130AF
:1030B0005B0615D495F83330AA6863F07F0385F872
:1030C0003330D0F83C142B69E8685218AA606A695A
:1030D00040F100005B1842F10002C5E90432E860EB
:1030E0002846BDE87040FFF77DBF006A00F09AFCFB
:1030F000AFE700BFF0B51E4652EA060383B036D0F4
:1031000090F833309B07044631D5C16979BB006A1A
:1031100090F845340933DBB21546013A46F1FF3CDD
:10312000C3F120070CFA07F7DA40203B3A432CFAA8
:1031300003F31A430132019200F028FA01280746EE
:1031400015D9019A206A0123394600F07FFA70B13F
:1031500094F83330A56063F03F032046E660E761F2
:1031600084F8333003B0BDE8F040FFF73BBF0020E8
:1031700003B0F0BD90F833309A0762D570B5C569D9
:1031800082B00446A5B313F0400634D0006AA268AA
:1031900090F845C4E1680CF1090C5FFA8CFC013A27
:1031A00041F1FF31CCF1200E22FA0CF201FA0EFEB1
:1031B000ACF1200C21FA0CFC42EA0E02A16942EAB1
:1031C0000C02013219B3013D6D1A01312A440191FB
:1031D00072BBD4E9000163F07F03C4E90201C4E9D2
:1031E000040184F833302046FFF7FCFE02B070BDC6
:1031F000012002B070BD816961B90195C161206A89
:10320000294600F041FBC8B194F83330E1E701955D
:10321000E161DDE7006A019601AA00F0F5FA0028F5
:103220000CDB10D1019D002DE9D194F83330D0E7AB
:103230000199002300F00AFA0028E5D1002002B02D
:1032400070BD00207047A169206A4FF0FF3200F086
:10325000FBFA0028E6D1F1E72DE9F04790F833308A
:103260009D07044640F1A38092461A070E4600F1DE
:103270009780BAF1000F00F0278123685546206A35
:10328000A169D0F8382402EA0309C9F30808B9F1A2
:10329000000F40F09580002900F0D48094F833307E
:1032A0005B0640F1EC80D4E9023290F845C40CF1A1
:1032B000090C013B5FFA8CFC42F1FF32CCF1200E8D
:1032C00023FA0CF302FA0EFEACF1200C22FA0CFCED
:1032D00043EA0E03E26943EA0C031344994280F087
:1032E000D5800131A16190F84524D0F82C34023901
:1032F00091401944B5F5007FC0F08D80B5F5806F21
:10330000C0F0A68001239340A3EB09036A0A93420D
:1033100028BF1346D0F81C228A424FEA43290AD319
:1033200003EB010C624506D2002280F810224FF018
:10333000FF32C0F81C22D0F814020268D2F82880AC
:103340003246C04798B34B46D4E900125B18216956
:10335000606942F1000299429041C4E900324E4452
:10336000A5EB090507D294F83310236161F07F01C2
:1033700084F833106261002D81D1D4E902019842B2
:103380009141C0F09480524B1B68002B00F09A8052
:1033900094F8333063F07F03504684F833300DE007
:1033A000D0E90423FFF736FA00287FF462AF94F8DF
:1033B000323043F00103002084F83230BDE8F0875A
:1033C00090F84524D0F82C3402394FEA592991401D
:1033D00049441944B8F1000F8CD0C8F50079A945CB
:1033E0004FF0010200F5047028BFA94604F0C6F8AA
:1033F0000028DCD040444A463146C84404F07AFCF8
:10340000B8F5007F206A9ED100F5047004F08AF8B8
:10341000002898D1CBE7226827696369BA426268BD
:1034200072EB030312D2012200F5047004F0A6F837
:103430000028BCD02A463146404404F05BFCA94633
:103440002B4681E7E16949B3A1614CE70522EBE72F
:10345000D0F81C328B4206D1002380F810324FF096
:10346000FF33C0F81C32D0F81402036832465B6A9E
:10347000984700289BD04FF40073994664E704F105
:10348000180200F0C1F9002891DB04D12046FFF7B3
:103490006BFC00288BD0A169206A24E72046FFF747
:1034A00063FC002883D0A169206AE1611BE794F8DE
:1034B0003310A36061F07F0384F83330E26050463C
:1034C000BDE8F087504679E7D4E9003255E700BF00
:1034D000A86402202DE9F0410C46154601F11E08B2
:1034E000AB8934F8027F28461BB96A68AB689A42F8
:1034F0000ED004F06BF804F0D9F80646384604F014
:10350000D5F8864209D14445EAD10120BDE8F081D1
:10351000B7FA87F04009BDE8F0810020BDE8F081EE
:1035200070B50C460A68626000231946A3812361C6
:103530001E464FF6FF7517E004F048F8A84222D067
:1035400004F0B4F8F30343EA560353FA80F399B254
:103550002269C3F34E0343EAC133000A10FA83F32E
:103560000132A18922619EB220460029E4D162681D
:10357000A3689A42E0D12069A6820138FE288CBF58
:103580000020012070BD002070BD00BF2DE9F84F64
:10359000074691468A46002942D0D7F83034A1F137
:1035A0000208434542D908F0070301259D40C8F3AE
:1035B000C80BEDB246464446D7F82C14002201EB66
:1035C0001431384603F0DAFFE8B10BF1FF3B8344D6
:1035D00000F2FF101BF8011F0AE04A452BD0A0455E
:1035E00010D0D7F83054A54214D913F0FF050CD0F1
:1035F000013429424FEA4503A4EB0602EDD0A04571
:103600002646EED10120BDE8F88F58454FF0010560
:10361000E0D101E00026344601254FF0000BCBE756
:10362000D0F82084D7F830344345BCD84FF0000898
:103630000125C346BEE7BAF1000F04D1B9F1010F6D
:1036400008BFC7F82064B01CBDE8F88F2DE9F84327
:10365000154698468A1ED0F83034511999423AD806
:103660000646B8F1000F39D1D0F82034934288BF14
:10367000C0F82024D6F82C7402F0070301249C40E3
:1036800007EB1231C2F3C809E4B2012230468F18A9
:1036900003F074FFF8B109F1FF3E864400F2FF1019
:1036A0001EF801CF1CEA040F14BF0122002242457C
:1036B0008CEA040C4FEA44040DD0013D8EF800C0A2
:1036C00018D014F0FF04EDD17045A1464FF001046D
:1036D000E6D13946D9E70020BDE8F883D0F82004C8
:1036E0009042C7D38142C5D9994228BF0021C6F86C
:1036F0002014BFE70120BDE8F88300BFF8B5D0F87B
:10370000303401338B4201D20020F8BD07460C460D
:1037100000F50476002506E0D7F830340133A342E3
:1037200005F10105F0D3D7F82414002201EBD411E0
:10373000304603F023FFA400C4F308040028E3D0BC
:103740000459631CE8D1681CF8BD00BF38B50C46AD
:103750000B6890F845C4D0F838146568023B2940DE
:1037600003FA0CF303EB5123D0F82C1400F504708A
:10377000194403F003FF18B16368C3F30803184446
:1037800038BD00BF2DE9F843D0F838340C464968FD
:103790000B401144616090F84514134401F1090293
:1037A000D2B2D3402BB380465D1E00F5047905E00C
:1037B0002368013D03F1010323601AD3267A002E0A
:1037C000F6D1D8F83034276801339F423246484654
:1037D00012D8D8F8241401EBD71103F0CFFEBF00A4
:1037E000C7F3080740B1C3595A1C09D0013D2360F3
:1037F000E4D20120BDE8F8834FF0FF30BDE8F88344
:103800003046BDE8F88300BF38B5D0F83034013316
:103810008B4202D24FF0FF3038BD0C46D0F8241452
:10382000154601EBD411002200F5047003F0A6FE4A
:103830000028EFD0A400C4F3080403595A1C1ABF8F
:103840002B600120002038BD01291BD938B5D0F8E4
:10385000303401338B420C4601D2002038BDD0F801
:103860002414154601EBD411012200F5047003F075
:1038700085FE03460028F0D0A400C4F3080401200C
:103880001D5138BD00207047D0F8303401339942C3
:1038900001D9002070472DE9F04F054681B00C4654
:1038A00000F504790F464FF00008D5F824140022E3
:1038B00001EBD411484603F061FEE30998B14FEAE9
:1038C000840BCBF3080B50F80B20511C16BF164687
:1038D0004FF0000A4FF0010A012C04D9D5F830242A
:1038E0000132944203D9002001B0BDE8F08FD5F831
:1038F000241401221944484603F040FE0028F2D067
:1039000040F80B80BAF1000F12D00134B44208D055
:103910000023E21B39462846FFF798FE0028E2D034
:103920003746D5F830340133B342DCD33446BCE7F4
:10393000621C5346D21B3946284601B0BDE8F04F01
:10394000FFF784BEF8B5044600234FF0FF3004F5BE
:103950000477C4F840146160E060C4F81412C4F83D
:103960001C02154684F84434237084F810321A4639
:103970001946384603F002FE042D0CD8064650B115
:103980005DB927490522F01C08F0CCFA18B996F861
:103990006C30092B19D00020F8BD6B1E00EB03130F
:1039A00093F8BE2112F07F02F5D193F8C231002BBB
:1039B000F1D000EB05163846D6F8B651294603F08B
:1039C000DDFD06460028DCD1E5E7336D2B44C4F865
:1039D0002434736DC4F82834B36D2B44C4F82C34EC
:1039E000F36DC4F83034336EC4F8343496F86D2077
:1039F00084F84524012502F1090305FA03F3C4F80C
:103A00003C34013BC4F83834C4F8200401462A464B
:103A10002046FFF7BBFD402384F844342846F8BD18
:103A2000B0C6000010B50446D0F83414FFF766FEA7
:103A300094F845340933DBB2984010BD70B590F965
:103A40000230002B82B004460DDBA56805F128008A
:103A500003F068FD00283BD1637843F001030020A8
:103A6000637002B070BD8068A1690122283003F044
:103A700085FD0028F0D0A58805F00F056B0100EB4F
:103A80004515C35CE52BE7D02378184A1B0744BFD4
:103A9000E369EB61236A16686B831A0CAA8266B12C
:103AA0000DF103020DF1060101A8B047BDF8043085
:103AB000BDF806202B836B82EA82A378A56803F009
:103AC0007F03A37005F1280003F02CFD0028C3D06C
:103AD00005F50E7003F026FD0028BDD028680368A8
:103AE0001B6A98470028B7D0BBE700BFA864022034
:103AF000024638B552F8105F04462946806801F046
:103B0000A1F950B155B123690135AB42A37818BF73
:103B100003F0BF0363F07F03A37038BDA37843F0C5
:103B20004003F7E7F8B5047814F0200404D11A4BE9
:103B300042699A42054602D300273846F8BDFFF78E
:103B4000D7FF07460028F7D0A8682E698279416917
:103B5000023E96400E440179A9B1214606E008F0E4
:103B60008FF9A8680279E1B28A420BD93144052263
:103B7000283003F003FD01344FF4007200210028C7
:103B8000EDD1D9E7827969694FF40073934011FA56
:103B900083F36B613846F8BD00FE1F0010B5044684
:103BA00080680A462830A16903F0E8FC20B1A388A8
:103BB00003F00F0300EB431010BD00BF10B50378F6
:103BC00004462BB1FFF73AFF00232370A37010BD0A
:103BD00000232370A370012010BD00BF2DE9F04128
:103BE000044694B098462378019200200290ADF8E4
:103BF0003800002B36D10B7813F0700F0E4631D001
:103C000013782F2B154631D000271EE0019D2D780B
:103C1000002D40D000F08EFDA6460DF1080C08B333
:103C2000BEE80F006646ACE80F00BEE80F00ACE847
:103C30000F002578DEF80030CCF8003020460DB1BA
:103C4000FFF7FCFE019D2770A770294601AB0BAA68
:103C5000204600F0B7FE05460BAA31460023204659
:103C6000002DD3D1002014B0BDE8F08101350195BD
:103C700029782F29FAD0A9B9B5682422204608F05E
:103C8000FFF8A560EB79102B03D0202B22D00C2B52
:103C9000E8D120231FE043460BAA00F04BFD14B0EF
:103CA000BDE8F081B6682422002102A808F0E8F8F7
:103CB0000496F379102B03D0202B03D00C2BD1D1F9
:103CC000202300E040238DF8083001238DF80A30CE
:103CD00002AE99E7402301202370A070C3E700BF24
:103CE00019B101F58961FFF779BF0846704700BF38
:103CF000CB6870B50D46044693B906780EB11846E8
:103D000070BD8D682422314608F0BAF8A560EB79C1
:103D1000102B19D0202B11D00C2B15D0304670BD94
:103D20002422002108F0ACF8012310222270A37095
:103D3000A968EA682262A160184670BD402201238A
:103D40002270A370184670BD2022F8E770B5047881
:103D50000CB1002070BD05460E462422214608F015
:103D60008FF8AE60F379102B0BD0202B03D00C2BE7
:103D700007D0204670BD402301242B70AC70204634
:103D800070BD2023F8E700BF09B338B583789B07DF
:103D900004461AD5036AC3B98068837909330D468E
:103DA000DBB20139D94004F12002013101F096F86B
:103DB00058B1A3782278E56163F01F03A3702AB19C
:103DC0002046BDE83840FFF739BE002038BD00204E
:103DD000704700BF2DE9F04F2DED028B8378DF0790
:103DE00083B0054640F18D80884601780E079246E3
:103DF00000F192808C0608D583685A894369C3EB29
:103E000042139BB29A4528BF9A46BAF1000F00F0C0
:103E1000B0806A69AF6805F11003880608EE103AB1
:103E200056464FF00009C2F3080B3DD5396A01EB45
:103E30005221BBF1000F51D1B6F5007F4ED37A6B02
:103E400091424BD0B6F5806F6FD3287880064FEA49
:103E5000562305D43879A0EB0900834228BF0346D6
:103E600091424FEA43240CD8C818824209D207F184
:103E70002800CDE9001303F055FBDDE9001300280D
:103E80003FD0F86A026857694246B847002838D0E0
:103E90006A69361B2244A0446A616AD02978AF68F7
:103EA0008806C2F3080BC1D497F8059009EA522995
:103EB000BBF1000F37D1B9F1000F34D1002A3ED148
:103EC0004A064CBF3A6A2A6A2A61B9797869023A85
:103ED0008A4048441118BBF1000FADD0CBF50074F7
:103EE000B4424FF0000207F1280028BF344603F027
:103EF00045FB30B100EB0B012246404603F0FAFED1
:103F0000C6E76B784FF0FF3043F002036B7003B0ED
:103F1000BDEC028BBDE8F08FC36942699B1A9A45DC
:103F200028BF9A4671E72A69CFE7F86A03684246D4
:103F30001B6998470028E4D04FF40074A8E70B07EA
:103F400005D5AA78540602D52A690132BCE7296949
:103F500018EE102A384601F027F80028D1DB02D0ED
:103F6000AF682A69B1E72B7813F0700FC9D0AAEBBC
:103F7000060A504603B0BDEC028BBDE8F08F00BFCF
:103F800070B582B001220DF107010446466905694A
:103F9000FFF720FF012808BF9DF80700666118BFE2
:103FA0004FF0FF30256102B070BD00BF30B54369EE
:103FB00013F4F07F83B00446C3F3431500D089B9EE
:103FC00001220DF107012046FFF704FF40B201284E
:103FD0000BD163691F336361A068383000EB451073
:103FE00003B030BD20334361F6E7002003B030BD9D
:103FF0002DE9F041037807690446002B3AD00D46BD
:104000004169A94243D0002D38D018072BD5E26969
:10401000AA422FD3D4F808C0A2789CF80600093031
:10402000C0B26E1E12F0400F26FA00F632D14A1EC0
:10403000C240964201D3002930D15B064CBFDCF868
:104040002030236A236104F1100807E02169A06889
:1040500000F0AAFF002806F1FF360BDD4246002ED5
:10406000F4D1A2780CE09A06D4D5A3685B89B5EBAD
:10407000431FF6D927610020BDE8F08182780561F1
:1040800022F02002A27065610120BDE8F0810120CC
:10409000BDE8F081236A33442361F1E7B61AD2E721
:1040A0002DE9F041884615460021242204461F468A
:1040B0009DF8186007F0E4FED8F80800D8F8203022
:1040C000A58000F1380205F00F0502EB4512E36010
:1040D000A060D17A0D0712D401F017012170D37AB4
:1040E000E67013F0180F08BF41F0080107F0030352
:1040F00008BF2170012B33D0022B05D0DBB100208B
:104100002070A070BDE8F08103232178CD06F6D49D
:10411000CE07F4D407F008010B43A370958A518BA6
:1041200041EA0541456BA5617D0511D509BB63F0E9
:104130007F03A3700FE07B05E1D407F0080343F091
:104140000103A370416B938AA161518B41EA034142
:104150002162D369E3617E0404D40120BDE8F081CB
:104160000223D2E7E1692046FFF742FF0028F4D19D
:10417000C5E700F02BFF0028C1D0A378D7E700BF28
:1041800003780BB1FFF75ABC012070472DE9F047C7
:1041900083789C0705467BD588461907914600F130
:1041A000BD806B6913EB090272D2B9F1000F44D0E4
:1041B0004F464FF4007AA8682969447914EA5324D9
:1041C000C3F3080643D1002E73D100297ED0AA780C
:1041D000520603D5EA699A4200F28F8005F1100277
:1041E00000F0E2FE002853DB00F09180A868296906
:1041F00083790239994043691944B7F5007F4ED35A
:10420000B7F5806F66D303797A0A1B1B934228BFE8
:104210001346426B8A424FEA432402D35E18B242ED
:104220006ED3C06A0268966A4246B04780B36B6933
:104230003F1B2344A0446B61BDD1EA699A427DD201
:10424000AA78EB6162F07F03AB70484625E0827983
:1042500043690239914019442144002ECDD0C6F55E
:104260000074BC4228BF3C460122283003F086F986
:1042700070B1304422464146264403F03BFDB6F57A
:10428000007FA868D3D1283003F04CF90028CED1A4
:104290006B7843F0010300206B70BDE8F0876A691A
:1042A000EB69BA45544628BF3C469A4207D30522DB
:1042B000DBE782794369023991401944CFE7AB7853
:1042C00013F0200F14BF05220122CEE7296A61B343
:1042D00029618DE7436B8B4205D1002380F828309C
:1042E0004FF0FF334363C06A036842465B6A9847F6
:1042F0000028CDD04FF4007499E70131296177E7A8
:10430000002280F828204FF0FF32426389E72846D8
:10431000FFF7EEFB00287FF469AFB9E7C169FFF74B
:1043200067FE00287FF43DAFB2E72846FFF7E0FBC9
:104330000028ADD02969A868296259E7054B1B6898
:104340002BB1AB7863F07F034846AB70A5E74846D6
:10435000A3E700BFA86402202DE9F04F8DB084468A
:10436000156801931446984606468946BCE80F0036
:1043700003AF0FC7BCE80F000FC7DCF800303B608D
:104380004FF0000E43466560A4F80CE0002B3FD0D0
:104390004FF0010AA9EB0A0189B2490103A8FFF70E
:1043A00027FE50B3002103A8FFF700FE074620B305
:1043B00000250DE003F00AF98046584603F076F92F
:1043C0008346404603F072F9834516D10D2D18D06F
:1043D000EAB23946304600F001FCA3898346013534
:1043E0002046002BE6D16368A2689342E2D1BBFA73
:1043F0008BF040090DB0BDE8F08F00200DB0BDE896
:10440000F08F019B0AF1010A5FFA8AFA5345C1D283
:104410000120EFE72DE9F04F8DB0074616460191D8
:104420009A4602F1150402F120050FCF0DF10C0C94
:10443000ACE80F000FCFACE80F003B68CCF80030C1
:104440004FF0000914F8012F4FEAC91343EA59034A
:1044500052FA83F3A5425FFA83F9F3D133687360AC
:104460004FF00008A6F80C80BAF1000F4BD00127DE
:10447000019BD91B89B2490103A8FFF7B9FD0028A8
:1044800052D0002103A8FFF791FD00284CD0059AD7
:1044900092F8283043F0010382F828300F23574563
:1044A000C3724FF000030CBF47F040023A4603735B
:1044B0004FF00003027080F80D90438300F1010B70
:1044C0000124002506E0ABF8000001340135E4B218
:1044D0000BF1020BB08918B97268B3689A4216D012
:1044E000304603F073F8042DEBB2ECD90A2B02D856
:1044F000ABF80300E9E70D2CABF80500E5D1013777
:10450000FFB2BA45B4D201200DB0BDE8F08FB8F1CA
:10451000000F06D008F101085FFA88F84FF6FF7027
:10452000E1E74FF00108DEE700200DB0BDE8F08FB5
:104530002DE9F843054650F8164BAE680B222021B2
:1045400007F09EFC23782E2B14BF0120002003D1FE
:1045500014F8013F2E2BFBD0721EA24209D913463C
:1045600002E09C421A4604D01A46013B11782E29DB
:10457000F7D1A6424FF0000E7CD907277146F146CD
:104580004FF0080823782E2B25D0222B25D07C2B0A
:1045900023D0A3F15B0CBCF1020F1ED9A3F12A0CAE
:1045A000BCF1050F51D9A3F13A0CBCF1050F5AD952
:1045B000A3F1210CBCF15D0F55D8B9422BD8A3F162
:1045C000610CBCF1190F46D8203B4EEA080EDBB255
:1045D0005FFA8EFE05E0A24231D0B9421BD800201E
:1045E0005F2301F1010C294401348B755FFA8CF3D0
:1045F000062B98BF2B751946B442C3D3AB7D202B35
:1046000010D090B11EEA090F18BF4FF0020E85F8C6
:1046100015E0BDE8F8830A2F01D0A24218D2AB7D85
:10462000202B02D10020BDE8F8832B7D2B440120F4
:104630007E21312268759975DA75BDE8F883541CBE
:104640000A2708214FF01008D6E72D2BB5D0C4E774
:1046500014460020D0E7A3F1410CBCF1190F98BF1C
:1046600049EA0809BDE703F0C003802BB5D1013446
:104670000020C1E7F146C1E72DE9F04FDFF8B0B007
:1046800091F8148083B00F4604464FF0620900256C
:104690004FF07E0A01F11606DBF800300193019B12
:1046A000B8F1030F2B4428BF4FF003089DB208F167
:1046B0000403DBB205F00F02F918013B092ADBB253
:1046C00094BF3032373298458A754FEA1515F1D1CB
:1046D00007EB0803002183F816A02046FFF788FCAB
:1046E00001212046FFF762FC03460B2230461946A3
:1046F00093B193F800C0BCF1000F14D0DB7A1B0714
:10470000EED407F08DFB0028EAD109F1FF3919F04A
:10471000FF09C1D1484603E06078B0FA80F0400953
:1047200003B0BDE8F08F012003B0BDE8F08F00BFFB
:10473000C06402202DE9F04F2DED028B0E468BB0A8
:10474000896803933378059113F0700F029052D06B
:10475000029B1B78002B4ED113699246974A0C336B
:10476000A2FB0323C3F387029AF815300692980739
:104770004FF0000318BF571C194630461C460793DC
:1047800014BFFFB20127FFF733FC0AF1160308EE4E
:10479000103AA346A146A04604947569002130460C
:1047A000C5F34F15FFF702FC10B30378E52B28D0B3
:1047B0003BB3BC4238BF00242E2B2CD0C27A0F2A28
:1047C0002CD012F0080226D1B9F1000F40F0D380AE
:1047D00018EE101A0B2207F023FB0028DDD19AF8FF
:1047E000153013F0010300F0DD8001230493D4E7BA
:1047F0007378002B3CD000200BB0BDEC028BBDE8E1
:10480000F08F002C08BFA846BC423CBF0134E4B284
:1048100073B3E52BD0D14FF00009BEE7B9F1000F1B
:1048200019D1069A03F01F0B5A45B6D113F040096F
:10483000B3D0437B07939146BBF1010FADD1691C07
:104840004B4689B252463046FFF786FD002808BF26
:104850004FF00009A1E70BF1FF3B5FFA8BFB5B45D3
:10486000D9D1437B079A9342E6D04FF0000994E7F1
:10487000039B9A05BFD503F00303013B012BBAD874
:10488000002C08BFA846BC4203D31CE0DCB2A74200
:1048900019D000213046FFF789FB631C0028F5D1B1
:1048A0007378002BA7D1BC420DD2059D05E02B7972
:1048B00004EB0314E4B2A74205D93046FFF732F9FE
:1048C0000028F4D197E7049B002B4DD17B1EDBB26F
:1048D00008EB0305ADB25246294630460493FFF774
:1048E00099FD002887D069013046FFF781FB002839
:1048F00081D000213046FFF759FB044600283FF4E1
:104900007AAF2022002107F0BBFA0B220AF1160130
:10491000204603F0EFF99AF81520049B02F01802E4
:104920002273274A1768002F41D00DF123020DF1A1
:10493000260109A8B847BDF824202282BDF8262008
:10494000E281049B9DF823206273059991F8282049
:1049500042F0010281F8282000930298039B2A4626
:104960003146FFF79DFB47E751463046FFF784FE8F
:104970000028ABD13FE7BBF1010F7FF43CAF00F162
:104980000A04194601E010F8011FD30143EA52035B
:1049900051FA83F3A042DAB2F5D1079B93427FF438
:1049A0002AAF4B46039A11053FF525AFD4E745F6EC
:1049B0002102228222836282C7E700BF4FECC44EED
:1049C000A8640220F0B508460978202983B014466F
:1049D0001E4603D110F8013F202BFBD02060037846
:1049E00033B32A4D002712E07F2B07F101073DD892
:1049F0003C2BD9B22CD8212925D92239C9B225FA84
:104A000001F1CA0721D42E2B0DD1037883B12F2BAE
:104A10002FD0011D01AA02F0FFFDB0B1019BB3F53B
:104A2000803FE1D302372761A0600378002BEED1ED
:104A30002369013BFE2B08D83060204603B0BDE857
:104A4000F040FFF775BD1F290ED8002003B0F0BD60
:104A50005C29FAD004D97C29E5D1002003B0F0BD4F
:104A60003E390129F1D9DEE72E2BCED0202BCCD038
:104A7000D9E72369013BFE2BE7D80346184613F814
:104A8000012B202AFAD02F2AF8D0D5E701210005E2
:104A9000F0B583788BB0002201929A0724D5016A81
:104AA000054619B1806800F091FAE8B10121284665
:104AB000FFF774F8C0B1421E00F10A0C002412F88E
:104AC000011FE30143EA540351FA83F39445DCB236
:104AD000F5D1E5270770AE6800232B70AB7006F1A7
:104AE000280002F01FFD10B900200BB0F0BD06F544
:104AF0000E7002F017FD0028F6D0306803681B6ABC
:104B000098470028F0D0EB78002BEED0294601A87A
:104B1000FFF7EEF80028E7D0EB78002BE4D0012671
:104B200021E001A8FFF742FA731CF1B25FFA83FC9F
:104B30009EB20028D8D0C37A0F2BD5D1027802F0CC
:104B40001F038B42D0D1437BA342CDD10770A9680C
:104B500091F8283043F0010381F8283053060DD432
:104B6000EB786345C0D3A988891B89B2490101A8A4
:104B7000FFF73EFA00210028D3D1B5E7AC6804F175
:104B8000280002F0CFFC0028AED004F50E7002F031
:104B9000C9FC0028A8D0206803681B6A9847A4E7CE
:104BA0002DE9F843DDF82090A2B105460C46984661
:104BB000571801E0BC420DD02B68204649465E6A7A
:104BC000C0472146024628460134B0470028F1D1AB
:104BD000BDE8F8830120BDE8F88300BF042A04D8AB
:104BE00001EB4202B2F8010070470A2A03D801EB38
:104BF0004202908870470C2A9ABF01EB4201C88894
:104C0000002070472DE9F843DDE90898BBB105465F
:104C10000C4616465F1802E0C847BC420FD02B680E
:104C200021461B693246284698470346424620469D
:104C300031460134002BEFD11846BDE8F88301233B
:104C40001846BDE8F88300BF2DE9F843C379202B4F
:104C500004460D46174653D0102B2AD00C2B4BD1AF
:104C6000027A8369C1F34E0111FA85F1A2F10202C1
:104C70008EB2B2FA82F2C1F3462101EB0308520967
:104C800000F50E7952004146484602F077FC98B391
:104C9000C6F30806731CB3F5007F865D1ED018446A
:104CA0000378EA0746EA03234CBF1B09C3F30B034F
:104CB0003AE0027A8369A2F10202B2FA82F2C1F307
:104CC000072152095200194400F50E7002F056FCFB
:104CD00090B16D0005F4FF75435B25E0227AA2F1E7
:104CE0000202B2FA82F2520908F10101484652006A
:104CF00002F044FC0028D3D14FF0FF30BDE8F88328
:104D0000027A8169A2F10202B2FA82F252095200D9
:104D100001EBD51100F50E7002F030FC0028EBD04D
:104D2000AD0005F4FE754359E2699A4226BF3B6027
:104D300001200020BDE8F8832DE9F843C379202B3A
:104D400005460C46164648D0102B2DD00C2B41D1D1
:104D5000C1F34E01836911FA84F11FFA81F8C1F39E
:104D60004621CF18037A00F50E79022B14BF0122D9
:104D700003223946484602F001FC58B314F00104FE
:104D8000C8F308033FD0C25C02F00F0242EA0612E9
:104D9000C2540133B3F5007F3AD0C6F3071218446A
:104DA00002700120BDE8F883027A8369022AC1F308
:104DB0000721194400F50E7014BF0122032202F0EE
:104DC000DDFB034630B1640004F4FF7401201E5380
:104DD000BDE8F8830020BDE8F883037A8169022BDF
:104DE00014BF0122032201EBD41100F50E7002F072
:104DF000C5FB03460028EDD0A40004F4FE74012096
:104E00001E51BDE8F883C6540133B3F5007F14D1B9
:104E10002B7A022B14BF01220322791C484602F090
:104E2000ADFB0028D6D0C6F30712002CB8D103780A
:104E300023F00F0343EA1212B2E7C6F30712184435
:104E4000F5E700BF2DE9F041C4688C4282B0054609
:104E50000E4690462EBF01270C460027EB69013411
:104E6000A34201AA284605D29FBBEC6801273C4417
:104E7000A3422ED3A64221462BD0012C29D9FFF7DD
:104E8000E3FE002825DBE9D0019B002BE6D107B12A
:104E9000EC60EB69A3421CD36FF0704221462846B8
:104EA000FFF74AFF0746A0B13EB96B6A002B01DB52
:104EB000013B6B62C8F800400CE0012E09D0EB69A1
:104EC0009E4206D8314622462846FFF735FF002885
:104ED000EBD10027384602B0BDE8F0812DE9F0475C
:104EE000C468C36901349C4282B026D8012C24D9FD
:104EF00005460F46904626464FF001090AE0621C1F
:104F0000911B88B1B9421ED0EB691446A34214D359
:104F1000012C12D9214601AA2846FFF795FE002848
:104F20000BDB019B002BEAD0EB69A64218BF4FF0C8
:104F300000090134A3422646EAD24FF00009484650
:104F400002B0BDE8F087B9F1000F00D0EC60EB696A
:104F50009C42F2D86FF0704221462846FFF7ECFEE3
:104F600081460028E9D004F1FF3AA6422246514684
:104F7000284611D2BAF1010FDFD9EB699A45DCD886
:104F8000FFF7DAFE0028D8D0544604F1FF3AA642D3
:104F9000224651462846EDD36B6A002BA4BFDB1B8B
:104FA0006B62C8F80060CAE701290CD910B4C46963
:104FB0008C4203D35DF8044BFFF746BE4FF0FF3041
:104FC0005DF8044B70474FF0FF30704770B50546F1
:104FD00082B00C461DE0EB699C421FD8FFF734FEFF
:104FE0000646002E21464FF00002284616DBEB69EC
:104FF0009C4213D8FFF7A0FE80B16B6A002BA4BFC0
:1050000001336B62EB68621EA34288BFEA60019CB9
:105010002EB1012C214601AA2846DCD8002002B07E
:1050200070BD00BF70B504460023012015464FF047
:10503000FF322160E371E06004F12806E162C4F808
:105040003C1284F8283084F838326263C4F8442271
:10505000CDB1042D01D9002070BD19461A46304645
:1050600002F08CFA05F18055013D00F5DF7329014E
:1050700003EB05150028EED02A79002AEBD05B5C03
:105080005B06E8D1AD6800222946304602F076FA88
:105090000028E0D0B0F80B30B3F5007FDBD1037C03
:1050A0002372013B012BD6D8467B2671731E00224A
:1050B000012E6371A2710ED0012213465B00DBB298
:1050C0009E4202F1010105D0CAB2092AF6D1082395
:1050D000A371C0E7A271C68A26610EB9466A26612D
:1050E000C189B0F8113063812944A16190F810C0E2
:1050F0005B0106FB0C1103F2FF1301EB532321624A
:10510000B0F81310636101B9016AED1A6B18D3404E
:105110005A1CE2614FF0FF32626240F6F472934231
:105120000CD94FF6F47293420AD9C36A2362202342
:10513000E3712663C4F84062012070BD0C23F7E7D9
:105140001023F5E7884270B504461FD0806B0D46EA
:1051500010B1FEF733FD60BBE06B10B1FDF7FCF959
:1051600068BBAE6BA6B12146242000F09BF800235B
:1051700003808370A063AD6B84460FCDACE80F0055
:105180000FCDACE80F002B68CCF80030204670BD86
:10519000EB6B002BFAD02146382000F083F880F822
:1051A00031604686E063E96B342202F0A3FD2046BD
:1051B00070BD0023A363AE6B002ED4D1E8E7AE6BC5
:1051C0000023E363002ECED1E2E700BF10B5044612
:1051D000806B10B1FEF7F2FC30B9E06B10B1FDF757
:1051E000BBF920B9002010BD0023A36310BD00232C
:1051F000E36310BD002952D02DE9F0410446806BD5
:1052000017461E460D4610B1FEF7D8FCA0BBE06B5A
:1052100010B1FDF7A1F9B8BBD5F88084B8F1000F43
:1052200011D02146242000F03DF8334600260680A8
:105230008670D5F88014A0633A46FEF751FD58BB3E
:10524000A063BDE8F081D5F8843493B121463820BD
:1052500000F028F880F83180A0F83280D5F8841466
:10526000E06333463A46FDF777FDA8B9E063BDE851
:10527000F0810020BDE8F081D5F880840023A3638D
:10528000B8F1000FCDD1DEE7D5F880840023E363C9
:10529000B8F1000FC5D1D6E70120BDE8F0810020AC
:1052A000704700BF084670472DE9F04100260446CC
:1052B000C0F88814C0F8806401464FF490609846A6
:1052C0001746FFF7EFFF80F8446480F87964A0F890
:1052D0007A64D4F88814C4F8840442460546FEF77C
:1052E00031FB98BB00262146C4F8846440F26C4030
:1052F000FFF7D8FF0223C671A0F8486480F84A641B
:105300000372D4F88814C4F8800442460546FFF7B7
:1053100089FE30B9194B00201860C4F88004BDE83C
:10532000F08105F589663046FEF748FC294630468F
:10533000FEF70CFD0028EDD0114B1A68AAB91D60CC
:105340000E4BAFB11C600120BDE8F08105F5896608
:105350003046FDF701F929463046FDF707F90028E8
:10536000C0D0084B1A68002AE9D0044B002FE9D1BD
:105370001A68002AE6D00120BDE8F0815C640220B2
:10538000586402205464022070B504460020606016
:105390002073A064E0642046044D4FF47A76A66042
:1053A00040F8105BFFF726FF204670BDD0C4000018
:1053B0004FF0FF30704700BF407B7047007C704764
:1053C000407C704701207047007E7047704700BFE7
:1053D000043002F04DB800BF10B51C21044602F0A5
:1053E000F3FD204610BD00BF2DE9F041C37B012B2A
:1053F00035D0867B04464EB1043002F03DF8B0F162
:10540000FF0518BF01252846BDE8F081071D384675
:1054100001F0C6FF207B314601F0C0FF4FF00108CC
:10542000FF21384602F048F884F80E80384602F032
:1054300023F8A37BB0F1FF0518BF0125002BE2D0B4
:10544000207B414601F0AAFFFF21384602F034F8E4
:10545000384601F0EDFFA6732846BDE8F08100252F
:105460002846BDE8F08100BF2DE9F041264F82B00B
:105470003B680193019D05F516758046ADB2061D8A
:1054800005E03B680093009BEB1A1B0413D43046E5
:1054900001F0F2FFFF280446F3D1FD21304602F06F
:1054A0000BF898F80E30FBB9002388F80F30012074
:1054B00002B0BDE8F08198F80E001E2388F80D3088
:1054C0000028F5D098F80C00012101F067FFFF21BA
:1054D000304601F0F1FF304601F0AAFF002088F8C5
:1054E0000E0002B0BDE8F08198F80C00012101F037
:1054F00055FF2146304601F0DFFF304601F098FFAE
:10550000002388F80E30CFE7C06402202DE9F04375
:10551000234F83B03B680093009D05F596750446C4
:1055200088469146ADB2061D05E03B680193019B9C
:10553000EB1A1B040ED4304601F09EFFFF282074A6
:10554000F3D0FE281BD01823A07B637338B903B0B7
:10555000BDE8F083A07B1D2363730028F7D0207B78
:10556000012101F01BFFFF21304601F0A5FF30466D
:1055700001F05EFF0020A07303B0BDE8F0834A464F
:105580004146304601F086FF207438B9304601F0BC
:1055900073FF304601F070FF0120D8E72523D3E7E1
:1055A000C0640220F0B5002783B0C7733A460C21CF
:1055B000044600F059F8A67BA8B91EB9012630466A
:1055C00003B0F0BD05460121207B01F0E7FE201D60
:1055D000FF21019001F070FF019801F029FF304692
:1055E000A57303B0F0BD09236373002EE7D0207BC1
:1055F000251D012101F0D2FEFF21284601F05CFFAC
:10560000284601F015FF3E463046A77303B0F0BDB3
:10561000C27B022A03D0012A04D00120704703680C
:105620005B6E1847FFF7BEBF38B503680D461A6AB0
:105630000C498A4204460CD1C27B022A04D0012ABA
:105640000BD02576012038BD5B6E98470028F8D135
:1056500038BD90470028FBD0F3E7FFF7A3FF0028F1
:10566000F6D0EEE7115600002DE9F041036884B052
:105670000F46019236491A6A8A42064662D1C27BB7
:10568000022A45D0012A5FD0B47B002C4BD0351DB7
:105690000C2F15D0DFF8BC80D8F800300393039CA2
:1056A00004F59674A4B206E0D8F800300293029B89
:1056B000E31A1B0434D4284601F0DEFEFF28F3D1A0
:1056C00047F04001284601F0F7FE0DF1040802AC56
:1056D00014F8011D284601F0EFFEA045F8D1002F77
:1056E0000CBF95218721284601F0E6FE284601F0EF
:1056F000C3FE0A24284601F0BFFE013C10F0800FD3
:105700003074A4B201D0002CF4D104B0BDE8F08113
:105710005B6E98470028B7D1FF2004B0BDE8F08148
:10572000002FCDD0F8E7351D284601F039FE307B3B
:10573000214601F033FEFF21284601F0BDFE012382
:10574000B373A5E79047E5E7FFF72CFFE2E700BF5B
:1057500011560000C0640220F8B500220D463A211F
:105760000646FFF781FFE0B9371D2C1D384601F0D2
:1057700083FE04F8010DA542F8D1B47B14B90124CD
:105780002046F8BD307B012101F008FEFF2138469C
:1057900001F092FE384601F04BFE0023B373204621
:1057A000F8BDB47B12237373002CE9D0341D307B19
:1057B000012101F0F3FDFF21204601F07DFE20468E
:1057C000002401F035FEB4732046F8BD70B51646CE
:1057D00082B000220446FFF747FFA8B11B23637382
:1057E000A07B08B902B070BD207B251D012101F00E
:1057F000D5FDFF21284601F05FFE284601F018FE86
:105800000020A07302B070BD05461022314620462C
:10581000FFF77CFE0028E3D0A67B002EE2D0207BA1
:10582000012101F0BBFD201DFF21019001F044FE8C
:10583000019801F0FDFD3046A57302B070BD00BFB8
:1058400000B50368244ADB6C934285B00FD16A46E9
:105850000921FFF7BBFF38B19DF8003013F0C003FA
:1058600008D0402B27D0002005B05DF804FB694626
:105870009847F0E79DF809309DF80A209DF806103A
:105880009DF807009DF808C003F003035B0043EA9E
:10589000D2139DF8052001F00301800040EA812029
:1058A00002F00F0240EA9C101344073B013098407D
:1058B00005B05DF804FB9DF809009DF807309DF8E0
:1058C000082003F03F03013000EB034000EB02200F
:1058D000800205B05DF804FB715C000030B5036820
:1058E000164D9B6DAB4283B004460A4621D1407CE5
:1058F000032818BF520212212046FFF7B5FE18B93F
:105900000120E07303B030BDA07B0C23637300283B
:10591000F8D0207B251D012101F040FDFF21284604
:1059200001F0CAFD284601F083FD0020A07303B0FA
:1059300030BD01919847019ADAE700BFC1530000DA
:10594000F8B50646C07B01280D4614461F4602D115
:1059500073698B4205D029463046FFF7BFFF80B1FF
:105960007561002517B90EE0AF420CD021464FF407
:1059700000723046FFF7CAFD013504F500740028B7
:10598000F2D10020F8BD7369307E3B44736100287A
:10599000F8D13046BDE8F840FFF704BE2DE9F84FD6
:1059A0009B46C37BDDF82890DDF82C80012B064652
:1059B0000C46154602D143698B4205D0214630463C
:1059C000FFF78CFFB0B1746104EB0B0ABBF1000F61
:1059D00003D112E0C847A2450FD04FF40072294608
:1059E0003046FFF793FD07464246204629460134DC
:1059F000002FEFD10020BDE8F88F7369307E5B4443
:105A000073610028F7D13046BDE8F84FFFF7CABDF3
:105A100003682DE9F0415F69164B9F421FD1C37B9C
:105A2000012B04460D46164602D14369994205D022
:105A300029462046FFF752FF70B165614FF40072AE
:105A400031462046FFF762FD30B16369207E0133A5
:105A5000636148B1BDE8F0810020BDE8F081BC463B
:105A60000123BDE8F04160472046BDE8F041FFF763
:105A700099BD00BF4159000030B50368164D9B6DBC
:105A8000AB4283B004460A4622D1407C032818BFAB
:105A9000520219212046FFF7E7FD20B90223E373E4
:105AA000012003B030BDA07B0E2363730028F8D023
:105AB000207B251D012101F071FCFF21284601F00A
:105AC000FBFC284601F0B4FC0020A07303B030BDFD
:105AD00001919847019AD9E7C15300002DE9F0439D
