:1000000000800020BD010000850A00003D0A0000BC
:100010003D0A00003D0A00003D0A00003D0A0000C4
:100020003D0A00003D0A00003D0A0000850A00006C
:10003000850A00003D0A0000B5210000B92100003A
:10004000850A0000850A0000850A0000850A000074
:10005000850A0000850A0000850A0000850A000064
:10006000850A0000850A0000850A0000850A000054
:10007000850A0000850A0000850A0000850A000044
:10008000850A0000850A0000850A0000850A000034
:10009000850A0000850A0000850A0000850A000024
:1000A000850A0000850A0000850A0000850A000014
:1000B000850A0000850A0000850A0000850A000004
:1000C000850A0000850A0000850A0000850A0000F4
:1000D000850A0000850A0000850A0000850A0000E4
:1000E000850A0000850A0000850A0000850A0000D4
:1000F000850A0000B92B0000850A0000850A00006F
:10010000850A0000850A0000850A0000850A0000B3
:10011000850A0000850A0000850A0000850A0000A3
:10012000850A0000850A0000850A0000850A000093
:10013000850A0000850A0000850A0000850A000083
:10014000850A0000850A0000850A0000850A000073
:10015000850A0000850A0000850A0000850A000063
:10016000850A00008D120000850A0000850A000043
:10017000850A0000850A0000850A0000850A000043
:10018000850A0000850A0000850A0000850A000033
:10019000850A0000850A0000850A0000850A000023
:1001A000850A0000850A0000850A0000850A000013
:1001B000850A0000850A0000850A0000564B4CF2B3
:1001C000205210B51A804DF628121A8000BF00BFC9
:1001D00000F05CFC514B4FF010621A60504A9A607C
:1001E000504ADA60504A136813F4807304D14F49BF
:1001F0000B604FF4A85313604D4B1A78110703D5C9
:100200001A7842F008021A704A4B4B492A221A7097
:100210004A4A4B4B8B4204D252F8040F43F8040B6A
:10022000F8E7484B484900228B4202D243F8042B9E
:10023000FAE74649464A002352F8230041F82300D2
:1002400001336F2BF8D1434B434A802103F8011B44
:100250009342FBD1414B3D4A1A60414B8A221A70AE
:10026000A3F5805324225A70A0221A709A7992071B
:10027000FCD59A79D406FCD43A4A937903F00C035E
:10028000082B384BF9D103221A7140225A719A79FE
:100290009006FCD5334A9179324B4906FBD5324A58
:1002A000324911600221516020221A709A7902F0BD
:1002B0000C020C2AFAD12E4B2E4A1A602E4B2F4AD2
:1002C0001A6000225A60072243F8042C2C4AC3F813
:1002D0000C2D62B600F090FE144B1B68DA0705D5B2
:1002E000284800F06DFC284B284A1A60284B1B78E0
:1002F0005B0609D5244C254B22689A4204D121483B
:1003000000F05EFC0023236003F032F800F0C4FB31
:1003100001F0DAFFFEE700BF0E2005403080044008
:10032000823F04000100002B10D0034014D0034092
:1003300002D0074000E007406490FF1F1C4000000F
:100340002087FF1F6890FF1FB493FF1F0082FF1FCD
:100350000000000000E400E05FE400E008ED00E0E1
:100360000050064000400640448004400000030165
:1003700004800440C010050014E000E0FF76010096
:10038000000020201A020C611CE00340A5C3945A0F
:1003900000F00740FFFFFFFFFFFFFFFFFFFFFFFF32
:1003A000FFFFFFFFFFFFFFFFFFFFFFFFFFFFFFFF5D
:1003B000FFFFFFFFFFFFFFFFFFFFFFFFFFFFFFFF4D
:1003C000FFFFFFFFFFFFFFFFFFFFFFFFFFFFFFFF3D
:1003D000FFFFFFFFFFFFFFFFFFFFFFFFFFFFFFFF2D
:1003E000FFFFFFFFFFFFFFFFFFFFFFFFFFFFFFFF1D
:1003F000FFFFFFFFFFFFFFFFFFFFFFFFFFFFFFFF0D
:10040000FFFFFFFFFFFFFFFFFFFFFFFFDEF9FFFF23
:1004100010B5054C237833B9044B13B10448AFF33E
:1004200000800123237010BD6890FF1F00000000B2
:1004300020400000084B10B51BB108490848AFF335
:1004400000800848036803B910BD074B002BFBD0A0
:10045000BDE81040184700BF000000006C90FF1F6F
:10046000204000006490FF1F000000000160704702
:10047000006803681B691847006803681B68184711
:10048000FFF7FABF70B50546006803680C461B68A5
:10049000C9B2984728680368C4F307211B689847C6
:1004A00028680368C4F307411B68984728680368F5
:1004B000210E1B68BDE87040184700BF10B5044608
:1004C000206803681B6998470028F9D020680368F2
:1004D0005B699847C0B210BDFFF7F0BF00680368C2
:1004E0005B681847FFF7FABF006803685B68184746
:1004F00028B1012802D10348FFF7EEBF7047024838
:10050000FFF7EABF8490FF1FB490FF1F2DE9F04171
:1005100041212848DFF8AC80FFF7B2FF264B254881
:100520001968FFF7AFFF02212248FFF7A9FF022257
:1005300022492048FFF7D8FF01211E48FFF7A0FFFE
:1005400023211C48FFF79CFF08211A48FFF798FF5A
:1005500001211848FFF794FF45211648FFF790FF47
:1005600098F800101348FFF78BFF98F80030DBB1C4
:10057000134E002756F8040F03F002FAC1B20D48DB
:10058000FFF77EFF002403E0295DFFF779FF0134C8
:100590003568284603F0F4F9A0420648F4D898F8E4
:1005A00000300137BB42E5DC00210248BDE8F041E4
:1005B000FFF766BF8490FF1F4887FF1F4487FF1F18
:1005C0001C87FF1F4087FF1F2DE9F04FAC4B1B78A6
:1005D00083B0002B40F08180AA4DAB48FFF748FF65
:1005E000F8B1A948A94EFFF777FFA94AA94B1070A7
:1005F00000223270002453281C7000F0DC8000F2CE
:10060000B5804C2800F0F48040F21D81502800F0A5
:100610006581522810D1A04AA04B126883E81400CB
:100620000AE09F48FFF724FF002840F0BA80994B6A
:100630001A78002A40F0968100220023994EDFF8B4
:100640008CA2994FDFF88892DFF888B2DFF88882B1
:10065000C5E9022300240122042032708AF80040F8
:1006600000F046FC0128054638701BD03178013176
:10067000C9B231701DB918F80420012A61D008F8F8
:10068000045001340131042C317007F101070BF1E2
:10069000010B0ED019F8010F00F02AFC01280546C5
:1006A0003870E3D118F80420317862B10131C9B251
:1006B000E5E79AF800301BB1714B1B78002B4DD148
:1006C00003B0BDE8F08F7648FFF7DAFE31788AF89C
:1006D00000508BF800103D78C9E700F01DFC73490D
:1006E000DFF8B8E16C4BD1E900AB1AEB0A064BEB33
:1006F0000B07DEE90089F407FD07A21B45EA560552
:10070000186065EB070312EB0A0443EB0B05684F17
:10071000684EB4EB080265EB090312EB000843F1E5
:1007200000093B689842C6E9008905D21AF1010424
:100730004BF10005C1E90045524D3860C5E900891B
:100740004BE757480192FFF79BFE564B019A1978E9
:100750003D788AF800208BF8001090E749494A4814
:100760000C2203B0BDE8F04FFFF7BCBE56282DD0D9
:1007700058D9572800F0D680FF287FF45DAF434B4F
:100780001C78012C00F0EB80002C7FF455AFFE218B
:100790003D48FFF775FE484B3B481968FFF772FE6E
:1007A00039E73F48394EFFF797FE394A394B107009
:1007B000012232701EE7354B1B78002B7FF43CAFD3
:1007C000042239493048FFF78DFE35E72F4E3B4C68
:1007D0003078FFF78DFE20703078FFF789FE2278A1
:1007E000374B014637481970805C00F07BFB23E7EC
:1007F000264B334F1878344EFFF77AFE03223870B9
:10080000204110F001034FF0FF01104608BF1946C8
:10081000013400F0E7F9042C3FF40EAF387816F8F5
:10082000012FEDE755287FF407AF184B1B78002BFD
:100830007FF402AF1448FFF74FFE114B003018BF92
:1008400001201870F8E642287FF4F6AE0F4E1C4FD8
:100850003078DFF87080FFF74BFE142238702041AB
:1008600010F001034FF00101104608BF1946013492
:1008700000F038FB042C50D0387818F8012FEEE740
:100880009490FF1F9890FF1FB490FF1FE890FF1FE8
:10089000A890FF1FB190FF1FAC90FF1FC090FF1FDB
:1008A0008490FF1FB090FF1F8C90FF1FD090FF1F00
:1008B0009090FF1FE090FF1F4887FF1FC890FF1F09
:1008C000DC90FF1F0C3E0000B83D0000B290FF1FFF
:1008D000B43D0000A090FF1FD890FF1F234C244E72
:1008E0002078FFF705FE30702078FFF701FE3278A0
:1008F000204B014620481970805C00F073F9237882
:10090000002B7FF499AE1D4B1B78002B7FF494AE27
:1009100001211B48FFF7B4FD8EE63378002B7FF4EE
:100920008BAEF0E7144C114E124F04F103094FF057
:10093000030A3078DFF83480FFF7DAFD0346194602
:1009400050463B7000F04EF94C4502D014F801AF10
:10095000EFE798F80030002B7FF46EAED3E7FFF797
:10096000D5FD69E6074A107844E600BFE890FF1F0E
:10097000C890FF1FDC90FF1FB83D00009490FF1F40
:10098000B490FF1FA890FF1F08B505490548FFF761
:100990006DFD05490548BDE80840FFF767BD00BF8C
:1009A0007087FF1FB490FF1F5887FF1F8490FF1FA1
:1009B0002DE9F8431B481C49DFF87890DFF8788070
:1009C0001A4F01F011FC03261425042000240321F2
:1009D00000F09CFA0121284600F098FA28460021F0
:1009E00000F080FA0121304600F090FAE0B21049A0
:1009F00000F0F6F93046002100F0F4F801210D2056
:100A00000C4400F083FA01210D2000F06BFA042C55
:100A100006D019F8010F18F8015F17F8016FD6E733
:100A2000BDE8F8835887FF1FF4061400B83D0000A6
:100A300000504347B43D00000C3E000008B5104C88
:100A400008E0236859050DD423681A050FD42368DC
:100A5000DB0411D423685803F3D500F017FC236896
:100A60005905F1D502F0A8F823681A05EFD500F072
:100A700009F82368DB04EDD500F004F8EAE700BFCD
:100A80003480044008B5FFF7D9FF00BF014B1022A6
:100A90001A80704700200540704700BF094908B51B
:100AA0000B6830B16A461844A2F58052904202D2D7
:100AB0000860184608BD02F055FC0C2303604FF097
:100AC000FF3008BD4C87FF1FEFF3138070B9EFF3C1
:100AD00010836BB9EFF305825AB94FF48070EFF3CE
:100AE00011832BB1984228BF184670474FF0FF3052
:100AF00070470F2A01D81846F1E7014BD05CEEE7AA
:100B0000F0E300E010B40F4B53F8302092F880422D
:100B10002CB1012369B182F8803010BC704703EB1F
:100B2000C0035B681A6841B922F002021A6010BC67
:100B3000704782F8003110BC704742F003021A601F
:100B400010BC7047103E00001C4A02EBC003012994
:100B50005B6811D004291BD052F83000002280F8C5
:100B6000802229B1022920D0032922D01A6070479F
:100B70004FF480721A60704752F830004FF4A2723E
:100B800080F880121A601A6822F020021A607047FA
:100B900052F830104FF4A272012081F880021A60DE
:100BA0001A6842F020021A60704740F203121A607D
:100BB00070474FF481721A60704700BF103E00000A
:100BC00030B4054B054D064C002210211A602A60F6
:100BD0002060196030BC704714D0034004D003403B
:100BE00000D00340282838B52ED0002904464FDD18
:100BF0005F4B1B78012505FA03F28A4202D82128AF
:100C000037D938BD0338C2B2012A3AD9202C4AD08C
:100C1000192C48D0574A126802FB011222FA03F33A
:100C20001D2800F29B80DFE800F0928B847D99996B
:100C3000766F99999999999999999968615A53995F
:100C40004C99999999999945494B1B780B2B08D93F
:100C50000C2B1CBF0C3B19410846BDE8384001F085
:100C600037BCC3F10C0399400846BDE8384001F099
:100C70002FBC2946FFF746FF2946BDE83840FFF75D
:100C800063BF3D4A126802FB011222FA03F3C7E771
:100C90002128B6D80021FFF735FF20460121BDE805
:100CA0003840FFF751BF354A126802FB011222FAA1
:100CB00003F3B5E73249334A0B604FF451731360C5
:100CC00038BD3149314A0B604FF45173136038BD60
:100CD0002F49304A0B6040F24443136038BD2E491F
:100CE0002E4A0B6040F24443136038BD2C492D4A14
:100CF0000B6040F24443136038BD2B492B4A0B6014
:100D000040F24443136038BD29492A4A0B6040F23F
:100D10004443136038BD2849284A0B6040F24443DD
:100D2000136038BD2649274A0B6040F244431360E4
:100D300038BD2549254A0B6040F24443136038BD55
:100D40002349244A0B604FF45173136038BD224984
:100D5000224A0B604FF45173136038BD212C3FF6CB
:100D600050AF7F29D4BF00210121204693E700BF67
:100D70005087FF1F088003400890034008800B4005
:100D800010800B4048A0044018800B404CA0044049
:100D90001880034008B004401080034004B00440B1
:100DA0004080034018C004403880034014C0044011
:100DB0002880034010B00440208003400CB0044061
:100DC0003080034010C00440488003401CC00440F1
:100DD0001890034034900440109003403090044039
:100DE0002DE9F8430E4680463249334D304602F035
:100DF00071FA47F6122300281ABF1D464FF0020968
:100E00004FF00109002425FA04F002F06DF84FF0CC
:100E10005E51074602F0C0F80146304602F06EFA15
:100E200030B90134072CEED1E80902F05DF807462D
:100E30003146384602F064F94FF07C5101F0A2FFD0
:100E400002F070FA4FF6FF729042A8F1030328BF38
:100E50001046012B29D9B8F1170F17D8174B23FAD1
:100E600008F303F0010383F0010223B9B8F1190F6D
:100E70000FD0BDE8F883124B124D13491A6044EAB3
:100E8000C9042A6008601C60BDE8F883B8F1200F2F
:100E9000ECD10E4B0E4D0F49002244EAC9041A60F2
:100EA0002A6008601C60BDE8F8830B4B0B4D0C49B1
:100EB000F2E700BF001BB740006CDC026006F000E8
:100EC00000800340048003400880034000800B4002
:100ED00004800B4008800B400090034004900340C6
:100EE00008900340212801D8FFF70CBE704700BFCF
:100EF000212806D8044B53F8303093F80002C0B2D2
:100F000070470020704700BF103E0000212801D824
:100F1000FFF71ABE704700BF72B60C490C4B0D4A62
:100F20001B680868126862B6520102D5322B88BF6E
:100F300001300949C3F5BB334FF47A72FF33A1FB8B
:100F4000031302FB00F000EB93107047EC90FF1FBF
:100F500018E000E004ED00E0ABAAAAAA2DE9F843EE
:100F6000054672B6204F214B214A1B683C68126827
:100F700062B6520102D5322B88BF013495B3C3F556
:100F8000BB331C4EDFF86490DFF86480FF334FF40E
:100F90007A72A6FB031302FB04F404EB931472B6FB
:100FA000D9F800103A68D8F800E062B6C1F5BB3352
:100FB000FF33A6FB03031EF0806FC4EB93134FF4C3
:100FC0007A7002D0322988BF013200FB0233B3F5B8
:100FD0007A7F04D3013D05D004F57A74DFE701F090
:100FE00091F9DCE7BDE8F883EC90FF1F18E000E022
:100FF00004ED00E0ABAAAAAAF8B52D4B2D49DFF805
:10100000D0E0DFF8D0C02C4E2C4D2D4C2D4A2E4F69
:101010004FF4000018604FF0807018604FF00070BF
:1010200018604FF0806018604FF00060186000207A
:10103000086028234BF6FF71CCF80010CEF8003082
:10104000336013602B6023603B60B36293620922BC
:1010500045F8242CC4F8D80F05F57F65C7F8D41FD0
:1010600007F5FF2707F5FA67C6F8F83F2B6006F586
:10107000FF26C4F8D42F05F5FD2504F5FF243860BC
:1010800006F2F4761148316005F5FF6504F5FD645C
:101090002B602360026001F0ABF91920FFF75EFFBF
:1010A00000F05AFE40F21310BDE8F840FFF756BFBB
:1010B00008E100E0048003401480034024800340E2
:1010C0002C8003401C8003403480034000800B4090
:1010D0000C80034008800340431E032B14D872B6D3
:1010E0000A4951F8230068B170B4094C058834F8F6
:1010F0001320466841F82360521B24F8132062B67F
:1011000070BC704762B67047002070474891FF1F5F
:101110009C93FF1F013803280BD872B6074B53F876
:10112000203043B100205B680130002BFBD162B658
:101130007047002070471846F9E700BF9C91FF1FD9
:1011400030B472B62B4A13781D0706D52A4B196A9C
:10115000002936D0996A002941D053781C0706D55A
:10116000254B196C00293ED0996C002939D0937811
:10117000190705D5204B196E002936D0996E89B113
:10118000D3781B0707D51C4BD3F880207AB3D3F84C
:10119000882011213AB162B6184B00221A7030BC77
:1011A00000F056BE0D21154C154D227843F83150F4
:1011B00003EBC1030830013A5860227062B630BCBC
:1011C000704704220D4C0F4D217843F8325003EB49
:1011D000C20308304A1E5860227062B6EFE705214C
:1011E000E1E70921DFE70822ECE70C22EAE7102219
:1011F000E8E700BFA83F00000080FF1FC591FF1F68
:10120000C800400088004000431E032B1DD81B4A25
:10121000400140F0100030B4104472B6184CE25C4B
:10122000032A1BD8DFE802F00212151703220D88EB
:10123000E25410F0080F14BFC823882343EA054383
:1012400008310360416062B630BC7047083002224A
:10125000EDE70522EBE708300422E8E7094A52F8F7
:10126000230038B1084A52F82300416042F82310A5
:1012700062B6E9E742F82310034AF7E70080FF1F50
:10128000D491FF1F9C91FF1FAC91FF1F2DE9F04FE0
:10129000DFF818B3DFF818A387B044E0AE4F4FEA89
:1012A000930807EBC809013ED9F8042003F00803AE
:1012B000F6B2A2F1080003F0FF04002B40F0048115
:1012C00057F838301B0C99B222F8081C002B00F09C
:1012D000F280A24B22F8064C42F8044C53F8262028
:1012E000002A00F06E819E4D55F8263058609D4CC6
:1012F00045F8260034F81630194424F8161000F08A
:1013000087FD002800F05681974A984B19F0080F86
:1013100000F1080018BF1346C9F8040047F8383038
:1013200008238BF800309BF80040E4B261071BD51E
:101330008F4B1B78ABB18F490A7802F0FF032AB1BB
:10134000013BDBB20B70002B00F0EF848A490A7876
:1013500002F0FF032AB1013BDBB20B70002B00F05F
:10136000F78004238BF8003004F0080303F0FF0239
:10137000002B00F0D6809AF80030DBB21E098DD128
:101380009C08DFF8D49159F8342009EBC401C2F36A
:101390008302013A49680C2A7ED8DFE802F0818195
:1013A0007D7D7D7D7D7D477D7D7D07000868734D5A
:1013B0004A68734F734E286081B240F281606A4B75
:1013C0006A604FF0010E0022814249F834303A60E1
:1013D000C9F81020C9F8182086F800E05E4C00F229
:1013E000F480B1F5D06F80F07883B1F5817F00F0A3
:1013F000628300F28782802900F0EC82822940F02B
:101400001E83A98801F07F01042900F218835E4839
:101410005E4C89000844227062700278930740F1A4
:10142000798384F800E04FF0020ED8E2544F3A6816
:1014300042B3574B534E5749188834780D7840289B
:10144000864645F0020828BF4FF0400E002C84F07D
:1014500001043470CEEB00000CBF8824C82409EBD3
:10146000C80680B285F0010544EA0E447260188017
:1014700049F8384072440D7018B9BEF1400F18BFDA
:1014800000223A603D4B1A88B2F5A06F04D10021CA
:101490009A785970404B1A70404A012313703FE705
:1014A000364A158842F22100854200F0FF812E4A1B
:1014B00049F83420F0E72C4A2C4B19F0080F18BFDC
:1014C000134647F838302BE700F0C2FC344A354960
:1014D00052F82630002B00F0B68158688C5D42F837
:1014E000260003F10802C9F80420032C05D8DFE820
:1014F00004F0120F150204228A551A8819F0080FF9
:101500000CBF8823C82343EA024347F8383007E773
:1015100002228A55F1E703228A55EEE705228A5511
:10152000EBE7E00700F11A82210600F14982A207E9
:1015300006D51D4A1D4913780220DBB213700870CE
:10154000E30602D5194B10221A7007B0BDE8F08FE0
:1015500000F0EAFD05E700BF0080FF1F4891FF1F74
:10156000F490FF1F9C93FF1FC800400088004000BC
:10157000D091FF1F5991FF1FD891FF1FBC91FF1FF2
:10158000F090FF1F5891FF1FC0200740C891FF1F18
:101590000491FF1FC491FF1F98200740942007402B
:1015A0009C91FF1FD491FF1F882007408020074097
:1015B00090200740AB4A47F8380013780133137086
:1015C000AEE643F82600A84D91E642F221008142A2
:1015D00000F0358100F2AF81B1F5086F00F01B8299
:1015E000B1F5106F40F02B82226AA049A8780870EC
:1015F000120600F14583D9F828209D49130600F111
:101600003A83D9F830209A49150600F12F83D9F88A
:1016100038209749140600F12483D9F840209449D2
:10162000100600F11983D9F848209149120600F1FB
:101630000E83D9F850208E49130600F10383D9F8A0
:1016400058208B49150600F1F882D9F860208849A6
:10165000140600F12983D9F868208549100600F1A5
:101660001E83D9F870208249120600F11383D9F83D
:1016700078207F49130600F10883D9F880207C493F
:10168000150600F11C83D9F888207949140600F169
:101690001083D9F890207649100600F1C882D9F855
:1016A00098207349120600F1BC827248724A73494D
:1016B000019073486C4D734C049700230596029576
:1016C000804617460E461D460394386828B1446884
:1016D00000F0BEFB2046002CF9D100233B60029BAA
:1016E00030681A46002342F8253028B1446800F0DB
:1016F000AFFB2046002CF9D100223260019A98F805
:1017000000301146002241F8042B039A0191023B5C
:101710004FF0000122F81510032B09D8DFE813F071
:101720004B0104004B0104004FF0010388F8003026
:101730000135042D07F1040706F1040608F101083C
:10174000C3D1514C514B2278464D049F059E002138
:1017500029701A70130700F14F8262784C49DFF844
:1017600010810A7010074FF00001C9F83010C9F855
:10177000381000F12B824749A2780A700021C9F87D
:101780005010C9F858101107DFF8E48000F1DC812F
:10179000E2784149364C0A7000211207C9F87010EE
:1017A000C9F8781000F1B98133780193002183F0F2
:1017B0000102C9F89010C9F89810002002908046E4
:1017C0008446044635490D7845F0020E09EBCE03F8
:1017D0000393019B002B039B5C600CBF8824C824EF
:1017E00044EA080385F0010449F83E3032700C7079
:1017F000DFF87CE02A4BDFF8A480002840F0268147
:10180000BCF1400F1BD144F0020C09EBCC03029C4D
:10181000DFF85CE05C60002A40F02E81020442F0B8
:1018200088029DF804304EF83C20044433700D705B
:101830002346402803D100201A4A3B6010801A4AF0
:101840000123137028E68B5D032B00F22D8101A28A
:1018500052F823F02113000021130000AB190000FF
:10186000B1190000C591FF1FF490FF1FD091FF1F19
:101870000080FF1FAC91FF1F4891FF1F9C91FF1F2D
:10188000D491FF1F9C93FF1FA83F0000C420074076
:10189000C8200740CC200740D0200740C491FF1F3C
:1018A0005891FF1F0491FF1F94200740928892B91E
:1018B000B14A0D784878157050708D78C878957059
:1018C000D07010680D79157186284D798979557118
:1018D000917100F0A580A949A94E0A78307882F06C
:1018E0000105002842F002020D700CBF8821C821BA
:1018F00049F8321009EBC20280F00100002130707B
:101900005160D4E540F20232914240F08D80A988C6
:1019100001F07F01042900F292806A88002A40F0D9
:101920008E809848CDF804E089000844017841F0A1
:101930000201017041E742F2212081427BD1A98856
:10194000002940F0E480904B904A9148AC781D68A3
:101950001560CDF804E00A4604702EE78D4B8E48E2
:1019600086491A614FF0020E80F800E0854F0A7038
:101970008A49196099608A4E8A4D8B4C9A610D2173
:101980003970FF213170DFF840E229702270874DF5
:10199000874A8EF800109F27012406F8047C5D60BA
:1019A0000470DA6007B0BDE8F08F00238B55B7E410
:1019B00001238B55B4E44FF0000388F80030B7E6FC
:1019C0007049784B80220D2008701A70A2077FF5AD
:1019D000B7ADAEE5774C4FF0020E22706270EA8828
:1019E000724580F0A38165490D78402A944645F000
:1019F000020E28BF4FF0400C04EB0C0309EBCE00A5
:101A00000293012344604FEA0C48CCEB020001939F
:101A10000022C824E4E6684A664C12782270DEE7A9
:101A2000664A0F21117056E7B1F5A06F07D1012367
:101A300000220193C1E642F221329142F7D0514A8D
:101A40000F231370544A0123137025E540287FF6B5
:101A5000DAAE44F002040EEBC401029E4E60BAB14D
:101A60009DF80410564A19703346403888F80050E3
:101A700040334EF83420DFE69DF804303370020422
:101A8000029B0D7042F0C80203444EF83C20D0E6A1
:101A90009DF804101970029B404A88F800504038A5
:101AA00040334EF83420C7E619F0080F0CBF02236C
:101AB00003238B5534E4A98801F07F010429BED8A3
:101AC0006A88002ABBD12F48CDF804E08900084479
:101AD000017821F0020101706FE63A4A5468002C47
:101AE000ADD06888B5F804E003E00C325468002CEF
:101AF000A5D013888342F8D153887345F5D1000AE5
:101B000003280CBF94F800E0B2F808E067E7CDF8CE
:101B100004E052E64FF0020E61E700F079F9002888
:101B200000F0F18008301D4AC4F88400C4F8802019
:101B300000F06EF9002800F0E0800830204AC9F873
:101B40008C00C9F888202FE600F062F9002800F028
:101B5000E6800830114AC8F86400C8F8602000F038
:101B600057F9002800F0D5800830154AC9F86C00F4
:101B7000C9F868200CE600BFA493FF1FC491FF1FA3
:101B80005891FF1FC0200740EC90FF1FAC93FF1F30
:101B9000E891FF1F0080FF1F94200740880040004D
:101BA0008820074080200740982007400891FF1FA9
:101BB0005C91FF1FC891FF1FD091FF1F5991FF1F1C
:101BC000C8004000AC3F00008C20074000F020F926
:101BD000002800F08C8008305D4AC8F84400C8F83E
:101BE000402000F015F900287BD00830594AC9F888
:101BF0004C00C9F84820BEE500F00AF900286AD078
:101C00000830534AC9F82400C9F8202000F000F930
:101C100000285AD008304F4AC9F82C00C9F82820AB
:101C20009BE5D1F89C00083800F012F93DE5D1F8A9
:101C30009400083800F00CF931E5C86D083800F060
:101C400007F902E5486D083800F002F9F7E4C86CBE
:101C5000083800F0FDF8ECE4486C083800F0F8F8BB
:101C6000E1E4C86B083800F0F3F8D6E4486B0838B4
:101C700000F0EEF8CBE4C86A083800F0E9F8C0E4F8
:101C8000606A083800F0E4F8B5E4C86F083800F07E
:101C9000DFF8F2E4486F083800F0DAF8E7E4C86EDD
:101CA000083800F0D5F8DCE4486E083800F0D0F8C9
:101CB000D1E4D1F88C00083800F0CAF8E9E4D1F892
:101CC0008400083800F0C4F8DDE42A78C9F8280058
:101CD00001322A7041E52A78C9F8200001322A70C1
:101CE00094E72A78C9F8480001322A7043E52A7837
:101CF000C8F8400001322A7073E72A78C9F88800D2
:101D000001322A7050E52A78C4F8800001322A7026
:101D10000EE72A78C9F8680001322A7038E52A7877
:101D2000C8F8600001322A7019E700BEBEF1400F0A
:101D3000F44628BF4FF0400C04EB0C030293012340
:101D4000CCEB0E004FEA0C48002201933AE500BFAD
:101D500088004000C80040002DE9F843204C00F006
:101D6000B3FF002204F1A00023461A605A60083332
:101D700083424FF00001F8D11A4A1B4F13681B4DE4
:101D80001B481C4EDFF87880DFF878C0DFF87890C9
:101D9000DFF878E043F480231360C4F307233B703B
:101DA000C4F307432B70240EFF2302F5283204707E
:101DB000114D88F8003011488CF80030D43233705F
:101DC000012389F8003070268EF800104FF400745B
:101DD000102107F8183C2E7004601170BDE8F883DC
:101DE0000080FF1F348004409C200740B020074043
:101DF000B42007401020074049E400E008E100E07B
:101E00008020074088200740942007400021074099
:101E100072B60D480268B2FA82F30B2B10DC4FF059
:101E20000041D94022EA0102026062B6074803EB92
:101E3000C303DB00C2180021C15010465160704737
:101E400062B60020704700BF5487FF1FBC83FF1F8E
:101E50000D4B0E4AC31AA2FB03231B090B2B0CD8F4
:101E60000B4A127852B972B60A484FF00041026824
:101E700021FA03F31A43026062B67047064A1278E9
:101E8000002AF0D0FFF75CB9BC83FF1F398EE3381E
:101E9000C591FF1F5487FF1FD091FF1F38B50F4D0D
:101EA000286878B143880288C118013393420C7ABC
:101EB00002D24380204638BDFFF7CAFF00232046E8
:101EC0002B6038BD064B1B782BB10320FFF704F9BC
:101ED00028600028E6D14FF0FF3038BDE491FF1FA5
:101EE000D091FF1F10B5094C206818B143881844E1
:101EF000007A10BD064B1B782BB10320FFF7ECF8DE
:101F000020600028F2D14FF0FF3010BDE491FF1F98
:101F1000D091FF1F044B054A1B6890881BB11A889B
:101F20005B88D31A18447047E491FF1F9C93FF1FEE
:101F30000B4B1B789BB110B50A4C206848B1FFF7DA
:101F400087FF002303202360FFF7C6F830B1FFF7B7
:101F50007FFF0320FFF7C0F80028F8D110BD7047BD
:101F6000D091FF1FE491FF1F2DE9F04FDFF8F890AB
:101F700083B0012289F80020019169B3DFF8EC8079
:101F8000364F019E8346D8F80000B0B3344D4488E4
:101F9000C4F14001B14228BF314604EB010E0022DA
:101FA0001FFA8EFE2A70761AA0F802E000F10802ED
:101FB00051B1013C224459441BF8014B02F8014F36
:101FC0008B45F9D1B0F802E0BEF13F0F0BD8254A9E
:101FD00005211170002ED6D10198002389F8003018
:101FE00003B0BDE8F08F4022028001460420FFF7D5
:101FF0000BF90022C8F80020E9E73A782AB3184D17
:102000004AF2F9244FF0010A07E0013C16D02A7881
:10201000A2B900F077F93A78BAB10420FFF77AF85C
:102020000728F2D889F800A0FFF7F2FEC8F80000F0
:102030000028ACD10C4B013C1870E8D101234FF0C3
:10204000FF302B7003B0BDE8F08F00234FF0FF305E
:1020500089F8003003B0BDE8F08F00BFD091FF1FBA
:10206000E091FF1FD891FF1FD991FF1FDC91FF1F47
:1020700000B583B002AB012103F8010D1846FFF74C
:1020800073FF03B05DF804FB38B50E4D0E4C2868A5
:102090000123237028B1408800232370C0F1400041
:1020A00038BD0A4B1B7813B90020207038BD0420BE
:1020B000FFF730F80728F7D8FFF7AAFE28600028B6
:1020C000E9D1F1E7DC91FF1FD991FF1FD091FF1FEC
:1020D000F8B5114B1B788BB1104E114D34680127A8
:1020E0002F7064B10F4A6388002717702146238040
:1020F0000420FFF789F8376000232B70F8BDFFF745
:1021000087FE084B28B1014604201C70FFF77CF8BD
:10211000F2E71F70F0E700BFD091FF1FDC91FF1FB7
:10212000D991FF1FD891FF1F38B50E4B1B7873B99B
:102130000D4C216861B103F0FF054B880B80042032
:10214000FFF762F8256038BD084B01221A7038BDD0
:10215000FFF75EFE0028F7D00146BDE838400420B6
:10216000FFF752B8D991FF1FDC91FF1FD891FF1FD5
:1021700070B5EFF3108272B60C4C206880B10C4E33
:1021800000254369236073B19D6102B962B645774A
:1021900083689847EFF3108272B620680028F0D168
:1021A00002B962B670BD3360EFE700BFEC91FF1F6C
:1021B000F091FF1FFFF7DCBF024A13680133136081
:1021C000704700BFEC90FF1F0368C9B21B68184737
:1021D0000368C9B21B6818470368C9B21B6818476F
:1021E0000368C9B21B6818474B0803F1376303F54E
:1021F000D83310B50446B3FBF1F000F0FFF9044BFF
:102200001B7803B110BD2046BDE8104000F09EBD14
:102210006C87FF1F08B5084600F0BEFB012008BD13
:1022200008B5084600F0B8FB012008BD38B50846DF
:102230000D4601F0A5FB04460146284600F0B6FB1A
:10224000204638BD10B508461446114600F0AEFBD6
:10225000204610BD00F08ABC08B5084600F074FBAB
:10226000003018BF012008BD08B5084600F04AFB41
:10227000003018BF012008BD0846114600F0DEBA44
:10228000084600F015BB00BF084600F0BBBA00BF0F
:1022900000F056BA10B54B0803F13760144600F54C
:1022A000D830B0FBF1F000F0A9F92046BDE81040AD
:1022B00000F01ABA00F040BC00F00ABC00F0F8BB15
:1022C00000F0D8BB00F0E2BB08B5FEF771FBFEF7EB
:1022D0007BF900F017F8FAE7704700BFFFF728BE58
:1022E000FFF700BEFFF7DABDFFF714BEFFF7F0BE41
:1022F000FFF7CABE08461146FFF736BE0846FFF78D
:10230000B7BE00BF2DE9F843314E337893B1314F5A
:102310003A787AB90122D9073A7036D49A0719D493
:1023200000225B073A7005D52B4B1A6812B1EFF308
:1023300005820AB1BDE8F883EFF3108172B6186820
:1023400018B1264C2278002A2ED00029F2D162B68C
:10235000BDE8F883DFF8908098F80020002ADFD0ED
:10236000DFF88890002405E0013498F80030E4B2EA
:10237000A34212D959F824502B6828461B69984764
:102380000028F1D02B699847EEE7FFF7C3FDC8B9E5
:10239000134B1B781BB93378C0E73378C0E7337829
:1023A00003F0FE033370B9E745691D600123237014
:1023B0005DB1AA6101B962B6002545778368984787
:1023C0002570B7E700F0D8FCE2E7064B1D60F1E7A7
:1023D0008087FF1FFD91FF1FF891FF1FFC91FF1FDA
:1023E0002688FF1FF491FF1F6493FF1F5893FF1F60
:1023F00030B42948294A2A4B2A4D6024E12104702F
:1024000011701B78284C082B30D00A2B27482849FC
:1024100037D00C2B0CBF35223D2212232A602360BB
:1024200002600B60234B24491B78244ABBB1012373
:102430000B601360224B23491B78234A012B26D9BA
:10244000042B0FD9082B1ED9102B94BF862387236A
:102450000B6013601D4B01221A7030BC70470B607B
:102460001360E7E784230B601360F3E700F58E2029
:102470000F490830012213232A60236002600B6099
:10248000D0E73922F7E785230B601360E2E780236A
:102490000B601360DEE700BF0040074001400740CB
:1024A0008187FF1F08B003400CB0034008B00B4009
:1024B0000CB00B40FF91FF1F20B0034020B00B4039
:1024C0008287FF1F24B0034024B00B40FE91FF1F02
:1024D0000A4A0B49136843F4805313600B7843B9DD
:1024E000084BC0221A70084B80F30C0000B2188011
:1024F0007047044B80221A70F5E700BF2C8004401F
:10250000FF91FF1F21C00C4000C00C40F0B44D1ED5
:102510002E46002400E00134B0FBF2F302FB13006E
:10252000092800F130078ABF3730F8B2C0B206F888
:10253000010F1846002BEED10A1953704CB11078D8
:1025400015F8016F28700133E01A834202F801691F
:10255000F5DB0846F0BC70472DE9F84F214B1B68AE
:1025600007460BB101221A70DFF888901E4D99F8CA
:102570000040DFF884801D4E01343F2C8ABF4FF0AD
:10258000000A5FFA84FA5446AB462B78A34216D170
:10259000FEF79AFA40281FDC33791B06F5D59BF825
:1025A000003001333F2B86BF00221346DAB218F801
:1025B0000330DBB2F3712A702B78A342E8D00C49C8
:1025C0000A4BFFB208F804700120BC22087089F899
:1025D00000A0DA70BDE8F88FFF28D6DDFFF792FE85
:1025E000D3E700BF5093FF1F4D93FF1F00A006408D
:1025F0004C93FF1F5493FF1F0892FF1F2B4A2C4937
:102600001368F0B543F4806313600A78294F2A4EAB
:102610002A4D2B4C2B4900233B8033802B70237099
:102620000B70002A3DD0152A21D0274B1B78012B97
:1026300025D0052B30D01F2827D8002002460125A1
:10264000224B234C1A7023495D7004224FF0020E76
:1026500088273C26402598729A704FF4005083F8E2
:1026600013E05A751F74DE7025700860F0BD1A4BB8
:1026700040F213321A60144B1B78012BD9D1174B3F
:102680004FF451721F281A60D7D9C0F34432C0F3F7
:10269000471500F01F00D3E7114B4FF451721A6039
:1026A000C9E7104B40F213321A60BEE73480044091
:1026B0004892FF1F0492FF1F0692FF1F5493FF1FB3
:1026C0004D93FF1F4C93FF1F8387FF1F00A0064001
:1026D0002DE400E004E100E018C0044044A0044000
:1026E0001CC0044040A00440144B14499B7803F0E4
:1026F000EC0200F003031343420700F00F0248BF4F
:1027000043F01003042A8B7013D00C4B0B4A5B79F7
:10271000C10603F0EF0348BF43F0100353719379F0
:10272000820603F0EF03054A48BF43F0100393719C
:1027300070478B7943F040038B71E6E700A00640B9
:10274000234B1B685B0541D510B5224C237823B180
:10275000FFF7D8FD2378002BFAD11F481F4A204BE2
:102760004FF4005400210460D1701B78FBB1152B8D
:1027700003D11C4B40F203121A601B4B1B7803F071
:102780007F03012B1DD0052B03D1184B40F2031200
:102790001A60174A114B1748174912681C79DB79E0
:1027A000002303800B800AB10123137010BD134B6B
:1027B00040F203121A600C4B1B7803F07F03012BCD
:1027C000E1D10F4B40F203121A60E2E7704700BFFD
:1027D000348004404C93FF1F84E100E000A00640D9
:1027E0004892FF1F18C004408387FF1F1CC004408D
:1027F0000092FF1F0492FF1F0692FF1F40A004409B
:1028000044A004400A4A38B50546137803F0FF0493
:10281000002BFAD101212846FEF778FB21462846F5
:10282000FEF760FB034A044B52F835201A6038BDAE
:102830004C93FF1F103E00005093FF1F09B140F062
:102840008000174A1378984216D010B4154C2468AB
:1028500064050FD503F07F03012B1CD0052B11D08D
:10286000002900F07F0114BF6023442301290DD00B
:10287000052902D0107010BC70470B4943F4407317
:102880000B60F7E7084B00241C60E9E7074943F4B5
:1028900040730B60EEE7054B00241C60E0E700BFCF
:1028A0008387FF1F348004401CC0044044A00440C0
:1028B000104B1A7882420AD00F490968490505D59C
:1028C000AAB1152A09D068B1152801D0187070472F
:1028D0000A4A40F213311160F8E7084A00211160FA
:1028E0000028F1D1064A40F213311160EEE70449A5
:1028F0000A60E8E74892FF1F3480044018C0044093
:1029000040A004400D4B1B6813F4806305D02128C0
:1029100005D90B4B00201860704718467047094BCB
:1029200010B5074C53F8303023600121FEF7EEFA62
:10293000236800221A70012010BD00BF34800440BB
:102940000092FF1F103E00000F4B1B6813F48063C2
:1029500008D0122808D0142811D00C4A537B03F059
:10296000FE03537300207047094B40F202321A6095
:10297000064A537B43F00103537301207047054B14
:1029800040F202321A60F3E73480044000A00640AF
:102990000CA0044014C00440034B1B685B0501D528
:1029A000FFF7DABD704700BF348004402DE9F84FCF
:1029B000294B1B685A0548D5284B1B6805460BB1A7
:1029C00001221A7005EB010A554540D2DFF89C80C0
:1029D000234CDFF89C90234F0AE015F8012B09F8EF
:1029E0000B20214A0123AA45137088F800602ED0DD
:1029F00098F80030227803F1010BBBF13F0F86BF3E
:102A00000026B3465FFA8BF69345E6D1BC22FA70F6
:102A100005E03A7913060BD422789345DDD1FEF711
:102A200053F84028F5DDFF28F6DDFFF76BFCF3E7F0
:102A3000227801323F2A86BF00210A46D1B219F816
:102A40000220D2B2FA712170E6E7BDE8F88F054B9B
:102A5000BC22DA70BDE8F88F348004405093FF1F29
:102A60004D93FF1F00A006404C93FF1F5493FF1F80
:102A70000892FF1F10B5044C237823B1FFF742FCE6
:102A80002378002BFAD110BD4C93FF1F064A074B49
:102A90001B781078DBB2C0B283422CBF3F3000F10C
:102AA000FF30C01A704700BF4D93FF1F5493FF1FA4
:102AB000054A064B10881B8880B29BB2984238BFEB
:102AC00000F58070C01A70470492FF1F0692FF1F26
:102AD000154B30B4154C1A88238892B29BB29A4297
:102AE0001FD00133FF2B0ED91149124B08781968FA
:102AF0000023C0B2238021B1D31ADA2B01DC0023DA
:102B00000B7030BC70470A480A49C05C09689DB226
:102B1000C0B225800029F4D09A4238BF02F58072F5
:102B2000EAE74FF0FF30ECE70492FF1F0692FF1F29
:102B30004C92FF1F0092FF1F094A0A4B12881B8804
:102B400092B29BB29A4208D00133B3F5807F28BF7E
:102B50000023054AD05CC0B270474FF0FF30704789
:102B60000492FF1F0692FF1F4C92FF1F0D4B1B6824
:102B70005B0516D530B40C4B0C4CDA780C480D497B
:102B800002F0CB024025DA705D74DA7842F034024C
:102B9000DA70238802689BB20B800AB1002313709D
:102BA00030BC70473480044000A006400692FF1FEE
:102BB0000092FF1F0492FF1FF0B4394B1A7912F0F4
:102BC000300F2DD072B6997D01F0FF0200293ED062
:102BD00062B6344F344938880D88344E1C4680B272
:102BE000ADB2431CB3F5807FE17928BF0023AB422F
:102BF00002F1FF32C9B21CBFF154184612F0FF02B5
:102C0000EFD12B4B1B6882B23A804BB1A84236BF42
:102C1000C5F58075401B4019E728C4BF01221A7012
:102C20001F49CA78D2B2150616D452060DD51C4BD0
:102C30001B795B0609D51F4B1F491B6800220A70D0
:102C400003B11A70164B3C22DA70F0BC7047402278
:102C5000D9795A7462B6E3E70B791C06E5D5174BB0
:102C6000174E1C783378E4B2DBB29C420ED0154D7F
:102C700001E0A3420AD00133402B28BF002308798A
:102C8000E85CC0B2C871087D0728F2D9DBB20449FC
:102C900033700B79180644BF7C23CB70C5E700BFA7
:102CA00000A006400492FF1F0692FF1F4C92FF1FD8
:102CB0000092FF1F5093FF1F4C93FF1F5493FF1F61
:102CC0004D93FF1F0892FF1F70B584B072B6194B69
:102CD000194D1A48702241260F2480211A702E7037
:102CE0001A460470197013781B06FCD5144B18682B
:102CF00062B6144B144C984298BF00EB800001A9B7
:102D000098BF40000A22FFF701FC01A920460023DA
:102D100011F8012B01333AB10A2B20F8022FF7D119
:102D20001623237004B070BD5B00DBB2237004B0C7
:102D300070BD00BF000002400700024006000240D4
:102D4000080002407F9698001088FF1F30B40749A2
:102D5000074C0A782378074D42F0020245F8230019
:102D60000A700133237030BC704700BF8087FF1F9B
:102D70006493FF1F5893FF1F704700BF80F000400F
:102D800002E000BF81F0004142001FBF5FEA410343
:102D900092EA030F7FEA226C7FEA236C6AD04FEA43
:102DA0001262D2EB1363C1BFD21841404840414088
:102DB000B8BF5B42192B88BF704710F0004F40F43A
:102DC000000020F07F4018BF404211F0004F41F456
:102DD000000121F07F4118BF494292EA030F3FD022
:102DE000A2F1010241FA03FC10EB0C00C3F1200335
:102DF00001FA03F100F0004302D5494260EB4000C4
:102E0000B0F5000F13D3B0F1807F06D340084FEA2E
:102E1000310102F10102FE2A51D2B1F1004F40EB23
:102E2000C25008BF20F0010040EA0300704749008B
:102E300040EB000010F4000FA2F10102EDD1B0FA56
:102E400080FCACF1080CB2EB0C0200FA0CF0AABF4B
:102E500000EBC25052421843BCBFD04018437047E9
:102E600092F0000F81F4000106BF80F400000132EF
:102E7000013BB5E74FEA41037FEA226C18BF7FEAC6
:102E8000236C21D092EA030F04D092F0000F08BF08
:102E90000846704790EA010F1CBF0020704712F0EF
:102EA0007F4F04D1400028BF40F00040704712F12E
:102EB00000723CBF00F50000704700F0004343F093
:102EC000FE4040F4000070477FEA226216BF0846C9
:102ED0007FEA23630146420206BF5FEA412390EA8C
:102EE000010F40F4800070474FF0000304E000BF82
:102EF00010F0004348BF40425FEA000C08BF704733
:102F000043F0964301464FF000001CE050EA0102F6
:102F100008BF70474FF000030AE000BF50EA01020B
:102F200008BF704711F0004302D5404261EB4101F8
:102F30005FEA010C02BF84460146002043F0B6431D
:102F400008BFA3F18053A3F50003BCFA8CF2083A42
:102F5000A3EBC25310DB01FA02FC634400FA02FC4B
:102F6000C2F12002BCF1004F20FA02F243EB020052
:102F700008BF20F00100704702F1200201FA02FCB4
:102F8000C2F1200250EA4C0021FA02F243EB0200A7
:102F900008BF20EADC7070474FF0FF0C1CEAD052EB
:102FA0001EBF1CEAD15392EA0C0F93EA0C0F6FD0AC
:102FB0001A4480EA010C400218BF5FEA41211ED08A
:102FC0004FF0006343EA501043EA5111A0FB013176
:102FD0000CF00040B1F5000F3EBF490041EAD3714B
:102FE0005B0040EA010062F17F02FD2A1DD8B3F1C7
:102FF000004F40EBC25008BF20F00100704790F036
:10300000000F0CF0004C08BF49024CEA502040EA87
:1030100051207F3AC2BFD2F1FF0340EAC25070474D
:1030200040F400004FF00003013A5DDC12F1190F8B
:10303000DCBF00F000407047C2F10002410021FAFD
:1030400002F1C2F1200200FA02FC5FEA310040F115
:10305000000053EA4C0308BF20EADC70704792F08E
:10306000000F00F0004C02BF400010F4000F013AC6
:10307000F9D040EA0C0093F0000F01F0004C02BFC1
:10308000490011F4000F013BF9D041EA0C018FE730
:103090000CEAD15392EA0C0F18BF93EA0C0F0AD036
:1030A00030F0004C18BF31F0004CD8D180EA01005C
:1030B00000F00040704790F0000F17BF90F0004FF5
:1030C000084691F0000F91F0004F14D092EA0C0FD7
:1030D00001D142020FD193EA0C0F03D14B0218BF6A
:1030E000084608D180EA010000F0004040F0FE40B0
:1030F00040F40000704740F0FE4040F4400070474C
:103100004FF0FF0C1CEAD0521EBF1CEAD15392EACA
:103110000C0F93EA0C0F69D0A2EB030280EA010CBA
:1031200049024FEA402037D04FF0805343EA111153
:1031300043EA10130CF000408B4238BF5B0042F1B1
:103140007D024FF4000C8B4224BF5B1A40EA0C0056
:10315000B3EB510F24BFA3EB510340EA5C00B3EB88
:10316000910F24BFA3EB910340EA9C00B3EBD10F76
:1031700024BFA3EBD10340EADC001B0118BF5FEAC8
:103180001C1CE0D1FD2A3FF650AF8B4240EBC250F1
:1031900008BF20F0010070470CF0004C4CEA5020B2
:1031A0007F32C2BFD2F1FF0340EAC250704740F401
:1031B00000004FF00003013A37E792F0000F00F0F3
:1031C000004C02BF400010F4000F013AF9D040EA71
:1031D0000C0093F0000F01F0004C02BF490011F405
:1031E000000F013BF9D041EA0C0195E70CEAD153FD
:1031F00092EA0C0F08D142027FF47DAF93EA0C0FE4
:103200007FF470AF084676E793EA0C0F04D14B02C7
:103210003FF44CAF08466EE730F0004C18BF31F079
:10322000004CCAD130F000427FF45CAF31F0004373
:103230007FF43CAF5FE700BF4FF0FF3C06E000BF0C
:103240004FF0010C02E000BF4FF0010C4DF804CD2F
:103250004FEA40024FEA41037FEA226C18BF7FEA3F
:10326000236C11D001B052EA530C18BF90EA010F41
:1032700058BFB2EB030088BFC81738BF6FEAE170D0
:1032800018BF40F0010070477FEA226C02D15FEA6C
:10329000402C05D17FEA236CE4D15FEA412CE1D0D8
:1032A0005DF8040B704700BF844608466146FFE79F
:1032B0000FB5FFF7C9FF002848BF10F1000F0FBD81
:1032C0004DF808EDFFF7F4FF0CBF012000205DF87A
:1032D00008FB00BF4DF808EDFFF7EAFF34BF0120FF
:1032E00000205DF808FB00BF4DF808EDFFF7E0FF98
:1032F00094BF012000205DF808FB00BF4DF808EDE9
:10330000FFF7D2FF94BF012000205DF808FB00BF4B
:103310004DF808EDFFF7C8FF34BF012000205DF82D
:1033200008FB00BF42000ED2B2F1FE4F0BD34FF0AC
:103330009E03B3EB126209D44FEA002343F000432B
:1033400023FA02F070474FF00000704712F1610F4E
:1033500001D1420202D14FF0FF3070474FF0000020
:10336000704700BF014B1868704700BF508CFF1FAB
:1033700070B50F4E0F4D761BB61018BF002405D048
:10338000013455F8043B9847A642F9D10A4E0B4D3B
:10339000761B00F037FEB61018BF002406D00134AB
:1033A00055F8043B9847A642F9D170BD70BD00BFE7
:1033B00010400000104000001C40000010400000C1
:1033C000024B0146186800F003B800BF508CFF1F85
:1033D0002DE9F04F01F10B05162D83B0064640F2A2
:1033E0009F8035F0070500F1BF80A94200F2BC8044
:1033F00000F0A6FAB5F5FC7FC0F09C826B0A00F0E5
:10340000BA80042B00F28381A80900F1390E4FEA3B
:103410004E033830C44F07EB8303A3F108015C6807
:10342000A14207D1ACE0002A80F2AC80E468A1425E
:1034300000F0A680636823F003035A1B0F2AF2DD15
:10344000B9493C6901F1080E744500F0B381636825
:1034500023F003035A1B0F2A00F39981002AC1F8B5
:1034600014E0C1F810E080F29E80B3F5007F80F098
:103470006781DB0803F1010C01229B1002FA03F3C0
:103480004A6851F83C80C4F8088001EBCC091A4323
:10349000A9F10803E3604A6041F83C40C8F80C40D9
:1034A000831001249C40944200F28A80144206D189
:1034B00020F003006400144200F10400FAD007EB8E
:1034C000C009CC468046DCF80C108C4507D173E16E
:1034D000002A80F28181C9688C4500F06D814B68BB
:1034E00023F003035A1B0F2AF2DD0C46D1F80CC05F
:1034F00054F8088F4B1945F001054D6042F0010169
:10350000C8F80CC03046CCF808807B613B61C3F83A
:103510000CE0C3F808E059609A5000F013FA1FE07D
:10352000102921D800F00CFA1025062302207E4F26
:1035300007EB8303A3F108025C68944200F0458125
:103540006368E168A56823F00303234430465A68A2
:10355000E96042F001028D605A6000F0F3F908342E
:10356000204603B0BDE8F08F00240C2320463360D2
:1035700003B0BDE8F08F80234FF0400E3F2049E7B5
:1035800070465DE72344E1685A68A56842F001028D
:10359000E96030468D605A6000F0D4F90834204666
:1035A00003B0BDE8F08F234430465A6842F0010270
:1035B0005A6000F0C7F90834204603B0BDE8F08F28
:1035C000BC68636823F00308A84504D3C5EB08036F
:1035D0000F2B00F38C80554BDFF860911A68D9F8F7
:1035E000003001332A4404EB080A00F0608102F540
:1035F00080520F3222F47F6222F00F0211463046D1
:10360000019200F0A1F9B0F1FF3F8346019A00F06A
:103610005881824500F2FC80454B1968DA45114417
:10362000196000F05381D9F80000DFF810E1013093
:103630001BBFCAEB0B0A5144CEF800B019601BF057
:10364000070100F01781C1F10800C1F580518344E2
:1036500008315A44C2F30B02C2EB01094946304615
:10366000019300F071F9431C019B00F03F81CBEB0B
:1036700000024A4442F001021968C7F808B0494400
:10368000BC42CBF804201960DFF8A49016D0B8F142
:103690000F0F40F2FD806268A8F10C0323F00703CE
:1036A000E01802F001024FF0050E1A430F2B626082
:1036B000C0F804E0C0F808E000F21C811D4BBC68B3
:1036C0001A68914288BF19601B4B1A689142626860
:1036D00088BF196022F003029542A2EB050301D8CE
:1036E0000F2B04DC304600F02DF9002438E7621976
:1036F00043F0010345F0010565603046BA60536050
:1037000000F020F90834204603B0BDE8F08F142BF8
:1037100071D9542B00F2A480280B00F16F0E4FEAF0
:103720004E036E3076E600BF548CFF1F7093FF1F70
:103730007493FF1F6C93FF1F6893FF1F6090FF1F20
:103740005A0A042A5ED9142A00F2B38002F15C01FD
:1037500049005B3207EB810C57F82110DFF8DC8160
:10376000ACF1080C8C4500F088804A6822F0030216
:10377000934202D289688C45F7D1D1F80CC07A689F
:10378000C4F80CC0A160CCF80840CC6088E663198E
:1037900042F0010745F00105656030464B610B6161
:1037A000C3F80CE0C3F808E05F609A50083400F0FA
:1037B000C9F8D5E64A6873E608F1010818F0030F66
:1037C0000CF1080C7FF47FAE30E0DC68A34208BF48
:1037D00002303FF435AEB3E60B440C465A68C96874
:1037E00054F8085F42F001025A603046E9608D608B
:1037F00000F0A8F8B4E603F15C0E03F15B004FEAB9
:103800004E0307E69A0902F1390149003832A1E76F
:10381000BC424A4B3FF400AF9C68626822F003024E
:103820005AE759F80839994540F0828010F0030FA3
:1038300000F1FF30F5D17B6823EA04037B6064006C
:103840009C423FF6BDAE002C3FF4BAAE1C4240464F
:103850007FF435AE64001C4200F10400FAD02EE67D
:10386000B3F5AA7F18D8E80B00F1780E4FEA4E03A3
:103870007730CFE54FF48051EBE60121D8F80430E2
:10388000921001FA02F21A43C8F80420614677E761
:103890000123CBF8043025E740F25452934220D85C
:1038A000A80C00F17D0E4FEA4E037C30B2E51032D9
:1038B000A4E6542A26D81A0B02F16F0149006E3291
:1038C00048E7BC68626822F0030205E7CAF30B0010
:1038D00000287FF4A8AE4244BB6842F001025A605F
:1038E000ECE6FE234FF07F0E7E2093E501224FF0A1
:1038F0000009C1E604F10801304600F021F9D9F8C9
:103900000010DBE6B2F5AA7F05D8DA0B02F17801E8
:10391000490077321EE740F254518A4205D89A0C8A
:1039200002F17D0149007C3214E7FE217E2211E77D
:103930007B6884E7E808431C5B00F8E5548CFF1FB4
:10394000704700BF704700BF38B5074C00230546DD
:1039500008462360FDF7A2F8431C00D038BD236859
:10396000002BFBD02B6038BDB093FF1FFFFFFFFF84
:10397000FFFFFFFFFFFFFFFFFFFFFFFFFFFFFFFF57
:1039800090F800F06DE9024520F007016FF0000C9F
:1039900010F0070491F820F040F049804FF0000447
:1039A0006FF00700D1E9002391F840F000F1080022
:1039B00082FA4CF2A4FA8CF283FA4CF3A2FA8CF35A
:1039C0004BBBD1E9022382FA4CF200F10800A4FAC1
:1039D0008CF283FA4CF3A2FA8CF3E3B9D1E9042315
:1039E00082FA4CF200F10800A4FA8CF283FA4CF34C
:1039F000A2FA8CF37BB9D1E9062301F1200182FA06
:103A00004CF200F10800A4FA8CF283FA4CF3A2FA0B
:103A10008CF3002BC6D0002A04BF04301A4612BA19
:103A2000B2FA82F2FDE8024500EBD2007047D1E91C
:103A3000002304F00305C4F100004FEAC50514F0AB
:103A4000040F91F840F00CFA05F562EA05021CBF7C
:103A500063EA050362464FF00004A9E7024B13B185
:103A6000024800F005B87047000000007D3A0000F1
:103A7000002301461A46184600F04AB938B5074DEA
:103A8000074C2C1BA41005D0013C55F8043D984769
:103A9000002CF9D1BDE8384000F0C0BA00000000A9
:103AA00000000000F8B5234F0C460646FFF748FF1C
:103AB000BB685D6825F00305291B01F6EF7121F451
:103AC0007F6121F00F01A1F58054B4F5805F07DB21
:103AD00000213046FFF738FFBB682B44984204D0E2
:103AE0003046FFF72FFF0020F8BD61423046FFF758
:103AF0002BFF01300DD0104BBA6819682D1B45F013
:103B000001053046091B55601960FFF71BFF0120B6
:103B1000F8BD00213046FFF717FFBA68831A0F2B54
:103B2000DEDD064C0449246843F00103001B5360AA
:103B30000860D5E7548CFF1F7493FF1F6090FF1F30
:103B4000002945D02DE9F0410D468046FFF7F8FEEB
:103B500055F8047C6A4927F00103A5F10804E2182E
:103B60008E685068B24220F0030062D0FE075060B9
:103B70000BD455F8087CE41B01F1080EA5687545C7
:103B80003B446FD0E768EF60BD6015186D68ED07C6
:103B900042D543F001026260E350B3F5007F18D2D2
:103BA000DB085A1C4D6851F83270A76001209B1049
:103BB00000FA03F301EBC2001D430838E0604D60DA
:103BC00041F83240FC604046BDE8F041FFF7BABE24
:103BD00070475A0A042A53D89A0902F139077F001C
:103BE00002F1380501EB870051F8272044490838D5
:103BF00090424DD0516821F003018B4202D292686D
:103C00009042F7D1D068E060A2608460D460404602
:103C1000BDE8F041FFF796BE95683A4FBD420344B8
:103C20003FD0D068E86043F0010285606260E350F5
:103C3000B3E7FF07034407D455F8082CA41A13442C
:103C4000A068E268C26090602F4A126843F00100E9
:103C5000934260608C60B6D32C4B40461968FFF7E6
:103C600021FFB0E711184968C90744D49168D268A8
:103C7000CA60034443F0010091606060E350A2E732
:103C8000142A17D802F15C077F0002F15B05A9E74F
:103C9000AA104B68012505FA02F213434B60024655
:103CA000B1E743F001024C610C61E560A560626020
:103CB000E35088E7542A06D81A0B02F16F077F00F9
:103CC00002F16E058EE7B2F5AA7F06D8DA0B02F193
:103CD00078077F0002F1770584E740F25450824272
:103CE00006D89A0C02F17D077F0002F17C0579E786
:103CF000FE277E2576E743F001026260E35062E72B
:103D0000548CFF1F5C8CFF1F5C90FF1F7093FF1F84
:103D10002DE9F047254C2568D5F8484106468846E8
:103D200092469946C4B360681F2817DC431C76B1DD
:103D300004EB80050122C5F888A0D4F888118240E0
:103D40001143022EC4F88811C5F808911ED0023024
:103D5000636044F820800020BDE8F087144B03B373
:103D60004FF4C870FFF72CFB0446D0B1D5F84831AA
:103D7000002780E88800C5F8484138460123C4F888
:103D80008871C4F88C71002EE1D0D1E7D4F88C1181
:103D90000A43C4F88C21DAE705F5A674C5F8484152
:103DA000C1E74FF0FF30BDE8F08700BF00400000E2
:103DB000C13300000406080B0305090A506F727432
:103DC00031496E00506F7274314F757400000000FD
:103DD000506F727432496E00506F7274324F757446
:103DE00000000000506F727433496E00506F72749F
:103DF000334F757400000000506F727434496E00C8
:103E0000506F7274344F757400000000141517164B
:103E10004008FE4340A004404408FE4344A0044040
:103E20000018FE4300C004403000FE4330900440C0
:103E30003400FE43349004401C18FE431CC0044070
:103E40001018FE4310C004400818FE4308C0044088
:103E50000C18FE430CC004400C10FE430CB0044090
:103E60001010FE4310B004401810FE4318B0044078
:103E70001C10FE431CB004401410FE4314B0044058
:103E80000418FE4304C004400010FE4300B0044088
:103E90000008FE4300A004400408FE4304A00440C0
:103EA0000C08FE430CA004400808FE4308A0044090
:103EB0001418FE4314C004401818FE4318C00440F0
:103EC0000410FE4304B004400810FE4308B0044050
:103ED0001400FE43149004404C08FE434CA00440E0
:103EE0000420FE4304D004402410FE4324B00440C8
:103EF0002010FE4320B004402810FE4328B00440A8
:103F00002C10FE432CB004400020FE4300D004409F
:103F10004808FE4348A004401000FE4310900440AF
:103F200000000000000000002122000045220000E7
:103F3000C5220000C1220000BD220000B9220000FD
:103F4000B5220000E9210000952200009122000026
:103F500089220000812200007922000069220000ED
:103F60005922000055220000C9210000D121000083
:103F7000D9210000E12100002D22000015220000BF
:103F80000000000000000000FD220000F5220000FB
:103F9000F1220000ED220000E9220000E5220000ED
:103FA000E1220000DD2200000015191500010000CB
:103FB0008487FF1F1200000000020000B087FF1F6F
:103FC00043000000000300000C88FF1F00000000F9
:103FD000010309049887FF1F000000000203090481
:103FE000F487FF1F00000000030309041088FF1F6F
:103FF00000000000000000000000000000000000C1
:104000002888FF1FF8B500BFF8BC08BC9E46704763
:0C4010005D3A0000350400008909000042
:04401C00F8B500BF34
:10402000BC3D0000C43D0000D03D0000D83D000074
:10403000E43D0000EC3D0000F83D0000003E0000C3
:10404000080000005041000001000000B493FF1F71
:1040500008000000FFFFFFFF283F000000000000F5
:10406000E803000000000000D92200000100000069
:10407000883F000000000000E8030000000000008E
:10408000010A04011201100102000040C01683045D
:104090007502010203010000180354006500650069
:1040A0006E00730079006400750069006E006F0097
:1040B00009024300020100C03209040000010202AB
:1040C0000100052400100105240101010424020659
:1040D00005240600010705820310004009040100C1
:1040E000020A0000000705030240000007058402E1
:1040F000400000001603550053004200200053000A
:1041000065007200690061006C000000040309048E
:104110000C03000000000000000000000000000090
:10412000000000000000010000000000148BFF1FD1
:104130007C8BFF1FE48BFF1F0000000000000000CD
:10414000000000000000000000000000000000006F
:10415000000000000000000000000000000000005F
:10416000000000000000000000000000000000004F
:10417000000000000000000000000000000000003F
:10418000000000000000000000000000000000002F
:10419000000000000000000000000000000000001F
:1041A000000000000000000000000000000000000F
:1041B00000000000000000000000000000000000FF
:1041C00000000000000000000000000000000000EF
:1041D00001000000000000000E33CDAB34126DE68C
:1041E000ECDE05000B0000000000000000000000F5
:1041F00000000000000000000000000000000000BF
:1042000000000000000000000000000000000000AE
:10421000000000000000000000000000000000009E
:10422000000000000000000000000000000000008E
:104550002888FF1F0000000000000000548CFF1F8F
:10456000548CFF1F5C8CFF1F5C8CFF1F648CFF1F33
:10457000648CFF1F6C8CFF1F6C8CFF1F748CFF1FE3
:10458000748CFF1F7C8CFF1F7C8CFF1F848CFF1F93
:10459000848CFF1F8C8CFF1F8C8CFF1F948CFF1F43
:1045A000948CFF1F9C8CFF1F9C8CFF1FA48CFF1FF3
:1045B000A48CFF1FAC8CFF1FAC8CFF1FB48CFF1FA3
:1045C000B48CFF1FBC8CFF1FBC8CFF1FC48CFF1F53
:1045D000C48CFF1FCC8CFF1FCC8CFF1FD48CFF1F03
:1045E000D48CFF1FDC8CFF1FDC8CFF1FE48CFF1FB3
:1045F000E48CFF1FEC8CFF1FEC8CFF1FF48CFF1F63
:10460000F48CFF1FFC8CFF1FFC8CFF1F048DFF1F11
:10461000048DFF1F0C8DFF1F0C8DFF1F148DFF1FBE
:10462000148DFF1F1C8DFF1F1C8DFF1F248DFF1F6E
:10463000248DFF1F2C8DFF1F2C8DFF1F348DFF1F1E
:10464000348DFF1F3C8DFF1F3C8DFF1F448DFF1FCE
:10465000448DFF1F4C8DFF1F4C8DFF1F548DFF1F7E
:10466000548DFF1F5C8DFF1F5C8DFF1F648DFF1F2E
:10467000648DFF1F6C8DFF1F6C8DFF1F748DFF1FDE
:10468000748DFF1F7C8DFF1F7C8DFF1F848DFF1F8E
:10469000848DFF1F8C8DFF1F8C8DFF1F948DFF1F3E
:1046A000948DFF1F9C8DFF1F9C8DFF1FA48DFF1FEE
:1046B000A48DFF1FAC8DFF1FAC8DFF1FB48DFF1F9E
:1046C000B48DFF1FBC8DFF1FBC8DFF1FC48DFF1F4E
:1046D000C48DFF1FCC8DFF1FCC8DFF1FD48DFF1FFE
:1046E000D48DFF1FDC8DFF1FDC8DFF1FE48DFF1FAE
:1046F000E48DFF1FEC8DFF1FEC8DFF1FF48DFF1F5E
:10470000F48DFF1FFC8DFF1FFC8DFF1F048EFF1F0C
:10471000048EFF1F0C8EFF1F0C8EFF1F148EFF1FB9
:10472000148EFF1F1C8EFF1F1C8EFF1F248EFF1F69
:10473000248EFF1F2C8EFF1F2C8EFF1F348EFF1F19
:10474000348EFF1F3C8EFF1F3C8EFF1F448EFF1FC9
:10475000448EFF1F4C8EFF1F4C8EFF1F548EFF1F79
:10476000548EFF1F5C8EFF1F5C8EFF1F648EFF1F29
:10477000648EFF1F6C8EFF1F6C8EFF1F748EFF1FD9
:10478000748EFF1F7C8EFF1F7C8EFF1F848EFF1F89
:10479000848EFF1F8C8EFF1F8C8EFF1F948EFF1F39
:1047A000948EFF1F9C8EFF1F9C8EFF1FA48EFF1FE9
:1047B000A48EFF1FAC8EFF1FAC8EFF1FB48EFF1F99
:1047C000B48EFF1FBC8EFF1FBC8EFF1FC48EFF1F49
:1047D000C48EFF1FCC8EFF1FCC8EFF1FD48EFF1FF9
:1047E000D48EFF1FDC8EFF1FDC8EFF1FE48EFF1FA9
:1047F000E48EFF1FEC8EFF1FEC8EFF1FF48EFF1F59
:10480000F48EFF1FFC8EFF1FFC8EFF1F048FFF1F07
:10481000048FFF1F0C8FFF1F0C8FFF1F148FFF1FB4
:10482000148FFF1F1C8FFF1F1C8FFF1F248FFF1F64
:10483000248FFF1F2C8FFF1F2C8FFF1F348FFF1F14
:10484000348FFF1F3C8FFF1F3C8FFF1F448FFF1FC4
:10485000448FFF1F4C8FFF1F4C8FFF1F548FFF1F74
:10486000548FFF1F5C8FFF1F5C8FFF1F648FFF1F24
:10487000648FFF1F6C8FFF1F6C8FFF1F748FFF1FD4
:10488000748FFF1F7C8FFF1F7C8FFF1F848FFF1F84
:10489000848FFF1F8C8FFF1F8C8FFF1F948FFF1F34
:1048A000948FFF1F9C8FFF1F9C8FFF1FA48FFF1FE4
:1048B000A48FFF1FAC8FFF1FAC8FFF1FB48FFF1F94
:1048C000B48FFF1FBC8FFF1FBC8FFF1FC48FFF1F44
:1048D000C48FFF1FCC8FFF1FCC8FFF1FD48FFF1FF4
:1048E000D48FFF1FDC8FFF1FDC8FFF1FE48FFF1FA4
:1048F000E48FFF1FEC8FFF1FEC8FFF1FF48FFF1F54
:10490000F48FFF1FFC8FFF1FFC8FFF1F0490FF1F02
:104910000490FF1F0C90FF1F0C90FF1F1490FF1FAF
:104920001490FF1F1C90FF1F1C90FF1F2490FF1F5F
:104930002490FF1F2C90FF1F2C90FF1F3490FF1F0F
:104940003490FF1F3C90FF1F3C90FF1F4490FF1FBF
:104950004490FF1F4C90FF1F4C90FF1F000002006F
:04496000FFFFFFFF57
:00000001FF
